:100000000C94C1030C94DF1C0C94061D0C94E903A2
:100010000C94E9030C94E9030C94E9030C94E903B0
:100020000C94E9030C94E9030C94E9030C94E903A0
:100030000C94E9030C94CB180C94E9030C94E90399
:100040000C942D1D0C94E9030C94BF1A0C94F11A16
:100050000C94E9030C94E9030C94E9030C94E90370
:100060000C94E9030C94E903CF06BA0A1407BA0A00
:10007000190778076107B2071D08BA0A6508BA0AA6
:10008000BA0AAA08BA0AEE086409BA0A8C09B509BC
:10009000BA0ABA0ABA0ABA0ABA0ABA0AF909BA0A02
:1000A000BA0ABA0ABA0ABA0A250ADC0EF80E120F00
:1000B0001F0F380F450F630F6B0F7B0F860FAF0FAE
:1000C000CE0FDE0FF70F271036103E103D0F8810B1
:1000D0009310A610B810C010F4104D1154115B11FC
:1000E000C8116211691174119911AA11BE1101117F
:1000F00010111F112C113611451147117553004372
:1001000069636C6F204D61783A00755300436963F1
:100110006C6F204D696E3A007553004369636C6FD4
:10012000204163743A0056657273696F6E3A0062DB
:10013000792057617272696F72004265617444750B
:10014000696E6F00202073656700202042504D00CB
:1001500042504D002042504D004578706F727461DE
:100160006E646F20454550524F4D2E2E2E00526525
:10017000696E696369616E646F2E2E2E0054696525
:100180006D706F20706172612070617261723A00EF
:100190005469706F20436F6D7061733A00456C69EC
:1001A000676520656C207469656D706F3A004E6FED
:1001B0006D6272652063616E63696F6E3A00436FB2
:1001C000706961722061637475616C20656E3A00BC
:1001D000496E73657274617220747261733A00457E
:1001E0006C696765206C612063616E63696F6E3A4C
:1001F00000506F736963696F6E2061206564697474
:1002000061723A004E6F6D62726520526570657260
:10021000746F72696F3A00456C696765205265704A
:100220006572746F72696F3A0054204F46460054ED
:10023000204F4E2000554C5449005052494D005219
:10024000455345540041545241530053414C5600CC
:10025000424F525241004D454E5500504C415900BD
:1002600053544F500075026902496E74657272757D
:1002700070746F720050756C7361646F72009702D6
:100280008D028402416E746572696F7200536967F2
:100290007569656E746500506172617220792061C4
:1002A0007272616E63617200B902AC025469706F60
:1002B00020547269676765720046756E63696F6E78
:1002C000205472696767657200EA02DC02CF02544B
:1002D00069656D706F20646562696C005469656D55
:1002E000706F2066756572746500546F646F73007B
:1002F0000803FF02F602536F6E69646F20330053E8
:100300006F6E69646F203200536F6E69646F2031C5
:1003100000200315035265706572746F72696F0077
:100320004D6574726F6E6F6D6F008B037A036E0391
:1003300061035603460338035265736574204661B2
:1003400062726963610054726967676572204578FB
:100350007465726E6F004D69646920436C6F636BE6
:100360000054656D706F72697A61646F7200536FCB
:100370006E69646F205469636B005469656D706FBA
:10038000732061756469626C6573004D6F646F0002
:100390009B039903960331360038003400D303C51C
:1003A00003B403A50343616D6269617220436F6DFD
:1003B0007061730043616D6269617220446976699E
:1003C00073696F6E0043616D626961722054656D7F
:1003D000706F0043616D62696172204E6F6D627271
:1003E0006500F703E603456C696D696E6172204331
:1003F000616E63696F6E0045646974617220436168
:100400006E63696F6E000D040A045349004E4F007D
:100410004704360425041804566163696172204F4D
:100420007264656E00456C696D696E61722043612E
:100430006E63696F6E00496E7365727461722043FA
:10044000616E63696F6E0043616D62696172204F16
:100450007264656E006704590443616D626961727C
:10046000204F7264656E0043616D62696172204E57
:100470006F6D62726500B604A40492047E04456C3C
:10048000696D696E6172205265706572746F726910
:100490006F00436F70696172205265706572746F8E
:1004A00072696F004564697461722052657065728B
:1004B000746F72696F0043616D6269617220646577
:1004C000205265706572746F72696F00EB04E1040D
:1004D000D904D404496E666F00416A7573746573FC
:1004E0000043616E63696F6E65730052657065727B
:1004F000746F72696F7300000005072060000000D0
:10050000000000005F00000007000700147F147F58
:1005100014242A7F2A122313086462364956205075
:100520000008070300001C2241000041221C002A91
:100530001C7F1C2A08083E0808008070300008084C
:10054000080808000060600020100804023E5149BD
:10055000453E00427F400072494949462141494D8C
:10056000331814127F1027454545393C4A49493113
:1005700041211109073649494936464949291E0092
:10058000001400000040340000000814224114143C
:10059000141414004122140802015909063E415D59
:1005A000594E7C1211127C7F494949363E414141E6
:1005B000227F4141413E7F494949417F0909090163
:1005C0003E414151737F0808087F00417F41002070
:1005D00040413F017F081422417F404040407F025C
:1005E0001C027F7F0408107F3E4141413E7F090984
:1005F00009063E4151215E7F09192946264949498C
:100600003203017F01033F4040403F1F2040201F35
:100610003F4038403F6314081463030478040361C7
:1006200059494D43007F41414102040810200041D7
:1006300041417F0402010204404040404000030762
:10064000080020545478407F2844443838444444B7
:1006500028384444287F385454541800087E09022E
:1006600018A4A49C787F0804047800447D400020EE
:1006700040403D007F1028440000417F40007C0442
:100680007804787C080404783844444438FC1824FE
:10069000241818242418FC7C0804040848545454D2
:1006A0002404043F44243C4040207C1C2040201C67
:1006B0003C4030403C44281028444C9090907C446E
:1006C00064544C44000836410000007700000041AB
:1006D00036080002010204023C2623263CE30619E8
:1006E000804000AED580A83FD300408D142002A1E9
:1006F000C8DA12817FD9F1DB40A4A6AF56616369E5
:100700006F20202020202020202020005641434917
:100710004F20200000030C0F30333C3FC0C3CCCF30
:10072000F0F3FCFF000000080002010000030407D2
:1007300000000000000000000102040810204080BA
:10074000010204081020010204081020040404041B
:10075000040404040202020202020303030303036B
:1007600000000000230026002900000000002500F2
:1007700028002B0000000000240027002A00871317
:10078000211B11241FBECFEFD8E0DEBFCDBF11E08B
:10079000A0E0B1E0EAE3F4E402C005900D92A83FC6
:1007A000B107D9F723E0A8EFB1E001C01D92AF3344
:1007B000B207E1F713E0C1ECD3E004C02197FE01DA
:1007C0000E94A620CF3BD107C9F70E944F1B0C9473
:1007D0001B220C94000080E090E008950895CF93D0
:1007E000DF938091120290911302892BC1F086E071
:1007F0000E94841EEC0182E00E94841EC817D90763
:1008000019F08FEF9FEF02C081E090E09093150206
:1008100080931402109213021092120209C0809168
:100820001202909113020196909313028093120288
:10083000DF91CF9108950C940522EF92FF920F93D0
:100840001F93CF93DF931F92CDB7DEB77C01FC01DE
:1008500000811181C80169830E940522698168179E
:1008600019F0C8010E940D22C7010F90DF91CF91AE
:100870001F910F91FF90EF900895FC016093BC00D1
:100880008091BC0087FFFCCF9091B900987F908346
:100890000895CF92DF92EF92FF920F931F93CF9321
:1008A000DF93EC01C62ED42E8F85882351F04111A1
:1008B00008C084E98093BC008091BC0084FDFCCF1B
:1008C0001F86EF848E01035F1F4FE11014C0FE846A
:1008D00064EAC8010E943D048D85883011F18031A1
:1008E00001F1DD2011F080E4E82EE092BB0064E825
:1008F000C8010E943D04C092BB0064E8C8010E9488
:100900003D0482E0D81204C08F858F5F8F8711C0AD
:1009100084E98093BC008091BC0084FDFCCF1F86DD
:1009200008C0FF0CF092BB0064E8C8010E943D04BF
:10093000D8CFDF91CF911F910F91FF90EF90DF9073
:10094000CF90089580913F02813099F4E0910C029C
:10095000E11103C010923F0215C084E0E89FF0014E
:100960001124EF5BFE4F818180930C0210920B02E9
:1009700009C081E080933F0210920B0210920A029C
:1009800010920C0281E080931601089580913F023D
:10099000882319F0813041F024C09091350281E024
:1009A0008927809335021DC080910C02883061F048
:1009B00028F4843061F0863039F013C08F3021F094
:1009C000813129F08A3069F410920B020AC08091BB
:1009D0000A02E0910802F0910902E80FF11D80E29D
:1009E000808381E0809316010895EF92FF920F9328
:1009F0001F93CF93DF93CDB7DEB764970FB6F8940C
:100A0000DEBF0FBECDBF8B017A0121E02093200213
:100A100020931F02009791F0BC01CE0101960E9425
:100A2000D92147E060E086E192E00E94E116BE0134
:100A30006F5F7F4F86E192E00E94C21B0115110596
:100A4000F9F0B8018E010F5F1F4FC8010E94D92134
:100A5000F80101900020E9F73197E01BF10BF695C2
:100A6000E79560E487E0E89F6019112447E086E19C
:100A700092E00E94E116B80186E192E00E94C21B5A
:100A8000E114F104E9F0B7018E010F5F1F4FC801B7
:100A90000E94D921F80101900020E9F73197E01B6D
:100AA000F10B60E887E0E89F6019112447E086E1D8
:100AB00092E00E94E116B80186E192E00E94C21B1A
:100AC0001092200264960FB6F894DEBF0FBECDBF21
:100AD000DF91CF911F910F91FF90EF900895BF92FA
:100AE000CF92DF92EF92FF920F931F93CF93DF93FA
:100AF000CDB7DEB76E970FB6F894DEBF0FBECDBF91
:100B00009091170180913F02981741F086E192E0A1
:100B10000E943F1780913F028093170180913F020E
:100B2000882321F0813009F418C164C51091400276
:100B3000112309F4B4C0113009F05CC540E060E055
:100B400086E192E00E94E11610922002609132024A
:100B500070E06F5F7F4F4AE050E086E192E00E94D4
:100B6000861C66E371E086E192E00E94C21B61E4AC
:100B700072E086E192E00E94C21B69E371E086E1C7
:100B800092E00E94C21B02E021E040E860E086E1C2
:100B900092E00E940B1741E060E086E192E00E9443
:100BA000E1166091330270E06F5F7F4F4AE050E0E2
:100BB00086E192E00E94861C66E371E086E192E0A5
:100BC0000E94C21B6AE472E086E192E00E94C21BAE
:100BD00068E371E086E192E00E94C21B82E08093AC
:100BE0001F0204E023E047E260E086E192E00E9419
:100BF0000B1760911401709115014AE050E086E1F5
:100C000092E00E94B81C43E068E286E192E00E9414
:100C1000E11664E571E086E192E00E949E1B10936C
:100C20001F0205E025E047E160E086E192E00E94D6
:100C30000B1760910C0170910D014AE050E086E1C4
:100C400092E00E94B81C6BE371E086E192E00E94A2
:100C5000C21B60910E0170910F01660F771F660F26
:100C6000771F4AE050E086E192E00E94B81C909124
:100C700035028091310246E552E0992341F0882304
:100C800019F069E272E066C06FE272E063C0882327
:100C900019F069E272E05BC06FE272E058C082E076
:100CA00080931F0202E021E04FE360E086E192E0E2
:100CB0000E940B1741E06BE086E192E00E94E11692
:100CC0001092200260911401709115014AE050E0E9
:100CD00086E192E00E94B81C41E060E486E192E087
:100CE0000E94E11660E571E086E192E00E949E1BA1
:100CF00081E080931F0244E060E486E192E00E947C
:100D0000E11660910C0170910D014AE050E086E11E
:100D100092E00E94B81C6BE371E086E192E00E94D1
:100D2000C21B60910E0170910F01660F771F660F55
:100D3000771F4AE050E086E192E00E94B81C809163
:100D4000350246E552E060E070E0882319F08BE55B
:100D500092E04EC480E692E04BC490910A018091EB
:100D60000C02981741F086E192E00E943F178091B3
:100D70000C0280930A0140E060E086E192E00E946C
:100D8000E116E0910C028E2F90E0FC013297E132E7
:100D9000F10508F0EFC3EC5CFF4F0C94A620109215
:100DA000200267E172E0CE0101960E94D921BE01C6
:100DB0006F5F7F4F86E192E00E94E11B01E021E03E
:100DC00040E860E086E192E00E940B1700E010E04E
:100DD000DD24D39480910B0290E08017910719F4E1
:100DE000D092200202C010922002802F0E940F1584
:100DF0007C010F5F1F4F4AE050E0B80186E192E0AE
:100E00000E94861C66E371E086E192E00E94C21BAC
:100E1000B70186E192E00E94E11BC7010E944121D7
:100E200003301105B9F6DEC31092200264E072E0CF
:100E3000D9C100910B02053020F010E005501109D6
:100E400002C000E010E0680125E0C20ED11CBB2406
:100E5000B394C016D1060CF444C0602F80913202C6
:100E60000E9484150E9449157C0120910B0230E0FC
:100E70002017310719F4B092200202C0109220020C
:100E80000930110534F46FE371E086E192E00E94CD
:100E9000C21B0F5F1F4F4AE050E0B80186E192E0AD
:100EA0000E94861C66E371E086E192E00E94C21B0C
:100EB000B70186E192E00E94E11BC7010E94412137
:100EC000C8CF00910B020530B0F010E005501109B9
:100ED000680185E0C80ED11CBB24B394C016D106AE
:100EE0006CF445E452E065E372E08AE392E080C38B
:100EF00061EF71E039C000E010E0EACF602F80912F
:100F000032020E9484150E9449157C0120910B0237
:100F100030E02017310719F4B092200202C010927D
:100F200020020930110534F46FE371E086E192E0AC
:100F30000E94C21B0F5F1F4F4AE050E0B80186E1DC
:100F400092E00E94861C66E371E086E192E00E94D6
:100F5000C21BB70186E192E00E94E11BC7010E941B
:100F60004121BCCF60ED71E0CE0101960E94D921F4
:100F7000BE016F5F7F4F86E192E00E94E11B6091AE
:100F80000702809132020E9484150E9449157C015B
:100F900090910702692F70E06F5F7F4F4AE050E049
:100FA00086E192E00E94861C66E371E086E192E0B1
:100FB0000E94C21BB70186E192E00E94E11B69E337
:100FC00071E086E192E00E94E11B6FED71E0CE01DD
:100FD00001960E94D921BE016F5F7F4F86E192E0AA
:100FE0000E94E11B06E025E040E860E086E192E037
:100FF0000E940B17C7010E94412180910B020E94A1
:1010000049158C0190910B02692F70E06F5F7F4F43
:101010004AE050E086E192E00E94861C66E371E0BF
:1010200086E192E00E94C21BB80186E192E00E9434
:10103000E11BC8010E944121D5C200910B0205307D
:1010400020F010E00550110902C000E010E0680136
:1010500025E0C20ED11CBB24B394C016D1060CF4FB
:1010600040CF602F809132020E9484150E94491562
:101070007C0120910B0230E02017310719F4B09267
:10108000200202C0109220020930110534F46FE3EF
:1010900071E086E192E00E94C21B0F5F1F4F4AE0A1
:1010A00050E0B80186E192E00E94861C66E371E0A0
:1010B00086E192E00E94C21BB70186E192E00E94A5
:1010C000E11BC7010E944121C8CF109220026EEBA4
:1010D00071E0CE0101960E94D921BE016F5F7F4F62
:1010E00086E192E00E94E11B01E021E040E860E03F
:1010F00086E192E00E940B1700E010E0DD24D3941B
:1011000080910B0290E08017910719F4D092200291
:1011100002C010922002802F0E940F157C010F5FE9
:101120001F4F4AE050E0B80186E192E00E94861C21
:1011300066E371E086E192E00E94C21BB70186E19E
:1011400092E00E94E11BC7010E944121033011057A
:10115000B9F648C200910B02053020F010E00550AE
:10116000110902C000E010E0680185E0C80ED11C42
:10117000BB24B394C016D1060CF4B3CE802F0E94CA
:1011800049157C0120910B0230E02017310719F43A
:10119000B092200202C0109220020930110534F4EE
:1011A0006FE371E086E192E00E94C21B0F5F1F4F68
:1011B0004AE050E0B80186E192E00E94861C66E3B6
:1011C00071E086E192E00E94C21BB70186E192E0E5
:1011D0000E94E11BC7010E944121CCCF1092200246
:1011E0006EEA71E0CE0101960E94D921BE016F5FC7
:1011F0007F4F86E192E00E94E11B01E021E040E8A0
:1012000060E086E192E00E940B17809114029091B9
:10121000150218161906CCF480910A02E091080212
:10122000F0910902E80FF11D8081803210F480E214
:1012300007C0803211F481E403C08A3710F48F5F55
:1012400080831092150210921402809114029091E2
:10125000150297FF11C080910A02E0910802F091F7
:101260000902E80FF11D8081823410F081508083E3
:1012700010921502109214026091080270910902F6
:1012800086E192E00E94E11B02E022E040E860E09B
:1012900086E192E00E940B1760910A02862F880F68
:1012A000680F660F42E086E192E00E94E1166DE36E
:1012B00071E086E192E00E94C21B45E452E06BE4DB
:1012C00072E080E592E094C1109220026DE971E035
:1012D000CE0101960E94D921BE016F5F7F4F86E14A
:1012E00092E00E94E11B69E371E086E192E00E94D6
:1012F000E11B04E023E040E860E086E192E00E9428
:101300000B174AE050E060910B0286E192E00E94E8
:10131000B11C6AE471E094C01092200260E971E0AF
:10132000CE0101960E94D921BE016F5F7F4F86E1F9
:1013300092E00E94E11B69E371E086E192E00E9485
:10134000E11B04E023E040E860E086E192E00E94D7
:101350000B1760910B0270E06E5F7F4F4AE050E028
:1013600086E192E00E948D1C3DC100910B02053088
:1013700020F010E00550110902C000E010E0680103
:1013800025E0C20ED11CBB24B394C016D1060CF4C8
:1013900029C1802F0E9449157C0120910B0230E069
:1013A0002017310719F4B092200202C010922002D7
:1013B0000930110534F46FE371E086E192E00E9498
:1013C000C21B0F5F1F4F4AE050E0B80186E192E078
:1013D0000E94861C66E371E086E192E00E94C21BD7
:1013E000B70186E192E00E94E11BC7010E94412102
:1013F000CCCF109220026DE771E0CE0101960E94E1
:10140000D921BE016F5F7F4F86E192E00E94E11B10
:1014100069E371E086E192E00E94E11B04E023E0D1
:1014200040E860E086E192E00E940B174AE050E05D
:1014300060910B0286E192E00E94B11C64E471E0CD
:1014400086E192E00E94CF1BCDC0109220026AE399
:1014500071E086E192E00E94CF1B6FE271E086E1CD
:1014600092E00E94CF1B66E271E086E192E00E946A
:101470009E1B4AE050E061E070E086E192E00E944D
:10148000861C66E371E086E192E00E94C21B4AE09E
:1014900050E063E070E086E192E00E948D1C03E082
:1014A00023E040E860E086E192E00E940B176BE1E8
:1014B00071E086E192E00E949E1B4091FC015091F8
:1014C000FD016091FE017091FF012AE030E086E1AC
:1014D00092E00E94A41C68E171E086E192E00E9423
:1014E000CF1B04E024E040E860E086E192E00E9447
:1014F0000B176DE071E086E192E00E949E1B409127
:1015000006015091070160910801709109012AE0DC
:1015100030E086E192E00E94A41C6AE071E086E17E
:1015200092E00E94CF1B05E025E040E860E086E104
:1015300092E00E940B176FEF70E086E192E00E944C
:101540009E1B4091F8015091F9016091FA01709150
:10155000FB012AE030E086E192E00E94A41C6CEFDF
:1015600070E086E192E00E94CF1B45E452E06FE319
:1015700072E03CC000E010E0FF24F39480910C0284
:1015800024E0829FC0011124FC01EF5BFE4F20810B
:1015900030E00217130734F520910B0230E02017DA
:1015A000310719F4F092200202C010922002FC01CF
:1015B000EF5BFE4FC801880F991F0280F381E02D79
:1015C000E80FF91F65917491CE0101960E94D9210F
:1015D000BE016F5F7F4F86E192E00E94E11B0F5FCB
:1015E0001F4FCCCF45E452E060E070E080E090E037
:1015F0000E94F5046E960FB6F894DEBF0FBECDBF05
:10160000DF91CF911F910F91FF90EF90DF90CF90DE
:10161000BF9008951F93CF93DF93182FEB010E9483
:10162000841E892B61F58AE08C9FF0018D9FF00D5F
:101630001124E35AFD4F1782168213828081811193
:1016400006C091E0248135812530310508F490E011
:101650008AE08C9FF0018D9FF00D1124E35AFD4F1D
:101660009283248135812530310518F081E0808313
:1016700006C080910D02280F311D35832483812FF0
:101680000E94841E019771F58AE08C9FF0018D9F66
:10169000F00D1124E35AFD4F158214821186108635
:1016A000118212828081882339F081E0268137817E
:1016B0002530310508F480E09AE09C9FF0019D9F61
:1016C000F00D1124E35AFD4F838386819781853085
:1016D000910510F0108206C020910D02820F911D1D
:1016E000978386838AE08C9FF0018D9FF00D1124F3
:1016F000E35AFD4F8081882379F020910D02808587
:101700009185820F911D91878087883C910519F4FE
:1017100081E0818301C01182DF91CF911F910895F3
:10172000CF93DF93809132020E940F15EC01BC0130
:1017300081E492E00E94EF21CE01DF91CF910C94E1
:1017400041210F931F93CF93609133028091320216
:101750000E948415C82F0E9449158C01BC018AE49F
:1017600092E00E94EF21C8010E9441218C2F0E942B
:1017700093150AE412E0F801808B8C2F0E949A15D1
:10178000F801818B8C2F0E94A515F801828BCF91D7
:101790001F910F910895CF9380913F02882319F0F4
:1017A000813031F18EC0C0914002C13009F089C052
:1017B0008091310281110FC0C09331020E94771DC8
:1017C00060932C0270932D0280932E0290932F022F
:1017D000C093350276C01092310210922C02109202
:1017E0002D0210922E0210922F021092300269C028
:1017F00080910C028A3009F443C030F5863009F438
:101800003FC08830E9F1843009F05BC06091080284
:1018100070910902809132020E94CC1580910802D9
:10182000909109020E944121E0910C0284E0E89F1E
:10183000F0011124EF5BFE4F818180930C02109226
:101840000B020E94900B3DC08131F1F0823219F001
:101850008F30B9F515C080E894E8AEE1B0E0809330
:10186000060190930701A0930801B093090110921B
:10187000F8011092F9011092FA011092FB0121C0B7
:1018800087E280930B021DC06091080270910902EB
:10189000809106020E94041680910802909109022C
:1018A0000E94412110920B02E0910C0284E0E89F1B
:1018B000F0011124EF5BFE4F818180930C020E94A6
:1018C000A10B81E080931601CF91089580910502CC
:1018D000813059F018F08230F1F04EC0909135020D
:1018E00081E089278093350247C080914002882398
:1018F00049F0813009F040C0809133028732E0F531
:101900008F5F14C080911401909115018F3F910554
:1019100098F501962DC080914002882309F181300D
:1019200059F580913302882339F181508093330235
:101930000E94A10B80915A0290E090931501809330
:10194000140180915B0290E090930F0180930E014F
:1019500080915C0290E090930D0180930C010CC08B
:1019600080911401909115018230910528F0019722
:10197000909315018093140181E0809316010895DE
:101980000F931F93CF93C0914002CC2309F47BC0E7
:10199000C13009F0EBC08091140290911502181625
:1019A00019062CF480913302873208F4AEC080917E
:1019B00014029091150297FF04C0809133028111A7
:1019C000BCC080915A0290E090931501809314015D
:1019D00080915B0290E090930F0180930E018091C3
:1019E0005C0290E090930D0180930C018091310294
:1019F0008823F1F19091300280910B01981790F0BB
:101A000010923502109231021092300210922C0284
:101A100010922D0210922E0210922F0281E08093DC
:101A20001601A4C00E94771D00912C0210912D0276
:101A300020912E0230912F02DC01CB01801B910BF3
:101A4000A20BB30B883E9340A105B10508F48EC0EC
:101A5000809130028F5F809330020E94771D6093E7
:101A60002C0270932D0280932E0290932F027EC041
:101A70001092300210922C0210922D0210922E021F
:101A800010922F0273C080911402909115021816C3
:101A90001906CCF480911401909115018F3F9105A6
:101AA00028F4019690931501809314011092150269
:101AB00010921402609114018FE893E00E94B01517
:101AC00081E080931601809114029091150297FF96
:101AD00019C080911401909115018230910528F070
:101AE00001979093150180931401109215021092A2
:101AF0001402609114018FE893E00E94B01581E018
:101B0000809316011092310231C08F5F80933302AF
:101B10000E94A10B109215021092140260913202E1
:101B200080E993E00E94B0156091330281E993E06F
:101B30000E94B015C09316013ACF815080933302B2
:101B40000E94A10B109215021092140260913202B1
:101B500080E993E00E94B0156091330281E993E03F
:101B60000E94B01581E0809316012BCFCF911F9179
:101B70000F91089588E893E00E941B04823010F4CE
:101B80008093400289E893E00E941B04833010F4A4
:101B9000809334028AE893E00E941B04823018F498
:101BA000817080932B028BE893E00E941B048330AA
:101BB00010F4809336028CE893E00E941B0480931B
:101BC0000B018DE893E00E941B04833010F4809396
:101BD00005028EE893E00E941B04823010F480938B
:101BE00004028091400281110AC08FE893E00E94B4
:101BF0001B0490E09093150180931401089580E9EF
:101C000093E00E941B04833018F48093320202C0D8
:101C10001092320281E993E00E941B04883218F48A
:101C2000809333020895109233020895CF93DF9387
:101C3000CDB7DEB76E970FB6F894DEBF0FBECDBF3F
:101C40000E943C160E94771688E893E09A83898365
:101C50006FEFCE0101960E941D0489E893E09A83FC
:101C600089836FEFCE0101960E941D048AE893E0FC
:101C70009A8389836FEFCE0101960E941D048BE841
:101C800093E09A83898360E0CE0101960E941D044F
:101C900060910B018CE893E09A838983CE010196D1
:101CA0000E941D04609105028DE893E09A83898368
:101CB000CE0101960E941D04609104028EE893E01B
:101CC0009A838983CE0101960E941D0486E192E0E9
:101CD0000E943F176EE671E0CE0101960E94D92165
:101CE000BE016F5F7F4F86E192E00E94E11BFFCF54
:101CF0000F931F93CF93DF93CDB7DEB760970FB6E7
:101D0000F894DEBF0FBECDBF8091140290911502F2
:101D10001816190604F580910B02E0910C0294E06C
:101D2000E99FF0011124EF5BFE4F9081482F50E0B6
:101D3000292F30E021503109421753071CF48F5FDF
:101D400080930B02992321F0109215021092140235
:101D500081E080931601809114029091150297FF03
:101D600019C080910B02882319F0815080930B02D7
:101D7000E0910C0284E0E89FF0011124EF5BFE4F3C
:101D80008081882321F0109215021092140281E0C4
:101D90008093160180917302882309F4FCC2E091BC
:101DA0000C028E2F90E08232910508F0F1C2FC0106
:101DB000EB5AFF4F0C94A62080910B02813071F0FA
:101DC00048F0823089F0833009F0E2C210920B02B1
:101DD00082E207C010920B0281E003C010920B0256
:101DE0008EE080930C02D4C210920B0287E1F9CFEF
:101DF00080910B02813071F048F0823079F08330AD
:101E000009F0C6C210920B028DE0EBCF10920B02CC
:101E100082E0E7CF10920B0283E0E3CF10920B0237
:101E20008CE0DFCF80910B0280933202109233025C
:101E30000E94900B0E94A10B10923F02A9C28091B8
:101E40000B02882339F0813009F0A2C210920B02F4
:101E500085E0C7CF10920B0284E080930C02809142
:101E600032020E940F1590930902809308020AC063
:101E700080910A02863030F447C180910A028E3088
:101E800008F442C110920A0283C280910B02813091
:101E900071F048F0823099F0833009F079C21092E5
:101EA0000B028BE09ECF10920B0286E003C01092D3
:101EB0000B0288E080930C021092070269C2109214
:101EC0000B028AE0F7CF80910B02809307021092F9
:101ED0000B0287E086CF40910B0260910702809150
:101EE00032020E94F7158091070280930B02109234
:101EF000070286E074C180910B02873208F048C265
:101F00008093070210920B0289E06BCF07E210E08A
:101F100060910702862F90E00196801791077CF46C
:101F20006FEF600F809132020E948415482F602F5E
:101F3000809132020E94F71501501109E9CF6F5FBD
:101F400040910B02809132020E94F71580910702A6
:101F50008F5F80930B021092070288E040C10091CE
:101F60000B0210E0073211057CF461E0600F8091F4
:101F700032020E948415482F602F809132020E9405
:101F8000F7150F5F1F4FEECF40E067E280913202FE
:101F90000E94F715109207028AE021C180910B027E
:101FA000813009F011C110E04FEF612F80913202B2
:101FB0000E94F7151F5F1832B9F706C110E0612FB4
:101FC000809132020E948415482F612F80910B026C
:101FD0000E94F7151F5F183291F7809132020E941C
:101FE0000F15BC0180910B020E94CC15B8C08091E6
:101FF0000B02813009F18FEF898348E050E0BE0188
:102000006F5F7F4FCB010E94F621BE016F5F7F4F54
:10201000809132020E94CC1510920B02E0910C02CA
:1020200094E0E99FF0011124EF5BFE4F81818093E2
:102030000C020E94900BACC110E04FEF612F809119
:1020400032020E94F7151F5F1832B9F7D4CF809182
:102050000B02882339F0813009F09AC110920B02EB
:1020600085E1BFCE10920B028FE0BBCE80910B02B8
:102070008093060210920B0280E1B3CE10910B0206
:102080001130F9F080F0123031F1133009F080C1D5
:1020900084E180930C02809106020E94A515809332
:1020A000070282502EC010920B0281E180930C0235
:1020B000809106020E9449159093090280930802BC
:1020C00067C182E180930C02809106020E94931501
:1020D0008093070216C083E180930C028091060270
:1020E0000E949A1580930702823031F0843031F0DB
:1020F000813009F04DC1CEC081E003C010930B02C6
:1021000047C180930B0244C18F5F80930A0240C194
:1021100060910B02809106020E94271610920B021A
:10212000109207021EC080910B02813039F020F01E
:10213000823049F464E003C061E001C062E0809154
:1021400006020E942E16109207023EC060910B02FA
:102150006E5F809106020E9435161092070210925F
:102160000B02E0910C0284E0E89FF001112434C0DE
:1021700080910B028093060210920B0286E131CE11
:1021800080910B02813001F58FEF898340E150E0AF
:10219000BE016F5F7F4FCB010E94F621BE016F5FD2
:1021A0007F4F809106020E9404166FEF8091060215
:1021B0000E9427166FEF809106020E942E166FEF85
:1021C000809106020E94351610920B02E0910C02DB
:1021D00094E0E99FF0011124EF5BFE4F8181809331
:1021E0000C020E94A10BD4C0E0910B028E2F90E054
:1021F0008730910508F0CCC0FC01E958FF4F0C94E2
:10220000A62088E893E00E941B04809307028F3F7A
:1022100019F080930B0202C010920B0288E1E1CD0D
:1022200089E893E00E941B04809307028F3F19F016
:1022300080930B0202C010920B0289E1D2CD8BE891
:1022400093E00E941B04833018F480930B0202C0B9
:1022500010920B028AE1C5CD8CE893E00E941B042A
:102260008093070280930B028CE1BBCD8AE893E058
:102270000E941B04809307028F3F19F080930B028A
:1022800002C010920B028DE1ACCD8EE101C081E263
:1022900080930C0210920B027BC060910B02609342
:1022A000400288E893E05CC060910B0260933402C6
:1022B00089E893E044C060910B02609336028BE89A
:1022C00093E04EC060910B0260930B018CE893E0A9
:1022D00036C061E080910B02811101C060E0609323
:1022E0002B028AE893E03CC080910B02882319F00E
:1022F000813081F04DC08DE893E00E941B048093F3
:1023000007028F3F19F080930B0202C010920B025C
:102310008FE167CD8EE893E00E941B048093070253
:102320008F3F19F080930B0202C010920B0280E2E3
:1023300058CD60910B02609305028DE893E00E94F6
:10234000B01510920B02E0910C0294E0E99FF001AD
:10235000112410C060910B02609304028EE893E098
:102360000E94B01510920B02E0910C0284E0E89FED
:10237000F0011124EF5BFE4F818133CD80910B0280
:10238000813011F40E94160E10920B0210920C0272
:1023900081E08093160160960FB6F894DEBF0FBE01
:1023A000CDBFDF91CF911F910F9108950F931F9390
:1023B000CF93DF930E94831D60930002709301020C
:1023C000809302029093030260E070E085E090E069
:1023D0000E940A0B61E070E083E090E00E940A0B2B
:1023E00062E070E087E090E00E940A0B63E070E03A
:1023F00084E090E00E940A0B64E070E08CE090E0E2
:102400000E940A0B8091690281110E94A2048091AE
:102410007D0281110E94CB0B80915F0281110E948D
:10242000C6048091870281110E94660C8091880207
:10243000882331F080910402813011F40E94660CEF
:1024400080913F02882329F0813029F40E94780E80
:1024500002C00E94C00C209114013091150180919E
:102460003D0290913E028217930781F140E050E0D7
:1024700060E67AEE80E090E00E948720CA01B90110
:102480000E94581F20E030E040EC51E40E94AE1E54
:1024900020E030E04AE754E40E94E41F6093270202
:1024A000709328028093290290932A020E94201F91
:1024B000AB01BC018FE892E00E94F21880911401F8
:1024C0009091150190933E0280933D0280911601F8
:1024D000882321F00E946F05109216010E94771D3B
:1024E00000910E0210910F02209110023091110202
:1024F000DC01CB01801B910BA20BB30B0A97A1054A
:10250000B10570F00E94771D60930E0270930F0268
:10251000809310029093110281E080930D0202C01B
:1025200010920D020E94831D009100021091010281
:102530002091020230910302DC01CB01801B910B40
:10254000A20BB30B8093FC019093FD01A093FE01BD
:10255000B093FF010091F8011091F9012091FA0167
:102560003091FB01081719072A073B0740F48093B5
:10257000F8019093F901A093FA01B093FB01009147
:10258000060110910701209108013091090180177F
:102590009107A207B30740F48093060190930701C7
:1025A000A0930801B093090186E00E94841EEC010B
:1025B00082E00E94841EC817D90721F410921502E8
:1025C00010921402A895DF91CF911F910F91089559
:1025D000CF92DF92EF92FF920F931F93CF93DF93EF
:1025E000CDB7DEB76A970FB6F894DEBF0FBECDBF8A
:1025F00089E0ECE1F1E0DE011B9601900D928A95F5
:10260000E1F787E0E5E2F1E0DE01549601900D92FA
:102610008A95E1F78AE0ECE2F1E0DE0111960190A3
:102620000D928A95E1F786E192E00E943F1781E0E2
:1026300080931F02109220028E01055F1F4F6E01D2
:1026400084E1C80ED11C7801F80161918F0186E107
:1026500092E00E94C41B69E170E080E090E00E947B
:10266000A81D0C151D0581F768EE73E080E090E071
:102670000E94A81D69E371E086E192E00E94C21BFE
:102680006E01FBE1CF0ED11CF80161918F0186E153
:1026900092E00E94C41B69E170E080E090E00E943B
:1026A000A81D0C151D0581F768EE73E080E090E031
:1026B0000E94A81D69E371E086E192E00E94C21BBE
:1026C0008E010F5F1F4FF80161918F0186E192E04B
:1026D0000E94C41B69E170E080E090E00E94A81DA8
:1026E0000E151F0581F768EE73E080E090E06A96B2
:1026F0000FB6F894DEBF0FBECDBFDF91CF911F9113
:102700000F91FF90EF90DF90CF900C94A81DE6E121
:10271000F2E01382128281E08187148613868DECA9
:1027200091E09183808308950F931F93CF93DF935C
:10273000CDB7DEB76E970FB6F894DEBF0FBECDBF34
:1027400086E192E00E943F1769E571E0CE010196B3
:102750000E94D921BE016F5F7F4F86E192E00E9407
:10276000E11B00E010E0C8010E941B04682F85E90E
:1027700092E00E94131A0F5F1F4F083883E018077A
:1027800091F76E960FB6F894DEBF0FBECDBFDF9106
:10279000CF911F910F9108950FB6F894A89580914D
:1027A0006000886180936000109260000FBE62E05C
:1027B00082E00E94481E62E086E00E94481E62E0BD
:1027C00085E00E94481E62E083E00E94481E62E0AD
:1027D00087E00E94481E62E084E00E94481E62E09A
:1027E0008CE00E94481E61E088E00E94481E61E083
:1027F00089E00E94481E61E08AE00E94481E61E074
:102800008BE00E94481E41E050E06FEE73E080E0F4
:102810000E94BF1C109225028CE380932402109228
:10282000B9008CE08093B8006DED76E086E192E02F
:102830000E944E1787EF94E090932202809321022A
:1028400026E042E15AE760E070E085E992E00E940C
:102850005A1A87E00E94841E892B11F40E94941357
:102860000E94E81286E192E00E943F1781E0809387
:102870001F0210922002209114013091150140E0B6
:1028800050E060E67AEE80E090E00E948720CA0186
:10289000B9010E94581F20E030E040EC51E40E9452
:1028A000AE1E20E030E04AE754E40E94E41F60934B
:1028B0002702709328028093290290932A020E9493
:1028C000201FAB01BC018FE892E00E945A192FEF44
:1028D0003FEFA90161E874E18FE892E00E946A1974
:1028E0000E94BA0D0E94900B0E94A10B9FE088E10C
:1028F0000FB6F894A895809360000FBE9093600087
:1029000008950F931F930E94831D00913902109127
:102910003A0220913B0230913C02DC01CB01801B4A
:10292000910BA20BB30B009110011091110120919A
:10293000120130911301081719072A073B0720F4E9
:1029400085B1887F85B92B982091260230E060916F
:102950000E0170910F0188E190E00E9451206150BA
:1029600071092617370708F445C0109226022091F6
:1029700037023091380280910C0190910D0101973E
:102980002817390728F0109238021092370209C030
:10299000809137029091380201969093380280938B
:1029A000370280913502882351F10E94831D609384
:1029B000390270933A0280933B0290933C028091DB
:1029C000360290E00196880F991F4091370250918E
:1029D000380230913402452B11F0313019F421E0E6
:1029E000323009F420E035B1820F911D832B85B977
:1029F0002B9A05C0809126028F5F809326028091DA
:102A00002B02882339F068EF85E992E01F910F913E
:102A10000C94131A1F910F9108950C940522CF92D4
:102A2000DF92EF92FF920F931F93CF93DF93C82F04
:102A300088E090E00E94AC208C0180E3C89FE00118
:102A40001124C850DD4FCE010E940D158F3F41F477
:102A500048E050E06CE077E0C8010E94E0210FC040
:102A600078016801E8E0CE0ED11CCE010E940D1560
:102A7000F70181937F012196EC15FD05B1F7C8019F
:102A8000DF91CF911F910F91FF90EF90DF90CF904A
:102A90000895CF92DF92EF92FF920F931F93CF93FF
:102AA000DF93C82F80E190E00E94AC208C0183E18D
:102AB000C89FE0011124CE010E940D158F3F41F403
:102AC00040E150E06CEF76E0C8010E94E02112C0C6
:102AD0006801E0E1CE0ED11C7801C01BD10BCE0104
:102AE0008E0D9F1D0E940D15F70181937F01EC153E
:102AF000FD05A9F7C801DF91CF911F910F91FF90BC
:102B0000EF90DF90CF90089570E07D5F9B0140E3F0
:102B1000849F200D311D1124C9010E940D158F3F86
:102B200009F480E0089523E1829FC00111244096BA
:102B30000C940D1523E1829FC001112441960E943F
:102B40000D158F3F09F481E0089523E1829FC001B4
:102B5000112442960E940D158F3F09F484E00895D8
:102B60000F931F93CF93DF931F92CDB7DEB78C01E6
:102B700069830E940D156981681741F0C8010F90A3
:102B8000DF91CF911F910F910C940D220F90DF9147
:102B9000CF911F910F910895CF92DF92EF92FF9204
:102BA0000F931F93CF93DF9390E3899F70011124BC
:102BB000870108501D4FEB016B0187E0C80ED11C47
:102BC0006991C8010E94B0150F5F1F4FCC15DD053C
:102BD000B9F760E0C70181509D4FDF91CF911F9100
:102BE0000F91FF90EF90DF90CF900C94B015262FAF
:102BF00030E03D5F642FA90170E3879F400D511DB8
:102C00001124CA010C94B015EF92FF920F931F93F9
:102C1000CF93DF9393E1899FE00111248B017E0123
:102C2000EFE0EE0EF11CF80161918F01CE010E94E0
:102C3000B0152196CE15DF05B1F760E0CE01DF912A
:102C4000CF911F910F91FF90EF900C94B01523E15D
:102C5000829FC001112440960C94B01523E1829FFD
:102C6000C001112441960C94B01523E1829FC0014C
:102C7000112442960C94B015EF92FF920F931F937C
:102C8000CF93DF93C0E0D0E00CEF16E0FE01EC5FE5
:102C9000F6407F01F8016491C701800F911F0E94E7
:102CA000B0150F5F1F4FF7E00B301F0799F760E07B
:102CB000CE010F960E94B01568E7CE0140960E94A3
:102CC000B01561E0CE0141960E94B01564E0CE01DE
:102CD00042960E94B0156396C83F82E0D807A1F6DD
:102CE000DF91CF911F910F91FF90EF900895EF9298
:102CF000FF920F931F93CF93DF93C8EFD2E00CE0C6
:102D000017E0FE01EC50F7407F01F8016491C70124
:102D1000800F911F0E94B0150F5F1F4FF7E0033126
:102D20001F0799F760E0CE0107960E94B0158E014B
:102D3000085F1F4FE0966FEFC8010E94B0150F5F4C
:102D40001F4F0C171D07B9F708381340C1F6DF9164
:102D5000CF911F910F91FF90EF900895DC01ED91BD
:102D6000FC910084F185E02D40E009940F931F93BE
:102D7000CF93FC0126816217A0F4C62F8C016483D7
:102D80009085C90F6C2F6F70CF010E94AE166C2F0B
:102D900062956F706061C801CF911F910F910C9483
:102DA000AE16CF911F910F910895FC0127812695B2
:102DB00026952695621720F46583606B0C94AE16F9
:102DC00008950F931F93CF93DF931F92CDB7DEB774
:102DD0008C0149830E94B6164981642FC8010F9067
:102DE000DF91CF911F910F910C94D516CF93DF9364
:102DF000EC019C818E81981758F4E881F981008458
:102E0000F185E02D42E0CE0109958C818F5F8C83A6
:102E1000DF91CF910895CF92DF92EF92FF920F93BF
:102E20001F93CF93DF93EC01F62EC42ED22E8F8109
:102E3000869586958695081710F00FEF080F1D2DC3
:102E4000011780F0412F6F2DCE010E94E116EF2C6B
:102E5000CE1430F060E0CE010E94F616E394F8CF75
:102E60001F5FEECF4D2D6F2DCE01DF91CF911F91C2
:102E70000F91FF90EF90DF90CF900C94E1160F939D
:102E8000FC01078106950695069501504681415043
:102E900020E060E00E940B170F910895EF92FF92DF
:102EA0000F931F93CF93DF93EC011C821D82FB01D4
:102EB00085919491E82EFB013296F4903196E4913D
:102EC000EE83FB013496E491EF83FB013596649128
:102ED00068878C01802F8E198F1540F4F80164915A
:102EE000CE010E94AE160F5F1F4FF4CFCE01DF91CF
:102EF000CF911F910F91FF90EF900C943F172F925D
:102F00003F924F925F926F927F928F929F92AF9279
:102F1000BF92CF92DF92EF92FF920F931F93CF93C6
:102F2000DF93CDB7DEB727970FB6F894DEBF0FBE9D
:102F3000CDBFFC01038514850115110509F410C1ED
:102F40009F838E83F801B4913196449131965490C9
:102F50003196A491EA2EF12CF7E0EF0EF11C93E0EC
:102F6000F594E7949A95E1F7EA82F8013496749122
:102F70003196E491671750F0862F90E02E2F30E0C5
:102F8000F901E70FF11D8E179F07BCF06D3031F48A
:102F900060E08E819F810E94B616DFC06A3009F022
:102FA000DFC0EE81FF81818545818E9D400D11241A
:102FB00060E0CF010E94E116D0C050E05B2BC80159
:102FC0000696671BEE81FF81F185F983423051053A
:102FD00088F4452B09F019825E9C90015F9C300DAE
:102FE0001124629F8001639F100D1124080F191F87
:102FF000412C24C0EA2FE77021F048E0442E4E1AFD
:1030000001C0412CA82FFC0140E050E07E2F7A1B2C
:10301000761728F47491470F511D3196F7CFFC01B4
:10302000E60FF11D54904E9D80014F9D100D5E9D49
:10303000100D1124020F131F080F191FEE81FF81BD
:10304000F481FB83EE81FF81F581FC83652C712C7B
:10305000CC24C394D12C812C912C22242A942C0C86
:103060007A81271608F074C0312CEE81FF818185AA
:10307000381608F067C0211002C0332041F0EE81FD
:10308000FF8145814F5F6B81CF010E94E116A12C2A
:10309000B12CA51408F041C0F501E80DF91DE00FB1
:1030A000F11F2491442061F0CE14DF0449F4E22F93
:1030B000F0E0042C02C0F595E7950A94E2F72E2F74
:1030C000EE81FF8181858230B9F4E22F3110E295E3
:1030D000EF70F0E0EC5EF84F2491EE81FF81828585
:1030E000622F811102C0CF0103C060958E819F8144
:1030F0002D830E94F6162D81EE81FF818285622F3D
:10310000811102C0CF0103C060958E819F810E9412
:10311000F616FFEFAF1ABF0ABCCFB12C7981B716F4
:1031200079F0EE81FF818285811103C060E0CF01DB
:1031300003C06FEF8E819F810E94F616B394EECF8D
:10314000339493CF860C971CFFEFCF1ADF0A85CFFD
:103150006C818E819F810E94D51681E090E002C033
:1031600080E090E027960FB6F894DEBF0FBECDBF8B
:10317000DF91CF911F910F91FF90EF90DF90CF9053
:10318000BF90AF909F908F907F906F905F904F9087
:103190003F902F9008951F920F920FB60F92112417
:1031A0002F933F934F935F936F937F938F939F934F
:1031B000AF93BF93EF93FF93E0919302F09194024A
:1031C0000995FF91EF91BF91AF919F918F917F9161
:1031D0006F915F914F913F912F910F900FBE0F9084
:1031E0001F901895FC01A3E0440F551F661F771F21
:1031F000AA95D1F74115510581E06807710514F4CE
:1032000081E00EC033E075956795579547953A95DF
:10321000D1F74115510581E0680771051CF482E082
:10322000828331C023E075956795579547952A9518
:10323000D1F74115510581E06807710514F483E069
:10324000EFCF92E075956795579547959A95D1F789
:103250004115510581E06807710514F484E0E0CF61
:1032600082E075956795579547958A95D1F785E0E2
:1032700082834115510581E06807710524F04FEF05
:103280005FEF60E070E08FB78383F89451834083F1
:10329000509387004093860083818FBF8091810087
:1032A000887F80938100909181008281892B809317
:1032B000810008951092800020E1209381000C94F9
:1032C000F218E1E8F0E02081DC0112968C91822B6B
:1032D000808308950F931F93CF93DF93EC018B01AD
:1032E000BA01A901141615061606170614F40E9451
:1032F000F2181D830C8381E080936F00CE01DF9173
:10330000CF911F910F910C946119FC01918D228D29
:10331000892F90E0805C9F4F821B91098F739927C2
:103320000895FC01918D828D981731F0828DE80F00
:10333000F11D858D90E008958FEF9FEF0895FC01BA
:10334000918D828D981761F0828DDF01A80FB11DDC
:103350005D968C91928D9F5F9F73928F90E0089500
:103360008FEF9FEF0895FC01538D448D252F30E0A2
:10337000842F90E0821B930B541710F0CF96089582
:103380000197089587E19BE1892B49F080E090E067
:10339000892B29F00E94171B81110C9400000895BD
:1033A000FC01848DDF01A80FB11DA35ABF4F2C91E2
:1033B000848D90E001968F739927848FA689B789B1
:1033C0002C93A089B1898C9180648C93938D848D8A
:1033D000981306C00288F389E02D80818F7D808359
:1033E0000895CF93DF93EC01888D8823C9F0EA8993
:1033F000FB89808185FD05C0A889B9898C9186FDEE
:103400000FC00FB607FCF5CF808185FFF2CFA889EA
:10341000B9898C9185FFEDCFCE010E94D019E7CFFD
:10342000DF91CF910895EF92FF920F931F93CF9367
:10343000DF93EC0181E0888F9B8D8C8D981305C004
:10344000E889F989808185FD24C0F62E0B8D10E076
:103450000F5F1F4F0F731127E02E8C8DE8120CC0E9
:103460000FB607FCFACFE889F989808185FFF5CF8F
:10347000CE010E94D019F1CF8B8DFE01E80FF11D16
:10348000E35AFF4FF0820B8FEA89FB8980818062CB
:1034900007C0EE89FF896083E889F98980818064AB
:1034A000808381E090E0DF91CF911F910F91FF9099
:1034B000EF900895CF92DF92EF92FF921F93CF93F8
:1034C000DF93EC016A017B01122FE889F98982E020
:1034D00080834115514E61057105B1F060E079E0DE
:1034E0008DE390E0A70196010E946520DA01C901F1
:1034F0000197A109B109B695A79597958795AC0154
:10350000411580E15807A8F0E889F989108260E840
:1035100074E88EE190E0A70196010E946520BA014F
:10352000A90141505109610971097695679557952F
:103530004795EC85FD855083EE85FF854083188E89
:10354000EC89FD891083EA89FB8980818061808311
:10355000EA89FB89808188608083EA89FB89808190
:1035600080688083EA89FB8980818F7D8083DF91F9
:10357000CF911F91FF90EF90DF90CF9008951F9211
:103580000F920FB60F9211242F938F939F93EF9367
:10359000FF93E091A502F091A6028081E091AB0239
:1035A000F091AC0282FD12C090818091AE028F5FDB
:1035B0008F732091AF02821751F0E091AE02F0E0DC
:1035C000EB56FD4F958F8093AE0201C08081FF9135
:1035D000EF919F918F912F910F900FBE0F901F90A1
:1035E00018951F920F920FB60F9211242F933F93AD
:1035F0004F935F936F937F938F939F93AF93BF93FB
:10360000EF93FF9385E992E00E94D019FF91EF912B
:10361000BF91AF919F918F917F916F915F914F91EA
:103620003F912F910F900FBE0F901F90189585E935
:1036300092E00E94851921E0892B09F420E0822F75
:103640000895E5E9F2E01382128288EE93E0A0E0AB
:10365000B0E084839583A683B7838BED91E091835B
:10366000808385EC90E09587848784EC90E0978751
:10367000868780EC90E0918B808B81EC90E0938B3F
:10368000828B82EC90E0958B848B86EC90E0978B1C
:10369000868B118E128E138E148E089508950E94BB
:1036A000E41D0E944E1B0E94CC13C2ECD9E10E9483
:1036B000D6112097E1F30E94C219F9CFCF92DF9281
:1036C000EF92FF920F931F93CF93DF936C017A01D8
:1036D0008B01C0E0D0E0CE15DF0589F0D8016D91F7
:1036E0008D01D601ED91FC910190F081E02DC60194
:1036F0000995892B11F47E0102C02196ECCFC701F8
:10370000DF91CF911F910F91FF90EF90DF90CF90BD
:1037100008956115710579F0FB0101900020E9F72A
:103720003197AF01461B570BDC01ED91FC910280F4
:10373000F381E02D099480E090E00895EF92FF92EC
:103740000F931F93CF93DF938C017B01C0E0D0E0F8
:10375000F701EC0FFD1F6491662361F0D801ED9134
:10376000FC910190F081E02DC8010995892B11F0A1
:103770002196EECFCE01DF91CF911F910F91FF9057
:10378000EF9008950C94891BDC01ED91FC91019060
:10379000F081E02D099469EE71E00C94891B0F9380
:1037A0001F93CF93DF93EC010E949E1B8C01CE01EF
:1037B0000E94CB1B800F911FDF91CF911F910F9122
:1037C00008950F931F93CF93DF93EC010E94891B01
:1037D0008C01CE010E94CB1B800F911FDF91CF91F6
:1037E0001F910F9108954F925F926F927F92EF9287
:1037F000FF920F931F93CF93DF93CDB7DEB7A197BF
:103800000FB6F894DEBF0FBECDBF7C01FA01CB012D
:1038100019A2223008F42AE08E010F5D1F4F422EBC
:10382000512C612C712CBF01A30192010E946520D3
:10383000F901CA01015011096A3014F4605D01C038
:10384000695CD8016C93232B242B252B61F7B801DD
:10385000C7010E94891BA1960FB6F894DEBF0FBE68
:10386000CDBFDF91CF911F910F91FF90EF907F908F
:103870006F905F904F900895CF92DF92EF92FF92FA
:103880000F931F93CF93DF93EC016A017B01211506
:10389000310579F4E881F9810190F081E02D642F00
:1038A000DF91CF911F910F91FF90EF90DF90CF901C
:1038B00009942A303105E9F477FF1AC06DE20E94BD
:1038C000C41B8C0144275527BA014C195D096E09A8
:1038D0007F092AE0CE010E94F31B800F911FDF9128
:1038E000CF911F910F91FF90EF90DF90CF900895AF
:1038F0002AE0B701A601CE01DF91CF911F910F9170
:10390000FF90EF90DF90CF900C94F31B9A01AB01E6
:10391000770F660B770B0C943C1C0F931F93CF9380
:10392000DF93EC019A01AB01770F660B770B0E94D6
:103930003C1C8C01CE010E94CB1B800F911FDF919C
:10394000CF911F910F9108952115310541F4DC01AC
:10395000ED91FC910190F081E02D642F09940C947D
:10396000F31B9A01462F50E060E070E00C94A41C19
:103970009A01AB0160E070E00C94A41C08958230C1
:10398000E8F4E82FF0E0EE0FFF1FE85EFE4F7183D2
:103990006083813041F0809169008C7F482B409397
:1039A0006900E89A089580916900440F551F440FFB
:1039B000551F837F482B40936900E99A08951F9211
:1039C0000F920FB60F9211242F933F934F935F9353
:1039D0006F937F938F939F93AF93BF93EF93FF93D7
:1039E000E0911801F09119010995FF91EF91BF91B4
:1039F000AF919F918F917F916F915F914F913F9187
:103A00002F910F900FBE0F901F9018951F920F923D
:103A10000FB60F9211242F933F934F935F936F93A1
:103A20007F938F939F93AF93BF93EF93FF93E09117
:103A30001A01F0911B010995FF91EF91BF91AF9190
:103A40009F918F917F916F915F914F913F912F91B6
:103A50000F900FBE0F901F9018951F920F920FB6E8
:103A60000F9211242F933F938F939F93AF93BF9304
:103A70008091330390913403A0913503B0913603C4
:103A80003091320323E0230F2D3720F40196A11D3E
:103A9000B11D05C026E8230F0296A11DB11D20937C
:103AA00032038093330390933403A0933503B09390
:103AB00036038091370390913803A0913903B09178
:103AC0003A030196A11DB11D8093370390933803EB
:103AD000A0933903B0933A03BF91AF919F918F9117
:103AE0003F912F910F900FBE0F901F9018952FB7F9
:103AF000F894609133037091340380913503909171
:103B000036032FBF08953FB7F89480913703909103
:103B10003803A0913903B0913A0326B5A89B05C09C
:103B20002F3F19F00196A11DB11D3FBFBA2FA92F3C
:103B3000982F8827820F911DA11DB11DBC01CD01B9
:103B400042E0660F771F881F991F4A95D1F70895A5
:103B50008F929F92AF92BF92CF92DF92EF92FF929D
:103B60006B017C010E94831D4B015C01C114D104D7
:103B7000E104F10401F10E94AD1E0E94831DDC01ED
:103B8000CB0188199909AA09BB09883E9340A10570
:103B9000B10560F321E0C21AD108E108F10888EE0E
:103BA000880E83E0981EA11CB11CC114D104E1044D
:103BB000F10419F7DBCFFF90EF90DF90CF90BF902B
:103BC000AF909F908F900895789484B5826084BD63
:103BD00084B5816084BD85B5826085BD85B5816011
:103BE00085BDEEE6F0E0808181608083E1E8F0E071
:103BF0001082808182608083808181608083E0E8A0
:103C0000F0E0808181608083E1EBF0E0808184607E
:103C10008083E0EBF0E0808181608083EAE7F0E080
:103C200080818460808380818260808380818160E4
:103C300080838081806880831092C10008958330E2
:103C400081F028F4813099F08230A1F00895873016
:103C5000A9F08830B9F08430D1F4809180008F7D54
:103C600003C0809180008F7780938000089584B591
:103C70008F7702C084B58F7D84BD08958091B00098
:103C80008F7703C08091B0008F7D8093B00008953E
:103C9000CF93DF9390E0FC01E85CF84F2491FC01A6
:103CA000E45BF84F8491882361F190E0880F991FBD
:103CB000FC01EC58F84FC591D491FC01E659F84F3E
:103CC000A591B491611109C09FB7F894888120959E
:103CD00082238883EC912E230BC0623061F49FB75E
:103CE000F8943881822F809583238883EC912E2B42
:103CF0002C939FBF06C08FB7F894E8812E2B2883A2
:103D00008FBFDF91CF910895CF93DF93282F30E0BD
:103D1000F901EC5DF84F8491F901E85CF84FD4911A
:103D2000F901E45BF84FC491CC2391F081110E941A
:103D30001F1EEC2FF0E0EE0FFF1FE05AF84FA59189
:103D4000B491EC91ED2381E090E021F480E002C099
:103D500080E090E0DF91CF91089508950E94C21E07
:103D60000C94AA1F0E94A31F58F00E949C1F40F0B1
:103D700029F45F3F29F00C94931F51110C94DE1F1E
:103D80000C94991F0E94BB1F68F39923B1F355232C
:103D900091F3951B550BBB27AA276217730784075E
:103DA00038F09F5F5F4F220F331F441FAA1FA9F3F4
:103DB00035D00E2E3AF0E0E832D091505040E695E2
:103DC000001CCAF72BD0FE2F29D0660F771F881F43
:103DD000BB1F261737074807AB07B0E809F0BB0B36
:103DE000802DBF01FF2793585F4F3AF09E3F51054A
:103DF00078F00C94931F0C94DE1F5F3FE4F3983E21
:103E0000D4F3869577956795B795F7959F5FC9F732
:103E1000880F911D9695879597F90895E1E0660FB3
:103E2000771F881FBB1F621773078407BA0720F02C
:103E3000621B730B840BBA0BEE1F88F7E095089595
:103E40000E94271F6894B1110C94DE1F08950E94F0
:103E5000C31F88F09F5798F0B92F9927B751B0F03A
:103E6000E1F0660F771F881F991F1AF0BA95C9F7FE
:103E700014C0B13091F00E94DD1FB1E008950C94A0
:103E8000DD1F672F782F8827B85F39F0B93FCCF353
:103E9000869577956795B395D9F73EF4909580957B
:103EA000709561957F4F8F4F9F4F0895E89409C09B
:103EB00097FB3EF490958095709561957F4F8F4F5D
:103EC0009F4F9923A9F0F92F96E9BB279395F69573
:103ED000879577956795B795F111F8CFFAF4BB0FF1
:103EE00011F460FF1BC06F5F7F4F8F4F9F4F16C055
:103EF000882311F096E911C0772321F09EE8872FDF
:103F0000762F05C0662371F096E8862F70E060E09A
:103F10002AF09A95660F771F881FDAF7880F969513
:103F2000879597F9089597F99F6780E870E060E0BA
:103F300008959FEF80EC089500240A941616170642
:103F400018060906089500240A941216130614068A
:103F500005060895092E0394000C11F4882352F0ED
:103F6000BB0F40F4BF2B11F460FF04C06F5F7F4FA5
:103F70008F4F9F4F089557FD9058440F551F59F08C
:103F80005F3F71F04795880F97FB991F61F09F3F46
:103F900079F087950895121613061406551FF2CF6F
:103FA0004695F1DF08C0161617061806991FF1CFBF
:103FB00086957105610508940895E894BB276627E6
:103FC0007727CB0197F908950E94F71F0C94AA1F39
:103FD0000E949C1F38F00E94A31F20F0952311F02F
:103FE0000C94931F0C94991F11240C94DE1F0E94B3
:103FF000BB1F70F3959FC1F3950F50E0551F629F53
:10400000F001729FBB27F00DB11D639FAA27F00D31
:10401000B11DAA1F649F6627B00DA11D661F829F58
:104020002227B00DA11D621F739FB00DA11D621F3D
:10403000839FA00D611D221F749F3327A00D611D5A
:10404000231F849F600D211D822F762F6A2F11243C
:104050009F5750409AF0F1F088234AF0EE0FFF1F6F
:10406000BB1F661F771F881F91505040A9F79E3FC6
:10407000510580F00C94931F0C94DE1F5F3FE4F316
:10408000983ED4F3869577956795B795F795E7951C
:104090009F5FC1F7FE2B880F911D9695879597F925
:1040A0000895AA1BBB1B51E107C0AA1FBB1FA6177F
:1040B000B70710F0A61BB70B881F991F5A95A9F7D1
:1040C00080959095BC01CD010895A1E21A2EAA1BFE
:1040D000BB1BFD010DC0AA1FBB1FEE1FFF1FA217B8
:1040E000B307E407F50720F0A21BB30BE40BF50BB5
:1040F000661F771F881F991F1A9469F7609570953E
:10410000809590959B01AC01BD01CF010895052ECE
:1041100097FB1EF400940E949E2057FD07D00E943A
:10412000652007FC03D04EF40C949E2050954095DA
:10413000309521953F4F4F4F5F4F08959095809553
:10414000709561957F4F8F4F9F4F0895EE0FFF1F22
:104150000590F491E02D0994CF93DF93823091057F
:1041600010F482E090E0E0913D03F0913E0320E006
:1041700030E0C0E0D0E0309711F140815181481724
:104180005907C0F04817590761F48281938120973D
:1041900019F09B838A832BC090933E0380933D0349
:1041A00026C02115310519F04217530718F49A015A
:1041B000BE01DF01EF010280F381E02DDCCF21158C
:1041C000310509F1281B390B2430310590F4129682
:1041D0008D919C9113976115710521F0FB019383DB
:1041E000828304C090933E0380933D03FD01329689
:1041F00044C0FD01E20FF31F8193919322503109D6
:104200002D933C933AC020913B0330913C03232BE8
:1042100041F4209102013091030130933C0320933B
:104220003B0320910001309101012115310541F43A
:104230002DB73EB74091040150910501241B350B69
:10424000E0913B03F0913C03E217F307A0F42E1B2F
:104250003F0B2817390778F0AC014E5F5F4F2417EA
:10426000350748F04E0F5F1F50933C0340933B03CC
:104270008193919302C0E0E0F0E0CF01DF91CF9114
:1042800008950F931F93CF93DF93009709F48CC089
:10429000FC0132971382128200913D0310913E037C
:1042A0000115110581F420813181820F931F209126
:1042B0003B0330913C032817390779F5F0933C0311
:1042C000E0933B0371C0D80140E050E0AE17BF0758
:1042D00050F412962D913C911397AD0121153105A3
:1042E00009F1D901F3CF9D01DA0133832283608183
:1042F0007181860F971F8217930769F4EC0128815B
:104300003981260F371F2E5F3F4F318320838A81EB
:104310009B8193838283452B29F4F0933E03E093A2
:104320003D0342C01396FC93EE931297ED01499121
:1043300059919E01240F351FE217F30771F4808114
:104340009181840F951F029611969C938E93828182
:10435000938113969C938E931297E0E0F0E0D8013E
:1043600012968D919C911397009719F0F8018C018A
:10437000F6CF8D919C9198012E5F3F4F820F931F36
:1043800020913B0330913C032817390769F430979B
:1043900029F410923E0310923D0302C01382128250
:1043A00010933C0300933B03DF91CF911F910F913A
:1043B0000895FB01DC0105900D920020E1F70895BE
:1043C000FB01DC014150504048F005900D92002067
:1043D000C9F701C01D9241505040E0F70895FB011C
:1043E000DC0101900D920020E1F70895FB01DC0152
:1043F0004150504048F001900D920020C9F701C093
:104400001D9241505040E0F70895F999FECF92BDBA
:1044100081BDF89A992780B50895262FF999FECF86
:104420001FBA92BD81BD20BD0FB6F894FA9AF99AD1
:0A4430000FBE01960895F894FFCF27
:10443A0000003F03800080841E00FF050400010085
:10444A00A0860100780001FFBE1CBE1C4265617493
:10445A004475696E6F76657220312E336279205702
:10446A00617272696F722E000A0A002F002D0030E5
:10447A00000400CC04040076040301000002015584
:10448A0004000300000401100428050000280500A8
:10449A00002805000028050000280500000205067E
:1044AA000403010000020106040200E203280E00D0
:1044BA0000040F9D0300100000FF1000000310907D
:1044CA000306100000280E0000020E060407002A48
:1044DA0003021711030317C9020317F002FF17009B
:1044EA000002170604021706040217A802031E7E1A
:1044FA0002021E650200000000000000007F175E35
:10450A001BEB03EE03490400000000131A5E1BB301
:10451A0019F11985199F1991190D0A006E616E001A
:08452A00696E66006F76660001
:00000001FF
