:100000000C9449030C9465190C948C190C9471038D
:100010000C9471030C9471030C9471030C94710390
:100020000C9471030C9471030C9471030C94710380
:100030000C9471030C94A0110C9471030C94710333
:100040000C94B3190C9471030C9445170C94771706
:100050000C9471030C9471030C9471030C94710350
:100060000C9471030C947103110663094F06630924
:1000700054069306C20601073F0763097E0763091A
:100080006309BC076309E807570863097C089E08F1
:100090006309630963096309630963096309CE0896
:1000A0000D0C240C3E0C4B0C640C710C8F0C970C3B
:1000B000A70CB20CDB0CFA0C0A0D230D530D620DCC
:1000C0006A0D690CB40DBF0DD20DE40DEC0D200EC0
:1000D000700E770E820E930EAB0E7553004369635C
:1000E0006C6F204D61783A007553004369636C6F03
:1000F000204D696E3A007553004369636C6F20416F
:1001000063743A0056657273696F6E3A00627920C3
:1001100057617272696F7200426561744475696EED
:100120006F00456C696765206C612063616E63696F
:100130006F6E3A005469706F20436F6D7061733A4F
:1001400000202042504D00456C69676520656C2099
:1001500074656D706F3A004E6F6D627265206361F9
:100160006E63696F6E3A00456C696765206C61204B
:1001700063616E63696F6E3A00436F7069617220EC
:1001800061637475616C20656E3A00456C696765E2
:10019000206C612063616E63696F6E3A00496E7313
:1001A000657274617220747261733A00456C69679C
:1001B00065206C612063616E63696F6E3A00506FF9
:1001C000736963696F6E2061206564697461723A56
:1001D000004E6F6D627265207265706572746F7229
:1001E000696F3A00456C6967652072657065727465
:1001F0006F72696F3A0042504D002042504D0A0024
:100200005245534554004241434B0053415645002B
:1002100044454C004D454E5500504C4159005354F7
:100220004F50003B0232022902536F6E69646F2007
:100230003300536F6E69646F203200536F6E6964D0
:100240006F203100530248025265706572746F72FC
:10025000696F004D6574726F6E6F6D6F009A028CDE
:1002600002800275026702526573657420466162FE
:1002700072696361004D69646920436C6F636B0050
:10028000536F6E69646F205469636B005469636BCC
:100290007320696775616C6573004D6F646F00AAA8
:1002A00002A802A50231360038003400E202D4026E
:1002B000C302B40243616D6269617220436F6D7065
:1002C00061730043616D626961722044697669738C
:1002D000696F6E0043616D626961722054656D7073
:1002E0006F0043616D62696172204E6F6D6272656D
:1002F000000603F502456C696D696E617220436109
:100300006E63696F6E004564697461722043616E4B
:1003100063696F6E001C0319035349004E4F00566A
:1003200003450334032703566163696172204F72EA
:1003300064656E00456C696D696E61722043616E23
:1003400063696F6E00496E736572746172204361F8
:100350006E63696F6E0043616D62696172204F72F6
:1003600064656E007603680343616D6269617220A3
:100370004F7264656E0043616D62696172204E6FF9
:100380006D62726500C503B303A1038D03456C69FB
:100390006D696E6172205265706572746F72696FFB
:1003A00000436F70696172205265706572746F727C
:1003B000696F00456469746172205265706572747A
:1003C0006F72696F0043616D6269617220646520BC
:1003D0005265706572746F72696F00FA03F003E81A
:1003E00003E303496E666F00416A757374657300B9
:1003F00043616E63696F6E657300526570657274F8
:100400006F72696F73000000050720600000000034
:100410000000005F00000007000700147F147F1435
:10042000242A7F2A1223130864623649562050007A
:1004300008070300001C2241000041221C002A1C66
:100440007F1C2A08083E0808008070300008080851
:100450000808000060600020100804023E51494571
:100460003E00427F400072494949462141494D338F
:100470001814127F1027454545393C4A49493141F6
:10048000211109073649494936464949291E0000C4
:100490001400000040340000000814224114141419
:1004A0001414004122140802015909063E415D5905
:1004B0004E7C1211127C7F494949363E414141220E
:1004C0007F4141413E7F494949417F090909013E38
:1004D000414151737F0808087F00417F410020405F
:1004E000413F017F081422417F404040407F021C71
:1004F000027F7F0408107F3E4141413E7F09090988
:10050000063E4151215E7F09192946264949493253
:1005100003017F01033F4040403F1F2040201F3F19
:100520004038403F6314081463030478040361599E
:10053000494D43007F4141410204081020004141E0
:10054000417F04020102044040404040000307088C
:100550000020545478407F28444438384444442888
:10056000384444287F385454541800087E0902182F
:10057000A4A49C787F0804047800447D40002040B7
:10058000403D007F1028440000417F40007C0478FB
:1005900004787C080404783844444438FC18242443
:1005A0001818242418FC7C080404084854545424C3
:1005B00004043F44243C4040207C1C2040201C3C40
:1005C0004030403C44281028444C9090907C446437
:1005D000544C4400083641000000770000004136CA
:1005E000080002010204023C2623263CF205198081
:1005F0004000AED580A83FD300408D142002A1C892
:10060000DA12817FD9F1DB40A4A6AF00030C0F30D2
:10061000333C3FC0C3CCCFF0F3FCFF566163696F3E
:100620002020202020202020202000564143494F18
:100630002020000000000800020100000304070061
:1006400000000000000000010204081020408001AA
:100650000204081020010204081020040404040409
:100660000404040202020202020303030303030060
:1006700000000023002600290000000000250028BB
:10068000002B0000000000240027002A00000D11AC
:10069000A71711241FBECFEFD8E0DEBFCDBF11E0FA
:1006A000A0E0B1E0E6E4FDE302C005900D92A43EB7
:1006B000B107D9F723E0A4EEB1E001C01D92A63145
:1006C000B207E1F713E0C9E4D3E004C02197FE01CB
:1006D0000E942C1DC734D107C9F70E94D5170C946E
:1006E000A11E0C940000CF93DF938091FB019091A9
:1006F000FC01892BC1F086E00E940A1BEC0182E01C
:100700000E940A1BC817D90719F08FEF9FEF02C08C
:1007100081E090E09093FE018093FD011092FC0136
:100720001092FB0109C08091FB019091FC010196A0
:100730009093FC018093FB01DF91CF9108950C947D
:100740008B1EEF92FF920F931F93CF93DF931F9215
:10075000CDB7DEB77C01FC0100811181C80169833E
:100760000E948B1E6981681719F0C8010E94931EB0
:10077000C7010F90DF91CF911F910F91FF90EF90E4
:100780000895FC016093BC008091BC0087FFFCCF02
:100790009091B900987F90830895CF92DF92EF9265
:1007A000FF920F931F93CF93DF93EC01C62ED42EAD
:1007B0008F85882351F0411108C084E98093BC00E3
:1007C0008091BC0084FDFCCF1F86EF848E01035F07
:1007D0001F4FE11014C0FE8464EAC8010E94C103E7
:1007E0008D85883011F1803101F1DD2011F080E438
:1007F000E82EE092BB0064E8C8010E94C103C092E9
:10080000BB0064E8C8010E94C10382E0D81204C0A2
:100810008F858F5F8F8711C084E98093BC008091A2
:10082000BC0084FDFCCF1F8608C0FF0CF092BB000B
:1008300064E8C8010E94C103D8CFDF91CF911F9116
:100840000F91FF90EF90DF90CF90089580911B0162
:10085000813099F4E0910F01E11103C010921B0166
:1008600015C084E0E89FF0011124ED5BFE4F81810B
:1008700080930F011092F50109C081E080931B0164
:100880001092F5011092F40110920F0181E0809313
:100890001901089580911B01882319F0813041F0DE
:1008A00017C09091100181E089278093100110C03A
:1008B00080910F01843011F0813151F48091F40165
:1008C000E091F201F091F301E80FF11D80E28083E5
:1008D00081E0809319010895EF92FF920F931F9387
:1008E000CF93DF93CDB7DEB764970FB6F894DEBF32
:1008F0000FBECDBF8B017A0121E020930902209326
:100900000802009791F0BC01CE0101960E945F1E83
:1009100047E060E08FEF91E00E948D12BE016F5FB3
:100920007F4F8FEF91E00E94481801151105F9F0F3
:10093000B8018E010F5F1F4FC8010E945F1EF801B2
:1009400001900020E9F73197E01BF10BF695E79550
:1009500060E487E0E89F6019112447E08FEF91E0A1
:100960000E948D12B8018FEF91E00E944818E114A7
:10097000F104E9F0B7018E010F5F1F4FC8010E941B
:100980005F1EF80101900020E9F73197E01BF10BA1
:1009900060E887E0E89F6019112447E08FEF91E05D
:1009A0000E948D12B8018FEF91E00E9448181092BA
:1009B000090264960FB6F894DEBF0FBECDBFDF917B
:1009C000CF911F910F91FF90EF900895BF92CF921A
:1009D000DF92EF92FF920F931F93CF93DF93CDB7E8
:1009E000DEB76E970FB6F894DEBF0FBECDBF909105
:1009F0001A0180911B01981741F08FEF91E00E943E
:100A0000EB1280911B0180931A0180911B018823B6
:100A100021F0813009F4E3C096C410912102112322
:100A200009F4AAC0113009F08EC440E060E08FEFF5
:100A300091E00E948D12109209026091150270E0FF
:100A40006F5F7F4F4AE050E08FEF91E00E940C19FA
:100A50006AE371E08FEF91E00E94481862E272E071
:100A60008FEF91E00E9448186DE371E08FEF91E005
:100A70000E94481802E021E040E860E08FEF91E03A
:100A80000E94B71241E060E08FEF91E00E948D126A
:100A90006091160270E06F5F7F4F4AE050E08FEF89
:100AA00091E00E940C196AE371E08FEF91E00E94DF
:100AB00048186BE272E08FEF91E00E9448186CE3F7
:100AC00071E08FEF91E00E94481882E08093080265
:100AD00004E023E047E260E08FEF91E00E94B7126C
:100AE00060911701709118014AE050E08FEF91E09A
:100AF0000E943E1943E068E28FEF91E00E948D1260
:100B00006AEF71E08FEF91E00E94241810930802C1
:100B100006E026E040E569E38FEF91E00E94B7121E
:100B200060911101709112014AE050E08FEF91E065
:100B30000E943E196FE371E08FEF91E00E94481828
:100B40006091130170911401660F771F660F771F74
:100B50004AE050E08FEF91E00E943E198091100131
:100B600044E152E060E070E0882319F089E192E00E
:100B7000E8C38EE192E0E5C382E08093080202E0E0
:100B800021E04FE360E08FEF91E00E94B71241E077
:100B90006BE08FEF91E00E948D121092090260913C
:100BA0001701709118014AE050E08FEF91E00E9428
:100BB0003E1941E060E48FEF91E00E948D1266EFF4
:100BC00071E08FEF91E00E94241881E08093080289
:100BD00044E060E48FEF91E00E948D12A1CF9091EC
:100BE0000E0180910F01981741F08FEF91E00E9464
:100BF000EB1280910F0180930E0140E060E08FEFD7
:100C000091E00E948D12E0910F018E2F90E0FC0187
:100C10003297EC31F10508F056C3EC5CFF4F0C94B1
:100C20002C1D1092090264EE71E08FEF91E00E949A
:100C3000551801E021E040E860E08FEF91E00E946C
:100C4000B71200E010E0DD24D3948091F50190E02C
:100C50008017910719F4D092090202C0109209027C
:100C6000802F0E9479147C010F5F1F4F4AE050E0F3
:100C7000B8018FEF91E00E940C196AE371E08FEFE9
:100C800091E00E944818B7018FEF91E00E94671829
:100C9000C7010E94C71D03301105B9F64CC310925D
:100CA000090261ED71E098C10091F501053020F075
:100CB00010E00550110902C000E010E0680125E0D5
:100CC000C20ED11CBB24B394C016D1060CF433C39E
:100CD000602F809115020E94EE140E94B3147C01D3
:100CE0002091F50130E02017310719F4B092090284
:100CF00002C0109209020F5F1F4F4AE050E0B80196
:100D00008FEF91E00E940C196AE371E08FEF91E0A0
:100D10000E944818B7018FEF91E00E946718C70141
:100D20000E94C71DD1CF6EEB71E08FEF91E00E9462
:100D300055186091F101809115020E94EE140E94F5
:100D4000B3147C019091F101692F70E06F5F7F4FC8
:100D50004AE050E08FEF91E00E940C196AE371E0E5
:100D60008FEF91E00E944818B7018FEF91E00E9449
:100D700067186DE371E08FEF91E00E9467186CEAED
:100D800071E06DC00091F501053020F010E00550D4
:100D9000110902C000E010E0680185E0C80ED11C16
:100DA000BB24B394C016D1060CF4C5C2602F809149
:100DB00015020E94EE140E94B3147C012091F501EB
:100DC00030E02017310719F4B092090202C01092E6
:100DD00009020F5F1F4F4AE050E0B8018FEF91E02A
:100DE0000E940C196AE371E08FEF91E00E944818AD
:100DF000B7018FEF91E00E946718C7010E94C71DDD
:100E0000D1CF6DE971E08FEF91E00E9455186091AC
:100E1000F101809115020E94EE140E94B3147C012E
:100E20009091F101692F70E06F5F7F4F4AE050E0D1
:100E30008FEF91E00E940C196AE371E08FEF91E06F
:100E40000E944818B7018FEF91E00E9467186DE388
:100E500071E08FEF91E00E9467186BE871E08FEF0F
:100E600091E00E94551806E025E040E860E08FEF31
:100E700091E00E94B712C7010E94C71D6FC1009187
:100E8000F501053020F010E00550110902C000E026
:100E900010E0680125E0C20ED11CBB24B394C0163B
:100EA000D1060CF448C2602F809115020E94EE1406
:100EB0000E94B3147C012091F50130E02017310726
:100EC00019F4B092090202C0109209020F5F1F4F7D
:100ED0004AE050E0B8018FEF91E00E940C196AE3FC
:100EE00071E08FEF91E00E944818B7018FEF91E019
:100EF0000E946718C7010E94C71DD1CF1092090236
:100F000069E771E08FEF91E00E94551801E021E060
:100F100040E860E08FEF91E00E94B71200E010E03F
:100F2000DD24D3948091F50190E08017910719F4A6
:100F3000D092090202C010920902802F0E947914F7
:100F40007C010F5F1F4F4AE050E0B8018FEF91E046
:100F50000E940C196AE371E08FEF91E00E9448183B
:100F6000B7018FEF91E00E946718C7010E94C71D6B
:100F700003301105B9F6DFC167E671E08FEF91E04C
:100F80000E9455188091F5010E94B3147C0101E084
:100F900021E040E860E08FEF91E00E94B71290916D
:100FA000F501692F70E06F5F7F4F4AE050E08FEFEF
:100FB00091E00E940C196AE371E08FEF91E00E94CA
:100FC0004818B7018FEF91E00E946718C701E3C08E
:100FD0001092090267E571E08FEF91E00E945518C9
:100FE00001E021E040E860E08FEF91E00E94B7125D
:100FF0008091FD019091FE0118161906CCF48091A4
:10100000F401E091F201F091F301E80FF11D80810C
:10101000803210F480E207C0803211F481E403C012
:101020008A3710F48F5F80831092FE011092FD01C9
:101030008091FD019091FE0197FF11C08091F40114
:10104000E091F201F091F301E80FF11D808182340B
:1010500010F0815080831092FE011092FD0160918A
:10106000F2017091F3018FEF91E00E94671802E0A6
:1010700022E040E860E08FEF91E00E94B7126091BB
:10108000F401862F880F680F660F42E08FEF91E022
:101090000E948D1261E471E08FEF91E00E94481888
:1010A00046E052E06BE072E080E192E04AC11092CB
:1010B000090267E471E08FEF91E00E9455186DE33B
:1010C00071E08FEF91E00E94671804E023E040E8B0
:1010D00060E08FEF91E00E94B7124AE050E060912B
:1010E000F5018FEF91E00E94371961E471E08FEF15
:1010F00091E00E9455181FC11092090264E371E04B
:101100008FEF91E00E9455186DE371E08FEF91E051
:101110000E94671804E023E040E860E08FEF91E070
:101120000E94B7126091F50170E06E5F7F4F4AE058
:1011300050E08FEF91E00E941319FDC01092090258
:1011400062E271E08FEF91E00E94551801E021E02A
:1011500040E860E08FEF91E00E94B7128091F501C6
:101160000E94B3148C019091F501692F70E06F5FBC
:101170007F4F4AE050E08FEF91E00E940C196AE344
:1011800071E08FEF91E00E944818B8018FEF91E075
:101190000E946718C8010E94C71DCDC010920902A5
:1011A00068E171E08FEF91E00E9455186DE071E009
:1011B0008FEF91E00E94551864E071E08FEF91E0AD
:1011C0000E9424184AE050E061E070E08FEF91E067
:1011D0000E940C196AE371E08FEF91E00E944818B9
:1011E0004AE050E060E070E08FEF91E00E94131958
:1011F00003E023E040E860E08FEF91E00E94B71247
:1012000069EF70E08FEF91E00E9424184091E801AF
:101210005091E9016091EA017091EB012AE030E020
:101220008FEF91E00E942A1966EF70E08FEF91E056
:101230000E94551804E024E040E860E08FEF91E060
:101240000E94B7126BEE70E08FEF91E00E942418BD
:1012500040910A0150910B0160910C0170910D01B8
:101260002AE030E08FEF91E00E942A1968EE70E0EA
:101270008FEF91E00E94551805E025E040E860E01E
:101280008FEF91E00E94B7126DED70E08FEF91E06B
:101290000E9424184091E4015091E5016091E6011B
:1012A0007091E7012AE030E08FEF91E00E942A1967
:1012B0006AED70E08FEF91E00E94551846E052E031
:1012C00060E072E03CC000E010E0FF24F394809105
:1012D0000F0124E0829FC0011124FC01ED5BFE4F51
:1012E000208130E00217130734F52091F50130E03A
:1012F0002017310719F4F092090202C01092090276
:10130000FC01ED5BFE4FC801880F991F0280F3813D
:10131000E02DE80FF91F65917491CE0101960E94AE
:101320005F1EBE016F5F7F4F8FEF91E00E946718D5
:101330000F5F1F4FCCCF46E052E060E070E080E0EE
:1013400090E00E946C046E960FB6F894DEBF0FBE5C
:10135000CDBFDF91CF911F910F91FF90EF90DF9064
:10136000CF90BF9008951F93CF93DF93182FEB0179
:101370000E940A1B892B61F58AE08C9FF0018D9FEA
:10138000F00D1124E25CFD4F1782168213828081DA
:10139000811106C091E0248135812530310508F4A2
:1013A00090E08AE08C9FF0018D9FF00D1124E25CAB
:1013B000FD4F9283248135812530310518F081E07D
:1013C000808306C08091F601280F311D3583248368
:1013D000812F0E940A1B019771F58AE08C9FF00112
:1013E0008D9FF00D1124E25CFD4F15821482118651
:1013F0001086118212828081882339F081E0268153
:1014000037812530310508F480E09AE09C9FF00197
:101410009D9FF00D1124E25CFD4F838386819781AF
:101420008530910510F0108206C02091F601820FE0
:10143000911D978386838AE08C9FF0018D9FF00D2C
:101440001124E25CFD4F8081882379F02091F60120
:1014500080859185820F911D91878087883C9105B9
:1014600019F481E0818301C01182DF91CF911F9136
:101470000895CF93DF93809115020E947914EC01B7
:10148000BC0182E292E00E94751ECE01DF91CF91F5
:101490000C94C71D0F931F93CF93609116028091F8
:1014A00015020E94EE14C82F0E94B3148C01BC01D7
:1014B0008BE292E00E94751EC8010E94C71D8C2F0E
:1014C0000E94FE140BE212E0F801808B8C2F0E9428
:1014D0000515F801818B8C2F0E941015F801828B65
:1014E000CF911F910F91089580911B01813009F0D8
:1014F00059C080910F018131C1F18D3109F18430E2
:1015000009F050C06091F2017091F30180911502D1
:101510000E9437158091F2019091F3010E94C71D3E
:10152000E0910F0184E0E89FF0011124ED5BFE4F94
:10153000818180930F011092F5010E94390A32C017
:1015400080E894E8AEE1B0E080930A0190930B014B
:10155000A0930C01B0930D011092E4011092E501EB
:101560001092E6011092E7011DC06091F2017091A6
:10157000F3018091F0010E9470158091F201909129
:10158000F3010E94C71D1092F501E0910F0184E064
:10159000E89FF0011124ED5BFE4F818180930F01E4
:1015A0000E944A0A81E0809319010895CF93C09167
:1015B0002102CC2379F1C13009F078C08091FD017E
:1015C0009091FE01181619062CF4809116028D31A7
:1015D00008F453C08091FD019091FE0197FF04C073
:1015E00080911602811155C080913B0290E090934A
:1015F00018018093170180913C0290E090931401B0
:101600008093130180913D0290E0909312018093AA
:1016100011014CC08091FD019091FE011816190630
:101620009CF480911701909118018F3F910528F447
:10163000019690931801809317011092FE01109269
:10164000FD0181E0809319018091FD019091FE01DF
:1016500097FF2CC08091170190911801009729F0F5
:10166000019790931801809317011092FE01109238
:10167000FD0181E08093190119C08F5F80931602EC
:101680000E944A0A1092FE011092FD01C0931901B6
:10169000A1CF8150809316020E944A0A1092FE0147
:1016A0001092FD0181E0809319019ECFCF910895A2
:1016B0008CEA92E00E949F03823010F48093210212
:1016C0008DEA92E00E949F03823018F4817080932B
:1016D00017028EEA92E00E949F03823018F4817014
:1016E000809314028FEA92E00E949F03833010F4EB
:1016F000809318020895CF93DF9300D0CDB7DEB763
:101700000E94A8150E94E3158CEA92E09A838983CF
:101710006FEFCE0101960E94A1038DEA92E09A83B9
:1017200089836FEFCE0101960E94A1038EEA92E0B9
:101730009A8389836FEFCE0101960E94A1038FEAFD
:1017400092E09A83898360E0CE0101960E94A10312
:10175000FFCF0F931F93CF93DF93CDB7DEB7609783
:101760000FB6F894DEBF0FBECDBF8091FD01909102
:10177000FE011816190604F58091F501E0910F019C
:1017800094E0E99FF0011124ED5BFE4F9081482F1A
:1017900050E0292F30E021503109421753071CF443
:1017A0008F5F8093F501992321F01092FE01109232
:1017B000FD0181E0809319018091FD019091FE016E
:1017C00097FF19C08091F501882319F0815080930B
:1017D000F501E0910F0184E0E89FF0011124ED5B39
:1017E000FE4F8081882321F01092FE011092FD01AE
:1017F00081E08093190180915402882309F4B9C2D1
:10180000E0910F018E2F90E08D31910508F0AEC26E
:10181000FC01E05BFF4F0C942C1D8091F5018130A1
:1018200079F050F0823009F49CC2833009F09EC2F6
:101830001092F5018DE198C21092F50181E094C2F9
:101840001092F5018EE090C28091F501813071F027
:1018500048F0823079F0833009F088C21092F501A7
:101860008DE082C21092F50182E07EC21092F501F5
:1018700083E07AC21092F5018CE076C28091F50186
:1018800080931502109216020E94390A0E944A0A99
:1018900010921B016BC28091F501882339F08130D1
:1018A00009F064C21092F50185E05EC21092F50164
:1018B00084E080930F01809115020E947914909327
:1018C000F3018093F2010AC08091F401863030F474
:1018D00047C18091F4018E3008F442C11092F401A6
:1018E00045C28091F501813071F048F0823099F065
:1018F000833009F03BC21092F5018BE035C21092A3
:10190000F50186E003C01092F50188E080930F0195
:101910001092F1012BC21092F5018AE0F7CF80916D
:10192000F5018093F1011092F50187E01DC240910D
:10193000F5016091F101809115020E94621580917C
:10194000F1018093F5011092F10186E074C180915C
:10195000F5018D3108F00AC28093F1011092F50172
:1019600089E002C20DE110E06091F101862F90E064
:101970000196801791077CF46FEF600F809115023C
:101980000E94EE14482F602F809115020E9462156C
:1019900001501109E9CF6F5F4091F5018091150267
:1019A0000E9462158091F1018F5F8093F501109282
:1019B000F10188E040C10091F50110E00D31110501
:1019C0007CF461E0600F809115020E94EE14482FB4
:1019D000602F809115020E9462150F5F1F4FEECF9E
:1019E00040E06DE1809115020E9462151092F101B4
:1019F0008AE021C18091F501813009F011C110E028
:101A00004FEF612F809115020E9462151F5F1E31FA
:101A1000B9F706C110E0612F809115020E94EE1403
:101A2000482F612F8091F5010E9462151F5F1E31C2
:101A300091F7809115020E947914BC018091F50103
:101A40000E943715B8C08091F501813009F18FEF00
:101A5000898348E050E0BE016F5F7F4FCB010E9459
:101A60007C1EBE016F5F7F4F809115020E9437156B
:101A70001092F501E0910F0194E0E99FF00111242B
:101A8000ED5BFE4F818180930F010E94390A6EC188
:101A900010E04FEF612F809115020E9462151F5FC9
:101AA0001E31B9F7D4CF8091F501882339F0813008
:101AB00009F05CC11092F50185E156C11092F50163
:101AC0008FE052C18091F5018093F0011092F501F1
:101AD00080E14AC11091F5011130F9F080F0123027
:101AE00031F1133009F042C184E180930F018091FC
:101AF000F0010E9410158093F10182502EC01092C7
:101B0000F50181E180930F018091F0010E94B314EF
:101B10009093F3018093F20129C182E180930F0138
:101B20008091F0010E94FE148093F10116C083E1C0
:101B300080930F018091F0010E9405158093F101BF
:101B4000823031F0843031F0813009F00FC1C5C0EE
:101B500081E003C01093F50109C18093F50106C12E
:101B60008F5F8093F40102C16091F5018091F001D3
:101B70000E9493151092F5011092F1011EC0809100
:101B8000F501813039F020F0823049F464E003C07F
:101B900061E001C062E08091F0010E949A1510920C
:101BA000F1013EC06091F5016E5F8091F0010E94ED
:101BB000A1151092F1011092F501E0910F0184E05E
:101BC000E89FF001112434C08091F5018093F00169
:101BD0001092F50186E1C8C08091F501813001F5D0
:101BE0008FEF898340E150E0BE016F5F7F4FCB01F3
:101BF0000E947C1EBE016F5F7F4F8091F0010E94AA
:101C000070156FEF8091F0010E9493156FEF809136
:101C1000F0010E949A156FEF8091F0010E94A115CA
:101C20001092F501E0910F0194E0E99FF001112479
:101C3000ED5BFE4F818180930F010E944A0A96C09E
:101C40008091F501823069F128F4882361F08130B8
:101C5000C9F08CC0833091F1843009F087C08CE1E9
:101C600080930F013AC08CEA92E00E949F03809318
:101C7000F1018F3F19F08093F50102C01092F50138
:101C800088E172C08DEA92E00E949F038093F10187
:101C90008F3F19F08093F50102C01092F50189E1A0
:101CA00063C08FEA92E00E949F03833018F4809310
:101CB000F50102C01092F5018AE156C08EEA92E069
:101CC0000E949F038093F1018F3F19F08093F501EB
:101CD00002C01092F5018BE147C01092F50146C099
:101CE0006091F501609321028CEA92E011C061E0FD
:101CF0008091F501811101C060E0609317028DEAC7
:101D000092E01BC06091F501609318028FEA92E0A7
:101D10000E941B151092F501E0910F0184E0E89FED
:101D2000F001112414C061E08091F501811101C01E
:101D300060E0609314028EEA92E00E941B151092FC
:101D4000F501E0910F0194E0E99FF0011124ED5BB2
:101D5000FE4F818109C08091F501813011F40E940C
:101D60007B0B1092F50187E180930F0181E0809356
:101D7000190160960FB6F894DEBF0FBECDBFDF919C
:101D8000CF911F910F9108950F931F93CF93DF93DE
:101D90000E94091A6093EC017093ED018093EE01AB
:101DA0009093EF0160E070E085E090E00E94B3095D
:101DB00061E070E083E090E00E94B30962E070E0CF
:101DC00087E090E00E94B30963E070E084E090E077
:101DD0000E94B30980914A0281110E9426048091D9
:101DE0005E0281110E94740A8091400281110E945A
:101DF0004A0480911B01882329F0813029F40E9434
:101E0000A90B02C00E94D60A209117013091180137
:101E100080911F02909120028217930781F140E088
:101E200050E060E67AEE80E090E00E940D1DCA016D
:101E3000B9010E94DE1B20E030E040EC51E40E943A
:101E4000341B20E030E04AE754E40E946A1C6093AF
:101E500010027093110280931202909313020E9459
:101E6000A61BAB01BC0186E692E00E94C7118091DF
:101E70001701909118019093200280931F02809186
:101E80001901882321F00E94E604109219010E9492
:101E9000FD190091F7011091F8012091F90130919D
:101EA000FA01DC01CB01801B910BA20BB30B0A974B
:101EB000A105B10570F00E94FD196093F7017093C0
:101EC000F8018093F9019093FA0181E08093F60183
:101ED00002C01092F6010E94091A0091EC011091C3
:101EE000ED012091EE013091EF01DC01CB01801B6F
:101EF000910BA20BB30B8093E8019093E901A0939F
:101F0000EA01B093EB010091E4011091E501209109
:101F1000E6013091E701081719072A073B0740F44B
:101F20008093E4019093E501A093E601B093E7016B
:101F300000910A0110910B0120910C0130910D01CB
:101F400080179107A207B30740F480930A0190938A
:101F50000B01A0930C01B0930D0186E00E940A1BB7
:101F6000EC0182E00E940A1BC817D90721F41092E5
:101F7000FE011092FD01A895DF91CF911F910F9165
:101F80000895CF92DF92EF92FF920F931F93CF931A
:101F9000DF93CDB7DEB76A970FB6F894DEBF0FBEFA
:101FA000CDBF89E0E0E2F1E0DE011B9601900D92E9
:101FB0008A95E1F787E0E9E2F1E0DE0154960190CD
:101FC0000D928A95E1F78AE0E0E3F1E0DE011196F7
:101FD00001900D928A95E1F78FEF91E00E94EB124C
:101FE00081E0809308021092090240E060E08FEFE8
:101FF00091E00E948D128E01055F1F4F6E0184E1FA
:10200000C80ED11C7801F80161918F018FEF91E02A
:102010000E944A1869E170E080E090E00E942E1A68
:102020000C151D0581F768EE73E080E090E00E94DA
:102030002E1A6DE371E08FEF91E00E9448186E0157
:10204000FBE1CF0ED11CF80161918F018FEF91E080
:102050000E944A1869E170E080E090E00E942E1A28
:102060000C151D0581F768EE73E080E090E00E949A
:102070002E1A6DE371E08FEF91E00E9448188E01F7
:102080000F5F1F4FF80161918F018FEF91E00E9468
:102090004A1869E170E080E090E00E942E1A0E1567
:1020A0001F0581F768EE73E080E090E06A960FB656
:1020B000F894DEBF0FBECDBFDF91CF911F910F917E
:1020C000FF90EF90DF90CF900C942E1ACF93DF9378
:1020D0000FB6F894A89580916000886180936000A5
:1020E000109260000FBE62E082E00E94CE1A62E0B1
:1020F00086E00E94CE1A62E085E00E94CE1A62E07D
:1021000083E00E94CE1A62E087E00E94CE1A62E06D
:1021100084E00E94CE1A61E088E00E94CE1A61E05D
:1021200089E00E94CE1A61E08AE00E94CE1A61E046
:102130008DE00E94CE1A41E050E063E773E080E05A
:102140000E944519CFEFD1E01F868CE38E87109255
:10215000B9008CE08093B8006CEE75E0CE010E946F
:10216000FA1286E094E09C878B8726E042E15AE7EA
:1021700060E070E08CE692E00E94E0160E94C10FE1
:10218000CE010E94EB1281E089871A862091170107
:102190003091180140E050E060E67AEE80E090E097
:1021A0000E940D1DCA01B9010E94DE1B20E030E033
:1021B00040EC51E40E94341B20E030E04AE754E454
:1021C0000E946A1C609310027093110280931202A5
:1021D000909313020E94A61BAB01BC0186E692E01D
:1021E0000E942F122FEF3FEFA9016AE171E186E60D
:1021F00092E00E943F129FE088E10FB6F894A89504
:10220000809360000FBE909360000E94580B0E9464
:10221000390ADF91CF910C944A0AEFEFF1E0138273
:10222000128281E08187148613868FEB91E091837F
:10223000808308950F931F930E94FD1900911B0244
:1022400010911C0220911D0230911E02AB01BC01B5
:10225000401B510B620B730B80911501909116017D
:10226000A0E0B0E084179507A607B70720F485B172
:10227000887F85B92D9820910F0230E0609113017D
:102280007091140188E190E00E94D71C261737074F
:1022900008F443C010920F022091190230911A02E3
:1022A000809111019091120101972817390728F0A8
:1022B00010921A021092190209C08091190290918D
:1022C0001A02019690931A028093190280911001CC
:1022D000882341F10E94FD1960931B0270931C0238
:1022E00080931D0290931E028091180290E0019647
:1022F000880F991F2091190230911A02232B29F47B
:102300003091170221E0232701C020E035B1820F70
:10231000911D832B85B92D9A05C080910F028F5F87
:1023200080930F0280911402882339F068EF8CE6C5
:1023300092E01F910F910C9499161F910F9108959F
:102340001F920F920FB60F9211242F933F934F932A
:102350005F936F937F938F939F93AF93BF93EF930D
:10236000FF93E0916A02F0916B020995FF91EF9162
:10237000BF91AF919F918F917F916F915F914F919D
:102380003F912F910F900FBE0F901F901895FC0159
:10239000A3E0440F551F661F771FAA95D1F741157B
:1023A000510581E06807710514F481E00EC033E047
:1023B00075956795579547953A95D1F7411551050C
:1023C00081E0680771051CF482E0828331C023E05C
:1023D00075956795579547952A95D1F741155105FC
:1023E00081E06807710514F483E0EFCF92E0759502
:1023F0006795579547959A95D1F74115510581E015
:102400006807710514F484E0E0CF82E07595679564
:10241000579547958A95D1F785E0828341155105F7
:1024200081E06807710524F04FEF5FEF60E070E036
:102430008FB78383F89451834083509387004093F0
:10244000860083818FBF80918100887F8093810087
:10245000909181008281892B809381000895109250
:10246000800020E1209381000C94C711E1E8F0E0A6
:102470002081DC0112968C91822B808308950F932A
:102480001F93CF93DF93EC018B01BA01A9011416BE
:1024900015061606170614F40E94C7111D830C8337
:1024A00081E080936F00CE01DF91CF911F910F915A
:1024B0000C943612DC01ED91FC910480F581E02D45
:1024C00040E009940F931F93CF93FC01268162177C
:1024D000A0F4C62F8C0164839085C90F6C2F6F7098
:1024E000CF010E945A126C2F62956F706061C80113
:1024F000CF911F910F910C945A12CF911F910F9170
:102500000895FC012781269526952695621720F4CB
:102510006583606B0C945A1208950F931F93CF93A9
:10252000DF931F92CDB7DEB78C0149830E94621200
:102530004981642FC8010F90DF91CF911F910F91B6
:102540000C948112CF93DF93EC019C818E819817BC
:1025500058F4E881F9810480F581E02D42E0CE0154
:1025600009958C818F5F8C83DF91CF910895CF92F5
:10257000DF92EF92FF920F931F93CF93DF93EC01C3
:10258000F62EC42ED22E8F818695869586950817B5
:1025900010F00FEF080F1D2D011780F0412F6F2D48
:1025A000CE010E948D12EF2CCE1430F060E0CE01EF
:1025B0000E94A212E394F8CF1F5FEECF4D2D6F2D36
:1025C000CE01DF91CF911F910F91FF90EF90DF909F
:1025D000CF900C948D120F93FC0107810695069500
:1025E000069501504681415020E060E00E94B712FC
:1025F0000F910895EF92FF920F931F93CF93DF9364
:10260000EC011C821D82FB0185919491E82EFB0157
:102610003296F4903196E491EE83FB013496E49186
:10262000EF83FB013596649168878C01802F8E19AA
:102630008F1540F4F8016491CE010E945A120F5F89
:102640001F4FF4CFCE01DF91CF911F910F91FF90DB
:10265000EF900C94EB122F923F924F925F926F92F9
:102660007F928F929F92AF92BF92CF92DF92EF9222
:10267000FF920F931F93CF93DF93CDB7DEB72797CA
:102680000FB6F894DEBF0FBECDBFFC0103851485E5
:102690000115110509F410C19F838E83F801B491CF
:1026A00031964491319654903196A491EA2EF12CB2
:1026B000F7E0EF0EF11C93E0F594E7949A95E1F7BB
:1026C000EA82F801349674913196E491671750F0DC
:1026D000862F90E02E2F30E0F901E70FF11D8E17C5
:1026E0009F07BCF06D3031F460E08E819F810E94C5
:1026F0006212DFC06A3009F0DFC0EE81FF818185A0
:1027000045818E9D400D112460E0CF010E948D1205
:10271000D0C050E05B2BC8010696671BEE81FF819D
:10272000F185F9834230510588F4452B09F019826F
:102730005E9C90015F9C300D1124629F8001639F1D
:10274000100D1124080F191F412C24C0EA2FE77027
:1027500021F048E0442E4E1A01C0412CA82FFC0164
:1027600040E050E07E2F7A1B761728F47491470FD3
:10277000511D3196F7CFFC01E60FF11D54904E9D8F
:1027800080014F9D100D5E9D100D1124020F131F2F
:10279000080F191FEE81FF81F481FB83EE81FF8119
:1027A000F581FC83652C712CCC24C394D12C812C15
:1027B000912C22242A942C0C7A81271608F074C0BC
:1027C000312CEE81FF818185381608F067C0211019
:1027D00002C0332041F0EE81FF8145814F5F6B8164
:1027E000CF010E948D12A12CB12CA51408F041C07C
:1027F000F501E80DF91DE00FF11F2491442061F06F
:10280000CE14DF0449F4E22FF0E0042C02C0F59569
:10281000E7950A94E2F72E2FEE81FF8181858230C1
:10282000B9F4E22F3110E295EF70F0E0E55FF94F77
:102830002491EE81FF818285622F811102C0CF0138
:1028400003C060958E819F812D830E94A2122D81ED
:10285000EE81FF818285622F811102C0CF0103C00A
:1028600060958E819F810E94A212FFEFAF1ABF0A6E
:10287000BCCFB12C7981B71679F0EE81FF818285CA
:10288000811103C060E0CF0103C06FEF8E819F8193
:102890000E94A212B394EECF339493CF860C971C70
:1028A000FFEFCF1ADF0A85CF6C818E819F810E9456
:1028B000811281E090E002C080E090E027960FB6A0
:1028C000F894DEBF0FBECDBFDF91CF911F910F9166
:1028D000FF90EF90DF90CF90BF90AF909F908F9040
:1028E0007F906F905F904F903F902F9008950C9441
:1028F0008B1ECF92DF92EF92FF920F931F93CF9395
:10290000DF93C82F88E090E00E94321D8C0186E2A0
:10291000C89FE0011124C65CDD4FCE010E947714F0
:102920008F3F41F448E050E06BE276E0C8010E943E
:10293000661E0FC078016801E8E0CE0ED11CCE0102
:102940000E947714F70181937F012196EC15FD0514
:10295000B1F7C801DF91CF911F910F91FF90EF90D8
:10296000DF90CF900895CF92DF92EF92FF920F9376
:102970001F93CF93DF93C82F80E190E00E94321D18
:102980008C0183E1C89FE0011124CE010E947714DD
:102990008F3F41F440E150E06BE176E0C8010E94D6
:1029A000661E12C06801E0E1CE0ED11C7801C01B8A
:1029B000D10BCE018E0D9F1D0E947714F7018193DC
:1029C0007F01EC15FD05A9F7C801DF91CF911F919B
:1029D0000F91FF90EF90DF90CF90089570E06E5BC5
:1029E0007D4F9B0146E2849F200D311D1124C901BA
:1029F0000E9477148F3F09F480E0089523E1829FBD
:102A0000C001112440960C94771423E1829FC001E9
:102A1000112441960E9477148F3F09F481E00895B4
:102A200023E1829FC001112442960E9477148F3FB8
:102A300009F484E008950F931F93CF93DF931F92BF
:102A4000CDB7DEB78C0169830E947714698168175E
:102A500041F0C8010F90DF91CF911F910F910C941D
:102A6000931E0F90DF91CF911F910F910895CF92F8
:102A7000DF92EF92FF920F931F93CF93DF9396E233
:102A8000899F700111248701065C1D4FEB016B01CA
:102A900087E0C80ED11C6991C8010E941B150F5F09
:102AA0001F4FCC15DD05B9F760E0C7018F5B9D4F67
:102AB000DF91CF911F910F91FF90EF90DF90CF901A
:102AC0000C941B15262F30E02E5B3D4F642FA9017F
:102AD00076E2879F400D511D1124CA010C941B15ED
:102AE000EF92FF920F931F93CF93DF9393E1899F10
:102AF000E00111248B017E01EFE0EE0EF11CF801E4
:102B000061918F01CE010E941B152196CE15DF0524
:102B1000B1F760E0CE01DF91CF911F910F91FF904F
:102B2000EF900C941B1523E1829FC0011124409665
:102B30000C941B1523E1829FC001112441960C9433
:102B40001B1523E1829FC001112442960C941B1592
:102B5000EF92FF920F931F93CF93DF93C0E0D0E0EB
:102B60000BE116E0FE01EB51F6407F01F8016491A4
:102B7000C701800F911F0E941B150F5F1F4FF6E0CA
:102B80000A321F0799F760E0CE010F960E941B15CD
:102B900068E7CE0140960E941B1561E0CE01419688
:102BA0000E941B1564E0CE0142960E941B1563969D
:102BB000CA3382E0D807A1F6DF91CF911F910F9120
:102BC000FF90EF900895EF92FF920F931F93CF9392
:102BD000DF93CAE3D2E00BE216E0FE01EB52F640CF
:102BE0007F01F8016491C701800F911F0E941B159E
:102BF0000F5F1F4FF6E002331F0799F760E0CE0129
:102C000007960E941B158E01085F1F4FA6966FEF57
:102C1000C8010E941B150F5F1F4F0C171D07B9F746
:102C20000C3A1240C1F6DF91CF911F910F91FF90A6
:102C3000EF900895FC01918D228D892F90E0805CAA
:102C40009F4F821B91098F7399270895FC01918DE5
:102C5000828D981731F0828DE80FF11D858D90E0FF
:102C600008958FEF9FEF0895FC01918D828D981745
:102C700061F0828DDF01A80FB11D5D968C91928D60
:102C80009F5F9F73928F90E008958FEF9FEF08955D
:102C90008DE997E1892B49F080E090E0892B29F0BC
:102CA0000E949D1781110C9400000895FC01848DF1
:102CB000DF01A80FB11DA35ABF4F2C91848D90E066
:102CC00001968F739927848FA689B7892C93A08941
:102CD000B1898C9180648C93938D848D981306C0F8
:102CE0000288F389E02D80818F7D80830895CF93C2
:102CF000DF93EC01888D8823C9F0EA89FB89808104
:102D000085FD05C0A889B9898C9186FD0FC00FB6D5
:102D100007FCF5CF808185FFF2CFA889B9898C9116
:102D200085FFEDCFCE010E945616E7CFDF91CF9100
:102D30000895EF92FF920F931F93CF93DF93EC01CF
:102D400081E0888F9B8D8C8D981305C0E889F98967
:102D5000808185FD24C0F62E0B8D10E00F5F1F4F84
:102D60000F731127E02E8C8DE8120CC00FB607FCF4
:102D7000FACFE889F989808185FFF5CFCE010E94DD
:102D80005616F1CF8B8DFE01E80FF11DE35AFF4F70
:102D9000F0820B8FEA89FB898081806207C0EE890F
:102DA000FF896083E889F98980818064808381E07C
:102DB00090E0DF91CF911F910F91FF90EF900895D8
:102DC000CF92DF92EF92FF921F93CF93DF93EC01AC
:102DD0006A017B01122FE889F98982E0808341151D
:102DE000514E61057105B1F060E079E08DE390E04E
:102DF000A70196010E94EB1CDA01C9010197A10904
:102E0000B109B695A79597958795AC01411580E1D5
:102E10005807A8F0E889F989108260E874E88EE123
:102E200090E0A70196010E94EB1CBA01A901415054
:102E30005109610971097695679557954795EC8514
:102E4000FD855083EE85FF854083188EEC89FD89D2
:102E50001083EA89FB89808180618083EA89FB890C
:102E6000808188608083EA89FB8980818068808393
:102E7000EA89FB8980818F7D8083DF91CF911F91CB
:102E8000FF90EF90DF90CF9008951F920F920FB6B2
:102E90000F9211242F938F939F93EF93FF93E091C1
:102EA0007C02F0917D028081E0918202F0918302A8
:102EB00082FD12C09081809185028F5F8F73209177
:102EC0008602821751F0E0918502F0E0E459FD4F4F
:102ED000958F8093850201C08081FF91EF919F9132
:102EE0008F912F910F900FBE0F901F9018951F92EA
:102EF0000F920FB60F9211242F933F934F935F932E
:102F00006F937F938F939F93AF93BF93EF93FF93B1
:102F10008CE692E00E945616FF91EF91BF91AF911F
:102F20009F918F917F916F915F914F913F912F91E1
:102F30000F900FBE0F901F9018958CE692E00E94A4
:102F40001A1621E0892B09F420E0822F0895ECE67F
:102F5000F2E01382128288EE93E0A0E0B0E0848376
:102F60009583A683B78389EC91E09183808385EC78
:102F700090E09587848784EC90E09787868780EC43
:102F800090E0918B808B81EC90E0938B828B82EC34
:102F900090E0958B848B86EC90E0978B868B118EDE
:102FA000128E138E148E089508950E946A1A0E943C
:102FB000D4170E946610C8E4D6E10E94C40E209780
:102FC000E1F30E944816F9CFCF92DF92EF92FF9281
:102FD0000F931F93CF93DF936C017A018B01C0E0B5
:102FE000D0E0CE15DF0589F0D8016D918D01D601B5
:102FF000ED91FC910190F081E02DC6010995892B9E
:1030000011F47E0102C02196ECCFC701DF91CF9170
:103010001F910F91FF90EF90DF90CF900895611571
:10302000710579F0FB0101900020E9F73197AF01BC
:10303000461B570BDC01ED91FC910280F381E02DE2
:10304000099480E090E00895EF92FF920F931F9310
:10305000CF93DF938C017B01C0E0D0E0F701EC0F50
:10306000FD1F6491662361F0D801ED91FC91019000
:10307000F081E02DC8010995892B11F02196EECF42
:10308000CE01DF91CF911F910F91FF90EF900895A6
:103090000C940F18DC01ED91FC910190F081E02D72
:1030A000099465ED71E00C940F180F931F93CF9363
:1030B000DF93EC010E9424188C01CE010E9451186C
:1030C000800F911FDF91CF911F910F9108950F9362
:1030D0001F93CF93DF93EC010E940F188C01CE0158
:1030E0000E945118800F911FDF91CF911F910F9176
:1030F00008954F925F926F927F92EF92FF920F939B
:103100001F93CF93DF93CDB7DEB7A1970FB6F89497
:10311000DEBF0FBECDBF7C01FA01CB0119A2223068
:1031200008F42AE08E010F5D1F4F422E512C612CB6
:10313000712CBF01A30192010E94EB1CF901CA018D
:10314000015011096A3014F4605D01C0695CD80156
:103150006C93232B242B252B61F7B801C7010E9408
:103160000F18A1960FB6F894DEBF0FBECDBFDF914A
:10317000CF911F910F91FF90EF907F906F905F9094
:103180004F900895CF92DF92EF92FF920F931F938B
:10319000CF93DF93EC016A017B012115310579F4AE
:1031A000E881F9810190F081E02D642FDF91CF91CA
:1031B0001F910F91FF90EF90DF90CF9009942A30EC
:1031C0003105E9F477FF1AC06DE20E944A188C01BC
:1031D00044275527BA014C195D096E097F092AE079
:1031E000CE010E947918800F911FDF91CF911F911E
:1031F0000F91FF90EF90DF90CF9008952AE0B701F4
:10320000A601CE01DF91CF911F910F91FF90EF901A
:10321000DF90CF900C9479189A01AB01770F660B71
:10322000770B0C94C2180F931F93CF93DF93EC018D
:103230009A01AB01770F660B770B0E94C2188C01C5
:10324000CE010E945118800F911FDF91CF911F91E5
:103250000F9108952115310541F4DC01ED91FC91A8
:103260000190F081E02D642F09940C9479189A0153
:10327000462F50E060E070E00C942A199A01AB01EF
:1032800060E070E00C942A1908958230E8F4E82F89
:10329000F0E0EE0FFF1FE45EFE4F7183608381302C
:1032A00041F0809169008C7F482B40936900E89A37
:1032B000089580916900440F551F440F551F837F67
:1032C000482B40936900E99A08951F920F920FB618
:1032D0000F9211242F933F934F935F936F937F939C
:1032E0008F939F93AF93BF93EF93FF93E0911C0154
:1032F000F0911D010995FF91EF91BF91AF919F91C1
:103300008F917F916F915F914F913F912F910F908E
:103310000FBE0F901F9018951F920F920FB60F922D
:1033200011242F933F934F935F936F937F938F93CA
:103330009F93AF93BF93EF93FF93E0911E01F091A2
:103340001F010995FF91EF91BF91AF919F918F91CF
:103350007F916F915F914F913F912F910F900FBE91
:103360000F901F9018951F920F920FB60F92112475
:103370002F933F938F939F93AF93BF9380910A03B3
:1033800090910B03A0910C03B0910D0330910903B0
:1033900023E0230F2D3720F40196A11DB11D05C098
:1033A00026E8230F0296A11DB11D209309038093E7
:1033B0000A0390930B03A0930C03B0930D03809129
:1033C0000E0390910F03A0911003B0911103019689
:1033D000A11DB11D80930E0390930F03A0931003C2
:1033E000B0931103BF91AF919F918F913F912F9116
:1033F0000F900FBE0F901F9018952FB7F894609103
:103400000A0370910B0380910C0390910D032FBF61
:1034100008953FB7F89480910E0390910F03A09107
:103420001003B091110326B5A89B05C02F3F19F0DA
:103430000196A11DB11D3FBFBA2FA92F982F882734
:10344000820F911DA11DB11DBC01CD0142E0660F8F
:10345000771F881F991F4A95D1F708958F929F92E1
:10346000AF92BF92CF92DF92EF92FF926B017C01FD
:103470000E94091A4B015C01C114D104E104F1045A
:1034800001F10E94331B0E94091ADC01CB0188194B
:103490009909AA09BB09883E9340A105B10560F3CB
:1034A00021E0C21AD108E108F10888EE880E83E015
:1034B000981EA11CB11CC114D104E104F10419F738
:1034C000DBCFFF90EF90DF90CF90BF90AF909F90B9
:1034D0008F900895789484B5826084BD84B58160AE
:1034E00084BD85B5826085BD85B5816085BDEEE60C
:1034F000F0E0808181608083E1E8F0E010828081EB
:1035000082608083808181608083E0E8F0E0808158
:1035100081608083E1EBF0E0808184608083E0EB78
:10352000F0E0808181608083EAE7F0E08081846060
:1035300080838081826080838081816080838081BC
:10354000806880831092C1000895833081F028F450
:10355000813099F08230A1F008958730A9F0883049
:10356000B9F08430D1F4809180008F7D03C08091C8
:1035700080008F7780938000089584B58F7702C094
:1035800084B58F7D84BD08958091B0008F7703C08E
:103590008091B0008F7D8093B0000895CF93DF932A
:1035A00090E0FC01E95BF94F2491FC01E55AF94FE9
:1035B0008491882361F190E0880F991FFC01ED57F9
:1035C000F94FC591D491FC01E758F94FA591B491F9
:1035D000611109C09FB7F894888120958223888360
:1035E000EC912E230BC0623061F49FB7F8943881C0
:1035F000822F809583238883EC912E2B2C939FBF61
:1036000006C08FB7F894E8812E2B28838FBFDF91F7
:10361000CF910895CF93DF93282F30E0F901ED5C2F
:10362000F94F8491F901E95BF94FD491F901E55A19
:10363000F94FC491CC2391F081110E94A51AEC2F6F
:10364000F0E0EE0FFF1FE159F94FA591B491EC9115
:10365000ED2381E090E021F480E002C080E090E082
:10366000DF91CF91089508950E94481B0C94301C5F
:103670000E94291C58F00E94221C40F029F45F3F50
:1036800029F00C94191C51110C94641C0C941F1CEF
:103690000E94411C68F39923B1F3552391F3951BC4
:1036A000550BBB27AA2762177307840738F09F5F63
:1036B0005F4F220F331F441FAA1FA9F335D00E2ED0
:1036C0003AF0E0E832D091505040E695001CCAF73D
:1036D0002BD0FE2F29D0660F771F881FBB1F261700
:1036E00037074807AB07B0E809F0BB0B802DBF01D7
:1036F000FF2793585F4F3AF09E3F510578F00C94A6
:10370000191C0C94641C5F3FE4F3983ED4F3869537
:1037100077956795B795F7959F5FC9F7880F911DC6
:103720009695879597F90895E1E0660F771F881FB2
:10373000BB1F621773078407BA0720F0621B730B65
:10374000840BBA0BEE1F88F7E09508950E94AD1B1D
:103750006894B1110C94641C08950E94491C88F06F
:103760009F5798F0B92F9927B751B0F0E1F0660F45
:10377000771F881F991F1AF0BA95C9F714C0B13086
:1037800091F00E94631CB1E008950C94631C672FB4
:10379000782F8827B85F39F0B93FCCF386957795B5
:1037A0006795B395D9F73EF490958095709561959E
:1037B0007F4F8F4F9F4F0895E89409C097FB3EF4C9
:1037C00090958095709561957F4F8F4F9F4F99236E
:1037D000A9F0F92F96E9BB279395F69587957795EC
:1037E0006795B795F111F8CFFAF4BB0F11F460FFAC
:1037F0001BC06F5F7F4F8F4F9F4F16C0882311F004
:1038000096E911C0772321F09EE8872F762F05C017
:10381000662371F096E8862F70E060E02AF09A95B2
:10382000660F771F881FDAF7880F9695879597F9A7
:10383000089597F99F6780E870E060E008959FEF32
:1038400080EC089500240A94161617061806090637
:10385000089500240A941216130614060506089506
:10386000092E0394000C11F4882352F0BB0F40F48E
:10387000BF2B11F460FF04C06F5F7F4F8F4F9F4FCE
:10388000089557FD9058440F551F59F05F3F71F050
:103890004795880F97FB991F61F09F3F79F08795B7
:1038A0000895121613061406551FF2CF4695F1DF40
:1038B00008C0161617061806991FF1CF86957105D0
:1038C000610508940895E894BB2766277727CB0104
:1038D00097F908950E947D1C0C94301C0E94221CB4
:1038E00038F00E94291C20F0952311F00C94191C2B
:1038F0000C941F1C11240C94641C0E94411C70F336
:10390000959FC1F3950F50E0551F629FF001729F84
:10391000BB27F00DB11D639FAA27F00DB11DAA1F93
:10392000649F6627B00DA11D661F829F2227B00DE0
:10393000A11D621F739FB00DA11D621F839FA00D6B
:10394000611D221F749F3327A00D611D231F849FBB
:10395000600D211D822F762F6A2F11249F57504012
:103960009AF0F1F088234AF0EE0FFF1FBB1F661F8D
:10397000771F881F91505040A9F79E3F510580F056
:103980000C94191C0C94641C5F3FE4F3983ED4F330
:10399000869577956795B795F795E7959F5FC1F7FA
:1039A000FE2B880F911D9695879597F90895AA1B70
:1039B000BB1B51E107C0AA1FBB1FA617B70710F01A
:1039C000A61BB70B881F991F5A95A9F7809590954C
:1039D000BC01CD010895A1E21A2EAA1BBB1BFD015B
:1039E0000DC0AA1FBB1FEE1FFF1FA217B307E407DE
:1039F000F50720F0A21BB30BE40BF50B661F771F36
:103A0000881F991F1A9469F7609570958095909515
:103A10009B01AC01BD01CF010895052E97FB1EF45B
:103A200000940E94241D57FD07D00E94EB1C07FC48
:103A300003D04EF40C94241D50954095309521955B
:103A40003F4F4F4F5F4F08959095809570956195CA
:103A50007F4F8F4F9F4F0895EE0FFF1F0590F491FA
:103A6000E02D0994CF93DF938230910510F482E02A
:103A700090E0E0911403F091150320E030E0C0E005
:103A8000D0E0309711F14081518148175907C0F0BB
:103A90004817590761F482819381209719F09B831D
:103AA0008A832BC0909315038093140326C021159D
:103AB000310519F04217530718F49A01BE01DF01CE
:103AC000EF010280F381E02DDCCF2115310509F1F2
:103AD000281B390B2430310590F412968D919C915E
:103AE00013976115710521F0FB019383828304C054
:103AF0009093150380931403FD01329644C0FD0199
:103B0000E20FF31F81939193225031092D933C933F
:103B10003AC02091120330911303232B41F42091DA
:103B2000020130910301309313032093120320917B
:103B30000001309101012115310541F42DB73EB747
:103B40004091040150910501241B350BE0911203B3
:103B5000F0911303E217F307A0F42E1B3F0B281775
:103B6000390778F0AC014E5F5F4F2417350748F0F6
:103B70004E0F5F1F50931303409312038193919351
:103B800002C0E0E0F0E0CF01DF91CF9108950F9304
:103B90001F93CF93DF93009709F48CC0FC013297F9
:103BA000138212820091140310911503011511055F
:103BB00081F420813181820F931F20911203309173
:103BC00013032817390779F5F0931303E0931203D1
:103BD00071C0D80140E050E0AE17BF0750F4129614
:103BE0002D913C911397AD012115310509F1D901B2
:103BF000F3CF9D01DA013383228360817181860FC7
:103C0000971F8217930769F4EC0128813981260FE9
:103C1000371F2E5F3F4F318320838A819B8193839F
:103C20008283452B29F4F0931503E093140342C0DB
:103C30001396FC93EE931297ED01499159919E01D1
:103C4000240F351FE217F30771F480819181840FEF
:103C5000951F029611969C938E9382819381139661
:103C60009C938E931297E0E0F0E0D80112968D912C
:103C70009C911397009719F0F8018C01F6CF8D9164
:103C80009C9198012E5F3F4F820F931F209112034A
:103C9000309113032817390769F4309729F41092EB
:103CA00015031092140302C013821282109313039F
:103CB00000931203DF91CF911F910F910895FB01A3
:103CC000DC0105900D920020E1F70895FB01DC0175
:103CD0004150504048F005900D920020C9F701C0B6
:103CE0001D9241505040E0F70895FB01DC01019026
:103CF0000D920020E1F70895FB01DC014150504096
:103D000048F001900D920020C9F701C01D9241506A
:103D10005040E0F70895F999FECF92BD81BDF89A21
:103D2000992780B50895262FF999FECF1FBA92BD25
:103D300081BD20BD0FB6F894FA9AF99A0FBE01968C
:063D40000895F894FFCF86
:103D46000000160380000100000080841E00FF06AC
:103D560001040001003200780001FF0144194419F2
:103D6600426561744475696E6F76657220312E30D6
:103D760062792057617272696F722E000A0A002FEB
:103D8600002D000400DB030400850303010000028C
:103D96000164030003000004011F031E0500001E4A
:103DA6000500001E0500001E0500001E050000029D
:103DB60005150303010000020115030200F1021EAE
:103DC6000E0000040FAC0200100000FF10000003FC
:103DD600109F02061000001E0E0000020E150305BD
:103DE600005D02021744020217150303172302029D
:103DF6001715030217150300000000000000002B32
:103E060013E417CD03000000009916E4171A1634C0
:103E160016261677160D0A006E616E00696E66002C
:043E26006F7666004D
:00000001FF
