:100000000C94DE040C94E41E0C940B1F0C94A1249D
:100010000C94A1240C94A1240C9406050C94671E46
:100020000C9406050C9406050C9406050C94060524
:100030000C9406050C94301A0C9406050C940605D5
:100040000C94321F0C9406050C9406050C940605BE
:100050000C9406050C9406050C9406050C940605F4
:100060000C948F220C9406053209810B7409810BC4
:100070007F098209BF09D409E609810B810B810B35
:10008000E909810BEC09580A810B770A970A810B61
:10009000810B810B810BC50A020BFF0C130D270D81
:1000A000340D4D0D7E0D9C0DA40DB40DBC0DDD0D5C
:1000B000F30D030E330E420E4A0E920EB20EBD0E1B
:1000C000CE0ED80EE00E140F550F5C0F670F730F96
:1000D0007553004369636C6F204D61783A00755326
:1000E000004369636C6F204D696E3A00755300439D
:1000F00069636C6F204163743A0056657273696F6F
:100100006E3A0062792057617272696F72004265BF
:1001100061744475696E6F002020487A00456C69EF
:10012000676520656C20736F6E69646F3A00456C7B
:10013000696765206C612063616E63696F6E3A0068
:100140005469706F20436F6D7061733A00202042D4
:10015000504D00456C69676520656C2074656D7055
:100160006F3A004E6F6D6272652063616E63696FF6
:100170006E3A00456C696765206C612063616E634F
:10018000696F6E3A00426F727261722063616E63D2
:10019000696F6E0043616E63696F6E206120696EE6
:1001A0007365727461723A00496E7365727461723C
:1001B00020646573707565732064653A00456C69E9
:1001C0006765206C612063616E63696F6E3A0050F1
:1001D0006F736963696F6E20612065646974617211
:1001E0003A00456C696765206C6120706F736963C4
:1001F000696F6E3A004E6F6D627265207265706550
:1002000072746F72696F3A00456C69676520726538
:10021000706572746F72696F3A00535441525400A2
:100220002042504D0A0A005354415254002042507B
:100230004D0A0A00420238024D6574726F6E6F6D8E
:100240006F005265706572746F72696F007A026C2C
:1002500002600255024D69646920436C6F636B0054
:10026000536F6E69646F205469636B005469636BEC
:100270007320696775616C6573004D6F646F008AE8
:10028000028802850231360038003400C202B4020E
:10029000A302940243616D6269617220436F6D70C5
:1002A00061730043616D62696172204469766973AC
:1002B000696F6E0043616D626961722054656D7093
:1002C0006F0043616D62696172204E6F6D6272658D
:1002D00000E602D502456C696D696E61722043616A
:1002E0006E63696F6E004564697461722043616E6C
:1002F00063696F6E00FC02F9025349004E4F0036ED
:1003000003250314030703566163696172204F726A
:1003100064656E00456C696D696E61722043616E43
:1003200063696F6E00496E73657274617220436118
:100330006E63696F6E0043616D62696172204F7216
:1003400064656E005603480343616D626961722003
:100350004F7264656E0043616D62696172204E6F19
:100360006D6272650091037F036B03456C696D6973
:100370006E6172205265706572746F72696F0045AC
:100380006469746172205265706572746F72696F0E
:100390000043616D62696172205265706572746FAD
:1003A00072696F00C303B903B103AC03496E666F92
:1003B00000416A75737465730043616E63696F6EA3
:1003C0006573005265706572746F72696F730000B7
:1003D000000000003FF000007FF80300E01C070071
:1003E000E01C0E00C30C7C00C30C9801C00E8401FD
:1003F000830644018006F4038307C003800380035F
:1004000003070003000F8007031F8006031D8006FB
:100410000339800E0371C00E03E0C00C0FC0C01C76
:100420001030E01C20106018400860184008603848
:100430007FF8703C0000F03FFFFFF07FFFFFF87F88
:10044000FFFFF87FFFFFF87FFFFFF87FFFFFF87FD8
:10045000FFFFF800000000003E5B4F5B3E3E6B4F2D
:100460006B3E1C3E7C3E1C183C7E3C181C577D5746
:100470001C1C5E7F5E1C00183C1800FFE7C3E7FFF2
:100480000018241800FFE7DBE7FF30483A060E2685
:1004900029792926407F050507407F05253F5A3CDD
:1004A000E73C5A7F3E1C1C08081C1C3E7F14227F20
:1004B00022145F5F005F5F06097F017F00668995F8
:1004C0006A606060606094A2FFA29408047E0408E1
:1004D00010207E201008082A1C08081C2A08081E64
:1004E000101010100C1E0C1E0C30383E3830060E4A
:1004F0003E0E06000000000000005F000000070044
:100500000700147F147F14242A7F2A1223130864FF
:100510006236495620500008070300001C224100A3
:100520000041221C002A1C7F1C2A08083E080800E3
:100530008070300008080808080000606000201083
:100540000804023E5149453E00427F40007249493D
:1005500049462141494D331814127F10274545451E
:10056000393C4A494931412111090736494949363F
:10057000464949291E0000140000004034000000D4
:100580000814224114141414140041221408020106
:100590005909063E415D594E7C1211127C7F494932
:1005A00049363E414141227F4141413E7F494949CF
:1005B000417F090909013E414151737F0808087FC5
:1005C00000417F41002040413F017F081422417FCC
:1005D000404040407F021C027F7F0408107F3E4164
:1005E00041413E7F090909063E4151215E7F0919BB
:1005F0002946264949493203017F01033F404040D3
:100600003F1F2040201F3F4038403F6314081463C1
:1006100003047804036159494D43007F414141027D
:1006200004081020004141417F04020102044040BF
:10063000404040000307080020545478407F28447D
:1006400044383844444428384444287F3854545467
:100650001800087E090218A4A49C787F0804047876
:1006600000447D40002040403D007F1028440000B1
:10067000417F40007C047804787C08040478384486
:10068000444438FC1824241818242418FC7C08043A
:100690000408485454542404043F44243C4040205B
:1006A0007C1C2040201C3C4030403C442810284406
:1006B0004C9090907C4464544C44000836410000B7
:1006C00000770000004136080002010204023C26C7
:1006D00023263C1EA1A161123A4040207A3854548E
:1006E0005559215555794122545478422155547811
:1006F0004020545579400C1E5272123955555559A7
:10070000395454545939555454580000457C4100CB
:1007100002457D420001457C407D1211127DF0288A
:100720002528F07C545545002054547C547C0A09FB
:100730007F4932494949323A4444443A324A484866
:10074000303A4141217A3A42402078009DA0A07D74
:100750003D4242423D3D4040403D3C24FF24244830
:100760007E4943662B2FFC2F2BFF0929F620C088DA
:100770007E090320545479410000447D41304848AB
:100780004A32384040227A007A0A0A727D0D1931C5
:100790007D2629292F28262929292630484D402021
:1007A000380808080808080808382F10C8ACBA2FFD
:1007B000102834FA00007B000008142A14222214A6
:1007C0002A1408AA005500AAAA55AA55AA00000092
:1007D000FF00101010FF00141414FF001010FF0091
:1007E000FF1010F010F0141414FC001414F700FFA4
:1007F0000000FF00FF1414F404FC141417101F1061
:10080000101F101F1414141F00101010F00000000F
:10081000001F101010101F10101010F0100000001A
:10082000FF101010101010101010FF10000000FF2B
:10083000140000FF00FF00001F10170000FC04F46C
:1008400014141710171414F404F40000FF00F71424
:10085000141414141414F700F714141417141010AB
:100860001F101F141414F4141010F010F000001FC7
:10087000101F0000001F14000000FC140000F01006
:10088000F01010FF10FF141414FF141010101F00AC
:10089000000000F010FFFFFFFFFFF0F0F0F0F0FFAE
:1008A000FFFF0000000000FFFF0F0F0F0F0F384485
:1008B000443844FC4A4A4A347E02020606027E025A
:1008C0007E0263554941633844443C04407E201E07
:1008D0002006027E020299A5E7A5991C2A492A1C36
:1008E0004C7201724C304A4D4D303048784830BC23
:1008F000625A463D3E494949007E0101017E2A2A4D
:100900002A2A2A44445F444440514A444040444ACD
:1009100051400000FF0103E080FF000008086B6BFE
:10092000083612362436060F090F06000018180084
:1009300000001010003040FF0101001F01011E00E7
:10094000191D1712003C3C3C3C00000000005661A1
:1009500063696F00564143494F00020000000800E0
:100960000201000003040700000000000000000175
:100970000204081020408001020408102001020433
:100980000810200404040404040404020202020205
:1009900002030303030303000000002300260029D1
:1009A0000000000000250028002B000000000024AB
:1009B0000027002A00005B07DF21670711241FBE04
:1009C000CFEFD8E0DEBFCDBF16E0A0E0B1E0E0E7BA
:1009D000F0E502C005900D92A433B107D9F728E0E5
:1009E000A4E3B6E001C01D92A330B207E1F714E022
:1009F000CDEDD4E004C02197FE010E948326CB3DBB
:100A0000D107C9F70E945A1A0C942B280C940000A5
:100A1000CF93DF9381E00E94B920EC0182E00E9435
:100A2000B9202091490630914A06C817D90719F410
:100A30002F5F3F4F02C02150310930934A06209367
:100A40004906DF91CF9108950C94152860E08DE060
:100A50000E9489208BE00E94511E10921301109277
:100A60001701109216010E947C1F60936E0670930E
:100A70006F0680937006909371060895CF92DF926F
:100A8000EF92FF920F931F93CF93DF93CDB7DEB713
:100A90006A970FB6F894DEBF0FBECDBF89E0E7E3DB
:100AA000F5E0DE011B9601900D928A95E1F787E053
:100AB000E0E4F5E0DE01549601900D928A95E1F7AD
:100AC0008AE0E7E4F5E0DE01119601900D928A9547
:100AD000E1F78BEA96E00E94F61661E08BEA96E079
:100AE0000E94551361E070E08BEA96E00E945B1370
:100AF00040E050E060E070E08BEA96E00E944F1327
:100B00008E01055F1F4F6E0184E1C80ED11C780174
:100B1000F80161918F018BEA96E00E94CF1A8BEA6F
:100B200096E00E948A1869E170E080E090E00E94FF
:100B3000AD1F0C151D0561F768EE73E080E090E0D5
:100B40000E94AD1F64E575E08BEA96E00E94CD1A25
:100B50006E01FBE1CF0ED11CF80161918F018BEA90
:100B600096E00E94CF1A8BEA96E00E948A1869E10B
:100B700070E080E090E00E94AD1F0C151D0561F74C
:100B800068EE73E080E090E00E94AD1F64E575E0E0
:100B90008BEA96E00E94CD1A8E010F5F1F4FF8017D
:100BA00061918F018BEA96E00E94CF1A8BEA96E062
:100BB0000E948A1869E170E080E090E00E94AD1F19
:100BC0000E151F0561F768EE73E080E090E00E946B
:100BD000AD1F82E0C82ED12C91E2E92EF12C00E26B
:100BE00010E02FEC33E044E150E06AE570E08BEA7E
:100BF00096E00E948B118BEA96E00E948A1868EEBC
:100C000073E080E090E06A960FB6F894DEBF0FBE06
:100C1000CDBFDF91CF911F910F91FF90EF90DF90AB
:100C2000CF900C94AD1F1F93CF93DF93182FEB0140
:100C30000E94B920892B71F58AE08C9FF0018D9F6D
:100C4000F00D1124E357F94F178216821382808129
:100C50004091100150911101811106C091E0248151
:100C600035812417350708F490E08AE08C9FF00165
:100C70008D9FF00D1124E357F94F92832481358124
:100C80002417350718F081E0808304C02F5F3F4FA1
:100C900035832483812F0E94B920019779F58AE05A
:100CA0008C9FF0018D9FF00D1124E357F94F1582B1
:100CB0001482118610861182128280812091100187
:100CC00030911101882339F081E046815781421724
:100CD000530708F480E09AE09C9FF0019D9FF00D7F
:100CE0001124E357F94F83838681978182179307F5
:100CF00010F0108203C00196978386838AE08C9F50
:100D0000F0018D9FF00D1124E357F94F8081882366
:100D100081F08085918501969187808720910E01D1
:100D200030910F018217930719F481E0818301C08C
:100D30001182DF91CF911F910895CF93DF9380911E
:100D40006B060E940D19EC01BC0187E796E00E943A
:100D5000FF27CE01DF91CF910C944C270F931F9367
:100D6000CF9360916C0680916B060E948219C82F08
:100D70000E9447198C01BC0180E896E00E94FF2781
:100D8000C8010E944C278C2F0E94921900E816E09F
:100D9000F80182878C2F0E949919F80183878C2F84
:100DA0000E94A419F8018487CF911F910F91089593
:100DB0008BEF91E00E9424058F3F11F08093210179
:100DC0008CEF91E00E9424058F3F31F091E081117A
:100DD00001C090E090936D068DEF91E00E94240594
:100DE0008F3F31F091E0811101C090E090934B066C
:100DF00008950FB6F894A89580916000886180935B
:100E00006000109260000FBE62E082E00E944D2000
:100E100062E081E00E944D2062E085E00E944D206A
:100E200062E083E00E944D2062E080E00E944D205D
:100E300061E08BE00E944D2061E08DE00E944D203A
:100E400061E084E00E944D2041E050E068E075E000
:100E500080E00E94C41E21E04DE362E08BEA96E050
:100E60000E94701742E15AE760E070E08CE496E07F
:100E70000E949F250E943E058BEA96E00E94F6168E
:100E800061E08BEA96E00E94551361E070E08BEA26
:100E900096E00E945B139FE088E10FB6F894A89556
:100EA000809360000FBE909360000E94D8060E945D
:100EB0009D060C94AE0664E08BEA96E00E94DD1677
:100EC00020E046E067E08CE496E00C9474258CE426
:100ED00096E00C941B25CF92DF92EF92FF92CF9376
:100EE000DF930E947C1FC0911A01D0911B01C0901A
:100EF0006E06D0906F06E0907006F09071069B0130
:100F0000AC012C193D094E095F0969017A019E0166
:100F100040E050E060917206709173068091740613
:100F2000909175060E944226C216D306E406F50685
:100F300038F181E08093130180911601909117019F
:100F40004091180150911901C49F9001C59F300D27
:100F5000D49F300D11248217930719F481E090E09B
:100F600001C0019690931701809316010E947C1F87
:100F700060936E0670936F0680937006909371066F
:100F800080911301882381F161E08DE00E94892026
:100F9000809116019091170120911C0130911D0143
:100FA00040E050E0019739F480916D06811103C053
:100FB0006AEB72E004C060911401709115018BE03E
:100FC0000E94C91B80914B06882329F068EF8CE4AE
:100FD00096E00E94DD2310921301DF91CF91FF90E4
:100FE000EF90DF90CF90089560E08DE0DF91CF919A
:100FF000FF90EF90DF90CF900C948920EF92FF92BA
:101000000F931F93CF93DF93CDB7DEB76E970FB6D5
:10101000F894DEBF0FBECDBF80917606882321F005
:10102000813009F405C1B0C380912101882321F0EA
:10103000813009F49FC0A8C38BEA96E00E94F6169F
:1010400040E050E060E070E08BEA96E00E944F13D1
:1010500040E050E061E070E08BEA96E00E946113AE
:1010600060916B0670E06F5F7F4F4AE050E08BEA63
:1010700096E00E94911B61E575E08BEA96E00E9484
:10108000CD1A67E776E08BEA96E00E94CD1A64E518
:1010900075E08BEA96E00E94CD1A60916C0670E0D4
:1010A0006F5F7F4F4AE050E08BEA96E00E94911B11
:1010B00061E575E08BEA96E00E94CD1A60E876E083
:1010C0008BEA96E00E94CD1A63E575E08BEA96E024
:1010D0000E94CD1A62E08BEA96E00E94551360915F
:1010E0001E0170911F014AE050E08BEA96E00E94D9
:1010F000C31B6DE272E08BEA96E00E94A91A61E0E0
:101100008BEA96E00E9455136091180170911901C5
:101110004AE050E08BEA96E00E94C31B66E575E06A
:101120008BEA96E00E94CD1A60911A0170911B0122
:10113000660F771F660F771F4AE050E08BEA96E054
:101140000E94C31B68E575E08BEA96E00E94CD1A09
:1011500080911201882319F067E272E064C06FE5A4
:1011600075E08BEA96E00E94CD1A8BEA96E00E9429
:101170008A180AC38BEA96E00E94F61640E050E017
:1011800060E070E08BEA96E00E944F1340E050E090
:1011900061E070E08BEA96E00E94611362E08BEA06
:1011A00096E00E94551360911E0170911F014AE064
:1011B00050E08BEA96E00E94C31B60E272E08BEA8B
:1011C00096E00E94A91A61E08BEA96E00E9455130E
:1011D00060911801709119014AE050E08BEA96E0A5
:1011E0000E94C31B66E575E08BEA96E00E94CD1A6B
:1011F00060911A0170911B01660F771F660F771FB0
:101200004AE050E08BEA96E00E94C31B68E575E077
:101210008BEA96E00E94CD1A80911201882309F48E
:101220009ECF6AE172E08BEA96E00E94A91A9DCFF8
:101230008BEA96E00E94F61640E050E060E070E035
:101240008BEA96E00E944F13E09148068E2F90E0C3
:10125000FC013297E931F10508F053C2EC5CFF4F15
:101260000C94832640E050E061E070E08BEA96E069
:101270000E94611368E072E08BEA96E00E94DA1A3D
:1012800000E010E08091470690E08017910729F474
:1012900041E050E060E070E004C040E050E061E018
:1012A00070E08BEA96E00E946113802F0E940D1976
:1012B0007C010F5F1F4F4AE050E0B8018BEA96E0D7
:1012C0000E94911B61E575E08BEA96E00E94CD1AC1
:1012D000B7018BEA96E00E94EC1AC7010E944C27E6
:1012E0000330110579F641CF40E050E061E070E055
:1012F0008BEA96E00E94611365EF71E077C062EEC1
:1013000071E03FC06FEC71E08BEA96E00E94DA1A60
:101310006091430680916B060E9482190E944719D2
:101320008C0190914306692F70E06F5F7F4F4AE018
:1013300050E08BEA96E00E94911B61E575E08BEA34
:1013400096E00E94CD1AB8018BEA96E00E94EC1A52
:1013500064E575E08BEA96E00E94EC1A6DEB71E0B3
:101360008BEA96E00E94DA1AC8010E944C2780910D
:1013700047060E9447198C0190914306EDC068EA28
:1013800071E08BEA96E00E94DA1A40E050E061E0FA
:1013900070E08BEA96E00E946113609147068091AD
:1013A0006B060E948219D3C064E971E08BEA96E073
:1013B0000E94DA1A809147060E9447198C01909189
:1013C0004306692F70E06E5F7F4FCAC065E871E029
:1013D000D8CF63E771E0B5C040E050E061E070E075
:1013E0008BEA96E00E94611363E671E08BEA96E077
:1013F0000E94DA1A8091490690914A061816190639
:101400003CF580914606E0914406F0914506E80FD0
:10141000F11D8081811102C080E2808380914606A7
:10142000E0914406F0914506E80FF11D80818A376E
:1014300011F488ED808380914606E0914406F09196
:101440004506E80FF11D80818A3710F48F5F808395
:101450008091490690914A0697FF11C080914606F7
:10146000E0914406F0914506E80FF11D8081883D2A
:1014700011F48AE703C0813210F0815080836091BB
:101480004406709145068BEA96E00E94EC1A609142
:10149000460686E0689FB001112401E010E026E0D6
:1014A00030E04FE050E08BEA96E00E9472135DCE90
:1014B00040E050E061E070E08BEA96E00E9461134A
:1014C00063E571E08BEA96E00E94DA1A64E575E064
:1014D0008BEA96E00E94EC1A4AE050E060914706E1
:1014E0008BEA96E00E94BC1B6DE471E005C140E010
:1014F00050E061E070E08BEA96E00E94611360E4E6
:1015000071E08BEA96E00E94DA1A64E575E08BEAF6
:1015100096E00E94EC1A6091470670E06E5F7F4F84
:101520004AE050E08BEA96E00E94981B1ECE40E015
:1015300050E061E070E08BEA96E00E9461136EE299
:1015400071E08BEA96E00E94DA1A809147060E94C9
:1015500047198C0190914706692F70E06F5F7F4FAC
:101560004AE050E08BEA96E00E94911B61E575E04D
:101570008BEA96E00E94CD1AB8018BEA96E00E94B1
:10158000EC1AC8010E944C27F0CD80914906909139
:101590004A061816190634F48091410690914206C5
:1015A000019607C0892B69F080914106909142060F
:1015B0000197909342068093410690931501809382
:1015C000140140E050E061E070E08BEA96E00E9498
:1015D00061136DE171E08BEA96E00E94DA1A64E52E
:1015E00075E08BEA96E00E94EC1A609141067091DA
:1015F00042064AE050E08BEA96E00E94911B68E1C7
:1016000071E07AC040E050E061E070E08BEA96E083
:101610000E9461136EE071E08BEA96E00E94DA1A94
:1016200063E071E08BEA96E00E94DA1A6AEF70E0FC
:101630008BEA96E00E94A91A4AE050E061E070E06F
:101640008BEA96E00E94911B61E575E08BEA96E0DB
:101650000E94CD1A4AE050E060E070E08BEA96E02C
:101660000E94981B6FEE70E08BEA96E00E94A91A28
:10167000409138065091390660913A0670913B06C8
:101680002AE030E08BEA96E00E94AF1B6CEE70E03F
:101690008BEA96E00E94DA1A61EE70E08BEA96E03F
:1016A0000E94A91A40910A0150910B0160910C010E
:1016B00070910D012AE030E08BEA96E00E94AF1BAA
:1016C0006EED70E08BEA96E00E94DA1A63ED70E04E
:1016D0008BEA96E00E94A91A409134065091350693
:1016E00060913606709137062AE030E08BEA96E08A
:1016F0000E94AF1B60ED70E08BEA96E00E94DA1A60
:1017000034CD00E010E0E091480684E0E89FF0016D
:101710001124EC59FA4F808190E0081719070CF05A
:1017200024CD8091470690E08017910729F441E08D
:1017300050E060E070E004C040E050E061E070E044
:101740008BEA96E00E946113E091480684E0E89FEE
:10175000F0011124EC59FA4FC801880F991F02803B
:10176000F381E02DE80FF91F65917491CE01019688
:101770000E94E927BE016F5F7F4F8BEA96E00E94CF
:10178000EC1A0F5F1F4FBFCF6E960FB6F894DEBFF7
:101790000FBECDBFDF91CF911F910F91FF90EF90C2
:1017A0000895FF920F931F93CF93DF93CDB7DEB7CA
:1017B0002A970FB6F894DEBF0FBECDBF0E94881FD8
:1017C00060933C0670933D0680933E0690933F06DF
:1017D00060E070E085E090E00E94130661E070E058
:1017E00083E090E00E94130662E070E080E090E009
:1017F0000E94130680919906882309F1809176064C
:10180000813099F4E0914806E11103C01092760608
:1018100013C084E0E89FF0011124EC59FA4F818154
:10182000809348061092470607C081E080937606B1
:10183000109247061092480681E080932001809123
:101840007606882321F0813009F491C068C3F090B6
:101850002101FF2029F081E0F81609F45BC05FC385
:101860008091490690914A061816190664F48091F1
:101870006C068D3140F48F5F80936C060E94AE063B
:1018800081E0809320018091490690914A0697FF5C
:101890000CC080916C06882341F0815080936C06C7
:1018A0000E94AE0681E08093200120918A06822F5B
:1018B00090E090931F0180931E0180918B0690E031
:1018C00090931B0180931A0180918C0690E0909375
:1018D00019018093180130E040E050E060E67AEEB4
:1018E00080E090E00E946426209372063093730695
:1018F000409374065093750680918F06882309F4EF
:101900000EC38091120191E0892780931201909378
:10191000200105C30091490610914A0620911E013D
:1019200030911F01200F311F30931F0120931E01A2
:1019300040E050E060E67AEE80E090E00E946426AD
:101940002093720630937306409374065093750685
:1019500080918F06882339F0809112018F25809322
:101960001201F0922001012B09F4D9C2D5C2809155
:10197000490690914A0618161906E4F42091470684
:10198000422F50E0E091480684E0E89FF0011124E6
:10199000EC59FA4F808190E001974817590724F4D9
:1019A0002F5F2093470602C01092470681E0809384
:1019B000200113C0892B89F080914706811109C04D
:1019C000E091480684E0E89FF0011124EC59FA4FB9
:1019D0008081815080934706E9CF8091A3068823B8
:1019E00009F49DC2E09148068E2F90E08B3191055D
:1019F00008F092C2FC01E35BFF4F0C9483268091B8
:101A00004706813061F038F0823009F468C28330D3
:101A100009F447C281C21092470681E07BC210924E
:101A200047068DE077C280914706813061F038F03B
:101A3000823009F071C2109247068CE06BC210929E
:101A4000470682E067C21092470683E063C2809136
:101A5000470680936B0610926C060E949D060E94BA
:101A6000AE061092760658C280914706882339F058
:101A7000813009F051C21092470685E04BC21092A6
:101A8000470684E08093480680916B060E940D19FA
:101A900090934506809344062EC080914606E091BF
:101AA0004406F0914506E80FF11D9081983DE9F458
:101AB0001082609144067091450680916B060E94E9
:101AC000CB1980914406909145060E944C27E091E5
:101AD000480684E0E89FF0011124EC59FA4F818117
:101AE0008093480610924706B0C0883020F436C173
:101AF0008A3008F433C1109246060EC28091470620
:101B0000813071F048F0823079F0833009F004C2FE
:101B1000109247068BE0FEC11092470686E007C090
:101B20001092470688E003C0109247068AE080932F
:101B3000480610924306F0C1809147068093430601
:101B40001092470687E0E6C1409147066091430640
:101B500080916B060E94ED198091430680934706A1
:101B60001092430686E05BC180914706809343064E
:101B70001092470689E0CEC10DE110E06091430666
:101B8000862F90E00196801791077CF46FEF600F2D
:101B900080916B060E948219482F602F80916B06FE
:101BA0000E94ED1901501109E9CF6F5F409147067E
:101BB00080916B060E94ED19DBC00091470610E092
:101BC0000D3111050CF0D4C061E0600F80916B06FF
:101BD0000E948219482F602F80916B060E94ED1998
:101BE0000F5F1F4FEDCF80914706813009F00CC188
:101BF00010E04FEF612F80916B060E94ED191F5F7F
:101C00001E31B9F701C180914706813009F18FEF8C
:101C1000898348E050E0BE016F5F7F4FCB010E9497
:101C20000628BE016F5F7F4F80916B060E94CB1923
:101C300010924706E091480684E0E89FF0011124E5
:101C4000EC59FA4F8181809348060E949D0664C139
:101C500010E04FEF612F80916B060E94ED191F5F1E
:101C60001E31B9F7D4CF80914706882339F08130EF
:101C700009F052C11092470684E14CC11092470608
:101C80008EE048C180914706809340061092470637
:101C90008FE040C1109147061130F9F080F012300A
:101CA00031F1133009F038C183E180934806809107
:101CB00040060E94A41980934306825030C01092BF
:101CC000470680E180934806809140060E944719AC
:101CD00090934506809344061FC181E18093480696
:101CE000809140060E9492198093430618C082E1B9
:101CF00080934806809140060E949919809343067C
:101D0000823041F0843041F0813009F005C11092F9
:101D1000470602C181E003C010934706FDC08093CF
:101D20004706FAC080914606E0914406F0914506C8
:101D3000E80FF11D9081983D09F0DACE1082609194
:101D4000440670914506809140060E94FB198091DF
:101D50004406909145060E944C2756C08F5F8093A1
:101D60004606DAC060914706809140060E941B1A21
:101D7000109247061092430649C080914706813071
:101D800039F020F0823089F464E003C061E001C0E2
:101D900062E0809140060E94221A07C060914706C7
:101DA0006E5F809140060E94291A109243062CC053
:101DB00080914706809340061092470685E1AAC0AD
:101DC00080914706813001F58FEF89834AE050E02A
:101DD000BE016F5F7F4FCB010E940628BE016F5F7F
:101DE0007F4F809140060E94FB196FEF8091400663
:101DF0000E941B1A6FEF809140060E94221A6FEF1B
:101E0000809140060E94291A10924706E0914806E8
:101E100084E0E89FF0011124EC59FA4F818180930E
:101E200048060E94AE0678C0809147068130A9F02E
:101E300028F0823009F1833049F16EC08BEF91E0D8
:101E40000E942405809343068F3F19F08093470634
:101E500002C01092470687E15DC08CEF91E00E94BE
:101E60002405809343068F3F19F08093470602C0F4
:101E70001092470688E14EC080911401909115019F
:101E8000909342068093410689E144C08DEF91E032
:101E90000E942405809343068F3F19F080934706E4
:101EA00002C0109247068AE135C0609147066093F0
:101EB00021018BEF91E021C061E080914706811103
:101EC00001C060E060936D068CEF91E016C08091D8
:101ED000410690914206909315018093140110924F
:101EE000470686E117C061E080914706811101C075
:101EF00060E060934B068DEF91E00E94AF19109265
:101F00004706E091480684E0E89FF0011124EC596F
:101F1000FA4F81818093480681E08093200180916F
:101F20001201882319F00E946B0702C00E94260547
:101F300080912001882321F00E94FE071092200149
:101F40000E94881F00913C0610913D0620913E069C
:101F500030913F06DC01CB01801B910BA20BB30B30
:101F60008093380690933906A0933A06B0933B06C7
:101F700000913406109135062091360630913706CF
:101F8000081719072A073B0740F4809334069093FB
:101F90003506A0933606B093370600910A011091DA
:101FA0000B0120910C0130910D0180179107A207C0
:101FB000B30740F480930A0190930B01A0930C01A6
:101FC000B0930D0110924A0610924906A8952A96E0
:101FD0000FB6F894DEBF0FBECDBFDF91CF911F913A
:101FE0000F91FF9008952F923F924F925F926F92C0
:101FF0007F928F929F92AF92BF92CF92DF92EF9299
:10200000FF920F931F93CF93DF9300D01F92CDB712
:10201000DEB74C017B836A836A015901170198017D
:10202000241B350B37FF03C0319521953109C501BC
:102030004A815B81841B950B97FF03C09195819525
:10204000910951E059838217930714F019820BC04C
:102050009A2D8B2D5801092F182F9A818B81DB82A5
:10206000CA82C92ED82E8A819B81A816B9065CF433
:102070009C2D8D2D6801092F182F9A818B81BB8291
:10208000AA82A92EB82E2501AA81BB814A1A5B0A11
:1020900038016C187D0877FE03C071946194710853
:1020A000720157FE03C0BFEFEB1AFB0AF594E794E9
:1020B000C016D1061CF00FEF1FEF1FC001E010E0AB
:1020C0001CC0D401ED91FC91B9810480F581E02D13
:1020D0009101BB23C1F04A815B81B601C40109951E
:1020E000E618F708F7FE04C0C00ED11EE40CF51C7C
:1020F000EA81FB813196FB83EA834A815B81A416E6
:10210000B506FCF604C0A6016A817B81E7CF0F907B
:102110000F900F90DF91CF911F910F91FF90EF9053
:10212000DF90CF90BF90AF909F908F907F906F90F7
:102130005F904F903F902F9008956F927F928F9273
:102140009F92AF92BF92CF92DF92EF92FF920F9346
:102150001F93CF93DF93EC014B015A0169013801C2
:10216000E881F9810284F385E02D87010995E881F2
:10217000F981A501460D571D415051090284F3858F
:10218000E02D9601B401CE010995E881F981008422
:10219000F185E02D9301A501B401CE010995E881F7
:1021A000F981C80CD91CB601615071090084F18510
:1021B000E02D9301A501CE010995DF91CF911F91EB
:1021C0000F91FF90EF90DF90CF90BF90AF909F90D6
:1021D0008F907F906F900895EF92FF920F931F93CF
:1021E0007801DC01ED91FC91240F351F890101502C
:1021F00011090680F781E02D9B0109951F910F9130
:10220000FF90EF900895EF92FF920F931F93DC01E0
:10221000ED91FC91260F371F215031090680F7817F
:10222000E02D78018A0109951F910F91FF90EF90A1
:1022300008956F927F928F929F92AF92BF92CF92AA
:10224000DF92EF92FF920F931F93CF93DF936C0176
:102250005A014801EB013B01620E731EC615D705FA
:1022600074F4D601ED91FC910084F185E02D870195
:102270009401A501BE01C60109952196EFCFDF911A
:10228000CF911F910F91FF90EF90DF90CF90BF9073
:10229000AF909F908F907F906F900895EF92FF92F4
:1022A0000F931F93DC01ED91FC9111971A960D91FC
:1022B0001C911B9718962D913C9119970684F785D0
:1022C000E02D7B0140E050E060E070E009951F9157
:1022D0000F91FF90EF9008950895FC0113821282F0
:1022E00088ED95E09183808375836483578346836B
:1022F0007187608753874287158A158614861786EB
:10230000168681E0848B2FEF3FEF338B228B318B4E
:10231000208B868B08952F923F924F925F926F92FF
:102320007F928F929F92AF92BF92CF92DF92EF9265
:10233000FF920F931F93CF93DF93CDB7DEB728970C
:102340000FB6F894DEBF0FBECDBF4C011B012A01B2
:102350003901FC82EB82C801079697FD07969C0124
:1023600093E0359527959A95E1F73A832983A12C37
:10237000B12CE12CF12CEB81FC81EE16FF060CF068
:1023800047C018861F829701240D351D3E832D837B
:102390008F819885801791079CF5EF81F885F7FD6F
:1023A000379683E0F595E7958A95E1F7EA0DFB1DF1
:1023B000E60DF71DE491F0E08F81988587709927ED
:1023C000A0E8B0E002C0B595A7958A95E2F7EA23A8
:1023D000FB23EF2B79F0D401ED91FC910480F58182
:1023E000E02D96014D815E816F817885620D731DB0
:1023F000C4010995EF81F8853196F887EF83C8CF3E
:102400009FEFE91AF90AA981BA81AA0EBB1EB3CFC0
:1024100028960FB6F894DEBF0FBECDBFDF91CF91E7
:102420001F910F91FF90EF90DF90CF90BF90AF90F2
:102430009F908F907F906F905F904F903F902F90E4
:1024400008952F923F924F925F926F927F928F9258
:102450009F92AF92BF92CF92DF92EF92FF920F9333
:102460001F93CF93DF93CDB7DEB72D970FB6F894B8
:10247000DEBF0FBECDBFDC011896ED91FC91199720
:102480006E177F070CF09CC01A96ED91FC911B977C
:102490004E175F070CF094C08C2C912CFB01B6E01A
:1024A000CB9EE00DF11D11241E161F060CF088C0F6
:1024B000F40133E0EE0FFF1F3A95E1F7E40FF51F4B
:1024C0001E161F060CF07CC0CF82FE82ED821C839C
:1024D0000B831A015C01E5E02E9F900111247D879A
:1024E0006C873B011A82A901461B570B5987488705
:1024F000C10108969B878A879A81953049F0E885C3
:10250000F985E60DF71DED5AFB4FA491A98301C093
:10251000198221016101B981B0FF12C0D501ED918D
:10252000FC91BF81B13031F40480F581E02D2B8125
:102530003C8118C00684F785E02DEB80FC801CC030
:10254000ED81FE812B813C81E217F307E1F0D5019B
:10255000ED91FC91BF81B13051F40480F581E02D03
:102560002D813E81A201B301C50109950CC00684ED
:10257000F785E02DED80FE8084019401A6016C8535
:102580007D85C5010995E981E695E983FFEF4F1A3D
:102590005F0AC80CD91C2A853B854216530609F0F0
:1025A000BACF3A813F5F3A834FEF641A740A8C8541
:1025B0009D85880D991D9D878C87363009F09CCFAD
:1025C0002D960FB6F894DEBF0FBECDBFDF91CF9131
:1025D0001F910F91FF90EF90DF90CF90BF90AF9041
:1025E0009F908F907F906F905F904F903F902F9033
:1025F0000895CF92EF92FF920F931F93CF93DF93A3
:10260000EC016A3059F42C898E859F8538E0239F30
:10261000800D911D11249F878E8735C06D30A9F1E3
:10262000262FEA88FB88088919894E855F856C8585
:102630007D85CC880E9421124C89242F30E08C8526
:102640009D8556E0459F800D911D11249D878C87A7
:102650004E894423D1F04AEF4203B001439F700DED
:10266000112448855985460F571F481759076CF4A0
:1026700083E0220F331F8A95E1F78E859F85280F0F
:10268000391F3F872E871D861C8681E090E0DF91F1
:10269000CF911F910F91FF90EF90CF900895FC0183
:1026A00075876487578746870895611101C061E087
:1026B000FC01648B0895FC01738B628B718B608BC2
:1026C0000895FC01718B608B538B428B0895FC0144
:1026D00085890895FC01808591850895FC01828596
:1026E000938508950F931F93CF93DF93DC01FB0134
:1026F00055968C915597823089F0833021F1813045
:1027000009F0E6C014968D919C911597BC01641B4D
:10271000750BAB0141505109BF011DC014966D915D
:102720007C911597CB018E1B9F0BFC0116968D910A
:102730009C911797BC01641B750BAB01415051096B
:10274000E21BF30BC5C016966D917C9117976E1B1B
:102750007F0B621B730B57FD1AC114968D919C91D0
:102760001597481759070CF012C177FF04C0260FC0
:10277000371F60E070E016968D919C911797FB01D2
:10278000E20FF31F8E179F071CF49C01261B370BCB
:10279000121613060CF0FBC0A22F862F8695869585
:1027A000869590E8899F400D511D1124FA01EE5C39
:1027B000FE4F6770A9F198E0961B492F50E0EA019F
:1027C000C65DDE4F8881291790F4421B51092FEF17
:1027D00030E002C0359527954A95E2F78223013013
:1027E000110541F068F00230110589F0D0C00130C8
:1027F000110519F42081822B0CC00130110520F441
:1028000080952081822305C00230110531F420819A
:1028100082278083A91708F4BAC0A91BE058FF4F8C
:10282000A83048F10230110559F4EF018A2F988140
:1028300090959883C058DF4F88508830C0F732C0D9
:1028400081E00130110509F080E08195EF019A2FB8
:102850008883C058DF4F98509830D0F788EF8A0FA0
:1028600086958695869560E8869FE00DF11D11247A
:10287000E058FF4FA770AA2309F489C0B0E0AE5D0D
:10288000BE4F8C910130110529F038F0023011054E
:10289000E1F07DC09081892B03C0809590818923D0
:1028A000808375C088EF8A0F86958695869570E837
:1028B000879FE00DF11D1124E058FF4FA77009F428
:1028C00066C0B0E0AE5DBE4F8C9190818927E8CFA5
:1028D00057FD5DC016968D919C9117974817590723
:1028E0000CF055C0F7FF04C02E0F3F1FE0E0F0E0F2
:1028F00014968D919C911597BF01620F731F8617D7
:1029000097071CF49C012E1B3F0B121613060CF0AC
:102910003EC0CA0157FD079663E0959587956A9575
:10292000E1F79695982F882797958795E80FF91FD7
:10293000EE5CFE4F4770552781E090E001C0880FA4
:102940004A95EAF7482F0130110539F078F0023046
:102950001105E9F42E0F3F1F13C02E0F3F1FE21782
:10296000F307A9F08081842B8193F9CF80952E0FF6
:102970003F1FE217F30759F0908198239193F9CF05
:10298000E217F30721F0808184278193F9CFDF914B
:10299000CF911F910F9108950F931F93CF93DF93C2
:1029A000DC0155968C915597823071F0833009F196
:1029B000813009F08CC01496ED91FC911597E41BC1
:1029C000F50BE21BF30B20C01496ED91FC911597CB
:1029D000CF01861B970BBC01615071091696ED91D2
:1029E000FC911797CF01841B950BAC01421B530B35
:1029F0006EC01696ED91FC911797CF01861B970B31
:102A0000BC0161507109FA0177FD1BC116968D91C9
:102A10009C911797681779070CF013C1F7FF04C052
:102A20002E0F3F1FE0E0F0E014968D919C911597DA
:102A3000AF01420F531F841795071CF49C012E1BF6
:102A40003F0B121613060CF0FCC0CB0177FD079666
:102A500043E0959587954A95E1F79695982F8827B5
:102A600097958795E80FF91FEE5CFE4F6770772703
:102A700081E090E001C0880F6A95EAF7482F0130A5
:102A8000110541F088F00230110509F0DAC02E0F6F
:102A90003F1F15C02E0F3F1FE217F30709F4D1C0E7
:102AA0008081842B8193F8CF80952E0F3F1FE217F2
:102AB000F30709F4C6C0908198239193F8CFE217E9
:102AC000F30709F4BEC0808184278193F8CF77FD96
:102AD000B8C014968D919C911597681779070CF0E2
:102AE000B0C057FF04C0240F351F40E050E01696D9
:102AF0008D919C911797FA01E20FF31F8E179F0794
:102B00001CF49C01241B350B121613060CF099C003
:102B1000A22F842F86958695869590E8899F600DD3
:102B2000711D1124FB01EE5CFE4F4770A9F198E086
:102B3000941B492F50E0EA01C65DDE4F88812917BA
:102B400090F4421B51092FEF30E002C035952795D4
:102B50004A95E2F782230130110541F068F0023016
:102B6000110589F06EC00130110519F42081822B06
:102B70000CC00130110520F480952081822305C00E
:102B80000230110531F4208182278083A91708F4CF
:102B900058C0A91BE058FF4FA83048F1023011057A
:102BA00059F4EF018A2F988190959883C058DF4F90
:102BB00088508830C0F730C081E00130110509F03D
:102BC00080E08195EF019A2F8883C058DF4F98509D
:102BD0009830D0F788EF8A0F86958695869590E88D
:102BE000899FE00DF11D1124E058FF4FA770AA2323
:102BF00041F1B0E0AE5DBE4F8C910130110529F07E
:102C000038F002301105D1F01CC09081892B18C01A
:102C100080959081892314C088EF8A0F86958695C8
:102C2000869590E8899FE00DF11D1124E058FF4F33
:102C3000A77039F0B0E0AE5DBE4F8C9190818927CE
:102C40008083DF91CF911F910F910895CF92DF92F2
:102C5000EF92FF920F931F93CF93DF937C018B0131
:102C6000EA01690177FDA0C00E946A1308171907DD
:102C70000CF09AC0D7FD98C0C7010E946E13C81708
:102C8000D9070CF091C0C7010E946713823009F088
:102C90007FC0F70164817581CB01801B910B8C0192
:102CA0000150110946815781FA01EC1BFD0BEF0120
:102CB00021970BC0813049F4F701848195818C1BE9
:102CC0009D0BE8018C0101501109F1E0CF16D104F0
:102CD00031F010F182E0C816D104E1F165C0FE01C7
:102CE000D7FD379643E0F595E7954A95E1F7F695D8
:102CF000FE2FEE27F795E7950E0F1F1FF801EE5CEC
:102D0000FE4FC770DD2781E090E001C0880FCA95B3
:102D1000EAF79081892B3AC0FE01D7FD379623E070
:102D2000F595E7952A95E1F7F695FE2FEE27F795AD
:102D3000E7950E0F1F1FF801EE5CFE4FC770DD27F1
:102D400081E090E001C0880FCA95EAF780959081F4
:102D500089231CC0FE01D7FD379683E0F595E795E2
:102D60008A95E1F7F695FE2FEE27F795E7950E0F7A
:102D70001F1FF801EE5CFE4FC770DD2781E090E079
:102D800001C0880FCA95EAF79081892780830CC01B
:102D9000833009F08FCFF70186819781801B910BDB
:102DA0008E01EC01219791CFDF91CF911F910F916F
:102DB000FF90EF90DF90CF9008951F93CF93DF9314
:102DC000EC01162F40E450E060E870E00E946D11C5
:102DD00080EF95E0998388838FEF898F8D8F8B8F1C
:102DE0008A8F1C8FDF91CF911F91089580E094E02E
:102DF000E2E3F1E0DF019C011D9221503040E1F758
:102E00000895FC01868D882339F06EBD00000DB455
:102E100007FEFDCF8EB5089528E030E090E8A1A12F
:102E2000B2A14C9180A5809584238C93A78DB0A1ED
:102E300087A1492F462319F04C91842B03C04C9154
:102E4000809584238C93A1A1B2A14C9180A5842B61
:102E50008C9396952150310911F708951F93CF93C4
:102E6000DF93EC01162F898D8F3F09F1EBA1FCA1B7
:102E7000908189A5892B8083EDA1FEA190818AA5EF
:102E8000809589238083EBA1FCA1908189A5809501
:102E900089238083CE010E940117EBA1FCA19081C0
:102EA00089A5892B8083DF91CF911F9108958F8908
:102EB000682F880F770B8BEF96E00E94C72160E0A8
:102EC0008BEF96E00E947421612F8BEF96E00E94B9
:102ED00074218BEF96E0DF91CF911F910C94DC2150
:102EE0000F931F93CF93DF93EC01162F022F688F60
:102EF0004F8B898D8F3F09F477C061E08B8D0E94E5
:102F00004D2061E08D8D0E944D208D8D082E000C8E
:102F1000990BFC01ED57F64FE491F0E0EE0FFF1F27
:102F2000EF55F64F259134913CA32BA3FC01E159B9
:102F3000F64FE491E9A78B8D082E000C990BFC014C
:102F4000ED57F64FE491F0E0EE0FFF1FEF55F64F0F
:102F5000259134913EA32DA3FC01E159F64FE49154
:102F6000EAA78E8D811134C061E0898D0E944D20C9
:102F700061E08A8D0E944D208A8D082E000C990BED
:102F8000FC01ED57F64FE491F0E0EE0FFF1FEF5517
:102F9000F64F259134913AA329A3FC01E159F64F4C
:102FA000E491E8A7898D082E000C990BFC01ED57E0
:102FB000F64FE491F0E0EE0FFF1FEF55F64F25912D
:102FC000349138A32F8FFC01E159F64FE491EFA320
:102FD0008E8D882369F00E94E2208CB58C7F8CBD99
:102FE0008DB581608DBD04C08BEF96E00E94B3214A
:102FF0000023E1F061E08C8D0E944D2061E08C8D1A
:103000000E94892061E070E080E090E00E94AD1FA6
:1030100060E08C8D0E9489206AE070E080E090E0A2
:103020000E94AD1F61E08C8D0E9489206EEACE0166
:103030000E942E1765EDCE010E942E1760E8CE018A
:103040000E942E1768EACE010E942E176FE3CE0170
:103050000E942E1763EDCE010E942E1760E0CE0174
:103060000E942E1760E4CE010E942E176DE8CE015B
:103070000E942E17113011F460E101C064E1CE010D
:103080000E942E1760E2CE010E942E1760E0CE0152
:103090000E942E1761EACE010E942E1768ECCE0125
:1030A0000E942E176AEDCE010E942E1762E1CE011A
:1030B0000E942E1761E8CE010E942E17113011F4E4
:1030C0006FE901C06FECCE010E942E1769EDCE01B1
:1030D0000E942E17113011F462E201C061EFCE019F
:1030E0000E942E176BEDCE010E942E1760E4CE01D8
:1030F0000E942E1764EACE010E942E1766EACE01C6
:103100000E942E176FEACE01DF91CF911F910F9190
:103110000C942E17DF92EF92FF920F931F93CF9391
:10312000DF93EC0161E20E942E1760E0CE010E9465
:103130002E176FE7CE010E942E1762E2CE010E9489
:103140002E1760E0CE010E942E1767E0CE010E948C
:103150002E17898D8F3F31F1EBA1FCA1908189A5BC
:10316000892B8083EDA1FEA190818AA5892B808384
:10317000EBA1FCA1908189A580958923808302E33E
:1031800011E0F80161918F01CE010E940117F5E075
:1031900002331F07B1F7EBA1FCA1908189A5892B10
:1031A000808331C0D090B8008CE08093B80002E3F7
:1031B00011E06F89062E000C770B8BEF96E00E94D2
:1031C000C72160E48BEF96E00E947421E12CF12C82
:1031D000F801EE0DFF1D60818BEF96E00E947421D7
:1031E0008FEFE81AF80AE0E1EE16F10489F78BEFA9
:1031F00096E00E94DC21005F1F4FF5E002331F07BD
:10320000C1F6D092B800DF91CF911F910F91FF903E
:10321000EF90DF9008950C941528CF92DF92EF92F3
:10322000FF920F931F93CF93DF93C82F88E090E016
:103230000E94B7268C0186E2C89FE0011124CA577C
:10324000DE4FCE010E940B198F3F41F448E050E061
:1032500064E579E0C8010E94F0270FC07801680199
:10326000E8E0CE0ED11CCE010E940B19F70181932C
:103270007F012196EC15FD05B1F7C801DF91CF91D3
:103280001F910F91FF90EF90DF90CF900895CF9214
:10329000DF92EF92FF920F931F93CF93DF93C82F8C
:1032A0008AE090E00E94B7268C018DE0C89FE00183
:1032B0001124CE010E940B198F3F41F44AE050E0E7
:1032C0006EE479E0C8010E94F02712C06801EAE0CC
:1032D000CE0ED11C7801C01BD10BCE018E0D9F1DCF
:1032E0000E940B19F70181937F01EC15FD05A9F7E9
:1032F000C801DF91CF911F910F91FF90EF90DF9068
:10330000CF90089570E062577E4F9B0146E2849F04
:10331000200D311D1124C9010E940B198F3F09F4A2
:1033200080E008952DE0829FC00111240A960C943C
:103330000B192DE0829FC00111240B960E940B19DE
:103340008F3F09F481E008952DE0829FC001112490
:103350000C960E940B198F3F09F484E008950F9397
:103360001F93CF93DF931F92CDB7DEB78C01698394
:103370000E940B196981681741F0C8010F90DF9115
:10338000CF911F910F910C941D280F90DF91CF9139
:103390001F910F910895EF92FF920F931F93CF9378
:1033A000DF9326E2829FC00111248C010A571E4F31
:1033B000EB017B0188E0E80EF11C6991C8010E94D5
:1033C000AF190F5F1F4FCE15DF05B9F7DF91CF9112
:1033D0001F910F91FF90EF900895262F30E0225714
:1033E0003E4F642FA90176E2879F400D511D1124A5
:1033F000CA010C94AF19EF92FF920F931F93CF93D2
:10340000DF939DE0899FE00111248B017E01EAE0BA
:10341000EE0EF11CF80161918F01CE010E94AF19EF
:103420002196CE15DF05B1F7DF91CF911F910F9156
:10343000FF90EF9008952DE0829FC00111240A961D
:103440000C94AF192DE0829FC00111240B960C94AF
:10345000AF192DE0829FC00111240C960C94AF1976
:103460001F920F920FB60F9211242F933F934F93F9
:103470005F936F937F938F939F93AF93BF93EF93DC
:10348000FF93E091DA06F091DB060995FF91EF9149
:10349000BF91AF919F918F917F916F915F914F916C
:1034A0003F912F910F900FBE0F901F9018950E9483
:1034B000E42708950E94E91F0E94591A0E94F90604
:1034C000C0E0D0E00E94D10B2097E1F30E94000001
:1034D000F9CFCF92DF92EF92FF920F931F93CF938A
:1034E000DF936C017A018B01C0E0D0E0CE15DF05DF
:1034F00089F0D8016D918D01D601ED91FC9101907B
:10350000F081E02DC6010995892B11F47E0102C0DE
:103510002196ECCFC701DF91CF911F910F91FF90C2
:10352000EF90DF90CF9008956115710579F0FB0160
:1035300001900020E9F73197AF01461B570BDC01E2
:10354000ED91FC910280F381E02D099480E090E000
:103550000895EF92FF920F931F93CF93DF938C0107
:103560007B01C0E0D0E0F701EC0FFD1F6491662302
:1035700061F0D801ED91FC910190F081E02DC8013E
:103580000995892B11F02196EECFCE01DF91CF91D5
:103590001F910F91FF90EF9008950C94941ADC0105
:1035A000ED91FC910190F081E02D099464E076E0CA
:1035B0000C94941A0F931F93CF93DF93EC010E9406
:1035C000A91A8C01CE010E94D61A800F911FDF919B
:1035D000CF911F910F9108950F931F93CF93DF9376
:1035E000EC010E94941A8C01CE010E94D61A800F21
:1035F000911FDF91CF911F910F9108954F925F928C
:103600006F927F92EF92FF920F931F93CF93DF936E
:10361000CDB7DEB7A1970FB6F894DEBF0FBECDBF12
:103620007C01FA01CB0119A2223008F42AE08E01B4
:103630000F5D1F4F422E512C612C712CBF01A30135
:1036400092010E944226F901CA01015011096A3013
:1036500014F4605D01C0695CD8016C93232B242BAA
:10366000252B61F7B801C7010E94941AA1960FB6E5
:10367000F894DEBF0FBECDBFDF91CF911F910F91A8
:10368000FF90EF907F906F905F904F900895CF9252
:10369000DF92EF92FF920F931F93CF93DF93EC0192
:1036A0006A017B012115310579F4E881F9810190E6
:1036B000F081E02D642FDF91CF911F910F91FF904A
:1036C000EF90DF90CF9009942A303105E9F477FF2D
:1036D0001AC06DE20E94CF1A8C0144275527BA0107
:1036E0004C195D096E097F092AE0CE010E94FE1A7D
:1036F000800F911FDF91CF911F910F91FF90EF905D
:10370000DF90CF9008952AE0B701A601CE01DF91A6
:10371000CF911F910F91FF90EF90DF90CF900C947D
:10372000FE1A9A01AB01770F660B770B0C94471BBF
:103730000F931F93CF93DF93EC019A01AB01770FA7
:10374000660B770B0E94471B8C01CE010E94D61A94
:10375000800F911FDF91CF911F910F910895211537
:10376000310541F4DC01ED91FC910190F081E02DF7
:10377000642F09940C94FE1A9A01462F50E060E0E1
:1037800070E00C94AF1B9A01AB0160E070E00C9408
:10379000AF1B3F924F925F926F927F928F929F9258
:1037A000AF92BF92CF92DF92EF92FF920F931F934F
:1037B000CF93DF9300D000D0CDB7DEB79091320524
:1037C000981721F09F3F09F036C204C0EAE5F9E0FE
:1037D000349081C080933205EAE5F9E0E491EF3F4F
:1037E00009F429C2E13031F1E23009F44BC0E111B2
:1037F00071C014BC15BC94B5926094BD95B5916030
:1038000095BDA82FB0E0FD01ED57F64FE491F0E033
:10381000EE0FFF1FEF55F64F059114911093EC0634
:103820000093EB06FD01E159F64FE491E093EA06BF
:10383000312C53C010928000109281009091810031
:1038400098609093810090918100916090938100A5
:10385000A82FB0E0FD01ED57F64FE491F0E0EE0F38
:10386000FF1FEF55F64F059114911093E506009355
:10387000E406FD01E159F64FE491E093E3063324B9
:1038800033942BC01092B0001092B1009091B00010
:1038900092609093B0009091B10091609093B100CC
:1038A000A82FB0E0FD01ED57F64FE491F0E0EE0FE8
:1038B000FF1FEF55F64F059114911093DE0600930C
:1038C000DD06FD01E159F64FE491E093DC0602E0EC
:1038D000302E03C03E2E37FCAEC129013A018B01C8
:1038E00061E00E944D204801A12CB12C832D8D7FD9
:1038F00009F0BBC060E072E18AE790E0A5019401A5
:103900000E94642629833A834B835C8369017A0190
:1039100021E0C21AD108E108F1088FEFC816D104DE
:10392000E104F10409F008F44CC060E472E48FE0B3
:1039300090E0A50194010E94642669017A01E1E00A
:10394000CE1AD108E108F108F2E03F1220C02FEFB3
:10395000C216D104E104F10409F008F46AC160E977
:1039600070ED83E090E0A50194010E946426690156
:103970007A0181E0C81AD108E108F108EFEFCE160C
:10398000D104E104F10409F0D0F583E067C0FFEF52
:10399000CF16D104E104F104B1F0A8F068E478EEA8
:1039A00081E090E0A50194010E94642669017A01FA
:1039B00081E0C81AD108E108F108332009F4DFC01A
:1039C0002FC181E001C082E03320A1F047C089818E
:1039D0009A81AB81BC812AE0B595A795979587958B
:1039E0002A95D1F76C017D0121E0C21AD108E108C6
:1039F000F10885E095B5987F892B85BD6FC068E497
:103A000078EE81E090E0A50194010E9464266901AE
:103A10007A01F1E0CF1AD108E108F1082FEFC216C0
:103A2000D104E104F10409F008F4A7C064E274EFE2
:103A300080E090E0A50194010E94642669017A016A
:103A4000E1E0CE1AD108E108F108FFEFCF16D1046A
:103A5000E104F10411F008F0B4C085E09091B100E8
:103A6000987F892B8093B10039C060E072E18AE7CA
:103A700090E0A50194010E94642669017A0181E029
:103A8000C81AD108E108F108C114D104E1E0EE063A
:103A9000F10488F068E478EE81E090E0A5019401FB
:103AA0000E94642669017A01F1E0CF1AD108E10889
:103AB000F10893E001C091E021E032120FC0809143
:103AC0008100887F892B8093810041145104610417
:103AD000710449F42FEF3FEFA9012DC041145104A7
:103AE0006104710471F0D801AA0FBB1FA3019201F8
:103AF0000E94892628EE33E040E050E00E944226F2
:103B000003C02FEF3FEFA90181E03816A1F0E2E0FA
:103B10003E1619F131108FC0C7BC2093ED063093CB
:103B2000EE064093EF065093F00680916E0082609F
:103B300080936E0080C0D0928900C092880020934C
:103B4000E6063093E7064093E8065093E906809135
:103B50006F00826080936F006EC0C092B3002093AC
:103B6000DF063093E0064093E1065093E206809131
:103B700070008260809370005EC084E06FCFFFEFC2
:103B8000CF16D104E104F104D1F0C8F062E17AE784
:103B900080E090E0A50194010E94642669017A0109
:103BA00081E0C81AD108E108F108EFEFCE16D10480
:103BB000E104F10411F008F00ACF84E01BCF83E0A8
:103BC00019CF62E17AE780E090E0A50194010E94BC
:103BD000642669017A0181E0C81AD108E108F10878
:103BE000EFEFCE16D104E104F104C1F0B8F0898101
:103BF0009A81AB81BC814AE0B595A7959795879549
:103C00004A95D1F76C017D0121E0C21AD108E10883
:103C1000F108332009F4EDCE87E020CF86E0D4CE42
:103C2000FFEFCF16D104E104F10409F050F684E06F
:103C3000CBCE82E013CF0F900F900F900F90DF91BB
:103C4000CF911F910F91FF90EF90DF90CF90BF9099
:103C5000AF909F908F907F906F905F904F903F902C
:103C60000895813039F018F0823051F008951092A3
:103C70006E00089580916F008D7F80936F0008958E
:103C8000809170008D7F8093700081E08093B00000
:103C90008091B100887F84608093B1001092B3005E
:103CA0000895CF93C82F809132058C1307C0EAE5A1
:103CB000F9E0E4918FEF8093320501C0EFEF8E2F92
:103CC0000E94311E60E08C2FCF910C9489201F92AE
:103CD0000F920FB60F9211242F933F934F935F9340
:103CE0006F937F938F939F93AF93BF93EF93FF93C4
:103CF0008091DF069091E006A091E106B091E20686
:103D0000892B8A2B8B2B51F18091DC06E091DD060B
:103D1000F091DE069081892780838091DF06909163
:103D2000E006A091E106B091E206181619061A06FF
:103D30001B06C4F48091DF069091E006A091E10695
:103D4000B091E2060197A109B1098093DF06909333
:103D5000E006A093E106B093E20604C0809132052C
:103D60000E94511EFF91EF91BF91AF919F918F9152
:103D70007F916F915F914F913F912F910F900FBE67
:103D80000F901F90189508958230E8F4E82FF0E026
:103D9000EE0FFF1FED5CFA4F71836083813041F0BD
:103DA000809169008C7F482B40936900E89A0895C0
:103DB00080916900440F551F440F551F837F482B86
:103DC00040936900E99A08951F920F920FB60F92DF
:103DD00011242F933F934F935F936F937F938F9310
:103DE0009F93AF93BF93EF93FF93E0913305F091CF
:103DF00034050995FF91EF91BF91AF919F918F91FC
:103E00007F916F915F914F913F912F910F900FBED6
:103E10000F901F9018951F920F920FB60F921124BA
:103E20002F933F934F935F936F937F938F939F93C2
:103E3000AF93BF93EF93FF93E0913505F091360573
:103E40000995FF91EF91BF91AF919F918F917F91D4
:103E50006F915F914F913F912F910F900FBE0F90F7
:103E60001F9018951F920F920FB60F9211242F9347
:103E70003F938F939F93AF93BF938091F20690915E
:103E8000F306A091F406B091F5063091F10623E017
:103E9000230F2D3720F40196A11DB11D05C026E882
:103EA000230F0296A11DB11D2093F1068093F20607
:103EB0009093F306A093F406B093F5068091F6066E
:103EC0009091F706A091F806B091F9060196A11D10
:103ED000B11D8093F6069093F706A093F806B09371
:103EE000F906BF91AF919F918F913F912F910F90C4
:103EF0000FBE0F901F9018952FB7F8946091F2069F
:103F00007091F3068091F4069091F5062FBF089505
:103F10003FB7F8948091F6069091F706A091F806C5
:103F2000B091F90626B5A89B05C02F3F19F0019660
:103F3000A11DB11D3FBFBA2FA92F982F8827820F2F
:103F4000911DA11DB11DBC01CD0142E0660F771F7F
:103F5000881F991F4A95D1F708958F929F92AF922B
:103F6000BF92CF92DF92EF92FF926B017C010E9491
:103F7000881F4B015C01C114D104E104F10401F17B
:103F80000E942D260E94881FDC01CB018819990907
:103F9000AA09BB09883E9340A105B10560F321E061
:103FA000C21AD108E108F10888EE880E83E0981E55
:103FB000A11CB11CC114D104E104F10419F7DBCF39
:103FC000FF90EF90DF90CF90BF90AF909F908F9039
:103FD0000895789484B5826084BD84B5816084BD81
:103FE00085B5826085BD85B5816085BDEEE6F0E072
:103FF000808181608083E1E8F0E0108280818260CE
:104000008083808181608083E0E8F0E0808181604E
:104010008083E1EBF0E0808184608083E0EBF0E07E
:10402000808181608083EAE7F0E080818460808322
:1040300080818260808380818160808380818068CC
:1040400080831092C1000895833081F028F481307C
:1040500099F08230A1F008958730A9F08830B9F046
:104060008430D1F4809180008F7D03C080918000E6
:104070008F7780938000089584B58F7702C084B5D0
:104080008F7D84BD08958091B0008F7703C08091AB
:10409000B0008F7D8093B0000895CF93DF9390E0C0
:1040A000FC01E159F64F2491FC01ED57F64F849144
:1040B000882361F190E0880F991FFC01E555F64FC8
:1040C000C591D491FC01EF55F64FA591B4916111C2
:1040D00009C09FB7F8948881209582238883EC914A
:1040E0002E230BC0623061F49FB7F8943881822F81
:1040F000809583238883EC912E2B2C939FBF06C041
:104100008FB7F894E8812E2B28838FBFDF91CF9152
:1041100008951F93CF93DF93282F30E0F901E55ADC
:10412000F64F8491F901E159F64FD491F901ED5719
:10413000F64FC491CC23C9F0162F81110E94242080
:10414000EC2FF0E0EE0FFF1FEF55F64FA591B49165
:104150008FB7F894111105C09C91ED2FE095E923DC
:1041600002C0EC91ED2BEC938FBFDF91CF911F91AB
:104170000895CF93DF93282F30E0F901E55AF64FE9
:104180008491F901E159F64FD491F901ED57F64FB9
:10419000C491CC2391F081110E942420EC2FF0E0F7
:1041A000EE0FFF1FE956F64FA591B491EC91ED2368
:1041B00081E090E021F480E002C080E090E0DF91B7
:1041C000CF910895CF93CFB7F8948091FA068111DB
:1041D00027C0EDE8F9E08491E9E7F9E09491E82F50
:1041E000F0E0EE0FFF1FE555F64FA591B491EC916D
:1041F000E92321F461E08AE00E94892061E08AE0FD
:104200000E944D208CB580618CBD8CB580648CBDC6
:1042100061E08DE00E944D2061E08BE00E944D2026
:104220008091FA068F5F8093FA06CFBFCF910895F1
:1042300080912B0790E020912C07821B9109089513
:1042400090912C0780912B07981750F4E92FF0E0FC
:10425000E35DF84F208130E09F5F90932C0702C010
:104260002FEF3FEFC9010895E0912C0780912B07B4
:10427000E81730F4F0E0E35DF84F808190E00895B6
:104280008FEF9FEF08950895CF92DF92EF92FF9204
:104290000F931F93CF93DF937C01262F972F8A01D3
:1042A00080910707882391F0C62FD72F6E01C40E87
:1042B000D51ECC15DD0571F06991D701ED91FC910A
:1042C0000190F081E02DC7010995F3CF642F822F73
:1042D0000E945722C801DF91CF911F910F91FF904B
:1042E000EF90DF90CF900895CF93DF931F92CDB7DB
:1042F000DEB76983209107072223D1F020910807B8
:10430000203240F021E030E0FC013383228380E062
:1043100090E015C080910907E82FF0E0E65FF84FC4
:10432000998190838F5F809309078093080705C068
:1043300061E0CE0101960E94572281E090E00F904B
:10434000DF91CF910895FC011382128288EE93E0F1
:10435000A0E0B0E084839583A683B78387E196E0ED
:1043600091838083089510922C0710922B0710924E
:104370000907109208070C94E32181E08093070756
:1043800060932A07109209071092080708950C9469
:10439000BD210F93062F21E0409108076AE077E0E6
:1043A00080912A070E9401221092090710920807A3
:1043B000109207070F91089561E00C94C9218BEFCB
:1043C00096E00C94A3211092BA0781E08093B8077D
:1043D0001092B70761E082E10E94892061E083E1E9
:1043E0000E948920E9EBF0E080818E7F80838081CC
:1043F0008D7F808388E48093B80085E48093BC003F
:1044000008950F93413208F04AC09091BA07911174
:10441000FCCF32E03093BA070093B8073FEF3093F8
:104420004D071092920740939107FB0163E977E0F3
:10443000DB013A2F361B341718F431913D93F9CF35
:104440001092B9073091B907880F832B8093B90771
:104450008091B707813061F41092B7078091B90756
:104460008093BB008091BC0083FDF8CF85EC01C038
:1044700085EE8093BC00222321F08091BA07823020
:10448000D1F380914D078F3F79F080914D078032B5
:1044900041F080914D07803331F094E005C091E008
:1044A00003C092E001C093E0892F0F9108954091DD
:1044B0006F07262F30E0240F311D21323105DCF447
:1044C0002091BA072430C9F4FC0180E090E08617FF
:1044D00058F430916F072191DC01AF58B84FA30F0A
:1044E000B11D2C930196F3CF80916F07680F6093F5
:1044F0006F0780E0089581E0089582E0089585EDDA
:104500008093BC008091BC0084FDFCCF1092BA0760
:10451000089585EC8093BC001092BA0708951F920D
:104520000F920FB60F9211242F933F934F935F93E7
:104530006F937F938F939F93AF93BF93EF93FF936B
:104540008091B900887F803609F49EC078F5883262
:1045500009F45DC090F4803109F456C038F4882322
:1045600009F4F5C0883009F44FC0F5C0883109F46A
:104570004EC0803209F45FC0EEC0803409F46AC0D6
:1045800058F4803309F457C0883309F0E4C08093AD
:104590004D070E948922DFC0803509F44FC088355D
:1045A00009F45DC0883409F0D6C0D3C0883909F455
:1045B000C4C0A8F4883709F467C038F4883609F411
:1045C00063C0803709F460C0C6C0883809F4B5C03C
:1045D000803909F45FC0803809F0BDC05BC0803B02
:1045E00009F483C038F4803A09F466C0883A09F4C3
:1045F0007CC0B1C0803C09F4A4C0883C09F4A1C0CF
:10460000883B09F487C0A7C08091B90710C090917A
:10461000920780919107981770F5E091920781E0D9
:104620008E0F80939207F0E0ED56F84F80818093D3
:10463000BB0085EC83C080934D078BC0E09192074F
:1046400081E08E0F809392078091BB00F0E0ED56E1
:10465000F84F808390919207809191076BC0E09111
:10466000920781E08E0F809392078091BB00F0E06B
:10467000ED56F84F80838091B80781116AC081E0C0
:104680008093B70784EA5EC083E08093BA071092F4
:104690004E07CFCF80914E07803208F04EC0E09198
:1046A0004E0781E08E0F80934E078091BB00F0E0B3
:1046B000E15BF84F8083BDCF0E94892280914E0735
:1046C000803230F4E0914E07F0E0E15BF84F108269
:1046D00060914E0770E0E091B307F091B4078FE46A
:1046E00097E0099510924E0736C084E08093BA0790
:1046F0001092700710926F07E091B507F091B6071E
:10470000099580916F07811105C081E080936F0743
:1047100010927107E091700781E08E0F809370070F
:10472000F0E0EF58F84F80818093BB0090917007C4
:1047300080916F07981708F47CCF85E88093BC00C0
:104740000AC085EC8093BC001092BA0704C0109296
:104750004D070E947F22FF91EF91BF91AF919F91F2
:104760008F917F916F915F914F913F912F910F901A
:104770000FBE0F901F9018952091FD073091FE07F6
:1047800028173907B9F49091BB078091BC07981797
:1047900089F0E091BB07F0E0E354F84F808120916D
:1047A000BB0730E02F5F3F4F2F7333272093BB07AA
:1047B00090E008958FEF9FEF08951F93CF93DF93BD
:1047C000DC015C962D913C915D972115310539F402
:1047D00081E090E013969C938E9312973DC0519682
:1047E000ED91FC91529750969C915097892F80950E
:1047F0001FB75E964C915E9741FB772770F941FD9C
:104800006095F8944081772311F0492B01C048232B
:104810004083E9012197F1F748E0508160FF02C031
:10482000592B01C058235083E9012197F1F7669570
:10483000415099F7772321F090818923808303C029
:104840008081982B90831FBF5C968D919C915D9782
:104850000197F1F721E030E0C901DF91CF911F917D
:10486000089508952091FD073091FE072817390714
:1048700071F49091BB078091BC07981741F0E091CB
:10488000BB07F0E0E354F84F808190E008958FEF8C
:104890009FEF08952091FD073091FE0728173907F3
:1048A00071F48091BC072091BB0790E0805C9F4F22
:1048B000821B910960E470E00E942E26089580E03A
:1048C00090E00895E091FD07F091FE07E817F907E1
:1048D00069F4A389B4899C918589809589238C93F7
:1048E0001092FE071092FD0781E0089580E0089580
:1048F000CF93DF93EC018A8D9B8D892BF1F0809112
:10490000FD079091FE078C179D07B9F0009711F0F5
:104910000E9462248E8D8E7F8E8F1092BC07109223
:10492000BB07D093FE07C093FD07EB89FC899081FC
:104930008D89892B808381E001C080E0DF91CF9158
:1049400008951F920F920FB60F9211242F933F9349
:104950004F935F936F937F938F939F93AF93BF9387
:10496000EF93FF93E091FD07F091FE07309709F474
:1049700051C0968DA685B785858591FF04C09C9111
:10498000892329F447C09C91892309F043C0A38956
:10499000B4899C918589809589238C938689978990
:1049A0000197F1F7608D718DA685B785558538E043
:1049B00020E0CB010197F1F7822F90E09595879544
:1049C000282F4C91452309F02068315091F7868DAE
:1049D00081FD20958091BC0790E001968F73992707
:1049E0003091BB07381749F0A091BC07B0E0A35441
:1049F000B84F2C938093BC0703C0868D8160868F4F
:104A0000828D938D0197F1F7A389B4899C91858953
:104A1000892B8C93FF91EF91BF91AF919F918F91D3
:104A20007F916F915F914F913F912F910F900FBEAA
:104A30000F901F90189527E236E0FC013183208308
:104A40000C9462241F93CF93DF93EC01162F6E8D8D
:104A50006695617081E06827812F0E94892061E05E
:104A6000812F0E944D20612F70E0FB01E159F64F2C
:104A7000E491E88BFB01ED57F64FE491F0E0EE0F87
:104A8000FF1FEF55F64F859194919A8B898BDF919B
:104A9000CF911F9108951F93CF93DF93EC01162FB1
:104AA00060E0812F0E944D208E8D81FD04C061E069
:104AB000812F0E9489201C87612F70E0FB01E15942
:104AC000F64FE491ED87FB01ED57F64FE491F0E0EE
:104AD000EE0FFF1FE956F64F859194919F878E87C1
:104AE000DF91CF911F9108951F93CF93DF93EC0136
:104AF000162F1B821A8288EE93E0A0E0B0E08C8330
:104B00009D83AE83BF8387E296E0998388831F8A63
:104B10001E8A198E188E1B8E1A8E1D8E1C8E8E8DDF
:104B20008E7F20FB81F98E8F642FCE010E9422257B
:104B3000612FCE01DF91CF911F910C944B25CF9324
:104B4000DF93EC019A01AB011B8E1A8E198E188E21
:104B50001F8A1E8A60E079E08DE390E00E9464265F
:104B6000F9012430310518F0C901039702C081E032
:104B700090E09D8F8C8F6C85663108F069C0C9010B
:104B8000969587958431910510F0439702C081E096
:104B900090E09F8B8E8B369718F0C901059702C065
:104BA00081E090E0998F888FC901880F991F280FA5
:104BB000391F36952795369527952D30310518F0F4
:104BC0002C50310902C021E030E03B8F2A8F9091B8
:104BD0006800683050F021E06E3008F420E081E099
:104BE00001C0880F2A95EAF701C084E0892B8093E1
:104BF00068008C85883038F08E3040F0863148F07F
:104C000020E030E008C02DE630E005C02BE630E0C3
:104C100002C02CE630E03C8B2B8B883030F491E0E6
:104C200001C0990F8A95EAF70EC0282F30E08E3028
:104C300018F42850310902C02E50310991E001C00A
:104C4000990F2A95EAF79D8B8C8D9D8D0197F1F731
:104C5000CE01DF91CF910C947824089597FB072E15
:104C600016F4009407D077FD09D00E94942607FC23
:104C700005D03EF4909581959F4F0895709561956C
:104C80007F4F0895A1E21A2EAA1BBB1BFD010DC088
:104C9000AA1FBB1FEE1FFF1FA217B307E407F507EC
:104CA00020F0A21BB30BE40BF50B661F771F881FC8
:104CB000991F1A9469F760957095809590959B015E
:104CC000AC01BD01CF010895052E97FB1EF40094A1
:104CD0000E947B2657FD07D00E94422607FC03D086
:104CE0004EF40C947B2650954095309521953F4F7E
:104CF0004F4F5F4F089590958095709561957F4FC8
:104D00008F4F9F4F0895EE0FFF1F0590F491E02DF8
:104D100009940E94A826A59F900DB49F900DA49F72
:104D2000800D911D11240895AA1BBB1B51E107C0E2
:104D3000AA1FBB1FA617B70710F0A61BB70B881F2B
:104D4000991F5A95A9F780959095BC01CD010895BA
:104D5000A29FB001B39FC001A39F700D811D1124BC
:104D6000911DB29F700D811D1124911D0895CF9347
:104D7000DF938230910510F482E090E0E091010829
:104D8000F091020820E030E0C0E0D0E0309711F16F
:104D90004081518148175907C0F04817590761F4FD
:104DA00082819381209719F09B838A832BC09093F3
:104DB00002088093010826C02115310519F0421719
:104DC000530718F49A01BE01DF01EF010280F3815D
:104DD000E02DDCCF2115310509F1281B390B2430DA
:104DE000310590F412968D919C9113976115710580
:104DF00021F0FB019383828304C090930208809387
:104E00000108FD01329644C0FD01E20FF31F8193BA
:104E10009193225031092D933C933AC02091FF0782
:104E200030910008232B41F42091020130910301BD
:104E3000309300082093FF07209100013091010179
:104E40002115310541F42DB73EB740910401509131
:104E50000501241B350BE091FF07F0910008E217D4
:104E6000F307A0F42E1B3F0B2817390778F0AC018D
:104E70004E5F5F4F2417350748F04E0F5F1F50936A
:104E800000084093FF078193919302C0E0E0F0E0B7
:104E9000CF01DF91CF9108950F931F93CF93DF93AD
:104EA000009709F48CC0FC013297138212820091A2
:104EB0000108109102080115110581F4208131814A
:104EC000820F931F2091FF073091000828173907A0
:104ED00079F5F0930008E093FF0771C0D80140E036
:104EE00050E0AE17BF0750F412962D913C911397E6
:104EF000AD012115310509F1D901F3CF9D01DA0189
:104F00003383228360817181860F971F82179307F5
:104F100069F4EC0128813981260F371F2E5F3F4F3E
:104F2000318320838A819B8193838283452B29F45B
:104F3000F0930208E093010842C01396FC93EE93AD
:104F40001297ED01499159919E01240F351FE217E7
:104F5000F30771F480819181840F951F0296119659
:104F60009C938E938281938113969C938E93129738
:104F7000E0E0F0E0D80112968D919C911397009794
:104F800019F0F8018C01F6CF8D919C9198012E5F5C
:104F90003F4F820F931F2091FF0730910008281781
:104FA000390769F4309729F4109202081092010829
:104FB00002C013821282109300080093FF07DF9152
:104FC000CF911F910F91089581E090E0F8940C9497
:104FD0002B28FB01DC0105900D920020E1F70895DC
:104FE000FB01DC014150504048F005900D9200203B
:104FF000C9F701C01D9241505040E0F70895FB01F0
:10500000DC0101900D920020E1F70895FB01DC0125
:105010004150504048F001900D920020C9F701C066
:105020001D9241505040E0F70895F999FECF92BD8E
:1050300081BDF89A992780B50895262FF999FECF5A
:105040001FBA92BD81BD20BD0FB6F894FA9AF99AA5
:105050000FBE0196089514E0CDEDD4E004C0FE012A
:105060000E9483262196CE3DD107C9F7F894FFCF41
:105070000000030880000100000080841E003C0046
:1050800002000101B8010100040001003200A0008B
:105090000101000103070F1F3F7F0080C0E0F0F80F
:1050A000FCFE000000000000000000000000000006
:1050B00000000000000000000000000000000000F0
:1050C00000000000000000000000000000000000E0
:1050D00000000000000000000000000000000000D0
:1050E0000080808000000000000000000000000040
:1050F0000000008080C0C000000000000000000030
:10510000000000000000000000000000000000009F
:10511000000000000000000000000000000000008F
:10512000000000000000000000000000000000007F
:1051300000000000000080C0E0F0F8FCF8E0000093
:1051400000000000000000000000000000000080DF
:1051500080808080008080000000008080808080CF
:1051600000FFFFFF00000000808080800000808042
:10517000000080FFFF8080008080008080808000B1
:1051800080800000000000808000008C8E84000081
:1051900080F8F8F880000000000000000000000027
:1051A0000000F0F0F0F0F0F0F0F0F0F0F0F0E0E0FF
:1051B000C08000E0FCFEFFFFFF7FFFFFFFFFFF005E
:1051C00000000000000000000000000000FEFFC71B
:1051D0000101010183FFFF00007CFEC70101010105
:1051E00083FFFFFF0038FEC78301010183C7FFFF74
:1051F000000001FFFF010100FFFF070101010000A6
:105200007FFF80000000FFFF7F0000FFFFFF000026
:1052100001FFFFFF0100000000000000000000008F
:105220000000030F3F7F7FFFFFFFFFFFFFFFE7C788
:10523000C78F8F9FBFFFFFC3C0F0FFFFFFFFFFFCC3
:10524000FCFCFCFCFCFCFCF8F8F0F0E0C000010306
:10525000030303030103030000000001030303032E
:105260000101030100000001030303030101030323
:105270000000000303000000030300000000000022
:105280000001030303030301000000010301000008
:105290000003030100000000000000000000000007
:1052A000000000000080C0E0F0F9FFFFFFFFFF3FBB
:1052B0001F0F87C7F7FFFF1F1F3DFCF8F8F8F87CAA
:1052C0007DFFFFFFFFFFFFFFFF7F3F0F0700303035
:1052D00000000000000000000000000000000000CE
:1052E000000000000000FEFEFC00000000000000C6
:1052F000000000000000000000000000000000E0CE
:10530000C00000000000000000000000303000007D
:10531000000000000000000000000000000000008D
:10532000000000C0FEFFFFFFFFFFFFFFFFFF7F7FCA
:105330003F1F0F071F7FFFFFF8F8FFFFFFFFFFFE74
:10534000F8E0000000010000000000000000FEFE88
:10535000000000FCFEFC0C06060EFCF80000F0F855
:105360001C0E0606060CFFFFFF0000FEFE000000FC
:1053700000FCFEFC00183C7E66E6CE84000006FFC2
:10538000FF0606FCFEFC0C0606060000FEFE000002
:10539000C0F8FC4E4646464E7C7840183C76E6CE39
:1053A000CC800000000000000000000000000000B1
:1053B00000000000000001070F1F1F3F3F3F3F1F7D
:1053C0000F030000000000000000000000000F0FAD
:1053D0000000000F0F0F000000000F0F0000030778
:1053E0000E0C18180C060F0F0F0000010F0E0C18F2
:1053F0000C0F070100040E0C180C0F070000000F23
:105400000F00000F0F0F0000000000000F0F000042
:105410000007070C0C181C0C060600040E0C180CD8
:105420000F07000000000000000000000000000066
:10543000000000000000000000000000000000006C
:10544000000000000000000000000000000000005C
:10545000000000000000000000000000000000004C
:10546000000000000000000000000000000000003C
:10547000000000000000000000000000000000002C
:10548000000000000000000000000000000000001C
:10549000000000000000000000000000000000000C
:1054A0000000FFC31EC31E426561744475696E6FC0
:1054B00076657220312E3062792057617272696F81
:1054C000722E000A0A002F002020202020200053E6
:1054D000544F50000400A4030300650303010000BF
:1054E00002014403000300000401FF021E05000046
:1054F0001E0500001D0500001E0500001E05000021
:105500000205F5020201F5020200D1021E0D0000A3
:10551000040E8C02000F0000FF0F0000030F7F023B
:10552000060F00001E0D0000020DF50204004D02E2
:10553000021634020216F502001600000216F502E9
:105540000000000000000000F912691A571AF30F5A
:10555000EC1003119D1019114E116C110000000088
:10556000F912691A2616F30FCC1472139D10191133
:105570004E116C110D0A006E616E00696E66006F4F
:105580007666000000000074214421182120213497
:1055900021432100000000DD23691A4A24BC233284
:0455A000243124008E
:00000001FF
