:100000000C94E9040C9456230C947D230C94110554
:100010000C9411050C9411050C9411050C94D92223
:100020000C9411050C9411050C9411050C941105F8
:100030000C9411050C94981C0C9411050C9411054A
:100040000C942B110C9411050C94551E0C94871EC6
:100050000C9411050C9411050C9411050C941105C8
:100060000C940F260C941105B5081F0BF7081F0BF5
:10007000020905094209570969091F0B1F0B1F0BCC
:100080006C091F0B6F09E3091F0B020A220A1F0BE1
:100090001F0B1F0B1F0B500A1F0B1F0BA00A390D44
:1000A000510D650D720D8B0DBC0DDA0DE40DF40DC7
:1000B000FC0D300E480E590E890E980EA00EE90E5A
:1000C000090F100F2B0F3D0F450F690FCD0FD40FE8
:1000D000E90FFE0F16107553004369636C6F204DD6
:1000E00061783A007553004369636C6F204D696E07
:1000F0003A007553004369636C6F204163743A00A2
:1001000056657273696F6E3A006279205761727238
:10011000696F7200426561744475696E6F002020DA
:10012000487A00456C69676520656C20736F6E695D
:10013000646F3A00456C696765206C612063616E8D
:1001400063696F6E3A005469706F20436F6D706120
:10015000733A00202042504D00456C696765206568
:100160006C2074656D706F3A004E6F6D6272652021
:1001700063616E63696F6E3A00456C696765206CF8
:10018000612063616E63696F6E3A00426F727261E3
:10019000722063616E63696F6E0043616E63696FA5
:1001A0006E206120696E7365727461723A00496EE7
:1001B0007365727461722064657370756573206411
:1001C000653A00456C696765206C612063616E6308
:1001D000696F6E3A00506F736963696F6E206120BA
:1001E0006564697461723A00456C696765206C6189
:1001F00020706F736963696F6E3A004E6F6D627243
:1002000065207265706572746F72696F3A00456C33
:10021000696765207265706572746F72696F3A0004
:100220005354415254002042504D0A0A0053544145
:100230005254002042504D0A0A0048023E024D65C9
:1002400074726F6E6F6D6F005265706572746F724D
:10025000696F009002820276026B025D0252657342
:1002600065742046616272696361004D696469204A
:10027000436C6F636B00536F6E69646F20546963E6
:100280006B005469636B7320696775616C657300FB
:100290004D6F646F00A0029E029B02313600380051
:1002A0003400D802CA02B902AA0243616D626961D0
:1002B0007220436F6D7061730043616D626961729A
:1002C000204469766973696F6E0043616D6269618C
:1002D000722054656D706F0043616D6269617220B8
:1002E0004E6F6D62726500FC02EB02456C696D69D0
:1002F0006E61722043616E63696F6E00456469745C
:1003000061722043616E63696F6E0012030F0353C5
:1003100049004E4F004C033B032A031D0356616303
:10032000696172204F7264656E00456C696D696E1B
:1003300061722043616E63696F6E00496E7365720E
:100340007461722043616E63696F6E0043616D6218
:10035000696172204F7264656E006C035E034361D5
:100360006D62696172204F7264656E0043616D62F7
:10037000696172204E6F6D62726500A703950381FB
:1003800003456C696D696E617220526570657274A7
:100390006F72696F0045646974617220526570659F
:1003A00072746F72696F0043616D6269617220528D
:1003B00065706572746F72696F00D903CF03C703EC
:1003C000C203496E666F00416A75737465730043BA
:1003D000616E63696F6E6573005265706572746FEC
:1003E00072696F730000000000003FF000007FF8AA
:1003F0000300E01C0700E01C0E00C30C7C00C30CD3
:100400009801C00E8401830644018006F40383072B
:10041000C0038003800303070003000F8007031F4E
:100420008006031D80060339800E0371C00E03E0B1
:10043000C00C0FC0C01C1030E01C20106018400819
:100440006018400860387FF8703C0000F03FFFFF04
:10045000F07FFFFFF87FFFFFF87FFFFFF87FFFFFD0
:10046000F87FFFFFF87FFFFFF800000000003E5B11
:100470004F5B3E3E6B4F6B3E1C3E7C3E1C183C7EF1
:100480003C181C577D571C1C5E7F5E1C00183C18D6
:1004900000FFE7C3E7FF0018241800FFE7DBE7FFD2
:1004A00030483A060E2629792926407F050507405F
:1004B0007F05253F5A3CE73C5A7F3E1C1C08081C20
:1004C0001C3E7F14227F22145F5F005F5F06097F5E
:1004D000017F006689956A606060606094A2FFA2F7
:1004E0009408047E040810207E201008082A1C08A6
:1004F000081C2A08081E101010100C1E0C1E0C30B0
:10050000383E3830060E3E0E0600000000000000A7
:100510005F00000007000700147F147F14242A7F67
:100520002A12231308646236495620500008070334
:1005300000001C2241000041221C002A1C7F1C2AB2
:1005400008083E0808008070300008080808080005
:100550000060600020100804023E5149453E004200
:100560007F400072494949462141494D33181412D0
:100570007F1027454545393C4A49493141211109F8
:10058000073649494936464949291E0000140000EA
:100590000040340000000814224114141414140004
:1005A0004122140802015909063E415D594E7C1250
:1005B00011127C7F494949363E414141227F4141E8
:1005C000413E7F494949417F090909013E41415165
:1005D000737F0808087F00417F41002040413F01B0
:1005E0007F081422417F404040407F021C027F7FF1
:1005F0000408107F3E4141413E7F090909063E4102
:1006000051215E7F09192946264949493203017F54
:1006100001033F4040403F1F2040201F3F403840E3
:100620003F631408146303047804036159494D437C
:10063000007F4141410204081020004141417F04F4
:1006400002010204404040404000030708002054DB
:100650005478407F2844443838444444283844443B
:10066000287F385454541800087E090218A4A49C0A
:10067000787F0804047800447D40002040403D001D
:100680007F1028440000417F40007C047804787C7F
:10069000080404783844444438FC182424181824E6
:1006A0002418FC7C08040408485454542404043FCF
:1006B00044243C4040207C1C2040201C3C403040D6
:1006C0003C44281028444C9090907C4464544C4402
:1006D00000083641000000770000004136080002A3
:1006E000010204023C2623263C1EA1A161123A40CD
:1006F00040207A3854545559215555794122545443
:100700007842215554784020545579400C1E52723D
:10071000123955555559395454545939555454581A
:100720000000457C410002457D420001457C407D42
:100730001211127DF0282528F07C545545002054D4
:10074000547C547C0A097F4932494949323A44442D
:10075000443A324A4848303A4141217A3A424020AC
:1007600078009DA0A07D3D4242423D3D4040403D3D
:100770003C24FF2424487E4943662B2FFC2F2BFF6B
:100780000929F620C0887E090320545479410000CD
:10079000447D413048484A32384040227A007A0A43
:1007A0000A727D0D19317D2629292F28262929290C
:1007B0002630484D4020380808080808080808383E
:1007C0002F10C8ACBA2F102834FA00007B000008A4
:1007D000142A142222142A1408AA005500AAAA5581
:1007E000AA55AA000000FF00101010FF00141414F6
:1007F000FF001010FF00FF1010F010F0141414FC94
:10080000001414F700FF0000FF00FF1414F404FCB0
:10081000141417101F10101F101F1414141F001091
:100820001010F0000000001F101010101F1010100A
:1008300010F010000000FF10101010101010101019
:10084000FF10000000FF140000FF00FF00001F1059
:10085000170000FC04F414141710171414F404F413
:100860000000FF00F714141414141414F700F71404
:100870001414171410101F101F141414F414101053
:10088000F010F000001F101F0000001F14000000F7
:10089000FC140000F010F01010FF10FF141414FFEF
:1008A000141010101F00000000F010FFFFFFFFFFEA
:1008B000F0F0F0F0F0FFFFFF0000000000FFFF0F7E
:1008C0000F0F0F0F3844443844FC4A4A4A347E0222
:1008D000020606027E027E026355494163384444A3
:1008E0003C04407E201E2006027E020299A5E7A558
:1008F000991C2A492A1C4C7201724C304A4D4D30C9
:100900003048784830BC625A463D3E494949007EED
:100910000101017E2A2A2A2A2A44445F4444405184
:100920004A444040444A51400000FF0103E080FF38
:10093000000008086B6B083612362436060F090FC4
:1009400006000018180000001010003040FF0101E0
:10095000001F01011E00191D1712003C3C3C3C0009
:1009600000000000566163696F00564143494F0023
:10097000020000000800020100000304070000005C
:100980000000000000010204081020408001020461
:1009900008102001020408102004040404040404C4
:1009A0000402020202020203030303030300000025
:1009B0000023002600290000000000250028002B4D
:1009C0000000000000240027002A00007C07AD1E64
:1009D0005F2511241FBECFEFD8E0DEBFCDBF16E0EC
:1009E000A0E0B1E0E4E9F5E502C005900D92AC337A
:1009F000B107D9F728E0ACE3B6E001C01D92AD34F1
:100A0000B207E1F714E0C9EED4E004C02197FE017B
:100A10000E943429C63ED107C9F70E946F0B0C947F
:100A2000C82A0C940000CF93DF9386E00E943924FB
:100A3000EC0182E00E943924C817D90719F481E03B
:100A400090E002C08FEF9FEF909362068093610663
:100A5000DF91CF9108950C94B22AEF92FF920F93F9
:100A60001F93CF93DF931F92CDB7DEB77C01FC01BC
:100A700000811181C80169830E94B22A69816817C7
:100A800019F0C8010E94BA2AC7010F90DF91CF91D7
:100A90001F910F91FF90EF900895CF92DF92EF9208
:100AA000FF92CF93DF9300D000D0CDB7DEB7109286
:100AB0005006109251061092520610925306C090A2
:100AC0005006D0905106E0905206F0905306CC0CA0
:100AD000DD1CEE1CFF1CC616D706E806F90658F406
:100AE00069837A838B839C830E94DA1E9C818B812D
:100AF0007A816981E4CF0F900F900F900F90DF9172
:100B0000CF91FF90EF90DF90CF9008951F93CF93F8
:100B1000DF93182FEB010E943924892B71F58AE0AD
:100B20008C9FF0018D9FF00D1124E957F94F17822A
:100B300016821382808140910C0150910D01811128
:100B400006C091E0248135812417350708F490E030
:100B50008AE08C9FF0018D9FF00D1124E957F94F29
:100B60009283248135812417350718F081E0808332
:100B700004C02F5F3F4F35832483812F0E94392487
:100B8000019779F58AE08C9FF0018D9FF00D11247B
:100B9000E957F94F1582148211861086118212824C
:100BA000808120910C0130910D01882339F081E082
:100BB000468157814217530708F480E09AE09C9FD2
:100BC000F0019D9FF00D1124E957F94F8383868131
:100BD00097818217930710F0108203C001969783C4
:100BE00086838AE08C9FF0018D9FF00D1124E957D8
:100BF000F94F8081882381F08085918501969187C6
:100C0000808720910A0130910B018217930719F414
:100C100081E0818301C01182DF91CF911F910895FE
:100C2000CF93DF93809169060E94D11AEC01BC0139
:100C300081E796E00E949C2ACE01DF91CF910C942F
:100C4000E9290F931F93CF9360916A0680916906FB
:100C50000E94461BC82F0E940B1B8C01BC018AE717
:100C600096E00E949C2AC8010E94E9298C2F0E94CC
:100C7000561B0AE716E0F80182878C2F0E945D1B45
:100C8000F80183878C2F0E94681BF8018487CF911D
:100C90001F910F9108958BEF91E00E942B058F3FDC
:100CA00011F080931A018CEF91E00E942B058F3F89
:100CB00031F091E0811101C090E090936B068DEFCF
:100CC00091E00E942B058F3F31F091E0811101C02E
:100CD00090E0909368068EEF91E00E94731B9C0158
:100CE0002F5131092435334110F088EB91E0909376
:100CF000100180930F010895CF93DF9300D0CDB7FB
:100D0000DEB70E94351C0E94641C8BEF91E09A8331
:100D100089836FEFCE0101960E942D058CEF91E043
:100D20009A8389836FEFCE0101960E942D058DEF86
:100D300091E09A8389836FEFCE0101960E942D0581
:100D400068EB71E08EEF91E00E94A41BFFCFCF9281
:100D5000DF92EF92FF920F931F93CF93DF93CDB764
:100D6000DEB76A970FB6F894DEBF0FBECDBF89E03D
:100D7000E0E3F5E0DE011B9601900D928A95E1F724
:100D800087E0E9E3F5E0DE01549601900D928A9543
:100D9000E1F78AE0E0E4F5E0DE01119601900D92C2
:100DA0008A95E1F785EA96E00E94BA1861E085EA43
:100DB00096E00E94191561E070E085EA96E00E94D5
:100DC0001F1540E050E060E070E085EA96E00E9488
:100DD00013158E01055F1F4F6E0184E1C80ED11CF3
:100DE0007801F80161918F0185EA96E00E94411F28
:100DF00085EA96E00E944E1A69E170E080E090E09A
:100E00000E944D050C151D0561F768EE73E080E04A
:100E100090E00E944D056DE475E085EA96E00E9441
:100E20003F1F6E01FBE1CF0ED11CF80161918F01D4
:100E300085EA96E00E94411F85EA96E00E944E1ADC
:100E400069E170E080E090E00E944D050C151D0501
:100E500061F768EE73E080E090E00E944D056DE47C
:100E600075E085EA96E00E943F1F8E010F5F1F4FDD
:100E7000F80161918F0185EA96E00E94411F85EAA1
:100E800096E00E944E1A69E170E080E090E00E94D6
:100E90004D050E151F0561F768EE73E080E090E0E8
:100EA0000E944D0582E0C82ED12C91E2E92EF12C52
:100EB00000E210E025EE33E044E150E06AE570E046
:100EC00085EA96E00E944F1385EA96E00E944E1A4A
:100ED00068EE73E080E090E06A960FB6F894DEBFAB
:100EE0000FBECDBFDF91CF911F910F91FF90EF907B
:100EF000DF90CF900C944D0564E085EA96E00C9469
:100F0000A118EF92FF920F931F93CF93DF93CDB76A
:100F1000DEB76E970FB6F894DEBF0FBECDBF8091DF
:100F20007006882321F0813009F405C1CBC380917C
:100F30001A01882321F0813009F49FC0C3C385EAD8
:100F400096E00E94BA1840E050E060E070E085EA68
:100F500096E00E94131540E050E061E070E085EA01
:100F600096E00E9425156091690670E06F5F7F4FE3
:100F70004AE050E085EA96E00E9403206AE475E0CA
:100F800085EA96E00E943F1F61E776E085EA96E0F9
:100F90000E943F1F6DE475E085EA96E00E943F1FC6
:100FA00060916A0670E06F5F7F4F4AE050E085EA2B
:100FB00096E00E9403206AE475E085EA96E00E94CC
:100FC0003F1F6AE776E085EA96E00E943F1F6CE4E7
:100FD00075E085EA96E00E943F1F62E085EA96E0B0
:100FE0000E94191560911701709118014AE050E0B4
:100FF00085EA96E00E94352063E372E085EA96E098
:101000000E941B1F61E085EA96E00E94191560911D
:101010001101709112014AE050E085EA96E00E94C9
:1010200035206FE475E085EA96E00E943F1F6091ED
:10103000130170911401660F771F660F771F4AE046
:1010400050E085EA96E00E94352061E575E085EA8A
:1010500096E00E943F1F80910E01882319F06DE2F7
:1010600072E064C068E575E085EA96E00E943F1F83
:1010700085EA96E00E944E1A25C385EA96E00E9412
:10108000BA1840E050E060E070E085EA96E00E9427
:10109000131540E050E061E070E085EA96E00E94C0
:1010A000251562E085EA96E00E9419156091170106
:1010B000709118014AE050E085EA96E00E943520E0
:1010C00066E272E085EA96E00E941B1F61E085EA15
:1010D00096E00E94191560911101709112014AE089
:1010E00050E085EA96E00E9435206FE475E085EADD
:1010F00096E00E943F1F6091130170911401660FEA
:10110000771F660F771F4AE050E085EA96E00E945D
:10111000352061E575E085EA96E00E943F1F8091E9
:101120000E01882309F49ECF60E272E085EA96E022
:101130000E941B1F9DCF85EA96E00E94BA1840E0EE
:1011400050E060E070E085EA96E00E941315E091BF
:1011500060068E2F90E0FC013297EB31F10508F02C
:101160006EC2EC5CFF4F0C94342940E050E061E02B
:1011700070E085EA96E00E9425156EE072E085EA4F
:1011800096E00E944C1F00E010E080915F0690E026
:101190008017910729F441E050E060E070E004C05E
:1011A00040E050E061E070E085EA96E00E9425159D
:1011B000802F0E94D11A7C010F5F1F4F4AE050E040
:1011C000B80185EA96E00E9403206AE475E085EAAA
:1011D00096E00E943F1FB70185EA96E00E945E1FDD
:1011E000C7010E94E9290330110579F641CF40E09B
:1011F00050E061E070E085EA96E00E9425156BEF13
:1012000071E077C068EE71E03FC065ED71E085EA9E
:1012100096E00E944C1F60915B06809169060E94D7
:10122000461B0E940B1B8C0190915B06692F70E09E
:101230006F5F7F4F4AE050E085EA96E00E9403200E
:101240006AE475E085EA96E00E943F1FB80185EAEE
:1012500096E00E945E1F6DE475E085EA96E00E94CC
:101260005E1F63EC71E085EA96E00E944C1FC801A6
:101270000E94E92980915F060E940B1B8C019091CE
:101280005B06F5C06EEA71E085EA96E00E944C1FAD
:1012900040E050E061E070E085EA96E00E942515AC
:1012A00060915F06809169060E94461BDBC06AE977
:1012B00071E085EA96E00E944C1F80915F060E94D3
:1012C0000B1B8C0190915B06692F70E06E5F7F4F66
:1012D000D2C06BE871E0D8CF69E771E0BDC040E0F3
:1012E00050E061E070E085EA96E00E94251569E62D
:1012F00071E085EA96E00E944C1F80916106909112
:101300006206181619065CF580915E06E0915C068F
:10131000F0915D06E80FF11D8081811102C080E22D
:10132000808380915E06E0915C06F0915D06E80F97
:10133000F11D80818A3711F488ED808380915E06EB
:10134000E0915C06F0915D06E80FF11D80818A371F
:1013500010F48F5F80831092620610926106809174
:1013600061069091620697FF15C080915E06E0913C
:101370005C06F0915D06E80FF11D8081883D11F457
:101380008AE703C0813210F0815080831092620698
:101390001092610660915C0670915D0685EA96E0A8
:1013A0000E945E1F60915E0686E0689FB001112476
:1013B00001E010E026E030E04FE050E085EA96E002
:1013C0000E94361555CE40E050E061E070E085EABD
:1013D00096E00E94251569E571E085EA96E00E9495
:1013E0004C1F6DE475E085EA96E00E945E1F4AE0BE
:1013F00050E060915F0685EA96E00E942E2063E54A
:1014000071E018C140E050E061E070E085EA96E0EC
:101410000E94251566E471E085EA96E00E944C1F63
:101420006DE475E085EA96E00E945E1F60915F06BC
:1014300070E06E5F7F4F4AE050E085EA96E00E94E0
:101440000A2016CE40E050E061E070E085EA96E0C8
:101450000E94251564E371E085EA96E00E944C1F26
:1014600080915F060E940B1B8C0190915F06692F93
:1014700070E06F5F7F4F4AE050E085EA96E00E949F
:1014800003206AE475E085EA96E00E943F1FB801F8
:1014900085EA96E00E945E1FC8010E94E929E8CD16
:1014A0008091610690916206181619068CF480915D
:1014B000590690915A06019690935A0680935906C0
:1014C0009093100180930F011092620610926106B2
:1014D000809161069091620697FF11C08091590634
:1014E00090915A06019790935A06809359069093CB
:1014F000100180930F01109262061092610640E085
:1015000050E061E070E085EA96E00E94251563E214
:1015100071E085EA96E00E944C1F6DE475E085EA73
:1015200096E00E945E1F6091590670915A064AE04B
:1015300050E085EA96E00E9435206EE171E07AC0C5
:1015400040E050E061E070E085EA96E00E942515F9
:1015500064E171E085EA96E00E944C1F69E071E069
:1015600085EA96E00E944C1F60E071E085EA96E013
:101570000E941B1F4AE050E061E070E085EA96E0BF
:101580000E9403206AE475E085EA96E00E943F1F0E
:101590004AE050E060E070E085EA96E00E940A20B0
:1015A00065EF70E085EA96E00E941B1F40914006BF
:1015B0005091410660914206709143062AE030E066
:1015C00085EA96E00E94212062EF70E085EA96E0CD
:1015D0000E944C1F67EE70E085EA96E00E941B1F98
:1015E0004091060150910701609108017091090135
:1015F0002AE030E085EA96E00E94212064EE70E067
:1016000085EA96E00E944C1F69ED70E085EA96E05D
:101610000E941B1F40913C0650913D0660913E0682
:1016200070913F062AE030E085EA96E00E94212092
:1016300066ED70E085EA96E00E944C1F19CD00E04F
:1016400010E0E091600684E0E89FF0011124E35A85
:10165000FA4F808190E0081719070CF009CD8091AE
:101660005F0690E08017910729F441E050E060E0C8
:1016700070E004C040E050E061E070E085EA96E090
:101680000E942515E091600684E0E89FF001112496
:10169000E35AFA4FC801880F991F0280F381E02DA9
:1016A000E80FF91F65917491CE0101960E94862A78
:1016B000BE016F5F7F4F85EA96E00E945E1F0F5F5D
:1016C0001F4FBFCF6E960FB6F894DEBF0FBECDBFD3
:1016D000DF91CF911F910F91FF90EF900895CF93DD
:1016E000DF93CDB7DEB72B970FB6F894DEBF0FBEF2
:1016F000CDBF0FB6F894A895809160008861809363
:101700006000109260000FBE62E082E00E94CD2374
:1017100062E086E00E94CD2362E085E00E94CD2356
:1017200062E083E00E94CD2362E087E00E94CD2347
:1017300061E08BE00E94CD2361E08DE00E94CD232B
:1017400061E084E00E94CD232091170130911801BF
:1017500040E050E060E67AEE80E090E00E941529DB
:10176000CA01B9010E94E62720E030E040EC51E4D4
:101770000E943C27609348067093490680934A066E
:1017800090934B06F89414BC15BC16BC83E085BD41
:1017900080916E00816080936E00789441E050E00B
:1017A00063E175E080E00E94362321E04DE362E0D2
:1017B00085EA96E00E94341926E042E15AE760E0AB
:1017C00070E086ED96E00E94F01D0E94A70685EA73
:1017D00096E00E94BA1861E085EA96E00E94191529
:1017E00061E070E085EA96E00E941F159FE088E1C5
:1017F0000FB6F894A895809360000FBE9093600098
:101800000E944B060E9410060E94210611E006E18C
:1018100099E1E92E28EBC22EDD24D3943AE1B32ED0
:101820004BE1A42E57E1952E68E1862EFF24FA9411
:1018300070E6272E7AEE372E412C512C80915406DB
:1018400090915506A0915606B09157068093440694
:1018500090934506A0934606B093470660E070E07B
:1018600085E090E00E94860561E070E083E090E012
:101870000E94860562E070E087E090E00E948605A5
:10188000809193068823F9F080917006813099F455
:10189000E0916006E11103C01092700612C044E0AE
:1018A000E49FF0011124E35AFA4F8181809360068E
:1018B00010925F0606C01093700610925F06109299
:1018C00060061093190180917006882321F0813001
:1018D00009F46FC0B7C380911A01882319F08130D1
:1018E00069F1B0C3809161069091620618161906DD
:1018F0002CF480916A068D3108F43BC48091610616
:101900009091620697FF04C080916A0681113DC4E0
:101910008091840690E09093180180931701809144
:10192000850690E0909314018093130180918606C0
:1019300090E0909312018093110130C08091610674
:10194000909162061816190694F4809117019091EF
:1019500018018F3F910528F4019690931801809308
:10196000170110926206109261061093190180917E
:1019700061069091620697FF11C0809117019091C6
:101980001801009729F0019790931801809317018F
:1019900010926206109261061093190180918906D7
:1019A000882309F44FC380910E01812780930E0193
:1019B00047C380916106909162061816190614F5C6
:1019C00080915F06E091600694E0E99FF0011124A8
:1019D000E35AFA4F9081482F50E0292F30E02150F0
:1019E00031094217530724F48F5F80935F0602C0CA
:1019F00010925F06992321F0109262061092610600
:101A000010931901809161069091620697FF1FC0A3
:101A100080915F06E0916006811107C044E0E49F79
:101A2000D0011124A35ABA4F8C91815080935F0644
:101A300084E0E89FF0011124E35AFA4F8081882363
:101A400021F01092620610926106109319018091A4
:101A50009D06882309F4F6C2E09160068E2F90E07F
:101A60008C31910508F0ECC2FC01E15BFF4F0C9456
:101A7000342980915F06813081F050F0823009F482
:101A8000DBC2833009F0DCC210925F068CE199C0A2
:101A900010925F0610936006D3C210925F068DE02D
:101AA00090C080915F06813061F038F0823009F09B
:101AB000C7C210925F068CE084C010925F0682E07D
:101AC00080C010925F0683E07CC080915F068093A7
:101AD000690610926A060E9410060E942106109262
:101AE0007006AEC280915F06882339F0813009F01C
:101AF000A7C210925F0685E064C010925F0684E082
:101B000080936006809169060E94D11A90935D06C9
:101B100080935C062EC080915E06E0915C06F09199
:101B20005D06E80FF11D9081983DE9F41082609107
:101B30005C0670915D06809169060E94D01B8091C1
:101B40005C0690915D060E94E929E091600694E0B0
:101B5000E99FF0011124E35AFA4F818180936006D6
:101B600010925F06C7C0883020F44FC18A3008F455
:101B70004CC110925E0664C280915F06813071F0A4
:101B800048F0823079F0833009F05AC210925F0633
:101B90008BE017C010925F0686E007C010925F06C8
:101BA00088E003C010925F068AE08093600610927E
:101BB0005B0646C280915F0680935B0610925F06CB
:101BC00087E0809360063CC240915F0660915B06AF
:101BD000809169060E94F21B80915B0680935F06EC
:101BE00010925B0686E037C080915F0680935B06AB
:101BF00010925F0689E0E5CF8DE1682E712C60912F
:101C00005B06862F90E001968615970584F46FEFAA
:101C1000660D809169060E94461B482F662D8091B3
:101C200069060E94F21B41E0641A7108E8CF6F5FF9
:101C300040915F06809169060E94F21B10925F0638
:101C400010925B06E091600684E0E89FF0011124A9
:101C5000E35AFA4F8181809360060E942106F0C109
:101C600020915F06622E712C4DE16416710434F7E9
:101C700061E0660D809169060E94461B482F662D23
:101C8000809169060E94F21B9FEF691A790AECCFD6
:101C900080915F06813009F0D5C0612C4FEF662D31
:101CA000809169060E94F21B63944EE16412F6CFA4
:101CB000C9C080915F06813001F1F98248E050E0AF
:101CC000BE016F5F7F4FCB010E94A32ABE016F5FF1
:101CD0007F4F809169060E94D01B10925F06E091B1
:101CE000600684E0E89FF0011124E35AFA4F8181F5
:101CF000809360060E941006A3C1612C4FEF662DF1
:101D0000809169060E94F21B63949EE16912F6CFEE
:101D1000D4CF80915F06882339F0813009F090C1DB
:101D200010925F0684E14DCF10925F068EE049CF9E
:101D300080915F068093580610925F068FE041CF36
:101D400090915F069130F9F080F0923031F193304C
:101D500009F076C183E180936006809158060E9465
:101D6000681B80935B06825031C010925F0680E151
:101D700080936006809158060E940B1B90935D062D
:101D800080935C065DC181E1809360068091580676
:101D90000E94561B80935B0619C082E18093600607
:101DA000809158069B870E945D1B80935B069B85F4
:101DB000823031F0843039F0813009F041C1EAC01D
:101DC00010935F063DC190935F063AC180935F0612
:101DD00037C180915E06E0915C06F0915D06E80FE8
:101DE000F11D9081983D09F0C1CE108260915C0692
:101DF00070915D06809158060E94001C80915C06DF
:101E000090915D060E94E9292FC08F5F80935E0646
:101E100017C160915F06809158060E94201C0ECF6A
:101E200080915F06813039F020F0823049F464E01F
:101E300003C061E001C062E0809158060E94271C47
:101E400010925B0610925F06E091600694E0E99FB5
:101E5000F0011124FDCE60915F066E5F80915806FF
:101E60000E942E1C10925B0610925F06E0916006A5
:101E700044E0E49FF0011124EBCE80915F06809353
:101E8000580610925F0685E19CCE80915F068130F6
:101E9000C9F6F9824AE050E0BE016F5F7F4FCB0187
:101EA0000E94A32ABE016F5F7F4F809158060E9457
:101EB000001C6FEF809158060E94201C6FEF8091EC
:101EC00058060E94271C6FEF809158060E942E1C16
:101ED000B9CF80915F06823079F128F4882361F0D0
:101EE0008130D1F0ADC0833009F444C0843009F0B2
:101EF000A7C0A09260064EC08BEF91E00E942B0518
:101F000080935B068F3F19F080935F0602C01092AA
:101F10005F069092600694C08CEF91E00E942B05C2
:101F200080935B068F3F19F080935F0602C010928A
:101F30005F068092600684C08EEF91E00E94731B62
:101F40009C012F5131092435334128F490935A06CE
:101F50008093590604C0D0925A06C09259068091C7
:101F6000590690915A069093100180930F01E092C8
:101F7000600666C08DEF91E00E942B0580935B06A2
:101F80008F3F19F080935F0602C010925F06B092F7
:101F9000600656C010925F0653C060915F06609362
:101FA0001A018BEF91E034C061E080915F068111EE
:101FB00001C060E060936B068CEF91E00E94881B8B
:101FC00010925F06E091600694E0E99FF001112411
:101FD00029C06091590670915A0670931001609360
:101FE0000F018EEF91E00E94A41B10925F06E0911A
:101FF000600644E0E49FF001112414C061E0809188
:102000005F06811101C060E0609368068DEF91E08A
:102010000E94881B10925F06E091600684E0E89FB2
:10202000F0011124E35AFA4F8181CBCD80915F06F4
:10203000813011F40E947C0610925F0600936006C6
:1020400010931901209117013091180180916E06AB
:1020500090916F068217930771F140E050E0C20142
:10206000B1010E941529CA01B9010E94E62720E0AA
:1020700030E040EC51E40E943C2720E030E04AE7A9
:1020800054E40E94722860936406709365068093FE
:102090006606909367060E94AE27AB01BC0180EDF7
:1020A00096E00E94BF1C80911701909118019093B7
:1020B0006F0680936E0680911901882321F00E949B
:1020C0008107109219018091540690915506A091B4
:1020D0005606B091570640914406509145066091CE
:1020E000460670914706841B950BA60BB70B809391
:1020F000400690934106A0934206B0934306409158
:102100003C0650913D0660913E0670913F0648178F
:1021100059076A077B0740F480933C0690933D067D
:10212000A0933E06B0933F064091060150910701EF
:10213000609108017091090184179507A607B707F8
:1021400040F48093060190930701A0930801B09397
:10215000090186E00E9439243C0182E00E94392472
:102160006816790621F41092620610926106A8950D
:1021700065CB8F5F80936A060E94210610926206EB
:102180001092610610931901B9CB815080936A06B1
:102190000E942106109262061092610610931901A6
:1021A000B7CB2091630630E0609113017091140168
:1021B00088E190E00E94DF282617370798F11092F7
:1021C000630620916C0630916D068091110190910B
:1021D000120101972817390728F010926D06109206
:1021E0006C0609C080916C0690916D0601969093E3
:1021F0006D0680936C0680910E018823C1F080915A
:102200006C0690916D062091150130911601892B75
:10221000B9F480916B06811113C040E050E06AEB85
:1022200072E014C0809163068F5F80936306809193
:102230006806882379F068EF86ED96E00C94A91D76
:1022400040E050E060910F01709110018BE00E941E
:102250003B20EDCF08951F920F920FB60F921124DD
:10226000CF92DF92EF92FF922F933F934F935F9322
:102270006F937F938F939F93AF93BF93EF93FF934E
:102280008091540690915506A0915606B09157063C
:102290000196A11DB11D8093540690935506A093FD
:1022A0005606B09357068091500690915106A09122
:1022B0005206B09153060196A11DB11D80935006A0
:1022C00090935106A0935206B093530680914C060A
:1022D00090914D06A0914E06B0914F060196A11D1A
:1022E000B11D80934C0690934D06A0934E06B0937B
:1022F0004F06C0904C06D0904D06E0904E06F090F0
:102300004F06CC0CDD1CEE1CFF1C60914806709142
:10231000490680914A0690914B060E94AE27C61648
:10232000D706E806F90650F010924C0610924D06BA
:1023300010924E0610924F060E94D110FF91EF911D
:10234000BF91AF919F918F917F916F915F914F91CD
:102350003F912F91FF90EF90DF90CF900F900FBEA5
:102360000F901F90189580E090E0089508952F92A7
:102370003F924F925F926F927F928F929F92AF9215
:10238000BF92CF92DF92EF92FF920F931F93CF9362
:10239000DF9300D01F92CDB7DEB74C017B836A83F9
:1023A0006A01590117019801241B350B37FF03C03F
:1023B000319521953109C5014A815B81841B950BBB
:1023C00097FF03C091958195910951E05983821738
:1023D000930714F019820BC09A2D8B2D5801092FE9
:1023E000182F9A818B81DB82CA82C92ED82E8A81CE
:1023F0009B81A816B9065CF49C2D8D2D6801092FD0
:10240000182F9A818B81BB82AA82A92EB82E250112
:10241000AA81BB814A1A5B0A38016C187D0877FED5
:1024200003C0719461947108720157FE03C0BFEF3D
:10243000EB1AFB0AF594E794C016D1061CF00FEFD7
:102440001FEF1FC001E010E01CC0D401ED91FC9112
:10245000B9810084F185E02D9101BB23C1F04A814F
:102460005B81B601C4010995E618F708F7FE04C0C0
:10247000C00ED11EE40CF51CEA81FB813196FB8372
:10248000EA834A815B81A416B506FCF604C0A60166
:102490006A817B81E7CF0F900F900F90DF91CF91F2
:1024A0001F910F91FF90EF90DF90CF90BF90AF9072
:1024B0009F908F907F906F905F904F903F902F9064
:1024C00008956F927F928F929F92AF92BF92CF9218
:1024D000DF92EF92FF920F931F93CF93DF93EC0164
:1024E0004B015A0169013801E881F9810684F785B9
:1024F000E02D87010995E881F981A501460D571D59
:10250000415051090684F785E02D9601B401CE01B2
:102510000995E881F9810484F585E02D9301A501F1
:10252000B401CE010995E881F981C80CD91CB60126
:10253000615071090484F585E02D9301A501CE0158
:102540000995DF91CF911F910F91FF90EF90DF9050
:10255000CF90BF90AF909F908F907F906F90089595
:10256000EF92FF920F931F937801DC01ED91FC91A4
:10257000240F351F8901015011090284F385E02DD4
:102580009B0109951F910F91FF90EF900895EF9295
:10259000FF920F931F93DC01ED91FC91260F371FE3
:1025A000215031090284F385E02D78018A010995D3
:1025B0001F910F91FF90EF9008956F927F928F92ED
:1025C0009F92AF92BF92CF92DF92EF92FF920F93C2
:1025D0001F93CF93DF936C015A014801EB013B013C
:1025E000620E731EC615D70574F4D601ED91FC91E9
:1025F0000484F585E02D87019401A501BE01C60183
:1026000009952196EFCFDF91CF911F910F91FF9008
:10261000EF90DF90CF90BF90AF909F908F907F9082
:102620006F900895EF92FF920F931F93DC01ED914D
:10263000FC9111971A960D911C911B9718962D914C
:102640003C9119970288F389E02D7B0140E050E02E
:1026500060E070E009951F910F91FF90EF90089551
:102660000895FC011382128285ED95E091838083A9
:102670007583648357834683718760875387428756
:10268000158A158614861786168681E0848B2FEFAF
:102690003FEF338B228B318B208B868B08952F92CB
:1026A0003F924F925F926F927F928F929F92AF92E2
:1026B000BF92CF92DF92EF92FF920F931F93CF932F
:1026C000DF93CDB7DEB728970FB6F894DEBF0FBE05
:1026D000CDBF4C011B012A013901FC82EB82C801EC
:1026E000079697FD07969C0193E0359527959A9557
:1026F000E1F73A832983A12CB12CE12CF12CEB8159
:10270000FC81EE16FF060CF047C018861F82970169
:10271000240D351D3E832D838F8198858017910769
:102720009CF5EF81F885F7FD379683E0F595E79501
:102730008A95E1F7EA0DFB1DE60DF71DE491F0E047
:102740008F81988587709927A0E8B0E002C0B59581
:10275000A7958A95E2F7EA23FB23EF2B79F0D401C2
:10276000ED91FC910084F185E02D96014D815E8113
:102770006F817885620D731DC4010995EF81F8851D
:102780003196F887EF83C8CF9FEFE91AF90AA9813C
:10279000BA81AA0EBB1EB3CF28960FB6F894DEBF3F
:1027A0000FBECDBFDF91CF911F910F91FF90EF90A2
:1027B000DF90CF90BF90AF909F908F907F906F9061
:1027C0005F904F903F902F9008952F923F924F929D
:1027D0005F926F927F928F929F92AF92BF92CF92B1
:1027E000DF92EF92FF920F931F93CF93DF93CDB7BA
:1027F000DEB72D970FB6F894DEBF0FBECDBFDC015C
:102800001896ED91FC9119976E177F070CF09CC0FC
:102810001A96ED91FC911B974E175F070CF094C030
:102820008C2C912CFB01B6E0CB9EE00DF11D112408
:102830001E161F060CF088C0F40133E0EE0FFF1FD8
:102840003A95E1F7E40FF51F1E161F060CF07CC049
:10285000CF82FE82ED821C830B831A015C01E5E0CE
:102860002E9F900111247D876C873B011A82A9015C
:10287000461B570B59874887C10108969B878A8753
:102880009A81953049F0E885F985E60DF71DE759FD
:10289000FB4FA491A98301C0198221016101B98173
:1028A000B0FF12C0D501ED91FC91BF81B13031F480
:1028B0000084F185E02D2B813C8118C00288F389CA
:1028C000E02DEB80FC801CC0ED81FE812B813C81E2
:1028D000E217F307E1F0D501ED91FC91BF81B13032
:1028E00051F40084F185E02D2D813E81A201B301D8
:1028F000C50109950CC00288F389E02DED80FE80AA
:1029000084019401A6016C857D85C5010995E98145
:10291000E695E983FFEF4F1A5F0AC80CD91C2A8598
:102920003B854216530609F0BACF3A813F5F3A839E
:102930004FEF641A740A8C859D85880D991D9D87BB
:102940008C87363009F09CCF2D960FB6F894DEBFF9
:102950000FBECDBFDF91CF911F910F91FF90EF90F0
:10296000DF90CF90BF90AF909F908F907F906F90AF
:102970005F904F903F902F900895CF92EF92FF92EB
:102980000F931F93CF93DF93EC016A3059F42C8996
:102990008E859F8538E0239F800D911D11249F8790
:1029A0008E8735C06D30A9F1262FEA88FB8808890B
:1029B00019894E855F856C857D85CC880E94E513DD
:1029C0004C89242F30E08C859D8556E0459F800DF5
:1029D000911D11249D878C874E894423D1F04AEFA5
:1029E0004203B001439F700D112448855985460F5D
:1029F000571F481759076CF483E0220F331F8A953D
:102A0000E1F78E859F85280F391F3F872E871D860A
:102A10001C8681E090E0DF91CF911F910F91FF9094
:102A2000EF90CF900895FC0175876487578746879C
:102A30000895611101C061E0FC01648B0895FC01FF
:102A4000738B628B718B608B0895FC01718B608B33
:102A5000538B428B0895FC0185890895FC01808584
:102A600091850895FC018285938508950F931F93A6
:102A7000CF93DF93DC01FB0155968C915597823003
:102A800089F0833021F1813009F0E6C014968D91F0
:102A90009C911597BC01641B750BAB01415051090A
:102AA000BF011DC014966D917C911597CB018E1BB3
:102AB0009F0BFC0116968D919C911797BC01641B8E
:102AC000750BAB0141505109E21BF30BC5C01696C3
:102AD0006D917C9117976E1B7F0B621B730B57FDDB
:102AE0001AC114968D919C911597481759070CF0AF
:102AF00012C177FF04C0260F371F60E070E0169602
:102B00008D919C911797FB01E20FF31F8E179F0782
:102B10001CF49C01261B370B121613060CF0FBC08D
:102B2000A22F862F86958695869590E8899F400DE1
:102B3000511D1124FA01E55DFE4F6770A9F198E07F
:102B4000961B492F50E0EA01CD5DDE4F88812917A1
:102B500090F4421B51092FEF30E002C035952795C4
:102B60004A95E2F782230130110541F068F0023006
:102B7000110589F0D0C00130110519F42081822B94
:102B80000CC00130110520F480952081822305C0FE
:102B90000230110531F4208182278083A91708F4BF
:102BA000BAC0A91BE058FF4FA83048F10230110508
:102BB00059F4EF018A2F988190959883C058DF4F80
:102BC00088508830C0F732C081E00130110509F02B
:102BD00080E08195EF019A2F8883C058DF4F98508D
:102BE0009830D0F788EF8A0F86958695869560E8AD
:102BF000869FE00DF11D1124E058FF4FA770AA2316
:102C000009F489C0B0E0A55EBE4F8C91013011057A
:102C100029F038F002301105E1F07DC09081892B58
:102C200003C0809590818923808375C088EF8A0FC7
:102C300086958695869570E8879FE00DF11D112495
:102C4000E058FF4FA77009F466C0B0E0A55EBE4F24
:102C50008C9190818927E8CF57FD5DC016968D91A4
:102C60009C911797481759070CF055C0F7FF04C0FF
:102C70002E0F3F1FE0E0F0E014968D919C91159788
:102C8000BF01620F731F861797071CF49C012E1B50
:102C90003F0B121613060CF03EC0CA0157FD0796F3
:102CA00063E0959587956A95E1F79695982F882723
:102CB00097958795E80FF91FE55DFE4F47705527FB
:102CC00081E090E001C0880F4A95EAF7482F013073
:102CD000110539F078F002301105E9F42E0F3F1F8D
:102CE00013C02E0F3F1FE217F307A9F08081842B3A
:102CF0008193F9CF80952E0F3F1FE217F30759F00C
:102D0000908198239193F9CFE217F30721F0808106
:102D100084278193F9CFDF91CF911F910F9108956F
:102D20000F931F93CF93DF93DC0155968C915597AA
:102D3000823071F0833009F1813009F08CC0149633
:102D4000ED91FC911597E41BF50BE21BF30B20C0F2
:102D50001496ED91FC911597CF01861B970BBC0142
:102D6000615071091696ED91FC911797CF01841B64
:102D7000950BAC01421B530B6EC01696ED91FC9166
:102D80001797CF01861B970BBC0161507109FA019F
:102D900077FD1BC116968D919C911797681779073F
:102DA0000CF013C1F7FF04C02E0F3F1FE0E0F0E06E
:102DB00014968D919C911597AF01420F531F841764
:102DC00095071CF49C012E1B3F0B121613060CF0EA
:102DD000FCC0CB0177FD079643E0959587954A9512
:102DE000E1F79695982F882797958795E80FF91F13
:102DF000E55DFE4F6770772781E090E001C0880FA6
:102E00006A95EAF7482F0130110541F088F0023049
:102E1000110509F0DAC02E0F3F1F15C02E0F3F1FFE
:102E2000E217F30709F4D1C08081842B8193F8CF96
:102E300080952E0F3F1FE217F30709F4C6C090815B
:102E400098239193F8CFE217F30709F4BEC080816D
:102E500084278193F8CF77FDB8C014968D919C910B
:102E60001597681779070CF0B0C057FF04C0240FFE
:102E7000351F40E050E016968D919C911797FA010E
:102E8000E20FF31F8E179F071CF49C01241B350BC8
:102E9000121613060CF099C0A22F842F86958695E2
:102EA000869590E8899F600D711D1124FB01E55DF9
:102EB000FE4F4770A9F198E0941B492F50E0EA01BA
:102EC000CD5DDE4F8881291790F4421B51092FEF09
:102ED00030E002C0359527954A95E2F7822301300C
:102EE000110541F068F00230110589F06EC0013023
:102EF000110519F42081822B0CC00130110520F43A
:102F000080952081822305C00230110531F4208193
:102F100082278083A91708F458C0A91BE058FF4FE7
:102F2000A83048F10230110559F4EF018A2F988139
:102F300090959883C058DF4F88508830C0F730C0D4
:102F400081E00130110509F080E08195EF019A2FB1
:102F50008883C058DF4F98509830D0F788EF8A0F99
:102F600086958695869590E8899FE00DF11D112440
:102F7000E058FF4FA770AA2341F1B0E0A55EBE4F15
:102F80008C910130110529F038F002301105D1F093
:102F90001CC09081892B18C080959081892314C012
:102FA00088EF8A0F86958695869590E8899FE00D33
:102FB000F11D1124E058FF4FA77039F0B0E0A55E75
:102FC000BE4F8C91908189278083DF91CF911F9193
:102FD0000F910895CF92DF92EF92FF920F931F937C
:102FE000CF93DF937C018B01EA01690177FDA0C0DB
:102FF0000E942E15081719070CF09AC0D7FD98C02B
:10300000C7010E943215C817D9070CF091C0C7013B
:103010000E942B15823009F07FC0F7016481758111
:10302000CB01801B910B8C01015011094681578106
:10303000FA01EC1BFD0BEF0121970BC0813049F425
:10304000F701848195818C1B9D0BE8018C01015057
:103050001109F1E0CF16D10431F010F182E0C81669
:10306000D104E1F165C0FE01D7FD379643E0F59547
:10307000E7954A95E1F7F695FE2FEE27F795E79548
:103080000E0F1F1FF801E55DFE4FC770DD2781E0C1
:1030900090E001C0880FCA95EAF79081892B3AC069
:1030A000FE01D7FD379623E0F595E7952A95E1F7E0
:1030B000F695FE2FEE27F795E7950E0F1F1FF801E7
:1030C000E55DFE4FC770DD2781E090E001C0880F0D
:1030D000CA95EAF78095908189231CC0FE01D7FD2F
:1030E000379683E0F595E7958A95E1F7F695FE2FFB
:1030F000EE27F795E7950E0F1F1FF801E55DFE4FD0
:10310000C770DD2781E090E001C0880FCA95EAF71B
:103110009081892780830CC0833009F08FCFF7011D
:1031200086819781801B910B8E01EC01219791CFB5
:10313000DF91CF911F910F91FF90EF90DF90CF9093
:1031400008951F93CF93DF93EC01162F40E450E0D6
:1031500060E870E00E94311381EF95E099838883E5
:103160008FEF898F8D8F8B8F8A8F1C8FDF91CF91FF
:103170001F91089580E094E0EBE2F1E0DF019C0113
:103180001D9221503040E1F70895FC01868D88237F
:1031900039F06EBD00000DB407FEFDCF8EB5089569
:1031A00028E030E090E8A1A1B2A14C9180A58095E3
:1031B00084238C93A78DB0A187A1492F462319F0B2
:1031C0004C91842B03C04C91809584238C93A1A1B6
:1031D000B2A14C9180A5842B8C93969521503109F6
:1031E00011F708951F93CF93DF93EC01162F898D6C
:1031F0008F3F09F1EBA1FCA1908189A5892B8083E8
:10320000EDA1FEA190818AA5809589238083EBA101
:10321000FCA1908189A5809589238083CE010E949D
:10322000C518EBA1FCA1908189A5892B8083DF9132
:10323000CF911F9108958F89682F880F770B89E8A8
:1032400097E00E94472560E089E897E00E94F42417
:10325000612F89E897E00E94F42489E897E0DF91E4
:10326000CF911F910C945C250F931F93CF93DF9305
:10327000EC01162F022F688F4F8B898D8F3F09F439
:1032800077C061E08B8D0E94CD2361E08D8D0E941F
:10329000CD238D8D082E000C990BFC01E756F64FBF
:1032A000E491F0E0EE0FFF1FE954F64F25913491C1
:1032B0003CA32BA3FC01EB57F64FE491E9A78B8DC0
:1032C000082E000C990BFC01E756F64FE491F0E054
:1032D000EE0FFF1FE954F64F259134913EA32DA325
:1032E000FC01EB57F64FE491EAA78E8D811134C0B3
:1032F00061E0898D0E94CD2361E08A8D0E94CD23FB
:103300008A8D082E000C990BFC01E756F64FE491CC
:10331000F0E0EE0FFF1FE954F64F259134913AA3E8
:1033200029A3FC01EB57F64FE491E8A7898D082EFD
:10333000000C990BFC01E756F64FE491F0E0EE0F1C
:10334000FF1FE954F64F2591349138A32F8FFC01CC
:10335000EB57F64FE491EFA38E8D882369F00E941E
:1033600062248CB58C7F8CBD8DB581608DBD04C011
:1033700089E897E00E9433250023E1F061E08C8D1D
:103380000E94CD2361E08C8D0E94092461E070E0F1
:1033900080E090E00E944D0560E08C8D0E94092441
:1033A0006AE070E080E090E00E944D0561E08C8D65
:1033B0000E9409246EEACE010E94F21865EDCE014A
:1033C0000E94F21860E8CE010E94F21868EACE016D
:1033D0000E94F2186FE3CE010E94F21863EDCE0155
:1033E0000E94F21860E0CE010E94F21860E4CE0163
:1033F0000E94F2186DE8CE010E94F218113011F40B
:1034000060E101C064E1CE010E94F21860E2CE01E9
:103410000E94F21860E0CE010E94F21861EACE012B
:103420000E94F21868ECCE010E94F2186AEDCE01FB
:103430000E94F21862E1CE010E94F21861E8CE010A
:103440000E94F218113011F46FE901C06FECCE0147
:103450000E94F21869EDCE010E94F218113011F4A9
:1034600062E201C061EFCE010E94F2186BEDCE0165
:103470000E94F21860E4CE010E94F21864EACE01C4
:103480000E94F21866EACE010E94F2186FEACE019D
:10349000DF91CF911F910F910C94F218DF92EF9270
:1034A000FF920F931F93CF93DF93EC0161E20E9491
:1034B000F21860E0CE010E94F2186FE7CE010E9480
:1034C000F21862E2CE010E94F21860E0CE010E9482
:1034D000F21867E0CE010E94F218898D8F3F31F11A
:1034E000EBA1FCA1908189A5892B8083EDA1FEA190
:1034F00090818AA5892B8083EBA1FCA1908189A56D
:103500008095892380830BE211E0F80161918F019E
:10351000CE010E94C518F5E00B321F07B1F7EBA1F1
:10352000FCA1908189A5892B808331C0D090B800FF
:103530008CE08093B8000BE211E06F89062E000C3E
:10354000770B89E897E00E94472560E489E897E0D7
:103550000E94F424E12CF12CF801EE0DFF1D608196
:1035600089E897E00E94F4248FEFE81AF80AE0E176
:10357000EE16F10489F789E897E00E945C25005F68
:103580001F4FF5E00B321F07C1F6D092B800DF9154
:10359000CF911F910F91FF90EF90DF9008950C94C1
:1035A000B22ACF92DF92EF92FF920F931F93CF93A5
:1035B000DF93C82F88E090E00E9454298C0186E2B6
:1035C000C89FE0011124CA57DE4FCE010E94CF1AD6
:1035D0008F3F41F448E050E06AE679E0C8010E947C
:1035E0008D2A0FC078016801E8E0CE0ED11CCE0113
:1035F0000E94CF1AF70181937F012196EC15FD05FA
:10360000B1F7C801DF91CF911F910F91FF90EF901B
:10361000DF90CF900895CF92DF92EF92FF920F93B9
:103620001F93CF93DF93C82F8AE090E00E94542924
:103630008C018DE0C89FE0011124CE010E94CF1AB9
:103640008F3F41F44AE050E064E679E0C8010E940F
:103650008D2A12C06801EAE0CE0ED11C7801C01B91
:10366000D10BCE018E0D9F1D0E94CF1AF7018193C1
:103670007F01EC15FD05A9F7C801DF91CF911F91DE
:103680000F91FF90EF90DF90CF90089570E0625718
:103690007E4F9B0146E2849F200D311D1124C901FC
:1036A0000E94CF1A8F3F09F480E008952DE0829F99
:1036B000C00111240A960C94CF1A2DE0829FC001FC
:1036C00011240B960E94CF1A8F3F09F481E00895D0
:1036D0002DE0829FC00111240C960E94CF1A8F3FCB
:1036E00009F484E008951F93CF93DF93EC010E94C7
:1036F000CF1A182FCE0101960E94CF1A282F30E042
:10370000922F8827810F911DDF91CF911F910895EE
:103710000F931F93CF93DF931F92CDB7DEB78C012A
:1037200069830E94CF1A6981681741F0C8010F9020
:10373000DF91CF911F910F910C94BA2A0F90DF91D6
:10374000CF911F910F910895EF92FF921F93CF9306
:10375000DF931F92CDB7DEB77C01172F69830E94DC
:10376000CF1A6981681719F0C7010E94BA2A8FEF32
:10377000E81AF80AC7010E94CF1A181751F0612FF2
:10378000C7010F90DF91CF911F91FF90EF900C94A4
:10379000BA2A0F90DF91CF911F91FF90EF9008957B
:1037A000EF92FF920F931F93CF93DF9326E2829FB6
:1037B000C00111248C010A571E4FEB017B0188E0E8
:1037C000E80EF11C6991C8010E94881B0F5F1F4F12
:1037D000CE15DF05B9F7DF91CF911F910F91FF90C3
:1037E000EF900895262F30E022573E4F642FA90115
:1037F00076E2879F400D511D1124CA010C94881B4D
:10380000EF92FF920F931F93CF93DF939DE0899FD9
:10381000E00111248B017E01EAE0EE0EF11CF801BB
:1038200061918F01CE010E94881B2196CE15DF0584
:10383000B1F7DF91CF911F910F91FF90EF90089515
:103840002DE0829FC00111240A960C94881B2DE064
:10385000829FC00111240B960C94881B2DE0829F3F
:10386000C00111240C960C94881B0F931F93CF93C7
:10387000DF9309E010E0E80129976FEFCE010E9485
:10388000881B2196C017D107C1F760E0CE010E94C6
:10389000881B68E7CE0101960E94881B61E0CE017B
:1038A00002960E94881B64E0CE0103960E94881B4A
:1038B0008E01035F1F4F0F3881E01807E1F6DF919B
:1038C000CF911F910F910895EF92FF920F931F9345
:1038D000CF93DF93CDE8D1E08E01075011096FEF50
:1038E000C8010E94881B0F5F1F4F0C171D07B9F7F7
:1038F00060E0CE010E94881B8E010F5F1F4F7E018A
:103900008FE1E80EF11C6FEFC8010E94881B0F5F6A
:103910001F4F0E151F05B9F7A696CF3F81E0D807B8
:10392000D9F6DF91CF911F910F91FF90EF900895FD
:103930001F920F920FB60F9211242F933F934F9324
:103940005F936F937F938F939F93AF93BF93EF9307
:10395000FF93E091D406F091D5060995FF91EF9180
:10396000BF91AF919F918F917F916F915F914F9197
:103970003F912F910F900FBE0F901F901895FC0153
:10398000A3E0440F551F661F771FAA95D1F7411575
:10399000510581E06807710514F481E00EC033E041
:1039A00075956795579547953A95D1F74115510506
:1039B00081E0680771051CF482E0828331C023E056
:1039C00075956795579547952A95D1F741155105F6
:1039D00081E06807710514F483E0EFCF92E07595FC
:1039E0006795579547959A95D1F74115510581E00F
:1039F0006807710514F484E0E0CF82E0759567955F
:103A0000579547958A95D1F785E0828341155105F1
:103A100081E06807710524F04FEF5FEF60E070E030
:103A20008FB78383F89451834083509387004093EA
:103A3000860083818FBF80918100887F8093810081
:103A4000909181008281892B8093810008950E944A
:103A5000812AFC01918D228D892F90E0805C9F4FFF
:103A6000821B91098F7399270895FC01918D828D96
:103A7000981731F0828DE80FF11D858D90E0089543
:103A80008FEF9FEF0895FC01918D828D981761F063
:103A9000828DDF01A80FB11D5D968C91928D9F5F85
:103AA0009F73928F90E008958FEF9FEF0895FC0130
:103AB000538D448D252F30E0842F90E0821B930B93
:103AC000541710F0CF96089501970895FC01848D46
:103AD000DF01A80FB11DA35ABF4F2C91848D90E038
:103AE00001968F739927848FA689B7892C93A08913
:103AF000B1898C9180648C93938D848D981306C0CA
:103B00000288F389E02D80818F7D80830895CF9393
:103B1000DF93EC01888D8823C9F0EA89FB898081D5
:103B200085FD05C0A889B9898C9186FD0FC00FB6A7
:103B300007FCF5CF808185FFF2CFA889B9898C91E8
:103B400085FFEDCFCE010E94661DE7CFDF91CF91BB
:103B50000895EF92FF920F931F93CF93DF93EC01A1
:103B600081E0888F9B8D8C8D981305C0E889F98939
:103B7000808185FD24C0F62E0B8D10E00F5F1F4F56
:103B80000F731127E02E8C8DE8120CC00FB607FCC6
:103B9000FACFE889F989808185FFF5CFCE010E94AF
:103BA000661DF1CF8B8DFE01E80FF11DE35AFF4F2B
:103BB000F0820B8FEA89FB898081806207C0EE89E1
:103BC000FF896083E889F98980818064808381E04E
:103BD00090E0DF91CF911F910F91FF90EF900895AA
:103BE000CF92DF92EF92FF921F93CF93DF93EC017E
:103BF0006A017B01122FE889F98982E080834115EF
:103C0000514E61057105B1F060E079E08DE390E01F
:103C1000A70196010E94F328DA01C9010197A109C1
:103C2000B109B695A79597958795AC01411580E1A7
:103C30005807A8F0E889F989108260E874E88EE1F5
:103C400090E0A70196010E94F328BA01A901415012
:103C50005109610971097695679557954795EC85E6
:103C6000FD855083EE85FF854083188EEC89FD89A4
:103C70001083EA89FB89808180618083EA89FB89DE
:103C8000808188608083EA89FB8980818068808365
:103C9000EA89FB8980818F7D8083DF91CF911F919D
:103CA000FF90EF90DF90CF9008951F920F920FB684
:103CB0000F9211242F938F939F93EF93FF93E09193
:103CC000E606F091E7068081E091EC06F091ED06C2
:103CD00082FD12C090818091EF068F5F8F732091DB
:103CE000F006821751F0E091EF06F0E0EA52F94F4A
:103CF000958F8093EF0601C08081FF91EF919F9196
:103D00008F912F910F900FBE0F901F9018951F92BB
:103D10000F920FB60F9211242F933F934F935F93FF
:103D20006F937F938F939F93AF93BF93EF93FF9383
:103D300086ED96E00E94661DFF91EF91BF91AF91D5
:103D40009F918F917F916F915F914F913F912F91B3
:103D50000F900FBE0F901F901895E6EDF6E01382BE
:103D6000128288EE93E0A0E0B0E084839583A6837E
:103D7000B7838DE096E09183808385EC90E0958712
:103D8000848784EC90E09787868780EC90E0918B25
:103D9000808B81EC90E0938B828B82EC90E0958B12
:103DA000848B86EC90E0978B868B118E128E138E0F
:103DB000148E08950895CF92DF92EF92FF920F93A1
:103DC0001F93CF93DF936C017A018B01C0E0D0E0A9
:103DD000CE15DF0589F0D8016D918D01D601ED91E9
:103DE000FC910190F081E02DC6010995892B11F419
:103DF0007E0102C02196ECCFC701DF91CF911F91C8
:103E00000F91FF90EF90DF90CF90089561157105AD
:103E100079F0FB0101900020E9F73197AF01461BD3
:103E2000570BDC01ED91FC910280F381E02D0994A8
:103E300080E090E00895EF92FF920F931F93CF934D
:103E4000DF938C017B01C0E0D0E0F701EC0FFD1F98
:103E50006491662361F0D801ED91FC910190F081AD
:103E6000E02DC8010995892B11F02196EECFCE01E6
:103E7000DF91CF911F910F91FF90EF9008950C94D7
:103E8000061FDC01ED91FC910190F081E02D099479
:103E90006BE176E00C94061F0F931F93CF93DF9393
:103EA000EC010E941B1F8C01CE010E94481F800F55
:103EB000911FDF91CF911F910F9108950F931F9341
:103EC000CF93DF93EC010E94061F8C01CE010E946C
:103ED000481F800F911FDF91CF911F910F9108957F
:103EE0004F925F926F927F92EF92FF920F931F9388
:103EF000CF93DF93CDB7DEB7A1970FB6F894DEBFAF
:103F00000FBECDBF7C01FA01CB0119A2223008F40B
:103F10002AE08E010F5D1F4F422E512C612C712C17
:103F2000BF01A30192010E94F328F901CA010150C7
:103F300011096A3014F4605D01C0695CD8016C93AA
:103F4000232B242B252B61F7B801C7010E94061FE4
:103F5000A1960FB6F894DEBF0FBECDBFDF91CF9113
:103F60001F910F91FF90EF907F906F905F904F9017
:103F70000895CF92DF92EF92FF920F931F93CF930A
:103F8000DF93EC016A017B012115310579F4E881A9
:103F9000F9810190F081E02D642FDF91CF911F9185
:103FA0000F91FF90EF90DF90CF9009942A30310568
:103FB000E9F477FF1AC06DE20E94411F8C0144278B
:103FC0005527BA014C195D096E097F092AE0CE0117
:103FD0000E94701F800F911FDF91CF911F910F9151
:103FE000FF90EF90DF90CF9008952AE0B701A601EF
:103FF000CE01DF91CF911F910F91FF90EF90DF9055
:10400000CF900C94701F9A01AB01770F660B770B62
:104010000C94B91F0F931F93CF93DF93EC019A0178
:10402000AB01770F660B770B0E94B91F8C01CE0195
:104030000E94481F800F911FDF91CF911F910F9118
:1040400008952115310541F4DC01ED91FC910190B9
:10405000F081E02D642F09940C94701F9A01462F73
:1040600050E060E070E00C9421209A01AB0160E028
:1040700070E00C9421203F924F925F926F927F925A
:104080008F929F92AF92BF92CF92DF92EF92FF9268
:104090000F931F93CF93DF9300D000D0CDB7DEB73F
:1040A00090912B05981721F09F3F09F036C204C06C
:1040B000E0E7F9E0349081C080932B05E0E7F9E078
:1040C000E491EF3F09F429C2E13031F1E23009F423
:1040D0004BC0E11171C014BC15BC94B5926094BD85
:1040E00095B5916095BDA82FB0E0FD01E756F64F5C
:1040F000E491F0E0EE0FFF1FE954F64F05911491A3
:104100001093830700938207FD01EB57F64FE4916C
:10411000E0938107312C53C01092800010928100EF
:1041200090918100986090938100909181009160BE
:1041300090938100A82FB0E0FD01E756F64FE4917F
:10414000F0E0EE0FFF1FE954F64F05911491109324
:104150007C0700937B07FD01EB57F64FE491E0935A
:104160007A07332433942BC01092B0001092B10020
:104170009091B00092609093B0009091B1009160E6
:104180009093B100A82FB0E0FD01E756F64FE491FF
:10419000F0E0EE0FFF1FE954F64F059114911093D4
:1041A000750700937407FD01EB57F64FE491E09318
:1041B000730702E0302E03C03E2E37FCAEC129014A
:1041C0003A018B0161E00E94CD234801A12CB12C62
:1041D000832D8D7F09F0BBC060E072E18AE790E03B
:1041E000A50194010E94152929833A834B835C839E
:1041F00069017A0121E0C21AD108E108F1088FEFC4
:10420000C816D104E104F10409F008F44CC060E4DC
:1042100072E48FE090E0A50194010E9415296901E4
:104220007A01E1E0CE1AD108E108F108F2E03F128C
:1042300020C02FEFC216D104E104F10409F008F404
:104240006AC160E970ED83E090E0A50194010E94ED
:10425000152969017A0181E0C81AD108E108F1083D
:10426000EFEFCE16D104E104F10409F0D0F583E0BC
:1042700067C0FFEFCF16D104E104F104B1F0A8F05C
:1042800068E478EE81E090E0A50194010E94152990
:1042900069017A0181E0C81AD108E108F1083320E8
:1042A00009F4DFC02FC181E001C082E03320A1F01A
:1042B00047C089819A81AB81BC812AE0B595A795D9
:1042C000979587952A95D1F76C017D0121E0C21A57
:1042D000D108E108F10885E095B5987F892B85BD67
:1042E0006FC068E478EE81E090E0A50194010E943F
:1042F000152969017A01F1E0CF1AD108E108F10826
:104300002FEFC216D104E104F10409F008F4A7C0AC
:1043100064E274EF80E090E0A50194010E94152909
:1043200069017A01E1E0CE1AD108E108F108FFEF56
:10433000CF16D104E104F10411F008F0B4C085E017
:104340009091B100987F892B8093B10039C060E0D3
:1043500072E18AE790E0A50194010E9415296901A4
:104360007A0181E0C81AD108E108F108C114D1042A
:10437000E1E0EE06F10488F068E478EE81E090E098
:10438000A50194010E94152969017A01F1E0CF1A73
:10439000D108E108F10893E001C091E021E0321278
:1043A0000FC080918100887F892B80938100411408
:1043B00051046104710449F42FEF3FEFA9012DC0AE
:1043C000411451046104710471F0D801AA0FBB1F9C
:1043D000A30192010E943A2928EE33E040E050E028
:1043E0000E94F32803C02FEF3FEFA90181E03816A8
:1043F000A1F0E2E03E1619F131108FC0C7BC209346
:1044000084073093850740938607509387078091F0
:104410006E00826080936E0080C0D0928900C0924E
:10442000880020937D0730937E0740937F07509349
:10443000800780916F00826080936F006EC0C09291
:10444000B300209376073093770740937807509313
:104450007907809170008260809370005EC084E074
:104460006FCFFFEFCF16D104E104F104D1F0C8F013
:1044700062E17AE780E090E0A50194010E941529AD
:1044800069017A0181E0C81AD108E108F108EFEF6B
:10449000CE16D104E104F10411F008F00ACF84E053
:1044A0001BCF83E019CF62E17AE780E090E0A501BD
:1044B00094010E94152969017A0181E0C81AD10886
:1044C000E108F108EFEFCE16D104E104F104C1F0E8
:1044D000B8F089819A81AB81BC814AE0B595A795F6
:1044E000979587954A95D1F76C017D0121E0C21A15
:1044F000D108E108F108332009F4EDCE87E020CFA0
:1045000086E0D4CEFFEFCF16D104E104F10409F028
:1045100050F684E0CBCE82E013CF0F900F900F9037
:104520000F90DF91CF911F910F91FF90EF90DF904F
:10453000CF90BF90AF909F908F907F906F905F9043
:104540004F903F900895813039F018F0823051F04B
:10455000089510926E00089580916F008D7F809372
:104560006F000895809170008D7F8093700081E0CE
:104570008093B0008091B100887F84608093B10007
:104580001092B3000895CF93C82F80912B058C1300
:1045900007C0E0E7F9E0E4918FEF80932B0501C0BD
:1045A000EFEF8E2F0E94A32260E08C2FCF910C940E
:1045B00009241F920F920FB60F9211242F933F934D
:1045C0004F935F936F937F938F939F93AF93BF931B
:1045D000EF93FF938091760790917707A0917807EA
:1045E000B0917907892B8A2B8B2B51F1809173071E
:1045F000E0917407F09175079081892780838091FD
:10460000760790917707A0917807B09179071816EF
:1046100019061A061B06C4F4809176079091770755
:10462000A0917807B09179070197A109B10980930A
:10463000760790937707A0937807B093790704C023
:1046400080912B050E94C322FF91EF91BF91AF9102
:104650009F918F917F916F915F914F913F912F919A
:104660000F900FBE0F901F90189508958230E8F4B8
:10467000E82FF0E0EE0FFF1FE45DFA4F71836083D7
:10468000813041F0809169008C7F482B4093690014
:10469000E89A089580916900440F551F440F551FF3
:1046A000837F482B40936900E99A08951F920F92E7
:1046B0000FB60F9211242F933F934F935F936F93F5
:1046C0007F938F939F93AF93BF93EF93FF93E0916B
:1046D0002C05F0912D050995FF91EF91BF91AF91B8
:1046E0009F918F917F916F915F914F913F912F910A
:1046F0000F900FBE0F901F9018951F920F920FB63C
:104700000F9211242F933F934F935F936F937F9357
:104710008F939F93AF93BF93EF93FF93E0912E05F9
:10472000F0912F050995FF91EF91BF91AF919F9166
:104730008F917F916F915F914F913F912F910F904A
:104740000FBE0F901F901895833081F028F48130B0
:1047500099F08230A1F008958730A9F08830B9F03F
:104760008430D1F4809180008F7D03C080918000DF
:104770008F7780938000089584B58F7702C084B5C9
:104780008F7D84BD08958091B0008F7703C08091A4
:10479000B0008F7D8093B0000895CF93DF9390E0B9
:1047A000FC01EB57F64F2491FC01E756F64F84913C
:1047B000882361F190E0880F991FFC01EF53F64FB9
:1047C000C591D491FC01E954F64FA591B4916111C2
:1047D00009C09FB7F8948881209582238883EC9143
:1047E0002E230BC0623061F49FB7F8943881822F7A
:1047F000809583238883EC912E2B2C939FBF06C03A
:104800008FB7F894E8812E2B28838FBFDF91CF914B
:1048100008951F93CF93DF93282F30E0F901EF58CD
:10482000F64F8491F901EB57F64FD491F901E75611
:10483000F64FC491CC23C9F0162F81110E94A423F6
:10484000EC2FF0E0EE0FFF1FE954F64FA591B49165
:104850008FB7F894111105C09C91ED2FE095E923D5
:1048600002C0EC91ED2BEC938FBFDF91CF911F91A4
:104870000895CF93DF93282F30E0F901EF58F64FDA
:104880008491F901EB57F64FD491F901E756F64FB1
:10489000C491CC2391F081110E94A423EC2FF0E06D
:1048A000EE0FFF1FE355F64FA591B491EC91ED2368
:1048B00081E090E021F480E002C080E090E0DF91B0
:1048C000CF910895CF93CFB7F89480918807811145
:1048D00027C0E3EAF9E08491EFE8F9E09491E82F4A
:1048E000F0E0EE0FFF1FEF53F64FA591B491EC915E
:1048F000E92321F461E08AE00E94092461E08AE072
:104900000E94CD238CB580618CBD8CB580648CBD3C
:1049100061E08DE00E94CD2361E08BE00E94CD2319
:10492000809188078F5F80938807CFBFCF910895CC
:104930008091B90790E02091BA07821B91090895F0
:104940009091BA078091B907981750F4E92FF0E0D9
:10495000E554F84F208130E09F5F9093BA0702C082
:104960002FEF3FEFC9010895E091BA078091B90791
:10497000E81730F4F0E0E554F84F808190E00895B6
:104980008FEF9FEF08950895CF92DF92EF92FF92FD
:104990000F931F93CF93DF937C01262F972F8A01CC
:1049A00080919507882391F0C62FD72F6E01C40EF2
:1049B000D51ECC15DD0571F06991D701ED91FC9103
:1049C0000190F081E02DC7010995F3CF642F822F6C
:1049D0000E94D725C801DF91CF911F910F91FF90C1
:1049E000EF90DF90CF900895CF93DF931F92CDB7D4
:1049F000DEB76983209195072223D1F02091960795
:104A0000203240F021E030E0FC013383228380E05B
:104A100090E015C080919707E82FF0E0E856F84F36
:104A2000998190838F5F809397078093960705C045
:104A300061E0CE0101960E94D72581E090E00F90C1
:104A4000DF91CF910895FC011382128288EE93E0EA
:104A5000A0E0B0E084839583A683B7838EE296E0DE
:104A60009183808308951092BA071092B90710922B
:104A70009707109296070C94632581E08093950721
:104A80006093B807109297071092960708950C94B8
:104A90003D250F93062F21E04091960768E977E0C6
:104AA0008091B8070E94812510929707109296076F
:104AB000109295070F91089561E00C94492589E8BB
:104AC00097E00C9423251092480881E080934608D3
:104AD0001092450861E082E10E94092461E083E1CF
:104AE0000E940924E9EBF0E080818E7F8083808141
:104AF0008D7F808388E48093B80085E48093BC0038
:104B000008950F93413208F04AC0909148089111DE
:104B1000FCCF32E030934808009346083FEF3093D3
:104B2000DB071092200840931F08FB0161E278E048
:104B3000DB013A2F361B341718F431913D93F9CF2E
:104B40001092470830914708880F832B80934708BD
:104B500080914508813061F41092450880914708A2
:104B60008093BB008091BC0083FDF8CF85EC01C031
:104B700085EE8093BC00222321F08091480882308A
:104B8000D1F38091DB078F3F79F08091DB07803292
:104B900041F08091DB07803331F094E005C091E073
:104BA00003C092E001C093E0892F0F9108954091D6
:104BB000FD07262F30E0240F311D21323105DCF4B2
:104BC000209148082430C9F4FC0180E090E0861769
:104BD00058F43091FD072191DC01A150B84FA30F8B
:104BE000B11D2C930196F3CF8091FD07680F609360
:104BF000FD0780E0089581E0089582E0089585ED45
:104C00008093BC008091BC0084FDFCCF10924808CA
:104C1000089585EC8093BC001092480808951F9277
:104C20000F920FB60F9211242F933F934F935F93E0
:104C30006F937F938F939F93AF93BF93EF93FF9364
:104C40008091B900887F803609F49EC078F588325B
:104C500009F45DC090F4803109F456C038F488231B
:104C600009F4F5C0883009F44FC0F5C0883109F463
:104C70004EC0803209F45FC0EEC0803409F46AC0CF
:104C800058F4803309F457C0883309F0E4C08093A6
:104C9000DB070E940926DFC0803509F44FC0883544
:104CA00009F45DC0883409F0D6C0D3C0883909F44E
:104CB000C4C0A8F4883709F467C038F4883609F40A
:104CC00063C0803709F460C0C6C0883809F4B5C035
:104CD000803909F45FC0803809F0BDC05BC0803BFB
:104CE00009F483C038F4803A09F466C0883A09F4BC
:104CF0007CC0B1C0803C09F4A4C0883C09F4A1C0C8
:104D0000883B09F487C0A7C08091470810C09091E4
:104D1000200880911F08981770F5E091200881E025
:104D20008E0F80932008F0E0EF5DF74F8081809335
:104D3000BB0085EC83C08093DB078BC0E09120082B
:104D400081E08E0F809320088091BB00F0E0EF5D42
:104D5000F74F80839091200880911F086BC0E091ED
:104D6000200881E08E0F809320088091BB00F0E046
:104D7000EF5DF74F80838091460881116AC081E022
:104D80008093450884EA5EC083E0809348081092CF
:104D9000DC07CFCF8091DC07803208F04EC0E09175
:104DA000DC0781E08E0F8093DC078091BB00F0E090
:104DB000E352F84F8083BDCF0E9409268091DC0723
:104DC000803230F4E091DC07F0E0E352F84F1082DB
:104DD0006091DC0770E0E0914108F09142088DEDB0
:104DE00097E009951092DC0736C084E0809348086C
:104DF0001092FE071092FD07E0914308F0914408DD
:104E000009958091FD07811105C081E08093FD0720
:104E10001092FF07E091FE0781E08E0F8093FE075E
:104E2000F0E0E150F84F80818093BB009091FE0745
:104E30008091FD07981708F47CCF85E88093BC002B
:104E40000AC085EC8093BC001092480804C0109200
:104E5000DB070E94FF25FF91EF91BF91AF919F91DA
:104E60008F917F916F915F914F913F912F910F9013
:104E70000FBE0F901F9018950E9450270C94382851
:104E80000E94312858F00E942A2840F029F45F3F00
:104E900029F00C94212851110C946C280C9427288B
:104EA0000E94492868F39923B1F3552391F3951B88
:104EB000550BBB27AA2762177307840738F09F5F3B
:104EC0005F4F220F331F441FAA1FA9F335D00E2EA8
:104ED0003AF0E0E832D091505040E695001CCAF715
:104EE0002BD0FE2F29D0660F771F881FBB1F2617D8
:104EF00037074807AB07B0E809F0BB0B802DBF01AF
:104F0000FF2793585F4F3AF09E3F510578F00C947D
:104F100021280C946C285F3FE4F3983ED4F38695E7
:104F200077956795B795F7959F5FC9F7880F911D9E
:104F30009695879597F90895E1E0660F771F881F8A
:104F4000BB1F621773078407BA0720F0621B730B3D
:104F5000840BBA0BEE1F88F7E09508950E94B527E1
:104F60006894B1110C946C2808950E94512888F01F
:104F70009F5798F0B92F9927B751B0F0E1F0660F1D
:104F8000771F881F991F1AF0BA95C9F714C0B1305E
:104F900091F00E946B28B1E008950C946B28672F64
:104FA000782F8827B85F39F0B93FCCF3869577958D
:104FB0006795B395D9F73EF4909580957095619576
:104FC0007F4F8F4F9F4F0895E89409C097FB3EF4A1
:104FD00090958095709561957F4F8F4F9F4F992346
:104FE000A9F0F92F96E9BB279395F69587957795C4
:104FF0006795B795F111F8CFFAF4BB0F11F460FF84
:105000001BC06F5F7F4F8F4F9F4F16C0882311F0DB
:1050100096E911C0772321F09EE8872F762F05C0EF
:10502000662371F096E8862F70E060E02AF09A958A
:10503000660F771F881FDAF7880F9695879597F97F
:10504000089597F99F6780E870E060E008959FEF0A
:1050500080EC089500240A9416161706180609060F
:10506000089500240A9412161306140605060895DE
:10507000092E0394000C11F4882352F0BB0F40F466
:10508000BF2B11F460FF04C06F5F7F4F8F4F9F4FA6
:10509000089557FD9058440F551F59F05F3F71F028
:1050A0004795880F97FB991F61F09F3F79F087958F
:1050B0000895121613061406551FF2CF4695F1DF18
:1050C00008C0161617061806991FF1CF86957105A8
:1050D000610508940895E894BB2766277727CB01DC
:1050E00097F908950E9485280C9438280E942A2850
:1050F00038F00E94312820F0952311F00C942128DB
:105100000C94272811240C946C280E94492870F3D1
:10511000959FC1F3950F50E0551F629FF001729F5C
:10512000BB27F00DB11D639FAA27F00DB11DAA1F6B
:10513000649F6627B00DA11D661F829F2227B00DB8
:10514000A11D621F739FB00DA11D621F839FA00D43
:10515000611D221F749F3327A00D611D231F849F93
:10516000600D211D822F762F6A2F11249F575040EA
:105170009AF0F1F088234AF0EE0FFF1FBB1F661F65
:10518000771F881F91505040A9F79E3F510580F02E
:105190000C9421280C946C285F3FE4F3983ED4F3E0
:1051A000869577956795B795F795E7959F5FC1F7D2
:1051B000FE2B880F911D9695879597F90895AA1B48
:1051C000BB1B51E107C0AA1FBB1FA617B70710F0F2
:1051D000A61BB70B881F991F5A95A9F78095909524
:1051E000BC01CD010895A1E21A2EAA1BBB1BFD0133
:1051F0000DC0AA1FBB1FEE1FFF1FA217B307E407B6
:10520000F50720F0A21BB30BE40BF50B661F771F0D
:10521000881F991F1A9469F76095709580959095ED
:105220009B01AC01BD01CF010895052E97FB1EF433
:1052300000940E942C2957FD07D00E94F32807FCF8
:1052400003D04EF40C942C2950954095309521951F
:105250003F4F4F4F5F4F08959095809570956195A2
:105260007F4F8F4F9F4F0895EE0FFF1F0590F491D2
:10527000E02D09940E944529A59F900DB49F900DA3
:10528000A49F800D911D11240895A29FB001B39F8A
:10529000C001A39F700D811D1124911DB29F700D3F
:1052A000811D1124911D0895CF93DF9382309105C4
:1052B00010F482E090E0E0914B08F0914C0820E07F
:1052C00030E0C0E0D0E0309711F1408151814817C3
:1052D0005907C0F04817590761F4828193812097DC
:1052E00019F09B838A832BC090934C0880934B08C2
:1052F00026C02115310519F04217530718F49A01F9
:10530000BE01DF01EF010280F381E02DDCCF21152A
:10531000310509F1281B390B2430310590F4129620
:105320008D919C9113976115710521F0FB01938379
:10533000828304C090934C0880934B08FD01329601
:1053400044C0FD01E20FF31F819391932250310974
:105350002D933C933AC02091490830914A08232B61
:1053600041F4209102013091030130934A082093C7
:10537000490820910001309101012115310541F4C6
:105380002DB73EB74091040150910501241B350B08
:10539000E0914908F0914A08E217F307A0F42E1BA8
:1053A0003F0B2817390778F0AC014E5F5F4F241789
:1053B000350748F04E0F5F1F50934A084093490845
:1053C0008193919302C0E0E0F0E0CF01DF91CF91B3
:1053D00008950F931F93CF93DF93009709F48CC028
:1053E000FC0132971382128200914B0810914C08F5
:1053F0000115110581F420813181820F931F2091C5
:10540000490830914A082817390779F5F0934A0876
:10541000E093490871C0D80140E050E0AE17BF07E3
:1054200050F412962D913C911397AD012115310541
:1054300009F1D901F3CF9D01DA0133832283608121
:105440007181860F971F8217930769F4EC012881F9
:105450003981260F371F2E5F3F4F318320838A818A
:105460009B8193838283452B29F4F0934C08E0932E
:105470004B0842C01396FC93EE931297ED014991AD
:1054800059919E01240F351FE217F30771F48081B3
:105490009181840F951F029611969C938E93828121
:1054A000938113969C938E931297E0E0F0E0D801DD
:1054B00012968D919C911397009719F0F8018C0129
:1054C000F6CF8D919C9198012E5F3F4F820F931FD5
:1054D0002091490830914A082817390769F4309714
:1054E00029F410924C0810924B0802C013821282C9
:1054F00010934A0800934908DF91CF911F910F91B3
:10550000089581E090E0F8940C94C82AFB01DC0136
:1055100005900D920020E1F70895FB01DC01415058
:10552000504048F005900D920020C9F701C01D922F
:1055300041505040E0F70895FB01DC0101900D92CD
:105540000020E1F70895FB01DC014150504048F094
:1055500001900D920020C9F701C01D9241505040AA
:10556000E0F70895F999FECF92BD81BDF89A992789
:1055700080B50895262FF999FECF1FBA92BD81BD3F
:1055800020BD0FB6F894FA9AF99A0FBE01960895C5
:04559000F894FFCFBD
:1055940000004D08800080841E003C00020001B819
:1055A40001040001003200A0000101000103070F03
:1055B4001F3F7F0080C0E0F0F8FCFE000000000008
:1055C40000000000000000000000000000000000D7
:1055D40000000000000000000000000000000000C7
:1055E40000000000000000000000000000000000B7
:1055F4000000000000000000000080808000000027
:105604000000000000000000000000008080C0C016
:105614000000000000000000000000000000000086
:105624000000000000000000000000000000000076
:105634000000000000000000000000000000000066
:1056440000000000000000000000000000000080D6
:10565400C0E0F0F8FCF8E0000000000000000000EA
:1056640000000000000000008080808080008080B6
:1056740000000000808080808000FFFFFF000000A9
:10568400008080808000008080000080FFFF808098
:105694000080800080808080008080000000000006
:1056A400808000008C8E84000080F8F8F880000070
:1056B4000000000000000000000000F0F0F0F0F036
:1056C400F0F0F0F0F0F0F0E0E0C08000E0FCFEFF6D
:1056D400FFFF7FFFFFFFFFFF00000000000000004E
:1056E400000000000000FEFFC70101010183FFFF6D
:1056F40000007CFEC70101010183FFFFFF0038FEAB
:10570400C78301010183C7FFFF000001FFFF0101FF
:1057140000FFFF0701010100007FFF80000000FF80
:10572400FF7F0000FFFFFF000001FFFFFF010000FB
:105734000000000000000000000000030F3F7F7F16
:10574400FFFFFFFFFFFFFFE7C7C78F8F9FBFFFFF6D
:10575400C3C0F0FFFFFFFFFFFCFCFCFCFCFCFCFCF7
:10576400F8F8F0F0E0C000010303030303010303AE
:105774000000000001030303030101030100000012
:1057840001030303030101030300000003030000FA
:1057940000030300000000000000010303030303EF
:1057A40001000000010301000000030301000000E8
:1057B400000000000000000000000000000080C0A5
:1057C400E0F0F9FFFFFFFFFF3F1F0F87C7F7FFFF61
:1057D4001F1F3DFCF8F8F8F87C7DFFFFFFFFFFFF7B
:1057E400FFFF7F3F0F070030300000000000000083
:1057F400000000000000000000000000000000FEA7
:10580400FEFC00000000000000000000000000009A
:105814000000000000000000E0C0000000000000E4
:105824000000000000303000000000000000000014
:10583400000000000000000000000000C0FEFFFFA8
:10584400FFFFFFFFFFFFFF7F7F3F1F0F071F7FFF4C
:10585400FFF8F8FFFFFFFFFFFEF8E0000000010083
:1058640000000000000000FEFE000000FCFEFC0C36
:1058740006060EFCF80000F0F81C0E0606060CFFE7
:10588400FFFF0000FEFE00000000FCFEFC00183CD0
:105894007E66E6CE84000006FFFF0606FCFEFC0CD6
:1058A4000606060000FEFE0000C0F8FC4E46464612
:1058B4004E7C7840183C76E6CECC80000000000098
:1058C40000000000000000000000000000000001D3
:1058D400070F1F1F3F3F3F3F1F0F03000000000043
:1058E400000000000000000F0F0000000F0F0F0069
:1058F4000000000F0F000003070E0C18180C060F11
:105904000F0F0000010F0E0C180C0F070100040EFE
:105914000C180C0F070000000F0F00000F0F0F00F2
:1059240000000000000F0F00000007070C0C181CFB
:105934000C060600040E0C180C0F070000000000F3
:105944000000000000000000000000000000000053
:105954000000000000000000000000000000000043
:105964000000000000000000000000000000000033
:105974000000000000000000000000000000000023
:105984000000000000000000000000000000000013
:105994000000000000000000000000000000000003
:1059A40000000000000000000000000000000000F3
:1059B4000000000000000000000000FF3523352334
:1059C400426561744475696E6F76657220312E305C
:1059D40062792057617272696F722E000A0A002F71
:1059E400002020202020200053544F50000400BAEF
:1059F4000303007B030301000002015A03000300B8
:105A040000040115031E0500001E0500001D05000D
:105A1400001E0500001E05000002050B0302010B19
:105A2400030200E7021E0D0000040EA202000F0094
:105A340000FF0F0000030F9502060F00001E0D006B
:105A440000020D0B030500530202163A0202160B64
:105A5400030016000002160B0302160B03000000DD
:105A64000000000000BD14DB1EB311B611271DB7E2
:105A740011B012C7126112DD1212133013000000AC
:105A840000BD14DB1EB311B611EA17B71190163618
:105A9400156112DD121213301300000000A91DDB82
:105AA4001E571D871D291D431D351D0D0A006E61DE
:105AB4006E00696E66006F76660000000000F424D4
:0C5AC400C424B311C3249824A024B424EB
:00000001FF
