:100000000C9440030C94FA180C9421190C94680376
:100010000C9468030C9468030C9468030C946803B4
:100020000C9468030C9468030C9468030C946803A4
:100030000C9468030C9435110C9468030C946803B9
:100040000C9448190C9468030C94DA160C940C1751
:100050000C9468030C9468030C9468030C94680374
:100060000C9468030C946803E005F4081E06F40879
:10007000230662069106D0060E07F408F408F40879
:10008000F4084D07F4087907E807F4080D082F086D
:10009000F408F408F408F408F408F408F4085F0815
:1000A0009E0BB50BCF0BDC0BF50B020C200C280CB8
:1000B000380C430C6C0C8B0C9B0CB40CE40CF30C48
:1000C000FB0CFA0B450D500D630D750D7D0DB10D3B
:1000D000010E080E130E240E3C0E75530043696387
:1000E0006C6F204D61783A007553004369636C6F03
:1000F000204D696E3A007553004369636C6F20416F
:1001000063743A0056657273696F6E3A00627920C3
:1001100057617272696F7200426561744475696EED
:100120006F00456C696765206C612063616E63696F
:100130006F6E3A005469706F20436F6D7061733A4F
:1001400000202042504D00456C69676520656C2099
:1001500074656D706F3A004E6F6D627265206361F9
:100160006E63696F6E3A00456C696765206C61204B
:1001700063616E63696F6E3A00456C696765206CF8
:10018000612063616E63696F6E3A00496E736572D8
:1001900074617220747261733A00456C69676520FE
:1001A0006C612063616E63696F6E3A00506F7369B2
:1001B00063696F6E2061206564697461723A004EF4
:1001C0006F6D627265207265706572746F72696FAF
:1001D0003A00456C696765207265706572746F726C
:1001E000696F3A0042504D002042504D0A0052457E
:1001F000534554004241434B00534156450044454A
:100200004C004D454E5500504C41590053544F50F1
:1002100000290220021702536F6E69646F203300B9
:10022000536F6E69646F203200536F6E69646F2084
:100230003100410236025265706572746F72696FE7
:10024000004D6574726F6E6F6D6F0088027A026E7A
:1002500002630255025265736574204661627269D9
:100260006361004D69646920436C6F636B00536F79
:100270006E69646F205469636B005469636B73200B
:10028000696775616C6573004D6F646F00980296C5
:1002900002930231360038003400D002C202B102AB
:1002A000A20243616D6269617220436F6D70617378
:1002B0000043616D62696172204469766973696F98
:1002C0006E0043616D626961722054656D706F00EC
:1002D00043616D62696172204E6F6D62726500F4F8
:1002E00002E302456C696D696E61722043616E6361
:1002F000696F6E004564697461722043616E636961
:100300006F6E000A0307035349004E4F0044033346
:100310000322031503566163696172204F7264659D
:100320006E00456C696D696E61722043616E636930
:100330006F6E00496E7365727461722043616E6303
:10034000696F6E0043616D62696172204F7264650E
:100350006E006403560343616D62696172204F72DF
:1003600064656E0043616D62696172204E6F6D62FB
:10037000726500B303A1038F037B03456C696D694C
:100380006E6172205265706572746F72696F00439E
:100390006F70696172205265706572746F72696FF7
:1003A00000456469746172205265706572746F7281
:1003B000696F0043616D62696172206465205265F6
:1003C000706572746F72696F00E803DE03D603D143
:1003D00003496E666F00416A75737465730043610B
:1003E0006E63696F6E6573005265706572746F72CB
:1003F000696F730000000507206000000000000026
:10040000005F00000007000700147F147F14242AF7
:100410007F2A1223130864623649562050000807C9
:100420000300001C2241000041221C002A1C7F1CEA
:100430002A08083E080800807030000808080808EC
:10044000000060600020100804023E5149453E0053
:10045000427F400072494949462141494D331814B1
:10046000127F1027454545393C4A49493141211100
:1004700009073649494936464949291E00001400F2
:100480000000403400000008142241141414141415
:10049000004122140802015909063E415D594E7C73
:1004A0001211127C7F494949363E414141227F4128
:1004B00041413E7F494949417F090909013E414186
:1004C00051737F0808087F00417F41002040413F71
:1004D000017F081422417F404040407F021C027F80
:1004E0007F0408107F3E4141413E7F090909063ED5
:1004F0004151215E7F0919294626494949320301A4
:100500007F01033F4040403F1F2040201F3F4038B5
:10051000403F631408146303047804036159494D90
:1005200043007F4141410204081020004141417FC6
:10053000040201020440404040400003070800203C
:10054000545478407F28444438384444442838443C
:1005500044287F385454541800087E090218A4A473
:100560009C787F0804047800447D40002040403D92
:10057000007F1028440000417F40007C047804780C
:100580007C080404783844444438FC18242418189F
:10059000242418FC7C0804040848545454240404FB
:1005A0003F44243C4040207C1C2040201C3C4030E8
:1005B000403C44281028444C9090907C4464544C17
:1005C0004400083641000000770000004136080072
:1005D00002010204023C2623263CE005198040006B
:1005E000AED580A83FD300408D142002A1C8DA12F6
:1005F000817FD9F1DB40A4A6AF00030C0F30333C60
:100600003FC0C3CCCFF0F3FCFF566163696F20207D
:10061000202020202020202000564143494F202028
:1006200000000000080002010000030407000000B1
:1006300000000000000102040810204080010204B4
:100640000810200102040810200404040404040417
:100650000402020202020203030303030300000078
:100660000023002600290000000000250028002BA0
:100670000000000000240027002A0000A2103C1700
:1006800011241FBECFEFD8E0DEBFCDBF11E0A0E048
:10069000B1E0E0E7FCE302C005900D92A43EB10793
:1006A000D9F723E0A4EEB1E001C01D92A431B20756
:1006B000E1F713E0C0E4D3E004C02197FE010E94FB
:1006C000C11CCE33D107C9F70E946A170C94361E9D
:1006D0000C940000CF93DF9386E00E949F1AEC01F8
:1006E00082E00E949F1AC817D90719F481E090E0B0
:1006F00002C08FEF9FEF9093FC018093FB01DF918D
:10070000CF9108950C94201EEF92FF920F931F93A8
:10071000CF93DF931F92CDB7DEB77C01FC01008140
:100720001181C80169830E94201E6981681719F030
:10073000C8010E94281EC7010F90DF91CF911F9121
:100740000F91FF90EF900895FC016093BC008091A1
:10075000BC0087FFFCCF9091B900987F90830895EB
:10076000CF92DF92EF92FF920F931F93CF93DF937D
:10077000EC01C62ED42E8F85882351F0411108C07C
:1007800084E98093BC008091BC0084FDFCCF1F866F
:10079000EF848E01035F1F4FE11014C0FE8464EAF2
:1007A000C8010E94A4038D85883011F1803101F1C8
:1007B000DD2011F080E4E82EE092BB0064E8C8017F
:1007C0000E94A403C092BB0064E8C8010E94A40375
:1007D00082E0D81204C08F858F5F8F8711C084E9B3
:1007E0008093BC008091BC0084FDFCCF1F8608C0B4
:1007F000FF0CF092BB0064E8C8010E94A403D8CFAC
:10080000DF91CF911F910F91FF90EF90DF90CF90EC
:10081000089580911B01813099F4E0910F01E1115D
:1008200003C010921B0115C084E0E89FF001112461
:10083000ED5BFE4F818180930F011092F50109C09D
:1008400081E080931B011092F5011092F401109247
:100850000F0181E080931901089580911B01882385
:1008600019F0813041F017C09091100181E0892783
:100870008093100110C080910F01843011F08131FC
:1008800051F48091F401E091F201F091F301E80F4D
:10089000F11D80E2808381E0809319010895EF9239
:1008A000FF920F931F93CF93DF93CDB7DEB764977B
:1008B0000FB6F894DEBF0FBECDBF8B017A0121E0E9
:1008C0002093070220930602009791F0BC01CE010D
:1008D00001960E94F41D47E060E08DEF91E00E94D8
:1008E0002212BE016F5F7F4F8DEF91E00E94DD17F6
:1008F00001151105F9F0B8018E010F5F1F4FC801F6
:100900000E94F41DF80101900020E9F73197E01BE7
:10091000F10BF695E79560E487E0E89F60191124F4
:1009200047E08DEF91E00E942212B8018DEF91E037
:100930000E94DD17E114F104E9F0B7018E010F5FA9
:100940001F4FC8010E94F41DF80101900020E9F733
:100950003197E01BF10B60E887E0E89F60191124F4
:1009600047E08DEF91E00E942212B8018DEF91E0F7
:100970000E94DD171092070264960FB6F894DEBF4E
:100980000FBECDBFDF91CF911F910F91FF90EF90E0
:100990000895BF92CF92DF92EF92FF920F931F9331
:1009A000CF93DF93CDB7DEB76E970FB6F894DEBF67
:1009B0000FBECDBF90911A0180911B01981741F095
:1009C0008DEF91E00E94801280911B0180931A01AB
:1009D00080911B01882321F0813009F4CFC044C4E9
:1009E00010911F02112309F49AC0113009F03CC480
:1009F00040E060E08DEF91E00E9422121092070229
:100A00006091130270E06F5F7F4F4AE050E08DEF1E
:100A100091E00E94A1186AE371E08DEF91E00E94DD
:100A2000DD1760E272E08DEF91E00E94DD176DE36B
:100A300071E08DEF91E00E94DD1702E021E040E8D7
:100A400060E08DEF91E00E944C1241E060E08DEF9C
:100A500091E00E9422126091140270E06F5F7F4F5C
:100A60004AE050E08DEF91E00E94A1186AE371E046
:100A70008DEF91E00E94DD1769E272E08DEF91E069
:100A80000E94DD176CE371E08DEF91E00E94DD17AD
:100A900082E08093060260911701709118014AE08C
:100AA00050E08DEF91E00E94D31868EE71E08DEF79
:100AB00091E00E94B9171093060246E069E38DEFBA
:100AC00091E00E94221260911101709112014AE09E
:100AD00050E08DEF91E00E94D3186FE371E08DEF4D
:100AE00091E00E94DD176091130170911401660F6F
:100AF000771F660F771F4AE050E08DEF91E00E946C
:100B0000D3188091100142E052E060E070E0882349
:100B100019F087E092E0A6C38CE092E0A3C302E064
:100B200021E040E260E08DEF91E00E944C1241E054
:100B30006BE08DEF91E00E9422121092070282E09A
:100B40008093060260911701709118014AE050E00D
:100B50008DEF91E00E94D31841E060E48DEF91E0C9
:100B60000E94221264EE71E08DEF91E00E94B917AD
:100B700081E08093060244E060E4A1CF90910E01F1
:100B800080910F01981741F08DEF91E00E94801243
:100B900080910F0180930E0140E060E08DEF91E0C5
:100BA0000E942212E0910F018E2F90E0FC013297FB
:100BB000EC31F10508F018C3EC5CFF4F0C94C11C3C
:100BC0001092070262ED71E08DEF91E00E94EA174A
:100BD00001E021E040E860E08DEF91E00E944C12DE
:100BE00000E010E0DD24D3948091F50190E08017BF
:100BF000910719F4D092070202C010920702802FC9
:100C00000E940E147C010F5F1F4F4AE050E0B801B4
:100C10008DEF91E00E94A1186AE371E08DEF91E001
:100C20000E94DD17B7018DEF91E00E94FC17C7010C
:100C30000E945C1D03301105B9F60EC31092070225
:100C40006FEB71E05AC10091F501053020F010E022
:100C50000550110902C000E010E0680125E0C20E55
:100C6000D11CBB24B394C016D1060CF4F5C2602F7E
:100C7000809113020E9483140E9448147C012091E9
:100C8000F50130E02017310719F4B092070202C0D5
:100C9000109207020F5F1F4F4AE050E0B8018DEF3E
:100CA00091E00E94A1186AE371E08DEF91E00E944B
:100CB000DD17B7018DEF91E00E94FC17C7010E947C
:100CC0005C1DD1CF6CEA71E08DEF91E00E94EA17D4
:100CD0006091F101809113020E9483140E944814D4
:100CE0007C019091F101692F70E06F5F7F4F4AE0C6
:100CF00050E08DEF91E00E94A1186AE371E08DEF62
:100D000091E00E94DD17B7018DEF91E00E94FC1782
:100D10006DE371E08DEF91E00E94FC176AE971E0EC
:100D20006DC00091F501053020F010E0055011096B
:100D300002C000E010E0680185E0C80ED11CBB24B1
:100D4000B394C016D1060CF487C2602F80911302B1
:100D50000E9483140E9448147C012091F50130E028
:100D60002017310719F4B092070202C0109207024F
:100D70000F5F1F4F4AE050E0B8018DEF91E00E94F5
:100D8000A1186AE371E08DEF91E00E94DD17B701D1
:100D90008DEF91E00E94FC17C7010E945C1DD1CF2E
:100DA0006BE871E08DEF91E00E94EA176091F1012C
:100DB000809113020E9483140E9448147C01909138
:100DC000F101692F70E06F5F7F4F4AE050E08DEFD7
:100DD00091E00E94A1186AE371E08DEF91E00E941A
:100DE000DD17B7018DEF91E00E94FC176DE371E014
:100DF0008DEF91E00E94FC1769E771E08DEF91E0C3
:100E00000E94EA1706E025E040E860E08DEF91E0FF
:100E10000E944C12C7010E945C1D31C10091F50176
:100E2000053020F010E00550110902C000E010E08C
:100E3000680125E0C20ED11CBB24B394C016D106B4
:100E40000CF40AC2602F809113020E9483140E9446
:100E500048147C012091F50130E02017310719F486
:100E6000B092070202C0109207020F5F1F4F4AE0C4
:100E700050E0B8018DEF91E00E94A1186AE371E0A3
:100E80008DEF91E00E94DD17B7018DEF91E00E9498
:100E9000FC17C7010E945C1DD1CF67E671E08DEFA2
:100EA00091E00E94EA178091F5010E9448147C01AC
:100EB00001E021E040E860E08DEF91E00E944C12FB
:100EC0009091F501692F70E06F5F7F4F4AE050E02D
:100ED0008DEF91E00E94A1186AE371E08DEF91E03F
:100EE0000E94DD17B7018DEF91E00E94FC17C7014A
:100EF000E3C01092070267E571E08DEF91E00E9478
:100F0000EA1701E021E040E860E08DEF91E00E9407
:100F10004C128091FB019091FC0118161906CCF43B
:100F20008091F401E091F201F091F301E80FF11DDD
:100F30008081803210F480E207C0803211F481E4B5
:100F400003C08A3710F48F5F80831092FC011092E7
:100F5000FB018091FB019091FC0197FF11C08091F2
:100F6000F401E091F201F091F301E80FF11D8081AD
:100F7000823410F0815080831092FC011092FB01AA
:100F80006091F2017091F3018DEF91E00E94FC17E6
:100F900002E022E040E860E08DEF91E00E944C1218
:100FA0006091F401862F880F680F660F42E08DEF85
:100FB00091E00E94221261E471E08DEF91E00E94C5
:100FC000DD1744EF51E069EF71E08EEF91E04AC127
:100FD0001092070267E471E08DEF91E00E94EA173A
:100FE0006DE371E08DEF91E00E94FC1704E023E0D7
:100FF00040E860E08DEF91E00E944C124AE050E042
:101000006091F5018DEF91E00E94CC1861E471E0F0
:101010008DEF91E00E94EA171FC11092070264E36E
:1010200071E08DEF91E00E94EA176DE371E08DEFC2
:1010300091E00E94FC1704E023E040E860E08DEFBF
:1010400091E00E944C126091F50170E06E5F7F4F5D
:101050004AE050E08DEF91E00E94A818FDC0109288
:10106000070262E271E08DEF91E00E94EA1701E071
:1010700021E040E860E08DEF91E00E944C12809109
:10108000F5010E9448148C019091F501692F70E0E0
:101090006F5F7F4F4AE050E08DEF91E00E94A11812
:1010A0006AE371E08DEF91E00E94DD17B8018DEFEA
:1010B00091E00E94FC17C8010E945C1DCDC01092F7
:1010C000070268E171E08DEF91E00E94EA176DE0A0
:1010D00071E08DEF91E00E94EA1764E071E08DEF1E
:1010E00091E00E94B9174AE050E061E070E08DEFB6
:1010F00091E00E94A1186AE371E08DEF91E00E94F7
:10110000DD174AE050E060E070E08DEF91E00E9472
:10111000A81803E023E040E860E08DEF91E00E9432
:101120004C1269EF70E08DEF91E00E94B917409189
:10113000E8015091E9016091EA017091EB012AE028
:1011400030E08DEF91E00E94BF1866EF70E08DEF08
:1011500091E00E94EA1704E024E040E860E08DEFAF
:1011600091E00E944C126BEE70E08DEF91E00E94D6
:10117000B91740910A0150910B0160910C017091D7
:101180000D012AE030E08DEF91E00E94BF1868EE7B
:1011900070E08DEF91E00E94EA1705E025E040E85D
:1011A00060E08DEF91E00E944C126DED70E08DEFEC
:1011B00091E00E94B9174091E4015091E5016091DE
:1011C000E6017091E7012AE030E08DEF91E00E94A6
:1011D000BF186AED70E08DEF91E00E94EA1744EFCE
:1011E00051E06EEE71E03CC000E010E0FF24F394AB
:1011F00080910F0124E0829FC0011124FC01ED5B6E
:10120000FE4F208130E00217130734F52091F501DD
:1012100030E02017310719F4F092070202C0109253
:101220000702FC01ED5BFE4FC801880F991F028089
:10123000F381E02DE80FF91F65917491CE010196BD
:101240000E94F41DBE016F5F7F4F8DEF91E00E9401
:10125000FC170F5F1F4FCCCF44EF51E060E070E010
:1012600080E090E00E944F046E960FB6F894DEBFC7
:101270000FBECDBFDF91CF911F910F91FF90EF90E7
:10128000DF90CF90BF9008951F93CF93DF93182FD7
:10129000EB010E949F1A892B61F58AE08C9FF00177
:1012A0008D9FF00D1124E45CFD4F1782168213828E
:1012B0008081811106C091E024813581253031057E
:1012C00008F490E08AE08C9FF0018D9FF00D1124CE
:1012D000E45CFD4F9283248135812530310518F07F
:1012E00081E0808306C08091F601280F311D35838F
:1012F0002483812F0E949F1A019771F58AE08C9FA9
:10130000F0018D9FF00D1124E45CFD4F15821482D5
:1013100011861086118212828081882339F081E043
:10132000268137812530310508F480E09AE09C9FC2
:10133000F0019D9FF00D1124E45CFD4F83838681B5
:1013400097818530910510F0108206C02091F6013A
:10135000820F911D978386838AE08C9FF0018D9F79
:10136000F00D1124E45CFD4F8081882379F02091F9
:10137000F60180859185820F911D91878087883C39
:10138000910519F481E0818301C01182DF91CF9131
:101390001F910895CF93DF93809113020E940E1442
:1013A000EC01BC0180E292E00E940A1ECE01DF91B6
:1013B000CF910C945C1D0F931F93CF9360911402F7
:1013C000809113020E948314C82F0E9448148C013C
:1013D000BC0189E292E00E940A1EC8010E945C1DC5
:1013E0008C2F0E94931409E212E0F801808B8C2F5D
:1013F0000E949A14F801818B8C2F0E94A514F80189
:10140000828BCF911F910F91089580911B018130A4
:1014100009F059C080910F018131C1F18D3109F17D
:10142000843009F050C06091F2017091F301809115
:1014300013020E94CC148091F2019091F3010E945A
:101440005C1DE0910F0184E0E89FF0011124ED5B49
:10145000FE4F818180930F011092F5010E94CA090D
:1014600032C080E894E8AEE1B0E080930A01909346
:101470000B01A0930C01B0930D011092E4011092A6
:10148000E5011092E6011092E7011DC06091F201A2
:101490007091F3018091F0010E9405158091F20195
:1014A0009091F3010E945C1D1092F501E0910F01F3
:1014B00084E0E89FF0011124ED5BFE4F8181809371
:1014C0000F010E94DB0981E0809319010895CF93F9
:1014D000C0911F02CC2379F1C13009F078C080910E
:1014E000FB019091FC01181619062CF4809114024E
:1014F0008D3108F453C08091FB019091FC0197FF5E
:1015000004C080911402811155C08091390290E08D
:10151000909318018093170180913A0290E0909384
:1015200014018093130180913B0290E0909312018B
:10153000809311014CC08091FB019091FC01181621
:1015400019069CF480911701909118018F3F910525
:1015500028F4019690931801809317011092FC01D2
:101560001092FB0181E0809319018091FB01909121
:10157000FC0197FF2CC080911701909118010097F2
:1015800029F0019790931801809317011092FC01A4
:101590001092FB0181E08093190119C08F5F809345
:1015A00014020E94DB091092FC011092FB01C0930F
:1015B0001901A1CF8150809314020E94DB0910927F
:1015C000FC011092FB0181E0809319019ECFCF9125
:1015D00008958CEA92E00E948203823010F4809396
:1015E0001F028DEA92E00E948203823018F481701B
:1015F000809315028EEA92E00E948203823018F4F2
:101600008170809312028FEA92E00E9482038330FD
:1016100010F4809316020895CF93DF9300D0CDB7D6
:10162000DEB70E943D150E9478158CEA92E09A83FD
:1016300089836FEFCE0101960E9484038DEA92E0C8
:101640009A8389836FEFCE0101960E9484038EEA0C
:1016500092E09A8389836FEFCE0101960E94840302
:101660008FEA92E09A83898360E0CE0101960E941E
:101670008403FFCF0F931F93CF93DF93CDB7DEB7D4
:1016800060970FB6F894DEBF0FBECDBF8091FB010F
:101690009091FC011816190604F58091F501E0916E
:1016A0000F0194E0E99FF0011124ED5BFE4F908162
:1016B000482F50E0292F30E02150310942175307BD
:1016C0001CF48F5F8093F501992321F01092FC01A7
:1016D0001092FB0181E0809319018091FB019091B0
:1016E000FC0197FF19C08091F501882319F0815002
:1016F0008093F501E0910F0184E0E89FF00111244F
:10170000ED5BFE4F8081882321F01092FC01109246
:10171000FB0181E08093190180915202882309F432
:10172000B9C2E0910F018E2F90E08D31910508F044
:10173000AEC2FC01E05BFF4F0C94C11C8091F5012F
:10174000813079F050F0823009F49CC2833009F086
:101750009EC21092F5018DE198C21092F50181E0D0
:1017600094C21092F5018EE090C28091F501813013
:1017700071F048F0823079F0833009F088C210921D
:10178000F5018DE082C21092F50182E07EC21092D6
:10179000F50183E07AC21092F5018CE076C2809167
:1017A000F50180931302109214020E94CA090E944C
:1017B000DB0910921B016BC28091F501882339F07F
:1017C000813009F064C21092F50185E05EC210928A
:1017D000F50184E080930F01809113020E940E14A2
:1017E0009093F3018093F2010AC08091F401863056
:1017F00030F447C18091F4018E3008F442C1109258
:10180000F40145C28091F501813071F048F08230D9
:1018100099F0833009F03BC21092F5018BE035C29C
:101820001092F50186E003C01092F50188E08093E4
:101830000F011092F1012BC21092F5018AE0F7CF4F
:101840008091F5018093F1011092F50187E01DC2AE
:101850004091F5016091F101809113020E94F7140B
:101860008091F1018093F5011092F10186E074C13D
:101870008091F5018D3108F00AC28093F101109238
:10188000F50189E002C20DE110E06091F101862FBF
:1018900090E00196801791077CF46FEF600F8091C4
:1018A00013020E948314482F602F809113020E941C
:1018B000F71401501109E9CF6F5F4091F501809154
:1018C00013020E94F7148091F1018F5F8093F5015C
:1018D0001092F10188E040C10091F50110E00D3156
:1018E00011057CF461E0600F809113020E94831463
:1018F000482F602F809113020E94F7140F5F1F4F33
:10190000EECF40E06DE1809113020E94F714109237
:10191000F1018AE021C18091F501813009F011C106
:1019200010E04FEF612F809113020E94F7141F5FA8
:101930001E31B9F706C110E0612F809113020E9499
:101940008314482F612F8091F5010E94F7141F5FC7
:101950001E3191F7809113020E940E14BC018091F8
:10196000F5010E94CC14B8C08091F501813009F1D5
:101970008FEF898348E050E0BE016F5F7F4FCB015E
:101980000E94111EBE016F5F7F4F809113020E9463
:10199000CC141092F501E0910F0194E0E99FF00161
:1019A0001124ED5BFE4F818180930F010E94CA09D3
:1019B0006EC110E04FEF612F809113020E94F71467
:1019C0001F5F1E31B9F7D4CF8091F501882339F01C
:1019D000813009F05CC11092F50185E156C1109289
:1019E000F5018FE052C18091F5018093F0011092D2
:1019F000F50180E14AC11091F5011130F9F080F054
:101A0000123031F1133009F042C184E180930F01AB
:101A10008091F0010E94A5148093F10182502EC0A4
:101A20001092F50181E180930F018091F0010E94F5
:101A300048149093F3018093F20129C182E18093CD
:101A40000F018091F0010E9493148093F10116C060
:101A500083E180930F018091F0010E949A1480939A
:101A6000F101823031F0843031F0813009F00FC162
:101A7000C5C081E003C01093F50109C18093F50151
:101A800006C18F5F8093F40102C16091F5018091DE
:101A9000F0010E9428151092F5011092F1011EC06C
:101AA0008091F501813039F020F0823049F464E012
:101AB00003C061E001C062E08091F0010E942F1537
:101AC0001092F1013EC06091F5016E5F8091F001CE
:101AD0000E9436151092F1011092F501E0910F016C
:101AE00084E0E89FF001112434C08091F5018093D7
:101AF000F0011092F50186E1C8C08091F5018130B6
:101B000001F58FEF898340E150E0BE016F5F7F4FA9
:101B1000CB010E94111EBE016F5F7F4F8091F001CB
:101B20000E9405156FEF8091F0010E9428156FEF5C
:101B30008091F0010E942F156FEF8091F0010E94BB
:101B400036151092F501E0910F0194E0E99FF00144
:101B50001124ED5BFE4F818180930F010E94DB0910
:101B600096C08091F501823069F128F4882361F0F4
:101B70008130C9F08CC0833091F1843009F087C086
:101B80008CE180930F013AC08CEA92E00E948203BC
:101B90008093F1018F3F19F08093F50102C01092FC
:101BA000F50188E172C08DEA92E00E948203809381
:101BB000F1018F3F19F08093F50102C01092F501F9
:101BC00089E163C08FEA92E00E948203833018F4B7
:101BD0008093F50102C01092F5018AE156C08EEAA9
:101BE00092E00E9482038093F1018F3F19F080936D
:101BF000F50102C01092F5018BE147C01092F5018A
:101C000046C06091F50160931F028CEA92E011C01A
:101C100061E08091F501811101C060E060931502DF
:101C20008DEA92E01BC06091F501609316028FEA85
:101C300092E00E94B0141092F501E0910F0184E04F
:101C4000E89FF001112414C061E08091F501811139
:101C500001C060E0609312028EEA92E00E94B0142C
:101C60001092F501E0910F0194E0E99FF001112439
:101C7000ED5BFE4F818109C08091F501813011F447
:101C80000E940C0B1092F50187E180930F0181E017
:101C90008093190160960FB6F894DEBF0FBECDBFDA
:101CA000DF91CF911F910F9108950F931F93CF93C1
:101CB000DF930E949E196093EC017093ED01809375
:101CC000EE019093EF0160E070E085E090E00E940B
:101CD000440961E070E083E090E00E94440962E022
:101CE00070E087E090E00E94440963E070E08BE0E0
:101CF00090E00E9444098091480281110E940904E9
:101D000080915C0281110E94050A80913E0281113E
:101D10000E942D0480911B01882329F0813029F431
:101D20000E943A0B02C00E94670A2091170130916D
:101D3000180180911D0290911E028217930781F174
:101D400040E050E060E67AEE80E090E00E94A21C65
:101D5000CA01B9010E94731B20E030E040EC51E45D
:101D60000E94C91A20E030E04AE754E40E94FF1BB9
:101D700060930E0270930F028093100290931102F1
:101D80000E943B1BAB01BC0184E692E00E945C1107
:101D9000809117019091180190931E0280931D026B
:101DA00080911901882321F00E94C9041092190121
:101DB0000E9492190091F7011091F8012091F90108
:101DC0003091FA01DC01CB01801B910BA20BB30B0C
:101DD0000A97A105B10570F00E9492196093F7016E
:101DE0007093F8018093F9019093FA0181E0809358
:101DF000F60102C01092F6010E949E190091EC01BA
:101E00001091ED012091EE013091EF01DC01CB0149
:101E1000801B910BA20BB30B8093E8019093E90117
:101E2000A093EA01B093EB010091E4011091E50168
:101E30002091E6013091E701081719072A073B07AF
:101E400040F48093E4019093E501A093E601B09300
:101E5000E70100910A0110910B0120910C013091D2
:101E60000D0180179107A207B30740F480930A0180
:101E700090930B01A0930C01B0930D0186E00E949A
:101E80009F1AEC0182E00E949F1AC817D90721F41B
:101E90001092FC011092FB01A895DF91CF911F9148
:101EA0000F910895CF92DF92EF92FF920F931F93BD
:101EB000CF93DF93CDB7DEB76A970FB6F894DEBF46
:101EC0000FBECDBF89E0E0E2F1E0DE011B9601909C
:101ED0000D928A95E1F787E0E9E2F1E0DE015496A0
:101EE00001900D928A95E1F78AE0E0E3F1E0DE01EE
:101EF000119601900D928A95E1F78DEF91E00E9485
:101F0000801281E0809306021092070240E060E0B8
:101F10008DEF91E00E9422128E01055F1F4F6E012E
:101F200084E1C80ED11C7801F80161918F018DEF19
:101F300091E00E94DF1769E170E080E090E00E948C
:101F4000C3190C151D0581F768EE73E080E090E081
:101F50000E94C3196DE371E08DEF91E00E94DD17DF
:101F60006E01FBE1CF0ED11CF80161918F018DEF65
:101F700091E00E94DF1769E170E080E090E00E944C
:101F8000C3190C151D0581F768EE73E080E090E041
:101F90000E94C3196DE371E08DEF91E00E94DD179F
:101FA0008E010F5F1F4FF80161918F018DEF91E05E
:101FB0000E94DF1769E170E080E090E00E94C319A1
:101FC0000E151F0581F768EE73E080E090E06A96D9
:101FD0000FB6F894DEBF0FBECDBFDF91CF911F913A
:101FE0000F91FF90EF90DF90CF900C94C319CF9397
:101FF000DF930FB6F894A895809160008861809374
:102000006000109260000FBE62E082E00E94631ADE
:1020100062E086E00E94631A62E085E00E94631A33
:1020200062E083E00E94631A62E087E00E94631A24
:1020300062E08BE00E94631A61E088E00E94631A0C
:1020400061E089E00E94631A61E08AE00E94631AFD
:1020500061E08DE00E94631A61E084E00E94631AEF
:1020600041E050E06AE673E080E00E94DA18CDEFCC
:10207000D1E01F868CE38E871092B9008CE08093AC
:10208000B8006AED75E0CE010E948F1284EF93E0F4
:102090009C878B8726E042E15AE760E070E08AE6A1
:1020A00092E00E9475160E94520FCE010E9480128B
:1020B00081E089871A86209117013091180140E04C
:1020C00050E060E67AEE80E090E00E94A21CCA0137
:1020D000B9010E94731B20E030E040EC51E40E9403
:1020E000C91A20E030E04AE754E40E94FF1B6093E5
:1020F0000E0270930F0280931002909311020E94BF
:102100003B1BAB01BC0184E692E00E94C4112FEF9F
:102110003FEFA9016FEA70E184E692E00E94D411DA
:102120009FE088E10FB6F894A895809360000FBEF9
:10213000909360000E94E90A0E94CA09DF91CF9142
:102140000C94DB09EDEFF1E01382128281E08187CC
:10215000148613868FEB91E09183808308950F930B
:102160001F930E9492190091190210911A02209156
:102170001B0230911C02AB01BC01401B510B620BD6
:10218000730B8091150190911601A0E0B0E08417C7
:102190009507A607B70720F485B1887F85B92D98E4
:1021A00020910D0230E0609113017091140188E1DB
:1021B00090E00E946C1C2617370708F443C0109269
:1021C0000D02209117023091180280911101909117
:1021D000120101972817390728F01092180210925F
:1021E000170209C0809117029091180201969093EE
:1021F00018028093170280911001882341F10E94F8
:1022000092196093190270931A0280931B029093A3
:102210001C028091160290E00196880F991F209170
:10222000170230911802232B29F43091150221E076
:10223000232701C020E035B1820F911D832B85B982
:102240002D9A05C080910D028F5F80930D028091C1
:102250001202882339F068EF8AE692E01F910F910D
:102260000C942E161F910F9108951F920F920FB686
:102270000F9211242F933F934F935F936F937F930C
:102280008F939F93AF93BF93EF93FF93E091680277
:10229000F09169020995FF91EF91BF91AF919F91E4
:1022A0008F917F916F915F914F913F912F910F90FF
:1022B0000FBE0F901F901895FC01A3E0440F551F0F
:1022C000661F771FAA95D1F74115510581E0680770
:1022D000710514F481E00EC033E07595679557954C
:1022E00047953A95D1F74115510581E06807710589
:1022F0001CF482E0828331C023E075956795579581
:1023000047952A95D1F74115510581E06807710578
:1023100014F483E0EFCF92E0759567955795479554
:102320009A95D1F74115510581E06807710514F4BC
:1023300084E0E0CF82E075956795579547958A953B
:10234000D1F785E082834115510581E06807710569
:1023500024F04FEF5FEF60E070E08FB78383F89475
:1023600051834083509387004093860083818FBFC1
:1023700080918100887F809381009091810082818B
:10238000892B8093810008951092800020E1209392
:1023900081000C945C11E1E8F0E02081DC011296F0
:1023A0008C91822B808308950F931F93CF93DF939B
:1023B000EC018B01BA01A9011416150616061706C1
:1023C00014F40E945C111D830C8381E080936F00E4
:1023D000CE01DF91CF911F910F910C94CB11DC01B5
:1023E000ED91FC910480F581E02D40E009940F937C
:1023F0001F93CF93FC0126816217A0F4C62F8C0196
:1024000064839085C90F6C2F6F70CF010E94EF110C
:102410006C2F62956F706061C801CF911F910F9111
:102420000C94EF11CF911F910F910895FC0127811A
:10243000269526952695621720F46583606B0C948B
:10244000EF1108950F931F93CF93DF931F92CDB792
:10245000DEB78C0149830E94F7114981642FC801BE
:102460000F90DF91CF911F910F910C941612CF9383
:10247000DF93EC019C818E81981758F4E881F981F3
:102480000480F581E02D42E0CE0109958C818F5FBB
:102490008C83DF91CF910895CF92DF92EF92FF92DC
:1024A0000F931F93CF93DF93EC01F62EC42ED22E01
:1024B0008F81869586958695081710F00FEF080F87
:1024C0001D2D011780F0412F6F2DCE010E94221289
:1024D000EF2CCE1430F060E0CE010E943712E3946E
:1024E000F8CF1F5FEECF4D2D6F2DCE01DF91CF9135
:1024F0001F910F91FF90EF90DF90CF900C942212DC
:102500000F93FC01078106950695069501504681BB
:10251000415020E060E00E944C120F910895EF922C
:10252000FF920F931F93CF93DF93EC011C821D82C8
:10253000FB0185919491E82EFB013296F49031963F
:10254000E491EE83FB013496E491EF83FB01359631
:10255000649168878C01802F8E198F1540F4F801E3
:102560006491CE010E94EF110F5F1F4FF4CFCE0197
:10257000DF91CF911F910F91FF90EF900C948012FB
:102580002F923F924F925F926F927F928F929F9283
:10259000AF92BF92CF92DF92EF92FF920F931F9371
:1025A000CF93DF93CDB7DEB727970FB6F894DEBF92
:1025B0000FBECDBFFC01038514850115110509F47B
:1025C00010C19F838E83F801B49131964491319666
:1025D00054903196A491EA2EF12CF7E0EF0EF11C05
:1025E00093E0F594E7949A95E1F7EA82F80134963E
:1025F00074913196E491671750F0862F90E02E2F5A
:1026000030E0F901E70FF11D8E179F07BCF06D3028
:1026100031F460E08E819F810E94F711DFC06A3043
:1026200009F0DFC0EE81FF81818545818E9D400DDF
:10263000112460E0CF010E942212D0C050E05B2B39
:10264000C8010696671BEE81FF81F185F983423050
:10265000510588F4452B09F019825E9C90015F9C1E
:10266000300D1124629F8001639F100D1124080F0B
:10267000191F412C24C0EA2FE77021F048E0442EB6
:102680004E1A01C0412CA82FFC0140E050E07E2FE3
:102690007A1B761728F47491470F511D3196F7CFA6
:1026A000FC01E60FF11D54904E9D80014F9D100DD1
:1026B0005E9D100D1124020F131F080F191FEE81CC
:1026C000FF81F481FB83EE81FF81F581FC83652C22
:1026D000712CCC24C394D12C812C912C22242A94AB
:1026E0002C0C7A81271608F074C0312CEE81FF8102
:1026F0008185381608F067C0211002C0332041F0F0
:10270000EE81FF8145814F5F6B81CF010E942212D4
:10271000A12CB12CA51408F041C0F501E80DF91D5C
:10272000E00FF11F2491442061F0CE14DF0449F43E
:10273000E22FF0E0042C02C0F595E7950A94E2F749
:102740002E2FEE81FF8181858230B9F4E22F311086
:10275000E295EF70F0E0E750FA4F2491EE81FF81AF
:102760008285622F811102C0CF0103C060958E81E6
:102770009F812D830E9437122D81EE81FF818285FA
:10278000622F811102C0CF0103C060958E819F81AD
:102790000E943712FFEFAF1ABF0ABCCFB12C79816C
:1027A000B71679F0EE81FF818285811103C060E068
:1027B000CF0103C06FEF8E819F810E943712B394C7
:1027C000EECF339493CF860C971CFFEFCF1ADF0A1E
:1027D00085CF6C818E819F810E94161281E090E0EE
:1027E00002C080E090E027960FB6F894DEBF0FBEDF
:1027F000CDBFDF91CF911F910F91FF90EF90DF90B0
:10280000CF90BF90AF909F908F907F906F905F9090
:102810004F903F902F9008950C94201ECF92DF92FE
:10282000EF92FF920F931F93CF93DF93C82F88E00F
:1028300090E00E94C71C8C0186E2C89FE001112431
:10284000C65CDD4FCE010E940C148F3F41F448E07E
:1028500050E069E176E0C8010E94FB1D0FC07801DD
:102860006801E8E0CE0ED11CCE010E940C14F701E5
:1028700081937F012196EC15FD05B1F7C801DF9129
:10288000CF911F910F91FF90EF90DF90CF9008951F
:10289000CF92DF92EF92FF920F931F93CF93DF932C
:1028A000C82F80E190E00E94C71C8C0183E1C89F83
:1028B000E0011124CE010E940C148F3F41F440E14D
:1028C00050E069E076E0C8010E94FB1D12C068017B
:1028D000E0E1CE0ED11C7801C01BD10BCE018E0DD4
:1028E0009F1D0E940C14F70181937F01EC15FD05DB
:1028F000A9F7C801DF91CF911F910F91FF90EF9041
:10290000DF90CF90089570E06E5B7D4F9B0146E2B3
:10291000849F200D311D1124C9010E940C148F3F8A
:1029200009F480E0089523E1829FC00111244096BC
:102930000C940C1423E1829FC001112441960E9443
:102940000C148F3F09F481E0089523E1829FC001B8
:10295000112442960E940C148F3F09F484E00895DC
:102960000F931F93CF93DF931F92CDB7DEB78C01E8
:1029700069830E940C146981681741F0C8010F90A7
:10298000DF91CF911F910F910C94281E0F90DF9132
:10299000CF911F910F910895CF92DF92EF92FF9206
:1029A0000F931F93CF93DF9396E2899F70011124B9
:1029B0008701065C1D4FEB016B0187E0C80ED11C3F
:1029C0006991C8010E94B0140F5F1F4FCC15DD053F
:1029D000B9F760E0C7018F5B9D4FDF91CF911F91E9
:1029E0000F91FF90EF90DF90CF900C94B014262FB2
:1029F00030E02E5B3D4F642FA90176E2879F400DAA
:102A0000511D1124CA010C94B014EF92FF920F9340
:102A10001F93CF93DF9393E1899FE00111248B01F2
:102A20007E01EFE0EE0EF11CF80161918F01CE0105
:102A30000E94B0142196CE15DF05B1F760E0CE01FB
:102A4000DF91CF911F910F91FF90EF900C94B014F4
:102A500023E1829FC001112440960C94B01423E11D
:102A6000829FC001112441960C94B01423E1829FEF
:102A7000C001112442960C94B014EF92FF920F9370
:102A80001F93CF93DF93C0E0D0E009E016E0FE0192
:102A9000E950F6407F01F8016491C701800F911F52
:102AA0000E94B0140F5F1F4FF6E008311F0799F71F
:102AB00060E0CE010F960E94B01468E7CE01409608
:102AC0000E94B01461E0CE0141960E94B01464E00F
:102AD000CE0142960E94B0146396CA3382E0D807B2
:102AE000A1F6DF91CF911F910F91FF90EF90089584
:102AF000EF92FF920F931F93CF93DF93CAE3D2E03D
:102B000009E116E0FE01E951F6407F01F801649108
:102B1000C701800F911F0E94B0140F5F1F4FF6E096
:102B200000321F0799F760E0CE0107960E94B014AB
:102B30008E01085F1F4FA6966FEFC8010E94B01468
:102B40000F5F1F4F0C171D07B9F70C3A1240C1F663
:102B5000DF91CF911F910F91FF90EF900895FC01AD
:102B6000918D228D892F90E0805C9F4F821B91096F
:102B70008F7399270895FC01918D828D981731F0FC
:102B8000828DE80FF11D858D90E008958FEF9FEF06
:102B90000895FC01918D828D981761F0828DDF017F
:102BA000A80FB11D5D968C91928D9F5F9F73928F40
:102BB00090E008958FEF9FEF089582E397E1892BCE
:102BC00049F080E090E0892B29F00E9432178111B2
:102BD0000C9400000895FC01848DDF01A80FB11D45
:102BE000A35ABF4F2C91848D90E001968F73992743
:102BF000848FA689B7892C93A089B1898C91806430
:102C00008C93938D848D981306C00288F389E02DF0
:102C100080818F7D80830895CF93DF93EC01888D31
:102C20008823C9F0EA89FB89808185FD05C0A889D0
:102C3000B9898C9186FD0FC00FB607FCF5CF808156
:102C400085FFF2CFA889B9898C9185FFEDCFCE01A0
:102C50000E94EB15E7CFDF91CF910895EF92FF929D
:102C60000F931F93CF93DF93EC0181E0888F9B8DAF
:102C70008C8D981305C0E889F989808185FD24C071
:102C8000F62E0B8D10E00F5F1F4F0F731127E02EF4
:102C90008C8DE8120CC00FB607FCFACFE889F989D1
:102CA000808185FFF5CFCE010E94EB15F1CF8B8D92
:102CB000FE01E80FF11DE35AFF4FF0820B8FEA8906
:102CC000FB898081806207C0EE89FF896083E88983
:102CD000F98980818064808381E090E0DF91CF91E9
:102CE0001F910F91FF90EF900895CF92DF92EF9296
:102CF000FF921F93CF93DF93EC016A017B01122FA8
:102D0000E889F98982E080834115514E610571059A
:102D1000B1F060E079E08DE390E0A70196010E94B8
:102D2000801CDA01C9010197A109B109B695A795DF
:102D300097958795AC01411580E15807A8F0E8897F
:102D4000F989108260E874E88EE190E0A7019601AD
:102D50000E94801CBA01A901415051096109710901
:102D60007695679557954795EC85FD855083EE855B
:102D7000FF854083188EEC89FD891083EA89FB89E1
:102D8000808180618083EA89FB898081886080837B
:102D9000EA89FB89808180688083EA89FB89808158
:102DA0008F7D8083DF91CF911F91FF90EF90DF9017
:102DB000CF9008951F920F920FB60F9211242F9368
:102DC0008F939F93EF93FF93E0917A02F0917B02B0
:102DD0008081E0918002F091810282FD12C0908199
:102DE000809183028F5F8F7320918402821751F04C
:102DF000E0918302F0E0E659FD4F958F80938302C6
:102E000001C08081FF91EF919F918F912F910F9041
:102E10000FBE0F901F9018951F920F920FB60F9232
:102E200011242F933F934F935F936F937F938F93CF
:102E30009F93AF93BF93EF93FF938AE692E00E9434
:102E4000EB15FF91EF91BF91AF919F918F917F9182
:102E50006F915F914F913F912F910F900FBE0F9007
:102E60001F9018958AE692E00E94AF1521E0892B09
:102E700009F420E0822F0895EAE6F2E0138212823C
:102E800088EE93E0A0E0B0E084839583A683B783C7
:102E900089EC91E09183808385EC90E0958784872D
:102EA00084EC90E09787868780EC90E0918B808B14
:102EB00081EC90E0938B828B82EC90E0958B848BFD
:102EC00086EC90E0978B868B118E128E138E148E6B
:102ED000089508950E94FF190E9469170E94F70F34
:102EE000CDEDD5E10E94550E2097E1F30E94DD154E
:102EF000F9CFCF92DF92EF92FF920F931F93CF9370
:102F0000DF936C017A018B01C0E0D0E0CE15DF05C4
:102F100089F0D8016D918D01D601ED91FC91019060
:102F2000F081E02DC6010995892B11F47E0102C0C4
:102F30002196ECCFC701DF91CF911F910F91FF90A8
:102F4000EF90DF90CF9008956115710579F0FB0146
:102F500001900020E9F73197AF01461B570BDC01C8
:102F6000ED91FC910280F381E02D099480E090E0E6
:102F70000895EF92FF920F931F93CF93DF938C01ED
:102F80007B01C0E0D0E0F701EC0FFD1F64916623E8
:102F900061F0D801ED91FC910190F081E02DC80124
:102FA0000995892B11F02196EECFCE01DF91CF91BB
:102FB0001F910F91FF90EF9008950C94A417DC01DE
:102FC000ED91FC910190F081E02D099465ED71E0A7
:102FD0000C94A4170F931F93CF93DF93EC010E94DF
:102FE000B9178C01CE010E94E617800F911FDF9167
:102FF000CF911F910F9108950F931F93CF93DF935C
:10300000EC010E94A4178C01CE010E94E617800FEC
:10301000911FDF91CF911F910F9108954F925F9271
:103020006F927F92EF92FF920F931F93CF93DF9354
:10303000CDB7DEB7A1970FB6F894DEBF0FBECDBFF8
:103040007C01FA01CB0119A2223008F42AE08E019A
:103050000F5D1F4F422E512C612C712CBF01A3011B
:1030600092010E94801CF901CA01015011096A30C5
:1030700014F4605D01C0695CD8016C93232B242B90
:10308000252B61F7B801C7010E94A417A1960FB6BE
:10309000F894DEBF0FBECDBFDF91CF911F910F918E
:1030A000FF90EF907F906F905F904F900895CF9238
:1030B000DF92EF92FF920F931F93CF93DF93EC0178
:1030C0006A017B012115310579F4E881F9810190CC
:1030D000F081E02D642FDF91CF911F910F91FF9030
:1030E000EF90DF90CF9009942A303105E9F477FF13
:1030F0001AC06DE20E94DF178C0144275527BA01E0
:103100004C195D096E097F092AE0CE010E940E1854
:10311000800F911FDF91CF911F910F91FF90EF9042
:10312000DF90CF9008952AE0B701A601CE01DF918C
:10313000CF911F910F91FF90EF90DF90CF900C9463
:103140000E189A01AB01770F660B770B0C9457188A
:103150000F931F93CF93DF93EC019A01AB01770F8D
:10316000660B770B0E9457188C01CE010E94E61760
:10317000800F911FDF91CF911F910F91089521151D
:10318000310541F4DC01ED91FC910190F081E02DDD
:10319000642F09940C940E189A01462F50E060E0B9
:1031A00070E00C94BF189A01AB0160E070E00C94E1
:1031B000BF1808958230E8F4E82FF0E0EE0FFF1F0B
:1031C000E45EFE4F71836083813041F0809169003D
:1031D0008C7F482B40936900E89A0895809169009C
:1031E000440F551F440F551F837F482B40936900A0
:1031F000E99A08951F920F920FB60F9211242F9300
:103200003F934F935F936F937F938F939F93AF936E
:10321000BF93EF93FF93E0911C01F0911D0109957D
:10322000FF91EF91BF91AF919F918F917F916F919E
:103230005F914F913F912F910F900FBE0F901F9074
:1032400018951F920F920FB60F9211242F933F9350
:103250004F935F936F937F938F939F93AF93BF939E
:10326000EF93FF93E0911E01F0911F010995FF91EB
:10327000EF91BF91AF919F918F917F916F915F91EE
:103280004F913F912F910F900FBE0F901F90189567
:103290001F920F920FB60F9211242F933F938F938B
:1032A0009F93AF93BF938091080390910903A091DE
:1032B0000A03B0910B033091070323E0230F2D374E
:1032C00020F40196A11DB11D05C026E8230F02962A
:1032D000A11DB11D20930703809308039093090358
:1032E000A0930A03B0930B0380910C0390910D03FC
:1032F000A0910E03B0910F030196A11DB11D809303
:103300000C0390930D03A0930E03B0930F03BF9192
:10331000AF919F918F913F912F910F900FBE0F9082
:103320001F9018952FB7F8946091080370910903C6
:1033300080910A0390910B032FBF08953FB7F89433
:1033400080910C0390910D03A0910E03B0910F0397
:1033500026B5A89B05C02F3F19F00196A11DB11DF0
:103360003FBFBA2FA92F982F8827820F911DA11D2B
:10337000B11DBC01CD0142E0660F771F881F991F68
:103380004A95D1F708958F929F92AF92BF92CF92B4
:10339000DF92EF92FF926B017C010E949E194B011C
:1033A0005C01C114D104E104F10401F10E94C81AC6
:1033B0000E949E19DC01CB0188199909AA09BB0951
:1033C000883E9340A105B10560F321E0C21AD108FF
:1033D000E108F10888EE880E83E0981EA11CB11C5C
:1033E000C114D104E104F10419F7DBCFFF90EF9091
:1033F000DF90CF90BF90AF909F908F90089578947A
:1034000084B5826084BD84B5816084BD85B58260E9
:1034100085BD85B5816085BDEEE6F0E08081816087
:103420008083E1E8F0E01082808182608083808187
:1034300081608083E0E8F0E0808181608083E1EB5F
:10344000F0E0808184608083E0EBF0E08081816047
:103450008083EAE7F0E080818460808380818260FD
:1034600080838081816080838081806880831092E6
:10347000C1000895833081F028F4813099F08230C2
:10348000A1F008958730A9F08830B9F08430D1F4E4
:10349000809180008F7D03C0809180008F77809322
:1034A0008000089584B58F7702C084B58F7D84BD78
:1034B00008958091B0008F7703C08091B0008F7D18
:1034C0008093B0000895CF93DF9390E0FC01EB5C14
:1034D000F94F2491FC01E75BF94F8491882361F156
:1034E00090E0880F991FFC01EF58F94FC591D491D6
:1034F000FC01E959F94FA591B491611109C09FB739
:10350000F8948881209582238883EC912E230BC028
:10351000623061F49FB7F8943881822F80958323BD
:103520008883EC912E2B2C939FBF06C08FB7F89405
:10353000E8812E2B28838FBFDF91CF910895CF9301
:10354000DF93282F30E0F901EF5DF94F8491F90105
:10355000EB5CF94FD491F901E75BF94FC491CC23AF
:1035600091F081110E943A1AEC2FF0E0EE0FFF1F4C
:10357000E35AF94FA591B491EC91ED2381E090E0ED
:1035800021F480E002C080E090E0DF91CF910895C7
:1035900008950E94DD1A0C94C51B0E94BE1B58F0B2
:1035A0000E94B71B40F029F45F3F29F00C94AE1B3A
:1035B00051110C94F91B0C94B41B0E94D61B68F398
:1035C0009923B1F3552391F3951B550BBB27AA27DC
:1035D00062177307840738F09F5F5F4F220F331F16
:1035E000441FAA1FA9F335D00E2E3AF0E0E832D0DE
:1035F00091505040E695001CCAF72BD0FE2F29D0E1
:10360000660F771F881FBB1F261737074807AB07B2
:10361000B0E809F0BB0B802DBF01FF2793585F4F27
:103620003AF09E3F510578F00C94AE1B0C94F91BB8
:103630005F3FE4F3983ED4F3869577956795B79509
:10364000F7959F5FC9F7880F911D9695879597F914
:103650000895E1E0660F771F881FBB1F621773078D
:103660008407BA0720F0621B730B840BBA0BEE1FA2
:1036700088F7E09508950E94421B6894B1110C945C
:10368000F91B08950E94DE1B88F09F5798F0B92F10
:103690009927B751B0F0E1F0660F771F881F991F87
:1036A0001AF0BA95C9F714C0B13091F00E94F81B16
:1036B000B1E008950C94F81B672F782F8827B85F26
:1036C00039F0B93FCCF3869577956795B395D9F7DF
:1036D0003EF490958095709561957F4F8F4F9F4FE9
:1036E0000895E89409C097FB3EF4909580957095F5
:1036F00061957F4F8F4F9F4F9923A9F0F92F96E93E
:10370000BB279395F695879577956795B795F111B2
:10371000F8CFFAF4BB0F11F460FF1BC06F5F7F4F4F
:103720008F4F9F4F16C0882311F096E911C0772361
:1037300021F09EE8872F762F05C0662371F096E86A
:10374000862F70E060E02AF09A95660F771F881F39
:10375000DAF7880F9695879597F9089597F99F67F7
:1037600080E870E060E008959FEF80EC0895002409
:103770000A941616170618060906089500240A94D6
:1037800012161306140605060895092E0394000C5C
:1037900011F4882352F0BB0F40F4BF2B11F460FFEB
:1037A00004C06F5F7F4F8F4F9F4F089557FD905814
:1037B000440F551F59F05F3F71F04795880F97FBF5
:1037C000991F61F09F3F79F08795089512161306AF
:1037D0001406551FF2CF4695F1DF08C016161706DE
:1037E0001806991FF1CF8695710561050894089513
:1037F000E894BB2766277727CB0197F908950E94A5
:10380000121C0C94C51B0E94B71B38F00E94BE1BF3
:1038100020F0952311F00C94AE1B0C94B41B1124D2
:103820000C94F91B0E94D61B70F3959FC1F3950F62
:1038300050E0551F629FF001729FBB27F00DB11D34
:10384000639FAA27F00DB11DAA1F649F6627B00DC4
:10385000A11D661F829F2227B00DA11D621F739FAD
:10386000B00DA11D621F839FA00D611D221F749FBB
:103870003327A00D611D231F849F600D211D822F02
:10388000762F6A2F11249F5750409AF0F1F0882329
:103890004AF0EE0FFF1FBB1F661F771F881F915056
:1038A0005040A9F79E3F510580F00C94AE1B0C943C
:1038B000F91B5F3FE4F3983ED4F3869577956795BF
:1038C000B795F795E7959F5FC1F7FE2B880F911D80
:1038D0009695879597F90895AA1BBB1B51E107C0E0
:1038E000AA1FBB1FA617B70710F0A61BB70B881F90
:1038F000991F5A95A9F780959095BC01CD0108951F
:10390000A1E21A2EAA1BBB1BFD010DC0AA1FBB1FE3
:10391000EE1FFF1FA217B307E407F50720F0A21B55
:10392000B30BE40BF50B661F771F881F991F1A94C2
:1039300069F760957095809590959B01AC01BD01EC
:10394000CF010895052E97FB1EF400940E94B91C28
:1039500057FD07D00E94801C07FC03D04EF40C9446
:10396000B91C50954095309521953F4F4F4F5F4F73
:10397000089590958095709561957F4F8F4F9F4FDB
:103980000895EE0FFF1F0590F491E02D0994CF9359
:10399000DF938230910510F482E090E0E091120311
:1039A000F091130320E030E0C0E0D0E0309711F157
:1039B0004081518148175907C0F04817590761F4F1
:1039C00082819381209719F09B838A832BC09093E7
:1039D00013038093120326C02115310519F04217F5
:1039E000530718F49A01BE01DF01EF010280F38151
:1039F000E02DDCCF2115310509F1281B390B2430CE
:103A0000310590F412968D919C9113976115710573
:103A100021F0FB019383828304C09093130380936E
:103A20001203FD01329644C0FD01E20FF31F8193A2
:103A30009193225031092D933C933AC02091100369
:103A400030911103232B41F42091020130910301A5
:103A50003093110320931003209100013091010154
:103A60002115310541F42DB73EB740910401509125
:103A70000501241B350BE0911003F0911103E217AF
:103A8000F307A0F42E1B3F0B2817390778F0AC0181
:103A90004E5F5F4F2417350748F04E0F5F1F50935E
:103AA0001103409310038193919302C0E0E0F0E092
:103AB000CF01DF91CF9108950F931F93CF93DF93A1
:103AC000009709F48CC0FC01329713821282009196
:103AD0001203109113030115110581F42081318126
:103AE000820F931F2091100330911103281739077B
:103AF00079F5F0931103E093100371C0D80140E011
:103B000050E0AE17BF0750F412962D913C911397D9
:103B1000AD012115310509F1D901F3CF9D01DA017C
:103B20003383228360817181860F971F82179307E9
:103B300069F4EC0128813981260F371F2E5F3F4F32
:103B4000318320838A819B8193838283452B29F44F
:103B5000F0931303E093120342C01396FC93EE9389
:103B60001297ED01499159919E01240F351FE217DB
:103B7000F30771F480819181840F951F029611964D
:103B80009C938E938281938113969C938E9312972C
:103B9000E0E0F0E0D80112968D919C911397009788
:103BA00019F0F8018C01F6CF8D919C9198012E5F50
:103BB0003F4F820F931F209110033091110328175C
:103BC000390769F4309729F4109213031092120305
:103BD00002C0138212821093110300931003DF912D
:103BE000CF911F910F910895FB01DC0105900D927B
:103BF0000020E1F70895FB01DC014150504048F0FE
:103C000005900D920020C9F701C01D92415050400F
:103C1000E0F70895FB01DC0101900D920020E1F72F
:103C20000895FB01DC014150504048F001900D9295
:103C30000020C9F701C01D9241505040E0F708959F
:103C4000F999FECF92BD81BDF89A992780B5089564
:103C5000262FF999FECF1FBA92BD81BD20BD0FB6A8
:103C6000F894FA9AF99A0FBE01960895F894FFCF46
:103C70000000140380000100000080841E00FF0685
:103C800001040001003200780001FF01D918D918A1
:103C9000426561744475696E6F76657220312E30AD
:103CA00062792057617272696F722E000A0A002FC2
:103CB000002D000400C90304007303030100000287
:103CC0000152030003000004010D031E0500001E45
:103CD0000500001E0500001E0500001E0500000274
:103CE00005030303010000020103030200DF021EBB
:103CF0000E0000040F9A0200100000FF10000003E5
:103D0000108D02061000001E0E0000020E030305B7
:103D1000004B0202173202021703030317110202BB
:103D2000170303021703030000000000000000C097
:103D3000127917B003000000002E167917AF15C9CD
:103D400015BB150C160D0A006E616E00696E6600DB
:043D50006F76660024
:00000001FF
