:100000000C949F040C94F61A0C941D1B0C94C704BA
:100010000C94C7040C94C7040C94C7040C94C70434
:100020000C94C7040C94C7040C94C7040C94C70424
:100030000C94C7040C9431130C94C7040C94C7049B
:100040000C94441B0C94C7040C94D6180C940819F7
:100050000C94C7040C94C7040C94C7040C94C704F4
:100060000C94C7040C94C7046707D40AA507D40AE4
:10007000AA07F20721086908A708D40AEF08D40ADA
:10008000D40A2D09D40A5909C809D40AED090F0A5E
:10009000D40AD40AD40AD40AD40AD40AD40A3F0A05
:1000A0007E0D950DAF0DBC0DD50DE20D000E080EA9
:1000B000180E230E4C0E6B0E7B0E940EC40ED30E38
:1000C000DB0EDA0D250F300F430F550F5D0F910F2B
:1000D000E10FE80FF30F04101C1075530043696320
:1000E0006C6F204D61783A007553004369636C6F03
:1000F000204D696E3A007553004369636C6F20416F
:1001000063743A0056657273696F6E3A00627920C3
:1001100057617272696F7200426561744475696EED
:100120006F00456C696765206C612063616E63696F
:100130006F6E3A005469706F20436F6D7061733A4F
:1001400000202042504D00456C69676520656C2099
:1001500074656D706F3A004E6F6D627265206361F9
:100160006E63696F6E3A00456C696765206C61204B
:1001700063616E63696F6E3A00436F7069617220EC
:1001800061637475616C20656E3A00456C696765E2
:10019000206C612063616E63696F6E3A00496E7313
:1001A000657274617220747261733A00456C69679C
:1001B00065206C612063616E63696F6E3A00506FF9
:1001C000736963696F6E2061206564697461723A56
:1001D000004E6F6D627265207265706572746F7229
:1001E000696F3A00456C6967652072657065727465
:1001F0006F72696F3A0042504D002042504D0A0024
:100200004120747520766572612020202020200016
:1002100072010441726465202020202020202020CB
:10022000202000740104436F6C65616E646F2020B0
:10023000202020202000680104436F6D70616472EB
:1002400065202020202020200071010444696F7364
:100250006120202020202020202020006A01044549
:100260006E636164656E61646F20202020200077DA
:10027000010445732064656C69746F202020202080
:1002800020006F0104457363617061746520202054
:10029000202020200069010446757475726F2020AB
:1002A00020202020202020006E0104486965726211
:1002B000616775656E612020202000660104486F2B
:1002C00079202020202020202020202020007A01BA
:1002D000044C756973456C656E61202020202020D8
:1002E000007301044D616C616261726573202020AE
:1002F000202020006B01044D65646F6C69617320E0
:100300002020202020200067010450657264696469
:100310006F202020202020202000780104506F65CD
:10032000746120202020202020202020006401044F
:1003300050785469202020202020202020202000D8
:100340007601045265766F6C7669656E646F202065
:1003500020200070010444652071756520736520BC
:10036000726965202000650104527569646F202060
:1003700020202020202020200075010453657220B9
:100380006F206E6F20736572202020006D01045372
:1003900065786F2020202020202020202020007938
:1003A00001045669766972206573206D617320209F
:1003B00020006C010420202020202020202020204C
:1003C00020202020000000002020202020202020AD
:1003D000202020202020200000000020202020209D
:1003E000202020202020202020200000000020208D
:1003F000202020202020202020202020200000005D
:10040000002020202020202020202020202020200C
:10041000000000002020202020202020202020205C
:10042000202020000000002020202020202020204C
:10043000202020202020000000004C6172676F20E7
:100440002000110410140000000000000000000053
:10045000000000000000000000000000000000009C
:10046000436F72746F202000000000000000000045
:10047000000000000000000000000000000000007C
:100480000000000000004E61646120202000000098
:10049000000000000000000000000000000000005C
:1004A000000000000000000000000000524553451D
:1004B00054004241434B00534156450044454C00D3
:1004C0004D454E5500504C41590053544F5000E794
:1004D00004DE04D504536F6E69646F203300536FDC
:1004E0006E69646F203200536F6E69646F20310053
:1004F000FF04F4045265706572746F72696F004D89
:100500006574726F6E6F6D6F00460538052C05219E
:1005100005130552657365742046616272696361F3
:10052000004D69646920436C6F636B00536F6E69A3
:10053000646F205469636B005469636B732069674F
:1005400075616C6573004D6F646F005605540551FD
:1005500005313600380034008E0580056F056005D2
:1005600043616D6269617220436F6D706173004316
:10057000616D62696172204469766973696F6E00AA
:1005800043616D626961722054656D706F004361F3
:100590006D62696172204E6F6D62726500B205A175
:1005A00005456C696D696E61722043616E63696FA8
:1005B0006E004564697461722043616E63696F6E99
:1005C00000C805C5055349004E4F000206F105E07D
:1005D00005D305566163696172204F7264656E00D0
:1005E000456C696D696E61722043616E63696F6EFF
:1005F00000496E7365727461722043616E63696F46
:100600006E0043616D62696172204F7264656E00B5
:100610002206140643616D62696172204F7264653F
:100620006E0043616D62696172204E6F6D6272652A
:100630000071065F064D063906456C696D696E618D
:1006400072205265706572746F72696F00436F70CB
:10065000696172205265706572746F72696F0045CE
:100660006469746172205265706572746F72696F2B
:100670000043616D62696172206465205265706536
:1006800072746F72696F00A6069C0694068F064905
:100690006E666F00416A75737465730043616E63C3
:1006A000696F6E6573005265706572746F72696F01
:1006B0007300000005072060000000000000005FDC
:1006C00000000007000700147F147F14242A7F2AEB
:1006D00012231308646236495620500008070300AD
:1006E000001C2241000041221C002A1C7F1C2A08F9
:1006F000083E08080080703000080808080800005C
:1007000060600020100804023E5149453E00427FCF
:10071000400072494949462141494D331814127F1E
:100720001027454545393C4A4949314121110907BE
:100730003649494936464949291E0000140000003F
:100740004034000000081422411414141414004111
:1007500022140802015909063E415D594E7C1211CE
:10076000127C7F494949363E414141227F41414106
:100770003E7F494949417F090909013E4141517381
:100780007F0808087F00417F41002040413F017FF2
:10079000081422417F404040407F021C027F7F04BA
:1007A00008107F3E4141413E7F090909063E415103
:1007B000215E7F09192946264949493203017F01F3
:1007C000033F4040403F1F2040201F3F4038403FF4
:1007D000631408146303047804036159494D43000A
:1007E0007F4141410204081020004141417F040241
:1007F00001020440404040400003070800205454D8
:1008000078407F28444438384444442838444428B5
:100810007F385454541800087E090218A4A49C7808
:100820007F0804047800447D40002040403D007F64
:100830001028440000417F40007C047804787C0844
:100840000404783844444438FC1824241818242418
:1008500018FC7C08040408485454542404043F44FD
:10086000243C4040207C1C2040201C3C4030403C2C
:1008700044281028444C9090907C4464544C44008C
:1008800008364100000077000000413608000201F0
:100890000204023C2623263C9E0819804000AED567
:1008A00080A83FD300408D142002A1C8DA12817FB6
:1008B000D9F1DB40A4A6AF00030C0F30333C3FC09E
:1008C000C3CCCFF0F3FCFF566163696F202020207A
:1008D00020202020202000564143494F20200000A6
:1008E00000000800020100000304070000000000EF
:1008F00000000001020408102040800102040810DA
:100900002001020408102004040404040404040266
:100910000202020202030303030303000000002398
:10092000002600290000000000250028002B000000
:10093000000000240027002A00009E12381911240C
:100940001FBECFEFD8E0DEBFCDBF11E0A0E0B1E029
:10095000E8E6F0E402C005900D92A83FB107D9F790
:1009600023E0A8EFB1E001C01D92AC32B207E1F77D
:1009700014E0CFE9D4E004C02197FE010E94BD1E1F
:10098000CD39D107C9F70E9466190C9432200C9416
:100990000000CF93DF938091100290911102892B78
:1009A000C1F086E00E949B1CEC0182E00E949B1C2F
:1009B000C817D90719F08FEF9FEF02C081E090E0D0
:1009C000909313028093120210921102109210025F
:1009D00009C080911002909111020196909311022A
:1009E00080931002DF91CF9108950C941C20EF9218
:1009F000FF920F931F93CF93DF931F92CDB7DEB774
:100A00007C01FC0100811181C80169830E941C20C6
:100A10006981681719F0C8010E942420C7010F904E
:100A2000DF91CF911F910F91FF90EF900895FC01FE
:100A30006093BC008091BC0087FFFCCF9091B9000F
:100A4000987F90830895CF92DF92EF92FF920F9359
:100A50001F93CF93DF93EC01C62ED42E8F8588236E
:100A600051F0411108C084E98093BC008091BC0022
:100A700084FDFCCF1F86EF848E01035F1F4FE110C2
:100A800014C0FE8464EAC8010E9417058D85883071
:100A900011F1803101F1DD2011F080E4E82EE092C7
:100AA000BB0064E8C8010E941705C092BB0064E85F
:100AB000C8010E94170582E0D81204C08F858F5F9D
:100AC0008F8711C084E98093BC008091BC0084FDB5
:100AD000FCCF1F8608C0FF0CF092BB0064E8C80181
:100AE0000E941705D8CFDF91CF911F910F91FF90F2
:100AF000EF90DF90CF90089580913602813099F485
:100B0000E0910A02E11103C01092360215C084E0A0
:100B1000E89FF0011124EA5AFE4F818180930A0276
:100B20001092090209C081E08093360210920902F6
:100B30001092080210920A0281E080931801089531
:100B400080913602882319F0813041F017C09091CE
:100B50000F0181E0892780930F0110C080910A0264
:100B6000843011F0813151F480910802E091060245
:100B7000F0910702E80FF11D80E2808381E080930D
:100B800018010895EF92FF920F931F93CF93DF9375
:100B9000CDB7DEB764970FB6F894DEBF0FBECDBFFA
:100BA0008B017A0121E020931E0220931D02009701
:100BB00091F0BC01CE0101960E94F01F47E060E079
:100BC00084E192E00E941E14BE016F5F7F4F84E1BA
:100BD00092E00E94D91901151105F9F0B8018E01B2
:100BE0000F5F1F4FC8010E94F01FF8010190002005
:100BF000E9F73197E01BF10BF695E79560E487E0A4
:100C0000E89F6019112447E084E192E00E941E14DD
:100C1000B80184E192E00E94D919E114F104E9F0ED
:100C2000B7018E010F5F1F4FC8010E94F01FF8012E
:100C300001900020E9F73197E01BF10B60E887E0B5
:100C4000E89F6019112447E084E192E00E941E149D
:100C5000B80184E192E00E94D91910921E026496B4
:100C60000FB6F894DEBF0FBECDBFDF91CF911F91BD
:100C70000F91FF90EF900895BF92CF92DF92EF9285
:100C8000FF920F931F93CF93DF93CDB7DEB76E978D
:100C90000FB6F894DEBF0FBECDBF909119018091C1
:100CA0003602981741F084E192E00E947C14809112
:100CB00036028093190180913602882321F0813019
:100CC00009F4E3C0B1C410913702112309F4AAC09A
:100CD000113009F0A9C440E060E084E192E00E9494
:100CE0001E1410921E0260912A0270E06F5F7F4F07
:100CF0004AE050E084E192E00E949D1A64E571E0D0
:100D000084E192E00E94D91968E372E084E192E004
:100D10000E94D91969E371E084E192E00E94D91937
:100D200002E021E040E860E084E192E00E944814A3
:100D300041E060E084E192E00E941E1460912B0289
:100D400070E06F5F7F4F4AE050E084E192E00E94E4
:100D50009D1A64E571E084E192E00E94D91961E492
:100D600072E084E192E00E94D91968E371E084E1C5
:100D700092E00E94D91982E080931D0204E023E0F2
:100D800047E260E084E192E00E944814609116011D
:100D9000709117014AE050E084E192E00E94CF1A7E
:100DA00043E068E284E192E00E941E146AEF71E081
:100DB00084E192E00E94B51910931D0206E026E03E
:100DC00040E569E384E192E00E94481460911001DB
:100DD000709111014AE050E084E192E00E94CF1A44
:100DE0006BE371E084E192E00E94D91960911201F5
:100DF00070911301660F771F660F771F4AE050E06E
:100E000084E192E00E94CF1A80910F0140EC54E0FF
:100E100060E070E0882319F085EC94E003C48AEC6C
:100E200094E000C482E080931D0202E021E04FE3E1
:100E300060E084E192E00E94481441E06BE084E1CC
:100E400092E00E941E1410921E0260911601709191
:100E500017014AE050E084E192E00E94CF1A41E09D
:100E600060E484E192E00E941E1466EF71E084E188
:100E700092E00E94B51981E080931D0244E060E495
:100E800084E192E00E941E14A1CF90910E01809106
:100E90000A02981741F084E192E00E947C1480914C
:100EA0000A0280930E0140E060E084E192E00E943B
:100EB0001E14E0910A028E2F90E0FC013297EC3173
:100EC000F10508F071C3EC5CFF4F0C94BD1E10924D
:100ED0001E0264EE71E084E192E00E94E61901E0F6
:100EE00021E040E860E084E192E00E94481400E0E4
:100EF00010E0DD24D3948091090290E080179107DF
:100F000019F4D0921E0202C010921E02802F0E947D
:100F10000A167C010F5F1F4F4AE050E0B80184E1E0
:100F200092E00E949D1A64E571E084E192E00E94E3
:100F3000D919B70184E192E00E94F819C7010E9413
:100F4000581F03301105B9F667C310921E0261EDF8
:100F500071E0B3C100910902053020F010E00550A6
:100F6000110902C000E010E0680125E0C20ED11CAA
:100F7000BB24B394C016D1060CF44EC3602F8091ED
:100F80002A020E947F160E9444167C0120910902C9
:100F900030E02017310719F4B0921E0202C01092FF
:100FA0001E020930110534F46FE371E084E192E030
:100FB0000E94D9190F5F1F4F4AE050E0B80184E149
:100FC00092E00E949D1A64E571E084E192E00E9443
:100FD000D919B70184E192E00E94F819C7010E9473
:100FE000581FC8CF6EEB71E084E192E00E94E619D1
:100FF0006091050280912A020E947F160E94441689
:101000007C0190910502692F70E06F5F7F4F4AE08D
:1010100050E084E192E00E949D1A64E571E084E171
:1010200092E00E94D919B70184E192E00E94F81978
:1010300069E371E084E192E00E94F8196CEA71E0E2
:1010400076C000910902053020F010E0055011092A
:1010500002C000E010E0680185E0C80ED11CBB248E
:10106000B394C016D1060CF4D7C2602F80912A0227
:101070000E947F160E9444167C012091090230E0F4
:101080002017310719F4B0921E0202C010921E02FE
:101090000930110534F46FE371E084E192E00E94BD
:1010A000D9190F5F1F4F4AE050E0B80184E192E088
:1010B0000E949D1A64E571E084E192E00E94D919D2
:1010C000B70184E192E00E94F819C7010E94581FFD
:1010D000C8CF6DE971E084E192E00E94E619609169
:1010E000050280912A020E947F160E9444167C010C
:1010F00090910502692F70E06F5F7F4F4AE050E0EA
:1011000084E192E00E949D1A64E571E084E192E03E
:101110000E94D919B70184E192E00E94F81969E3AD
:1011200071E084E192E00E94F8196BE871E084E1DB
:1011300092E00E94E61906E025E040E860E084E1E4
:1011400092E00E944814C7010E94581F78C1009184
:101150000902053020F010E00550110902C000E03E
:1011600010E0680125E0C20ED11CBB24B394C01668
:10117000D1060CF451C2602F80912A020E947F1682
:101180000E9444167C012091090230E020173107AB
:1011900019F4B0921E0202C010921E02093011050D
:1011A00034F46FE371E084E192E00E94D9190F5F9B
:1011B0001F4F4AE050E0B80184E192E00E949D1A7E
:1011C00064E571E084E192E00E94D919B70184E1FD
:1011D00092E00E94F819C7010E94581FC8CF1092D0
:1011E0001E0269E771E084E192E00E94E61901E0E5
:1011F00021E040E860E084E192E00E94481400E0D1
:1012000010E0DD24D3948091090290E080179107CB
:1012100019F4D0921E0202C010921E02802F0E946A
:101220000A167C010F5F1F4F4AE050E0B80184E1CD
:1012300092E00E949D1A64E571E084E192E00E94D0
:10124000D919B70184E192E00E94F819C7010E9400
:10125000581F03301105B9F6DFC167E671E084E17C
:1012600092E00E94E619809109020E9444167C01D6
:1012700001E021E040E860E084E192E00E9448144F
:1012800090910902692F70E06F5F7F4F4AE050E054
:1012900084E192E00E949D1A64E571E084E192E0AD
:1012A0000E94D919B70184E192E00E94F819C701A0
:1012B000E3C010921E0267E571E084E192E00E94B3
:1012C000E61901E021E040E860E084E192E00E945C
:1012D0004814809112029091130218161906CCF44A
:1012E00080910802E0910602F0910702E80FF11DDB
:1012F0008081803210F480E207C0803211F481E4F2
:1013000003C08A3710F48F5F80831092130210920B
:101310001202809112029091130297FF11C08091E6
:101320000802E0910602F0910702E80FF11D8081AA
:10133000823410F0815080831092130210921202B6
:10134000609106027091070284E192E00E94F81910
:1013500002E022E040E860E084E192E00E9448146C
:1013600060910802862F880F680F660F42E084E1C3
:1013700092E00E941E146DE371E084E192E00E940D
:10138000D91942EB54E067EB74E08CEB94E04AC16E
:1013900010921E0267E471E084E192E00E94E61977
:1013A00069E371E084E192E00E94F81904E023E02F
:1013B00040E860E084E192E00E9448144AE050E096
:1013C0006091090284E192E00E94C81A61E471E030
:1013D00084E192E00E94E6191FC110921E0264E3AC
:1013E00071E084E192E00E94E61969E371E084E132
:1013F00092E00E94F81904E023E040E860E084E114
:1014000092E00E9448146091090270E06E5F7F4F85
:101410004AE050E084E192E00E94A41AFDC01092DC
:101420001E0262E271E084E192E00E94E61901E0AE
:1014300021E040E860E084E192E00E94481480915D
:1014400009020E9444168C0190910902692F70E0F4
:101450006F5F7F4F4AE050E084E192E00E949D1A66
:1014600064E571E084E192E00E94D919B80184E159
:1014700092E00E94F819C8010E94581FCDC0109236
:101480001E0268E171E084E192E00E94E6196DE0DD
:1014900071E084E192E00E94E61964E071E084E189
:1014A00092E00E94B5194AE050E061E070E084E10A
:1014B00092E00E949D1A64E571E084E192E00E944E
:1014C000D9194AE050E060E070E084E192E00E94C7
:1014D000A41A03E023E040E860E084E192E00E9487
:1014E000481469EF70E084E192E00E94B5194091E0
:1014F000FC015091FD016091FE017091FF012AE015
:1015000030E084E192E00E94BB1A66EF70E084E173
:1015100092E00E94E61904E024E040E860E084E103
:1015200092E00E9448146BEE70E084E192E00E9429
:10153000B51940910A0150910B0160910C01709115
:101540000D012AE030E084E192E00E94BB1A68EECF
:1015500070E084E192E00E94E61905E025E040E8B1
:1015600060E084E192E00E9448146DED70E084E157
:1015700092E00E94B5194091F8015091F9016091F3
:10158000FA017091FB012AE030E084E192E00E94D0
:10159000BB1A6AED70E084E192E00E94E61942EB2A
:1015A00054E06CEA74E03CC000E010E0FF24F394E7
:1015B00080910A0224E0829FC0011124FC01EA5AB2
:1015C000FE4F208130E00217130734F52091090205
:1015D00030E02017310719F4F0921E0202C0109279
:1015E0001E02FC01EA5AFE4FC801880F991F0280B3
:1015F000F381E02DE80FF91F65917491CE010196FA
:101600000E94F01FBE016F5F7F4F84E192E00E9455
:10161000F8190F5F1F4FCCCF42EB54E060E070E051
:1016200080E090E00E94C2056E960FB6F894DEBF8F
:101630000FBECDBFDF91CF911F910F91FF90EF9023
:10164000DF90CF90BF9008951F93CF93DF93182F13
:10165000EB010E949B1C892B61F58AE08C9FF001B5
:101660008D9FF00D1124EC5AFD4F178216821382C4
:101670008081811106C091E02481358125303105BA
:1016800008F490E08AE08C9FF0018D9FF00D11240A
:10169000EC5AFD4F9283248135812530310518F0B5
:1016A00081E0808306C080910B02280F311D3583B5
:1016B0002483812F0E949B1C019771F58AE08C9FE7
:1016C000F0018D9FF00D1124EC5AFD4F158214820C
:1016D00011861086118212828081882339F081E080
:1016E000268137812530310508F480E09AE09C9FFF
:1016F000F0019D9FF00D1124EC5AFD4F83838681EC
:1017000097818530910510F0108206C020910B0260
:10171000820F911D978386838AE08C9FF0018D9FB5
:10172000F00D1124EC5AFD4F8081882379F020912F
:101730000B0280859185820F911D91878087883C5F
:10174000910519F481E0818301C01182DF91CF916D
:101750001F910895CF93DF9380912A020E940A1669
:10176000EC01BC0188E392E00E940620CE01DF91EB
:10177000CF910C94581F0F931F93CF9360912B021E
:1017800080912A020E947F16C82F0E9444168C0165
:10179000BC0181E492E00E940620C8010E94581F0B
:1017A0008C2F0E948F1601E412E0F801808B8C2FA1
:1017B0000E949616F801818B8C2F0E94A116F801C9
:1017C000828BCF911F910F910895809136028130C5
:1017D00009F059C080910A028131C1F18D3109F1BE
:1017E000843009F050C06091060270910702809128
:1017F0002A020E94C81680910602909107020E9458
:10180000581FE0910A0284E0E89FF0011124EA5A8F
:10181000FE4F818180930A02109209020E94AA0B56
:1018200032C080E894E8AEE1B0E080930A01909382
:101830000B01A0930C01B0930D011092F8011092CE
:10184000F9011092FA011092FB011DC0609106028D
:1018500070910702809104020E9401178091060294
:10186000909107020E94581F10920902E0910A020B
:1018700084E0E89FF0011124EA5AFE4F81818093B1
:101880000A020E94BB0B81E0809318010895CF9358
:10189000C0913702CC2379F1C13009F078C0809132
:1018A000120290911302181619062CF480912B0243
:1018B0008D3108F453C0809112029091130297FF6A
:1018C00004C080912B02811155C08091510290E09B
:1018D00090931701809316018091520290E09093AB
:1018E0001301809312018091530290E090931101B3
:1018F000809310014CC0809112029091130218162F
:1019000019069CF480911601909117018F3F910563
:1019100028F40196909317018093160110921302F8
:101920001092120281E0809318018091120290912E
:10193000130297FF2CC08091160190911701009718
:1019400029F00197909317018093160110921302CA
:101950001092120281E08093180119C08F5F80936A
:101960002B020E94BB0B1092130210921202C09322
:101970001801A1CF815080932B020E94BB0B1092C3
:1019800013021092120281E0809318019ECFCF9132
:1019900008958CEA92E00E94F504823010F480935E
:1019A00037028DEA92E00E94F504823018F48170CB
:1019B00080932C028EEA92E00E94F504823018F4A3
:1019C0008170809329028FEA92E00E94F5048330AF
:1019D00010F480932D020895CF93DF9300D0CDB7FC
:1019E000DEB70E9439170E9474178CEA92E09A833E
:1019F00089836FEFCE0101960E94F7048DEA92E091
:101A00009A8389836FEFCE0101960E94F7048EEAD4
:101A100092E09A8389836FEFCE0101960E94F704CA
:101A20008FEA92E09A83898360E0CE0101960E945A
:101A3000F704FFCF0F931F93CF93DF93CDB7DEB79C
:101A400060970FB6F894DEBF0FBECDBF8091120233
:101A5000909113021816190604F580910902E0917D
:101A60000A0294E0E99FF0011124EA5AFE4F9081A6
:101A7000482F50E0292F30E02150310942175307F9
:101A80001CF48F5F80930902992321F010921302B6
:101A90001092120281E080931801809112029091BD
:101AA000130297FF19C080910902882319F0815011
:101AB00080930902E0910A0284E0E89FF00111247A
:101AC000EA5AFE4F8081882321F01092130210926F
:101AD000120281E08093180180916A02882309F440
:101AE000B9C2E0910A028E2F90E08D31910508F085
:101AF000AEC2FC01E05BFF4F0C94BD1E8091090259
:101B0000813079F050F0823009F49CC2833009F0C2
:101B10009EC2109209028DE198C21092090281E0E2
:101B200094C2109209028EE090C280910902813025
:101B300071F048F0823079F0833009F088C2109259
:101B400009028DE082C21092090282E07EC21092E8
:101B5000090283E07AC2109209028CE076C2809179
:101B6000090280932A0210922B020E94AA0B0E9463
:101B7000BB0B109236026BC280910902882339F0A8
:101B8000813009F064C21092090285E05EC21092B1
:101B9000090284E080930A0280912A020E940A16B8
:101BA00090930702809306020AC080910802863053
:101BB00030F447C1809108028E3008F442C110927F
:101BC000080245C280910902813071F048F08230EC
:101BD00099F0833009F03BC2109209028BE035C2C4
:101BE0001092090286E003C01092090288E08093F7
:101BF0000A02109205022BC2109209028AE0F7CF66
:101C000080910902809305021092090287E01DC2AB
:101C1000409109026091050280912A020E94F31608
:101C200080910502809309021092050286E074C13A
:101C3000809109028D3108F00AC28093050210924A
:101C4000090289E002C20DE110E060910502862FD1
:101C500090E00196801791077CF46FEF600F809100
:101C60002A020E947F16482F602F80912A020E942C
:101C7000F31601501109E9CF6F5F4091090280917D
:101C80002A020E94F316809105028F5F8093090259
:101C90001092050288E040C10091090210E00D3168
:101CA00011057CF461E0600F80912A020E947F168A
:101CB000482F602F80912A020E94F3160F5F1F4F5A
:101CC000EECF40E06DE180912A020E94F31610925F
:101CD00005028AE021C180910902813009F011C119
:101CE00010E04FEF612F80912A020E94F3161F5FD0
:101CF0001E31B9F706C110E0612F80912A020E94BF
:101D00007F16482F612F809109020E94F3161F5FF2
:101D10001E3191F780912A020E940A16BC0180911F
:101D200009020E94C816B8C080910902813009F1E9
:101D30008FEF898348E050E0BE016F5F7F4FCB019A
:101D40000E940D20BE016F5F7F4F80912A020E948A
:101D5000C81610920902E0910A0294E0E99FF0018E
:101D60001124EA5AFE4F818180930A020E94AA0B35
:101D70006EC110E04FEF612F80912A020E94F3168E
:101D80001F5F1E31B9F7D4CF80910902882339F043
:101D9000813009F05CC11092090285E156C11092B0
:101DA00009028FE052C180910902809304021092CF
:101DB000090280E14AC1109109021130F9F080F066
:101DC000123031F1133009F042C184E180930A02EC
:101DD000809104020E94A1168093050282502EC0B9
:101DE0001092090281E180930A02809104020E940C
:101DF0004416909307028093060229C182E18093E2
:101E00000A02809104020E948F168093050216C078
:101E100083E180930A02809104020E9496168093C7
:101E20000502823031F0843031F0813009F00FC189
:101E3000C5C081E003C01093090209C18093090263
:101E400006C18F5F8093080202C1609109028091F0
:101E500004020E94241710920902109205021EC06B
:101E600080910902813039F020F0823049F464E039
:101E700003C061E001C062E0809104020E942B1760
:101E8000109205023EC0609109026E5F80910402CB
:101E90000E9432171092050210920902E0910A0284
:101EA00084E0E89FF001112434C0809109028093FE
:101EB00004021092090286E1C8C0809109028130B3
:101EC00001F58FEF898340E150E0BE016F5F7F4FE6
:101ED000CB010E940D20BE016F5F7F4F80910402F5
:101EE0000E9401176FEF809104020E9424176FEF88
:101EF000809104020E942B176FEF809104020E94D0
:101F0000321710920902E0910A0294E0E99FF00171
:101F10001124EA5AFE4F818180930A020E94BB0B72
:101F200096C080910902823069F128F4882361F01B
:101F30008130C9F08CC0833091F1843009F087C0C2
:101F40008CE180930A023AC08CEA92E00E94F50488
:101F5000809305028F3F19F08093090202C010920E
:101F6000090288E172C08DEA92E00E94F504809334
:101F700005028F3F19F08093090202C010920902F6
:101F800089E163C08FEA92E00E94F504833018F47F
:101F90008093090202C0109209028AE156C08EEABB
:101FA00092E00E94F504809305028F3F19F0809320
:101FB000090202C0109209028BE147C01092090287
:101FC00046C060910902609337028CEA92E011C02A
:101FD00061E080910902811101C060E060932C02F0
:101FE0008DEA92E01BC06091090260932D028FEA96
:101FF00092E00E94AC1610920902E0910A0284E07D
:10200000E89FF001112414C061E080910902811160
:1020100001C060E0609329028EEA92E00E94AC1653
:1020200010920902E0910A0294E0E99FF001112464
:10203000EA5AFE4F818109C080910902813011F472
:102040000E94EC0C1092090287E180930A0281E061
:102050008093180160960FB6F894DEBF0FBECDBF17
:10206000DF91CF911F910F9108950F931F93CF93FD
:10207000DF930E949A1B6093000270930102809389
:1020800002029093030260E070E085E090E00E941D
:10209000240B61E070E083E090E00E94240B62E09A
:1020A00070E087E090E00E94240B63E070E084E041
:1020B00090E00E94240B8091600281110E947C05B7
:1020C0008091740281110E94E50B8091560281116A
:1020D0000E94A00580913602882329F0813029F4DE
:1020E0000E941A0D02C00E94470C209116013091E7
:1020F000170180913402909135028217930781F184
:1021000040E050E060E67AEE80E090E00E949E1EA3
:10211000CA01B9010E946F1D20E030E040EC51E49B
:102120000E94C51C20E030E04AE754E40E94FB1DF9
:1021300060932502709326028093270290932802D1
:102140000E94371DAB01BC018CE792E00E9458133E
:10215000809116019091170190933502809334027B
:1021600080911801882321F00E943C0610921801EA
:102170000E948E1B00910C0210910D0220910E0204
:1021800030910F02DC01CB01801B910BA20BB30B32
:102190000A97A105B10570F00E948E1B60930C0296
:1021A00070930D0280930E0290930F0281E0809352
:1021B0000B0202C010920B020E949A1B00910002B7
:1021C000109101022091020230910302DC01CB0147
:1021D000801B910BA20BB30B8093FC019093FD012C
:1021E000A093FE01B093FF010091F8011091F90155
:1021F0002091FA013091FB01081719072A073B07C4
:1022000040F48093F8019093F901A093FA01B09300
:10221000FB0100910A0110910B0120910C013091FA
:102220000D0180179107A207B30740F480930A01BC
:1022300090930B01A0930C01B0930D0186E00E94D6
:102240009B1CEC0182E00E949B1CC817D90721F45B
:102250001092130210921202A895DF91CF911F9154
:102260000F910895CF93DF9384E192E00E947C1454
:1022700061E471E084E192E00E94D919C0E0D0E00D
:10228000FE01E050FE4F6491CE010E94AC162196F3
:10229000CC3A82E0D807A1F7DF91CF910895CF9291
:1022A000DF92EF92FF920F931F93CF93DF93CDB7FF
:1022B000DEB76A970FB6F894DEBF0FBECDBF89E0D8
:1022C000EEE1F1E0DE011B9601900D928A95E1F7B7
:1022D00087E0E7E2F1E0DE01549601900D928A95E5
:1022E000E1F78AE0EEE2F1E0DE01119601900D9255
:1022F0008A95E1F784E192E00E947C1481E080936A
:102300001D0210921E0240E060E084E192E00E9413
:102310001E148E01055F1F4F6E0184E1C80ED11C93
:102320007801F80161918F0184E192E00E94DB194C
:1023300069E170E080E090E00E94BF1B0C151D0574
:1023400081F768EE73E080E090E00E94BF1B69E3D4
:1023500071E084E192E00E94D9196E01FBE1CF0E99
:10236000D11CF80161918F0184E192E00E94DB1998
:1023700069E170E080E090E00E94BF1B0C151D0534
:1023800081F768EE73E080E090E00E94BF1B69E394
:1023900071E084E192E00E94D9198E010F5F1F4F16
:1023A000F80161918F0184E192E00E94DB1969E1FB
:1023B00070E080E090E00E94BF1B0E151F0581F7C2
:1023C00068EE73E080E090E06A960FB6F894DEBFA6
:1023D0000FBECDBFDF91CF911F910F91FF90EF9076
:1023E000DF90CF900C94BF1BCF93DF930FB6F89480
:1023F000A8958091600088618093600010926000D1
:102400000FBE62E082E00E945F1C62E086E00E94F4
:102410005F1C62E085E00E945F1C62E083E00E9436
:102420005F1C62E087E00E945F1C62E084E00E9423
:102430005F1C61E088E00E945F1C61E089E00E940F
:102440005F1C61E08AE00E945F1C61E08DE00E94F9
:102450005F1C41E050E069EC74E080E00E94D61A15
:10246000C4E1D2E01F868CE38E871092B9008CE025
:102470008093B80068E978E0CE010E948B1482EB6B
:1024800096E09C878B8726E042E15AE760E070E0A7
:1024900082E892E00E9471180E944F11CE010E94C2
:1024A0007C1481E089871A862091160130911701EA
:1024B00040E050E060E67AEE80E090E00E949E1EF0
:1024C000CA01B9010E946F1D20E030E040EC51E4E8
:1024D0000E94C51C20E030E04AE754E40E94FB1D46
:1024E000609325027093260280932702909328021E
:1024F0000E94371DAB01BC018CE792E00E94C01323
:102500002FEF3FEFA9016BEA72E18CE792E00E94A6
:10251000D0130E94C90C0E9432110E94AA0B0E9483
:10252000BB0B9FE088E10FB6F894A89580936000FC
:102530000FBE90936000DF91CF910895E4E1F2E047
:102540001382128281E081871486138682ED91E0E6
:102550009183808308950F931F930E948E1B009197
:102560003002109131022091320230913302AB01DE
:10257000BC01401B510B620B730B809114019091B5
:102580001501A0E0B0E084179507A607B70720F46F
:1025900085B1887F85B92D982091240230E0609123
:1025A00012017091130188E190E00E94681E2617C5
:1025B000370708F443C01092240220912E02309174
:1025C0002F0280911001909111010197281739076E
:1025D00028F010922F0210922E0209C080912E0234
:1025E00090912F02019690932F0280932E0280915A
:1025F0000F01882341F10E948E1B6093300270937B
:102600003102809332029093330280912D0290E048
:102610000196880F991F20912E0230912F02232BB3
:1026200029F430912C0221E0232701C020E035B1AC
:10263000820F911D832B85B92D9A05C080912402AC
:102640008F5F8093240280912902882339F068EFFC
:1026500082E892E01F910F910C942A181F910F911C
:1026600008951F920F920FB60F9211242F933F934C
:102670004F935F936F937F938F939F93AF93BF938A
:10268000EF93FF93E0918002F09181020995FF9111
:10269000EF91BF91AF919F918F917F916F915F91DA
:1026A0004F913F912F910F900FBE0F901F90189553
:1026B000FC01A3E0440F551F661F771FAA95D1F7B1
:1026C0004115510581E06807710514F481E00EC0E1
:1026D00033E075956795579547953A95D1F741152C
:1026E000510581E0680771051CF482E0828331C0E6
:1026F00023E075956795579547952A95D1F741152C
:10270000510581E06807710514F483E0EFCF92E092
:1027100075956795579547959A95D1F74115510548
:1027200081E06807710514F484E0E0CF82E07595DC
:102730006795579547958A95D1F785E0828341152E
:10274000510581E06807710524F04FEF5FEF60E00D
:1027500070E08FB78383F894518340835093870050
:102760004093860083818FBF80918100887F809312
:102770008100909181008281892B8093810008954E
:102780001092800020E1209381000C945813E1E81E
:10279000F0E02081DC0112968C91822B80830895D9
:1027A0000F931F93CF93DF93EC018B01BA01A90123
:1027B000141615061606170614F40E9458131D83E6
:1027C0000C8381E080936F00CE01DF91CF911F9148
:1027D0000F910C94C713DC01ED91FC910480F581FD
:1027E000E02D40E009940F931F93CF93FC012681C5
:1027F0006217A0F4C62F8C0164839085C90F6C2FDB
:102800006F70CF010E94EB136C2F62956F70606147
:10281000C801CF911F910F910C94EB13CF911F9191
:102820000F910895FC01278126952695269562171C
:1028300020F46583606B0C94EB1308950F931F9342
:10284000CF93DF931F92CDB7DEB78C0149830E94EF
:10285000F3134981642FC8010F90DF91CF911F912D
:102860000F910C941214CF93DF93EC019C818E8115
:10287000981758F4E881F9810480F581E02D42E051
:10288000CE0109958C818F5F8C83DF91CF91089564
:10289000CF92DF92EF92FF920F931F93CF93DF932C
:1028A000EC01F62EC42ED22E8F81869586958695C4
:1028B000081710F00FEF080F1D2D011780F0412FA2
:1028C0006F2DCE010E941E14EF2CCE1430F060E06C
:1028D000CE010E943314E394F8CF1F5FEECF4D2D4D
:1028E0006F2DCE01DF91CF911F910F91FF90EF904F
:1028F000DF90CF900C941E140F93FC010781069576
:102900000695069501504681415020E060E00E9406
:1029100048140F910895EF92FF920F931F93CF9356
:10292000DF93EC011C821D82FB0185919491E82EBE
:10293000FB013296F4903196E491EE83FB013496DC
:10294000E491EF83FB013596649168878C01802FB9
:102950008E198F1540F4F8016491CE010E94EB139B
:102960000F5F1F4FF4CFCE01DF91CF911F910F91D9
:10297000FF90EF900C947C142F923F924F925F92B5
:102980006F927F928F929F92AF92BF92CF92DF927F
:10299000EF92FF920F931F93CF93DF93CDB7DEB7E4
:1029A00027970FB6F894DEBF0FBECDBFFC0103859D
:1029B00014850115110509F410C19F838E83F80158
:1029C000B49131964491319654903196A491EA2E67
:1029D000F12CF7E0EF0EF11C93E0F594E7949A9553
:1029E000E1F7EA82F801349674913196E491671721
:1029F00050F0862F90E02E2F30E0F901E70FF11D07
:102A00008E179F07BCF06D3031F460E08E819F819E
:102A10000E94F313DFC06A3009F0DFC0EE81FF814E
:102A2000818545818E9D400D112460E0CF010E947B
:102A30001E14D0C050E05B2BC8010696671BEE81C8
:102A4000FF81F185F9834230510588F4452B09F067
:102A500019825E9C90015F9C300D1124629F800161
:102A6000639F100D1124080F191F412C24C0EA2F59
:102A7000E77021F048E0442E4E1A01C0412CA82FE7
:102A8000FC0140E050E07E2F7A1B761728F4749109
:102A9000470F511D3196F7CFFC01E60FF11D549001
:102AA0004E9D80014F9D100D5E9D100D1124020F53
:102AB000131F080F191FEE81FF81F481FB83EE8144
:102AC000FF81F581FC83652C712CCC24C394D12C1F
:102AD000812C912C22242A942C0C7A81271608F020
:102AE00074C0312CEE81FF818185381608F067C0F3
:102AF000211002C0332041F0EE81FF8145814F5FFC
:102B00006B81CF010E941E14A12CB12CA51408F0DA
:102B100041C0F501E80DF91DE00FF11F249144209B
:102B200061F0CE14DF0449F4E22FF0E0042C02C07F
:102B3000F595E7950A94E2F72E2FEE81FF818185C6
:102B40008230B9F4E22F3110E295EF70F0E0E954F1
:102B5000F74F2491EE81FF818285622F811102C09F
:102B6000CF0103C060958E819F812D830E94331415
:102B70002D81EE81FF818285622F811102C0CF01FC
:102B800003C060958E819F810E943314FFEFAF1ABE
:102B9000BF0ABCCFB12C7981B71679F0EE81FF81E5
:102BA0008285811103C060E0CF0103C06FEF8E8189
:102BB0009F810E943314B394EECF339493CF860C4D
:102BC000971CFFEFCF1ADF0A85CF6C818E819F8122
:102BD0000E94121481E090E002C080E090E027960D
:102BE0000FB6F894DEBF0FBECDBFDF91CF911F911E
:102BF0000F91FF90EF90DF90CF90BF90AF909F909C
:102C00008F907F906F905F904F903F902F9008959E
:102C10000C941C20CF92DF92EF92FF920F931F93A0
:102C2000CF93DF93C82F88E090E00E94C31E8C01F1
:102C300086E2C89FE0011124C65CDD4FCE010E94F0
:102C400008168F3F41F448E050E067ED78E0C80196
:102C50000E94F71F0FC078016801E8E0CE0ED11C7A
:102C6000CE010E940816F70181937F012196EC1591
:102C7000FD05B1F7C801DF91CF911F910F91FF9032
:102C8000EF90DF90CF900895CF92DF92EF92FF9276
:102C90000F931F93CF93DF93C82F80E190E00E94A2
:102CA000C31E8C0183E1C89FE0011124CE010E9464
:102CB00008168F3F41F440E150E067EC78E0C8012E
:102CC0000E94F71F12C06801E0E1CE0ED11C78010E
:102CD000C01BD10BCE018E0D9F1D0E940816F7015F
:102CE00081937F01EC15FD05A9F7C801DF91CF9114
:102CF0001F910F91FF90EF90DF90CF90089570E0BB
:102D00006E5B7D4F9B0146E2849F200D311D112497
:102D1000C9010E9408168F3F09F480E0089523E15D
:102D2000829FC001112440960C94081623E1829FD3
:102D3000C001112441960E9408168F3F09F481E0DA
:102D4000089523E1829FC001112442960E94081633
:102D50008F3F09F484E008950F931F93CF93DF937F
:102D60001F92CDB7DEB78C0169830E940816698176
:102D7000681741F0C8010F90DF91CF911F910F911B
:102D80000C9424200F90DF91CF911F910F91089503
:102D9000CF92DF92EF92FF920F931F93CF93DF9327
:102DA00096E2899F700111248701065C1D4FEB019B
:102DB0006B0187E0C80ED11C6991C8010E94AC1656
:102DC0000F5F1F4FCC15DD05B9F760E0C7018F5BC2
:102DD0009D4FDF91CF911F910F91FF90EF90DF906A
:102DE000CF900C94AC16262F30E02E5B3D4F642F15
:102DF000A90176E2879F400D511D1124CA010C9450
:102E0000AC16EF92FF920F931F93CF93DF9393E152
:102E1000899FE00111248B017E01EFE0EE0EF11C91
:102E2000F80161918F01CE010E94AC162196CE155A
:102E3000DF05B1F760E0CE01DF91CF911F910F91D7
:102E4000FF90EF900C94AC1623E1829FC0011124F7
:102E500040960C94AC1623E1829FC0011124419648
:102E60000C94AC1623E1829FC001112442960C946D
:102E7000AC16EF92FF920F931F93CF93DF93C0E0B6
:102E8000D0E007EC18E0FE01E75CF8407F01F801B4
:102E90006491C701800F911F0E94AC160F5F1F4FF6
:102EA000F8E0063D1F0799F760E0CE010F960E94FB
:102EB000AC1668E7CE0140960E94AC1661E0CE01E8
:102EC00041960E94AC1664E0CE0142960E94AC1678
:102ED0006396CA3382E0D807A1F6DF91CF911F91A4
:102EE0000F91FF90EF900895EF92FF920F931F9331
:102EF000CF93DF93CAE3D2E007ED18E0FE01E75D70
:102F0000F8407F01F8016491C701800F911F0E9472
:102F1000AC160F5F1F4FF8E00E3D1F0799F760E0FA
:102F2000CE0107960E94AC168E01085F1F4FA69631
:102F30006FEFC8010E94AC160F5F1F4F0C171D07E3
:102F4000B9F70C3A1240C1F6DF91CF911F910F9162
:102F5000FF90EF900895FC01918D228D892F90E0D4
:102F6000805C9F4F821B91098F7399270895FC0104
:102F7000918D828D981731F0828DE80FF11D858D2E
:102F800090E008958FEF9FEF0895FC01918D828D61
:102F9000981761F0828DDF01A80FB11D5D968C91AD
:102FA000928D9F5F9F73928F90E008958FEF9FEFB8
:102FB00008958EE299E1892B49F080E090E0892B19
:102FC00029F00E942E1981110C9400000895FC0133
:102FD000848DDF01A80FB11DA35ABF4F2C91848DA2
:102FE00090E001968F739927848FA689B7892C93D7
:102FF000A089B1898C9180648C93938D848D981372
:1030000006C00288F389E02D80818F7D808308953A
:10301000CF93DF93EC01888D8823C9F0EA89FB897F
:10302000808185FD05C0A889B9898C9186FD0FC076
:103030000FB607FCF5CF808185FFF2CFA889B9894B
:103040008C9185FFEDCFCE010E94E717E7CFDF918E
:10305000CF910895EF92FF920F931F93CF93DF9339
:10306000EC0181E0888F9B8D8C8D981305C0E889D9
:10307000F989808185FD24C0F62E0B8D10E00F5F4D
:103080001F4F0F731127E02E8C8DE8120CC00FB666
:1030900007FCFACFE889F989808185FFF5CFCE0159
:1030A0000E94E717F1CF8B8DFE01E80FF11DE35A67
:1030B000FF4FF0820B8FEA89FB898081806207C015
:1030C000EE89FF896083E889F98980818064808343
:1030D00081E090E0DF91CF911F910F91FF90EF90F1
:1030E0000895CF92DF92EF92FF921F93CF93DF93D9
:1030F000EC016A017B01122FE889F98982E0808363
:103100004115514E61057105B1F060E079E08DE344
:1031100090E0A70196010E947C1EDA01C901019787
:10312000A109B109B695A79597958795AC01411569
:1031300080E15807A8F0E889F989108260E874E80E
:103140008EE190E0A70196010E947C1EBA01A901C0
:1031500041505109610971097695679557954795D1
:10316000EC85FD855083EE85FF854083188EEC89C4
:10317000FD891083EA89FB89808180618083EA89E7
:10318000FB89808188608083EA89FB8980818068EF
:103190008083EA89FB8980818F7D8083DF91CF9155
:1031A0001F91FF90EF90DF90CF9008951F920F92A4
:1031B0000FB60F9211242F938F939F93EF93FF934A
:1031C000E0919202F09193028081E0919802F09157
:1031D000990282FD12C0908180919B028F5F8F7354
:1031E00020919C02821751F0E0919B02F0E0EE5793
:1031F000FD4F958F80939B0201C08081FF91EF91DD
:103200009F918F912F910F900FBE0F901F90189547
:103210001F920F920FB60F9211242F933F934F934B
:103220005F936F937F938F939F93AF93BF93EF932E
:10323000FF9382E892E00E94E717FF91EF91BF9120
:10324000AF919F918F917F916F915F914F913F913E
:103250002F910F900FBE0F901F90189582E892E06B
:103260000E94AB1721E0892B09F420E0822F0895FA
:10327000E2E8F2E01382128288EE93E0A0E0B0E090
:1032800084839583A683B7838CED91E091838083BB
:1032900085EC90E09587848784EC90E0978786871B
:1032A00080EC90E0918B808B81EC90E0938B828B13
:1032B00082EC90E0958B848B86EC90E0978B868BEC
:1032C000118E128E138E148E089508950E94FB1B8A
:1032D0000E9465190E94F411C9EDD7E10E943510D2
:1032E0002097E1F30E94D917F9CFCF92DF92EF92A6
:1032F000FF920F931F93CF93DF936C017A018B01A1
:10330000C0E0D0E0CE15DF0589F0D8016D918D01C8
:10331000D601ED91FC910190F081E02DC601099557
:10332000892B11F47E0102C02196ECCFC701DF91F9
:10333000CF911F910F91FF90EF90DF90CF90089564
:103340006115710579F0FB0101900020E9F73197D3
:10335000AF01461B570BDC01ED91FC910280F3811C
:10336000E02D099480E090E00895EF92FF920F9392
:103370001F93CF93DF938C017B01C0E0D0E0F70176
:10338000EC0FFD1F6491662361F0D801ED91FC9173
:103390000190F081E02DC8010995892B11F021964B
:1033A000EECFCE01DF91CF911F910F91FF90EF9063
:1033B00008950C94A019DC01ED91FC910190F0812D
:1033C000E02D099468EE71E00C94A0190F931F93FF
:1033D000CF93DF93EC010E94B5198C01CE010E94BE
:1033E000E219800F911FDF91CF911F910F910895E6
:1033F0000F931F93CF93DF93EC010E94A0198C01D0
:10340000CE010E94E219800F911FDF91CF911F9191
:103410000F9108954F925F926F927F92EF92FF9279
:103420000F931F93CF93DF93CDB7DEB7A1970FB65E
:10343000F894DEBF0FBECDBF7C01FA01CB0119A20B
:10344000223008F42AE08E010F5D1F4F422E512CCE
:10345000612C712CBF01A30192010E947C1EF90115
:10346000CA01015011096A3014F4605D01C0695C41
:10347000D8016C93232B242B252B61F7B801C701AE
:103480000E94A019A1960FB6F894DEBF0FBECDBF63
:10349000DF91CF911F910F91FF90EF907F906F90F0
:1034A0005F904F900895CF92DF92EF92FF920F932B
:1034B0001F93CF93DF93EC016A017B012115310546
:1034C00079F4E881F9810190F081E02D642FDF919A
:1034D000CF911F910F91FF90EF90DF90CF900994C3
:1034E0002A303105E9F477FF1AC06DE20E94DB193A
:1034F0008C0144275527BA014C195D096E097F09D3
:103500002AE0CE010E940A1A800F911FDF91CF910D
:103510001F910F91FF90EF90DF90CF9008952AE0D8
:10352000B701A601CE01DF91CF911F910F91FF90BE
:10353000EF90DF90CF900C940A1A9A01AB01770FAD
:10354000660B770B0C94531A0F931F93CF93DF9353
:10355000EC019A01AB01770F660B770B0E94531AAF
:103560008C01CE010E94E219800F911FDF91CF9153
:103570001F910F9108952115310541F4DC01ED9162
:10358000FC910190F081E02D642F09940C940A1AAB
:103590009A01462F50E060E070E00C94BB1A9A014B
:1035A000AB0160E070E00C94BB1A08958230E8F43F
:1035B000E82FF0E0EE0FFF1FE65EFE4F71836083A1
:1035C000813041F0809169008C7F482B40936900E5
:1035D000E89A089580916900440F551F440F551FC4
:1035E000837F482B40936900E99A08951F920F92B8
:1035F0000FB60F9211242F933F934F935F936F93C6
:103600007F938F939F93AF93BF93EF93FF93E0913B
:103610001A01F0911B010995FF91EF91BF91AF91B4
:103620009F918F917F916F915F914F913F912F91DA
:103630000F900FBE0F901F9018951F920F920FB60C
:103640000F9211242F933F934F935F936F937F9328
:103650008F939F93AF93BF93EF93FF93E0911C01E0
:10366000F0911D010995FF91EF91BF91AF919F914D
:103670008F917F916F915F914F913F912F910F901B
:103680000FBE0F901F9018951F920F920FB60F92BA
:1036900011242F933F938F939F93AF93BF93809168
:1036A000200390912103A0912203B0912303309134
:1036B0001F0323E0230F2D3720F40196A11DB11D18
:1036C00005C026E8230F0296A11DB11D20931F03FC
:1036D0008093200390932103A0932203B0932303AC
:1036E0008091240390912503A0912603B091270394
:1036F0000196A11DB11D8093240390932503A093EF
:103700002603B0932703BF91AF919F918F913F9173
:103710002F910F900FBE0F901F9018952FB7F89410
:1037200060912003709121038091220390912303E3
:103730002FBF08953FB7F8948091240390912503FB
:10374000A0912603B091270326B5A89B05C02F3F63
:1037500019F00196A11DB11D3FBFBA2FA92F982FB7
:103760008827820F911DA11DB11DBC01CD0142E032
:10377000660F771F881F991F4A95D1F708958F927A
:103780009F92AF92BF92CF92DF92EF92FF926B0126
:103790007C010E949A1B4B015C01C114D104E1041D
:1037A000F10401F10E94C41C0E949A1BDC01CB01B0
:1037B00088199909AA09BB09883E9340A105B1055A
:1037C00060F321E0C21AD108E108F10888EE880E02
:1037D00083E0981EA11CB11CC114D104E104F104C2
:1037E00019F7DBCFFF90EF90DF90CF90BF90AF90B5
:1037F0009F908F900895789484B5826084BD84B53D
:10380000816084BD85B5826085BD85B5816085BDDB
:10381000EEE6F0E0808181608083E1E8F0E01082F4
:10382000808182608083808181608083E0E8F0E035
:10383000808181608083E1EBF0E08081846080831F
:10384000E0EBF0E0808181608083EAE7F0E0808156
:1038500084608083808182608083808181608083B6
:103860008081806880831092C1000895833081F048
:1038700028F4813099F08230A1F008958730A9F0C2
:103880008830B9F08430D1F4809180008F7D03C0FE
:10389000809180008F7780938000089584B58F7722
:1038A00002C084B58F7D84BD08958091B0008F776C
:1038B00003C08091B0008F7D8093B0000895CF93B6
:1038C000DF9390E0FC01ED50F74F2491FC01E95F9C
:1038D000F64F8491882361F190E0880F991FFC01D5
:1038E000E15DF64FC591D491FC01EB5DF64FA591DA
:1038F000B491611109C09FB7F89488812095822303
:103900008883EC912E230BC0623061F49FB7F8944A
:103910003881822F809583238883EC912E2B2C93E2
:103920009FBF06C08FB7F894E8812E2B28838FBFE6
:10393000DF91CF910895CF93DF93282F30E0F901E5
:10394000E152F74F8491F901ED50F74FD491F9010D
:10395000E95FF64FC491CC2391F081110E94361C8F
:10396000EC2FF0E0EE0FFF1FE55EF64FA591B4914E
:10397000EC91ED2381E090E021F480E002C080E052
:1039800090E0DF91CF91089508950E94D91C0C9486
:10399000C11D0E94BA1D58F00E94B31D40F029F4C9
:1039A0005F3F29F00C94AA1D51110C94F51D0C9445
:1039B000B01D0E94D21D68F39923B1F3552391F3F2
:1039C000951B550BBB27AA2762177307840738F08E
:1039D0009F5F5F4F220F331F441FAA1FA9F335D0EB
:1039E0000E2E3AF0E0E832D091505040E695001C9F
:1039F000CAF72BD0FE2F29D0660F771F881FBB1F59
:103A0000261737074807AB07B0E809F0BB0B802D36
:103A1000BF01FF2793585F4F3AF09E3F510578F062
:103A20000C94AA1D0C94F51D5F3FE4F3983ED4F36B
:103A3000869577956795B795F7959F5FC9F7880F36
:103A4000911D9695879597F90895E1E0660F771F88
:103A5000881FBB1F621773078407BA0720F0621B19
:103A6000730B840BBA0BEE1F88F7E09508950E9444
:103A70003E1D6894B1110C94F51D08950E94DA1D45
:103A800088F09F5798F0B92F9927B751B0F0E1F01F
:103A9000660F771F881F991F1AF0BA95C9F714C0CF
:103AA000B13091F00E94F41DB1E008950C94F41D22
:103AB000672F782F8827B85F39F0B93FCCF3869508
:103AC00077956795B395D9F73EF490958095709565
:103AD00061957F4F8F4F9F4F0895E89409C097FBE2
:103AE0003EF490958095709561957F4F8F4F9F4FD5
:103AF0009923A9F0F92F96E9BB279395F695879519
:103B000077956795B795F111F8CFFAF4BB0F11F4DB
:103B100060FF1BC06F5F7F4F8F4F9F4F16C0882382
:103B200011F096E911C0772321F09EE8872F762FB8
:103B300005C0662371F096E8862F70E060E02AF0F9
:103B40009A95660F771F881FDAF7880F96958795E5
:103B500097F9089597F99F6780E870E060E008950D
:103B60009FEF80EC089500240A9416161706180695
:103B70000906089500240A94121613061406050671
:103B80000895092E0394000C11F4882352F0BB0F02
:103B900040F4BF2B11F460FF04C06F5F7F4F8F4F65
:103BA0009F4F089557FD9058440F551F59F05F3FA0
:103BB00071F04795880F97FB991F61F09F3F79F04F
:103BC00087950895121613061406551FF2CF4695D1
:103BD000F1DF08C0161617061806991FF1CF869553
:103BE0007105610508940895E894BB276627772737
:103BF000CB0197F908950E940E1E0C94C11D0E94DE
:103C0000B31D38F00E94BA1D20F0952311F00C94DA
:103C1000AA1D0C94B01D11240C94F51D0E94D21DF8
:103C200070F3959FC1F3950F50E0551F629FF0010F
:103C3000729FBB27F00DB11D639FAA27F00DB11D28
:103C4000AA1F649F6627B00DA11D661F829F2227B1
:103C5000B00DA11D621F739FB00DA11D621F839F38
:103C6000A00D611D221F749F3327A00D611D231F0E
:103C7000849F600D211D822F762F6A2F11249F575C
:103C800050409AF0F1F088234AF0EE0FFF1FBB1F5F
:103C9000661F771F881F91505040A9F79E3F51051E
:103CA00080F00C94AA1D0C94F51D5F3FE4F3983E40
:103CB000D4F3869577956795B795F795E7959F5FC8
:103CC000C1F7FE2B880F911D9695879597F908955A
:103CD000AA1BBB1B51E107C0AA1FBB1FA617B70732
:103CE00010F0A61BB70B881F991F5A95A9F780954E
:103CF0009095BC01CD010895A1E21A2EAA1BBB1B11
:103D0000FD010DC0AA1FBB1FEE1FFF1FA217B307A7
:103D1000E407F50720F0A21BB30BE40BF50B661FBD
:103D2000771F881F991F1A9469F760957095809581
:103D300090959B01AC01BD01CF010895052E97FB25
:103D40001EF400940E94B51E57FD07D00E947C1EF1
:103D500007FC03D04EF40C94B51E50954095309559
:103D600021953F4F4F4F5F4F0895909580957095E7
:103D700061957F4F8F4F9F4F0895EE0FFF1F059066
:103D8000F491E02D0994CF93DF938230910510F4E4
:103D900082E090E0E0912A03F0912B0320E030E0F4
:103DA000C0E0D0E0309711F14081518148175907A8
:103DB000C0F04817590761F482819381209719F068
:103DC0009B838A832BC090932B0380932A0326C066
:103DD0002115310519F04217530718F49A01BE0155
:103DE000DF01EF010280F381E02DDCCF21153105E9
:103DF00009F1281B390B2430310590F412968D916E
:103E00009C9113976115710521F0FB0193838283C7
:103E100004C090932B0380932A03FD01329644C083
:103E2000FD01E20FF31F81939193225031092D93ED
:103E30003C933AC02091280330912903232B41F46D
:103E4000209102013091030130932903209328032C
:103E500020910001309101012115310541F42DB768
:103E60003EB74091040150910501241B350BE091B0
:103E70002803F0912903E217F307A0F42E1B3F0B50
:103E80002817390778F0AC014E5F5F4F24173507CC
:103E900048F04E0F5F1F50932903409328038193EE
:103EA000919302C0E0E0F0E0CF01DF91CF9108955F
:103EB0000F931F93CF93DF93009709F48CC0FC01FD
:103EC00032971382128200912A0310912B0301155D
:103ED000110581F420813181820F931F20912803E5
:103EE000309129032817390779F5F0932903E093D6
:103EF000280371C0D80140E050E0AE17BF0750F46E
:103F000012962D913C911397AD012115310509F1C0
:103F1000D901F3CF9D01DA0133832283608171815E
:103F2000860F971F8217930769F4EC012881398166
:103F3000260F371F2E5F3F4F318320838A819B815D
:103F400093838283452B29F4F0932B03E0932A0378
:103F500042C01396FC93EE931297ED01499159914B
:103F60009E01240F351FE217F30771F480819181C0
:103F7000840F951F029611969C938E938281938154
:103F800013969C938E931297E0E0F0E0D80112967E
:103F90008D919C911397009719F0F8018C01F6CF41
:103FA0008D919C9198012E5F3F4F820F931F20911E
:103FB0002803309129032817390769F4309729F429
:103FC00010922B0310922A0302C0138212821093C4
:103FD000290300932803DF91CF911F910F9108953A
:103FE000FB01DC0105900D920020E1F70895FB0133
:103FF000DC014150504048F005900D920020C9F777
:1040000001C01D9241505040E0F70895FB01DC01D2
:1040100001900D920020E1F70895FB01DC01415071
:10402000504048F001900D920020C9F701C01D9248
:1040300041505040E0F70895F999FECF92BD81BDFF
:10404000F89A992780B50895262FF999FECF1FBABF
:1040500092BD81BD20BD0FB6F894FA9AF99A0FBEB1
:0840600001960895F894FFCFCA
:1040680000002C0380000100000080841E00FF0176
:10407800040001003200780001FFD51AD51A426504
:1040880061744475696E6F76657220312E3062797D
:104098002057617272696F720A0A002F002D003072
:1040A80000496D706F7274616E646F20454550529F
:1040B8004F4D2E2E2E000400870604003106030102
:1040C800000002011006000300000401CB051E05D4
:1040D80000001E0500001E0500001E0500001E054C
:1040E80000000205C105030100000201C10502002C
:1040F8009D051E0E0000040F580500100000FF105B
:10410800000003104B05061000001E0E0000020EF2
:10411800C105050009050217F0040217C1050317B8
:10412800CF040217C1050217C105000000000000F6
:104138000000BC1475192305000000002A18751921
:10414800AB17C517B71708180D0A006E616E00691E
:084158006E66006F7666000040
:00000001FF
