:100000000C9439030C9467170C948E170C946103AD
:100010000C9461030C9461030C9461030C946103D0
:100020000C9461030C9461030C9461030C946103C0
:100030000C9461030C9445110C9461030C946103BE
:100040000C94B5170C9461030C9447150C94791516
:100050000C9461030C9461030C9461030C94610390
:100060000C9461030C9461038905CD07C705CD0786
:10007000CC05CF050D061E063806CD07CD07CD07EA
:100080004F06CD077B06E106CD0702072407CD0703
:10009000CD07CD07CD07CD07CD07CD075407260ADD
:1000A0003D0A510A5E0A770AA80AC60ACE0ADE0A83
:1000B000E60A180B2E0B3E0B6E0B7D0B850BCB0B44
:1000C000ED0BFE0B110C1D0C250C4B0C9F0CA60C04
:1000D000B10CC20CDA0C7553004369636C6F204D90
:1000E00061783A007553004369636C6F204D696E07
:1000F0003A007553004369636C6F204163743A00A2
:1001000056657273696F6E3A006279205761727238
:10011000696F7200426561744475696E6F00456C69
:10012000696765206C612063616E63696F6E3A0078
:100130005469706F20436F6D7061733A00202042E4
:10014000504D00456C69676520656C2074656D7065
:100150006F3A004E6F6D6272652063616E63696F06
:100160006E3A00456C696765206C612063616E635F
:10017000696F6E3A00426F727261722063616E63E2
:10018000696F6E0043616E63696F6E206120696EF6
:100190007365727461723A00496E7365727461724C
:1001A00020646573707565732064653A00456C69F9
:1001B0006765206C612063616E63696F6E3A005001
:1001C0006F736963696F6E20612065646974617221
:1001D0003A00456C696765206C6120706F736963D4
:1001E000696F6E3A004E6F6D627265207265706560
:1001F00072746F72696F3A00456C69676520726549
:10020000706572746F72696F3A00535441525400B2
:100210004D4554524F0042504D00535441525400EA
:100220002042504D0A0A003F0236022D02536F6EE3
:1002300069646F203300536F6E69646F203200531E
:100240006F6E69646F20310056024C024D65747206
:100250006F6E6F6D6F005265706572746F72696F4B
:10026000009E029002840279026B025265736574EB
:100270002046616272696361004D69646920436C64
:100280006F636B00536F6E69646F205469636B001A
:100290005469636B7320696775616C6573004D6F9A
:1002A000646F00AE02AC02A902313600380034009F
:1002B000E602D802C702B80243616D62696172202A
:1002C000436F6D7061730043616D626961722044B8
:1002D00069766973696F6E0043616D62696172204E
:1002E00054656D706F0043616D62696172204E6F7D
:1002F0006D627265000A03F902456C696D696E6191
:10030000722043616E63696F6E0045646974617247
:100310002043616E63696F6E0020031D0353490023
:100320004E4F005A03490338032B0356616369613A
:1003300072204F7264656E00456C696D696E617202
:100340002043616E63696F6E00496E7365727461FC
:10035000722043616E63696F6E0043616D62696113
:1003600072204F7264656E007A036C0343616D62A4
:10037000696172204F7264656E0043616D626961EC
:1003800072204E6F6D62726500B503A3038F034543
:100390006C696D696E6172205265706572746F72FE
:1003A000696F00456469746172205265706572748A
:1003B0006F72696F0043616D62696172205265708E
:1003C0006572746F72696F00E703DD03D503D003B4
:1003D000496E666F00416A75737465730043616EA0
:1003E00063696F6E6573005265706572746F7269D0
:1003F0006F7300000005072060000000000000008F
:100400005F00000007000700147F147F14242A7F78
:100410002A12231308646236495620500008070345
:1004200000001C2241000041221C002A1C7F1C2AC3
:1004300008083E0808008070300008080808080016
:100440000060600020100804023E5149453E004211
:100450007F400072494949462141494D33181412E1
:100460007F1027454545393C4A4949314121110909
:10047000073649494936464949291E0000140000FB
:100480000040340000000814224114141414140015
:100490004122140802015909063E415D594E7C1261
:1004A00011127C7F494949363E414141227F4141F9
:1004B000413E7F494949417F090909013E41415176
:1004C000737F0808087F00417F41002040413F01C1
:1004D0007F081422417F404040407F021C027F7F02
:1004E0000408107F3E4141413E7F090909063E4113
:1004F00051215E7F09192946264949493203017F66
:1005000001033F4040403F1F2040201F3F403840F4
:100510003F631408146303047804036159494D438D
:10052000007F4141410204081020004141417F0405
:1005300002010204404040404000030708002054EC
:100540005478407F2844443838444444283844444C
:10055000287F385454541800087E090218A4A49C1B
:10056000787F0804047800447D40002040403D002E
:100570007F1028440000417F40007C047804787C90
:10058000080404783844444438FC182424181824F7
:100590002418FC7C08040408485454542404043FE0
:1005A00044243C4040207C1C2040201C3C403040E7
:1005B0003C44281028444C9090907C4464544C4413
:1005C00000083641000000770000004136080002B4
:1005D000010204023C2623263CDF0519804000AEC0
:1005E000D580A83FD300408D142002A1C8DA128123
:1005F0007FD9F1DB40A4A6AF566163696F00564115
:1006000043494F0000030C0F30333C3FC0C3CCCFF5
:10061000F0F3FCFF000000080002010000030407E3
:1006200000000000000000000102040810204080CB
:10063000010204081020010204081020040404042C
:10064000040404040202020202020303030303037C
:100650000000000023002600290000000000250003
:1006600028002B0000000000240027002A002C0F87
:10067000A91511241FBECFEFD8E0DEBFCDBF11E01A
:10068000A0E0B1E0EAE4F9E302C005900D92A03FDA
:10069000B107D9F723E0A0EFB1E001C01D92A1316D
:1006A000B207E1F713E0C9E3D3E004C02197FE01EC
:1006B0000E942E1BC733D107C9F70E94D7150C948F
:1006C000A31C0C940000CF93DF9386E00E940C19CA
:1006D000EC0182E00E940C19C817D90719F481E0D7
:1006E00090E002C08FEF9FEF909309028093080281
:1006F000DF91CF9108950C948D1CEF92FF920F9390
:100700001F93CF93DF931F92CDB7DEB77C01FC011F
:1007100000811181C80169830E948D1C698168175D
:1007200019F0C8010E94951CC7010F90DF91CF916D
:100730001F910F91FF90EF900895FC016093BC0012
:100740008091BC0087FFFCCF9091B900987F908387
:100750000895CF92DF92EF92FF920F931F93CF9362
:10076000DF93EC01C62ED42E8F85882351F04111E2
:1007700008C084E98093BC008091BC0084FDFCCF5C
:100780001F86EF848E01035F1F4FE11014C0FE84AB
:1007900064EAC8010E949D038D85883011F1803183
:1007A00001F1DD2011F080E4E82EE092BB0064E866
:1007B000C8010E949D03C092BB0064E8C8010E946A
:1007C0009D0382E0D81204C08F858F5F8F8711C090
:1007D00084E98093BC008091BC0084FDFCCF1F861F
:1007E00008C0FF0CF092BB0064E8C8010E949D03A2
:1007F000D8CFDF91CF911F910F91FF90EF90DF90B5
:10080000CF90089580912C02813099F4E0910202FA
:10081000E11103C010922C0213C084E0E89FF001A4
:100820001124ED5AFE4F8181809302021092010241
:1008300007C081E080932C02109201021092020204
:1008400081E0809318010895DF92EF92FF920F9359
:100850001F93CF93DF93CDB7DEB76E970FB6F894A3
:10086000DEBF0FBECDBF9091190180912C02981769
:1008700041F08AE092E00E94901280912C028093D5
:10088000190180912C02882321F0813009F41FC1C5
:10089000BCC310911A01112321F0113009F49FC03B
:1008A000B4C340E060E08AE092E00E94321210920D
:1008B00014026091200270E06F5F7F4F4AE050E0C9
:1008C0008AE092E00E940E1769E371E08AE092E00C
:1008D0000E944A166DE272E08AE092E00E944A1697
:1008E0006CE371E08AE092E00E944A1602E021E0A7
:1008F00040E860E08AE092E00E945C1241E060E043
:100900008AE092E00E9432126091210270E06F5FF3
:100910007F4F4AE050E08AE092E00E940E1769E3C0
:1009200071E08AE092E00E944A1666E372E08AE093
:1009300092E00E944A166BE371E08AE092E00E9426
:100940004A1682E08093130260911601709117019C
:100950004AE050E08AE092E00E94401760E272E0D4
:100960008AE092E00E94261681E080931302609153
:100970001001709111014AE050E08AE092E00E947B
:1009800040176EE371E08AE092E00E944A1660919F
:10099000120170911301660F771F660F771F4AE0EF
:1009A00050E08AE092E00E94401760E471E08AE043
:1009B00092E00E944A1647E060E68AE092E00E94D8
:1009C000321280910F01882319F06AE172E07AC037
:1009D00067E471E08AE092E00E944A1616C302E0E2
:1009E00021E040E260E08AE092E00E945C1241E097
:1009F0006BE08AE092E00E9432121092140282E0D0
:100A00008093130260911601709117014AE050E043
:100A10008AE092E00E94401741E060E48AE092E0C0
:100A20000E94321266E172E08AE092E00E9426168D
:100A30001093130244E060E48AE092E00E943212D4
:100A400060911001709111014AE050E08AE092E05B
:100A50000E9440176EE371E08AE092E00E944A161D
:100A60006091120170911301660F771F660F771F57
:100A70004AE050E08AE092E00E94401747E060E0E0
:100A80008AE092E00E94321280911A01882339F0A4
:100A900060E172E08AE092E00E94261606C06DE4F2
:100AA00071E08AE092E00E944A1647E060E68AE040
:100AB00092E00E94321280910F01882309F488CFBE
:100AC0006AE072E08AE092E00E9426169EC290914F
:100AD0000E0180910202981741F08AE092E00E9494
:100AE00090128091020280930E0140E060E08AE063
:100AF00092E00E943212E09102028E2F90E0FC01FF
:100B00003297EB31F10508F048C2EC5CFF4F0C94D2
:100B10002E1B1092140268EF71E08AE092E00E94AE
:100B2000571601E021E040E860E08AE092E00E9490
:100B30005C1200E010E0DD24D3948091010290E08B
:100B40008017910719F4D092140202C01092140277
:100B5000802F0E94BF0F7C010F5F1F4F4AE050E0C3
:100B6000B8018AE092E00E940E1769E371E08AE022
:100B700092E00E944A16B7018AE092E00E9469164C
:100B8000C7010E94C91B03301105B9F63EC210927D
:100B9000140265EE71E0B3C062ED71E06BC06FEB03
:100BA00071E08AE092E00E9457166091FD01809109
:100BB00020020E9434100E94F90F7C019091FD01E7
:100BC000692F70E06F5F7F4F4AE050E08AE092E06B
:100BD0000E940E1769E371E08AE092E00E944A16D3
:100BE000B7018AE092E00E9469166CE371E08AE046
:100BF00092E00E9469166DEA71E08AE092E00E943C
:100C0000571606E025E040E860E08AE092E00E94A6
:100C10005C12C7010E94C91B27C168E971E08AE024
:100C200092E00E9457161092140201E021E040E881
:100C300060E08AE092E00E945C122AC064E871E001
:100C40008AE092E00E94571601E021E040E860E06F
:100C50008AE092E00E945C12809101020E94F90FEA
:100C60008C019091FD01692F70E06E5F7F4F07C18D
:100C700065E771E08AE092E00E94571601E021E00A
:100C800040E860E08AE092E00E945C121092140258
:100C900060910102809120020E943410E7C063E657
:100CA00071E08AE092E00E945716809101020E9452
:100CB000F90F7C0101E021E040E860E08AE092E089
:100CC0000E945C1290910102692F70E06F5F7F4F6C
:100CD0004AE050E08AE092E00E940E1769E371E07A
:100CE0008AE092E00E944A16B7018AE092E00E94F0
:100CF0006916C701D6C01092140263E571E08AE05C
:100D000092E00E94571601E021E040E860E08AE0AE
:100D100092E00E945C1280910802909109021816DC
:100D200019065CF580910002E091FE01F091FF014F
:100D3000E80FF11D8081811102C080E280838091E3
:100D40000002E091FE01F091FF01E80FF11D8081AA
:100D50008A3711F488ED808380910002E091FE01D2
:100D6000F091FF01E80FF11D80818A3710F48F5F49
:100D700080831092090210920802809108029091DB
:100D8000090297FF15C080910002E091FE01F091E9
:100D9000FF01E80FF11D8081883D11F48AE703C04F
:100DA000813210F081508083109209021092080263
:100DB0006091FE017091FF018AE092E00E94691645
:100DC00024C11092140263E471E08AE092E00E9470
:100DD00057166CE371E08AE092E00E94691604E025
:100DE00023E040E860E08AE092E00E945C124AE082
:100DF00050E0609101028AE092E00E9439176DE3B1
:100E000071E0C6C01092140260E371E08AE092E0E3
:100E10000E9457166CE371E08AE092E00E94691626
:100E200004E023E040E860E08AE092E00E945C1287
:100E30006091010270E06E5F7F4F4AE050E08AE00F
:100E400092E00E941517E1C0109214026EE171E069
:100E50008AE092E00E94571601E021E040E860E05D
:100E60008AE092E00E945C12809101020E94F90FD8
:100E70008C0190910102692F70E06F5F7F4F4AE013
:100E800050E08AE092E00E940E1769E371E08AE088
:100E900092E00E944A16B8018AE092E00E94691628
:100EA000C8010E94C91BB1C01092140264E171E034
:100EB0008AE092E00E94571669E071E08AE092E0D1
:100EC0000E94571660E071E08AE092E00E942616C8
:100ED0004AE050E061E070E08AE092E00E940E1784
:100EE00069E371E08AE092E00E944A164AE050E02D
:100EF00060E070E08AE092E00E94151765EF70E014
:100F00008AE092E00E9426164091F4015091F5018A
:100F10006091F6017091F7012AE030E08AE092E0FA
:100F20000E942C1762EF70E08AE092E00E94571650
:100F300067EE70E08AE092E00E94261640910A0176
:100F400050910B0160910C0170910D012AE030E08D
:100F50008AE092E00E942C1764EE70E08AE092E052
:100F60000E94571669ED70E08AE092E00E94261612
:100F70004091F0015091F1016091F2017091F30103
:100F80002AE030E08AE092E00E942C1766ED70E0E3
:100F90008AE092E00E94571638C000E010E0FF247B
:100FA000F3948091020224E0829FC0011124FC018D
:100FB000ED5AFE4F208130E00217130734F52091DF
:100FC000010230E02017310719F4F092140202C038
:100FD00010921402FC01ED5AFE4FC801880F991FB0
:100FE0000280F381E02DE80FF91F65917491CE0125
:100FF00001960E94611CBE016F5F7F4F8AE092E004
:101000000E9469160F5F1F4FCCCF6E960FB6F894F3
:10101000DEBF0FBECDBFDF91CF911F910F91FF902B
:10102000EF90DF9008951F93CF93DF93182FEB017C
:101030000E940C19892B61F58AE08C9FF0018D9F2D
:10104000F00D1124ED5BFD4F178216821382808113
:10105000811106C091E0248135812530310508F4E5
:1010600090E08AE08C9FF0018D9FF00D1124ED5BE4
:10107000FD4F9283248135812530310518F081E0C0
:10108000808306C080910302280F311D358324839D
:10109000812F0E940C19019771F58AE08C9FF00155
:1010A0008D9FF00D1124ED5BFD4F1582148211868A
:1010B0001086118212828081882339F081E0268196
:1010C00037812530310508F480E09AE09C9FF001DB
:1010D0009D9FF00D1124ED5BFD4F838386819781E9
:1010E0008530910510F0108206C020910302820F16
:1010F000911D978386838AE08C9FF0018D9FF00D70
:101100001124ED5BFD4F8081882379F0209103024B
:1011100080859185820F911D91878087883C9105FC
:1011200019F481E0818301C01182DF91CF911F9179
:101130000895CF93DF93809120020E94BF0FEC01AE
:10114000BC018DE292E00E94771CCE01DF91CF912D
:101150000C94C91B0F931F93CF9360912102809130
:1011600020020E943410C82F0E94F90F8C01BC018C
:1011700086E392E00E94771CC8010E94C91B8C2F55
:101180000E94441006E312E0F80182878C2F0E942F
:101190004B10F80183878C2F0E945610F80184872A
:1011A000CF911F910F91089580911A01882319F012
:1011B000813069F108958091080290910902181612
:1011C00019062CF4809121028D3108F45FC08091C2
:1011D00008029091090297FF04C0809121028111B9
:1011E00062C08091400290E09093170180931601B5
:1011F0008091410290E090931301809312018091BD
:10120000420290E0909311018093100132C08091CE
:10121000080290910902181619069CF48091160193
:10122000909117018F3F910528F401969093170133
:1012300080931601109209021092080281E08093B7
:101240001801809108029091090297FF12C08091C5
:10125000160190911701009729F0019790931701BB
:1012600080931601109209021092080281E0809387
:10127000180180914502882319F180910F0191E0B6
:10128000892780930F019093180108958F5F8093B1
:1012900021020E94AA08109209021092080281E01D
:1012A0008093180194CF8150809321020E94AA0854
:1012B000109209021092080281E08093180191CFE8
:1012C00008958BEF91E00E947B038F3F11F0809394
:1012D0001A018CEF91E00E947B038F3F31F091E087
:1012E000811101C090E0909322028DEF91E00E9465
:1012F0007B038F3F31F091E0811101C090E090932A
:101300001F028EEF91E00E947B03833010F48093E4
:1013100023020895CF93DF9300D0CDB7DEB70E94AC
:10132000E2100E9411118BEF91E09A8389836FEF95
:10133000CE0101960E947D038CEF91E09A83898310
:101340006FEFCE0101960E947D038DEF91E09A83AD
:1013500089836FEFCE0101960E947D038EEF91E0AD
:101360009A83898360E0CE0101960E947D03FFCFBE
:101370000F931F93CF93DF93CDB7DEB72A970FB6A6
:10138000F894DEBF0FBECDBF809108029091090294
:10139000181619061CF580910102E091020294E0F2
:1013A000E99FF0011124ED5AFE4F9081482F50E043
:1013B000292F30E0215031094217530724F48F5F61
:1013C0008093010202C010920102992321F0109231
:1013D00009021092080281E08093180180910802AE
:1013E0009091090297FF20C080910102E0910202D2
:1013F000811107C084E0E89FD0011124AD5ABE4F8F
:101400008C9181508093010294E0E99FF0011124B6
:10141000ED5AFE4F8081882321F01092090210922C
:10142000080281E08093180180915902882309F411
:10143000CFC2E09102028E2F90E08C31910508F02E
:10144000C4C2FC01E15BFF4F0C942E1B8091010292
:10145000813079F050F0823009F4B2C2833009F063
:10146000B4C2109201028CE1AEC21092010281E07E
:10147000AAC2109201028DE0A6C2809101028130C1
:1014800061F038F0823009F0A0C2109201028CE0C5
:101490009AC21092010282E096C21092010283E089
:1014A00092C28091010280932002109221020E9438
:1014B00099080E94AA0810922C0287C2809101020A
:1014C000882339F0813009F080C21092010285E052
:1014D0007AC21092010284E080930202809120027D
:1014E0000E94BF0F9093FF018093FE012EC0809158
:1014F0000002E091FE01F091FF01E80FF11D9081E3
:10150000983DE9F410826091FE017091FF01809195
:1015100020020E947D108091FE019091FF010E94A7
:10152000C91BE091020284E0E89FF0011124ED5A0A
:10153000FE4F81818093020210920102C1C0883067
:1015400020F447C18A3008F444C1109200023DC221
:1015500080910102813071F048F0823079F083305F
:1015600009F033C2109201028BE02DC210920102E9
:1015700086E007C01092010288E003C010920102C9
:101580008AE0809302021092FD011FC28091010245
:101590008093FD011092010287E015C24091010283
:1015A0006091FD01809120020E949F108091FD01B9
:1015B000809301021092FD0186E035C08091010206
:1015C0008093FD011092010289E0FDC10DE110E060
:1015D0006091FD01862F90E00196801791077CF4C1
:1015E0006FEF600F809120020E943410482F602F0F
:1015F000809120020E949F1001501109E9CF6F5F76
:1016000040910102809120020E949F1010920102DD
:101610001092FD01E091020294E0E99FF001112493
:10162000ED5AFE4F8181809302020E94AA08CDC12B
:101630000091010210E00D3111050CF0D4C061E001
:10164000600F809120020E943410482F602F8091FB
:1016500020020E949F100F5F1F4FEDCF809101026B
:10166000813009F0B3C010E04FEF612F809120026C
:101670000E949F101F5F1E31B9F7A8C08091010220
:10168000813009F18FEF898348E050E0BE016F5F40
:101690007F4FCB010E947E1CBE016F5F7F4F809108
:1016A00020020E947D1010920102E091020284E06B
:1016B000E89FF0011124ED5AFE4F818180930202D0
:1016C0000E94990882C110E04FEF612F80912002A3
:1016D0000E949F101F5F1E31B9F7D4CF8091010285
:1016E000882339F0813009F070C11092010284E141
:1016F0006AC1109201028EE066C18091010280935E
:10170000FC01109201028FE05EC1109101021130C4
:10171000F9F080F0123031F1133009F056C183E155
:10172000809302028091FC010E9456108093FD017B
:1017300082502EC01092010280E1809302028091BB
:10174000FC010E94F90F9093FF018093FE013DC1BF
:1017500081E1809302028091FC010E9444108093F9
:10176000FD0116C082E1809302028091FC010E947B
:101770004B108093FD01823031F0843031F08130A4
:1017800009F023C1D9C081E003C0109301021DC13B
:10179000809301021AC180910002E091FE01F09154
:1017A000FF01E80FF11D9081983D09F0CBCE10822A
:1017B0006091FE017091FF018091FC010E94AD10CB
:1017C0008091FE019091FF010E94C91B10920102BD
:1017D00021CF8F5F80930002F8C060910102809159
:1017E000FC010E94CD10109201021092FD01E091C7
:1017F000020284E0E89FF001112412CF80910102DF
:10180000813039F020F0823049F464E003C061E0B7
:1018100001C062E08091FC010E94D4101092FD0191
:10182000D5CF609101026E5F8091FC010E94DB10B8
:101830001092FD0110920102DACF80910102809393
:10184000FC011092010285E1BEC08091010281304D
:1018500009F0BCCF8FEF89834AE050E0BE016F5F93
:101860007F4FCB010E947E1CBE016F5F7F4F809136
:10187000FC010E94AD106FEF8091FC010E94CD1021
:101880006FEF8091FC010E94D4106FEF8091FC01FA
:101890000E94DB109BCF80910102823069F128F415
:1018A000882361F08130C9F090C08330B1F1843079
:1018B00009F08BC08BE1809302023EC08BEF91E078
:1018C0000E947B038093FD018F3F19F080930102FA
:1018D00002C01092010287E176C08CEF91E00E9475
:1018E0007B038093FD018F3F19F08093010202C0BA
:1018F0001092010288E167C08EEF91E00E947B03A5
:10190000833018F48093010202C01092010280918A
:10191000FD018093230289E156C08DEF91E00E9482
:101920007B038093FD018F3F19F08093010202C079
:10193000109201028AE147C01092010246C06091F4
:10194000010260931A018BEF91E011C061E0809178
:101950000102811101C060E0609322028CEF91E0EE
:101960001BC060910102609323028EEF91E00E9400
:10197000611010920102E091020284E0E89FF00100
:10198000112414C061E080910102811101C060E066
:1019900060931F028DEF91E00E946110109201028E
:1019A000E091020294E0E99FF0011124ED5AFE4F0C
:1019B000818109C080910102813011F40E948A095D
:1019C0001092010286E18093020281E08093180167
:1019D0002A960FB6F894DEBF0FBECDBFDF91CF9130
:1019E0001F910F9108950F931F93CF93DF930E9440
:1019F0000B186093F8017093F9018093FA019093AA
:101A0000FB0160E070E085E090E00E94130861E077
:101A100070E083E090E00E94130862E070E087E0ED
:101A200090E00E94130880914F0281110E940204ED
:101A300080912C02882329F0813029F40E94B80972
:101A400002C00E94D40820911601309117018091A4
:101A50002A0290912B028217930781F140E050E017
:101A600060E67AEE80E090E00E940F1BCA01B901A7
:101A70000E94E01920E030E040EC51E40E94361969
:101A800020E030E04AE754E40E946C1A60931B02A5
:101A900070931C0280931D0290931E020E94A8194D
:101AA000AB01BC0181E692E00E946C1180911601AD
:101AB0009091170190932B0280932A028091180134
:101AC000882321F00E942404109218010E94FF171D
:101AD0000091040210910502209106023091070244
:101AE000DC01CB01801B910BA20BB30B0A97A10564
:101AF000B10570F00E94FF17609304027093050215
:101B0000809306029093070281E08093030202C053
:101B1000109203020E940B180091F8011091F90134
:101B20002091FA013091FB01DC01CB01801B910B6C
:101B3000A20BB30B8093F4019093F501A093F601EF
:101B4000B093F7010091F0011091F1012091F201A1
:101B50003091F301081719072A073B0740F48093D7
:101B6000F0019093F101A093F201B093F301009181
:101B70000A0110910B0120910C0130910D01801789
:101B80009107A207B30740F480930A0190930B01D9
:101B9000A0930C01B0930D0186E00E940C19EC019A
:101BA00082E00E940C19C817D90721F4109209028B
:101BB00010920802A895DF91CF911F910F9108957F
:101BC000CF92DF92EF92FF920F931F93CF93DF9309
:101BD000CDB7DEB76A970FB6F894DEBF0FBECDBFA4
:101BE00089E0EFE1F1E0DE011B9601900D928A950C
:101BF000E1F787E0E8E2F1E0DE01549601900D9212
:101C00008A95E1F78AE0EFE2F1E0DE0111960190BA
:101C10000D928A95E1F78AE092E00E94901281E0AD
:101C2000809313021092140240E060E08AE092E098
:101C30000E9432128E01055F1F4F6E0184E1C80EB3
:101C4000D11C7801F80161918F018AE092E00E9435
:101C50004C1669E170E080E090E00E9430180C15AD
:101C60001D0581F768EE73E080E090E00E94301877
:101C70006CE371E08AE092E00E944A166E01FBE19B
:101C8000CF0ED11CF80161918F018AE092E00E9491
:101C90004C1669E170E080E090E00E9430180C156D
:101CA0001D0581F768EE73E080E090E00E94301837
:101CB0006CE371E08AE092E00E944A168E010F5FA9
:101CC0001F4FF80161918F018AE092E00E944C164B
:101CD00069E170E080E090E00E9430180E151F0569
:101CE00081F768EE73E080E090E06A960FB6F894B2
:101CF000DEBF0FBECDBFDF91CF911F910F91FF903F
:101D0000EF90DF90CF900C943018CF93DF930FB605
:101D1000F894A8958091600088618093600010928B
:101D200060000FBE62E082E00E94D01862E086E0B0
:101D30000E94D01862E085E00E94D01862E083E043
:101D40000E94D01862E087E00E94D01861E088E02D
:101D50000E94D01861E089E00E94D01861E08AE01A
:101D60000E94D01861E08DE00E94D01861E084E00C
:101D70000E94D01841E050E063E673E080E00E94EA
:101D80004717CAE0D2E01F868CE38E871092B90015
:101D90008CE08093B80069ED75E0CE010E949F123F
:101DA00083EF93E09C878B8726E042E15AE760E06F
:101DB00070E087E692E00E94E2140E94E00DCE01FE
:101DC0000E94901281E089871A8620911601309135
:101DD000170140E050E060E67AEE80E090E00E947B
:101DE0000F1BCA01B9010E94E01920E030E040EC6D
:101DF00051E40E94361920E030E04AE754E40E94A2
:101E00006C1A60931B0270931C0280931D029093C6
:101E10001E020E94A819AB01BC0181E692E00E945B
:101E2000D4112FEF3FEFA90169E37FE081E692E053
:101E30000E94E4119FE088E10FB6F894A895809382
:101E400060000FBE909360000E9461090E94990893
:101E5000DF91CF910C94AA08EAE0F2E0138212829B
:101E600081E08187148613868BEC91E091838083D7
:101E700008950F931F930E94FF170091260210915F
:101E800027022091280230912902AB01BC01401B9E
:101E9000510B620B730B8091140190911501A0E01E
:101EA000B0E084179507A607B70718F485B1887FB7
:101EB00085B920911A0230E06091120170911301EE
:101EC00088E190E00E94D91A2617370708F442C02B
:101ED00010921A0220912402309125028091100163
:101EE0009091110101972817390728F010922502C7
:101EF0001092240209C0809124029091250201963B
:101F0000909325028093240280910F01882339F158
:101F10000E94FF1760932602709327028093280285
:101F2000909329028091230290E00196880F991FD7
:101F30002091240230912502232B29F43091220292
:101F400021E0232701C020E035B1820F911D832BB2
:101F500085B905C080911A028F5F80931A02809123
:101F60001F02882339F068EF87E692E01F910F91F6
:101F70000C949B141F910F9108950C948D1CCF927B
:101F8000DF92EF92FF920F931F93CF93DF93C82FAF
:101F900088E090E00E94341B8C0186E2C89FE0013B
:101FA0001124CA57DE4FCE010E94BD0F8F3F41F46E
:101FB00048E050E06EEF75E0C8010E94681C0FC059
:101FC00078016801E8E0CE0ED11CCE010E94BD0F61
:101FD000F70181937F012196EC15FD05B1F7C8014A
:101FE000DF91CF911F910F91FF90EF90DF90CF90F5
:101FF0000895CF92DF92EF92FF920F931F93CF93AA
:10200000DF93C82F8AE090E00E94341B8C018DE0A2
:10201000C89FE0011124CE010E94BD0F8F3F41F403
:102020004AE050E068EF75E0C8010E94681C12C0E9
:102030006801EAE0CE0ED11C7801C01BD10BCE01A5
:102040008E0D9F1D0E94BD0FF70181937F01EC153E
:10205000FD05A9F7C801DF91CF911F910F91FF9066
:10206000EF90DF90CF90089570E062577E4F9B0114
:1020700046E2849F200D311D1124C9010E94BD0F2D
:102080008F3F09F480E008952DE0829FC001112464
:102090000A960C94BD0F2DE0829FC00111240B966F
:1020A0000E94BD0F8F3F09F481E008952DE0829FCB
:1020B000C00111240C960E94BD0F8F3F09F484E0EB
:1020C00008950F931F93CF93DF931F92CDB7DEB781
:1020D0008C0169830E94BD0F6981681741F0C801B6
:1020E0000F90DF91CF911F910F910C94951C0F9041
:1020F000DF91CF911F910F910895EF92FF920F936F
:102100001F93CF93DF9326E2829FC00111248C019D
:102110000A571E4FEB017B0188E0E80EF11C699124
:10212000C8010E9461100F5F1F4FCE15DF05B9F780
:10213000DF91CF911F910F91FF90EF900895262F7F
:1021400030E022573E4F642FA90176E2879F400D71
:10215000511D1124CA010C946110EF92FF920F934C
:102160001F93CF93DF939DE0899FE00111248B01A2
:102170007E01EAE0EE0EF11CF80161918F01CE01C3
:102180000E9461102196CE15DF05B1F7DF91CF9146
:102190001F910F91FF90EF9008952DE0829FC00155
:1021A00011240A960C9461102DE0829FC001112425
:1021B0000B960C9461102DE0829FC00111240C96A7
:1021C0000C9461100F931F93CF93DF9309E010E0FD
:1021D000E80129976FEFCE010E9461102196C01788
:1021E000D107C1F760E0CE010E94611068E7CE011F
:1021F00001960E94611061E0CE0102960E9461107A
:1022000064E0CE0103960E9461108E01035F1F4FB0
:102210000F3881E01807E1F6DF91CF911F910F9100
:102220000895EF92FF920F931F93CF93DF93CDE822
:10223000D1E08E01075011096FEFC8010E946110B3
:102240000F5F1F4F0C171D07B9F760E0CE010E940A
:1022500061108E010F5F1F4F7E018FE1E80EF11CB0
:102260006FEFC8010E9461100F5F1F4F0E151F0511
:10227000B9F7A696CF3F81E0D807D9F6DF91CF9185
:102280001F910F91FF90EF9008951F920F920FB63C
:102290000F9211242F933F934F935F936F937F93EC
:1022A0008F939F93AF93BF93EF93FF93E09165025A
:1022B000F09166020995FF91EF91BF91AF919F91C7
:1022C0008F917F916F915F914F913F912F910F90DF
:1022D0000FBE0F901F901895FC01A3E0440F551FEF
:1022E000661F771FAA95D1F74115510581E0680750
:1022F000710514F481E00EC033E07595679557952C
:1023000047953A95D1F74115510581E06807710568
:102310001CF482E0828331C023E075956795579560
:1023200047952A95D1F74115510581E06807710558
:1023300014F483E0EFCF92E0759567955795479534
:102340009A95D1F74115510581E06807710514F49C
:1023500084E0E0CF82E075956795579547958A951B
:10236000D1F785E082834115510581E06807710549
:1023700024F04FEF5FEF60E070E08FB78383F89455
:1023800051834083509387004093860083818FBFA1
:1023900080918100887F809381009091810082816B
:1023A000892B8093810008951092800020E1209372
:1023B00081000C946C11E1E8F0E02081DC011296C0
:1023C0008C91822B808308950F931F93CF93DF937B
:1023D000EC018B01BA01A9011416150616061706A1
:1023E00014F40E946C111D830C8381E080936F00B4
:1023F000CE01DF91CF911F910F910C94DB11DC0185
:10240000ED91FC910480F581E02D40E009940F935B
:102410001F93CF93FC0126816217A0F4C62F8C0175
:1024200064839085C90F6C2F6F70CF010E94FF11DC
:102430006C2F62956F706061C801CF911F910F91F1
:102440000C94FF11CF911F910F910895FC012781EA
:10245000269526952695621720F46583606B0C946B
:10246000FF1108950F931F93CF93DF931F92CDB762
:10247000DEB78C0149830E9407124981642FC8018D
:102480000F90DF91CF911F910F910C942612CF9353
:10249000DF93EC019C818E81981758F4E881F981D3
:1024A0000480F581E02D42E0CE0109958C818F5F9B
:1024B0008C83DF91CF910895CF92DF92EF92FF92BC
:1024C0000F931F93CF93DF93EC01F62EC42ED22EE1
:1024D0008F81869586958695081710F00FEF080F67
:1024E0001D2D011780F0412F6F2DCE010E94321259
:1024F000EF2CCE1430F060E0CE010E944712E3943E
:10250000F8CF1F5FEECF4D2D6F2DCE01DF91CF9114
:102510001F910F91FF90EF90DF90CF900C943212AB
:102520000F93FC010781069506950695015046819B
:10253000415020E060E00E945C120F910895EF92FC
:10254000FF920F931F93CF93DF93EC011C821D82A8
:10255000FB0185919491E82EFB013296F49031961F
:10256000E491EE83FB013496E491EF83FB01359611
:10257000649168878C01802F8E198F1540F4F801C3
:102580006491CE010E94FF110F5F1F4FF4CFCE0167
:10259000DF91CF911F910F91FF90EF900C949012CB
:1025A0002F923F924F925F926F927F928F929F9263
:1025B000AF92BF92CF92DF92EF92FF920F931F9351
:1025C000CF93DF93CDB7DEB727970FB6F894DEBF72
:1025D0000FBECDBFFC01038514850115110509F45B
:1025E00010C19F838E83F801B49131964491319646
:1025F00054903196A491EA2EF12CF7E0EF0EF11CE5
:1026000093E0F594E7949A95E1F7EA82F80134961D
:1026100074913196E491671750F0862F90E02E2F39
:1026200030E0F901E70FF11D8E179F07BCF06D3008
:1026300031F460E08E819F810E940712DFC06A3012
:1026400009F0DFC0EE81FF81818545818E9D400DBF
:10265000112460E0CF010E943212D0C050E05B2B09
:10266000C8010696671BEE81FF81F185F983423030
:10267000510588F4452B09F019825E9C90015F9CFE
:10268000300D1124629F8001639F100D1124080FEB
:10269000191F412C24C0EA2FE77021F048E0442E96
:1026A0004E1A01C0412CA82FFC0140E050E07E2FC3
:1026B0007A1B761728F47491470F511D3196F7CF86
:1026C000FC01E60FF11D54904E9D80014F9D100DB1
:1026D0005E9D100D1124020F131F080F191FEE81AC
:1026E000FF81F481FB83EE81FF81F581FC83652C02
:1026F000712CCC24C394D12C812C912C22242A948B
:102700002C0C7A81271608F074C0312CEE81FF81E1
:102710008185381608F067C0211002C0332041F0CF
:10272000EE81FF8145814F5F6B81CF010E943212A4
:10273000A12CB12CA51408F041C0F501E80DF91D3C
:10274000E00FF11F2491442061F0CE14DF0449F41E
:10275000E22FF0E0042C02C0F595E7950A94E2F729
:102760002E2FEE81FF8181858230B9F4E22F311066
:10277000E295EF70F0E0EC5FF94F2491EE81FF817C
:102780008285622F811102C0CF0103C060958E81C6
:102790009F812D830E9447122D81EE81FF818285CA
:1027A000622F811102C0CF0103C060958E819F818D
:1027B0000E944712FFEFAF1ABF0ABCCFB12C79813C
:1027C000B71679F0EE81FF818285811103C060E048
:1027D000CF0103C06FEF8E819F810E944712B39497
:1027E000EECF339493CF860C971CFFEFCF1ADF0AFE
:1027F00085CF6C818E819F810E94261281E090E0BE
:1028000002C080E090E027960FB6F894DEBF0FBEBE
:10281000CDBFDF91CF911F910F91FF90EF90DF908F
:10282000CF90BF90AF909F908F907F906F905F9070
:102830004F903F902F900895FC01918D228D892F0C
:1028400090E0805C9F4F821B91098F7399270895B8
:10285000FC01918D828D981731F0828DE80FF11D6A
:10286000858D90E008958FEF9FEF0895FC01918D85
:10287000828D981761F0828DDF01A80FB11D5D96E2
:102880008C91928D9F5F9F73928F90E008958FEF50
:102890009FEF08958FE995E1892B49F080E090E062
:1028A000892B29F00E949F1581110C940000089536
:1028B000FC01848DDF01A80FB11DA35ABF4F2C91DD
:1028C000848D90E001968F739927848FA689B789AC
:1028D0002C93A089B1898C9180648C93938D848D85
:1028E000981306C00288F389E02D80818F7D808354
:1028F0000895CF93DF93EC01888D8823C9F0EA898E
:10290000FB89808185FD05C0A889B9898C9186FDE8
:102910000FC00FB607FCF5CF808185FFF2CFA889E5
:10292000B9898C9185FFEDCFCE010E945814E7CF75
:10293000DF91CF910895EF92FF920F931F93CF9362
:10294000DF93EC0181E0888F9B8D8C8D981305C0FF
:10295000E889F989808185FD24C0F62E0B8D10E071
:102960000F5F1F4F0F731127E02E8C8DE8120CC0E4
:102970000FB607FCFACFE889F989808185FFF5CF8A
:10298000CE010E945814F1CF8B8DFE01E80FF11D8E
:10299000E35AFF4FF0820B8FEA89FB8980818062C6
:1029A00007C0EE89FF896083E889F98980818064A6
:1029B000808381E090E0DF91CF911F910F91FF9094
:1029C000EF900895CF92DF92EF92FF921F93CF93F3
:1029D000DF93EC016A017B01122FE889F98982E01B
:1029E00080834115514E61057105B1F060E079E0D9
:1029F0008DE390E0A70196010E94ED1ADA01C9016A
:102A00000197A109B109B695A79597958795AC014E
:102A1000411580E15807A8F0E889F989108260E83B
:102A200074E88EE190E0A70196010E94ED1ABA01C8
:102A3000A90141505109610971097695679557952A
:102A40004795EC85FD855083EE85FF854083188E84
:102A5000EC89FD891083EA89FB898081806180830C
:102A6000EA89FB89808188608083EA89FB8980818B
:102A700080688083EA89FB8980818F7D8083DF91F4
:102A8000CF911F91FF90EF90DF90CF9008951F920C
:102A90000F920FB60F9211242F938F939F93EF9362
:102AA000FF93E0917702F09178028081E0917D02BE
:102AB000F0917E0282FD12C09081809180028F5F32
:102AC0008F7320918102821751F0E0918002F0E033
:102AD000E959FD4F958F8093800201C08081FF915D
:102AE000EF919F918F912F910F900FBE0F901F909C
:102AF00018951F920F920FB60F9211242F933F93A8
:102B00004F935F936F937F938F939F93AF93BF93F5
:102B1000EF93FF9387E692E00E945814FF91EF91A4
:102B2000BF91AF919F918F917F916F915F914F91E5
:102B30003F912F910F900FBE0F901F90189587E631
:102B400092E00E941C1421E0892B09F420E0822FDE
:102B50000895E7E6F2E01382128288EE93E0A0E0A7
:102B6000B0E084839583A683B78385ED91E091835C
:102B7000808385EC90E09587848784EC90E097874C
:102B8000868780EC90E0918B808B81EC90E0938B3A
:102B9000828B82EC90E0958B848B86EC90E0978B17
:102BA000868B118E128E138E148E089508950E94B6
:102BB0006C180E94D6150E94850ECAE4D4E10E94CA
:102BC000F30C2097E1F30E944A14F9CFCF92DF92E1
:102BD000EF92FF920F931F93CF93DF936C017A01D3
:102BE0008B01C0E0D0E0CE15DF0589F0D8016D91F2
:102BF0008D01D601ED91FC910190F081E02DC6018F
:102C00000995892B11F47E0102C02196ECCFC701F2
:102C1000DF91CF911F910F91FF90EF90DF90CF90B8
:102C200008956115710579F0FB0101900020E9F725
:102C30003197AF01461B570BDC01ED91FC910280EF
:102C4000F381E02D099480E090E00895EF92FF92E7
:102C50000F931F93CF93DF938C017B01C0E0D0E0F3
:102C6000F701EC0FFD1F6491662361F0D801ED912F
:102C7000FC910190F081E02DC8010995892B11F09C
:102C80002196EECFCE01DF91CF911F910F91FF9052
:102C9000EF9008950C941116DC01ED91FC910190D8
:102CA000F081E02D099461EE71E00C9411160F9300
:102CB0001F93CF93DF93EC010E9426168C01CE0167
:102CC0000E945316800F911FDF91CF911F910F919A
:102CD00008950F931F93CF93DF93EC010E94111679
:102CE0008C01CE010E945316800F911FDF91CF916E
:102CF0001F910F9108954F925F926F927F92EF9282
:102D0000FF920F931F93CF93DF93CDB7DEB7A197B9
:102D10000FB6F894DEBF0FBECDBF7C01FA01CB0128
:102D200019A2223008F42AE08E010F5D1F4F422EB7
:102D3000512C612C712CBF01A30192010E94ED1A4C
:102D4000F901CA01015011096A3014F4605D01C033
:102D5000695CD8016C93232B242B252B61F7B801D8
:102D6000C7010E941116A1960FB6F894DEBF0FBEE0
:102D7000CDBFDF91CF911F910F91FF90EF907F908A
:102D80006F905F904F900895CF92DF92EF92FF92F5
:102D90000F931F93CF93DF93EC016A017B01211501
:102DA000310579F4E881F9810190F081E02D642FFB
:102DB000DF91CF911F910F91FF90EF90DF90CF9017
:102DC00009942A303105E9F477FF1AC06DE20E94B8
:102DD0004C168C0144275527BA014C195D096E0920
:102DE0007F092AE0CE010E947B16800F911FDF91A0
:102DF000CF911F910F91FF90EF90DF90CF900895AA
:102E00002AE0B701A601CE01DF91CF911F910F916A
:102E1000FF90EF90DF90CF900C947B169A01AB015E
:102E2000770F660B770B0C94C4160F931F93CF93F9
:102E3000DF93EC019A01AB01770F660B770B0E94D1
:102E4000C4168C01CE010E945316800F911FDF9192
:102E5000CF911F910F9108952115310541F4DC01A7
:102E6000ED91FC910190F081E02D642F09940C9478
:102E70007B169A01462F50E060E070E00C942C170E
:102E80009A01AB0160E070E00C942C170895823039
:102E9000E8F4E82FF0E0EE0FFF1FE55EFE4F7183D0
:102EA0006083813041F0809169008C7F482B409392
:102EB0006900E89A089580916900440F551F440FF6
:102EC000551F837F482B40936900E99A08951F920C
:102ED0000F920FB60F9211242F933F934F935F934E
:102EE0006F937F938F939F93AF93BF93EF93FF93D2
:102EF000E0911B01F0911C010995FF91EF91BF91A9
:102F0000AF919F918F917F916F915F914F913F9181
:102F10002F910F900FBE0F901F9018951F920F9238
:102F20000FB60F9211242F933F934F935F936F939C
:102F30007F938F939F93AF93BF93EF93FF93E09112
:102F40001D01F0911E010995FF91EF91BF91AF9185
:102F50009F918F917F916F915F914F913F912F91B1
:102F60000F900FBE0F901F9018951F920F920FB6E3
:102F70000F9211242F933F938F939F93AF93BF93FF
:102F80008091050390910603A0910703B091080377
:102F90003091040323E0230F2D3720F40196A11D67
:102FA000B11D05C026E8230F0296A11DB11D209377
:102FB00004038093050390930603A0930703B09343
:102FC00008038091090390910A03A0910B03B0912B
:102FD0000C030196A11DB11D8093090390930A0370
:102FE000A0930B03B0930C03BF91AF919F918F916E
:102FF0003F912F910F900FBE0F901F9018952FB7F4
:10300000F8946091050370910603809107039091F5
:1030100008032FBF08953FB7F8948091090390915A
:103020000A03A0910B03B0910C0326B5A89B05C021
:103030002F3F19F00196A11DB11D3FBFBA2FA92F37
:10304000982F8827820F911DA11DB11DBC01CD01B4
:1030500042E0660F771F881F991F4A95D1F70895A0
:103060008F929F92AF92BF92CF92DF92EF92FF9298
:103070006B017C010E940B184B015C01C114D1044F
:10308000E104F10401F10E9435190E940B18DC01E2
:10309000CB0188199909AA09BB09883E9340A1056B
:1030A000B10560F321E0C21AD108E108F10888EE09
:1030B000880E83E0981EA11CB11CC114D104E10448
:1030C000F10419F7DBCFFF90EF90DF90CF90BF9026
:1030D000AF909F908F900895789484B5826084BD5E
:1030E00084B5816084BD85B5826085BD85B581600C
:1030F00085BDEEE6F0E0808181608083E1E8F0E06C
:103100001082808182608083808181608083E0E89A
:10311000F0E0808181608083E1EBF0E08081846079
:103120008083E0EBF0E0808181608083EAE7F0E07B
:1031300080818460808380818260808380818160DF
:1031400080838081806880831092C10008958330DD
:1031500081F028F4813099F08230A1F00895873011
:10316000A9F08830B9F08430D1F4809180008F7D4F
:1031700003C0809180008F7780938000089584B58C
:103180008F7702C084B58F7D84BD08958091B00093
:103190008F7703C08091B0008F7D8093B000089539
:1031A000CF93DF9390E0FC01E85DF94F2491FC019F
:1031B000E45CF94F8491882361F190E0880F991FB6
:1031C000FC01EC59F94FC591D491FC01E65AF94F35
:1031D000A591B491611109C09FB7F8948881209599
:1031E00082238883EC912E230BC0623061F49FB759
:1031F000F8943881822F809583238883EC912E2B3D
:103200002C939FBF06C08FB7F894E8812E2B28839C
:103210008FBFDF91CF910895CF93DF93282F30E0B8
:10322000F901EC5EF94F8491F901E85DF94FD49111
:10323000F901E45CF94FC491CC2391F081110E9413
:10324000A718EC2FF0E0EE0FFF1FE05BF94FA59100
:10325000B491EC91ED2381E090E021F480E002C094
:1032600080E090E0DF91CF91089508950E944A197F
:103270000C94321A0E942B1A58F00E94241A40F023
:1032800029F45F3F29F00C941B1A51110C94661A13
:103290000C94211A0E94431A68F39923B1F3552321
:1032A00091F3951B550BBB27AA2762177307840759
:1032B00038F09F5F5F4F220F331F441FAA1FA9F3EF
:1032C00035D00E2E3AF0E0E832D091505040E695DD
:1032D000001CCAF72BD0FE2F29D0660F771F881F3E
:1032E000BB1F261737074807AB07B0E809F0BB0B31
:1032F000802DBF01FF2793585F4F3AF09E3F510545
:1033000078F00C941B1A0C94661A5F3FE4F3983E15
:10331000D4F3869577956795B795F7959F5FC9F72D
:10332000880F911D9695879597F90895E1E0660FAE
:10333000771F881FBB1F621773078407BA0720F027
:10334000621B730B840BBA0BEE1F88F7E095089590
:103350000E94AF196894B1110C94661A08950E94E6
:103360004B1A88F09F5798F0B92F9927B751B0F0B2
:10337000E1F0660F771F881F991F1AF0BA95C9F7F9
:1033800014C0B13091F00E94651AB1E008950C9418
:10339000651A672F782F8827B85F39F0B93FCCF3CB
:1033A000869577956795B395D9F73EF49095809576
:1033B000709561957F4F8F4F9F4F0895E89409C096
:1033C00097FB3EF490958095709561957F4F8F4F58
:1033D0009F4F9923A9F0F92F96E9BB279395F6956E
:1033E000879577956795B795F111F8CFFAF4BB0FEC
:1033F00011F460FF1BC06F5F7F4F8F4F9F4F16C050
:10340000882311F096E911C0772321F09EE8872FD9
:10341000762F05C0662371F096E8862F70E060E095
:103420002AF09A95660F771F881FDAF7880F96950E
:10343000879597F9089597F99F6780E870E060E0B5
:1034400008959FEF80EC089500240A94161617063D
:1034500018060906089500240A9412161306140685
:1034600005060895092E0394000C11F4882352F0E8
:10347000BB0F40F4BF2B11F460FF04C06F5F7F4FA0
:103480008F4F9F4F089557FD9058440F551F59F087
:103490005F3F71F04795880F97FB991F61F09F3F41
:1034A00079F087950895121613061406551FF2CF6A
:1034B0004695F1DF08C0161617061806991FF1CFBA
:1034C00086957105610508940895E894BB276627E1
:1034D0007727CB0197F908950E947F1A0C94321A2E
:1034E0000E94241A38F00E942B1A20F0952311F024
:1034F0000C941B1A0C94211A11240C94661A0E9425
:10350000431A70F3959FC1F3950F50E0551F629FCA
:10351000F001729FBB27F00DB11D639FAA27F00D2C
:10352000B11DAA1F649F6627B00DA11D661F829F53
:103530002227B00DA11D621F739FB00DA11D621F38
:10354000839FA00D611D221F749F3327A00D611D55
:10355000231F849F600D211D822F762F6A2F112437
:103560009F5750409AF0F1F088234AF0EE0FFF1F6A
:10357000BB1F661F771F881F91505040A9F79E3FC1
:10358000510580F00C941B1A0C94661A5F3FE4F30B
:10359000983ED4F3869577956795B795F795E79517
:1035A0009F5FC1F7FE2B880F911D9695879597F920
:1035B0000895AA1BBB1B51E107C0AA1FBB1FA6177A
:1035C000B70710F0A61BB70B881F991F5A95A9F7CC
:1035D00080959095BC01CD010895A1E21A2EAA1BF9
:1035E000BB1BFD010DC0AA1FBB1FEE1FFF1FA217B3
:1035F000B307E407F50720F0A21BB30BE40BF50BB0
:10360000661F771F881F991F1A9469F76095709538
:10361000809590959B01AC01BD01CF010895052EC9
:1036200097FB1EF400940E94261B57FD07D00E94B2
:10363000ED1A07FC03D04EF40C94261B50954095D0
:10364000309521953F4F4F4F5F4F0895909580954E
:10365000709561957F4F8F4F9F4F0895EE0FFF1F1D
:103660000590F491E02D0994CF93DF93823091057A
:1036700010F482E090E0E0910F03F091100320E05D
:1036800030E0C0E0D0E0309711F14081518148171F
:103690005907C0F04817590761F482819381209738
:1036A00019F09B838A832BC09093100380930F03A0
:1036B00026C02115310519F04217530718F49A0155
:1036C000BE01DF01EF010280F381E02DDCCF211587
:1036D000310509F1281B390B2430310590F412967D
:1036E0008D919C9113976115710521F0FB019383D6
:1036F000828304C09093100380930F03FD013296E0
:1037000044C0FD01E20FF31F8193919322503109D0
:103710002D933C933AC020910D0330910E03232B3F
:1037200041F4209102013091030130930E03209364
:103730000D0320910001309101012115310541F463
:103740002DB73EB74091040150910501241B350B64
:10375000E0910D03F0910E03E217F307A0F42E1B86
:103760003F0B2817390778F0AC014E5F5F4F2417E5
:10377000350748F04E0F5F1F50930E0340930D0323
:103780008193919302C0E0E0F0E0CF01DF91CF910F
:1037900008950F931F93CF93DF93009709F48CC084
:1037A000FC0132971382128200910F0310911003D3
:1037B0000115110581F420813181820F931F209121
:1037C0000D0330910E032817390779F5F0930E0396
:1037D000E0930D0371C0D80140E050E0AE17BF0781
:1037E00050F412962D913C911397AD01211531059E
:1037F00009F1D901F3CF9D01DA013383228360817E
:103800007181860F971F8217930769F4EC01288155
:103810003981260F371F2E5F3F4F318320838A81E6
:103820009B8193838283452B29F4F0931003E093CB
:103830000F0342C01396FC93EE931297ED0149914A
:1038400059919E01240F351FE217F30771F480810F
:103850009181840F951F029611969C938E9382817D
:10386000938113969C938E931297E0E0F0E0D80139
:1038700012968D919C911397009719F0F8018C0185
:10388000F6CF8D919C9198012E5F3F4F820F931F31
:1038900020910D0330910E032817390769F43097F2
:1038A00029F41092100310920F0302C013821282A7
:1038B00010930E0300930D03DF91CF911F910F9191
:1038C0000895FB01DC0105900D920020E1F70895B9
:1038D000FB01DC014150504048F005900D92002062
:1038E000C9F701C01D9241505040E0F70895FB0117
:1038F000DC0101900D920020E1F70895FB01DC014D
:103900004150504048F001900D920020C9F701C08D
:103910001D9241505040E0F70895F999FECF92BDB5
:1039200081BDF89A992780B50895262FF999FECF81
:103930001FBA92BD81BD20BD0FB6F894FA9AF99ACC
:0A3940000FBE01960895F894FFCF22
:10394A000000110380000100000080841E00FF01B6
:10395A00040001003200640001FF014617461742C5
:10396A006561744475696E6F76657220312E3062B6
:10397A00792057617272696F722E000A0A002F004D
:10398A002020202020200053544F5020004C49561C
:10399A004520000400C80303008903030100000254
:1039AA0001680300030000040123031E0500001E32
:1039BA000500001D0500001E0500001E050000028E
:1039CA00051903020119030200F5021E0D00000485
:1039DA000EB002000F0000FF0F0000030FA3020643
:1039EA000F00001E0D0000020D19030500610202FE
:1039FA0016480202161903031627020216190302B1
:103A0A001619030000000000000000D012E615A9F4
:103A1A0003000000009B14E6151C143614281479C0
:103A2A00140D0A006E616E00696E66006F7666009C
:00000001FF
