:100000000C9439030C9447170C946E170C946103ED
:100010000C9461030C9461030C9461030C946103D0
:100020000C9461030C9461030C9461030C946103C0
:100030000C9461030C9425110C9461030C946103DE
:100040000C9495170C9461030C9427150C94591576
:100050000C9461030C9461030C9461030C94610390
:100060000C9461030C9461038905CD07C705CD0786
:10007000CC05CF050D061E063806CD07CD07CD07EA
:100080004F06CD077B06E106CD0702072407CD0703
:10009000CD07CD07CD07CD07CD07CD0754072A0AD9
:1000A000410A550A620A7B0AAC0ACA0AD20AE20A63
:1000B000EA0A1C0B320B420B720B810B890BCF0B24
:1000C000F10B020C150C210C290C4F0CA30CAA0CE3
:1000D000B50CC60CDE0C7553004369636C6F204D84
:1000E00061783A007553004369636C6F204D696E07
:1000F0003A007553004369636C6F204163743A00A2
:1001000056657273696F6E3A006279205761727238
:10011000696F7200426561744475696E6F00456C69
:10012000696765206C612063616E63696F6E3A0078
:100130005469706F20436F6D7061733A00202042E4
:10014000504D00456C69676520656C2074656D7065
:100150006F3A004E6F6D6272652063616E63696F06
:100160006E3A00456C696765206C612063616E635F
:10017000696F6E3A00426F727261722063616E63E2
:10018000696F6E0043616E63696F6E206120696EF6
:100190007365727461723A00496E7365727461724C
:1001A00020646573707565732064653A00456C69F9
:1001B0006765206C612063616E63696F6E3A005001
:1001C0006F736963696F6E20612065646974617221
:1001D0003A00456C696765206C6120706F736963D4
:1001E000696F6E3A004E6F6D627265207265706560
:1001F00072746F72696F3A00456C69676520726549
:10020000706572746F72696F3A00535441525400B2
:100210004D4554524F0042504D00535441525400EA
:100220002042504D0A0A003F0236022D02536F6EE3
:1002300069646F203300536F6E69646F203200531E
:100240006F6E69646F20310056024C024D65747206
:100250006F6E6F6D6F005265706572746F72696F4B
:10026000009E029002840279026B025265736574EB
:100270002046616272696361004D69646920436C64
:100280006F636B00536F6E69646F205469636B001A
:100290005469636B7320696775616C6573004D6F9A
:1002A000646F00AE02AC02A902313600380034009F
:1002B000E602D802C702B80243616D62696172202A
:1002C000436F6D7061730043616D626961722044B8
:1002D00069766973696F6E0043616D62696172204E
:1002E00054656D706F0043616D62696172204E6F7D
:1002F0006D627265000A03F902456C696D696E6191
:10030000722043616E63696F6E0045646974617247
:100310002043616E63696F6E0020031D0353490023
:100320004E4F005A03490338032B0356616369613A
:1003300072204F7264656E00456C696D696E617202
:100340002043616E63696F6E00496E7365727461FC
:10035000722043616E63696F6E0043616D62696113
:1003600072204F7264656E007A036C0343616D62A4
:10037000696172204F7264656E0043616D626961EC
:1003800072204E6F6D62726500B503A3038F034543
:100390006C696D696E6172205265706572746F72FE
:1003A000696F00456469746172205265706572748A
:1003B0006F72696F0043616D62696172205265708E
:1003C0006572746F72696F00E703DD03D503D003B4
:1003D000496E666F00416A75737465730043616EA0
:1003E00063696F6E6573005265706572746F7269D0
:1003F0006F7300000005072060000000000000008F
:100400005F00000007000700147F147F14242A7F78
:100410002A12231308646236495620500008070345
:1004200000001C2241000041221C002A1C7F1C2AC3
:1004300008083E0808008070300008080808080016
:100440000060600020100804023E5149453E004211
:100450007F400072494949462141494D33181412E1
:100460007F1027454545393C4A4949314121110909
:10047000073649494936464949291E0000140000FB
:100480000040340000000814224114141414140015
:100490004122140802015909063E415D594E7C1261
:1004A00011127C7F494949363E414141227F4141F9
:1004B000413E7F494949417F090909013E41415176
:1004C000737F0808087F00417F41002040413F01C1
:1004D0007F081422417F404040407F021C027F7F02
:1004E0000408107F3E4141413E7F090909063E4113
:1004F00051215E7F09192946264949493203017F66
:1005000001033F4040403F1F2040201F3F403840F4
:100510003F631408146303047804036159494D438D
:10052000007F4141410204081020004141417F0405
:1005300002010204404040404000030708002054EC
:100540005478407F2844443838444444283844444C
:10055000287F385454541800087E090218A4A49C1B
:10056000787F0804047800447D40002040403D002E
:100570007F1028440000417F40007C047804787C90
:10058000080404783844444438FC182424181824F7
:100590002418FC7C08040408485454542404043FE0
:1005A00044243C4040207C1C2040201C3C403040E7
:1005B0003C44281028444C9090907C4464544C4413
:1005C00000083641000000770000004136080002B4
:1005D000010204023C2623263CDF0519804000AEC0
:1005E000D580A83FD300408D142002A1C8DA128123
:1005F0007FD9F1DB40A4A6AF566163696F00564115
:1006000043494F0000030C0F30333C3FC0C3CCCFF5
:10061000F0F3FCFF000000080002010000030407E3
:1006200000000000000000000102040810204080CB
:10063000010204081020010204081020040404042C
:10064000040404040202020202020303030303037C
:100650000000000023002600290000000000250003
:1006600028002B0000000000240027002A000C0FA7
:10067000891511241FBECFEFD8E0DEBFCDBF11E03A
:10068000A0E0B1E0EAE0F9E302C005900D92A43FDA
:10069000B107D9F723E0A4EFB1E001C01D92A0316A
:1006A000B207E1F713E0C9E3D3E004C02197FE01EC
:1006B0000E940E1BC733D107C9F70E94B7150C94CF
:1006C000831C0C940000CF93DF9386E00E94EC180B
:1006D000EC0182E00E94EC18C817D90719F481E0F8
:1006E00090E002C08FEF9FEF909308028093070283
:1006F000DF91CF9108950C946D1CEF92FF920F93B0
:100700001F93CF93DF931F92CDB7DEB77C01FC011F
:1007100000811181C80169830E946D1C698168177D
:1007200019F0C8010E94751CC7010F90DF91CF918D
:100730001F910F91FF90EF900895FC016093BC0012
:100740008091BC0087FFFCCF9091B900987F908387
:100750000895CF92DF92EF92FF920F931F93CF9362
:10076000DF93EC01C62ED42E8F85882351F04111E2
:1007700008C084E98093BC008091BC0084FDFCCF5C
:100780001F86EF848E01035F1F4FE11014C0FE84AB
:1007900064EAC8010E949D038D85883011F1803183
:1007A00001F1DD2011F080E4E82EE092BB0064E866
:1007B000C8010E949D03C092BB0064E8C8010E946A
:1007C0009D0382E0D81204C08F858F5F8F8711C090
:1007D00084E98093BC008091BC0084FDFCCF1F861F
:1007E00008C0FF0CF092BB0064E8C8010E949D03A2
:1007F000D8CFDF91CF911F910F91FF90EF90DF90B5
:10080000CF90089580912B02813099F4E0910602F7
:10081000E11103C010922B0213C084E0E89FF001A5
:100820001124E95AFE4F818180930602109205023D
:1008300007C081E080932B021092050210920602FD
:1008400081E080931C010895DF92EF92FF920F9355
:100850001F93CF93DF93CDB7DEB76E970FB6F894A3
:10086000DEBF0FBECDBF90911D0180912B02981766
:1008700041F089E092E00E94701280912B028093F7
:100880001D0180912B02882321F0813009F41FC1C2
:10089000BCC310911E01112321F0113009F49FC037
:1008A000B4C340E060E089E092E00E94121210922E
:1008B000130260911F0270E06F5F7F4F4AE050E0CB
:1008C00089E092E00E94EE166DE371E089E092E02B
:1008D0000E942A166CE272E089E092E00E942A16D9
:1008E00060E471E089E092E00E942A1602E021E0D3
:1008F00040E860E089E092E00E943C1241E060E064
:1009000089E092E00E9412126091200270E06F5F15
:100910007F4F4AE050E089E092E00E94EE166DE3DE
:1009200071E089E092E00E942A1665E372E089E0B6
:1009300092E00E942A166FE371E089E092E00E9443
:100940002A1682E08093120260911A0170911B01B5
:100950004AE050E089E092E00E94201760E272E0F5
:1009600089E092E00E94061681E080931202609175
:100970001401709115014AE050E089E092E00E9474
:10098000201762E471E089E092E00E942A166091EB
:10099000160170911701660F771F660F771F4AE0E7
:1009A00050E089E092E00E94201764E471E089E061
:1009B00092E00E942A1647E060E689E092E00E94F9
:1009C000121280911301882319F06AE172E07AC053
:1009D0006BE471E089E092E00E942A1616C302E0FF
:1009E00021E040E260E089E092E00E943C1241E0B8
:1009F0006BE089E092E00E9412121092130282E0F2
:100A00008093120260911A0170911B014AE050E03C
:100A100089E092E00E94201741E060E489E092E0E2
:100A20000E94121266E172E089E092E00E940616CE
:100A30001093120244E060E489E092E00E941212F6
:100A400060911401709115014AE050E089E092E054
:100A50000E94201762E471E089E092E00E942A1669
:100A60006091160170911701660F771F660F771F4F
:100A70004AE050E089E092E00E94201747E060E001
:100A800089E092E00E94121280911E01882339F0C1
:100A900060E172E089E092E00E94061606C061E51E
:100AA00071E089E092E00E942A1647E060E689E062
:100AB00092E00E94121280911301882309F488CFDA
:100AC0006AE072E089E092E00E9406169EC2909170
:100AD0000E0180910602981741F089E092E00E9491
:100AE00070128091060280930E0140E060E089E080
:100AF00092E00E941212E09106028E2F90E0FC011B
:100B00003297EB31F10508F048C2EC5CFF4F0C94D2
:100B10000E1B1092130268EF71E089E092E00E94D0
:100B2000371601E021E040E860E089E092E00E94B1
:100B30003C1200E010E0DD24D3948091050290E0A7
:100B40008017910719F4D092130202C01092130279
:100B5000802F0E949F0F7C010F5F1F4F4AE050E0E3
:100B6000B80189E092E00E94EE166DE371E089E041
:100B700092E00E942A16B70189E092E00E9449168D
:100B8000C7010E94A91B03301105B9F63EC210929D
:100B9000130265EE71E0B3C062ED71E06BC06FEB04
:100BA00071E089E092E00E94371660910102809125
:100BB0001F020E9414100E94D90F7C019091010223
:100BC000692F70E06F5F7F4F4AE050E089E092E06C
:100BD0000E94EE166DE371E089E092E00E942A1611
:100BE000B70189E092E00E94491660E471E089E073
:100BF00092E00E9449166DEA71E089E092E00E945D
:100C0000371606E025E040E860E089E092E00E94C7
:100C10003C12C7010E94A91B27C168E971E089E065
:100C200092E00E9437161092130201E021E040E8A2
:100C300060E089E092E00E943C122AC064E871E022
:100C400089E092E00E94371601E021E040E860E090
:100C500089E092E00E943C12809105020E94D90F27
:100C60008C0190910102692F70E06E5F7F4F07C188
:100C700065E771E089E092E00E94371601E021E02B
:100C800040E860E089E092E00E943C12109213027A
:100C90006091050280911F020E941410E7C063E674
:100CA00071E089E092E00E943716809105020E946F
:100CB000D90F7C0101E021E040E860E089E092E0AA
:100CC0000E943C1290910502692F70E06F5F7F4F88
:100CD0004AE050E089E092E00E94EE166DE371E098
:100CE00089E092E00E942A16B70189E092E00E9412
:100CF0004916C701D6C01092130263E571E089E07E
:100D000092E00E94371601E021E040E860E089E0CF
:100D100092E00E943C1280910702909108021816FE
:100D200019065CF580910402E0910202F091030241
:100D3000E80FF11D8081811102C080E280838091E3
:100D40000402E0910202F0910302E80FF11D80819C
:100D50008A3711F488ED808380910402E0910202C9
:100D6000F0910302E80FF11D80818A3710F48F5F44
:100D700080831092080210920702809107029091DE
:100D8000080297FF15C080910402E0910202F091E1
:100D90000302E80FF11D8081883D11F48AE703C04A
:100DA000813210F081508083109208021092070265
:100DB000609102027091030289E092E00E9449165C
:100DC00024C11092130263E471E089E092E00E9472
:100DD000371660E471E089E092E00E94491604E071
:100DE00023E040E860E089E092E00E943C124AE0A3
:100DF00050E06091050289E092E00E9419176DE3CE
:100E000071E0C6C01092130260E371E089E092E0E5
:100E10000E94371660E471E089E092E00E94491672
:100E200004E023E040E860E089E092E00E943C12A8
:100E30006091050270E06E5F7F4F4AE050E089E00C
:100E400092E00E94F516E1C0109213026EE171E08B
:100E500089E092E00E94371601E021E040E860E07E
:100E600089E092E00E943C12809105020E94D90F15
:100E70008C0190910502692F70E06F5F7F4F4AE00F
:100E800050E089E092E00E94EE166DE371E089E0A7
:100E900092E00E942A16B80189E092E00E94491669
:100EA000C8010E94A91BB1C01092130264E171E055
:100EB00089E092E00E94371669E071E089E092E0F3
:100EC0000E94371660E071E089E092E00E94061609
:100ED0004AE050E061E070E089E092E00E94EE16A6
:100EE0006DE371E089E092E00E942A164AE050E04A
:100EF00060E070E089E092E00E94F51665EF70E036
:100F000089E092E00E9406164091F8015091F901A3
:100F10006091FA017091FB012AE030E089E092E0F3
:100F20000E940C1762EF70E089E092E00E94371691
:100F300067EE70E089E092E00E94061640910A0197
:100F400050910B0160910C0170910D012AE030E08D
:100F500089E092E00E940C1764EE70E089E092E074
:100F60000E94371669ED70E089E092E00E94061653
:100F70004091F4015091F5016091F6017091F701F3
:100F80002AE030E089E092E00E940C1766ED70E004
:100F900089E092E00E94371638C000E010E0FF249C
:100FA000F3948091060224E0829FC0011124FC0189
:100FB000E95AFE4F208130E00217130734F52091E3
:100FC000050230E02017310719F4F092130202C035
:100FD00010921302FC01E95AFE4FC801880F991FB5
:100FE0000280F381E02DE80FF91F65917491CE0125
:100FF00001960E94411CBE016F5F7F4F89E092E025
:101000000E9449160F5F1F4FCCCF6E960FB6F89413
:10101000DEBF0FBECDBFDF91CF911F910F91FF902B
:10102000EF90DF9008951F93CF93DF93182FEB017C
:101030000E94EC18892B71F58AE08C9FF0018D9F3E
:10104000F00D1124EE5BFD4F178216821382808112
:101050004091110150911201811106C091E024814B
:1010600035812417350708F490E08AE08C9FF00161
:101070008D9FF00D1124EE5BFD4F9283248135810D
:101080002417350718F081E0808304C02F5F3F4F9D
:1010900035832483812F0E94EC18019779F58AE02B
:1010A0008C9FF0018D9FF00D1124EE5BFD4F15829A
:1010B0001482118610861182128280812091110182
:1010C00030911201882339F081E04681578142171F
:1010D000530708F480E09AE09C9FF0019D9FF00D7B
:1010E0001124EE5BFD4F83838681978182179307DE
:1010F00010F0108203C00196978386838AE08C9F4C
:10110000F0018D9FF00D1124EE5BFD4F808188234F
:1011100081F08085918501969187808720910F01CC
:10112000309110018217930719F481E0818301C087
:101130001182DF91CF911F910895CF93DF9380911A
:101140001F020E949F0FEC01BC018CE292E00E9402
:10115000571CCE01DF91CF910C94A91B0F931F93C5
:10116000CF936091200280911F020E941410C82F1B
:101170000E94D90F8C01BC0185E392E00E94571CAC
:10118000C8010E94A91B8C2F0E94241005E312E0C5
:10119000F80182878C2F0E942B10F80183878C2FF7
:1011A0000E943610F8018487CF911F910F91089506
:1011B00080911E01882319F0813069F10895809192
:1011C000070290910802181619062CF4809120024B
:1011D0008D3108F45FC0809107029091080297FF5B
:1011E00004C080912002811162C080913F0290E092
:1011F00090931B0180931A018091400290E090939C
:101200001701809316018091410290E0909315019F
:101210008093140132C08091070290910802181641
:1012200019069CF480911A0190911B018F3F910542
:1012300028F4019690931B0180931A0110920802E2
:101240001092070281E080931C0180910702909127
:10125000080297FF12C080911A0190911B0100971C
:1012600029F0019790931B0180931A0110920802B4
:101270001092070281E080931C0180914402882330
:1012800019F18091130191E08927809313019093C4
:101290001C0108958F5F809320020E94AE08109277
:1012A00008021092070281E080931C0194CF8150C4
:1012B000809320020E94AE0810920802109207024A
:1012C00081E080931C0191CF08958BEF91E00E9403
:1012D0007B038F3F11F080931E018CEF91E00E9401
:1012E0007B038F3F31F091E0811101C090E090933A
:1012F00021028DEF91E00E947B038F3F31F091E05E
:10130000811101C090E090931E028EEF91E00E9447
:101310007B03833010F4809322020895CF93DF93F0
:1013200000D0CDB7DEB70E94C2100E94F1108BEF43
:1013300091E09A8389836FEFCE0101960E947D032D
:101340008CEF91E09A8389836FEFCE0101960E9422
:101350007D038DEF91E09A8389836FEFCE01019633
:101360000E947D038EEF91E09A83898360E0CE0135
:1013700001960E947D03FFCF0F931F93CF93DF93BE
:10138000CDB7DEB72A970FB6F894DEBF0FBECDBF3C
:101390008091070290910802181619061CF5809199
:1013A0000502E091060294E0E99FF0011124E95A58
:1013B000FE4F9081482F50E0292F30E02150310915
:1013C0004217530724F48F5F8093050202C01092E6
:1013D0000502992321F0109208021092070281E081
:1013E00080931C01809107029091080297FF20C012
:1013F00080910502E0910602811107C084E0E89F18
:10140000D0011124A95ABE4F8C91815080930502BE
:1014100094E0E99FF0011124E95AFE4F808188236E
:1014200021F0109208021092070281E080931C01C3
:1014300080915802882309F4CFC2E09106028E2FD2
:1014400090E08C31910508F0C4C2FC01E15BFF4FD4
:101450000C940E1B80910502813079F050F082309F
:1014600009F4B2C2833009F0B4C2109205028CE1D3
:10147000AEC21092050281E0AAC2109205028DE070
:10148000A6C280910502813061F038F0823009F007
:10149000A0C2109205028CE09AC21092050282E06E
:1014A00096C21092050283E092C280910502809359
:1014B0001F02109220020E949D080E94AE08109206
:1014C0002B0287C280910502882339F0813009F010
:1014D00080C21092050285E07AC21092050284E073
:1014E0008093060280911F020E949F0F9093030237
:1014F000809302022EC080910402E0910202F091DA
:101500000302E80FF11D9081983DE9F4108260918B
:1015100002027091030280911F020E945D1080916F
:101520000202909103020E94A91BE091060284E04E
:10153000E89FF0011124E95AFE4F81818093060251
:1015400010920502C1C0883020F447C18A3008F4E7
:1015500044C1109204023DC280910502813071F0B5
:1015600048F0823079F0833009F033C210920502DE
:101570008BE02DC21092050286E007C01092050292
:1015800088E003C0109205028AE080930602109260
:1015900001021FC280910502809301021092050290
:1015A00087E015C2409105026091010280911F02FF
:1015B0000E947F1080910102809305021092010227
:1015C00086E035C0809105028093010210920502E9
:1015D00089E0FDC10DE110E060910102862F90E0ED
:1015E0000196801791077CF46FEF600F80911F02C6
:1015F0000E941410482F602F80911F020E947F10BC
:1016000001501109E9CF6F5F4091050280911F02DF
:101610000E947F101092050210920102E0910602D2
:1016200094E0E99FF0011124E95AFE4F81818093F3
:1016300006020E94AE08CDC10091050210E00D31F6
:1016400011050CF0D4C061E0600F80911F020E9470
:101650001410482F602F80911F020E947F100F5F8F
:101660001F4FEDCF80910502813009F0B3C010E02B
:101670004FEF612F80911F020E947F101F5F1E316C
:10168000B9F7A8C080910502813009F18FEF8983F5
:1016900048E050E0BE016F5F7F4FCB010E945E1CAF
:1016A000BE016F5F7F4F80911F020E945D101092FC
:1016B0000502E091060284E0E89FF0011124E95A56
:1016C000FE4F8181809306020E949D0882C110E036
:1016D0004FEF612F80911F020E947F101F5F1E310C
:1016E000B9F7D4CF80910502882339F0813009F011
:1016F00070C11092050284E16AC1109205028EE069
:1017000066C18091050280930002109205028FE06D
:101710005EC1109105021130F9F080F0123031F104
:10172000133009F056C183E18093060280910002D4
:101730000E9436108093010282502EC01092050242
:1017400080E180930602809100020E94D90F90935D
:101750000302809302023DC181E1809306028091E1
:1017600000020E9424108093010216C082E180933F
:101770000602809100020E942B10809301028230A9
:1017800031F0843031F0813009F023C1D9C081E0DB
:1017900003C0109305021DC1809305021AC18091F8
:1017A0000402E0910202F0910302E80FF11D908122
:1017B000983D09F0CBCE1082609102027091030235
:1017C000809100020E948D1080910202909103028C
:1017D0000E94A91B1092050221CF8F5F8093040203
:1017E000F8C060910502809100020E94AD10109235
:1017F000050210920102E091060284E0E89FF001E8
:10180000112412CF80910502813039F020F082300E
:1018100049F464E003C061E001C062E0809100022D
:101820000E94B41010920102D5CF609105026E5F44
:10183000809100020E94BB101092010210920502DA
:10184000DACF80910502809300021092050285E1B3
:10185000BEC080910502813009F0BCCF8FEF898333
:101860004AE050E0BE016F5F7F4FCB010E945E1CDB
:10187000BE016F5F7F4F809100020E948D106FEF5D
:10188000809100020E94AD106FEF809100020E94D3
:10189000B4106FEF809100020E94BB109BCF80912B
:1018A0000502823069F128F4882361F08130C9F0A3
:1018B00090C08330B1F1843009F08BC08BE180930C
:1018C00006023EC08BEF91E00E947B0380930102F1
:1018D0008F3F19F08093050202C01092050287E144
:1018E00076C08CEF91E00E947B03809301028F3FD2
:1018F00019F08093050202C01092050288E167C0CA
:101900008EEF91E00E947B03833018F480930502F0
:1019100002C010920502809101028093220289E1A7
:1019200056C08DEF91E00E947B03809301028F3FB0
:1019300019F08093050202C0109205028AE147C0A7
:101940001092050246C06091050260931E018BEF64
:1019500091E011C061E080910502811101C060E059
:10196000609321028CEF91E01BC0609105026093AF
:1019700022028EEF91E00E94411010920502E09148
:10198000060284E0E89FF001112414C061E0809118
:101990000502811101C060E060931E028DEF91E0AD
:1019A0000E94411010920502E091060294E0E99F26
:1019B000F0011124E95AFE4F818109C0809105028E
:1019C000813011F40E948E091092050286E1809305
:1019D000060281E080931C012A960FB6F894DEBFC0
:1019E0000FBECDBFDF91CF911F910F9108950F933F
:1019F0001F93CF93DF930E94EB176093FC017093CA
:101A0000FD018093FE019093FF0160E070E085E0AE
:101A100090E00E94130861E070E083E090E00E9493
:101A2000130862E070E087E090E00E941308809164
:101A30004E0281110E94020480912B02882329F01A
:101A4000813029F40E94BC0902C00E94D80820916C
:101A50001A0130911B018091290290912A0282176C
:101A6000930781F140E050E060E67AEE80E090E09C
:101A70000E94EF1ACA01B9010E94C01920E030E0AB
:101A800040EC51E40E94161920E030E04AE754E4AB
:101A90000E944C1A60931A0270931B0280931C02DE
:101AA00090931D020E948819AB01BC0180E692E070
:101AB0000E944C1180911A0190911B0190932A026F
:101AC0008093290280911C01882321F00E94240424
:101AD00010921C010E94EB170091FC011091FD0176
:101AE0002091FE013091FF01DC01CB01801B910BA5
:101AF000A20BB30B8093F8019093F901A093FA0124
:101B0000B093FB010091F4011091F5012091F601D1
:101B10003091F701081719072A073B0740F4809313
:101B2000F4019093F501A093F601B093F7010091B1
:101B30000A0110910B0120910C0130910D018017C9
:101B40009107A207B30740F480930A0190930B0119
:101B5000A0930C01B0930D0186E00E94EC18EC01FB
:101B600082E00E94EC18C817D90721F410920802ED
:101B700010920702A895DF91CF911F910F910895C0
:101B8000CF92DF92EF92FF920F931F93CF93DF9349
:101B9000CDB7DEB76A970FB6F894DEBF0FBECDBFE4
:101BA00089E0E3E2F1E0DE011B9601900D928A9557
:101BB000E1F787E0ECE2F1E0DE01549601900D924E
:101BC0008A95E1F78AE0E3E3F1E0DE011196019006
:101BD0000D928A95E1F789E092E00E94701281E00F
:101BE000809312021092130240E060E089E092E0DC
:101BF0000E9412128E01055F1F4F6E0184E1C80E14
:101C0000D11C7801F80161918F0189E092E00E9476
:101C10002C1669E170E080E090E00E9410180C152D
:101C20001D0581F768EE73E080E090E00E941018D7
:101C300060E471E089E092E00E942A166E01FBE107
:101C4000CF0ED11CF80161918F0189E092E00E94D2
:101C50002C1669E170E080E090E00E9410180C15ED
:101C60001D0581F768EE73E080E090E00E94101897
:101C700060E471E089E092E00E942A168E010F5F15
:101C80001F4FF80161918F0189E092E00E942C16AC
:101C900069E170E080E090E00E9410180E151F05C9
:101CA00081F768EE73E080E090E06A960FB6F894F2
:101CB000DEBF0FBECDBFDF91CF911F910F91FF907F
:101CC000EF90DF90CF900C941018CF93DF930FB666
:101CD000F894A895809160008861809360001092CC
:101CE00060000FBE62E082E00E94B01862E086E011
:101CF0000E94B01862E085E00E94B01862E083E0C4
:101D00000E94B01862E087E00E94B01861E088E0AD
:101D10000E94B01861E089E00E94B01861E08AE09A
:101D20000E94B01861E08DE00E94B01861E084E08C
:101D30000E94B01841E050E063E673E080E00E944A
:101D40002717C9E0D2E01F868CE38E871092B90076
:101D50008CE08093B80069ED75E0CE010E947F129F
:101D600083EF93E09C878B8726E042E15AE760E0AF
:101D700070E086E692E00E94C2140E94C00DCE017F
:101D80000E94701281E089871A8620911A01309191
:101D90001B0140E050E060E67AEE80E090E00E94B7
:101DA000EF1ACA01B9010E94C01920E030E040ECEE
:101DB00051E40E94161920E030E04AE754E40E9402
:101DC0004C1A60931A0270931B0280931C0290932A
:101DD0001D020E948819AB01BC0180E692E00E94BE
:101DE000B4112FEF3FEFA90169E17FE080E692E0B7
:101DF0000E94C4119FE088E10FB6F894A8958093E3
:101E000060000FBE909360000E9465090E949D08CB
:101E1000DF91CF910C94AE08E9E0F2E013821282D8
:101E200081E08187148613868FEC91E09183808313
:101E300008950F931F930E94DF17009125021091C0
:101E400026022091270230912802AB01BC01401BE1
:101E5000510B620B730B8091180190911901A0E056
:101E6000B0E084179507A607B70718F485B1887FF7
:101E700085B92091190230E0609116017091170127
:101E800088E190E00E94B91A2617370708F442C08B
:101E900010921902209123023091240280911401A2
:101EA0009091150101972817390728F01092240204
:101EB0001092230209C0809123029091240201967E
:101EC000909324028093230280911301882339F197
:101ED0000E94DF17609325027093260280932702E9
:101EE000909328028091220290E00196880F991F1A
:101EF0002091230230912402232B29F430912102D6
:101F000021E0232701C020E035B1820F911D832BF2
:101F100085B905C0809119028F5F80931902809165
:101F20001E02882339F068EF86E692E01F910F9138
:101F30000C947B141F910F9108950C946D1CCF92FB
:101F4000DF92EF92FF920F931F93CF93DF93C82FEF
:101F500088E090E00E94141B8C0186E2C89FE0019B
:101F60001124CA57DE4FCE010E949D0F8F3F41F4CE
:101F700048E050E06EEF75E0C8010E94481C0FC0B9
:101F800078016801E8E0CE0ED11CCE010E949D0FC1
:101F9000F70181937F012196EC15FD05B1F7C8018A
:101FA000DF91CF911F910F91FF90EF90DF90CF9035
:101FB0000895CF92DF92EF92FF920F931F93CF93EA
:101FC000DF93C82F8AE090E00E94141B8C018DE003
:101FD000C89FE0011124CE010E949D0F8F3F41F464
:101FE0004AE050E068EF75E0C8010E94481C12C04A
:101FF0006801EAE0CE0ED11C7801C01BD10BCE01E6
:102000008E0D9F1D0E949D0FF70181937F01EC159E
:10201000FD05A9F7C801DF91CF911F910F91FF90A6
:10202000EF90DF90CF90089570E062577E4F9B0154
:1020300046E2849F200D311D1124C9010E949D0F8D
:102040008F3F09F480E008952DE0829FC0011124A4
:102050000A960C949D0F2DE0829FC00111240B96CF
:102060000E949D0F8F3F09F481E008952DE0829F2B
:10207000C00111240C960E949D0F8F3F09F484E04B
:1020800008950F931F93CF93DF931F92CDB7DEB7C1
:102090008C0169830E949D0F6981681741F0C80116
:1020A0000F90DF91CF911F910F910C94751C0F90A1
:1020B000DF91CF911F910F910895EF92FF920F93AF
:1020C0001F93CF93DF9326E2829FC00111248C01DE
:1020D0000A571E4FEB017B0188E0E80EF11C699165
:1020E000C8010E9441100F5F1F4FCE15DF05B9F7E1
:1020F000DF91CF911F910F91FF90EF900895262FC0
:1021000030E022573E4F642FA90176E2879F400DB1
:10211000511D1124CA010C944110EF92FF920F93AC
:102120001F93CF93DF939DE0899FE00111248B01E2
:102130007E01EAE0EE0EF11CF80161918F01CE0103
:102140000E9441102196CE15DF05B1F7DF91CF91A6
:102150001F910F91FF90EF9008952DE0829FC00195
:1021600011240A960C9441102DE0829FC001112485
:102170000B960C9441102DE0829FC00111240C9607
:102180000C9441100F931F93CF93DF9309E010E05D
:10219000E80129976FEFCE010E9441102196C017E8
:1021A000D107C1F760E0CE010E94411068E7CE017F
:1021B00001960E94411061E0CE0102960E944110FA
:1021C00064E0CE0103960E9441108E01035F1F4F11
:1021D0000F3881E01807E1F6DF91CF911F910F9141
:1021E0000895EF92FF920F931F93CF93DF93CDE863
:1021F000D1E08E01075011096FEFC8010E94411014
:102200000F5F1F4F0C171D07B9F760E0CE010E944A
:1022100041108E010F5F1F4F7E018FE1E80EF11C10
:102220006FEFC8010E9441100F5F1F4F0E151F0571
:10223000B9F7A696CF3F81E0D807D9F6DF91CF91C5
:102240001F910F91FF90EF9008951F920F920FB67C
:102250000F9211242F933F934F935F936F937F932C
:102260008F939F93AF93BF93EF93FF93E09164029B
:10227000F09165020995FF91EF91BF91AF919F9108
:102280008F917F916F915F914F913F912F910F901F
:102290000FBE0F901F901895FC01A3E0440F551F2F
:1022A000661F771FAA95D1F74115510581E0680790
:1022B000710514F481E00EC033E07595679557956C
:1022C00047953A95D1F74115510581E068077105A9
:1022D0001CF482E0828331C023E0759567955795A1
:1022E00047952A95D1F74115510581E06807710599
:1022F00014F483E0EFCF92E0759567955795479575
:102300009A95D1F74115510581E06807710514F4DC
:1023100084E0E0CF82E075956795579547958A955B
:10232000D1F785E082834115510581E06807710589
:1023300024F04FEF5FEF60E070E08FB78383F89495
:1023400051834083509387004093860083818FBFE1
:1023500080918100887F80938100909181008281AB
:10236000892B8093810008951092800020E12093B2
:1023700081000C944C11E1E8F0E02081DC01129620
:102380008C91822B808308950F931F93CF93DF93BB
:10239000EC018B01BA01A9011416150616061706E1
:1023A00014F40E944C111D830C8381E080936F0014
:1023B000CE01DF91CF911F910F910C94BB11DC01E5
:1023C000ED91FC910480F581E02D40E009940F939C
:1023D0001F93CF93FC0126816217A0F4C62F8C01B6
:1023E00064839085C90F6C2F6F70CF010E94DF113D
:1023F0006C2F62956F706061C801CF911F910F9132
:102400000C94DF11CF911F910F910895FC0127814A
:10241000269526952695621720F46583606B0C94AB
:10242000DF1108950F931F93CF93DF931F92CDB7C2
:10243000DEB78C0149830E94E7114981642FC801EE
:102440000F90DF91CF911F910F910C940612CF93B3
:10245000DF93EC019C818E81981758F4E881F98113
:102460000480F581E02D42E0CE0109958C818F5FDB
:102470008C83DF91CF910895CF92DF92EF92FF92FC
:102480000F931F93CF93DF93EC01F62EC42ED22E21
:102490008F81869586958695081710F00FEF080FA7
:1024A0001D2D011780F0412F6F2DCE010E941212B9
:1024B000EF2CCE1430F060E0CE010E942712E3949E
:1024C000F8CF1F5FEECF4D2D6F2DCE01DF91CF9155
:1024D0001F910F91FF90EF90DF90CF900C9412120C
:1024E0000F93FC01078106950695069501504681DC
:1024F000415020E060E00E943C120F910895EF925D
:10250000FF920F931F93CF93DF93EC011C821D82E8
:10251000FB0185919491E82EFB013296F49031965F
:10252000E491EE83FB013496E491EF83FB01359651
:10253000649168878C01802F8E198F1540F4F80103
:102540006491CE010E94DF110F5F1F4FF4CFCE01C7
:10255000DF91CF911F910F91FF90EF900C9470122B
:102560002F923F924F925F926F927F928F929F92A3
:10257000AF92BF92CF92DF92EF92FF920F931F9391
:10258000CF93DF93CDB7DEB727970FB6F894DEBFB2
:102590000FBECDBFFC01038514850115110509F49B
:1025A00010C19F838E83F801B49131964491319686
:1025B00054903196A491EA2EF12CF7E0EF0EF11C25
:1025C00093E0F594E7949A95E1F7EA82F80134965E
:1025D00074913196E491671750F0862F90E02E2F7A
:1025E00030E0F901E70FF11D8E179F07BCF06D3049
:1025F00031F460E08E819F810E94E711DFC06A3074
:1026000009F0DFC0EE81FF81818545818E9D400DFF
:10261000112460E0CF010E941212D0C050E05B2B69
:10262000C8010696671BEE81FF81F185F983423070
:10263000510588F4452B09F019825E9C90015F9C3E
:10264000300D1124629F8001639F100D1124080F2B
:10265000191F412C24C0EA2FE77021F048E0442ED6
:102660004E1A01C0412CA82FFC0140E050E07E2F03
:102670007A1B761728F47491470F511D3196F7CFC6
:10268000FC01E60FF11D54904E9D80014F9D100DF1
:102690005E9D100D1124020F131F080F191FEE81EC
:1026A000FF81F481FB83EE81FF81F581FC83652C42
:1026B000712CCC24C394D12C812C912C22242A94CB
:1026C0002C0C7A81271608F074C0312CEE81FF8122
:1026D0008185381608F067C0211002C0332041F010
:1026E000EE81FF8145814F5F6B81CF010E94121205
:1026F000A12CB12CA51408F041C0F501E80DF91D7D
:10270000E00FF11F2491442061F0CE14DF0449F45E
:10271000E22FF0E0042C02C0F595E7950A94E2F769
:102720002E2FEE81FF8181858230B9F4E22F3110A6
:10273000E295EF70F0E0EC5FF94F2491EE81FF81BC
:102740008285622F811102C0CF0103C060958E8106
:102750009F812D830E9427122D81EE81FF8182852A
:10276000622F811102C0CF0103C060958E819F81CD
:102770000E942712FFEFAF1ABF0ABCCFB12C79819C
:10278000B71679F0EE81FF818285811103C060E088
:10279000CF0103C06FEF8E819F810E942712B394F7
:1027A000EECF339493CF860C971CFFEFCF1ADF0A3E
:1027B00085CF6C818E819F810E94061281E090E01E
:1027C00002C080E090E027960FB6F894DEBF0FBEFF
:1027D000CDBFDF91CF911F910F91FF90EF90DF90D0
:1027E000CF90BF90AF909F908F907F906F905F90B1
:1027F0004F903F902F900895FC01918D228D892F4D
:1028000090E0805C9F4F821B91098F7399270895F8
:10281000FC01918D828D981731F0828DE80FF11DAA
:10282000858D90E008958FEF9FEF0895FC01918DC5
:10283000828D981761F0828DDF01A80FB11D5D9622
:102840008C91928D9F5F9F73928F90E008958FEF90
:102850009FEF08958FE795E1892B49F080E090E0A4
:10286000892B29F00E947F1581110C940000089596
:10287000FC01848DDF01A80FB11DA35ABF4F2C911D
:10288000848D90E001968F739927848FA689B789EC
:102890002C93A089B1898C9180648C93938D848DC5
:1028A000981306C00288F389E02D80818F7D808394
:1028B0000895CF93DF93EC01888D8823C9F0EA89CE
:1028C000FB89808185FD05C0A889B9898C9186FD29
:1028D0000FC00FB607FCF5CF808185FFF2CFA88926
:1028E000B9898C9185FFEDCFCE010E943814E7CFD6
:1028F000DF91CF910895EF92FF920F931F93CF93A3
:10290000DF93EC0181E0888F9B8D8C8D981305C03F
:10291000E889F989808185FD24C0F62E0B8D10E0B1
:102920000F5F1F4F0F731127E02E8C8DE8120CC024
:102930000FB607FCFACFE889F989808185FFF5CFCA
:10294000CE010E943814F1CF8B8DFE01E80FF11DEE
:10295000E35AFF4FF0820B8FEA89FB898081806206
:1029600007C0EE89FF896083E889F98980818064E6
:10297000808381E090E0DF91CF911F910F91FF90D4
:10298000EF900895CF92DF92EF92FF921F93CF9333
:10299000DF93EC016A017B01122FE889F98982E05B
:1029A00080834115514E61057105B1F060E079E019
:1029B0008DE390E0A70196010E94CD1ADA01C901CA
:1029C0000197A109B109B695A79597958795AC018F
:1029D000411580E15807A8F0E889F989108260E87C
:1029E00074E88EE190E0A70196010E94CD1ABA0129
:1029F000A90141505109610971097695679557956B
:102A00004795EC85FD855083EE85FF854083188EC4
:102A1000EC89FD891083EA89FB898081806180834C
:102A2000EA89FB89808188608083EA89FB898081CB
:102A300080688083EA89FB8980818F7D8083DF9134
:102A4000CF911F91FF90EF90DF90CF9008951F924C
:102A50000F920FB60F9211242F938F939F93EF93A2
:102A6000FF93E0917602F09177028081E0917C0201
:102A7000F0917D0282FD12C0908180917F028F5F74
:102A80008F7320918002821751F0E0917F02F0E075
:102A9000EA59FD4F958F80937F0201C08081FF919D
:102AA000EF919F918F912F910F900FBE0F901F90DC
:102AB00018951F920F920FB60F9211242F933F93E8
:102AC0004F935F936F937F938F939F93AF93BF9336
:102AD000EF93FF9386E692E00E943814FF91EF9106
:102AE000BF91AF919F918F917F916F915F914F9126
:102AF0003F912F910F900FBE0F901F90189586E673
:102B000092E00E94FC1321E0892B09F420E0822F3F
:102B10000895E6E6F2E01382128288EE93E0A0E0E8
:102B2000B0E084839583A683B78389ED91E0918398
:102B3000808385EC90E09587848784EC90E097878C
:102B4000868780EC90E0918B808B81EC90E0938B7A
:102B5000828B82EC90E0958B848B86EC90E0978B57
:102B6000868B118E128E138E148E089508950E94F6
:102B70004C180E94B6150E94650ECAE2D4E10E946C
:102B8000F70C2097E1F30E942A14F9CFCF92DF923D
:102B9000EF92FF920F931F93CF93DF936C017A0113
:102BA0008B01C0E0D0E0CE15DF0589F0D8016D9132
:102BB0008D01D601ED91FC910190F081E02DC601CF
:102BC0000995892B11F47E0102C02196ECCFC70133
:102BD000DF91CF911F910F91FF90EF90DF90CF90F9
:102BE00008956115710579F0FB0101900020E9F766
:102BF0003197AF01461B570BDC01ED91FC91028030
:102C0000F381E02D099480E090E00895EF92FF9227
:102C10000F931F93CF93DF938C017B01C0E0D0E033
:102C2000F701EC0FFD1F6491662361F0D801ED916F
:102C3000FC910190F081E02DC8010995892B11F0DC
:102C40002196EECFCE01DF91CF911F910F91FF9092
:102C5000EF9008950C94F115DC01ED91FC91019039
:102C6000F081E02D099465EE71E00C94F1150F935D
:102C70001F93CF93DF93EC010E9406168C01CE01C7
:102C80000E943316800F911FDF91CF911F910F91FA
:102C900008950F931F93CF93DF93EC010E94F115DA
:102CA0008C01CE010E943316800F911FDF91CF91CE
:102CB0001F910F9108954F925F926F927F92EF92C2
:102CC000FF920F931F93CF93DF93CDB7DEB7A197FA
:102CD0000FB6F894DEBF0FBECDBF7C01FA01CB0169
:102CE00019A2223008F42AE08E010F5D1F4F422EF8
:102CF000512C612C712CBF01A30192010E94CD1AAD
:102D0000F901CA01015011096A3014F4605D01C073
:102D1000695CD8016C93232B242B252B61F7B80118
:102D2000C7010E94F115A1960FB6F894DEBF0FBE41
:102D3000CDBFDF91CF911F910F91FF90EF907F90CA
:102D40006F905F904F900895CF92DF92EF92FF9235
:102D50000F931F93CF93DF93EC016A017B01211541
:102D6000310579F4E881F9810190F081E02D642F3B
:102D7000DF91CF911F910F91FF90EF90DF90CF9057
:102D800009942A303105E9F477FF1AC06DE20E94F8
:102D90002C168C0144275527BA014C195D096E0980
:102DA0007F092AE0CE010E945B16800F911FDF9100
:102DB000CF911F910F91FF90EF90DF90CF900895EA
:102DC0002AE0B701A601CE01DF91CF911F910F91AB
:102DD000FF90EF90DF90CF900C945B169A01AB01BF
:102DE000770F660B770B0C94A4160F931F93CF935A
:102DF000DF93EC019A01AB01770F660B770B0E9412
:102E0000A4168C01CE010E943316800F911FDF9112
:102E1000CF911F910F9108952115310541F4DC01E7
:102E2000ED91FC910190F081E02D642F09940C94B8
:102E30005B169A01462F50E060E070E00C940C178E
:102E40009A01AB0160E070E00C940C170895823099
:102E5000E8F4E82FF0E0EE0FFF1FE15EFE4F718314
:102E60006083813041F0809169008C7F482B4093D2
:102E70006900E89A089580916900440F551F440F36
:102E8000551F837F482B40936900E99A08951F924C
:102E90000F920FB60F9211242F933F934F935F938E
:102EA0006F937F938F939F93AF93BF93EF93FF9312
:102EB000E0911F01F09120010995FF91EF91BF91E1
:102EC000AF919F918F917F916F915F914F913F91C2
:102ED0002F910F900FBE0F901F9018951F920F9279
:102EE0000FB60F9211242F933F934F935F936F93DD
:102EF0007F938F939F93AF93BF93EF93FF93E09153
:102F00002101F09122010995FF91EF91BF91AF91BD
:102F10009F918F917F916F915F914F913F912F91F1
:102F20000F900FBE0F901F9018951F920F920FB623
:102F30000F9211242F933F938F939F93AF93BF933F
:102F40008091040390910503A0910603B0910703BB
:102F50003091030323E0230F2D3720F40196A11DA8
:102F6000B11D05C026E8230F0296A11DB11D2093B7
:102F700003038093040390930503A0930603B09387
:102F800007038091080390910903A0910A03B0916F
:102F90000B030196A11DB11D8093080390930903B3
:102FA000A0930A03B0930B03BF91AF919F918F91B0
:102FB0003F912F910F900FBE0F901F9018952FB734
:102FC000F894609104037091050380910603909139
:102FD00007032FBF08953FB7F8948091080390919D
:102FE0000903A0910A03B0910B0326B5A89B05C065
:102FF0002F3F19F00196A11DB11D3FBFBA2FA92F78
:10300000982F8827820F911DA11DB11DBC01CD01F4
:1030100042E0660F771F881F991F4A95D1F70895E0
:103020008F929F92AF92BF92CF92DF92EF92FF92D8
:103030006B017C010E94EB174B015C01C114D104B0
:10304000E104F10401F10E9415190E94EB17DC0163
:10305000CB0188199909AA09BB09883E9340A105AB
:10306000B10560F321E0C21AD108E108F10888EE49
:10307000880E83E0981EA11CB11CC114D104E10488
:10308000F10419F7DBCFFF90EF90DF90CF90BF9066
:10309000AF909F908F900895789484B5826084BD9E
:1030A00084B5816084BD85B5826085BD85B581604C
:1030B00085BDEEE6F0E0808181608083E1E8F0E0AC
:1030C0001082808182608083808181608083E0E8DB
:1030D000F0E0808181608083E1EBF0E080818460BA
:1030E0008083E0EBF0E0808181608083EAE7F0E0BC
:1030F0008081846080838081826080838081816020
:1031000080838081806880831092C100089583301D
:1031100081F028F4813099F08230A1F00895873051
:10312000A9F08830B9F08430D1F4809180008F7D8F
:1031300003C0809180008F7780938000089584B5CC
:103140008F7702C084B58F7D84BD08958091B000D3
:103150008F7703C08091B0008F7D8093B000089579
:10316000CF93DF9390E0FC01E85DF94F2491FC01DF
:10317000E45CF94F8491882361F190E0880F991FF6
:10318000FC01EC59F94FC591D491FC01E65AF94F75
:10319000A591B491611109C09FB7F89488812095D9
:1031A00082238883EC912E230BC0623061F49FB799
:1031B000F8943881822F809583238883EC912E2B7D
:1031C0002C939FBF06C08FB7F894E8812E2B2883DD
:1031D0008FBFDF91CF910895CF93DF93282F30E0F9
:1031E000F901EC5EF94F8491F901E85DF94FD49152
:1031F000F901E45CF94FC491CC2391F081110E9454
:103200008718EC2FF0E0EE0FFF1FE05BF94FA59160
:10321000B491EC91ED2381E090E021F480E002C0D4
:1032200080E090E0DF91CF91089508950E942A19DF
:103230000C94121A0E940B1A58F00E94041A40F0C3
:1032400029F45F3F29F00C94FB1951110C94461A94
:103250000C94011A0E94231A68F39923B1F35523A1
:1032600091F3951B550BBB27AA2762177307840799
:1032700038F09F5F5F4F220F331F441FAA1FA9F32F
:1032800035D00E2E3AF0E0E832D091505040E6951D
:10329000001CCAF72BD0FE2F29D0660F771F881F7E
:1032A000BB1F261737074807AB07B0E809F0BB0B71
:1032B000802DBF01FF2793585F4F3AF09E3F510585
:1032C00078F00C94FB190C94461A5F3FE4F3983E97
:1032D000D4F3869577956795B795F7959F5FC9F76E
:1032E000880F911D9695879597F90895E1E0660FEF
:1032F000771F881FBB1F621773078407BA0720F068
:10330000621B730B840BBA0BEE1F88F7E0950895D0
:103310000E948F196894B1110C94461A08950E9466
:103320002B1A88F09F5798F0B92F9927B751B0F012
:10333000E1F0660F771F881F991F1AF0BA95C9F739
:1033400014C0B13091F00E94451AB1E008950C9478
:10335000451A672F782F8827B85F39F0B93FCCF32B
:10336000869577956795B395D9F73EF490958095B6
:10337000709561957F4F8F4F9F4F0895E89409C0D6
:1033800097FB3EF490958095709561957F4F8F4F98
:103390009F4F9923A9F0F92F96E9BB279395F695AE
:1033A000879577956795B795F111F8CFFAF4BB0F2C
:1033B00011F460FF1BC06F5F7F4F8F4F9F4F16C090
:1033C000882311F096E911C0772321F09EE8872F1A
:1033D000762F05C0662371F096E8862F70E060E0D6
:1033E0002AF09A95660F771F881FDAF7880F96954F
:1033F000879597F9089597F99F6780E870E060E0F6
:1034000008959FEF80EC089500240A94161617067D
:1034100018060906089500240A94121613061406C5
:1034200005060895092E0394000C11F4882352F028
:10343000BB0F40F4BF2B11F460FF04C06F5F7F4FE0
:103440008F4F9F4F089557FD9058440F551F59F0C7
:103450005F3F71F04795880F97FB991F61F09F3F81
:1034600079F087950895121613061406551FF2CFAA
:103470004695F1DF08C0161617061806991FF1CFFA
:1034800086957105610508940895E894BB27662721
:103490007727CB0197F908950E945F1A0C94121AAE
:1034A0000E94041A38F00E940B1A20F0952311F0A4
:1034B0000C94FB190C94011A11240C94461A0E94C6
:1034C000231A70F3959FC1F3950F50E0551F629F2B
:1034D000F001729FBB27F00DB11D639FAA27F00D6D
:1034E000B11DAA1F649F6627B00DA11D661F829F94
:1034F0002227B00DA11D621F739FB00DA11D621F79
:10350000839FA00D611D221F749F3327A00D611D95
:10351000231F849F600D211D822F762F6A2F112477
:103520009F5750409AF0F1F088234AF0EE0FFF1FAA
:10353000BB1F661F771F881F91505040A9F79E3F01
:10354000510580F00C94FB190C94461A5F3FE4F38C
:10355000983ED4F3869577956795B795F795E79557
:103560009F5FC1F7FE2B880F911D9695879597F960
:103570000895AA1BBB1B51E107C0AA1FBB1FA617BA
:10358000B70710F0A61BB70B881F991F5A95A9F70C
:1035900080959095BC01CD010895A1E21A2EAA1B39
:1035A000BB1BFD010DC0AA1FBB1FEE1FFF1FA217F3
:1035B000B307E407F50720F0A21BB30BE40BF50BF0
:1035C000661F771F881F991F1A9469F76095709579
:1035D000809590959B01AC01BD01CF010895052E0A
:1035E00097FB1EF400940E94061B57FD07D00E9413
:1035F000CD1A07FC03D04EF40C94061B5095409551
:10360000309521953F4F4F4F5F4F0895909580958E
:10361000709561957F4F8F4F9F4F0895EE0FFF1F5D
:103620000590F491E02D0994CF93DF9382309105BA
:1036300010F482E090E0E0910E03F0910F0320E09F
:1036400030E0C0E0D0E0309711F14081518148175F
:103650005907C0F04817590761F482819381209778
:1036600019F09B838A832BC090930F0380930E03E2
:1036700026C02115310519F04217530718F49A0195
:10368000BE01DF01EF010280F381E02DDCCF2115C7
:10369000310509F1281B390B2430310590F41296BD
:1036A0008D919C9113976115710521F0FB01938316
:1036B000828304C090930F0380930E03FD01329622
:1036C00044C0FD01E20FF31F819391932250310911
:1036D0002D933C933AC020910C0330910D03232B82
:1036E00041F4209102013091030130930D032093A6
:1036F0000C0320910001309101012115310541F4A5
:103700002DB73EB74091040150910501241B350BA4
:10371000E0910C03F0910D03E217F307A0F42E1BC8
:103720003F0B2817390778F0AC014E5F5F4F241725
:10373000350748F04E0F5F1F50930D0340930C0365
:103740008193919302C0E0E0F0E0CF01DF91CF914F
:1037500008950F931F93CF93DF93009709F48CC0C4
:10376000FC0132971382128200910E0310910F0315
:103770000115110581F420813181820F931F209161
:103780000C0330910D032817390779F5F0930D03D9
:10379000E0930C0371C0D80140E050E0AE17BF07C2
:1037A00050F412962D913C911397AD0121153105DE
:1037B00009F1D901F3CF9D01DA01338322836081BE
:1037C0007181860F971F8217930769F4EC01288196
:1037D0003981260F371F2E5F3F4F318320838A8127
:1037E0009B8193838283452B29F4F0930F03E0930D
:1037F0000E0342C01396FC93EE931297ED0149918C
:1038000059919E01240F351FE217F30771F480814F
:103810009181840F951F029611969C938E938281BD
:10382000938113969C938E931297E0E0F0E0D80179
:1038300012968D919C911397009719F0F8018C01C5
:10384000F6CF8D919C9198012E5F3F4F820F931F71
:1038500020910C0330910D032817390769F4309734
:1038600029F410920F0310920E0302C013821282E9
:1038700010930D0300930C03DF91CF911F910F91D3
:103880000895FB01DC0105900D920020E1F70895F9
:10389000FB01DC014150504048F005900D920020A2
:1038A000C9F701C01D9241505040E0F70895FB0157
:1038B000DC0101900D920020E1F70895FB01DC018D
:1038C0004150504048F001900D920020C9F701C0CE
:1038D0001D9241505040E0F70895F999FECF92BDF6
:1038E00081BDF89A992780B50895262FF999FECFC2
:1038F0001FBA92BD81BD20BD0FB6F894FA9AF99A0D
:0A3900000FBE01960895F894FFCF62
:10390A000000100380000100000080841E00FF3CBC
:10391A0000020001040001003200640001FF0126D8
:10392A00172617426561744475696E6F7665722051
:10393A00312E3062792057617272696F722E000AD5
:10394A000A002F002020202020200053544F50200E
:10395A00004C49564520000400C8030300890303AC
:10396A000100000201680300030000040123031E92
:10397A000500001E0500001D0500001E0500001EB2
:10398A0005000002051903020119030200F5021ECF
:10399A000D0000040EB002000F0000FF0F0000032C
:1039AA000FA302060F00001E0D0000020D190305E9
:1039BA0000610202164802021619030316270202C0
:1039CA00161903021619030000000000000000B0D7
:1039DA0012C615A903000000007B14C615FC1316B5
:1039EA0014081459140D0A006E616E00696E66009F
:0439FA006F7666007E
:00000001FF
