:100000000C9455030C9481180C94AE180C947D0339
:100010000C947D030C947D030C947D030C94EC15DF
:100020000C947D030C947D030C947D030C947D0350
:100030000C947D030C947D030C947D030C947D0340
:100040000C94DB180C947D030C947D030C947D03BD
:100050000C947D030C947D030C947D030C947D0320
:100060000C94581D0C947D0300000000003FF0002C
:10007000007FF80300E01C0700E01C0E00C30C7CAE
:1000800000C30C9801C00E8401830644018006F46D
:10009000038307C0038003800303070003000F806E
:1000A00007031F8006031D80060339800E0371C0FD
:1000B0000E03E0C00C0FC0C01C1030E01C2010600C
:1000C0001840086018400860387FF8703C0000F065
:1000D0003FFFFFF07FFFFFF87FFFFFF87FFFFFF894
:1000E0007FFFFFF87FFFFFF87FFFFFF85354415277
:1000F00054004573636F6765206C612063616E63B4
:10010000696F6E3A00456C696D696E61722043617A
:100110006E63696F6E00496E73657274617220431D
:10012000616E63696F6E0043616D62696172204345
:10013000616E63696F6E0043616D62696172205226
:1001400065706572746F72696F0053544152540048
:1001500000000000003E5B4F5B3E3E6B4F6B3E1C61
:100160003E7C3E1C183C7E3C181C577D571C1C5E78
:100170007F5E1C00183C1800FFE7C3E7FF0018244F
:100180001800FFE7DBE7FF30483A060E26297929F9
:1001900026407F050507407F05253F5A3CE73C5A2E
:1001A0007F3E1C1C08081C1C3E7F14227F22145F0B
:1001B0005F005F5F06097F017F006689956A606066
:1001C00060606094A2FFA29408047E040810207E60
:1001D000201008082A1C08081C2A08081E101010E5
:1001E000100C1E0C1E0C30383E3830060E3E0E062B
:1001F000000000000000005F00000007000700147E
:100200007F147F14242A7F2A12231308646236493C
:100210005620500008070300001C22410000412224
:100220001C002A1C7F1C2A08083E08080080703029
:100230000008080808080000606000201008040298
:100240003E5149453E00427F40007249494946219E
:1002500041494D331814127F1027454545393C4A12
:100260004949314121110907364949493646494929
:10027000291E000014000000403400000008142271
:1002800041141414141400412214080201590906DF
:100290003E415D594E7C1211127C7F494949363EE0
:1002A000414141227F4141413E7F494949417F09C6
:1002B0000909013E414151737F0808087F00417FD1
:1002C00041002040413F017F081422417F404040CF
:1002D000407F021C027F7F0408107F3E4141413E67
:1002E0007F090909063E4151215E7F0919294626E9
:1002F0004949493203017F01033F4040403F1F20ED
:1003000040201F3F4038403F6314081463030478C3
:1003100004036159494D43007F41414102040810E3
:1003200020004141417F040201020440404040401E
:10033000000307080020545478407F28444438388C
:1003400044444428384444287F38545454180008FE
:100350007E090218A4A49C787F0804047800447DD8
:1003600040002040403D007F1028440000417F4075
:10037000007C047804787C080404783844444438C9
:10038000FC1824241818242418FC7C0804040848A9
:100390005454542404043F44243C4040207C1C20FA
:1003A00040201C3C4030403C44281028444C909055
:1003B000907C4464544C44000836410000007700AF
:1003C00000004136080002010204023C2623263CBC
:1003D0001EA1A161123A4040207A38545455592147
:1003E000555579412254547842215554784020542F
:1003F0005579400C1E52721239555555593954547D
:10040000545939555454580000457C410002457DEB
:10041000420001457C407D1211127DF0282528F014
:100420007C545545002054547C547C0A097F493241
:10043000494949323A4444443A324A4848303A41B8
:1004400041217A3A42402078009DA0A07D3D424261
:10045000423D3D4040403D3C24FF2424487E4943EA
:10046000662B2FFC2F2BFF0929F620C0887E09035D
:1004700020545479410000447D413048484A323884
:100480004040227A007A0A0A727D0D19317D2629B0
:10049000292F28262929292630484D4020380808A8
:1004A000080808080808382F10C8ACBA2F102834DC
:1004B000FA00007B000008142A142222142A1408CF
:1004C000AA005500AAAA55AA55AA000000FF0010CC
:1004D0001010FF00141414FF001010FF00FF101084
:1004E000F010F0141414FC001414F700FF0000FFC7
:1004F00000FF1414F404FC141417101F10101F1024
:100500001F1414141F00101010F0000000001F1022
:100510001010101F10101010F010000000FF10102D
:1005200010101010101010FF10000000FF14000039
:10053000FF00FF00001F10170000FC04F414141744
:1005400010171414F404F40000FF00F7141414142A
:10055000141414F700F7141414171410101F101F9C
:10056000141414F4141010F010F000001F101F00E9
:1005700000001F14000000FC140000F010F0101028
:10058000FF10FF141414FF141010101F00000000BF
:10059000F010FFFFFFFFFFF0F0F0F0F0FFFFFF00B3
:1005A00000000000FFFF0F0F0F0F0F3844443844C6
:1005B000FC4A4A4A347E02020606027E027E02633A
:1005C000554941633844443C04407E201E200602C5
:1005D0007E020299A5E7A5991C2A492A1C4C7201A2
:1005E000724C304A4D4D303048784830BC625A46E3
:1005F0003D3E494949007E0101017E2A2A2A2A2AD4
:1006000044445F444440514A444040444A514000BD
:1006100000FF0103E080FF000008086B6B08361242
:10062000362436060F090F060000181800000010C7
:1006300010003040FF0101001F01011E00191D17AD
:1006400012003C3C3C3C00000000000200000000A6
:10065000240027002A0000000000250028002B00AD
:100660000000000023002600290004040404040400
:100670000404020202020202030303030303010251
:100680000408102040800102040810200102040820
:100690001020000000070002010000030406000013
:1006A0000000000000007F034E1C11241FBECFEF8E
:1006B000D8E0DEBFCDBF15E0A0E0B1E0ECEFFEE397
:1006C00002C005900D92A438B107D9F716E0A4E84E
:1006D000B5E001C01D92AA3DB107E1F716E0CAEAF4
:1006E000D6E004C02297FE010E94781FC63AD107C7
:1006F000C9F70E941A140C947C1F0C94000084E823
:1007000095E064E00E943313089570E062577E4FD5
:1007100096E2899FC0011124680F791F85ED96E04C
:100720000E940E1F0895AF92BF92CF92DF92EF9278
:10073000FF920F931F93CF93DF93082F8AE090E0EF
:100740000E94B71AB82EA92E8DE0089F80011124AF
:100750008B2D7C01E8010F2EF5EDCF2EF6E0DF2E7C
:10076000F02D065F1F4FC601BE010E94071FF70153
:1007700081937F012196C017D107A9F78B2D9A2D60
:10078000DF91CF911F910F91FF90EF90DF90CF906D
:10079000BF90AF900895AF92BF92CF92DF92EF9249
:1007A000FF920F931F93CF93DF93082F88E090E081
:1007B0000E94B71AB82EA92E26E2029F80011124AA
:1007C0000A571E4FEC010F2EF5EDCF2EF6E0DF2E6F
:1007D000F02DEE24FF246894E3F8E80EF91EC6011C
:1007E000B8010E94071F89930F5F1F4FCE15DF05C9
:1007F000B1F78B2D9A2DDF91CF911F910F91FF9023
:10080000EF90DF90CF90BF90AF900895AF92BF92DE
:10081000CF92DF92EF92FF920F931F93CF93DF93CC
:100820008091EE0526E2829FC00111240F2EF6E88A
:10083000AF2EF1E0BF2EF02DA80EB91E0AED15E087
:10084000E5010F2EF5EDCF2EF6E0DF2EF02D0F2E69
:10085000F2EEEF2EF5E0FF2EF02DC601BE010E9454
:10086000071FF80181938F012196EE15FF05A9F767
:100870006091ED0570E0685F7F4F6A0D7B1D85ED2F
:1008800096E00E94071F9DE0899F500111240DEC06
:1008900015E0E5010F2EF5EDCF2EF6E0DF2EF02D61
:1008A0000F2EF7EDEF2EF5E0FF2EF02DC601BE0165
:1008B0000E94071FF80181938F012196EE15FF0515
:1008C000A9F7B501665F7F4F0F2EF5EDEF2EF6E02D
:1008D000FF2EF02DC7010E94071F0F2EF7EDCF2E20
:1008E000F5E0DF2EF02DF60181938F01B501655FF4
:1008F0007F4FC7010E94071FF8018083B501645F25
:100900007F4FC7010E94071FF6018283DF91CF91BD
:100910001F910F91FF90EF90DF90CF90BF90AF901D
:1009200008951F93CF93DF93EB01182F0E94641A51
:10093000892B09F06EC0FE01EE0FFF1FCE01880F5C
:10094000991F880F991F880F991FE80FF91FE1550C
:10095000FA4F1782168213828081882311F040E0BB
:1009600019C040E0FE01EE0FFF1FCE01880F991F56
:10097000880F991F880F991FE80FF91FED54FA4F40
:10098000208131818091290190912A01281739070E
:1009900008F041E0CE01880F991F880F991F8C0F36
:1009A0009D1F0196AFEAB5E0880F991FFD01E80F82
:1009B000F91F4083CE01880F991F9E01220F331F1C
:1009C000220F331F220F331F820F931FA80FB91F4F
:1009D00014962D913C9115978091290190912A01AF
:1009E0002817390720F0FD0181E0808312C0FE0145
:1009F000EE0FFF1FCE01880F991F880F991F880FD8
:100A0000991FE80FF91FED54FA4FC9010196918320
:100A10008083812F0E94641A019709F07BC0AFEA9E
:100A2000B5E0CE01880F991F9E01220F331F220FC0
:100A3000331F220F331F820F931FFD01E80FF91F91
:100A400015821482118610861182CE01880F991F9B
:100A5000880F991F8C0F9D1F0196880F991FA80F53
:100A6000B91F1C928081882311F440E019C040E036
:100A7000FE01EE0FFF1FCE01880F991F880F991FEF
:100A8000880F991FE80FF91FEB54FA4F208131812D
:100A90008091290190912A012817390708F041E037
:100AA000FE01EE0FFF1FCE01880F991F880F991FBF
:100AB000880F991FE80FF91FE155FA4F43832681EC
:100AC00037818091290190912A012817390780F0F8
:100AD000FE01EE0FFF1FCE01880F991F880F991F8F
:100AE000880F991FE80FF91FE155FA4F10825DC07A
:100AF000FE01EE0FFF1FCE01880F991F880F991F6F
:100B0000880F991FE80FF91FEB54FA4FC90101969E
:100B100091838083FE01EE0FFF1FCE01880F991F86
:100B2000880F991F880F991FE80FF91FE155FA4F99
:100B300080818823D1F1FE01EE0FFF1FCE01880FC7
:100B4000991F880F991F880F991FE80FF91FE95403
:100B5000FA4F8081918101969183808320912B01AE
:100B600030912C018217930789F4FE01EE0FFF1FCD
:100B7000CE01880F991F880F991F880F991FE80FC2
:100B8000F91FE055FA4F81E080830FC0FE01EE0FA0
:100B9000FF1FCE01880F991F880F991F880F991F7B
:100BA000E80FF91FE055FA4F1082DF91CF911F91A6
:100BB00008950F931F9381E00E94641A8C0182E0D4
:100BC0000E94641A0817190751F48091EF0590915B
:100BD000F00501969093F0058093EF0509C0809190
:100BE000EF059091F00501979093F0058093EF0544
:100BF0001F910F9108958DE060E00E94101A8BE024
:100C00000E94D515109228011092270110922601FA
:100C10000E942F196093E8057093E9058093EA0517
:100C20009093EB050895EF92FF920F931F93CF934C
:100C3000DF930E942F197B018C01C0912201D0917A
:100C400023018091E8059091E905A091EA05B09112
:100C5000EB05E81AF90A0A0B1B0B9E0140E050E075
:100C60006091E4057091E5058091E6059091E705B6
:100C70000E94391FE216F3060407150768F181E0A8
:100C80008093280120912601309127018091240131
:100C900090912501AC01C49FC001C59F900DD49FC8
:100CA000900D11248217930739F481E090E090931E
:100CB00027018093260106C0C90101969093270160
:100CC000809326010E942F196093E8057093E9052F
:100CD0008093EA059093EB0580912801882321F108
:100CE0008DE061E00E94101A809126019091270109
:100CF000019761F4209120013091210140E050E002
:100D00008BE068EB71E00E9448160BC02091200137
:100D10003091210140E050E08BE066E071E00E94FC
:100D200048161092280107C08DE060E00E94101A5A
:100D30008BE00E94D515DF91CF911F910F91FF900D
:100D4000EF900895CF92DF92EF92FF920F931F934F
:100D5000CF93DF9380E090E060E070E00E94910428
:100D600083E090E061E070E00E94910485E090E013
:100D700062E070E00E9491048091BB05882349F0F5
:100D800081E08093E3051092F2051092F1058093C3
:100D90001D0180911C01882309F4E3C0813009F012
:100DA0001BC18091E305882321F0813009F0C0C088
:100DB00051C08091EF059091F0051816190664F462
:100DC0008091ED058D3140F48F5F8093ED050E9499
:100DD000060481E080931D018091EF059091F0055C
:100DE000992364F48091ED05882341F0815080932C
:100DF000ED050E94060481E080931D011092F0052C
:100E00001092EF05A7EDB5E0FD01819180931E01E1
:100E100010921F018081809322011092230112966B
:100E20008C91809324011092250120911E01309114
:100E30001F0140E050E060E67AEE80E090E00E9422
:100E40005B1F2093E4053093E5054093E60550933E
:100E5000E7056EC08091EF059091F0051816190610
:100E60006CF48091F205833020F48F5F8093F2055B
:100E700002C01092F20581E080931D018091EF0580
:100E80009091F005992374F48091F205882321F064
:100E900081508093F20503C083E08093F20581E0E6
:100EA00080931D011092F0051092EF058091C50509
:100EB0008823F1F18091F1058130E9F0813018F05B
:100EC0008230B1F526C08091F205882319F0813077
:100ED00079F508C01092F20581E08093F1058093C6
:100EE0001D0126C01092F20582E08093F10581E099
:100EF00080931D011DC08091F2058093EE05109234
:100F0000ED050E9406041092E30581E080931D0127
:100F10000FC08091EE056091ED054091F2050E94B1
:100F200085030E9406041092E30581E080931D0171
:100F30008091B105882359F090E08091EC058823D9
:100F400009F491E09093EC0581E080931D0180917C
:100F5000EC05882319F00E9413063EC00E94FB0591
:100F60003BC020911E0130911F018091EF059091AF
:100F7000F005280F391F30931F0120931E01109296
:100F8000F0051092EF0540E050E060E67AEE80E078
:100F900090E00E945B1F2093E4053093E5054093A9
:100FA000E6055093E7058091B105882341F090E074
:100FB0008091EC05882309F491E09093EC058091F1
:100FC000EC05882319F00E94130602C00E94FB055D
:100FD00081E080931D0105C080911D01882309F4E3
:100FE000F2C180911C01882309F48EC1813009F07F
:100FF000E8C18091E305882321F0813009F0E1C147
:1010000094C004E815E0C8010E944C10C80160E0DB
:1010100070E040E050E00E94610DC80161E070E0C6
:1010200040E050E00E94730D6091EE0570E06F5F4C
:101030007F4FC8014AE050E00E948B150F2EF2E06E
:10104000EF2EF1E0FF2EF02DC801B7010E949E1592
:10105000C8016AED75E00E949E15C80160E071E06C
:101060000E949E156091ED0570E06F5F7F4FC80193
:101070004AE050E00E948B15C801B7010E949E15FE
:10108000C8016DEC75E00E949E15C80164E071E036
:101090000E949E15C80162E00E94670D60911E01CA
:1010A00070911F01C8014AE050E00E943A15C80142
:1010B00067E071E00E949E15C80161E00E94670D23
:1010C0006091240170912501C8014AE050E00E941E
:1010D0003A15C8016EE071E00E949E1560912201F0
:1010E00070912301660F771F660F771FC8014AE0D2
:1010F00050E00E943A15C80160E171E00E949E151F
:101100008091EC05882331F0C8016AE471E00E9407
:10111000541406C084E895E067E171E00E949E15D2
:1011200084E895E00E94F7104CC104E815E0C8017E
:101130000E944C10C80160E070E040E050E00E9466
:10114000610D8091F105813009F473C0813020F088
:10115000823009F0D4C0AAC08091F205882349F4F6
:1011600084E895E060E070E041E050E00E94730D9B
:1011700008C084E895E061E070E040E050E00E9443
:10118000730D84E895E067E371E00E949714809105
:10119000F205813049F484E895E060E070E041E0D8
:1011A00050E00E94730D08C084E895E061E070E0B3
:1011B00040E050E00E94730D84E895E067E271E042
:1011C0000E9497148091F205823049F484E895E0FA
:1011D00060E070E041E050E00E94730D08C084E8D8
:1011E00095E061E070E040E050E00E94730D84E81B
:1011F00095E066E171E00E9497148091F2058330DA
:1012000049F484E895E060E070E041E050E00E943D
:10121000730D08C084E895E061E070E040E050E0C4
:101220000E94730D84E895E065E071E00E949714D8
:1012300066C0C0E0D0E00F2EF4E8EF2EF5E0FF2E00
:10124000F02D0F2EF2E0CF2EF1E0DF2EF02D809169
:10125000F20590E08C179D0741F4C70160E070E053
:1012600041E050E00E94730D07C0C70161E070E0EB
:1012700040E050E00E94730D8C2F0E94CB038C0144
:101280002196C701BE014AE050E00E948B15C701BC
:10129000B6010E949E15C701B8010E94A115C801A0
:1012A0000E94541BC330D10591F629C004E815E013
:1012B000C80162EF70E00E949714C80161E070E01D
:1012C00040E050E00E94730D8091F2050E9493036C
:1012D0007C016091F20570E06F5F7F4FC8014AE0CA
:1012E00050E00E948B15C80162E071E00E949E15DB
:1012F000C801B7010E94A115C7010E94541B84E8D0
:1013000095E00E94F7105DC004E815E0C8010E9456
:101310004C10C80160E070E040E050E00E94610DB8
:10132000C80161E070E040E050E00E94730DC80128
:1013300062E00E94670D60911E0170911F01C8015B
:101340004AE050E00E943A15C80167E071E00E944F
:101350009E15C80161E00E94670D609124017091A3
:101360002501C8014AE050E00E943A15C8016EE02C
:1013700071E00E949E156091220170912301660F19
:10138000771F660F771FC8014AE050E00E943A15A8
:10139000C80160E171E00E949E158091EC058823F0
:1013A00031F0C8016CEE70E00E94541406C084E86D
:1013B00095E067E171E00E949E1584E895E00E9447
:1013C000F71010921D01A895DF91CF911F910F91F9
:1013D000FF90EF90DF90CF9008950F931F9388E1D7
:1013E0000FB6F89480936000109260000FBE82E008
:1013F00062E00E94D11981E062E00E94D11980E090
:1014000062E00E94D11983E062E00E94D11985E078
:1014100062E00E94D1198BE061E00E94D1198DE059
:1014200061E00E94D11984E061E00E94D11980E05E
:1014300069ED75E041E050E00E945E1804E815E0B7
:10144000C80162E04DE321E00E94E511C8010E945D
:101450004C10C80161E00E94670DC80161E070E0B6
:101460000E946D0D2FE088E190E00FB6F894A895EA
:10147000809360000FBE209360000E9406041F91BD
:101480000F910895FC011382128288E495E0918304
:10149000808375836483578346837187608753870E
:1014A0004287158A158614861786168621E0248BB6
:1014B0008FEF9FEF938B828B918B808B268B089580
:1014C0002F923F924F925F926F927F928F929F9254
:1014D000AF92BF92CF92DF92EF92FF920F931F9342
:1014E000DF93CF9300D000D0CDB7DEB74C017C8323
:1014F0006B836A015901FA82E982442455249801D8
:10150000241B350B1AF4309521953F4FC5014B81B3
:101510005C81841B950B1AF4909581959F4F8217DF
:1015200093071CF44424552443944114510451F06E
:101530008C2D9D2DCB80DC809C838B83802F912FE5
:1015400085015C018B819C81A816B90654F48A2D13
:101550009B2DAB80BC809C838B83802F912F860139
:101560006C017801EC18FD0822F4F094E194F10884
:10157000F394C016D10624F022242A94322C03C0FE
:10158000222433242394AB81BC81AA16BB06B4F178
:1015900035016A1A7B0AC3010AF401968C0115957C
:1015A00007954114510471F0D401ED91FC91048030
:1015B000F581E02DC401B6014B815C8129813A811E
:1015C00009950DC0D401ED91FC910480F581E02DC9
:1015D000C4016B817C81A60129813A8109950E198C
:1015E0001F0922F4C20CD31C060D171DEB81FC81D0
:1015F0003196FC83EB83AE16BF069CF60F900F90DE
:101600000F900F90CF91DF911F910F91FF90EF906E
:10161000DF90CF90BF90AF909F908F907F906F9012
:101620005F904F903F902F9008954F925F926F92EE
:101630007F928F929F92AF92BF92CF92DF92EF9262
:10164000FF920F931F936C015B014A01390128013E
:10165000DC01ED91FC910284F385E02D8701099571
:10166000D601ED91FC91A40141505040440D551D0F
:101670000284F385E02DC601B50193010995D601D9
:10168000ED91FC910084F185E02DC601B501A40126
:1016900092010995D601ED91FC910894A108B10839
:1016A000A60CB71C0084F185E02DC601B501A4018C
:1016B000920109951F910F91FF90EF90DF90CF90CD
:1016C000BF90AF909F908F907F906F905F904F9062
:1016D0000895CF92DF92EF92FF920F931F93DC0158
:1016E0006B017801ED91FC918A0101501040020FCD
:1016F000131F0680F781E02D960109951F910F9128
:10170000FF90EF90DF90CF900895CF92DF92EF920D
:10171000FF920F931F93DC016A01C9017801ED91DB
:10172000FC9111979B0121503040280F391F0680F2
:10173000F781E02DCD01860109951F910F91FF9052
:10174000EF90DF90CF9008956F927F928F929F924B
:10175000AF92BF92CF92DF92EF92FF920F931F93BF
:10176000CF93DF936C013A01480157017901E60EEE
:10177000F71E6E157F058CF4EB01D601ED91FC91FF
:101780000084F185E02DC601BE01A301940185010D
:1017900009952196CE15DF0584F3DF91CF911F9136
:1017A0000F91FF90EF90DF90CF90BF90AF909F9000
:1017B0008F907F906F900895EF92FF920F931F93F9
:1017C000FC017B01A081B1812085318502851385D3
:1017D0001E960D90BC91A02D60E070E040E050E0BE
:1017E000FD0109951F910F91FF90EF9008952F92A1
:1017F0003F924F925F926F927F928F929F92AF92A1
:10180000BF92CF92DF92EF92FF920F931F93DF93DD
:10181000CF93CDB7DEB761970FB6F894DEBF0FBE9A
:10182000CDBF3C01E22F1801FB86EA86AC2CDC011F
:1018300018968D919C911997681779070CF0C6C07E
:101840001A968D919C911B97481759070CF0BEC0B2
:101850004C2C55249B0121503040C201880F991F08
:10186000840D951D880F991F280F391F33230CF401
:10187000ADC0CA0101979201220F331F220F331FFF
:10188000220F331F820F931F99230CF49FC085E012
:10189000E89F900111243C832B8358864F827E83DE
:1018A0006D837A8369831986CA014E879F8739853C
:1018B000353009F47FC0EB81FC81E05BFE4F249161
:1018C0007AC0C40195958795282F822E992420FFF0
:1018D00020C081E0A81669F4D301ED91FC91048049
:1018E000F581E02DC3016D817E81A60191010995ED
:1018F00036C0D301ED91FC910684F785E02DC3013C
:101900006C857D854889598992018201710109950B
:1019100026C0EA85FB85E215F30509F1F1E0AF1673
:1019200071F4D301ED91FC910480F581E02DC301A8
:101930006D817E81A6012A853B85099510C0D30162
:10194000ED91FC910684F785E02DC3016C857D85C2
:101950004889598992018201EA84FB840995B394EC
:10196000E889F9892F813885E20FF31FF98BE88B1D
:101970000894C11CD11C38E0B31609F0A2CF8985A8
:101980008F5F8987A981BA81EF81F885AE0FBF1F6C
:10199000BA83A9832D813E812F5F3F4F3E832D83E4
:1019A0008B819C8101969C838B839985963009F06D
:1019B0007ECF0CC020E0A981AC87BA81BD878E851F
:1019C0009F85998B888B6C01BB247FCF61960FB666
:1019D000F894DEBF0FBECDBFCF91DF911F910F9165
:1019E000FF90EF90DF90CF90BF90AF909F908F903F
:1019F0007F906F905F904F903F902F900895CF927F
:101A0000EF92FF920F931F93CF93DF93EC01262F5A
:101A10006A3089F42C8930E0220F331F220F331FE4
:101A2000220F331F8E859F85820F931F9F878E877E
:101A30001D861C863CC06D30D1F16C857D854E8540
:101A40005F8508891989EA88FB88CC880E94F70B92
:101A50008C8926E0829FC00111242C853D85BC0124
:101A6000620F731F7D876C878E89882301F18C89B3
:101A7000482F50E09A01220F331F240F351F220FE9
:101A8000331F88859985821B930B861797077CF4F3
:101A90009A01220F331F220F331F220F331F8E850F
:101AA0009F85820F931F9F878E871D861C8681E0EE
:101AB00090E0DF91CF911F910F91FF90EF90CF9029
:101AC0000895FC0175876487578746870895FC0150
:101AD000662309F461E0648B0895FC01738B628BCB
:101AE000718B608B0895FC01718B608B538B428BE3
:101AF0000895FC0185890895FC01808591850895EC
:101B0000FC0182859385089508950F931F93DC014E
:101B1000F90155968C915597823079F0833001F117
:101B2000813009F0ECC014968D919C911597019726
:101B30009C01241B350BA90146C116968D919C91E1
:101B4000179701979C01241B350BA90114968D91C1
:101B50009C911597861B970BBC016E1B7F0BCFC00A
:101B600016968D919C911797861B970BBC01621B53
:101B7000730B29C114968D919C911597481759079D
:101B80000CF024C1772324F4E60FF71F60E070E027
:101B900016962D913C911797CF01860F971F281706
:101BA00039071CF4F901E61BF70B1E161F060CF093
:101BB0000DC1262F6E2F822F86958695869590E0F3
:101BC0009695982F882797958795835D9E4FDC0182
:101BD000A40FB51F277091F188E0482F421B242FD6
:101BE00030E0F901EB5CFA4FE081641750F4261BFA
:101BF00031098FEF90E002C0959587952A95E2F71D
:101C0000E8230130110539F00130110540F00230B0
:101C1000110571F40AC08C918E2B8C9309C09E2FF4
:101C200090958C9189238C9303C08C918E278C93F3
:101C3000641708F4CBC0641BA058BF4F6830E0F1B4
:101C400002301105D9F4FD01962F808180958083A3
:101C5000E058FF4F98509830C0F7862F8850682F73
:101C6000677086958695869590E001969695982F53
:101C7000882797958795A80FB91F1EC001301105B9
:101C800011F090E001C09FEFFD01862F9083E05896
:101C9000FF4F88508830D0F7862F8850682F6770A4
:101CA00086958695869590E001969695982F88273B
:101CB00097958795A80FB91F662309F487C0E62F6B
:101CC000F0E0E770F070E35DFA4F2081013011051C
:101CD00041F00130110548F00230110509F076C0DD
:101CE0000AC08C91822B8C9371C0922F90958C910D
:101CF00089238C936BC08C9182278C9367C055236A
:101D00000CF464C016968D919C911797481759074B
:101D10000CF05CC0772324F4E60FF71F60E070E05E
:101D200014962D913C911597CF01860F971F281778
:101D300039071CF4F901E61BF70B1E161F060CF001
:101D400045C0CA0155230CF407969595879595953E
:101D50008795959587959695982F88279795879538
:101D6000835D9E4FDC01A60FB71F9A01277030706C
:101D700081E090E002C0880F991F2A95E2F7482F72
:101D80000130110541F00130110568F002301105F4
:101D9000E9F49F0111C09F018C91842B8D932150F8
:101DA0003040D1F713C040959F018C9184238D93CF
:101DB00021503040D1F70AC08C9184278D93215057
:101DC0003040D1F703C055230CF0D4CE1F910F91B2
:101DD00008950F931F93DC01F90155968C91559747
:101DE000823079F0833001F1813009F089C0149696
:101DF0008D919C911597841B950BAC01421B530B45
:101E000045C114968D919C91159701979C01261BB5
:101E1000370BB90116968D919C911797841B950BE2
:101E2000AC014E1B5F0B6CC016968D919C91179761
:101E300001979C01261B370BB90128C116968D917D
:101E40009C911797681779070CF023C1552324F448
:101E5000E40FF51F40E050E014962D913C9115974A
:101E6000CF01840F951F281739071CF4F901E41BD3
:101E7000F50B1E161F060CF00CC1CB0177230CF4DA
:101E800007969595879595958795959587959695B8
:101E9000982F882797958795835D9E4FDC01A40F27
:101EA000B51F9B012770307081E090E002C0880F61
:101EB000991F2A95E2F7682F0130110549F001308A
:101EC000110570F00230110509F0E3C09F0111C047
:101ED0009F018C91862B8D9321503040D1F7D9C032
:101EE00060959F018C9186238D9321503040D1F7CE
:101EF000D0C08C9186278D9321503040D1F7C9C036
:101F000077230CF4C6C014968D919C911597681791
:101F100079070CF0BEC0552324F4E40FF51F40E010
:101F200050E016962D913C911797CF01840F951F85
:101F3000281739071CF4F901E41BF50B1E161F06C0
:101F40000CF0A7C0242F4E2F822F8695869586955C
:101F500090E09695982F882797958795835D9E4F5B
:101F6000DC01A60FB71F277091F188E0582F521B94
:101F7000252F30E0F901EB5CFA4FE081451750F472
:101F8000241B31098FEF90E002C0959587952A9523
:101F9000E2F7E8230130110539F00130110540F076
:101FA0000230110571F40AC08C918E2B8C9309C0FC
:101FB0009E2F90958C9189238C9303C08C918E27B2
:101FC0008C93451708F465C0451BA058BF4F483097
:101FD000E0F102301105D9F4FD01942F8081809544
:101FE0008083E058FF4F98509830C0F7842F885076
:101FF000482F477086958695869590E00196969530
:10200000982F882797958795A80FB91F1EC0013074
:10201000110511F090E001C09FEFFD01842F908326
:10202000E058FF4F88508830D0F7842F8850482FD1
:10203000477086958695869590E001969695982F9F
:10204000882797958795A80FB91F442311F1E42F8E
:10205000F0E0E770F070E35DFA4F20810130110588
:1020600039F00130110540F00230110591F40AC039
:102070008C91822B8C930DC0922F90958C918923FB
:102080008C9307C08C9182278C9303C077230CF02C
:10209000D5CE1F910F91089580E094E0EDE2F1E03C
:1020A000DF019C011D9221503040E1F70895FF921D
:1020B0000F931F93DC01F62E59968C9159978F3F01
:1020C00009F472C09396ED91FC9194978081999652
:1020D0009C919997892B80839596ED91FC91969789
:1020E00090819A968C919A97809589238083939674
:1020F000ED91FC919497908199968C919997809508
:10210000892380835E968C915E97882341F06EBD13
:10211000EDE4F0E080818823ECF78EB53BC040E829
:1021200020E030E070E09196ED91FC9192979081E3
:1021300098968C919897809589238083842F90E03E
:1021400086239723892B59F05F96ED91FC91909708
:10215000808197969C919797892B80830BC05F967F
:10216000ED91FC919097908197968C91979780959F
:10217000892380839196ED91FC9192978081989626
:102180009C919897892B808346952F5F3F4F2830ED
:10219000310549F69396ED91FC919497808199963B
:1021A0009C91892B808315C00BE516E057966C91A6
:1021B000772767FD7095C8010E94141CC80160E074
:1021C0000E94961CC8016F2D0E94961CC8010E9497
:1021D000D91C1F910F91FF900895662321F067EAA3
:1021E0000E945710089566EA0E94571008957F9242
:1021F0008F929F92AF92BF92CF92DF92EF92FF9217
:102200000F931F93CF93DF937C0161E20E945710DD
:10221000C70160E00E945710C7016FE70E94571086
:10222000C70162E20E945710C70160E00E94571088
:10223000C70167E00E945710D70159968C915997B2
:102240008F3F09F47BC09396ED91FC919497808128
:1022500099969C919997892B80839596ED91FC9105
:10226000969780819A969C919A97892B80839396D2
:10227000ED91FC919497908199968C91809589230A
:102280008083ADE2B1E050E8AA24BB240F2EFEE427
:10229000CF2EDD24F02D0F2EFDE48F2E9924F02D6E
:1022A0000DE215E09C91E7018E8D882349F0F6013F
:1022B0009083E40188818823E4F7F60180812EC0B1
:1022C000452F9501692F70E0E701E9A1FAA19081FE
:1022D00088A5809589238083842F90E08623972387
:1022E000892B39F0EF8DF8A180819FA1892B808304
:1022F00008C0E701EF8DF8A190818FA18095892317
:102300008083E701E9A1FAA1808198A5892B8083C8
:1023100046952F5F3F4F28303105B1F61196A01733
:10232000B10709F0BFCFD7019396ED91FC91949737
:10233000808199969C91892B808339C0E8EBF0E0ED
:1023400070808CE08083AA24BB240F2EFBE5CF2E67
:10235000F6E0DF2EF02D0F2EFDE28F2EF1E09F2E06
:10236000F02D00E0E7016F89772767FD7095C601C2
:102370000E94141CC60160E40E94961CE401CA0D70
:10238000DB1D102FC60169910E94961C1F5F103142
:10239000C9F7E0E1F0E0AE0EBF1EC6010E94D91CF5
:1023A000F0E0AF16F4E0BF06E9F67092B800DF91F6
:1023B000CF911F910F91FF90EF90DF90CF90BF9042
:1023C000AF909F908F907F9008950F931F93CF931E
:1023D000DF93EC01062F122F688F4F8B898D8F3F73
:1023E00009F487C08B8D61E00E94D1198D8D61E069
:1023F0000E94D1192D8D332727FD3095AAE6B6E02E
:10240000FD01E20FF31FE4918E2F90E0880F991FDA
:1024100046E556E0FA01E80FF91F859194919CA3D7
:102420008BA36EE776E0FB01E20FF31FE491E9A7CF
:102430002B8D332727FD3095FD01E20FF31F84918B
:1024400090E0880F991FFA01E80FF91F8591949188
:102450009EA38DA3FB01E20FF31FE491EAA78E8DEB
:10246000882309F040C0898D61E00E94D1198A8DCE
:1024700061E00E94D1192A8D332727FD3095AAE605
:10248000B6E0FD01E20FF31FE4918E2F90E0880F7C
:10249000991F46E556E0FA01E80FF91F85919491DE
:1024A0009AA389A36EE776E0FB01E20FF31FE491A4
:1024B000E8A7298D332727FD3095FD01E20FF31F93
:1024C000849190E0880F991FFA01E80FF91F859118
:1024D000949198A38F8FFB01E20FF31FE491EFA378
:1024E0008E8D882351F00E94FD1B84E00E94EC1B1E
:1024F00004C08BE596E00E94DD1C1123E1F08C8D79
:1025000061E00E94D1198C8D61E00E94101A61E097
:1025100070E080E090E00E943D198C8D60E00E94A8
:10252000101A6AE070E080E090E00E943D198C8D06
:1025300061E00E94101ACE016EEA0E945710CE018F
:1025400065ED0E945710CE0160E80E945710CE0141
:1025500068EA0E945710CE016FE30E945710CE0127
:1025600063ED0E945710CE0160E00E945710CE012B
:1025700060E40E945710CE016DE80E9457100130B0
:1025800069F5CE0160E10E945710CE0160E20E9421
:102590005710CE0160E00E945710CE0161EA0E9400
:1025A0005710CE0168EC0E945710CE016AED0E94D0
:1025B0005710CE0162E10E945710CE0161E80E94DF
:1025C0005710CE016FE90E945710CE0169ED0E94AD
:1025D0005710CE0162E20E9457102CC0CE0164E178
:1025E0000E945710CE0160E20E945710CE0160E0B9
:1025F0000E945710CE0161EA0E945710CE0168EC8C
:102600000E945710CE016AED0E945710CE0162E180
:102610000E945710CE0161E80E945710CE016FEC66
:102620000E945710CE0169ED0E945710CE0161EF54
:102630000E945710CE016BED0E945710CE0160E44E
:102640000E945710CE0164EA0E945710CE0166EA3C
:102650000E945710CE016FEA0E945710DF91CF9170
:102660001F910F910895FF920F931F938C01F62EE7
:1026700060E870E040E450E00E94420A80E695E0A5
:10268000F801918380838FEF818F858F838F828F75
:10269000F48E1F910F91FF900895AF92BF92CF9249
:1026A000DF92EF92FF920F931F93CF93DF93EC0192
:1026B0007B018A01690177230CF4B1C09D2F0E9430
:1026C0007C0DE816F9060CF0AAC011230CF4A7C083
:1026D0008C2F9D2F0E94800D081719070CF09FC0AA
:1026E00090C08C819D810197801B910B87017C019B
:1026F00016C08C819D8101979C012E193F0979019B
:102700008E819F8101979C01201B310B890107C09D
:102710008E819F8101978E199F0978018C0131E08C
:10272000C316D10451F081E0C816D10438F122E07B
:10273000C216D10409F073C043C0F80111230CF490
:102740003796F595E795F595E795F595E795F6951F
:10275000FE2FEE27F795E795EE0DFF1DE35DFE4F8B
:1027600098012770307081E090E002C0880F991FB7
:102770002A95E2F72081282B208351C0F8011123EC
:102780000CF43796F595E795F595E795F595E7956A
:10279000F695FE2FEE27F795E795EE0DFF1DE35D0D
:1027A000FE4F98012770307081E090E002C0880FE2
:1027B000991F2A95E2F780952081282320832FC036
:1027C000F80111230CF43796F595E795F595E79503
:1027D000F595E795F695FE2FEE27F795E795EE0D23
:1027E000FF1DE35DFE4F98012770307081E090E09F
:1027F00002C0880F991F2A95E2F72081282720839D
:102800000EC08C2F9D2F0E94790D823009F471CF5C
:10281000833009F47DCF813009F081CF62CFDF9121
:10282000CF911F910F91FF90EF90DF90CF90BF90CD
:10283000AF900895CF93DF930E9496190E94ED09FF
:10284000C0E0D0E00E94A2062097E1F30E940000C1
:10285000F9CF0895CF92DF92EF92FF920F931F93DB
:10286000CF93DF937C016B018A01C0E0D0E00FC001
:10287000D6016D916D01D701ED91FC910190F08130
:10288000E02DC7010995C80FD91F0150104001154F
:10289000110571F7CE01DF91CF911F910F91FF903C
:1028A000EF90DF90CF900895EF92FF920F931F93D8
:1028B000CF93DF937C018B01C0E0D0E0F8010F5F84
:1028C0001F4F6491662359F0D701ED91FC9101905F
:1028D000F081E02DC7010995C80FD91FEFCFCE01B8
:1028E000DF91CF911F910F91FF90EF900895EF929C
:1028F000FF920F931F938C01DC01ED91FC910190ED
:10290000F081E02D6DE009957C01D801ED91FC91FD
:102910000190F081E02DC8016AE009959C012E0D1F
:102920003F1DC9011F910F91FF90EF900895EF9205
:10293000FF920F931F937C010E9454148C01C701D6
:102940000E9477149C01200F311FC9011F910F9124
:10295000FF90EF900895CF93DF93EC01611571051F
:1029600019F420E030E00FC0DB010D900020E9F702
:102970001197A61BB70BE881F9810280F381E02D46
:10298000AD0109959C01C901DF91CF9108954F9246
:102990005F927F928F929F92AF92BF92CF92DF927F
:1029A000EF92FF920F931F93DF93CF93CDB7DEB7D4
:1029B000A1970FB6F894DEBF0FBECDBF2C01742EC9
:1029C000CB01223008F42AE019A231E2C32ED12C27
:1029D000CC0EDD1E822E9924AA24BB24672D752FD0
:1029E000A50194010E94391F79018A01C801B7012C
:1029F000A50194010E941A1F472D461B0894C10887
:102A0000D1084A3014F4405D01C0495CF6014083AE
:102A1000E114F1040105110521F07E2C5F2DC801A0
:102A2000DDCFC201B6010E94AB14A1960FB6F89497
:102A3000DEBF0FBECDBFCF91DF911F910F91FF90F1
:102A4000EF90DF90CF90BF90AF909F908F907F904E
:102A50005F904F900895DC012115310541F4ED910F
:102A6000FC910190F081E02D642F099508950E945A
:102A7000C7140895EF92FF920F931F939A017B0161
:102A800000E010E0B801A7010E942B151F910F91E3
:102A9000FF90EF900895CF92DF92EF92FF920F9305
:102AA0001F93CF93DF93EC016A017B012115310560
:102AB00041F4E881F9810190F081E02D642F0995BE
:102AC0001FC02A303105D1F477FF17C0E881F981A2
:102AD0000190F081E02D6DE209958C014427552786
:102AE000BA014C195D096E097F09CE012AE00E94E6
:102AF000C7149801280F391F04C02AE00E94C71488
:102B00009C01C901DF91CF911F910F91FF90EF9030
:102B1000DF90CF900895EF92FF920F931F937B0168
:102B20009A010027F7FC0095102FB801A7010E9419
:102B30004B151F910F91FF90EF9008950E94AB14D9
:102B40000895EF92FF920F931F937C010E94AB14A4
:102B50008C01C7010E947714080F191FC8011F912B
:102B60000F91FF90EF900895813041F0813018F07F
:102B70008230D1F409C010926E00089580916F00E8
:102B80008D7F80936F000895809170008D7F80937A
:102B9000700081E08093B0008091B100887F8460F4
:102BA0008093B1001092B30008951F93182F809165
:102BB0003D05811711F09FEF06C0EBE4F6E094911C
:102BC0008FEF80933D05892F0E94B415812F60E01F
:102BD0000E94101A1F9108951F920F920FB60F9224
:102BE00011242F933F934F935F936F937F938F9312
:102BF0009F93AF93BF93EF93FF93809101069091C2
:102C00000206A0910306B09104060097A105B10544
:102C100051F1E0910506F09106068081909107063A
:102C2000892780838091010690910206A091030676
:102C3000B0910406181619061A061B06C4F48091F2
:102C4000010690910206A0910306B0910406019737
:102C5000A109B1098093010690930206A09303068F
:102C6000B093040604C080913D050E94D515FF91E4
:102C7000EF91BF91AF919F918F917F916F915F91F4
:102C80004F913F912F910F900FBE0F901F9018956D
:102C90002F923F925F926F927F928F929F92AF920C
:102CA000BF92CF92DF92EF92FF920F931F93DF9329
:102CB000CF9300D000D0CDB7DEB7A82F1B0129835A
:102CC0003A834B835C8380913D058A1721F4EBE4C2
:102CD000F6E0549082C08F3F09F0DAC1A0933D0521
:102CE000EBE4F6E054902FEF521609F4D1C181E0E5
:102CF000581639F192E0591609F449C0552009F0E7
:102D00006CC014BC15BC84B5826084BD85B581607F
:102D100085BD2A2F30E0F901E659F94FE491F0E042
:102D2000EE0FFF1FEA5AF94F859194919093F805A1
:102D30008093F7052258394FF90184918093F90562
:102D40004EC01092800010928100809181008860B6
:102D500080938100809181008160809381002A2F7F
:102D600030E0F901E659F94FE491F0E0EE0FFF1F72
:102D7000EA5AF94F859194919093FF058093FE054F
:102D80002258394FF90184918093000628C010928F
:102D9000B0001092B1008091B00082608093B000CA
:102DA0008091B10081608093B1002A2F30E0F90159
:102DB000E659F94FE491F0E0EE0FFF1FEA5AF94FA0
:102DC0008591949190930606809305062258394F79
:102DD000F90184918093070602C057FC59C18A2FDC
:102DE00061E00E94D119552021F0F2E05F1609F050
:102DF000BEC031018824992460E079E08DE390E041
:102E0000A40193010E945B1F59016A0186017501AB
:102E10000894E108F108010911092FEFE216F10405
:102E20000105110509F008F499C060E271EA87E034
:102E300090E0A40193010E945B1F79018A0108942C
:102E4000E108F1080109110982E05816C1F49FEF69
:102E5000E916F1040105110509F008F484C068E4DD
:102E600078EE81E090E0A40193010E945B1F79015C
:102E70008A010894E108F1080109110983E0AFEF24
:102E8000EA16F1040105110509F008F468C064E2CE
:102E900074EF80E090E0A40193010E945B1F790130
:102EA0008A010894E108F10801091109552011F47B
:102EB00083E01DC0B2E05B1611F084E018C0EFEFB4
:102EC000EE16F1040105110509F008F4DFC062E116
:102ED0007AE780E090E0A40193010E945B1F7901F2
:102EE0008A010894E108F1080109110985E0FFEF62
:102EF000EF16F1040105110591F188F169E07DE318
:102F000080E090E0A40193010E945B1F79018A0197
:102F10000894E108F10801091109552011F086E033
:102F200001C084E02FEFE216F10401051105B9F0AC
:102F3000B0F0C601B50120E034E040E050E00E946E
:102F40005B1F79018A010894E108F1080109110960
:102F5000552011F087E008C085E003C081E05520CE
:102F600019F485BD3AC082E08093B10036C05101AA
:102F7000CC24DD2460E079E08DE390E0A6019501AA
:102F80000E945B1F79018A010894E108F108010998
:102F9000110980E0E81680E0F80681E0080780E08B
:102FA000180710F491E010C064E274EF80E090E044
:102FB000A60195010E945B1F79018A010894E1082E
:102FC000F1080109110993E0A1E05A1631F480914A
:102FD0008100887F982B9093810089819A81AB81B1
:102FE000BC810097A105B10529F48FEF9FEFAFEFEA
:102FF000BFEF13C0220C331CB10180E090E02981A7
:103000003A814B815C810E941A1F28EE33E040E038
:1030100050E00E94391FC901DA01E1E05E16A1F01B
:10302000F2E05F1619F1552099F5E7BC8093F3059E
:103030009093F405A093F505B093F60580916E008A
:10304000826080936E0024C0F0928900E092880034
:103050008093FA059093FB05A093FC05B093FD05C2
:1030600080916F00826080936F0012C0E092B30085
:103070008093010690930206A0930306B093040682
:103080008091700082608093700002C084E06CCFF9
:103090000F900F900F900F90CF91DF911F910F9194
:1030A000FF90EF90DF90CF90BF90AF909F908F9068
:1030B0007F906F905F903F902F900895823000F541
:1030C000E82FF0E0EE0FFF1FE85FF94F7183608398
:1030D000882319F08130A1F408C0809169008C7FA9
:1030E000842B80936900E89A089580916900440FC9
:1030F000551F440F551F837F842B80936900E99AE5
:1031000008951F920F920FB60F9211242F933F93A1
:103110004F935F936F937F938F939F93AF93BF93DF
:10312000EF93FF938091080690910906892B29F06F
:10313000E0910806F09109060995FF91EF91BF9182
:10314000AF919F918F917F916F915F914F913F913F
:103150002F910F900FBE0F901F9018951F920F92F6
:103160000FB60F9211242F933F934F935F936F935A
:103170007F938F939F93AF93BF93EF93FF93809130
:103180000A0690910B06892B29F0E0910A06F0912E
:103190000B060995FF91EF91BF91AF919F918F9190
:1031A0007F916F915F914F913F912F910F900FBE43
:1031B0000F901F9018951F920F920FB60F92112427
:1031C0002F933F934F935F936F937F938F939F932F
:1031D000AF93BF93209110063091110640911206D3
:1031E0005091130670911406DA01C9010296A11DCF
:1031F000B11D672F6A5F6D3730F06D57DA01C90175
:103200000396A11DB11D6093140680931006909340
:103210001106A0931206B093130680910C069091AC
:103220000D06A0910E06B0910F060196A11DB11DCD
:1032300080930C0690930D06A0930E06B0930F0694
:10324000BF91AF919F918F917F916F915F914F91BE
:103250003F912F910F900FBE0F901F9018958FB731
:10326000F894209110063091110640911206509169
:1032700013068FBFB901CA0108959B01AC017FB746
:10328000F89480910C0690910D06A0910E06B091D5
:103290000F0666B5A89B05C06F3F19F00196A11DEA
:1032A000B11D7FBFBA2FA92F982F8827860F911D98
:1032B000A11DB11D63E0880F991FAA1FBB1F6A954E
:1032C000D1F7BC012DC0FFB7F89480910C06909106
:1032D0000D06A0910E06B0910F06E6B5A89B05C09D
:1032E000EF3F19F00196A11DB11DFFBFBA2FA92F05
:1032F000982F88278E0F911DA11DB11DE3E0880F27
:10330000991FAA1FBB1FEA95D1F7861B970B885EF2
:103310009340C8F2215030404040504068517C4FAB
:10332000211531054105510571F60895789484B54C
:10333000826084BD84B5816084BD85B5826085BDB1
:1033400085B5816085BDEEE6F0E080818160808397
:10335000E1E8F0E01082808182608083808181607A
:103360008083E0E8F0E0808181608083E1EBF0E041
:10337000808184608083E0EBF0E0808181608083E5
:10338000EAE7F0E0808184608083808182608083CE
:103390008081816080838081806880831092C100F9
:1033A0000895CF93DF93482F50E0CA018258994F78
:1033B000FC0134914659594FFA018491882369F1EF
:1033C00090E0880F991FFC01E45BF94FA591B4913F
:1033D000FC01EA5AF94FC591D491662351F42FB7F5
:1033E000F8948C91932F909589238C9388818923CD
:1033F0000BC0623061F42FB7F8948C91932F9095A5
:1034000089238C938881832B88832FBF06C09FB725
:10341000F8948C91832B8C939FBFDF91CF9108956B
:10342000482F50E0CA018E56994FFC012491CA01E1
:103430008258994FFC0194914659594FFA013491A1
:10344000332309F440C0222351F1233071F024309A
:1034500028F42130A1F0223011F514C02630B1F04B
:103460002730C1F02430D9F404C0809180008F77D8
:1034700003C0809180008F7D8093800010C084B550
:103480008F7702C084B58F7D84BD09C08091B00064
:103490008F7703C08091B0008F7D8093B000E32FC1
:1034A000F0E0EE0FFF1FEA5AF94FA591B4912FB744
:1034B000F894662321F48C919095892302C08C9115
:1034C000892B8C932FBF0895682F70E0CB018E5607
:1034D000994FFC012491CB018258994FFC014491F2
:1034E0006659794FFB019491992319F420E030E05B
:1034F0003CC0222351F1233071F0243028F42130D4
:10350000A1F0223011F514C02630B1F02730C1F0FF
:103510002430D9F404C0809180008F7703C080915B
:1035200080008F7D8093800010C084B58F7702C0AB
:1035300084B58F7D84BD09C08091B0008F7703C0B2
:103540008091B0008F7D8093B000892F90E0880F2C
:10355000991F805A994FFC01A591B4918C9120E05C
:1035600030E0842311F021E030E0C90108950F9389
:103570001F93CF93DF93BC018230910510F462E07A
:1035800070E0E091D806F091D90640E050E0A0E06C
:10359000B0E024C08081918186179707D0F086170C
:1035A000970771F482819381109729F013969C9369
:1035B0008E9312972CC09093D9068093D80627C07B
:1035C0004115510519F08417950718F48D01AC01C8
:1035D000EF01DF01828193819C01F9013097D1F6DF
:1035E00041155105F9F0CA01861B970B84309105EE
:1035F00080F48A819B810115110521F0F8019383E4
:10360000828304C09093D9068093D806FE01329637
:1036100045C0FE01E80FF91F6193719302979983EA
:1036200088833CC08091D6069091D706892B41F4BF
:1036300080914005909141059093D7068093D606DE
:1036400040914205509143054115510541F44DB754
:103650005EB780913E0590913F05481B590B209124
:10366000D6063091D70624173507B0F4CA01821B5D
:10367000930B8617970780F0AB014E5F5F4F84175F
:10368000950750F0420F531F5093D7064093D6062C
:10369000F9016193719302C0E0E0F0E0CF01DF91A6
:1036A000CF911F910F910895CF93DF939C010097C5
:1036B00009F48FC0EC0122971B821A826091D80610
:1036C0007091D9066115710581F488819981820F05
:1036D000931F2091D6063091D7062817390739F560
:1036E000D093D706C093D60674C0DB0140E050E00B
:1036F000AC17BD0708F1BB83AA83FE01219131916C
:10370000E20FF31FAE17BF0779F48D919C911197CB
:10371000280F391F2E5F3F4F3983288312968D91D2
:103720009C9113979B838A834115510571F4D09323
:10373000D906C093D8064DC012968D919C911397CF
:10374000AD01009711F0DC01D3CFDA011396DC93C1
:10375000CE931297FA0121913191E20FF31FCE1708
:10376000DF0769F488819981280F391F2E5F3F4F49
:10377000FA01318320838A819B8193838283E0E0F5
:10378000F0E0DB0112968D919C911397009719F050
:10379000BC01FD01F6CFAB014E5F5F4FDB018D91A8
:1037A0009C91840F951F2091D6063091D70628173B
:1037B000390779F4309729F41092D9061092D80677
:1037C00002C013821282425050405093D706409359
:1037D000D606DF91CF9108952CB5382F33702C7F0A
:1037E000322B3CBD2DB590E09595879595958795A5
:1037F00081702E7F822B8DBD08958AE061E00E944A
:10380000101A8AE061E00E94D1198CB580618CBDEC
:103810008CB580648CBD8DE061E00E94D1198BE095
:1038200061E00E94D119089581E080935A06609367
:1038300037061092580610925906089520913606C0
:1038400030E080913506281B3109C9010895409167
:10385000350680913606481718F02FEF3FEF0AC063
:10386000E42FF0E0EB5EF94F8081282F30E04F5FCE
:1038700040933506C9010895E091350680913606DA
:10388000E81718F0EFEFFFEF06C0F0E0EB5EF94F3E
:103890008081E82FF0E0CF010895089510925E0630
:1038A00010925D0688EE93E0A0E0B0E080935F06A2
:1038B00090936006A0936106B093620688E795E056
:1038C00090935C0680935B060895CF92DF92EF920F
:1038D000FF920F931F93CF93DF937C016B018A01BB
:1038E00080915A068823A1F0C0E0D0E00DC0D70136
:1038F000ED91FC91D601AC0FBD1F0190F081E02D40
:10390000C7016C9109952196C017D10780F304C0B7
:10391000CB01642F0E943D1DC801DF91CF911F9103
:103920000F91FF90EF90DF90CF900895DF93CF93AA
:103930000F92CDB7DEB7FC01698380915A068823C8
:10394000C9F080915906803238F081E090E093838D
:10395000828320E030E015C080915806E82FF0E027
:10396000E85CF94F998190838F5F8093580680932C
:10397000590605C0CE01019661E00E943D1D21E07F
:1039800030E0C9010F90CF91DF9108950F93062F7A
:103990008091370668E376E04091590621E00E9465
:1039A000E81C109258061092590610925A060F9170
:1039B000089561E00E94C61C089510923506109289
:1039C000360610925806109259060E94E91E089574
:1039D0000F931F93582F122F413210F081E04AC0ED
:1039E000809167068823E1F782E080936706009361
:1039F00069068FEF8093D40610928F06409390064D
:103A0000AFE6B6E0FB0102C081918D938E2F861B3D
:103A10008417D0F31092680680916806550F852BA5
:103A20008093680680916A06813041F410926A069C
:103A3000809168068093BB0085EC01C085EE809381
:103A4000BC00112321F0809167068230E1F3809160
:103A5000D4068F3F11F480E00DC08091D4068032EF
:103A600011F482E007C08091D406803311F084E025
:103A700001C083E01F910F910895482F613210F02B
:103A800081E0089580916706843011F082E0089506
:103A90006093B206A1E9B6E0842F9C01F90102C04F
:103AA00081918D938E2F841B8617D0F380E008952B
:103AB0001F920F920FB60F9211242F933F934F93A3
:103AC0005F936F937F938F939F93AF93BF93EF9386
:103AD000FF938091B90090E0887F907080369105C7
:103AE00009F4F2C081369105CCF58832910509F4CC
:103AF0007BC089329105B4F48031910509F46FC01F
:103B0000813191053CF4009709F447C1089709F009
:103B10004FC165C08831910509F466C0809709F0EE
:103B200047C182C08034910509F4A4C08134910555
:103B300044F48033910509F482C0C89709F038C174
:103B400089C08035910509F489C08835910509F44B
:103B500096C08834910509F02BC1AEC08839910513
:103B600009F413C189399105ECF48837910509F4FA
:103B7000ABC0893791054CF48836910509F4A4C08F
:103B80008037910509F014C19FC08838910509F468
:103B9000FCC08039910509F49DC08038910509F079
:103BA00007C198C0803B910509F4C6C0813B9105CF
:103BB0004CF4803A910509F49FC0883A910509F0C8
:103BC000F7C0BAC0803C910509F4E3C0883C910578
:103BD00009F4DFC0883B910509F0EAC0C2C08091BA
:103BE00068068093BB00CFC090918F0680919006AD
:103BF000981768F490918F06E92FF0E0E159F94F9A
:103C000080818093BB009F5F90938F06BCC08091A2
:103C10006906882309F44BC085ED8093BC00809130
:103C2000BC0084FDFCCFC2C080E28093D40685ED49
:103C30008093BC008091BC0084FDFCCFB7C080E3C2
:103C40008093D40685ED8093BC008091BC0084FDF8
:103C5000FCCFACC088E38093D4069BC080918F06D4
:103C60009091BB00E82FF0E0E159F94F90838F5F0E
:103C700080938F0690918F068091900682C08091EC
:103C80008F069091BB00E82FF0E0E159F94F908347
:103C90008F5F80938F0680916906882341F085EDC0
:103CA0008093BC008091BC0084FDFCCF7FC081E08C
:103CB00080936A0684EA6EC085ED8093BC00809193
:103CC000BC0084FDFCCF72C083E080936706109235
:103CD000D30659C08091D306803208F056C0809137
:103CE000D3069091BB00E82FF0E0ED54F94F90839C
:103CF0008F5F8093D30647C08091D306803230F423
:103D0000E091D306F0E0ED54F94F108285ED8093F9
:103D1000BC008091BC0084FDFCCF109267066091CE
:103D2000D306E0916D06F0916E0683EB96E070E0AD
:103D300009951092D3062DC084E0809367061092F7
:103D4000B1061092B206E0916B06F0916C060995EF
:103D50008091B206882329F481E08093B206109204
:103D600091069091B106E92FF0E0EF56F94F80816E
:103D70008093BB009F5F9093B1069091B1068091B4
:103D8000B206981710F485EC01C085E88093BC005A
:103D90000FC085EC8093BC0009C01092D40685ED5D
:103DA0008093BC008091BC0084FDFCCF109267061C
:103DB000FF91EF91BF91AF919F918F917F916F9103
:103DC0005F914F913F912F910F900FBE0F901F90D9
:103DD00018951092670681E08093690610926A0632
:103DE00082E161E00E94101A83E161E00E94101AF2
:103DF000E9EBF0E080818E7F808380818D7F8083FE
:103E000080E28093B80085E48093BC000895F9991E
:103E1000FECF72BD61BDF89A80B50895F999FECFC5
:103E20001FBA72BD61BD40BD0FB6F894FA9AF99AF7
:103E30000FBE0895629FD001739FF001829FE00D35
:103E4000F11D649FE00DF11D929FF00D839FF00D19
:103E5000749FF00D659FF00D9927729FB00DE11DC5
:103E6000F91F639FB00DE11DF91FBD01CF011124A2
:103E70000895A1E21A2EAA1BBB1BFD010DC0AA1FAB
:103E8000BB1FEE1FFF1FA217B307E407F50720F0C3
:103E9000A21BB30BE40BF50B661F771F881F991F3E
:103EA0001A9469F760957095809590959B01AC0187
:103EB000BD01CF01089597FB092E05260ED057FDB1
:103EC00004D0D7DF0AD0001C38F4509540953095C7
:103ED00021953F4F4F4F5F4F0895F6F7909580958E
:103EE000709561957F4F8F4F9F4F0895EE0FFF1F85
:0C3EF0000590F491E02D0994F894FFCFA8
:103EFC000A002E000A0A002042504D0A0A002F0028
:103F0C002020202020200053544F50000101640039
:103F1C000A000100040001000102003C0000000046
:103F2C000000000000000000000000000000000085
:103F3C000000000000000000000000000000000075
:103F4C000000000000000000000000000000000065
:103F5C0000000000000000000000000080808000D5
:103F6C000000000000000000000000000000808045
:103F7C00C0C00000000000000000000000000000B5
:103F8C000000000000000000000000000000000025
:103F9C000000000000000000000000000000000015
:103FAC000000000000000000000000000000000005
:103FBC000080C0E0F0F8FCF8E00000000000000019
:103FCC000000000000000000000080808080800065
:103FDC00808000000000808080808000FFFFFF0058
:103FEC000000008080808000008080000080FFFF47
:103FFC0080800080800080808080008080000000B5
:10400C000000808000008C8E84000080F8F8F8801E
:10401C0000000000000000000000000000F0F0F0C4
:10402C00F0F0F0F0F0F0F0F0F0E0E0C08000E0FC38
:10403C00FEFFFFFF7FFFFFFFFFFF000000000000FF
:10404C000000000000000000FEFFC7010101018319
:10405C00FFFF00007CFEC70101010183FFFFFF0091
:10406C0038FEC78301010183C7FFFF000001FFFF7A
:10407C00010100FFFF0701010100007FFF8000002C
:10408C0000FFFF7F0000FFFFFF000001FFFFFF01AB
:10409C0000000000000000000000000000030F3FC3
:1040AC007F7FFFFFFFFFFFFFFFE7C7C78F8F9FBF1C
:1040BC00FFFFC3C0F0FFFFFFFFFFFCFCFCFCFCFCA0
:1040CC00FCFCF8F8F0F0E0C000010303030303016B
:1040DC0003030000000001030303030101030100BB
:1040EC0000000103030303010103030000000303A9
:1040FC0000000003030000000000000001030303A4
:10410C000303010000000103010000000303010090
:10411C000000000000000000000000000000000093
:10412C0080C0E0F0F9FFFFFFFFFF3F1F0F87C7F7CD
:10413C00FFFF1F1F3DFCF8F8F8F87C7DFFFFFFFF29
:10414C00FFFFFFFF7F3F0F07003030000000000033
:10415C000000000000000000000000000000000053
:10416C0000FEFEFC0000000000000000000000004B
:10417C0000000000000000000000E0C00000000093
:10418C0000000000000000303000000000000000C3
:10419C000000000000000000000000000000C0FE55
:1041AC00FFFFFFFFFFFFFFFFFF7F7F3F1F0F071F7B
:1041BC007FFFFFF8F8FFFFFFFFFFFEF8E0000000B5
:1041CC00010000000000000000FEFE000000FCFEEC
:1041DC00FC0C06060EFCF80000F0F81C0E06060699
:1041EC000CFFFFFF0000FEFE00000000FCFEFC00C8
:1041FC00183C7E66E6CE84000006FFFF0606FCFE39
:10420C00FC0C0606060000FEFE0000C0F8FC4E4644
:10421C0046464E7C7840183C76E6CECC80000000BA
:10422C000000000000000000000000000000000082
:10423C000001070F1F1F3F3F3F3F1F0F03000000F0
:10424C000000000000000000000F0F0000000F0F26
:10425C000F000000000F0F000003070E0C18180CC5
:10426C00060F0F0F0000010F0E0C180C0F070100AA
:10427C00040E0C180C0F070000000F0F00000F0F9E
:10428C000F0000000000000F0F00000007070C0CCF
:10429C00181C0C060600040E0C180C0F070000006E
:1042AC000000000000000000000000000000000002
:1042BC0000000000000000000000000000000000F2
:1042CC0000000000000000000000000000000000E2
:1042DC0000000000000000000000000000000000D2
:1042EC0000000000000000000000000000000000C2
:1042FC0000000000000000000000000000000000B2
:10430C0000000000000000000000000000000000A1
:10431C00000000000000000000000000000001038D
:10432C00070F1F3F7F0080C0E0F0F8FCFEFF80000D
:10433C00DA06000000000000FF0C2A142914600AA1
:10434C00690B850B150BA40BDC0B840D0000000016
:10435C00FF0C2A144D13600AE90E850D150BA40BE6
:10436C00DC0BED1000000000961C651C1E1C271CAD
:04437C003C1C4D1C7C
:00000001FF
