:100000000C94A7040C9477250C949E250C94CF0493
:100010000C94CF040C94CF040C94CF040C94FA24C9
:100020000C94CF040C94CF040C94CF040C94CF0404
:100030000C94CF040C94B51E0C94CF040C94CF04F4
:100040000C9406050C94CF040C9476200C94A820F4
:100050000C94CF040C94CF040C94CF040C94CF04D4
:100060000C9430280C94CF042A091E0970091E092B
:10007000E9091B0A700AA20AC80A1E091E091E09FC
:10008000FA0A1E09200B990B1E09BC0BDC0B1E097A
:100090001E091E091E090A0C1E091E095E0C370FD7
:1000A000570F710F7E0F9B0FCF0FF70F0110151019
:1000B0002E0F51107B109A10CA10DD10E71032116C
:1000C00066117F11AB11C511CF1104126D1284128C
:1000D0009F12BA12D5127553004369636C6F204D9D
:1000E00061783A007553004369636C6F204D696E07
:1000F0003A007553004369636C6F204163743A00A2
:1001000056657273696F6E3A006279205761727238
:10011000696F7200426561744475696E6F002020DA
:10012000487A00456C69676520656C20736F6E695D
:10013000646F3A00456C696765206C612063616E8D
:1001400063696F6E3A005469706F20436F6D706120
:10015000733A00202042504D00456C696765206568
:100160006C2074656D706F3A004E6F6D6272652021
:1001700063616E63696F6E3A00456C696765206CF8
:10018000612063616E63696F6E3A00426F727261E3
:10019000722063616E63696F6E0043616E63696FA5
:1001A0006E206120696E7365727461723A00496EE7
:1001B0007365727461722064657370756573206411
:1001C000653A00456C696765206C612063616E6308
:1001D000696F6E3A00506F736963696F6E206120BA
:1001E0006564697461723A00456C696765206C6189
:1001F00020706F736963696F6E3A004E6F6D627243
:1002000065207265706572746F72696F3A00456C33
:10021000696765207265706572746F72696F3A0004
:100220005354415254002042504D0A0A0053544145
:100230005254002042504D0A0A0048023E024D65C9
:1002400074726F6E6F6D6F005265706572746F724D
:10025000696F009002820276026B025D0252657342
:1002600065742046616272696361004D696469204A
:10027000436C6F636B00536F6E69646F20546963E6
:100280006B005469636B7320696775616C657300FB
:100290004D6F646F00A0029E029B02313600380051
:1002A0003400D802CA02B902AA0243616D626961D0
:1002B0007220436F6D7061730043616D626961729A
:1002C000204469766973696F6E0043616D6269618C
:1002D000722054656D706F0043616D6269617220B8
:1002E0004E6F6D62726500FC02EB02456C696D69D0
:1002F0006E61722043616E63696F6E00456469745C
:1003000061722043616E63696F6E0012030F0353C5
:1003100049004E4F004C033B032A031D0356616303
:10032000696172204F7264656E00456C696D696E1B
:1003300061722043616E63696F6E00496E7365720E
:100340007461722043616E63696F6E0043616D6218
:10035000696172204F7264656E006C035E034361D5
:100360006D62696172204F7264656E0043616D62F7
:10037000696172204E6F6D62726500A703950381FB
:1003800003456C696D696E617220526570657274A7
:100390006F72696F0045646974617220526570659F
:1003A00072746F72696F0043616D6269617220528D
:1003B00065706572746F72696F00D903CF03C703EC
:1003C000C203496E666F00416A75737465730043BA
:1003D000616E63696F6E6573005265706572746FEC
:1003E00072696F730000000000003E5B4F5B3E3E91
:1003F0006B4F6B3E1C3E7C3E1C183C7E3C181C57D1
:100400007D571C1C5E7F5E1C00183C1800FFE7C374
:10041000E7FF0018241800FFE7DBE7FF30483A0643
:100420000E2629792926407F050507407F05253FAF
:100430005A3CE73C5A7F3E1C1C08081C1C3E7F149B
:10044000227F22145F5F005F5F06097F017F0066E5
:1004500089956A606060606094A2FFA29408047E3F
:10046000040810207E201008082A1C08081C2A08EE
:10047000081E101010100C1E0C1E0C30383E3830A8
:10048000060E3E0E06000000000000005F000000A7
:1004900007000700147F147F14242A7F2A122313D5
:1004A00008646236495620500008070300001C22E9
:1004B00041000041221C002A1C7F1C2A08083E081B
:1004C000080080703000080808080800006060001C
:1004D00020100804023E5149453E00427F40007210
:1004E000494949462141494D331814127F10274587
:1004F0004545393C4A4949314121110907364949A5
:100500004936464949291E000014000000403400C5
:100510000000081422411414141414004122140879
:1005200002015909063E415D594E7C1211127C7F31
:10053000494949363E414141227F4141413E7F493F
:100540004949417F090909013E414151737F08082A
:10055000087F00417F41002040413F017F08142275
:10056000417F404040407F021C027F7F0408107F93
:100570003E4141413E7F090909063E4151215E7FCE
:1005800009192946264949493203017F01033F40A1
:1005900040403F1F2040201F3F4038403F63140829
:1005A000146303047804036159494D43007F4141BA
:1005B000410204081020004141417F04020102046D
:1005C0004040404040000307080020545478407FDA
:1005D000284444383844444428384444287F385414
:1005E00054541800087E090218A4A49C787F0804BB
:1005F000047800447D40002040403D007F102844A6
:100600000000417F40007C047804787C0804047872
:100610003844444438FC1824241818242418FC7C3A
:1006200008040408485454542404043F44243C401F
:1006300040207C1C2040201C3C4030403C44281082
:1006400028444C9090907C4464544C4400083641BB
:100650000000007700000041360800020102040299
:100660003C2623263C1EA1A161123A4040207A3844
:1006700054545559215555794122545478422155A5
:1006800054784020545579400C1E527212395555F9
:100690005559395454545939555454580000457CCF
:1006A000410002457D420001457C407D1211127DD2
:1006B000F0282528F07C545545002054547C547C67
:1006C0000A097F4932494949323A4444443A324A54
:1006D0004848303A4141217A3A42402078009DA072
:1006E000A07D3D4242423D3D4040403D3C24FF24F0
:1006F00024487E4943662B2FFC2F2BFF0929F62027
:10070000C0887E090320545479410000447D413063
:1007100048484A32384040227A007A0A0A727D0DEF
:1007200019317D2629292F28262929292630484DA7
:100730004020380808080808080808382F10C8ACF6
:10074000BA2F102834FA00007B000008142A142263
:1007500022142A1408AA005500AAAA55AA55AA00CC
:100760000000FF00101010FF00141414FF00101000
:10077000FF00FF1010F010F0141414FC001414F714
:1007800000FF0000FF00FF1414F404FC1414171001
:100790001F10101F101F1414141F00101010F00051
:1007A0000000001F101010101F10101010F010008B
:1007B0000000FF101010101010101010FF1000009B
:1007C00000FF140000FF00FF00001F10170000FCD6
:1007D00004F414141710171414F404F40000FF00A8
:1007E000F714141414141414F700F7141414171431
:1007F00010101F101F141414F4141010F010F00037
:10080000001F101F0000001F14000000FC14000057
:10081000F010F01010FF10FF141414FF141010103B
:100820001F00000000F010FFFFFFFFFFF0F0F0F0EE
:10083000F0FFFFFF0000000000FFFF0F0F0F0F0F82
:100840003844443844FC4A4A4A347E0202060602CE
:100850007E027E0263554941633844443C04407E35
:10086000201E2006027E020299A5E7A5991C2A49AE
:100870002A1C4C7201724C304A4D4D303048784839
:1008800030BC625A463D3E494949007E0101017E25
:100890002A2A2A2A2A44445F444440514A44404078
:1008A000444A51400000FF0103E080FF00000808B7
:1008B0006B6B083612362436060F090F0600001837
:1008C000180000001010003040FF0101001F01015E
:1008D0001E00191D1712003C3C3C3C0000000000AB
:1008E000566163696F00564143494F0002000000A2
:1008F00008000201000003040700000000000000DF
:1009000000010204081020408001020408102001A8
:100910000204081020040404040404040402020273
:100920000202020303030303030000000023002666
:1009300000290000000000250028002B0000000016
:1009400000240027002A0000D707CE20802711248A
:100950001FBECFEFD8E0DEBFCDBF16E0A0E0B1E014
:10096000E6EDF9E502C005900D92A232B107D9F784
:1009700028E0A2E2B6E001C01D92A333B207E1F77E
:1009800014E0C7EAD4E004C02197FE010E94552B71
:10099000C43AD107C9F70E94360D0C94E92C0C9487
:1009A0000000CF93DF9386E00E945A26EC0182E09C
:1009B0000E945A26C817D90739F481E090E0909335
:1009C00048068093470606C08FEF9FEF9093480636
:1009D00080934706DF91CF910895FF920F931F9365
:1009E000CF93DF93EC01F62E08811981C8010E9494
:1009F000D32CF81621F06F2DC8010E94DB2CCE01FC
:100A0000DF91CF911F910F91FF9008951F920F9248
:100A10000FB60F9211242F933F934F935F936F93D1
:100A20007F938F939F93AF93BF93EF93FF938091A7
:100A30003A0690913B06A0913C06B0913D06019686
:100A4000A11DB11D80933A0690933B06A0933C06EE
:100A5000B0933D068091360690913706A0913806F6
:100A6000B09139060196A11DB11D80933606909371
:100A70003706A0933806B0933906809132069091DC
:100A80003306A0913406B09135060196A11DB11D23
:100A90008093320690933306A0933406B0933506C4
:100AA00040913206509133066091340670913506BC
:100AB00080912E0690912F06A0913006B0913106BC
:100AC000481759076A077B0708F470C0109232066E
:100AD0001092330610923406109235062091490682
:100AE00030E0609113017091140188E190E00E9460
:100AF000002B2617370758F110924906209152060D
:100B0000309153068091110190911201019728179D
:100B1000390728F0109253061092520609C08091AE
:100B20005206909153060196909353068093520675
:100B300080910E01882381F0809152069091530696
:100B4000892B31F580915106811122C015C0809109
:100B500049068F5F8093490680914E06882331F1C4
:100B6000E091BC06F091BD060190F081E02D68EFA8
:100B70008CEB96E009951AC0209115013091160171
:100B800040E050E06AEB72E08BE00E945C22E4CF30
:100B9000209115013091160140E050E060910F0165
:100BA000709110018BE00E945C22D6CFFF91EF91F3
:100BB000BF91AF919F918F917F916F915F914F9175
:100BC0003F912F910F900FBE0F901F901895CF92CD
:100BD000DF92EF92FF926B017C0110923606109229
:100BE0003706109238061092390680913606909199
:100BF0003706A0913806B0913906689412F8880F2C
:100C0000991FAA1FBB1F1694D1F78C159D05AE0521
:100C1000BF05D8F40E94FB208091360690913706DC
:100C2000A0913806B0913906880F991FAA1FBB1FE3
:100C3000880F991FAA1FBB1F880F991FAA1FBB1FD0
:100C40008C159D05AE05BF0528F3FF90EF90DF9052
:100C5000CF9008951F93CF93DF93182FEB010E943D
:100C60005A26892B09F062C09E01220F331F220FE2
:100C7000331F220F331FFE01EE0FFF1FE20FF31F82
:100C8000E359F94F1782168213828081811113C0B4
:100C9000FE01EE0FFF1FE20FF31FE359F94F81E052
:100CA0004481558120910C0130910D014217530769
:100CB00018F480E001C080E09E01220F331F220F54
:100CC000331F220F331FFE01EE0FFF1FE20FF31F32
:100CD000E359F94F82838481958120910C013091F1
:100CE0000D018217930788F0CE01880F991F880F96
:100CF000991F880F991FFE01EE0FFF1FE80FF91FC4
:100D0000E359F94F81E0808311C09E01220F331F08
:100D1000220F331F220F331FFE01EE0FFF1FE20FC2
:100D2000F31FE359F94F019695838483812F0E9425
:100D30005A26019709F05BC0CE01880F991F880FD2
:100D4000991F880F991FFE01EE0FFF1FE80FF91F73
:100D5000E359F94F1582148211861086118212828E
:100D600020812223C9F0CE01880F991F880F991F77
:100D7000880F991FFE01EE0FFF1FE80FF91FE359BF
:100D8000F94F21E04681578180910C0190910D012E
:100D90004817590708F420E0CE01880F991F880FE3
:100DA000991F880F991FFE01EE0FFF1FE80FF91F13
:100DB000E359F94F23838681978120910C0130916B
:100DC0000D018217930710F010824DC09E01220F73
:100DD000331F220F331F220F331FFE01EE0FFF1FA1
:100DE000E20FF31FE359F94F019697838683CE01F3
:100DF000880F991F880F991F880F991FFE01EE0F0A
:100E0000FF1FE80FF91FE359F94F8081882359F13B
:100E1000CE01880F991F880F991F880F991FFE0117
:100E2000EE0FFF1FE80FF91FE359F94F80859185F9
:100E300001969187808720910A0130910B018217DA
:100E4000930719F481E081830EC0CE01880F991FAA
:100E5000CC0FDD1FCC0FDD1FCC0FDD1FC80FD91F3E
:100E6000C359D94F1982DF91CF911F910895CF9324
:100E7000DF9380914F060E94E91CEC01BC0187E5DD
:100E800096E00E94BD2CCE010E940A2CDF91CF91EA
:100E90000895FF920F931F93CF93DF9360915006B5
:100EA00080914F060E94601DF82E0E94241D8C0127
:100EB000BC0180E696E00E94BD2CC8010E940A2C6D
:100EC0008F2D0E94701DC0E6D6E08A878F2D0E946C
:100ED000781D8B878F2D0E94831D8C87DF91CF918A
:100EE0001F910F91FF9008958BEF91E00E94D32CFA
:100EF0008F3F11F080931A018CEF91E00E94D32C68
:100F00008F3F31F091E0811101C090E09093510644
:100F10008DEF91E00E94D32C8F3F31F091E0811151
:100F200001C090E090934E068EEF91E00E948E1DDE
:100F30009C012F5131092435334138F088EB91E081
:100F40009093100180930F01089590931001809366
:100F50000F010895CF93DF9300D000D000D0CDB71C
:100F6000DEB70E94421E0E947C1E8BEF91E09E83A2
:100F70008D836FEFCE0105960E94ED048CEF91E01A
:100F80009C838B836FEFCE0103960E94ED048DEF5F
:100F900091E09A8389836FEFCE0101960E94ED0460
:100FA00068EB71E08EEF91E00E94B41DFFCF64E02A
:100FB0008BE896E00E94611A0895EF92FF920F93DA
:100FC0001F93CF93DF93CDB7DEB76E970FB6F8942C
:100FD000DEBF0FBECDBF80915606882321F0813041
:100FE00009F413C136C580911A01882321F081309C
:100FF00009F4A3C02EC58BE896E00E947A1A40E05F
:1010000050E060E070E08BE896E00E94BF1640E0A0
:1010100050E061E070E08BE896E00E94D1166091AC
:101020004F0670E06F5F7F4F4AE050E08BE896E03C
:101030000E94242260E375E08BE896E00E94602124
:1010400067E576E08BE896E00E94602163E375E057
:101050008BE896E00E9460216091500670E06F5F1F
:101060007F4F4AE050E08BE896E00E94242260E344
:1010700075E08BE896E00E94602160E676E08BE800
:1010800096E00E94602162E375E08BE896E00E94A2
:10109000602162E08BE896E00E94C516609117011E
:1010A000709118014AE050E08BE896E00E945622C9
:1010B00063E372E08BE896E00E943C2161E08BE8FC
:1010C00096E00E94C51660911101709112014AE0EC
:1010D00050E08BE896E00E94562265E375E08BE8CD
:1010E00096E00E9460216091130170911401660FD7
:1010F000771F660F771F4AE050E08BE896E00E946A
:10110000562267E375E08BE896E00E9460218091AB
:101110000E01882339F06DE272E08BE896E00E94C0
:101120003C2106C06EE375E08BE896E00E946021EA
:101130008BE896E00E942C1C8CC48BE896E00E9401
:101140007A1A40E050E060E070E08BE896E00E94A0
:10115000BF1640E050E061E070E08BE896E00E944E
:10116000D11662E08BE896E00E94C51660911701E7
:10117000709118014AE050E08BE896E00E945622F8
:1011800066E272E08BE896E00E943C2161E08BE829
:1011900096E00E94C51660911101709112014AE01B
:1011A00050E08BE896E00E94562265E375E08BE8FC
:1011B00096E00E9460216091130170911401660F06
:1011C000771F660F771F4AE050E08BE896E00E9499
:1011D000562267E375E08BE896E00E9460218091DB
:1011E0000E01882339F060E272E08BE896E00E94FD
:1011F0003C2106C06EE375E08BE896E00E9460211A
:101200008BE896E00E942C1C24C48BE896E00E9498
:101210007A1A40E050E060E070E08BE896E00E94CF
:10122000BF1620914606822F90E0FC013297EB31E9
:10123000F10520F4EC5CFF4F0C94552BE22FF0E00D
:10124000EE0FFF1FEE0FFF1FED5BFA4F8081811144
:10125000B4C3FBC340E050E061E070E08BE896E08F
:101260000E94D1166EE072E08BE896E00E946D213C
:1012700000E010E08091450690E08017910749F466
:1012800041E050E060E070E08BE896E00E94D1160B
:1012900008C040E050E061E070E08BE896E00E941A
:1012A000D116802F0E94E91C7C010F5F1F4F4AE07E
:1012B00050E0B8018BE896E00E94242260E375E0DC
:1012C0008BE896E00E946021B7018BE896E00E94CF
:1012D0007F21C7010E940A2C0330110559F6B5C3BE
:1012E00040E050E061E070E08BE896E00E94D116AB
:1012F0006BEF71E08BE896E00E946D2180914706CC
:1013000090914806181619065CF580914406E09104
:101310004206F0914306E80FF11D8081811102C061
:1013200080E2808380914406E0914206F09143067A
:10133000E80FF11D80818A3711F488ED8083809158
:101340004406E0914206F0914306E80FF11D8081CA
:101350008A3710F48F5F80831092480610924706F8
:1013600080914706909148069923B4F480914406F1
:10137000E0914206F0914306E80FF11D8081883D1F
:1013800019F48AE7808304C0813210F08150808391
:1013900010924806109247066091420670914306EB
:1013A0008BE896E00E947F218091440690E0BC018A
:1013B000660F771F680F791F660F771F01E010E037
:1013C00026E030E04FE050E08BE896E00E94E21625
:1013D0003CC368EE71E08BE896E00E946D2140E02E
:1013E00050E061E070E08BE896E00E94D1166091D9
:1013F000450680914F060E94601D0E94241D8C01AD
:1014000090914506692F70E06F5F7F4F4AE050E092
:101410008BE896E00E94242260E375E08BE896E07A
:101420000E946021B8018BE896E00E947F21C801EC
:101430000E940A2C0AC365ED71E08BE896E00E94D9
:101440006D216091410680914F060E94601D0E94AF
:10145000241D8C0190914106692F70E06F5F7F4FD2
:101460004AE050E08BE896E00E94242260E375E0B9
:101470008BE896E00E946021B8018BE896E00E941C
:101480007F2163E375E08BE896E00E947F2163ECA7
:1014900071E08BE896E00E946D21C8010E940A2C41
:1014A000809145060E94241D8C0190914106692F70
:1014B00070E06F5F7F4F4AE050E08BE896E00E945B
:1014C000242260E375E08BE896E00E946021B80179
:1014D0008BE896E00E947F21C8010E940A2CB5C2C9
:1014E0006EEA71E08BE896E00E946D2140E050E0EA
:1014F00061E070E08BE896E00E94D11660914506AD
:1015000080914F060E94601D0E94241D8C019091C5
:101510004506692F70E06F5F7F4F4AE050E08BE82F
:1015200096E00E94242260E375E08BE896E00E943A
:101530006021B8018BE896E00E947F21C8010E94DB
:101540000A2C83C26AE971E08BE896E00E946D2163
:10155000809145060E94241D8C0190914106692FBF
:1015600070E06E5F7F4F4AE050E08BE896E00E94AB
:10157000242260E375E08BE896E00E946021B801C8
:101580008BE896E00E947F21C8010E940A2C5DC270
:101590006BE871E08BE896E00E946D2140E050E03E
:1015A00061E070E08BE896E00E94D11660914506FC
:1015B00080914F060E94601D0E94241D8C01909115
:1015C0004506692F70E06F5F7F4F4AE050E08BE87F
:1015D00096E00E94242260E375E08BE896E00E948A
:1015E0006021B8018BE896E00E947F21C8010E942B
:1015F0000A2C2BC269E771E08BE896E00E946D210E
:10160000809145060E94241D8C0190914506692F0A
:1016100070E06F5F7F4F4AE050E08BE896E00E94F9
:10162000242260E375E08BE896E00E946021B80117
:101630008BE896E00E947F21C8010E940A2C05C217
:1016400040E050E061E070E08BE896E00E94D11647
:1016500069E671E08BE896E00E946D218091470673
:1016600090914806181619065CF580914406E091A1
:101670004206F0914306E80FF11D8081811102C0FE
:1016800080E2808380914406E0914206F091430617
:10169000E80FF11D80818A3711F488ED80838091F5
:1016A0004406E0914206F0914306E80FF11D808167
:1016B0008A3710F48F5F8083109248061092470695
:1016C00080914706909148069923B4F4809144068E
:1016D000E0914206F0914306E80FF11D8081883DBC
:1016E00019F48AE7808304C0813210F0815080832E
:1016F0001092480610924706609142067091430688
:101700008BE896E00E947F218091440690E0BC0126
:10171000660F771F680F791F660F771F01E010E0D3
:1017200026E030E04FE050E08BE896E00E94E216C1
:101730008CC140E050E061E070E08BE896E00E94F0
:10174000D11669E571E08BE896E00E946D2163E3B4
:1017500075E08BE896E00E947F214AE050E06091BE
:1017600045068BE896E00E944F2263E571E08BE826
:1017700096E00E946D2169C140E050E061E070E0B8
:101780008BE896E00E94D11666E471E08BE896E063
:101790000E946D2163E375E08BE896E00E947F2153
:1017A0006091450670E06E5F7F4F4AE050E08BE845
:1017B00096E00E942B2249C140E050E061E070E0D9
:1017C0008BE896E00E94D11664E371E08BE896E026
:1017D0000E946D21809145060E94241D8C019091EC
:1017E0004506692F70E06F5F7F4F4AE050E08BE85D
:1017F00096E00E94242260E375E08BE896E00E9468
:101800006021B8018BE896E00E947F21C8010E9408
:101810000A2C1BC18091470690914806181619069C
:101820008CF480913F06909140060196909340067B
:1018300080933F069093100180930F011092480609
:1018400010924706809147069091480699238CF4A0
:1018500080913F06909140060197909340068093B7
:101860003F069093100180930F011092480610924A
:10187000470640E050E061E070E08BE896E00E94AF
:10188000D11663E271E08BE896E00E946D2163E37C
:1018900075E08BE896E00E947F2160913F06709191
:1018A00040064AE050E08BE896E00E9456226EE146
:1018B00071E08BE896E00E946D21C7C040E050E0E7
:1018C00061E070E08BE896E00E94D11664E171E07F
:1018D0008BE896E00E946D2169E071E08BE896E06C
:1018E0000E946D2160E071E08BE896E00E943C214F
:1018F0004AE050E061E070E08BE896E00E9424222C
:1019000060E375E08BE896E00E9460214AE050E0D9
:1019100060E070E08BE896E00E942B2265EF70E0BB
:101920008BE896E00E943C214091260650912706C4
:1019300060912806709129062AE030E08BE896E055
:101940000E94422262EF70E08BE896E00E946D21D7
:1019500067EE70E08BE896E00E943C214091060122
:101960005091070160910801709109012AE030E06F
:101970008BE896E00E94422264EE70E08BE896E0ED
:101980000E946D2169ED70E08BE896E00E943C2199
:1019900040912206509123066091240670912506FD
:1019A0002AE030E08BE896E00E94422266ED70E08B
:1019B0008BE896E00E946D2148C000E010E0809125
:1019C000450690E08017910749F441E050E060E05F
:1019D00070E08BE896E00E94D11608C040E050E02D
:1019E00061E070E08BE896E00E94D116E091460637
:1019F000F0E0EE0FFF1FEE0FFF1FED5BFA4FC80187
:101A0000880F991F0280F381E02DE80FF91F65917F
:101A10007491CE0101960E94A72CBE016F5F7F4F8B
:101A20008BE896E00E947F210F5F1F4FE0914606F2
:101A3000F0E0EE0FFF1FEE0FFF1FED5BFA4F80810E
:101A400090E0081719070CF4BACF8BE896E00E94D3
:101A50002C1C6E960FB6F894DEBF0FBECDBFDF9183
:101A6000CF911F910F91FF90EF900895CF93DF9347
:101A7000CDB7DEB72A970FB6F894DEBF0FBECDBF45
:101A80000FB6F894A89580916000886180936000FB
:101A9000109260000FBE62E082E00E94EE2562E0DC
:101AA00086E00E94EE2562E085E00E94EE2562E07D
:101AB00083E00E94EE2562E087E00E94EE2561E06F
:101AC0008BE00E94EE2561E08DE00E94EE2561E052
:101AD00084E00E94EE25209117013091180140E02A
:101AE00050E060E67AEE80E090E00E94362BCA017A
:101AF000B9010E94072A20E030E040EC51E40E9446
:101B00005D2920E030E04AE754E40E94932A20E077
:101B100030E040E05DE30E94932A0E94D629609362
:101B20002E0670932F068093300690933106F8941A
:101B300014BC15BC16BC81E085BDEEE6F0E08081EA
:101B400081608083789441E050E061ED74E080E052
:101B50000E94572521E04DE362E08BE896E00E9469
:101B6000EE1A26E042E15AE760E070E08CEB96E086
:101B70000E9416208BE896E00E947A1A61E08BE8BA
:101B800096E00E94C51661E070E08BE896E00E9446
:101B9000CB169FE088E10FB6F894A895809360007B
:101BA0000FBE909360000E9474070E9437070E9446
:101BB00049070F2EFDE6EF2EF6E0FF2EF02D7724DD
:101BC00073940F2EF0E68F2EFAEE9F2EA12CB12CDF
:101BD000F02D0F2EF0E6CF2EF6E0DF2EF02D0F2E9B
:101BE000F6E16F2EF02D0F2EF8EB2F2E33243394C9
:101BF000F02D0F2EFDE15F2EF02D412C80913A0645
:101C000090913B06A0913C06B0913D0680932A0638
:101C100090932B06A0932C06B0932D0660E070E005
:101C200085E090E00E942A0661E070E083E090E0A9
:101C30000E942A0662E070E087E090E00E942A0697
:101C4000F7018485882301F1809156068130A1F443
:101C5000E0914606E11103C01092560613C0F0E071
:101C6000EE0FFF1FEE0FFF1FED5BFA4F8181809398
:101C700046061092450606C070925606109245061A
:101C8000109246067092190180915606882321F021
:101C9000813009F47BC096C480911A01882319F021
:101CA0008130B9F18FC4809147069091480618168B
:101CB00019062CF4809150068D3108F41AC58091D4
:101CC000470690914806992324F48091500681118B
:101CD0001CC5F601828590E090931801809317014E
:101CE000838590E09093140180931301848590E0A4
:101CF0009093120180931101F7018281882309F4E6
:101D000061C480910E01872580930E0170921901A4
:101D100008C580914706909148061816190694F454
:101D200080911701909118018F3F910528F4019639
:101D3000909318018093170110924806109247065D
:101D400070921901809147069091480699238CF46E
:101D50008091170190911801009729F001979093B5
:101D6000180180931701109248061092470670924E
:101D70001901F7018281882309F424C480910E019E
:101D8000872580930E0170921901CBC4809147067C
:101D9000909148061816190614F520914506E09111
:101DA0004606F0E0EE0FFF1FEE0FFF1FED5BFA4F50
:101DB0003081422F50E0832F90E001974817590758
:101DC00024F42F5F2093450602C01092450633236A
:101DD00021F01092480610924706709219018091E6
:101DE00047069091480699233CF580914506882343
:101DF00021F08150809345060DC0E0914606F0E049
:101E0000EE0FFF1FEE0FFF1FED5BFA4F8081815039
:101E100080934506E0914606F0E0EE0FFF1FEE0FBF
:101E2000FF1FED5BFA4F8081882321F01092480656
:101E30001092470670921901F7018689882309F4E8
:101E4000C1C3E09146068E2F90E08C31910508F0D9
:101E5000B6C3FC01E15BFF4F0C94552B609141062A
:101E6000862F90E001964D970CF4E9C000C1809157
:101E70004506813059F028F0823071F0833089F0C6
:101E80009EC3109245067092460699C3109245066D
:101E90008DE08093460693C31092450660924606F5
:101EA0008EC3109245068CE18093460688C38091CC
:101EB0004506813051F018F0823069F080C31092ED
:101EC000450682E0809346067AC31092450683E079
:101ED0008093460674C3109245068CE080934606B4
:101EE0006EC38091450680934F06109250060E9463
:101EF00037070E9449071092560661C38091450634
:101F0000882319F0813089F05AC31092450684E085
:101F10008093460680914F060E94E91C90934306E9
:101F200080934206109244064AC31092450685E00B
:101F30008093460644C380914406E0914206F091A6
:101F40004306E80FF11D9081983D01F510826091E4
:101F500042067091430680914F060E94D71D8091E2
:101F60004206909143060E940A2CE0914606F0E05A
:101F7000EE0FFF1FEE0FFF1FED5BFA4F8181809385
:101F80004606109245060E94370719C3883020F490
:101F90008F5F8093440613C31092440610C3809150
:101FA0004506813071F028F0823099F08330C9F015
:101FB00006C31092450686E08093460610924106BD
:101FC000FEC21092450688E08093460610924106B4
:101FD000F6C2109245068AE08093460610924106AA
:101FE000EEC2109245068BE080934606E8C28091CF
:101FF0004506809341061092450687E08093460689
:10200000DEC2409145066091410680914F060E94D4
:10201000FA1D80914106809345061092410686E0A4
:10202000809346060E944907CAC280914506809364
:1020300041061092450689E080934606C0C2052DF0
:10204000142D6FEF600F80914F060E94601D482F86
:10205000602F80914F060E94FA1D01501109609176
:102060004106862F90E001968017910754F36F5F29
:102070004091450680914F060E94FA1D1092450638
:1020800010924106E0914606F0E0EE0FFF1FEE0FC2
:10209000FF1FED5BFA4F8181809346060E9449073E
:1020A0008EC20091450610E00D3111058CF461E0FF
:1020B000600F80914F060E94601D482F602F809115
:1020C0004F060E94FA1D0F5F1F4F0D31110579F762
:1020D0001092450610924106E0914606F0E0EE0FA0
:1020E000FF1FEE0FFF1FED5BFA4F818180934606C5
:1020F0000E94490764C280914506813051F410E086
:102100004FEF612F80914F060E94FA1D1F5F1E3115
:10211000B9F710924506E0914606F0E0EE0FFF1F7A
:10212000EE0FFF1FED5BFA4F8181809346060E9400
:10213000490745C280914506813051F410E04FEFC8
:10214000612F80914F060E94FA1D1F5F1E31B9F763
:102150008FEF898348E050E0BE016F5F7F4FCB0176
:102160000E94C42CBE016F5F7F4F80914F060E947A
:10217000D71D10924506E0914606F0E0EE0FFF1FD6
:10218000EE0FFF1FED5BFA4F8181809346060E94A0
:10219000370715C280914506882319F0813039F040
:1021A0000EC2109245068EE08093460608C2109239
:1021B000450684E18093460602C2809145068093DD
:1021C0003E06109245068FE080934606F8C1809146
:1021D00045068130A1F028F08230E9F08330A9F182
:1021E000EEC11092450680E18093460680913E063E
:1021F0000E94241D9093430680934206E0C181E132
:102200008093460680913E060E94701D8093410691
:1022100080934506D4C182E18093460680913E06B4
:102220000E94781D80934106823041F0843049F04D
:10223000813009F0C4C110924506C1C170924506B3
:10224000BEC182E080934506BAC183E18093460611
:1022500080913E060E94831D8093410682508093A8
:102260004506ADC180914406E0914206F0914306D7
:10227000E80FF11D9081983D01F5108260914206B2
:102280007091430680913E060E94091E809142068D
:10229000909143060E940A2C10924506E091460652
:1022A000F0E0EE0FFF1FEE0FFF1FED5BFA4F818195
:1022B000809346060E94490782C18A3020F48F5FCE
:1022C000809344067CC11092440679C16091450612
:1022D00080913E060E942A1E1092450610924106E9
:1022E000E0914606F0E0EE0FFF1FEE0FFF1FED5BE3
:1022F000FA4F8181809346060E94490760C1809110
:102300004506813051F018F0823069F011C0672D18
:1023100080913E060E94321E0BC062E080913E0614
:102320000E94321E05C064E080913E060E94321E6B
:102330001092410610924506E0914606F0E0EE0F3D
:10234000FF1FEE0FFF1FED5BFA4F81818093460662
:102350000E94490734C1609145066E5F80913E0638
:102360000E943A1E1092410610924506E0914606E0
:10237000F0E0EE0FFF1FEE0FFF1FED5BFA4F8181C4
:10238000809346060E9449071AC1809145068093B2
:102390003E061092450685E18093460610C1809165
:1023A0004506813001F58FEF89834AE050E0BE0198
:1023B0006F5F7F4FCB010E94C42CBE016F5F7F4FC8
:1023C00080913E060E94091E6FEF80913E060E949A
:1023D0002A1E6FEF80913E060E94321E6FEF8091A1
:1023E0003E060E943A1E10924506E0914606F0E035
:1023F000EE0FFF1FEE0FFF1FED5BFA4F8181809301
:1024000046060E944907DBC080914506823079F17B
:1024100028F4882351F08130C9F0D1C0833009F409
:1024200045C0843009F453C0CAC08BEF91E00E94CC
:10243000D32C809341068F3F19F08093450602C04C
:1024400010924506F7E1F0934606B9C08CEF91E093
:102450000E94D32C809341068F3F19F0809345064C
:1024600002C01092450648E140934606A8C08EEF90
:1024700091E00E948E1D9C012F513109243533417A
:1024800028F49093400680933F0604C030924006A3
:1024900020923F0680913F06909140069093100154
:1024A00080930F01F9E1F093460689C08DEF91E02A
:1024B0000E94D32C809341068F3F19F080934506EC
:1024C00002C0109245064AE14093460678C08BE16F
:1024D000809346061092450672C06091450660934F
:1024E0001A018BEF91E00E94A31D10924506E09126
:1024F0004606F0E0EE0FFF1FEE0FFF1FED5BFA4FF9
:102500008181809346065BC0672D809145068111CD
:1025100001C060E0609351068CEF91E00E94A31D22
:1025200010924506E0914606F0E0EE0FFF1FEE0F19
:10253000FF1FED5BFA4F81818093460640C060919A
:102540003F06709140067093100160930F018EEF6B
:1025500091E00E94B41D10924506E0914606F0E01D
:10256000EE0FFF1FEE0FFF1FED5BFA4F818180938F
:10257000460625C0672D80914506811101C060E0A7
:1025800060934E068DEF91E00E94A31D10924506C8
:10259000E0914606F0E0EE0FFF1FEE0FFF1FED5B30
:1025A000FA4F8181809346060AC0809145068130AA
:1025B00011F40E94AA071092450660924606709296
:1025C0001901AFC020911701309118018091540674
:1025D000909155068217930771F140E050E0C501D4
:1025E000B4010E94362BCA01B9010E94072A20E0DB
:1025F00030E040EC51E40E945D2920E030E04AE701
:1026000054E40E94932A60934A0670934B06809389
:102610004C0690934D060E94CF29AB01BC0186EB7E
:1026200096E00E94DC1E8091170190911801909312
:1026300055068093540680911901882321F00E9449
:10264000DD071092190180913A0690913B06A09106
:102650003C06B0913D0640912A0650912B066091B0
:102660002C0670912D06841B950BA60BB70B80933F
:10267000260690932706A0932806B093290640913A
:102680002206509123066091240670912506481772
:1026900059076A077B0740F480932206909323062C
:1026A000A0932406B093250640910601509107019E
:1026B000609108017091090184179507A607B70773
:1026C00040F48093060190930701A0930801B09312
:1026D000090186E00E945A268C0182E00E945A2657
:1026E0000817190721F41092480610924706A8957A
:1026F00085CA8F5F809350060E9449071092480652
:102700001092470670921901DACA815080935006E0
:102710000E944907109248061092470670921901CC
:10272000D8CA2091170130911801809154069091D8
:1027300055068217930709F050CF81CF80E090E0D3
:10274000089508952F923F924F925F926F927F92D9
:102750008F929F92AF92BF92CF92DF92EF92FF92B1
:102760000F931F93CF93DF9300D000D0CDB7DEB788
:102770005C017C836B836A014901FA82E982C801AA
:10278000841B950B9C0122F422273327281B390B2D
:10279000A4018B819C81481B590BCA01992324F405
:1027A00088279927841B950B51E040E082179307F7
:1027B0000CF050E0652E742E6114710459F0982DC0
:1027C000892D4801092F182F9B818C81DC82CB82B7
:1027D000C92ED82EAB81BC818A169B060CF045C051
:1027E0009C2D8D2D6801092F182F9B818C819C8237
:1027F0008B82892E982E39C0EB81FC818E169F0624
:102800000CF44EC00FEF1FEF02C001E010E06114A6
:10281000710471F0D501ED91FC910084F185E02DFA
:1028200029813A814B815C81B601C50109950DC0B2
:10283000D501ED91FC910084F185E02D29813A814B
:10284000A6016B817C81C5010995E418F50822F485
:10285000C00ED11EE20CF31CEB81FC813196FC838F
:10286000EB838E169F069CF61BC014018B819C8106
:10287000281A390AC8018C199D092C0122F4442414
:102880005524481A590A710133201CF49FEFE91AA4
:10289000F90AF594E794C016D1060CF4B6CFACCF84
:1028A0000F900F900F900F90DF91CF911F910F918C
:1028B000FF90EF90DF90CF90BF90AF909F908F9060
:1028C0007F906F905F904F903F902F9008956F9200
:1028D0007F928F929F92AF92BF92CF92DF92EF92B0
:1028E000FF920F931F93CF93DF93EC014B015A019B
:1028F00069013801E881F9810684F785E02D8701B7
:102900000995E881F981A501460D571D41505109EE
:102910000684F785E02D9601B401CE010995E88182
:10292000F9810484F585E02D9301A501B401CE0160
:102930000995E881F981C80CD91CB601615071096B
:102940000484F585E02D9301A501CE010995DF9161
:10295000CF911F910F91FF90EF90DF90CF90BF909C
:10296000AF909F908F907F906F900895EF92FF921D
:102970000F931F937801DC01ED91FC91240F351F1B
:102980008901015011090284F385E02D9B0109950D
:102990001F910F91FF90EF900895EF92FF920F9388
:1029A0001F93DC01ED91FC91260F371F2150310957
:1029B0000284F385E02D78018A0109951F910F911A
:1029C000FF90EF9008956F927F928F929F92AF92B7
:1029D000BF92CF92DF92EF92FF920F931F93CF930C
:1029E000DF936C01EB014A01580137017B01E20ED4
:1029F000F31E6E157F0584F4D601ED91FC910484DD
:102A0000F585E02D83019501A401BE01C60109955C
:102A10002196CE15DF0584F3DF91CF911F910F91A1
:102A2000FF90EF90DF90CF90BF90AF909F908F90EE
:102A30007F906F900895EF92FF920F931F93DC01A8
:102A4000ED91FC9111971A960D911C911B97189678
:102A50002D913C9119970288F389E02D7B0140E08C
:102A600050E060E070E009951F910F91FF90EF90AA
:102A700008950895FC01138212828BEB95E09183F7
:102A80008083758364835783468371876087538708
:102A90004287158A158614861786168681E0848BF0
:102AA0002FEF3FEF338B228B318B208B868B08955A
:102AB0002F923F924F925F926F927F928F929F924E
:102AC000AF92BF92CF92DF92EF92FF920F931F933C
:102AD000CF93DF93CDB7DEB762970FB6F894DEBF22
:102AE0000FBECDBF5C011801FD82EC82CB82DC0100
:102AF00018968D919C911997681779070CF0C8C0AA
:102B00001A968D919C911B97481759070CF0C0C0DD
:102B1000EC2DF0E0FA83E983CF01880F991F8E0F27
:102B20009F1F880F991F860F971F01970AF4B0C047
:102B3000CF01880F991F880F991F880F991F840F45
:102B4000951F01970AF4A4C030E0C901880F991FAE
:102B5000880F991F280F391F3F01798768877B8766
:102B60006A871C86D901A61BB70BB88BAF874D8728
:102B70005E874A01B8E08B0E911C2401EC85E5309C
:102B800009F478C0EF85F88988859985E80FF91FE1
:102B9000EB51FC4F14916FC0B0FE24C09B8191306B
:102BA00079F4A989BA89ED91FC9111970084F18596
:102BB000E02D9101A60168857985CD0109953CC07C
:102BC000A989BA89ED91FC9111970288F389E02DCA
:102BD000710109811A819801A4016E817F81CD0163
:102BE00009952AC0EC81FD81E215F30529F1FB81ED
:102BF000F13081F4A989BA89ED91FC911197008493
:102C0000F185E02D2C813D81A60168857985CD0176
:102C1000099512C0A989BA89ED91FC911197028892
:102C2000F389E02DEC80FD8009811A819801A401CF
:102C30006E817F81CD010995B694860C971CBFEFFC
:102C4000CB1ADB0AC414D50409F0A6CFA988BA8828
:102C5000EC85EF5FEC878A859B85860D971D9B87AA
:102C60008A87A885B9851196B987A887E63009F0C3
:102C700085CF0EC010E0BA85BE83EB85EF83CD848F
:102C8000DE848C2C9D2CC501B12E9A8B898B84CF30
:102C900062960FB6F894DEBF0FBECDBFDF91CF9125
:102CA0001F910F91FF90EF90DF90CF90BF90AF906A
:102CB0009F908F907F906F905F904F903F902F905C
:102CC0000895CF92EF92FF920F931F93CF93DF93CC
:102CD0006A3079F4FC01448926853785F8E04F9FF6
:102CE000200D311D1124FC01378726871586148697
:102CF0003CC06D30D1F1262FEC01EA88FB880889B1
:102D000019894E855F856C857D85CC880E94581514
:102D10002C8930E0C901880F991F820F931F880FFB
:102D2000991F4C855D85840F951F9D878C874E89E3
:102D30004423D9F04AEF4203B001439F700D1124A0
:102D400048855985460F571F4817590774F4220FB5
:102D5000331F220F331F220F331F8E859F85280FAD
:102D6000391F3F872E871D861C8681E090E0DF910A
:102D7000CF911F910F91FF90EF90CF900895FC019C
:102D800075876487578746870895611101C061E0A0
:102D9000FC01648B0895FC01738B628B718B608BDB
:102DA0000895FC01718B608B538B428B0895FC015D
:102DB00085890895FC01808591850895FC018285AF
:102DC000938508950F931F93FC018589823071F0DC
:102DD0008330E9F0813009F0C7C084819581DC013E
:102DE000A41BB50BAD014150510922C184819581CD
:102DF000DC01A61BB70BBD0186819781DC01A41BFA
:102E0000B50BAD0141505109621B730BADC08681FA
:102E10009781DC01A61BB70BBD01621B730B08C1B8
:102E200084819581481759070CF029C1772324F430
:102E3000260F371F60E070E086819781FB01E20F6B
:102E4000F31F8E179F071CF49C01261B370B1216CD
:102E500013060CF014C1722F862F869586958695E1
:102E6000B0E88B9F400D511D1124FA01E55DFE4F26
:102E7000677079F188E0861B482F50E0DA01AD5D7C
:102E8000BE4F9C91281708F0D7C0421B51092FEF65
:102E900030E002C0359527954A95E2F7922301303C
:102EA000110529F040F00230110551F0E8C02081F1
:102EB000922B908308C0909520819223908303C029
:102EC000208192279083781708F4D9C0781BE058A6
:102ED000FF4F783058F10230110559F4DF01972F78
:102EE0008C9180958C93A058BF4F98509830C0F724
:102EF000B5C091E00130110509F090E09195DF0136
:102F0000872F9C93A058BF4F88508830D0F788EF08
:102F1000870F86958695869590E001969695982FD1
:102F2000882797958795E80FF91F7770772309F41D
:102F3000A6C07770A72FB0E0A55EBE4F8C91013080
:102F4000110529F040F00230110551F098C0908130
:102F5000892B808394C080959081892380838FC042
:102F60009081892780838BC055230CF488C086818B
:102F70009781481759070CF082C0772324F4260F55
:102F8000371F60E070E084819581FB01E20FF31F41
:102F90008E179F071CF49C01261B370B1216130675
:102FA0000CF06DC0CA0155230CF4079695958795D2
:102FB00095958795959587959695982F88279795B8
:102FC0008795680F791F655D7E4F4770552781E0B3
:102FD00090E002C0880F991F4A95E2F7482F013010
:102FE000110549F090F00230110509F048C0FB01CD
:102FF000620F731F16C0FB01620F731F8081842B49
:103000008193E617F707D1F73AC0982F9095FB0107
:10301000620F731F808189238193E617F707D1F729
:103020002EC0808184278193E617F707D1F727C048
:1030300055230CF0F5CE23C00130110509F437CF2C
:1030400008F439CF0230110509F43ACF3FCFA72F4A
:10305000A770B0E0A55EBE4F8C9182CF88EF870F3E
:1030600086958695869590E001969695982F882767
:1030700097958795E80FF91F872F877041F71F9164
:103080000F9108950F931F93FC018589823071F091
:103090008330E9F0813009F084C084819581DC01BE
:1030A000A41BB50BAD01421B530B22C1848195813A
:1030B000DC01A61BB70BBD016150710986819781A8
:1030C000DC01A41BB50BAD01421B530B6AC086810A
:1030D0009781DC01A61BB70BBD016150710908C1C6
:1030E00086819781681779070CF029C1552324F44C
:1030F000240F351F40E050E084819581FA01E20FF2
:10310000F31F8E179F071CF49C01241B350B12160E
:1031100013060CF014C1CB0177230CF40796959598
:10312000879595958795959587959695982F882756
:1031300097958795480F591F455D5E4FCB01877066
:10314000992761E070E002C0660F771F8A95E2F769
:10315000962F0130110549F090F00230110509F069
:10316000EEC0FA01240F351F15C0FA01240F351FD8
:103170008081892B8193E217F307D1F7E0C0609536
:10318000FA01240F351F808186238193E217F3070C
:10319000D1F7D5C0808189278193E217F307D1F752
:1031A000CEC077230CF4CBC0848195816817790752
:1031B0000CF0C5C0552324F4240F351F40E050E027
:1031C00086819781FA01E20FF31F8E179F071CF487
:1031D0009C01241B350B121613060CF0B0C0522FA5
:1031E000842F869586958695B0E88B9F600D711D1E
:1031F0001124FB01E55DFE4F477079F188E0841BE7
:10320000682F70E0DB01AD5DBE4F9C91281708F080
:1032100073C0621B71092FEF30E002C0359527950E
:103220006A95E2F792230130110529F040F002304F
:10323000110551F084C02081922B908308C0909595
:1032400020819223908303C0208192279083581776
:1032500008F475C0581BE058FF4F583058F1023041
:10326000110559F4DF01952F8C9180958C93A0580E
:10327000BF4F98509830C0F751C091E00130110510
:1032800009F090E09195DF01852F9C93A058BF4FE6
:1032900088508830D0F788EF850F8695869586957B
:1032A00090E001969695982F882797958795E80F37
:1032B000F91F5770552309F442C05770A52FB0E08D
:1032C000A55EBE4F8C910130110529F040F002300F
:1032D000110551F034C09081892B808330C08095D6
:1032E0009081892380832BC090818927808327C088
:1032F00077230CF0F5CE23C00130110509F49BCFE4
:1033000008F49DCF0230110509F49ECFA3CFA52F5D
:10331000A770B0E0A55EBE4F8C91E6CF88EF850F19
:1033200086958695869590E001969695982F8827A4
:1033300097958795E80FF91F852F877041F71F91A3
:103340000F910895CF92DF92EF92FF920F931F9308
:10335000CF93DF937C01EB018A016901DD230CF43B
:10336000A7C00E94DA16C817D9070CF0A1C0112314
:103370000CF49EC0C7010E94DE16081719070CF056
:1033800097C0C7010E94D716823069F08330E1F000
:10339000813019F5F70184819581801B910B8E0195
:1033A000EC0121971AC0F701848195819C012C1BA7
:1033B0003D0BE901219786819781FC01E01BF10B10
:1033C0008F010150110909C0F701868197818C1B7B
:1033D0009D0BE8018C0101501109F1E0CF16D104D9
:1033E00039F030F132E0C316D10409F442C060C0B4
:1033F000C80111230CF407969595879595958795A7
:10340000959587959695982F882797958795C80FB6
:10341000D91FC55DDE4F0770112781E090E002C023
:10342000880F991F0A95E2F79881892B888340C0FD
:10343000C80111230CF40796959587959595879566
:10344000959587959695982F882797958795C80F76
:10345000D91FC55DDE4F0770112781E090E002C0E3
:10346000880F991F0A95E2F78095988189238883B0
:103470001FC0C80111230CF4079695958795959563
:103480008795959587959695982F882797958795F1
:10349000C80FD91FC55DDE4F0770112781E090E08E
:1034A00002C0880F991F0A95E2F7988189278883BF
:1034B000DF91CF911F910F91FF90EF90DF90CF9010
:1034C00008951F93CF93DF93EC01162F40E450E053
:1034D00060E870E00E943A1587ED95E09983888353
:1034E0008FEF898F8D8F8B8F8A8F1C8FDF91CF917C
:1034F0001F91089580E094E0EBE2F1E0DF019C0190
:103500001D9221503040E1F70895CF93FC01818D49
:103510008F3F09F44AC0A3A1B4A19C9181A5892B36
:103520008C93A5A1B6A19C9182A5809589238C93AB
:10353000A3A1B4A19C9181A5809589238C93868DAC
:10354000882339F06EBD00000DB407FEFDCF8EB5A7
:1035500025C048E050E020E8A1A1B2A19C9180A53F
:10356000809589238C93822F862339F0A78DB0A173
:103570009C9187A1892B8C9307C0A78DB0A19C91AA
:1035800087A1809589238C93A1A1B2A19C9180A54C
:10359000892B8C93269541505109F1F6A3A1B4A132
:1035A0009C9181A5892B8C9317C0C62F6789062E05
:1035B000000C770B8FE697E00E94682760E08FE6AB
:1035C00097E00E9415276C2F8FE697E00E94152741
:1035D0008FE697E00E947D27CF9108950F931F9368
:1035E000CF93DF93EC01162F022F688F4F8B898DBD
:1035F0008F3F09F477C061E08B8D0E94EE2561E07A
:103600008D8D0E94EE258D8D082E000C990BFC01EE
:10361000EB5EF64FE491F0E0EE0FFF1FED5CF64F2E
:10362000259134913CA32BA3FC01EF5FF64FE4916D
:10363000E9A78B8D082E000C990BFC01EB5EF64F71
:10364000E491F0E0EE0FFF1FED5CF64F2591349111
:103650003EA32DA3FC01EF5FF64FE491EAA78E8D08
:10366000811137C061E0898D0E94EE2561E08A8D6D
:103670000E94EE258A8D082E000C990BFC01EB5E52
:10368000F64FE491F0E0EE0FFF1FED5CF64F259151
:1036900034913AA329A3FC01EF5FF64FE491E8A728
:1036A000898D082E000C990BFC01EB5EF64FE4911E
:1036B000F0E0EE0FFF1FED5CF64F2591349138A33B
:1036C0002F8FFC01EF5FF64FE491EFA38E8D8823DF
:1036D00069F00E9483268CB58C7F8CBD8DB581608E
:1036E0008DBD04C08FE697E00E9454270023E1F0CF
:1036F00061E08C8D0E94EE2561E08C8D0E942A266F
:1037000061E070E080E090E00E94E70560E08C8D71
:103710000E942A266AE070E080E090E00E94E705BF
:1037200061E08C8D0E942A266EEACE010E94851AE5
:1037300065EDCE010E94851A60E8CE010E94851ACF
:1037400068EACE010E94851A6FE3CE010E94851AB5
:1037500063EDCE010E94851A60E0CE010E94851AB9
:1037600060E4CE010E94851A6DE8CE010E94851AA0
:10377000113069F560E1CE010E94851A60E2CE0148
:103780000E94851A60E0CE010E94851A61EACE018E
:103790000E94851A68ECCE010E94851A6AEDCE015E
:1037A0000E94851A62E1CE010E94851A61E8CE016D
:1037B0000E94851A6FE9CE010E94851A69EDCE013B
:1037C0000E94851A62E2CE010E94851A2CC064E133
:1037D000CE010E94851A60E2CE010E94851A60E047
:1037E000CE010E94851A61EACE010E94851A68EC1A
:1037F000CE010E94851A6AEDCE010E94851A62E10F
:10380000CE010E94851A61E8CE010E94851A6FECF4
:10381000CE010E94851A69EDCE010E94851A61EFE2
:10382000CE010E94851A6BEDCE010E94851A60E4DC
:10383000CE010E94851A64EACE010E94851A66EACA
:10384000CE010E94851A6FEACE010E94851ADF918F
:10385000CF911F910F910895BF92CF92DF92EF9277
:10386000FF920F931F93CF93DF93EC0161E20E94CD
:10387000851A60E0CE010E94851A6FE7CE010E9492
:10388000851A62E2CE010E94851A60E0CE010E9494
:10389000851A67E0CE010E94851A898D8F3F09F451
:1038A00056C0EBA1FCA1908189A5892B8083EDA155
:1038B000FEA190818AA5892B8083EBA1FCA1808148
:1038C00099A5909589238083ABE2B1E06BE275E026
:1038D0006894FF24F3F800E010E85D918E8D882352
:1038E00039F05EBD00000DB407FEFDCF8EB525C0DA
:1038F0002F2D302F412FE9A1FAA1908188A5809525
:1039000089238083842F852339F0EF8DF8A190815E
:103910008FA1892B808307C0EF8DF8A190818FA1A3
:10392000809589238083E9A1FAA1908188A5892BBC
:103930008083469521503109F1F6A617B70769F63D
:10394000EBA1FCA1908189A5892B808338C0E8EB8D
:10395000F0E0B0808CE080830BE211E00F2EFBE200
:10396000CF2EF5E0DF2EF02D6F89062E000C770BA1
:103970008FE697E00E946827E0916F07F09170074B
:103980000190F081E02D60E48FE697E009957801E1
:1039900080E1E80EF11CF80161918F018FE697E05C
:1039A0000E941527E016F106B1F78FE697E00E9416
:1039B0007D278701EC14FD04B9F6B092B800DF91C1
:1039C000CF911F910F91FF90EF90DF90CF90BF901C
:1039D0000895CF92DF92EF92FF920F931F93CF93B0
:1039E000DF93C82F88E090E00E94752B6C0186E27F
:1039F000C89F90011124C9018A579E4FEC010E9473
:103A0000D32C8F3F41F448E050E066EE78E0C601E9
:103A10000E94AE2C0FC086017601E8E0EE0EF11C8C
:103A2000CE010E94D32CF80181938F012196EE15CF
:103A3000FF05B1F7C601DF91CF911F910F91FF9064
:103A4000EF90DF90CF900895CF92DF92EF92FF92A8
:103A50000F931F93CF93DF93C82F8AE090E00E94CB
:103A6000752BC82ED92E8DE0C89FE0011124CE0100
:103A70000E94D32C8F3F49F44AE050E060EE78E09A
:103A80008C2D9D2D0E94AE2C10C00C2D1D2D7E0165
:103A9000EAE0EE0EF11CCE010E94D32CF8018193D6
:103AA0008F012196CE15DF05B1F78C2D9D2DDF916D
:103AB000CF911F910F91FF90EF90DF90CF900895DD
:103AC00070E062577E4F9B0146E2849F200D311DBE
:103AD0001124C9010E94D32C8F3F09F480E008957E
:103AE0002DE0829FC00111240A960E94D32C0895D4
:103AF0002DE0829FC00111240B960E94D32C8F3F92
:103B000009F481E008952DE0829FC00111240C96F4
:103B10000E94D32C8F3F09F484E008951F93CF9324
:103B2000DF93EC010E94D32C182FCE0101960E9446
:103B3000D32C282F30E0922F8827810F911DDF9101
:103B4000CF911F9108951F93CF93DF93EC01162F10
:103B50000E94D32C181721F0612FCE010E94DB2C7C
:103B6000DF91CF911F910895EF92FF920F931F93D2
:103B7000CF93DF93EC01062F172FF72E0E94D32C43
:103B8000081721F0602FCE010E94DB2C2196CE0178
:103B90000E94D32CF81621F0612FCE010E94DB2C5D
:103BA000DF91CF911F910F91FF90EF900895EF92C9
:103BB000FF920F931F93CF93DF9326E2829FC00162
:103BC0001124EC01CA57DE4F8B017B0188E0E80E1F
:103BD000F11CF80161918F01CE010E94A31D219675
:103BE0000E151F05B1F7DF91CF911F910F91FF9037
:103BF000EF900895262F30E022573E4F642FA90101
:103C000076E2879F400D511D1124CA010E94A31D19
:103C10000895EF92FF920F931F93CF93DF939DE050
:103C2000899FE0011124062F172F7E01EAE0EE0E96
:103C3000F11CF80161918F01CE010E94A31D219614
:103C4000CE15DF05B1F7DF91CF911F910F91FF9056
:103C5000EF9008952DE0829FC00111240A960E94E2
:103C6000A31D08952DE0829FC00111240B960E9490
:103C7000A31D08952DE0829FC00111240C960E947F
:103C8000A31D0895EF92FF920F931F93CF93DF939D
:103C90000F2EF9E0EF2EF12CF02D23C06FEFCE01A7
:103CA0000E94A31D2196C017D107C1F760E0C7018C
:103CB0000E94A31D68E7C70101960E94A31D61E051
:103CC000C70102960E94A31D64E0C70103960E94EB
:103CD000A31D8DE0E80EF11C8FE8E81681E0F806E0
:103CE00021F0E70129978701D9CFDF91CF911F916B
:103CF0000F91FF90EF900895EF92FF920F931F9313
:103D0000CF93DF930F2EFDE8EF2EFF24F394F02DD9
:103D100021C06FEFCE010E94A31D2196C017D107CD
:103D2000C1F760E0C7010E94A31DE701219687014A
:103D3000015E1F4F6FEFCE010E94A31D21960C174D
:103D40001D07C1F786E2E80EF11C8FEFE81681E04F
:103D5000F80621F0E70127978701DBCFDF91CF91AC
:103D60001F910F91FF90EF9008951F920F920FB641
:103D70000F9211242F933F934F935F936F937F93F1
:103D80008F939F93AF93BF93EF93FF93E091BA0606
:103D9000F091BB060995FF91EF91BF91AF919F9173
:103DA0008F917F916F915F914F913F912F910F90E4
:103DB0000FBE0F901F901895FC01440F551F661FF2
:103DC000771F440F551F661F771F4115510581E06E
:103DD000680771051CF481E082834AC0689412F878
:103DE00075956795579547951694D1F741155105E7
:103DF00081E0680771051CF482E0828339C0689411
:103E000012F875956795579547951694D1F7411512
:103E1000510581E0680771051CF483E0828328C0A6
:103E200075956795579547957595679557954795F6
:103E30004115510581E0680771051CF484E0828317
:103E400017C07595679557954795759567955795DB
:103E500047954115510581E0680771051CF485E01F
:103E6000828306C085E082834FEF5FEF60E070E001
:103E70008FB78383F8945183408350938700409396
:103E8000860083818FBFA1E8B0E08C91887F8C93FE
:103E90009C918281892B8C9308950E94A22CFC0115
:103EA000918D228D892F90E0805C9F4F821B91091C
:103EB0008F7399270895FC01918D828D981731F0A9
:103EC000828DE80FF11D858D90E008958FEF9FEFB3
:103ED0000895FC01918D828D981761F0828DDF012C
:103EE000A80FB11D5D968C91928D9F5F9F73928FED
:103EF00090E008958FEF9FEF0895FC01538D448D5E
:103F0000252F30E0842F90E0821B930B541710F084
:103F1000CF96089501970895FC01848DDF01A80FC5
:103F2000B11DA35ABF4F2C91848D90E001968F73E1
:103F30009927848FA689B7892C93A089B1898C9100
:103F400080648C93938D848D981306C00288F389C6
:103F5000E02D80818F7D80830895CF93DF93EC01E6
:103F6000888D8823C9F0EA89FB89808185FD05C099
:103F7000A889B9898C9186FD0FC00FB607FCF5CFD3
:103F8000808185FFF2CFA889B9898C9185FFEDCF1B
:103F9000CE010E948C1FE7CFDF91CF910895EF9261
:103FA000FF920F931F93CF93DF93EC0181E0888FF3
:103FB0009B8D8C8D981305C0E889F989808185FDDA
:103FC00024C0F62E0B8D10E00F5F1F4F0F731127CB
:103FD000E02E8C8DE8120CC00FB607FCFACFE889F2
:103FE000F989808185FFF5CFCE010E948C1FF1CF2A
:103FF0008B8DFE01E80FF11DE35AFF4FF0820B8F0E
:10400000EA89FB898081806207C0EE89FF8960832D
:10401000E889F98980818064808381E090E0DF9184
:10402000CF911F910F91FF90EF900895CF92DF9263
:10403000EF92FF921F93CF93DF93EC016A017B0114
:10404000122F60E874E88EE190E0A70196010E94CB
:10405000142BDA01C9010197A109B109B695A795F9
:1040600097958795AC01E889F98982E080834115AD
:1040700080E15807A8F0E889F989108260E472E4C9
:104080008FE090E0A70196010E94142BBA01A901CC
:104090004150510961097109769567955795479582
:1040A000EC85FD855083EE85FF854083188EEC8975
:1040B000FD891083EA89FB89808180618083EA8998
:1040C000FB89808188608083EA89FB8980818068A0
:1040D0008083EA89FB8980818F7D8083DF91CF9106
:1040E0001F91FF90EF90DF90CF9008951F920F9255
:1040F0000FB60F9211242F938F939F93EF93FF93FB
:10410000E091CC06F091CD068081E091D206F0914D
:10411000D30682FD12C090818091D5068F5F8F7388
:104120002091D606821751F0E091D506F0E0E454D4
:10413000F94F958F8093D50601C08081FF91EF9153
:104140009F918F912F910F900FBE0F901F901895F8
:104150001F920F920FB60F9211242F933F934F93FC
:104160005F936F937F938F939F93AF93BF93EF93DF
:10417000FF938CEB96E00E948C1FFF91EF91BF9113
:10418000AF919F918F917F916F915F914F913F91EF
:104190002F910F900FBE0F901F901895ECEBF6E04B
:1041A0001382128288EE93E0A0E0B0E084839583CE
:1041B000A683B78383EF95E09183808385EC90E0BD
:1041C0009587848784EC90E09787868780EC90E0E1
:1041D000918B808B81EC90E0938B828B82EC90E0D2
:1041E000958B848B86EC90E0978B868B118E128E4C
:1041F000138E148E08950895CF92DF92EF92FF925E
:104200000F931F93CF93DF936C017A018B01C0E072
:10421000D0E0CE15DF0589F0D8016D918D01D60172
:10422000ED91FC910190F081E02DC6010995892B5B
:1042300011F47E0102C02196ECCFC701DF91CF912E
:104240001F910F91FF90EF90DF90CF90089561152F
:10425000710579F0FB0101900020E9F73197AF017A
:10426000461B570BDC01ED91FC910280F381E02DA0
:10427000099480E090E00895EF92FF920F931F93CE
:10428000CF93DF938C017B01C0E0D0E0F701EC0F0E
:10429000FD1F6491662361F0D801ED91FC910190BE
:1042A000F081E02DC8010995892B11F02196EECF00
:1042B000CE01DF91CF911F910F91FF90EF90089564
:1042C0000C942721DC01ED91FC910190F081E02D0F
:1042D000099461E076E00C9427210F931F93CF930C
:1042E000DF93EC010E943C218C01CE010E946921E8
:1042F000800F911FDF91CF911F910F9108950F9320
:104300001F93CF93DF93EC010E9427218C01CE01F4
:104310000E946921800F911FDF91CF911F910F9112
:1043200008954F925F926F927F92EF92FF920F9358
:104330001F93CF93DF93CDB7DEB7A1970FB6F89455
:10434000DEBF0FBECDBF7C01FA01CB0119A2223026
:1043500008F42AE08E010F5D1F4F422E512C612C74
:10436000712CBF01A30192010E94142BF901CA0113
:10437000015011096A3014F4605D01C0695CD80114
:104380006C93232B242B252B61F7B801C7010E94C6
:104390002721A1960FB6F894DEBF0FBECDBFDF91E7
:1043A000CF911F910F91FF90EF907F906F905F9052
:1043B0004F900895CF92DF92EF92FF920F931F9349
:1043C000CF93DF93EC016A017B012115310579F46C
:1043D000E881F9810190F081E02D642FDF91CF9188
:1043E0001F910F91FF90EF90DF90CF9009942A30AA
:1043F0003105E9F477FF1AC06DE20E9462218C0159
:1044000044275527BA014C195D096E097F092AE036
:10441000CE010E949121800F911FDF91CF911F91BA
:104420000F91FF90EF90DF90CF9008952AE0B701B1
:10443000A601CE01DF91CF911F910F91FF90EF90D8
:10444000DF90CF900C9491219A01AB01770F660B0E
:10445000770B0C94DA210F931F93CF93DF93EC012A
:104460009A01AB01770F660B770B0E94DA218C0162
:10447000CE010E946921800F911FDF91CF911F9182
:104480000F9108952115310541F4DC01ED91FC9166
:104490000190F081E02D642F09940C9491219A01F0
:1044A000462F50E060E070E00C9442229A01AB018C
:1044B00060E070E00C9442223F924F925F926F92C4
:1044C0007F928F929F92AF92BF92CF92DF92EF92A4
:1044D000FF920F931F93CF93DF9300D000D0CDB7FF
:1044E000DEB790912B05981721F09F3F09F036C257
:1044F00004C0ECEEF8E0349081C080932B05ECEE24
:10450000F8E0E491EF3F09F429C2E13031F1E23003
:1045100009F44BC0E11171C014BC15BC94B5926094
:1045200094BD95B5916095BDA82FB0E0FD01EB5EFF
:10453000F64FE491F0E0EE0FFF1FED5CF64F0591B2
:1045400014911093690700936807FD01EF5FF64F20
:10455000E491E0936707312C53C0109280001092D1
:1045600081009091810098609093810090918100EA
:10457000916090938100A82FB0E0FD01EB5EF64FB3
:10458000E491F0E0EE0FFF1FED5CF64F0591149102
:104590001093620700936107FD01EF5FF64FE4910E
:1045A000E0936007332433942BC01092B000109234
:1045B000B1009091B00092609093B0009091B100E2
:1045C00091609093B100A82FB0E0FD01EB5EF64F33
:1045D000E491F0E0EE0FFF1FED5CF64F05911491B2
:1045E00010935B0700935A07FD01EF5FF64FE491CC
:1045F000E093590702E0302E03C03E2E37FCAEC1D7
:1046000029013A018B0161E00E94EE254801A12CAD
:10461000B12C832D8D7F09F0BBC060E079E08DE384
:1046200090E0A50194010E94362B29833A834B83A5
:104630005C8369017A0121E0C21AD108E108F1081E
:104640008FEFC816D104E104F10409F008F44CC05E
:1046500060E271EA87E090E0A50194010E94362BA8
:1046600069017A01E1E0CE1AD108E108F108F2E02F
:104670003F1220C02FEFC216D104E104F10409F06B
:1046800008F46AC168E478EE81E090E0A501940145
:104690000E94362B69017A0181E0C81AD108E1082D
:1046A000F108EFEFCE16D104E104F10409F0D0F5E2
:1046B00083E067C0FFEFCF16D104E104F104B1F04D
:1046C000A8F064E274EF80E090E0A50194010E94FC
:1046D000362B69017A0181E0C81AD108E108F10896
:1046E000332009F4DFC02FC181E001C082E0332014
:1046F000A1F047C089819A81AB81BC812AE0B59540
:10470000A795979587952A95D1F76C017D0121E0B2
:10471000C21AD108E108F10885E095B5987F892B88
:1047200085BD6FC064E274EF80E090E0A501940164
:104730000E94362B69017A01F1E0CF1AD108E10815
:10474000F1082FEFC216D104E104F10409F008F4D6
:10475000A7C062E17AE780E090E0A50194010E94A1
:10476000362B69017A01E1E0CE1AD108E108F1089F
:10477000FFEFCF16D104E104F10411F008F0B4C04A
:1047800085E09091B100987F892B8093B10039C06A
:1047900060E079E08DE390E0A50194010E94362B62
:1047A00069017A0181E0C81AD108E108F108C11451
:1047B000D104E1E0EE06F10488F064E274EF80E0F9
:1047C00090E0A50194010E94362B69017A01F1E085
:1047D000CF1AD108E108F10893E001C091E021E08F
:1047E00032120FC080918100887F892B80938100D5
:1047F000411451046104710449F42FEF3FEFA90102
:104800002DC0411451046104710471F0D801AA0F44
:10481000BB1FA30192010E945B2B28EE33E040E016
:1048200050E00E94142B03C02FEF3FEFA90181E05D
:104830003816A1F0E2E03E1619F131108FC0C7BC66
:1048400020936A0730936B0740936C0750936D0772
:1048500080916E00826080936E0080C0D09289004B
:10486000C0928800209363073093640740936507E4
:104870005093660780916F00826080936F006EC0D6
:10488000C092B30020935C0730935D0740935E07AE
:1048900050935F07809170008260809370005EC0CB
:1048A00084E06FCFFFEFCF16D104E104F104D1F023
:1048B000C8F069E07DE380E090E0A50194010E94EA
:1048C000362B69017A0181E0C81AD108E108F108A4
:1048D000EFEFCE16D104E104F10411F008F00ACF95
:1048E00084E01BCF83E019CF69E07DE380E090E0B6
:1048F000A50194010E94362B69017A0181E0C81A52
:10490000D108E108F108EFEFCE16D104E104F1047B
:10491000C1F0B8F089819A81AB81BC814AE0B5953C
:10492000A795979587954A95D1F76C017D0121E070
:10493000C21AD108E108F108332009F4EDCE87E06E
:1049400020CF86E0D4CEFFEFCF16D104E104F104EE
:1049500009F050F684E0CBCE82E013CF0F900F9099
:104960000F900F90DF91CF911F910F91FF90EF90DB
:10497000DF90CF90BF90AF909F908F907F906F907F
:104980005F904F903F900895813039F018F0823059
:1049900051F0089510926E00089580916F008D7F00
:1049A00080936F000895809170008D7F80937000D8
:1049B00081E08093B0008091B100887F8460809313
:1049C000B1001092B3000895CF93C82F80912B05AA
:1049D0008C1307C0ECEEF8E0E4918FEF80932B0589
:1049E00001C0EFEF8E2F0E94C42460E08C2FCF9186
:1049F0000C942A261F920F920FB60F9211242F9318
:104A00003F934F935F936F937F938F939F93AF9356
:104A1000BF93EF93FF9380915C0790915D07A09106
:104A20005E07B0915F07892B8A2B8B2B51F1809108
:104A30005907E0915A07F0915B079081892780839D
:104A400080915C0790915D07A0915E07B0915F0730
:104A5000181619061A061B06C4F480915C0790917B
:104A60005D07A0915E07B0915F070197A109B109A9
:104A700080935C0790935D07A0935E07B0935F07F8
:104A800004C080912B050E94E424FF91EF91BF9117
:104A9000AF919F918F917F916F915F914F913F91D6
:104AA0002F910F900FBE0F901F9018950895823090
:104AB000E8F4E82FF0E0EE0FFF1FE45DFA4F71839A
:104AC0006083813041F0809169008C7F482B409356
:104AD0006900E89A089580916900440F551F440FBA
:104AE000551F837F482B40936900E99A08951F92D0
:104AF0000F920FB60F9211242F933F934F935F9312
:104B00006F937F938F939F93AF93BF93EF93FF9395
:104B1000E0912C05F0912D050995FF91EF91BF9142
:104B2000AF919F918F917F916F915F914F913F9145
:104B30002F910F900FBE0F901F9018951F920F92FC
:104B40000FB60F9211242F933F934F935F936F9360
:104B50007F938F939F93AF93BF93EF93FF93E091D6
:104B60002E05F0912F050995FF91EF91BF91AF911F
:104B70009F918F917F916F915F914F913F912F9175
:104B80000F900FBE0F901F901895833081F028F47E
:104B9000813099F08230A1F008958730A9F08830F3
:104BA000B9F08430D1F4809180008F7D03C0809172
:104BB00080008F7780938000089584B58F7702C03E
:104BC00084B58F7D84BD08958091B0008F7703C038
:104BD0008091B0008F7D8093B0000895CF93DF93D4
:104BE00090E0FC01EF5FF64F2491FC01EB5EF64F85
:104BF0008491882361F190E0880F991FFC01E35CA8
:104C0000F64FC591D491FC01ED5CF64FA591B4919E
:104C1000611109C09FB7F894888120958223888309
:104C2000EC912E230BC0623061F49FB7F894388169
:104C3000822F809583238883EC912E2B2C939FBF0A
:104C400006C08FB7F894E8812E2B28838FBFDF91A1
:104C5000CF9108951F93CF93DF93282F30E0F90170
:104C6000E351F74F8491F901EF5FF64FD491F901C9
:104C7000EB5EF64FC491CC23C9F0162F81110E9430
:104C8000C525EC2FF0E0EE0FFF1FED5CF64FA59170
:104C9000B4918FB7F894111105C09C91ED2FE09558
:104CA000E92302C0EC91ED2BEC938FBFDF91CF9104
:104CB0001F910895CF93DF93282F30E0F901E3513E
:104CC000F74F8491F901EF5FF64FD491F901EB5E54
:104CD000F64FC491CC2391F081110E94C525EC2F91
:104CE000F0E0EE0FFF1FE75DF64FA591B491EC9158
:104CF000ED2381E090E021F480E002C080E090E0CC
:104D0000DF91CF910895CF93CFB7F89480916E073C
:104D1000811127C0EFE1F9E08491EBE0F9E0949193
:104D2000E82FF0E0EE0FFF1FE35CF64FA591B49182
:104D3000EC91E92321F461E08AE00E942A2661E0F7
:104D40008AE00E94EE258CB580618CBD8CB58064B4
:104D50008CBD61E08DE00E94EE2561E08BE00E9459
:104D6000EE2580916E078F5F80936E07CFBFCF9146
:104D7000089580919F0790E02091A007821B9109E0
:104D800008959091A00780919F07981750F4E92FFC
:104D9000F0E0EF55F84F208130E09F5F9093A0073F
:104DA00002C02FEF3FEFC9010895E091A007809165
:104DB0009F07E81730F4F0E0EF55F84F808190E05E
:104DC00008958FEF9FEF08950895CF92DF92EF92AD
:104DD000FF920F931F93CF93DF937C01262F972F82
:104DE0008A0180917B07882391F0C62FD72F6E010F
:104DF000C40ED51ECC15DD0571F06991D701ED917A
:104E0000FC910190F081E02DC7010995F3CF642F4B
:104E1000822F0E94F827C801DF91CF911F910F9137
:104E2000FF90EF90DF90CF900895CF93DF931F9284
:104E3000CDB7DEB7698320917B072223D1F0209183
:104E40007C07203240F021E030E0FC0133832283F4
:104E500080E090E015C080917D07E82FF0E0E258F7
:104E6000F84F998190838F5F80937D0780937C07B3
:104E700005C061E0CE0101960E94F82781E090E034
:104E80000F90DF91CF910895FC011382128288EE7A
:104E900093E0A0E0B0E084839583A683B78384E1A8
:104EA00096E09183808308951092A00710929F0747
:104EB00010927D0710927C070C94842781E08093E8
:104EC0007B0760939E0710927D0710927C070895E0
:104ED0000C945E270F93062F21E040917C076EE72C
:104EE00077E080919E070E94A22710927D07109282
:104EF0007C0710927B070F91089561E00C946A275C
:104F00008FE697E00C94442710922E0881E080935E
:104F10002C0810922B0861E082E10E942A2661E0B1
:104F200083E10E942A26E9EBF0E080818E7F808376
:104F300080818D7F808380E28093B80085E48093B8
:104F4000BC0008950F93413208F04AC090912E089A
:104F50009111FCCF32E030932E0800932C083FEFE4
:104F60003093C1071092060840930508FB0167E0E3
:104F700078E0DB013A2F361B341718F431913D935A
:104F8000F9CF10922D0830912D08880F832B809334
:104F90002D0880912B08813061F410922B088091AC
:104FA0002D088093BB008091BC0083FDF8CF85EC79
:104FB00001C085EE8093BC00222321F080912E0851
:104FC0008230D1F38091C1078F3F79F08091C10782
:104FD000803241F08091C107803331F094E005C008
:104FE00091E003C092E001C093E0892F0F910895F2
:104FF0004091E307262F30E0240F311D2132310587
:10500000DCF420912E082430C9F4FC0180E090E00B
:10501000861758F43091E3072191DC01AB51B84F6A
:10502000A30FB11D2C930196F3CF8091E307680F76
:105030006093E30780E0089581E0089582E0089599
:1050400085ED8093BC008091BC0084FDFCCF109264
:105050002E08089585EC8093BC0010922E080895C8
:105060001F920F920FB60F9211242F933F934F93DD
:105070005F936F937F938F939F93AF93BF93EF93C0
:10508000FF938091B900887F803609F49EC078F53F
:10509000883209F45DC090F4803109F456C038F4C8
:1050A000882309F4F5C0883009F44FC0F5C0883171
:1050B00009F44EC0803209F45FC0EEC0803409F4B8
:1050C0006AC058F4803309F457C0883309F0E4C04B
:1050D0008093C1070E942A28DFC0803509F44FC0A1
:1050E000883509F45DC0883409F0D6C0D3C088394A
:1050F00009F4C4C0A8F4883709F467C038F48836C6
:1051000009F463C0803709F460C0C6C0883809F468
:10511000B5C0803909F45FC0803809F0BDC05BC0FC
:10512000803B09F483C038F4803A09F466C0883AB9
:1051300009F47CC0B1C0803C09F4A4C0883C09F4E7
:10514000A1C0883B09F487C0A7C080912D0810C07A
:105150009091060880910508981770F5E09106086F
:1051600081E08E0F80930608F0E0E95FF74F8081C1
:105170008093BB0085EC83C08093C1078BC0E09116
:10518000060881E08E0F809306088091BB00F0E056
:10519000E95FF74F808390910608809105086BC006
:1051A000E091060881E08E0F809306088091BB0095
:1051B000F0E0E95FF74F808380912C0881116AC08D
:1051C00081E080932B0884EA5EC083E080932E0800
:1051D0001092C207CFCF8091C207803208F04EC034
:1051E000E091C20781E08E0F8093C2078091BB00DF
:1051F000F0E0ED53F84F8083BDCF0E942A288091C4
:10520000C207803230F4E091C207F0E0ED53F84F6E
:1052100010826091C20770E0E0912708F0912808A1
:1052200083EC97E009951092C20736C084E0809322
:105230002E081092E4071092E307E0912908F091FC
:105240002A0809958091E307811105C081E08093C8
:10525000E3071092E507E091E40781E08E0F809369
:10526000E407F0E0EB51F84F80818093BB00909110
:10527000E4078091E307981708F47CCF85E88093D2
:10528000BC000AC085EC8093BC0010922E0804C0BC
:105290001092C1070E942028FF91EF91BF91AF911A
:1052A0009F918F917F916F915F914F913F912F913E
:1052B0000F900FBE0F901F9018950E9471290C94AB
:1052C000592A0E94522A58F00E944B2A40F029F491
:1052D0005F3F29F00C94422A51110C948D2A0C94B2
:1052E000482A0E946A2A68F39923B1F3552391F35F
:1052F000951B550BBB27AA2762177307840738F045
:105300009F5F5F4F220F331F441FAA1FA9F335D0A1
:105310000E2E3AF0E0E832D091505040E695001C55
:10532000CAF72BD0FE2F29D0660F771F881FBB1F0F
:10533000261737074807AB07B0E809F0BB0B802DED
:10534000BF01FF2793585F4F3AF09E3F510578F019
:105350000C94422A0C948D2A5F3FE4F3983ED4F3D8
:10536000869577956795B795F7959F5FC9F7880FED
:10537000911D9695879597F90895E1E0660F771F3F
:10538000881FBB1F621773078407BA0720F0621BD0
:10539000730B840BBA0BEE1F88F7E09508950E94FB
:1053A000D6296894B1110C948D2A08950E94722A0E
:1053B00088F09F5798F0B92F9927B751B0F0E1F0D6
:1053C000660F771F881F991F1AF0BA95C9F714C086
:1053D000B13091F00E948C2AB1E008950C948C2A8F
:1053E000672F782F8827B85F39F0B93FCCF38695BF
:1053F00077956795B395D9F73EF49095809570951C
:1054000061957F4F8F4F9F4F0895E89409C097FB98
:105410003EF490958095709561957F4F8F4F9F4F8B
:105420009923A9F0F92F96E9BB279395F6958795CF
:1054300077956795B795F111F8CFFAF4BB0F11F492
:1054400060FF1BC06F5F7F4F8F4F9F4F16C0882339
:1054500011F096E911C0772321F09EE8872F762F6F
:1054600005C0662371F096E8862F70E060E02AF0B0
:105470009A95660F771F881FDAF7880F969587959C
:1054800097F9089597F99F6780E870E060E00895C4
:105490009FEF80EC089500240A941616170618064C
:1054A0000906089500240A94121613061406050628
:1054B0000895092E0394000C11F4882352F0BB0FB9
:1054C00040F4BF2B11F460FF04C06F5F7F4F8F4F1C
:1054D0009F4F089557FD9058440F551F59F05F3F57
:1054E00071F04795880F97FB991F61F09F3F79F006
:1054F00087950895121613061406551FF2CF469588
:10550000F1DF08C0161617061806991FF1CF869509
:105510007105610508940895E894BB2766277727ED
:10552000CB0197F908950E94A62A0C94592A0E944B
:105530004B2A38F00E94522A20F0952311F00C9447
:10554000422A0C94482A11240C948D2A0E946A2A1B
:1055500070F3959FC1F3950F50E0551F629FF001C6
:10556000729FBB27F00DB11D639FAA27F00DB11DDF
:10557000AA1F649F6627B00DA11D661F829F222768
:10558000B00DA11D621F739FB00DA11D621F839FEF
:10559000A00D611D221F749F3327A00D611D231FC5
:1055A000849F600D211D822F762F6A2F11249F5713
:1055B00050409AF0F1F088234AF0EE0FFF1FBB1F16
:1055C000661F771F881F91505040A9F79E3F5105D5
:1055D00080F00C94422A0C948D2A5F3FE4F3983EAD
:1055E000D4F3869577956795B795F795E7959F5F7F
:1055F000C1F7FE2B880F911D9695879597F9089511
:10560000AA1BBB1B51E107C0AA1FBB1FA617B707E8
:1056100010F0A61BB70B881F991F5A95A9F7809504
:105620009095BC01CD010895A1E21A2EAA1BBB1BC7
:10563000FD010DC0AA1FBB1FEE1FFF1FA217B3075E
:10564000E407F50720F0A21BB30BE40BF50B661F74
:10565000771F881F991F1A9469F760957095809538
:1056600090959B01AC01BD01CF010895052E97FBDC
:105670001EF400940E944D2B57FD07D00E94142B5E
:1056800007FC03D04EF40C944D2B5095409530956B
:1056900021953F4F4F4F5F4F08959095809570959E
:1056A00061957F4F8F4F9F4F0895EE0FFF1F05901D
:1056B000F491E02D09940E94662BA59F900DB49F54
:1056C000900DA49F800D911D11240895A29FB001FB
:1056D000B39FC001A39F700D811D1124911DB29F26
:1056E000700D811D1124911D0895CF93DF93823099
:1056F000910510F482E090E0E0913108F0913208D9
:1057000020E030E0C0E0D0E0309711F140815181DD
:1057100048175907C0F04817590761F482819381EF
:10572000209719F09B838A832BC090933208809333
:10573000310826C02115310519F04217530718F416
:105740009A01BE01DF01EF010280F381E02DDCCF81
:105750002115310509F1281B390B2430310590F44E
:1057600012968D919C9113976115710521F0FB01A3
:105770009383828304C09093320880933108FD01A3
:10578000329644C0FD01E20FF31F819391932250A2
:1057900031092D933C933AC020912F083091300865
:1057A000232B41F420910201309103013093300802
:1057B00020932F082091000130910101211531051E
:1057C00041F42DB73EB74091040150910501241BCF
:1057D000350BE0912F08F0913008E217F307A0F4A1
:1057E0002E1B3F0B2817390778F0AC014E5F5F4F37
:1057F0002417350748F04E0F5F1F50933008409331
:105800002F088193919302C0E0E0F0E0CF01DF9197
:10581000CF9108950F931F93CF93DF93009709F4CF
:105820008CC0FC01329713821282009131081091D2
:1058300032080115110581F420813181820F931FF7
:1058400020912F08309130082817390779F5F09307
:105850003008E0932F0871C0D80140E050E0AE1747
:10586000BF0750F412962D913C911397AD0121156D
:10587000310509F1D901F3CF9D01DA013383228388
:1058800060817181860F971F8217930769F4EC017D
:1058900028813981260F371F2E5F3F4F31832083A8
:1058A0008A819B8193838283452B29F4F09332086C
:1058B000E093310842C01396FC93EE931297ED01EA
:1058C000499159919E01240F351FE217F30771F496
:1058D00080819181840F951F029611969C938E93DF
:1058E0008281938113969C938E931297E0E0F0E06F
:1058F000D80112968D919C911397009719F0F80199
:105900008C01F6CF8D919C9198012E5F3F4F820FB5
:10591000931F20912F08309130082817390769F418
:10592000309729F4109232081092310802C0138285
:1059300012821093300800932F08DF91CF911F91AE
:105940000F91089581E090E0F8940C94E92CFB010C
:10595000DC0105900D920020E1F70895FB01DC01C8
:105960004150504048F005900D920020C9F701C009
:105970001D9241505040E0F70895FB01DC01019079
:105980000D920020E1F70895FB01DC0141505040E9
:1059900048F001900D920020C9F701C01D924150BE
:1059A0005040E0F70895F999FECF92BD81BDF89A75
:1059B000992780B50895262FF999FECF1FBA92BD79
:1059C00081BD20BD0FB6F894FA9AF99A0FBE0196E0
:0659D0000895F894FFCFDA
:1059D60000003308800080841E003C00020001B8ED
:1059E60001040001003200A0000101000103070FBD
:1059F6001F3F7F0080C0E0F0F8FCFE0000000000C2
:105A06000000000000000000000000000000000090
:105A16000000000000000000000000000000000080
:105A26000000000000000000000000000000000070
:105A360000000000000000000000808080000000E0
:105A46000000000000000000000000008080C0C0D0
:105A56000000000000000000000000000000000040
:105A66000000000000000000000000000000000030
:105A76000000000000000000000000000000000020
:105A86000000000000000000000000000000008090
:105A9600C0E0F0F8FCF8E0000000000000000000A4
:105AA6000000000000000000808080808000808070
:105AB60000000000808080808000FFFFFF00000063
:105AC600008080808000008080000080FFFF808052
:105AD60000808000808080800080800000000000C0
