:100000000C94DE040C948C210C94B9210C948F2850
:100010000C94B9280C94E3280C9406050C94F71E54
:100020000C9406050C9406050C9406050C94060524
:100030000C9406050C9406050C9406050C94060514
:100040000C94E6210C9406050C9406050C94060508
:100050000C9406050C9406050C9406050C940605F4
:100060000C9476260C940605B20DCE0DEA0DF70D14
:10007000150E4B0E750E7F0E930EA90DD30E080FA5
:10008000270F560F6A0F740FC20FF80F11103E1092
:10009000581062109610D910F010071143616E616C
:1000A0006C204D6964693A00456C696765206C6134
:1000B0002063616E63696F6E3A005469706F20430C
:1000C0006F6D7061733A00202042504D00456C699D
:1000D000676520656C2074656D706F3A004E6F6DBA
:1000E0006272652063616E63696F6E3A00456C6988
:1000F0006765206C612063616E63696F6E3A0042D0
:100100006F727261722063616E63696F6E0043612A
:100110006E63696F6E206120696E736572746172BF
:100120003A00496E7365727461722064657370750C
:1001300065732064653A00456C696765206C6120D1
:1001400063616E63696F6E3A00506F736963696FC4
:100150006E2061206564697461723A00456C69675C
:1001600065206C6120706F736963696F6E3A004E31
:100170006F6D627265207265706572746F72696FFF
:100180003A00456C696765207265706572746F72BC
:10019000696F3A005354415254002042504D0A0AAC
:1001A000005354415254002042504D0A0A000000AE
:1001B0000000003FF000007FF80300E01C0700E0B3
:1001C0001C0E00C30C7C00C30C9801C00E8401837C
:1001D0000644018006F4038307C003800380030301
:1001E000070003000F8007031F8006031D8006031E
:1001F00039800E0371C00E03E0C00C0FC0C01C108C
:1002000030E01C2010601840086018400860387FFB
:10021000F8703C0000F03FFFFFF07FFFFFF87FFF2A
:10022000FFF87FFFFFF87FFFFFF87FFFFFF87FFFFA
:10023000FFF86A027602800288029B02AD02C102C8
:10024000D002DE02EC02FD020E031B031E0321039B
:100250003003410350035E036F037E038003820378
:1002600085038A039803A303AE0352657065727415
:100270006F72696F730043616E63696F6E657300BF
:10028000416A75737465730043616D6269617220C0
:100290005265706572746F72696F0045646974614C
:1002A00072205265706572746F72696F00456C6977
:1002B0006D696E6172205265706572746F72696FDC
:1002C0000043616D62696172204E6F6D62726500FC
:1002D00043616D62696172204F7264656E004361B3
:1002E0006D62696172204F7264656E00496E73655C
:1002F000727461722043616E63696F6E00456C6950
:100300006D696E61722043616E63696F6E00566144
:1003100063696172204F7264656E004E4F005349ED
:10032000004564697461722043616E63696F6E0099
:10033000456C696D696E61722043616E63696F6EB1
:100340000043616D62696172204E6F6D627265007B
:1003500043616D626961722054656D706F00436125
:100360006D62696172204469766973696F6E0043DA
:10037000616D6269617220436F6D7061730034005A
:1003800038003136004D6F646F005469636B732021
:10039000696775616C65730043616E616C204D69BE
:1003A0006469005265706572746F72696F004D65A3
:1003B00074726F6E6F6D6F0000000000003E5B4F47
:1003C0005B3E3E6B4F6B3E1C3E7C3E1C183C7E3CB5
:1003D000181C577D571C1C5E7F5E1C00183C1800C3
:1003E000FFE7C3E7FF0018241800FFE7DBE7FF3053
:1003F000483A060E2629792926407F050507407FC1
:1004000005253F5A3CE73C5A7F3E1C1C08081C1C33
:100410003E7F14227F22145F5F005F5F06097F0129
:100420007F006689956A606060606094A2FFA29414
:1004300008047E040810207E201008082A1C0808E2
:100440001C2A08081E101010100C1E0C1E0C303830
:100450003E3830060E3E0E06000000000000005F31
:1004600000000007000700147F147F14242A7F2A4D
:10047000122313086462364956205000080703000F
:10048000001C2241000041221C002A1C7F1C2A085B
:10049000083E0808008070300008080808080000BE
:1004A00060600020100804023E5149453E00427F32
:1004B000400072494949462141494D331814127F81
:1004C0001027454545393C4A494931412111090721
:1004D0003649494936464949291E000014000000A2
:1004E0004034000000081422411414141414004174
:1004F00022140802015909063E415D594E7C121131
:10050000127C7F494949363E414141227F41414168
:100510003E7F494949417F090909013E41415173E3
:100520007F0808087F00417F41002040413F017F54
:10053000081422417F404040407F021C027F7F041C
:1005400008107F3E4141413E7F090909063E415165
:10055000215E7F09192946264949493203017F0155
:10056000033F4040403F1F2040201F3F4038403F56
:10057000631408146303047804036159494D43006C
:100580007F4141410204081020004141417F0402A3
:10059000010204404040404000030708002054543A
:1005A00078407F2844443838444444283844442818
:1005B0007F385454541800087E090218A4A49C786B
:1005C0007F0804047800447D40002040403D007FC7
:1005D0001028440000417F40007C047804787C08A7
:1005E0000404783844444438FC182424181824247B
:1005F00018FC7C08040408485454542404043F4460
:10060000243C4040207C1C2040201C3C4030403C8E
:1006100044281028444C9090907C4464544C4400EE
:100620000836410000007700000041360800020152
:100630000204023C2623263C1EA1A161123A40403E
:10064000207A3854545559215555794122545478BB
:1006500042215554784020545579400C1E52721254
:1006600039555555593954545459395554545800DD
:1006700000457C410002457D420001457C407D12E1
:1006800011127DF0282528F07C5455450020545443
:100690007C547C0A097F4932494949323A444444EE
:1006A0003A324A4848303A4141217A3A4240207829
:1006B000009DA0A07D3D4242423D3D4040403D3C2A
:1006C00024FF2424487E4943662B2FFC2F2BFF094F
:1006D00029F620C0887E0903205454794100004443
:1006E0007D413048484A32384040227A007A0A0A2E
:1006F000727D0D19317D2629292F282629292926A1
:1007000030484D4020380808080808080808382FE5
:1007100010C8ACBA2F102834FA00007B000008146F
:100720002A142222142A1408AA005500AAAA55AA9B
:1007300055AA000000FF00101010FF00141414FF51
:10074000001010FF00FF1010F010F0141414FC0043
:100750001414F700FF0000FF00FF1414F404FC144D
:100760001417101F10101F101F1414141F00101046
:1007700010F0000000001F101010101F10101010BB
:10078000F010000000FF101010101010101010FFDB
:1007900010000000FF140000FF00FF00001F1017F2
:1007A0000000FC04F414141710171414F404F400DB
:1007B00000FF00F714141414141414F700F71414A1
:1007C00014171410101F101F141414F4141010F028
:1007D00010F000001F101F0000001F14000000FC9C
:1007E000140000F010F01010FF10FF141414FF1488
:1007F0001010101F00000000F010FFFFFFFFFFF0BF
:10080000F0F0F0F0FFFFFF0000000000FFFF0F0F0F
:100810000F0F0F3844443844FC4A4A4A347E0202DF
:100820000606027E027E0263554941633844443C19
:1008300004407E201E2006027E020299A5E7A599AB
:100840001C2A492A1C4C7201724C304A4D4D3030E2
:1008500048784830BC625A463D3E494949007E01CD
:1008600001017E2A2A2A2A2A44445F444440514AEC
:10087000444040444A51400000FF0103E080FF0033
:100880000008086B6B083612362436060F090F066F
:10089000000018180000001010003040FF01010097
:1008A0001F01011E00191D1712003C3C3C3C0000BA
:1008B000000000566163696F00564143494F0002D2
:1008C00000000000240027002A000000000025008E
:1008D00028002B000000000023002600290004044B
:1008E00004040404040402020202020203030303D8
:1008F00003030102040810204080010204081020B4
:10090000010204081020000000070002010000039B
:100910000406000000000000000000C20100010009
:1009200005000500030000E1000001000F000F00BA
:100930000D0000960000020019001A001700127A3C
:1009400000000700200021001D00807000000B0047
:10095000230023002000004B000014003700370064
:100960003400403800001E004B004B00480080253A
:1009700000003200720072007000C01200006E00B1
:10098000E900E900E60060090000E500D801D801AF
:10099000D501B0040000D301B403B403B10358027D
:1009A0000000B4036707670762072C0100006707B0
:1009B000DD0EDD0EDA0E58056C25510511241FBE23
:1009C000CFEFD8E0DEBFCDBF15E0A0E0B1E0E8E7B3
:1009D000F8E502C005900D92A43FB107D9F717E0E2
:1009E000A4EFB5E001C01D92A23BB107E1F719E009
:1009F000CAEBD9E004C02297FE010E942B2CC63B13
:100A0000D107C9F70E94D61C0C942F2C0C9400001F
:100A1000FB01DC0105900D920020E1F70895FB0138
:100A2000DC014150504048F005900D920020C9F77C
:100A300001C01D9241505040E0F70895FB01DC01D8
:100A400001900D920020E1F70895FB01DC01415077
:100A5000504048F001900D920020C9F701C01D924E
:100A600041505040E0F708958130910581F46F5F67
:100A70007F4FB1F484EF95E064E00E94981A81E61C
:100A800096E067E046E020E00E94782B0895892BED
:100A900039F46F5F7F4F21F481E696E00E94FF29D1
:100AA000089580E090E06FEF7FEF0E943405089595
:100AB00081E090E06FEF7FEF0E943405089589EAAE
:100AC00096E06BEF71E00E94F7248F3F11F0809366
:100AD000530689EA96E06CEF71E00E94F7248F3F9D
:100AE00011F080935E0689EA96E06DEF71E00E9456
:100AF000F7248F3F11F080937D060895DF92EF92E7
:100B0000FF920F931F938091600660915F060E9491
:100B1000A61BD82E0E943C1C7C010DE316E0C801E8
:100B2000B7010E941E05C7010E945F248D2D0E94FF
:100B30009B1BF80182878D2D0E948D1BF8018387F6
:100B40008D2D0E947F1BF80184871F910F91FF90CC
:100B5000EF90DF9008950F931F93809160060E949D
:100B60008C1C8C018AE496E0B8010E941E05C80125
:100B70000E945F241F910F910895AF92BF92CF9270
:100B8000DF92EF92FF920F931F93DF93CF93CDB736
:100B9000DEB76E970FB6F894DEBF0FBECDBF809163
:100BA0005406882321F0813009F065C4FAC0809191
:100BB0005306882321F0813009F05DC494C004EF0E
:100BC00015E0C8010E94B117C80160E070E040E084
:100BD00050E00E94C614C80161E070E040E050E0BF
:100BE0000E94D8146091600670E06F5F7F4FC8016B
:100BF0004AE050E00E94771E0F2EF0E0EF2EF1E069
:100C0000FF2EF02DC801B7010E94A91EC8016AE499
:100C100076E00E94A91EC80162E071E00E94A91E50
:100C200060915F0670E06F5F7F4FC8014AE050E05F
:100C30000E94771EC801B7010E94A91EC8016DE37A
:100C400076E00E94A91EC80164E071E00E94A91E1E
:100C5000C80162E00E94CC146091160170911701E6
:100C6000C8014AE050E00E94F61DC80167EA71E041
:100C70000E94101DC80161E00E94CC1460911C010B
:100C800070911D01C8014AE050E00E94F61DC801A4
:100C900067E071E00E94A91E60911A0170911B012A
:100CA000660F771F660F771FC8014AE050E00E9469
:100CB000F61DC80169E071E00E94A91E80915D06E1
:100CC000882331F0C80161EA71E00E94101D06C05E
:100CD00084EF95E060E171E00E94A91E84EF95E049
:100CE0000E945C18C8C304EF15E0C8010E94B11748
:100CF000C80160E070E040E050E00E94C614C80106
:100D000061E070E040E050E00E94D814C80162E069
:100D10000E94CC146091160170911701C8014AE03D
:100D200050E00E94F61DC8016AE971E00E94101DA2
:100D3000C80161E00E94CC1460911C0170911D01FA
:100D4000C8014AE050E00E94F61DC80167E071E06A
:100D50000E94A91E60911A0170911B01660F771FF6
:100D6000660F771FC8014AE050E00E94F61DC801D7
:100D700069E071E00E94A91E80915D06882331F030
:100D8000C80164E971E00E94101D06C084EF95E07F
:100D900060E171E00E94A91E84EF95E00E945C185A
:100DA0006AC304EF15E0C8010E94B117C80160E0F2
:100DB00070E040E050E00E94C614E0918006EA3006
:100DC00009F4BCC1EB3088F4E63009F4E8C0E73040
:100DD00028F4E23051F1E430E1F470C0E83009F475
:100DE0005CC1E93008F087C108C1E13109F468C28B
:100DF000E23130F4EE3009F4CFC1E03151F4EFC10B
:100E0000E43109F49BC2E93109F4C2C2E33109F4C7
:100E100077C2F0E0EE0FFF1FEE0FFF1FE45CFA4F0A
:100E20008081882309F0CFC222C304EF15E0C801F6
:100E300061E070E040E050E00E94D814C80162E830
:100E400071E00E94531DEE24FF2468010F2EF0E094
:100E5000AF2EF1E0BF2EF02D8091810690E08E152F
:100E60009F0541F4C60160E070E041E050E00E945F
:100E7000D81407C0C60161E070E040E050E00E9475
:100E8000D8148E2D0E948C1C8C010894E11CF11C3E
:100E9000C601B7014AE050E00E94771EC601B501C5
:100EA0000E94A91EC601B8010E94AC1EC8010E9482
:100EB0005F2483E0E816F10479F6D9C204EF15E067
:100EC000C80161E070E040E050E00E94D814C80121
:100ED0006FE671E00E94531D80917E0690917F061F
:100EE0001816190654F580918206209183063091D8
:100EF0008406F901E80FF11D8081882311F480E256
:100F00008083809182062091830630918406F901C6
:100F1000E80FF11D80818A3711F488ED80832091DC
:100F200082068091830690918406FC01E20FF11DF8
:100F300080818A3710F48F5F808380917E06909144
:100F40007F0699239CF420918206809183069091DC
:100F50008406FC01E20FF11D8081883D19F48AE7C7
:100F6000808304C0813210F08150808304EF15E04B
:100F70006091830670918406C8010E94AC1E609146
:100F8000820686E0689FB0011124C8014FE050E05E
:100F900026E030E001E010E00E94EA1468C204EFAD
:100FA00015E0C8016CE571E00E94531DC80161E0C5
:100FB00070E040E050E00E94D8148091600660919B
:100FC00081060E94A61B0E943C1C7C016091810648
:100FD00070E06F5F7F4FC8014AE050E00E94771ECB
:100FE000C80160E071E00E94A91EC801B7010E941B
:100FF000AC1EC7010E945F243AC204EF15E0C8018D
:1010000069E471E00E94531D80916006609185063D
:101010000E94A61B0E943C1C7C016091850670E02A
:101020006F5F7F4FC8014AE050E00E94771E0F2E8D
:10103000F0E0CF2EF1E0DF2EF02DC801B6010E94C6
:10104000A91EC801B7010E94AC1EC80162E071E090
:101050000E94AC1EC80167E371E00E94531DC701E6
:101060000E945F24809181060E943C1C7C0160915B
:10107000850670E06F5F7F4FC8014AE050E00E9434
:10108000771EC801B6010E94A91EC801B7010E94BF
:10109000AC1EC7010E945F24EAC104EF15E0C8013D
:1010A00062E271E00E94531DC80161E070E040E01F
:1010B00050E00E94D81480916006609181060E94E1
:1010C000A61B0E943C1C7C016091810670E06F5F52
:1010D0007F4FC8014AE050E00E94771EC80160E0DF
:1010E00071E00E94A91EC801B7010E94AC1EC70191
:1010F0000E945F24BCC104EF15E0C8016EE071E0FE
:101100000E94531D809181060E943C1C7C016091CD
:10111000850670E06E5F7F4FC8014AE050E00E9494
:10112000771EC80160E071E00E94A91EC801B701E6
:101130000E94AC1EC7010E945F2499C104EF15E014
:10114000C8016FEF70E00E94531DC80161E070E0BC
:1011500040E050E00E94D8148091600660918106C2
:101160000E94A61B0E943C1C7C016091810670E0DD
:101170006F5F7F4FC8014AE050E00E94771EC801B0
:1011800060E071E00E94A91EC801B7010E94AC1E78
:10119000C7010E945F246BC104EF15E0C8016DEE2A
:1011A00070E00E94531D809181060E943C1C7C01CE
:1011B0006091810670E06F5F7F4FC8014AE050E0A8
:1011C0000E94771EC80160E071E00E94A91EC8015C
:1011D000B7010E94AC1EC7010E945F2448C104EF02
:1011E00015E0C80161E070E040E050E00E94D814D2
:1011F000C8016DED70E00E94531D80917E069091B4
:101200007F061816190654F58091820620918306F0
:1012100030918406F901E80FF11D8081882311F4D3
:1012200080E280838091820620918306309184063B
:10123000F901E80FF11D80818A3711F488ED808370
:10124000209182068091830690918406FC01E20F32
:10125000F11D80818A3710F48F5F808380917E0634
:1012600090917F0699239CF42091820680918306B9
:1012700090918406FC01E20FF11D8081883D19F4F4
:101280008AE7808304C0813210F08150808304EFAC
:1012900015E06091830670918406C8010E94AC1E1F
:1012A0006091820686E0689FB0011124C8014FE07A
:1012B00050E026E030E001E010E00E94EA14D7C0E0
:1012C00004EF15E0C80161E070E040E050E00E94EA
:1012D000D814C8016DEC70E00E94531DC80162E093
:1012E00071E00E94AC1EC801609181064AE050E0A6
:1012F0000E94071EC80167EC70E00E94531DB7C032
:1013000004EF15E0C80161E070E040E050E00E94A9
:10131000D814C8016AEB70E00E94531DC80162E056
:1013200071E00E94AC1E6091810670E06E5F7F4F9D
:10133000C8014AE050E00E948A1E99C004EF15E0FF
:10134000C80161E070E040E050E00E94D814C8019C
:1013500068EA70E00E94531D809181060E943C1C47
:101360007C016091810670E06F5F7F4FC8014AE0A9
:1013700050E00E94771EC80160E071E00E94A91E43
:10138000C801B7010E94AC1EC7010E945F246FC054
:1013900004EF15E0C80161E070E040E050E00E9419
:1013A000D814C8016CE970E00E94531DC80162E0C6
:1013B00071E00E94AC1EC801609181064AE050E0D5
:1013C0000E94191E54C000E010E00F2EF4EFEF2E23
:1013D000F5E0FF2EF02D0F2EFCE3AF2EF5E0BF2E33
:1013E000F02D6E010894C11CD11C8091810690E003
:1013F0008017910741F4C70160E070E041E050E0E0
:101400000E94D81407C0C70161E070E040E050E0DE
:101410000E94D8148091800690E0880F991F880F51
:10142000991FF501E80FF91F9801220F331F8281E0
:101430009381FC01E20FF31F65917491C6010E9434
:101440000805C701B6010E94AC1E0F5F1F4F8091B7
:10145000800690E0880F991F880F991FF501E80F0B
:10146000F91F808190E0081719070CF4BECF84EFB4
:1014700095E00E945C186E960FB6F894DEBF0FBE22
:10148000CDBFCF91DF911F910F91FF90EF90DF9033
:10149000CF90BF90AF9008951F93CF93DF93EB0150
:1014A000182F0E946F23892B09F06EC0FE01EE0FEA
:1014B000FF1FCE01880F991F880F991F880F991F52
:1014C000E80FF91FE15EF94F1782168213828081BF
:1014D000882311F040E019C040E0FE01EE0FFF1F2D
:1014E000CE01880F991F880F991F880F991FE80F49
:1014F000F91FED5DF94F208131818091210190919B
:1015000022012817390708F041E0CE01880F991F02
:10151000880F991F8C0F9D1F0196AFE1B6E0880FD1
:10152000991FFD01E80FF91F4083CE01880F991F15
:101530009E01220F331F220F331F220F331F820FF2
:10154000931FA80FB91F14962D913C911597809168
:101550002101909122012817390720F0FD0181E037
:10156000808312C0FE01EE0FFF1FCE01880F991F6E
:10157000880F991F880F991FE80FF91FED5DF94F2C
:10158000C901019691838083812F0E946F23019767
:1015900009F07BC0AFE1B6E0CE01880F991F9E0134
:1015A000220F331F220F331F220F331F820F931F6F
:1015B000FD01E80FF91F1582148211861086118231
:1015C000CE01880F991F880F991F8C0F9D1F0196C0
:1015D000880F991FA80FB91F1C928081882311F4CE
:1015E00040E019C040E0FE01EE0FFF1FCE01880F62
:1015F000991F880F991F880F991FE80FF91FEB5D3E
:10160000F94F208131818091210190912201281789
:10161000390708F041E0FE01EE0FFF1FCE01880FF1
:10162000991F880F991F880F991FE80FF91FE15E16
:10163000F94F4383268137818091210190912201C6
:101640002817390780F0FE01EE0FFF1FCE01880F2B
:10165000991F880F991F880F991FE80FF91FE15EE6
:10166000F94F10825DC0FE01EE0FFF1FCE01880F03
:10167000991F880F991F880F991FE80FF91FEB5DBD
:10168000F94FC901019691838083FE01EE0FFF1F80
:10169000CE01880F991F880F991F880F991FE80F97
:1016A000F91FE15EF94F80818823D1F1FE01EE0F31
:1016B000FF1FCE01880F991F880F991F880F991F50
:1016C000E80FF91FE95DF94F8081918101969183BF
:1016D000808320912301309124018217930789F49C
:1016E000FE01EE0FFF1FCE01880F991F880F991F73
:1016F000880F991FE80FF91FE05EF94F81E08083A2
:101700000FC0FE01EE0FFF1FCE01880F991F880F3B
:10171000991F880F991FE80FF91FE05EF94F10829B
:10172000DF91CF911F9108950F931F9381E00E9445
:101730006F238C0182E00E946F230817190751F470
:1017400080917E0690917F06019690937F0680930C
:101750007E0609C080917E0690917F060197909346
:101760007F0680937E061F910F9108958DE060E0C3
:101770000E941B238BE00E94E01E10922001109219
:101780001F0110921E010E943A2260935906709325
:101790005A0680935B0690935C060895EF92FF9241
:1017A0000F931F93CF93DF930E943A227B018C010A
:1017B000C0911A01D0911B018091590690915A064F
:1017C000A0915B06B0915C06E81AF90A0A0B1B0BA4
:1017D0009E0140E050E06091550670915606809160
:1017E0005706909158060E94D82BE216F30604077C
:1017F000150768F181E08093200120911E0130914E
:101800001F0180911C0190911D01AC01C49FC0017A
:10181000C59F900DD49F900D11248217930739F422
:1018200081E090E090931F0180931E0106C0C901E2
:10183000019690931F0180931E010E943A226093AB
:10184000590670935A0680935B0690935C068091CC
:101850002001882369F18DE061E00E941B238091C3
:101860001E0190911F01019781F480915E068823EB
:1018700061F4209118013091190140E050E08BE0B3
:1018800068EB71E00E94531F0BC02091180130914A
:10189000190140E050E08BE066E071E00E94531FC8
:1018A00081E696E068EF0E94432A1092200104C06E
:1018B0008DE060E00E941B23DF91CF911F910F917B
:1018C000FF90EF900895AF92BF92DF92EF92FF9258
:1018D0000F931F93DF93CF93CDB7DEB72A970FB641
:1018E000F894DEBF0FBECDBF80E090E060E070E016
:1018F0000E944C0A83E090E061E070E00E944C0A94
:1019000085E090E062E070E00E944C0A80912B0636
:10191000882311F1809154068130A1F4E091800672
:10192000EE2319F41092540614C0F0E0EE0FFF1FDE
:10193000EE0FFF1FE35CFA4F8081809380061092C8
:10194000810607C081E080935406109281061092B0
:10195000800681E08093150180915406882321F050
:10196000813009F06DC49DC080915306882321F019
:10197000813009F065C45DC080917E0690917F063C
:101980001816190664F480915F068D3140F48F5F5C
:1019900080935F060E947E0581E08093150180910F
:1019A0007E0690917F06992364F480915F068823D8
:1019B00041F0815080935F060E947E0581E0809314
:1019C0001501A7E4B6E0FD01819180931601109204
:1019D0001701808180931A0110921B0112968C913D
:1019E00080931C0110921D01209116013091170166
:1019F00040E050E060E67AEE80E090E00E94FA2B52
:101A00002093550630935606409357065093580638
:101A100080912106882309F413C490E080915D062B
:101A2000882309F491E090935D0681E0809315018D
:101A300007C420917E0630917F0680911601909117
:101A40001701280F391F309317012093160140E02A
:101A500050E060E67AEE80E090E00E94FA2B20935E
:101A6000550630935606409357065093580680917A
:101A70002106882359F090E080915D06882309F4BF
:101A800091E090935D0681E08093150180917E0640
:101A900090917F06892B09F4D3C381E080931501CF
:101AA000CFC380917E0690917F0618161906F4F434
:101AB00040918106842F90E0E0918006F0E0EE0FE7
:101AC000FF1FEE0FFF1FE45CFA4F208130E0215032
:101AD0003040821793072CF4842F8F5F8093810608
:101AE00002C01092810681E08093150180917E06EC
:101AF00090917F069923C4F480918106882321F078
:101B00008150809381060DC0E0918006F0E0EE0FD9
:101B1000FF1FEE0FFF1FE45CFA4F8081815080931E
:101B2000810681E08093150180913506882309F4B0
:101B300087C380918006E82FF0E0EA31F10508F0D4
:101B40007CC3EC5CFF4FEE0FFF1F0590F491E02D7E
:101B5000099460918506862F90E001964D970CF4CC
:101B6000ECC007C180918106813061F0813020F0A6
:101B7000823009F062C30CC01092810681E080932C
:101B800080065BC3109281068DE08093800655C36A
:101B90001092810686E1809380064FC38091810672
:101BA000813061F0813020F0823009F046C30CC0F2
:101BB0001092810682E0809380063FC310928106D6
:101BC00083E08093800639C3109281068CE0809375
:101BD000800633C3809181068093600610925F0671
:101BE0000E94AB050E947E051092540626C3809188
:101BF0008106882321F0813009F01FC310C01092A4
:101C0000810684E080938006809160060E948C1C8F
:101C10009093840680938306109282060EC31092DE
:101C2000810685E08093800608C32091820680911A
:101C3000830690918406FC01E20FF11D8081883DAE
:101C400001F5108260918306709184068091600690
:101C50000E94131C80918306909184060E945F2449
:101C6000E0918006F0E0EE0FFF1FEE0FFF1FE35C38
:101C7000FA4F808180938006109281060E94AB0506
:101C8000DCC2283028F4822F8F5F80938206D5C271
:101C900010928206D2C280918106813081F081301B
:101CA00030F08230A1F0833009F0C7C218C0109222
:101CB000810686E08093800610928506BEC210924F
:101CC000810688E08093800610928506B6C2109245
:101CD00081068AE08093800610928506AEC210923B
:101CE00081068BE080938006A8C280918106809354
:101CF00085061092810687E0809380069EC28091BF
:101D0000600660918506409181060E94061C8091C4
:101D10008506809381061092850686E08093800672
:101D20000E947E058AC2809181068093850610926A
:101D3000810689E08093800680C20F2EFDE1EF2EA0
:101D4000FF24F02D109160066E2D6150812F0E94AE
:101D5000A61B482F812F6E2D0E94061C0894E108B7
:101D6000F10860918506862F90E001968E159F05FB
:101D70004CF36F5F80916006409181060E94061CC3
:101D80001092810610928506E0918006F0E0EE0F39
:101D9000FF1FEE0FFF1FE35CFA4F808180938006E8
:101DA0000E947E054AC220918106822F90E08D31EB
:101DB0009105DCF4022FEE24FF245C0110916006F3
:101DC000D02ED394812F6D2D0E94A61B482F812FDA
:101DD000602F0E94061C0894E11CF11CC7018A0DAB
:101DE0009B1D4D9714F40D2DE9CF10928106109292
:101DF0008506E0918006F0E0EE0FFF1FEE0FFF1F5B
:101E0000E35CFA4F8081809380060E947E0515C2B4
:101E100080918106813051F410E080916006612F3D
:101E20004FEF0E94061C1F5F1E31B9F7109281060A
:101E3000E0918006F0E0EE0FFF1FEE0FFF1FE35C66
:101E4000FA4F8081809380060E947E05F6C18091C2
:101E50008106813051F410E080916006612F4FEFD0
:101E60000E94061C1F5F1E31B9F78FEF89838E0118
:101E70000F5F1F4FC801B80148E050E00E942505E0
:101E800080916006B8010E94131C10928106E091B7
:101E90008006F0E0EE0FFF1FEE0FFF1FE35CFA4F2E
:101EA0008081809380060E94AB05C7C18091810626
:101EB000882321F0813009F0C0C106C0109281064C
:101EC0008EE080938006B9C11092810684E18093F0
:101ED0008006B3C1809181068093860610928106A8
:101EE0008FE080938006A9C1809181068130B1F096
:101EF000813030F08230F1F0833009F09EC135C07E
:101F00001092810680E180938006809186060E946F
:101F10003C1C90938406809383068FC181E180935B
:101F20008006809186060E949B1B80938506809385
:101F3000810683C182E180938006809186060E949B
:101F40008D1B80938506823041F0843051F08130C2
:101F500009F073C11092810670C181E080938106FF
:101F60006CC182E08093810668C183E18093800622
:101F7000809186060E947F1B809385068250809305
:101F800081065BC120918206809183069091840630
:101F9000FC01E20FF11D8081883D01F51082609106
:101FA000830670918406809186060E94E51B8091CD
:101FB0008306909184060E945F2410928106E0912E
:101FC0008006F0E0EE0FFF1FEE0FFF1FE35CFA4FFD
:101FD0008081809380060E947E052FC12A3028F4DC
:101FE000822F8F5F8093820628C11092820625C1BE
:101FF00080918606609181060E94DD1B1092810609
:1020000010928506E0918006F0E0EE0FFF1FEE0FC4
:10201000FF1FE35CFA4F8081809380060E947E055B
:102020000CC180918106813059F0813018F08230E6
:1020300091F40CC08091860661E00E94D51B0BC014
:102040008091860662E00E94D51B05C080918606BD
:1020500064E00E94D51B1092850610928106E091E3
:102060008006F0E0EE0FFF1FEE0FFF1FE35CFA4F5C
:102070008081809380060E947E05DFC0609181068A
:102080006E5F809186060E94CD1B1092850610928D
:102090008106E0918006F0E0EE0FFF1FEE0FFF1FBC
:1020A000E35CFA4F8081809380060E947E05C5C064
:1020B00080918106809386061092810685E1809347
:1020C0008006BBC0809181068130F9F48FEF89834F
:1020D0008E010F5F1F4FC801B8014AE050E00E9417
:1020E000250580918606B8010E94E51B8091860631
:1020F0006FEF0E94DD1B809186066FEF0E94D51B5B
:10210000809186066FEF0E94CD1B10928106E091B0
:102110008006F0E0EE0FFF1FEE0FFF1FE35CFA4FAB
:102120008081809380060E947E0587C08091810611
:102130008130C9F0813020F0823009F07EC026C0A5
:1021400089EA96E06BEF71E00E94F72480938506A0
:102150008F3F19F08093810602C01092810687E1BB
:10216000809380066AC089EA96E06CEF71E00E9475
:10217000F724809385068F3F19F08093810602C073
:102180001092810688E18093800657C089EA96E024
:102190006DEF71E00E94F724809385068F3F19F060
:1021A0008093810602C01092810689E180938006A7
:1021B00044C060918106609353068BEF91E00E94CA
:1021C000B71B10928106E0918006F0E0EE0FFF1F32
:1021D000EE0FFF1FE35CFA4F8081809380062DC0D5
:1021E0006091810660935E068CEF91E00E94B71BC0
:1021F00010928106E0918006F0E0EE0FFF1FEE0FD7
:10220000FF1FE35CFA4F80818093800616C06091C7
:10221000810660937D068DEF91E00E94B71B1092BE
:102220008106E0918006F0E0EE0FFF1FEE0FFF1F2A
:10223000E35CFA4F80818093800681E080931501F2
:1022400080915D06882319F00E94CE0B02C00E9487
:10225000B60B80911501882321F00E94BD051092D4
:10226000150110927F0610927E06A8952A960FB649
:10227000F894DEBF0FBECDBFCF91DF911F910F91BC
:10228000FF90EF90DF90BF90AF9008950F931F9352
:1022900088E10FB6F89480936000109260000FBE42
:1022A00082E062E00E94DC2281E062E00E94DC22A7
:1022B00080E062E00E94DC2283E062E00E94DC2297
:1022C00085E062E00E94DC228BE061E00E94DC227B
:1022D0008DE061E00E94DC2284E061E00E94DC226B
:1022E00080E064E97BE041E050E00E94692104EF76
:1022F00015E0C80162E04DE321E00E944A1981E641
:1023000096E042E15AE760E070E00E940D29C801C2
:102310000E94B117C80161E00E94CC14C80161E0BD
:1023200070E00E94D2142FE088E190E00FB6F8949C
:10233000A895809360000FBE209360000E945F0507
:102340000E94AB050E947E051F910F910895FC012C
:102350001382128288EA95E0918380837583648377
:10236000578346837187608753874287158A15860E
:1023700014861786168621E0248B8FEF9FEF938BB0
:10238000828B918B808B268B08952F923F924F9258
:102390005F926F927F928F929F92AF92BF92CF92F5
:1023A000DF92EF92FF920F931F93DF93CF9300D0B2
:1023B00000D0CDB7DEB74C017C836B836A01590135
:1023C000FA82E982442455249801241B350B1AF41F
:1023D000309521953F4FC5014B815C81841B950B46
:1023E0001AF4909581959F4F821793071CF444240B
:1023F000552443944114510451F08C2D9D2DCB80D4
:10240000DC809C838B83802F912F85015C018B81E5
:102410009C81A816B90654F48A2D9B2DAB80BC80F4
:102420009C838B83802F912F86016C017801EC189F
:10243000FD0822F4F094E194F108F394C016D1065B
:1024400024F022242A94322C03C0222433242394FF
:10245000AB81BC81AA16BB06B4F135016A1A7B0AAE
:10246000C3010AF401968C01159507954114510496
:1024700071F0D401ED91FC910480F581E02DC4014F
:10248000B6014B815C8129813A8109950DC0D40147
:10249000ED91FC910480F581E02DC4016B817C817C
:1024A000A60129813A8109950E191F0922F4C20C4F
:1024B000D31C060D171DEB81FC813196FC83EB8349
:1024C000AE16BF069CF60F900F900F900F90CF9115
:1024D000DF911F910F91FF90EF90DF90CF90BF9011
:1024E000AF909F908F907F906F905F904F903F90B4
:1024F0002F9008954F925F926F927F928F929F924A
:10250000AF92BF92CF92DF92EF92FF920F931F9301
:102510006C015B014A0139012801DC01ED91FC915C
:102520000284F385E02D87010995D601ED91FC9198
:10253000A40141505040440D551D0284F385E02D07
:10254000C601B50193010995D601ED91FC91008476
:10255000F185E02DC601B501A40192010995D601CE
:10256000ED91FC910894A108B108A60CB71C008459
:10257000F185E02DC601B501A401920109951F91D5
:102580000F91FF90EF90DF90CF90BF90AF909F9012
:102590008F907F906F905F904F900895CF92DF92D1
:1025A000EF92FF920F931F93DC016B017801ED9185
:1025B000FC918A0101501040020F131F0680F78121
:1025C000E02D960109951F910F91FF90EF90DF90FC
:1025D000CF900895CF92DF92EF92FF920F931F93C7
:1025E000DC016A01C9017801ED91FC9111979B0111
:1025F00021503040280F391F0680F781E02DCD0192
:10260000860109951F910F91FF90EF90DF90CF9079
:1026100008956F927F928F929F92AF92BF92CF92C6
:10262000DF92EF92FF920F931F93CF93DF936C0192
:102630003A01480157017901E60EF71E6E157F0534
:102640008CF4EB01D601ED91FC910084F185E02D35
:10265000C601BE01A3019401850109952196CE15FD
:10266000DF0584F3DF91CF911F910F91FF90EF90E1
:10267000DF90CF90BF90AF909F908F907F906F90A2
:102680000895EF92FF920F931F93FC017B01A081AD
:10269000B18120853185028513851E960D90BC91F0
:1026A000A02D60E070E040E050E0FD0109951F9131
:1026B0000F91FF90EF9008952F923F924F925F926B
:1026C0006F927F928F929F92AF92BF92CF92DF9242
:1026D000EF92FF920F931F93DF93CF93CDB7DEB7A7
:1026E00061970FB6F894DEBF0FBECDBF3C01E22F5D
:1026F0001801FB86EA86AC2CDC0118968D919C9122
:102700001997681779070CF0C6C01A968D919C919D
:102710001B97481759070CF0BEC04C2C55249B0141
:1027200021503040C201880F991F840D951D880FDC
:10273000991F280F391F33230CF4ADC0CA0101972C
:102740009201220F331F220F331F220F331F820FDC
:10275000931F99230CF49FC085E0E89F90011124FA
:102760003C832B8358864F827E836D837A83698373
:102770001986CA014E879F873985353009F47FC095
:10278000EB81FC81E854FC4F24917AC0C4019595FB
:102790008795282F822E992420FF20C081E0A8163B
:1027A00069F4D301ED91FC910480F581E02DC30122
:1027B0006D817E81A6019101099536C0D301ED910D
:1027C000FC910684F785E02DC3016C857D854889E1
:1027D0005989920182017101099526C0EA85FB851C
:1027E000E215F30509F1F1E0AF1671F4D301ED91B3
:1027F000FC910480F581E02DC3016D817E81A601ED
:102800002A853B85099510C0D301ED91FC91068482
:10281000F785E02DC3016C857D8548895989920132
:102820008201EA84FB840995B394E889F9892F81B0
:102830003885E20FF31FF98BE88B0894C11CD11C7B
:1028400038E0B31609F0A2CF89858F5F8987A98107
:10285000BA81EF81F885AE0FBF1FBA83A9832D819E
:102860003E812F5F3F4F3E832D838B819C8101965C
:102870009C838B839985963009F07ECF0CC020E035
:10288000A981AC87BA81BD878E859F85998B888BFE
:102890006C01BB247FCF61960FB6F894DEBF0FBEEC
:1028A000CDBFCF91DF911F910F91FF90EF90DF90FF
:1028B000CF90BF90AF909F908F907F906F905F90E0
:1028C0004F903F902F900895CF92EF92FF920F93E9
:1028D0001F93CF93DF93EC01262F6A3089F42C8964
:1028E00030E0220F331F220F331F220F331F8E853C
:1028F0009F85820F931F9F878E871D861C863CC0F5
:102900006D30D1F16C857D854E855F85088919898B
:10291000EA88FB88CC880E945C138C8926E0829F21
:10292000C00111242C853D85BC01620F731F7D877A
:102930006C878E89882301F18C89482F50E09A0199
:10294000220F331F240F351F220F331F88859985CF
:10295000821B930B861797077CF49A01220F331F73
:10296000220F331F220F331F8E859F85820F931FE7
:102970009F878E871D861C8681E090E0DF91CF9136
:102980001F910F91FF90EF90CF900895FC017587F4
:102990006487578746870895FC01662309F461E040
:1029A000648B0895FC01738B628B718B608B08952F
:1029B000FC01718B608B538B428B0895FC018589E0
:1029C0000895FC01808591850895FC018285938599
:1029D000089508950F931F93DC01F90155968C918A
:1029E0005597823079F0833001F1813009F0ECC0E5
:1029F00014968D919C91159701979C01241B350B82
:102A0000A90146C116968D919C91179701979C013B
:102A1000241B350BA90114968D919C911597861B4B
:102A2000970BBC016E1B7F0BCFC016968D919C91AE
:102A30001797861B970BBC01621B730B29C1149659
:102A40008D919C911597481759070CF024C1772355
:102A500024F4E60FF71F60E070E016962D913C918C
:102A60001797CF01860F971F281739071CF4F90114
:102A7000E61BF70B1E161F060CF00DC1262F6E2F3E
:102A8000822F86958695869590E09695982F882733
:102A9000979587958B5D9E4FDC01A40FB51F27701E
:102AA00091F188E0482F421B242F30E0F901E35DCB
:102AB000FA4FE081641750F4261B31098FEF90E044
:102AC00002C0959587952A95E2F7E8230130110514
:102AD00039F00130110540F00230110571F40AC0DF
:102AE0008C918E2B8C9309C09E2F90958C9189236D
:102AF0008C9303C08C918E278C93641708F4CBC001
:102B0000641BA058BF4F6830E0F102301105D9F4C2
:102B1000FD01962F808180958083E058FF4F98506B
:102B20009830C0F7862F8850682F677086958695F5
:102B3000869590E001969695982F8827979587958A
:102B4000A80FB91F1EC00130110511F090E001C09F
:102B50009FEFFD01862F9083E058FF4F885088300B
:102B6000D0F7862F8850682F677086958695869552
:102B700090E001969695982F882797958795A80FAE
:102B8000B91F662309F487C0E62FF0E0E770F07004
:102B9000EB5DFA4F20810130110541F00130110544
:102BA00048F00230110509F076C00AC08C91822BE2
:102BB0008C9371C0922F90958C9189238C936BC0CC
:102BC0008C9182278C9367C055230CF464C01696B1
:102BD0008D919C911797481759070CF05CC077238B
:102BE00024F4E60FF71F60E070E014962D913C91FD
:102BF0001597CF01860F971F281739071CF4F90185
:102C0000E61BF70B1E161F060CF045C0CA01552324
:102C10000CF4079695958795959587959595879545
:102C20009695982F8827979587958B5D9E4FDC0109
:102C3000A60FB71F9A012770307081E090E002C0A4
:102C4000880F991F2A95E2F7482F0130110541F0AE
:102C50000130110568F002301105E9F49F0111C03F
:102C60009F018C91842B8D9321503040D1F713C05C
:102C700040959F018C9184238D9321503040D1F752
:102C80000AC08C9184278D9321503040D1F703C026
:102C900055230CF0D4CE1F910F9108950F931F93DD
:102CA000DC01F90155968C915597823079F083308B
:102CB00001F1813009F089C014968D919C9115978E
:102CC000841B950BAC01421B530B45C114968D918F
:102CD0009C91159701979C01261B370BB9011696FD
:102CE0008D919C911797841B950BAC014E1B5F0B2C
:102CF0006CC016968D919C91179701979C01261B8D
:102D0000370BB90128C116968D919C9117976817BA
:102D100079070CF023C1552324F4E40FF51F40E09C
:102D200050E014962D913C911597CF01840F951F7B
:102D3000281739071CF4F901E41BF50B1E161F06B2
:102D40000CF00CC1CB0177230CF407969595879571
:102D500095958795959587959695982F882797951A
:102D600087958B5D9E4FDC01A40FB51F9B012770DB
:102D7000307081E090E002C0880F991F2A95E2F739
:102D8000682F0130110549F00130110570F0023053
:102D9000110509F0E3C09F0111C09F018C91862BA2
:102DA0008D9321503040D1F7D9C060959F018C910F
:102DB00086238D9321503040D1F7D0C08C91862747
:102DC0008D9321503040D1F7C9C077230CF4C6C091
:102DD00014968D919C911597681779070CF0BEC0D9
:102DE000552324F4E40FF51F40E050E016962D9192
:102DF0003C911797CF01840F951F281739071CF4B2
:102E0000F901E41BF50B1E161F060CF0A7C0242FBA
:102E10004E2F822F86958695869590E09695982FD1
:102E20008827979587958B5D9E4FDC01A60FB71F6E
:102E3000277091F188E0582F521B252F30E0F901BF
:102E4000E35DFA4FE081451750F4241B31098FEF01
:102E500090E002C0959587952A95E2F7E823013026
:102E6000110539F00130110540F00230110571F4FF
:102E70000AC08C918E2B8C9309C09E2F90958C91BB
:102E800089238C9303C08C918E278C93451708F46B
:102E900065C0451BA058BF4F4830E0F10230110516
:102EA000D9F4FD01942F808180958083E058FF4FF5
:102EB00098509830C0F7842F8850482F47708695D7
:102EC0008695869590E001969695982F88279795F8
:102ED0008795A80FB91F1EC00130110511F090E0B1
:102EE00001C09FEFFD01842F9083E058FF4F885071
:102EF0008830D0F7842F8850482F47708695869564
:102F0000869590E001969695982F882797958795B6
:102F1000A80FB91F442311F1E42FF0E0E770F0701F
:102F2000EB5DFA4F20810130110539F001301105B8
:102F300040F00230110591F40AC08C91822B8C93E1
:102F40000DC0922F90958C9189238C9307C08C9102
:102F500082278C9303C077230CF0D5CE1F910F915D
:102F6000089580E094E0E5E2F1E0DF019C011D922C
:102F700021503040E1F70895FF920F931F93DC0139
:102F8000F62E59968C9159978F3F09F472C09396FB
:102F9000ED91FC919497808199969C919997892BBA
:102FA00080839596ED91FC91969790819A968C915D
:102FB0009A978095892380839396ED91FC919497BD
:102FC000908199968C9199978095892380835E96BC
:102FD0008C915E97882341F06EBDEDE4F0E0808136
:102FE0008823ECF78EB53BC040E820E030E070E08D
:102FF0009196ED91FC919297908198968C919897EB
:10300000809589238083842F90E086239723892BC2
:1030100059F05F96ED91FC919097808197969C91E5
:103020009797892B80830BC05F96ED91FC919097C9
:10303000908197968C91979780958923808391961C
:10304000ED91FC919297808198969C919897892B0D
:10305000808346952F5F3F4F2830310549F6939680
:10306000ED91FC919497808199969C91892B808316
:1030700015C000EF16E057966C91772767FD7095A5
:10308000C8010E943225C80160E00E94B425C80131
:103090006F2D0E94B425C8010E94F7251F910F9142
:1030A000FF900895662321F067EA0E94BC170895F7
:1030B00066EA0E94BC1708957F928F929F92AF920A
:1030C000BF92CF92DF92EF92FF920F931F93CF9315
:1030D000DF937C0161E20E94BC17C70160E00E949F
:1030E000BC17C7016FE70E94BC17C70162E20E94CC
:1030F000BC17C70160E00E94BC17C70167E00E94CF
:10310000BC17D70159968C9159978F3F09F47BC012
:103110009396ED91FC919497808199969C919997C3
:10312000892B80839596ED91FC91969780819A9654
:103130009C919A97892B80839396ED91FC9194971B
:10314000908199968C91809589238083A5E2B1E046
:1031500050E8AA24BB240F2EFEE4CF2EDD24F02D50
:103160000F2EFDE48F2E9924F02D05E215E09C91A1
:10317000E7018E8D882349F0F6019083E401888170
:103180008823E4F7F60180812EC0452F9501692F31
:1031900070E0E701E9A1FAA1908188A580958923D3
:1031A0008083842F90E086239723892B39F0EF8D3D
:1031B000F8A180819FA1892B808308C0E701EF8D52
:1031C000F8A190818FA1809589238083E701E9A1EF
:1031D000FAA1808198A5892B808346952F5F3F4F68
:1031E00028303105B1F61196A017B10709F0BFCF0D
:1031F000D7019396ED91FC919497808199969C913B
:10320000892B808339C0E8EBF0E070808CE080830C
:10321000AA24BB240F2EF0EFCF2EF6E0DF2EF02DE8
:103220000F2EF5E28F2EF1E09F2EF02D00E0E7014A
:103230006F89772767FD7095C6010E943225C60108
:1032400060E40E94B425E401CA0DDB1D102FC60105
:1032500069910E94B4251F5F1031C9F7E0E1F0E0E9
:10326000AE0EBF1EC6010E94F725F0E0AF16F4E0D7
:10327000BF06E9F67092B800DF91CF911F910F91D0
:10328000FF90EF90DF90CF90BF90AF909F908F9086
:103290007F9008950F931F93CF93DF93EC01062F38
:1032A000122F688F4F8B898D8F3F09F487C08B8DCC
:1032B00061E00E94DC228D8D61E00E94DC222D8D78
:1032C000332727FD3095AEEDB8E0FD01E20FF31F87
:1032D000E4918E2F90E0880F991F4AEC58E0FA0194
:1032E000E80FF91F859194919CA38BA362EF78E07E
:1032F000FB01E20FF31FE491E9A72B8D332727FD94
:103300003095FD01E20FF31F849190E0880F991F23
:10331000FA01E80FF91F859194919EA38DA3FB01FB
:10332000E20FF31FE491EAA78E8D882309F040C0D5
:10333000898D61E00E94DC228A8D61E00E94DC229E
:103340002A8D332727FD3095AEEDB8E0FD01E20F61
:10335000F31FE4918E2F90E0880F991F4AEC58E0FC
:10336000FA01E80FF91F859194919AA389A362EF5E
:1033700078E0FB01E20FF31FE491E8A7298D3327E2
:1033800027FD3095FD01E20FF31F849190E0880F37
:10339000991FFA01E80FF91F8591949198A38F8FD7
:1033A000FB01E20FF31FE491EFA38E8D882351F010
:1033B0000E941B2584E00E940A2504C080EF96E04D
:1033C0000E94FB251123E1F08C8D61E00E94DC223C
:1033D0008C8D61E00E941B2361E070E080E090E052
:1033E0000E9448228C8D60E00E941B236AE070E0FE
:1033F00080E090E00E9448228C8D61E00E941B23B7
:10340000CE016EEA0E94BC17CE0165ED0E94BC178A
:10341000CE0160E80E94BC17CE0168EA0E94BC178A
:10342000CE016FE30E94BC17CE0163ED0E94BC1772
:10343000CE0160E00E94BC17CE0160E40E94BC1780
:10344000CE016DE80E94BC17013069F5CE0160E144
:103450000E94BC17CE0160E20E94BC17CE0160E062
:103460000E94BC17CE0161EA0E94BC17CE0168EC35
:103470000E94BC17CE016AED0E94BC17CE0162E12A
:103480000E94BC17CE0161E80E94BC17CE016FE913
:103490000E94BC17CE0169ED0E94BC17CE0162E20A
:1034A0000E94BC172CC0CE0164E10E94BC17CE0163
:1034B00060E20E94BC17CE0160E00E94BC17CE0102
:1034C00061EA0E94BC17CE0168EC0E94BC17CE01D5
:1034D0006AED0E94BC17CE0162E10E94BC17CE01CA
:1034E00061E80E94BC17CE016FEC0E94BC17CE01B0
:1034F00069ED0E94BC17CE0161EF0E94BC17CE019E
:103500006BED0E94BC17CE0160E40E94BC17CE0197
:1035100064EA0E94BC17CE0166EA0E94BC17CE0185
:103520006FEA0E94BC17DF91CF911F910F91089510
:10353000FF920F931F938C01F62E60E870E040E439
:1035400050E00E94A71180EC95E0F8019183808300
:103550008FEF818F858F838F828FF48E1F910F91D4
:10356000FF900895AF92BF92CF92DF92EF92FF92B9
:103570000F931F93CF93DF93EC017B018A016901C5
:1035800077230CF4B1C09D2F0E94E114E816F906D0
:103590000CF0AAC011230CF4A7C08C2F9D2F0E9401
:1035A000E514081719070CF09FC090C08C819D810D
:1035B0000197801B910B87017C0116C08C819D8136
:1035C00001979C012E193F0979018E819F810197F6
:1035D0009C01201B310B890107C08E819F810197BF
:1035E0008E199F0978018C0131E0C316D10451F086
:1035F00081E0C816D10438F122E0C216D10409F0E6
:1036000073C043C0F80111230CF43796F595E79584
:10361000F595E795F595E795F695FE2FEE27F79545
:10362000E795EE0DFF1DEB5DFE4F980127703070A2
:1036300081E090E002C0880F991F2A95E2F720816F
:10364000282B208351C0F80111230CF43796F595EF
:10365000E795F595E795F595E795F695FE2FEE2715
:10366000F795E795EE0DFF1DEB5DFE4F9801277076
:10367000307081E090E002C0880F991F2A95E2F730
:1036800080952081282320832FC0F80111230CF47A
:103690003796F595E795F595E795F595E795F695C0
:1036A000FE2FEE27F795E795EE0DFF1DEB5DFE4F24
:1036B00098012770307081E090E002C0880F991F58
:1036C0002A95E2F72081282720830EC08C2F9D2F7A
:1036D0000E94DE14823009F471CF833009F47DCF6B
:1036E000813009F081CF62CFDF91CF911F910F918F
:1036F000FF90EF90DF90CF90BF90AF9008959DE046
:10370000899FB0011124645F7F4F89EA96E00E948F
:10371000F7248F3F09F484E008959DE0899FB0016C
:103720001124655F7F4F89EA96E00E94F7248F3F5E
:1037300009F481E008959DE0899FB0011124665F3E
:103740007F4F89EA96E00E94F724089570E062575F
:103750007E4F96E2899FC0011124680F791F89EA84
:1037600096E00E94F7248F3F09F480E008951F93AC
:10377000CF93DF93EC01162F89EA96E0BE010E94F9
:10378000F724811731F089EA96E0BE01412F0E94AB
:10379000FE24DF91CF911F9108959DE0899FC00184
:1037A00011240C960E94B71B08959DE0899FC001CB
:1037B00011240B960E94B71B08959DE0899FC001BC
:1037C00011240A960E94B71B0895EF92FF920F935F
:1037D0001F93CF93DF937B019DE0899F800111248C
:1037E000C0E0D0E0F701EC0FFD1FC8018C0F9D1F5A
:1037F00060810E94B71B2196CA30D10599F7DF91ED
:10380000CF911F910F91FF90EF90089570E0625754
:103810007E4F96E2899FC0011124860F971F642F67
:103820000E94B71B0895EF92FF920F931F93CF93BF
:10383000DF9396E2899FC0011124EC01CA57DE4F45
:10384000262F372F89010F2EFEE8EF2EF1E0FF2EF5
:10385000F02DE80EF91ECE01F80161918F010E9452
:10386000B71B2196CE15DF05B1F7DF91CF911F91E0
:103870000F91FF90EF900895AF92BF92CF92DF9299
:10388000EF92FF920F931F93CF93DF93182F8AE04D
:1038900090E00E94C223082FF92EB82EA92E8DE0A9
:1038A000189FE001112489EA96E0BE010E94F724E6
:1038B0008F3F49F4802F9F2D63EB78E04AE050E082
:1038C0000E940F051CC09E01802F9F2D8C010F2E82
:1038D000F9EACF2EF6E0DF2EF02D0F2EFAE0EF2ED4
:1038E000FF24F02DE20EF31EC601BE010E94F72454
:1038F000F80181938F012196CE15DF05A9F78B2D55
:103900009A2DDF91CF911F910F91FF90EF90DF9053
:10391000CF90BF90AF900895AF92BF92CF92DF92B9
:10392000EF92FF920F931F93CF93DF93082F88E0BE
:1039300090E00E94C2237C01BE2CAF2C86E2089F3F
:10394000800111240A571E4F89EA96E0B8010E94AF
:10395000F7248F3F49F48E2D9F2D69EB78E048E0E6
:1039600050E00E940F0515C0E7010F2EF9EACF2E97
:10397000F6E0DF2EF02D88E090E0E80EF91EC6019B
:10398000B8010E94F72489930F5F1F4FCE15DF0502
:10399000B1F78B2D9A2DDF91CF911F910F91FF9051
:1039A000EF90DF90CF90BF90AF900895CF93DF93CB
:1039B0000E94A1220E944611C0E0D0E00E94630C48
:1039C0002097E1F30E940000F9CF0895CF92DF9293
:1039D000EF92FF920F931F93CF93DF937C016B01C4
:1039E0008A01C0E0D0E00FC0D6016D916D01D70112
:1039F000ED91FC910190F081E02DC7010995C80F70
:103A0000D91F015010400115110571F7CE01DF914A
:103A1000CF911F910F91FF90EF90DF90CF9008957D
:103A2000EF92FF920F931F93CF93DF937C018B0153
:103A3000C0E0D0E0F8010F5F1F4F6491662359F09A
:103A4000D701ED91FC910190F081E02DC70109951E
:103A5000C80FD91FEFCFCE01DF91CF911F910F91EA
:103A6000FF90EF900895EF92FF920F931F938C01B8
:103A7000DC01ED91FC910190F081E02D6DE0099564
:103A80007C01D801ED91FC910190F081E02DC801FD
:103A90006AE009959C012E0D3F1DC9011F910F91F0
:103AA000FF90EF900895EF92FF920F931F937C0188
:103AB0000E94101D8C01C7010E94331D9C01200F24
:103AC000311FC9011F910F91FF90EF900895CF937F
:103AD000DF93EC016115710519F420E030E00FC0AF
:103AE000DB010D900020E9F71197A61BB70BE881C9
:103AF000F9810280F381E02DAD0109959C01C90196
:103B0000DF91CF9108954F925F927F928F929F9213
:103B1000AF92BF92CF92DF92EF92FF920F931F93DB
:103B2000DF93CF93CDB7DEB7A1970FB6F894DEBF82
:103B30000FBECDBF2C01742ECB01223008F42AE039
:103B400019A231E2C32ED12CCC0EDD1E822E992477
:103B5000AA24BB24672D752FA50194010E94D82BA0
:103B600079018A01C801B701A50194010E94A62B21
:103B7000472D461B0894C108D1084A3014F4405D13
:103B800001C0495CF6014083E114F104010511050F
:103B900021F07E2C5F2DC801DDCFC201B6010E944D
:103BA000671DA1960FB6F894DEBF0FBECDBFCF91B3
:103BB000DF911F910F91FF90EF90DF90CF90BF901A
:103BC000AF909F908F907F905F904F900895DC0111
:103BD0002115310541F4ED91FC910190F081E02D2A
:103BE000642F099508950E94831D0895EF92FF9216
:103BF0000F931F939A017B0100E010E0B801A70129
:103C00000E94E71D1F910F91FF90EF900895EF9292
:103C1000FF920F931F939A01E62EFF2400E010E01D
:103C2000B801A7010E94E71D1F910F91FF90EF902F
:103C30000895CF92DF92EF92FF920F931F936C0142
:103C4000E62E9A01FF2400E010E0B801A7010E94CF
:103C5000E71D8C01C6010E94331D080F191FC80102
:103C60001F910F91FF90EF90DF90CF900895CF922A
:103C7000DF92EF92FF920F931F93CF93DF93EC01AC
:103C80006A017B012115310541F4E881F981019038
:103C9000F081E02D642F09951FC02A303105D1F441
:103CA00077FF17C0E881F9810190F081E02D6DE286
:103CB00009958C0144275527BA014C195D096E09F5
:103CC0007F09CE012AE00E94831D9801280F391F29
:103CD00004C02AE00E94831D9C01C901DF91CF919D
:103CE0001F910F91FF90EF90DF90CF900895EF928A
:103CF000FF920F931F937B019A010027F7FC009519
:103D0000102FB801A7010E94371E1F910F91FF903D
:103D1000EF900895CF92DF92EF92FF920F931F934F
:103D20006C017B019A010027F7FC0095102FB80168
:103D3000A7010E94371E8C01C6010E94331D080F87
:103D4000191FC8011F910F91FF90EF90DF90CF9046
:103D500008950E94671D0895EF92FF920F931F939D
:103D60007C010E94671D8C01C7010E94331D080F52
:103D7000191FC8011F910F91FF90EF900895813096
:103D800041F0813018F08230D1F409C010926E00F9
:103D9000089580916F008D7F80936F0008958091CA
:103DA00070008D7F8093700081E08093B0008091DF
:103DB000B100887F84608093B1001092B3000895B1
:103DC0001F93182F80913505811711F09FEF06C0C2
:103DD000EFEBF8E094918FEF80933505892F0E94E7
:103DE000BF1E812F60E00E941B231F9108951F9228
:103DF0000F920FB60F9211242F933F934F935F931F
:103E00006F937F938F939F93AF93BF93EF93FF93A2
:103E10008091950690919606A0919706B09198068C
:103E20000097A105B10551F1E0919906F0919A062C
:103E3000808190919B06892780838091950690913F
:103E40009606A0919706B0919806181619061A06BC
:103E50001B06C4F48091950690919606A091970652
:103E6000B09198060197A109B109809395069093A6
:103E70009606A0939706B093980604C080913505E6
:103E80000E94E01EFF91EF91BF91AF919F918F91A2
:103E90007F916F915F914F913F912F910F900FBE46
:103EA0000F901F9018952F923F925F926F927F9282
:103EB0008F929F92AF92BF92CF92DF92EF92FF923A
:103EC0000F931F93DF93CF9300D000D0CDB7DEB711
:103ED000A82F1B0129833A834B835C83809135058E
:103EE0008A1721F4EFEBF8E0549082C08F3F09F07D
:103EF000DAC1A0933505EFEBF8E054902FEF52169E
:103F000009F4D1C181E0581639F192E0591609F44B
:103F100049C0552009F06CC014BC15BC84B5826042
:103F200084BD85B5816085BD2A2F30E0F901E2525C
:103F3000F74FE491F0E0EE0FFF1FE653F74F859146
:103F4000949190938C0680938B062E50374FF901F5
:103F5000849180938D064EC0109280001092810053
:103F600080918100886080938100809181008160D0
:103F7000809381002A2F30E0F901E252F74FE4915B
:103F8000F0E0EE0FFF1FE653F74F85919491909369
:103F90009306809392062E50374FF90184918093B7
:103FA000940628C01092B0001092B1008091B00029
:103FB00082608093B0008091B10081608093B100F5
:103FC0002A2F30E0F901E252F74FE491F0E0EE0FD2
:103FD000FF1FE653F74F8591949190939A06809333
:103FE00099062E50374FF901849180939B0602C0A9
:103FF00057FC59C18A2F61E00E94DC22552021F034
:10400000F2E05F1609F0BEC031018824992460E017
:1040100079E08DE390E0A40193010E94FA2B59010D
:104020006A01860175010894E108F1080109110986
:104030002FEFE216F1040105110509F008F499C00B
:1040400060E271EA87E090E0A40193010E94FA2BFC
:1040500079018A010894E108F1080109110982E057
:104060005816C1F49FEFE916F1040105110509F096
:1040700008F484C068E478EE81E090E0A401930144
:104080000E94FA2B79018A010894E108F1080109DC
:10409000110983E0AFEFEA16F1040105110509F0FB
:1040A00008F468C064E274EF80E090E0A40193013A
:1040B0000E94FA2B79018A010894E108F1080109AC
:1040C0001109552011F483E01DC0B2E05B1611F018
:1040D00084E018C0EFEFEE16F1040105110509F0B8
:1040E00008F4DFC062E17AE780E090E0A401930188
:1040F0000E94FA2B79018A010894E108F10801096C
:10410000110985E0FFEFEF16F1040105110591F1AA
:1041100088F169E07DE380E090E0A40193010E94D2
:10412000FA2B79018A010894E108F10801091109C3
:10413000552011F086E001C084E02FEFE216F10473
:1041400001051105B9F0B0F0C601B50120E034E079
:1041500040E050E00E94FA2B79018A010894E108BE
:10416000F10801091109552011F087E008C085E028
:1041700003C081E0552019F485BD3AC082E08093E8
:10418000B10036C05101CC24DD2460E079E08DE33C
:1041900090E0A60195010E94FA2B79018A0108940A
:1041A000E108F1080109110980E0E81680E0F8064D
:1041B00081E0080780E0180710F491E010C064E285
:1041C00074EF80E090E0A60195010E94FA2B79013E
:1041D0008A010894E108F1080109110993E0A1E0BE
:1041E0005A1631F480918100887F982B909381003A
:1041F00089819A81AB81BC810097A105B10529F421
:104200008FEF9FEFAFEFBFEF13C0220C331CB10154
:1042100080E090E029813A814B815C810E94A62B4D
:1042200028EE33E040E050E00E94D82BC901DA01CB
:10423000E1E05E16A1F0F2E05F1619F1552099F564
:10424000E7BC8093870690938806A0938906B09375
:104250008A0680916E00826080936E0024C0F09286
:104260008900E092880080938E0690938F06A09339
:104270009006B093910680916F00826080936F00EA
:1042800012C0E092B3008093950690939606A09397
:104290009706B093980680917000826080937000BA
:1042A00002C084E06CCF0F900F900F900F90CF91D1
:1042B000DF911F910F91FF90EF90DF90CF90BF9013
:1042C000AF909F908F907F906F905F903F902F90D6
:1042D0000895823000F5E82FF0E0EE0FFF1FE4565E
:1042E000F94F71836083882319F08130A1F408C0ED
:1042F000809169008C7F842B80936900E89A0895EF
:1043000080916900440F551F440F551F837F842BF4
:1043100080936900E99A08951F920F920FB60F9249
:1043200011242F933F934F935F936F937F938F93BA
:104330009F93AF93BF93EF93FF9380919C069091CF
:104340009D06892B29F0E0919C06F0919D06099528
:10435000FF91EF91BF91AF919F918F917F916F915D
:104360005F914F913F912F910F900FBE0F901F9033
:1043700018951F920F920FB60F9211242F933F930F
:104380004F935F936F937F938F939F93AF93BF935D
:10439000EF93FF9380919E0690919F06892B29F0C1
:1043A000E0919E06F0919F060995FF91EF91BF91D4
:1043B000AF919F918F917F916F915F914F913F91BD
:1043C0002F910F900FBE0F901F9018951F920F9274
:1043D0000FB60F9211242F933F934F935F936F93D8
:1043E0007F938F939F93AF93BF932091A4063091B7
:1043F000A5064091A6065091A7067091A806DA017D
:10440000C9010296A11DB11D672F6A5F6D3730F09B
:104410006D57DA01C9010396A11DB11D6093A8066D
:104420008093A4069093A506A093A606B093A70632
:104430008091A0069091A106A091A206B091A3063A
:104440000196A11DB11D8093A0069093A106A09393
:10445000A206B093A306BF91AF919F918F917F91D8
:104460006F915F914F913F912F910F900FBE0F90E1
:104470001F9018958FB7F8942091A4063091A50647
:104480004091A6065091A7068FBFB901CA010895B1
:104490009B01AC017FB7F8948091A0069091A10692
:1044A000A091A206B091A30666B5A89B05C06F3F78
:1044B00019F00196A11DB11D7FBFBA2FA92F982F0A
:1044C0008827860F911DA11DB11D63E0880F991FDC
:1044D000AA1FBB1F6A95D1F7BC012DC0FFB7F89486
:1044E0008091A0069091A106A091A206B091A3068A
:1044F000E6B5A89B05C0EF3F19F00196A11DB11DBF
:10450000FFBFBA2FA92F982F88278E0F911DA11DAD
:10451000B11DE3E0880F991FAA1FBB1FEA95D1F7D1
:10452000861B970B885E9340C8F221503040404074
:10453000504068517C4F211531054105510571F6F8
:104540000895789484B5826084BD84B5816084BD0B
:1045500085B5826085BD85B5816085BDEEE6F0E0FC
:10456000808181608083E1E8F0E010828081826058
:104570008083808181608083E0E8F0E080818160D9
:104580008083E1EBF0E0808184608083E0EBF0E009
:10459000808181608083EAE7F0E0808184608083AD
:1045A0008081826080838081816080838081806857
:1045B00080831092C1000895CF93DF93482F50E07D
:1045C000CA018E50974FFC0134914252574FFA0165
:1045D0008491882369F190E0880F991FFC01E054D1
:1045E000F74FA591B491FC01E653F74FC591D491D3
:1045F000662351F42FB7F8948C91932F90958923CB
:104600008C93888189230BC0623061F42FB7F894B2
:104610008C91932F909589238C938881832B888309
:104620002FBF06C09FB7F8948C91832B8C939FBFAC
:10463000DF91CF910895482F50E0CA018A5F964FCD
:10464000FC012491CA018E50974FFC019491425273
:10465000574FFA013491332309F440C0222351F11A
:10466000233071F0243028F42130A1F0223011F5EC
:1046700014C02630B1F02730C1F02430D9F404C082
:10468000809180008F7703C0809180008F7D809320
:10469000800010C084B58F7702C084B58F7D84BD43
:1046A00009C08091B0008F7703C08091B0008F7DEA
:1046B0008093B000E32FF0E0EE0FFF1FE653F74FBB
:1046C000A591B4912FB7F894662321F48C9190951D
:1046D000892302C08C91892B8C932FBF0895682F5A
:1046E00070E0CB018A5F964FFC012491CB018E5084
:1046F000974FFC0144916252774FFB0194919923AB
:1047000019F420E030E03CC0222351F1233071F055
:10471000243028F42130A1F0223011F514C02630C5
:10472000B1F02730C1F02430D9F404C0809180006A
:104730008F7703C0809180008F7D8093800010C0B0
:1047400084B58F7702C084B58F7D84BD09C0809108
:10475000B0008F7703C08091B0008F7D8093B00050
:10476000892F90E0880F991F8C52974FFC01A591DB
:10477000B4918C9120E030E0842311F021E030E00E
:10478000C90108950F931F93CF93DF93BC0182302B
:10479000910510F462E070E0E091B007F091B1078C
:1047A00040E050E0A0E0B0E024C080819181861715
:1047B0009707D0F08617970771F48281938110973D
:1047C00029F013969C938E9312972CC09093B10767
:1047D0008093B00727C04115510519F0841795073C
:1047E00018F48D01AC01EF01DF01828193819C01FE
:1047F000F9013097D1F641155105F9F0CA01861B30
:10480000970B8430910580F48A819B8101151105F5
:1048100021F0F8019383828304C09093B1078093C1
:10482000B007FE01329645C0FE01E80FF91F619303
:1048300071930297998388833CC08091AE079091D1
:10484000AF07892B41F480913805909139059093F9
:10485000AF078093AE0740913A0550913B05411553
:10486000510541F44DB75EB78091360590913705FB
:10487000481B590B2091AE073091AF07241735071D
:10488000B0F4CA01821B930B8617970780F0AB0127
:104890004E5F5F4F8417950750F0420F531F5093A0
:1048A000AF074093AE07F9016193719302C0E0E056
:1048B000F0E0CF01DF91CF911F910F910895CF9339
:1048C000DF939C01009709F48FC0EC0122971B82B3
:1048D0001A826091B0077091B1076115710581F47A
:1048E00088819981820F931F2091AE073091AF0785
:1048F0002817390739F5D093AF07C093AE0774C0B6
:10490000DB0140E050E0AC17BD0708F1BB83AA8390
:10491000FE0121913191E20FF31FAE17BF0779F429
:104920008D919C911197280F391F2E5F3F4F39832E
:10493000288312968D919C9113979B838A834115AE
:10494000510571F4D093B107C093B0074DC01296D2
:104950008D919C911397AD01009711F0DC01D3CF9D
:10496000DA011396DC93CE931297FA0121913191DB
:10497000E20FF31FCE17DF0769F488819981280FB2
:10498000391F2E5F3F4FFA01318320838A819B813B
:1049900093838283E0E0F0E0DB0112968D919C919D
:1049A0001397009719F0BC01FD01F6CFAB014E5FE4
:1049B0005F4FDB018D919C91840F951F2091AE0775
:1049C0003091AF072817390779F4309729F41092FE
:1049D000B1071092B00702C01382128242505040B9
:1049E0005093AF074093AE07DF91CF910895F999A7
:1049F000FECF72BD61BDF89A80B50895F999FECFDA
:104A00001FBA72BD61BD40BD0FB6F894FA9AF99A0B
:104A10000FBE08952CB5382F33702C7F322B3CBD40
:104A20002DB590E0959587959595879581702E7F0A
:104A3000822B8DBD08958AE061E00E941B238AE0ED
:104A400061E00E94DC228CB580618CBD8CB58064F5
:104A50008CBD8DE061E00E94DC228BE061E00E9471
:104A6000DC22089581E08093EF066093CC061092DB
:104A7000ED061092EE0608952091CB0630E080916D
:104A8000CA06281B3109C90108954091CA068091C0
:104A9000CB06481718F02FEF3FEF0AC0E42FF0E0E5
:104AA000E655F94F8081282F30E04F5F4093CA06CA
:104AB000C9010895E091CA068091CB06E81718F065
:104AC000EFEFFFEF06C0F0E0E655F94F8081E82FE9
:104AD000F0E0CF01089508951092F3061092F206C7
:104AE00088EE93E0A0E0B0E08093F4069093F506A2
:104AF000A093F606B093F70688ED95E09093F10643
:104B00008093F0060895CF92DF92EF92FF920F9379
:104B10001F93CF93DF937C016B018A018091EF0695
:104B20008823A1F0C0E0D0E00DC0D701ED91FC9149
:104B3000D601AC0FBD1F0190F081E02DC7016C9133
:104B400009952196C017D10780F304C0CB01642FCB
:104B50000E945B26C801DF91CF911F910F91FF90BA
:104B6000EF90DF90CF900895DF93CF930F92CDB762
:104B7000DEB7FC0169838091EF068823C9F080913C
:104B8000EE06803238F081E090E09383828320E06B
:104B900030E015C08091ED06E82FF0E0E353F94FC7
:104BA000998190838F5F8093ED068093EE0605C018
:104BB000CE01019661E00E945B2621E030E0C90150
:104BC0000F90CF91DF9108950F93062F8091CC061F
:104BD0006DEC76E04091EE0621E00E9406261092F0
:104BE000ED061092EE061092EF060F91089561E027
:104BF0000E94E42508951092CA061092CB061092E6
:104C0000ED061092EE060E94072808950F931F9359
:104C1000582F122F413210F081E04AC08091FC06DB
:104C20008823E1F782E08093FC060093FE068FEF75
:104C3000809369071092240740932507A4E0B7E00A
:104C4000FB0102C081918D938E2F861B8417D0F3B8
:104C50001092FD068091FD06550F852B8093FD0671
:104C60008091FF06813041F41092FF068091FD068D
:104C70008093BB0085EC01C085EE8093BC001123BE
:104C800021F08091FC068230E1F3809169078F3F2B
:104C900011F480E00DC080916907803211F482E048
:104CA00007C080916907803311F084E001C083E080
:104CB0001F910F910895482F613210F081E00895FF
:104CC0008091FC06843011F082E0089560934707DC
:104CD000A6E2B7E0842F9C01F90102C081918D9377
:104CE0008E2F841B8617D0F380E008951F920F92B9
:104CF0000FB60F9211242F933F934F935F936F93AF
:104D00007F938F939F93AF93BF93EF93FF93809184
:104D1000B90090E0887F90708036910509F4F2C068
:104D200081369105CCF58832910509F47BC0893232
:104D30009105B4F48031910509F46FC0813191057A
:104D40003CF4009709F447C1089709F04FC165C0CA
:104D50008831910509F466C0809709F047C182C087
:104D60008034910509F4A4C08134910544F4803362
:104D7000910509F482C0C89709F038C189C080350F
:104D8000910509F489C08835910509F496C08834E5
:104D9000910509F02BC1AEC08839910509F413C102
:104DA00089399105ECF48837910509F4ABC089374E
:104DB00091054CF48836910509F4A4C0803791051B
:104DC00009F014C19FC08838910509F4FCC08039EE
:104DD000910509F49DC08038910509F007C198C07C
:104DE000803B910509F4C6C0813B91054CF4803AA3
:104DF000910509F49FC0883A910509F0F7C0BAC03F
:104E0000803C910509F4E3C0883C910509F4DFC0BA
:104E1000883B910509F0EAC0C2C08091FD068093ED
:104E2000BB00CFC09091240780912507981768F4A4
:104E300090912407E92FF0E0EC5FF84F8081809398
:104E4000BB009F5F90932407BCC08091FE0688231F
:104E500009F44BC085ED8093BC008091BC0084FDBB
:104E6000FCCFC2C080E28093690785ED8093BC00CF
:104E70008091BC0084FDFCCFB7C080E380936907BC
:104E800085ED8093BC008091BC0084FDFCCFACC05C
:104E900088E3809369079BC0809124079091BB00B1
:104EA000E82FF0E0EC5FF84F90838F5F809324074A
:104EB000909124078091250782C0809124079091CA
:104EC000BB00E82FF0E0EC5FF84F90838F5F80939A
:104ED00024078091FE06882341F085ED8093BC0075
:104EE0008091BC0084FDFCCF7FC081E08093FF06F1
:104EF00084EA6EC085ED8093BC008091BC0084FD87
:104F0000FCCF72C083E08093FC061092680759C002
:104F100080916807803208F056C0809168079091B0
:104F2000BB00E82FF0E0E85BF84F90838F5F809341
:104F3000680747C080916807803230F4E0916807C5
:104F4000F0E0E85BF84F108285ED8093BC00809123
:104F5000BC0084FDFCCF1092FC0660916807E091D4
:104F60000207F091030788E497E070E0099510923A
:104F700068072DC084E08093FC06109246071092CB
:104F80004707E0910007F0910107099580914707D5
:104F9000882329F481E08093470710922607909197
:104FA0004607E92FF0E0EA5DF84F80818093BB006F
:104FB0009F5F909346079091460780914707981707
:104FC00010F485EC01C085E88093BC000FC085EC2F
:104FD0008093BC0009C01092690785ED8093BC00E6
:104FE0008091BC0084FDFCCF1092FC06FF91EF91F4
:104FF000BF91AF919F918F917F916F915F914F91F1
:105000003F912F910F900FBE0F901F901895109207
:10501000FC0681E08093FE061092FF0682E161E0CB
:105020000E941B2383E161E00E941B23E9EBF0E077
:1050300080818E7F808380818D7F808380E28093DA
:10504000B80085E48093BC0008950F931F93CF931D
:10505000DF93FC01738D76957170A685B785958574
:10506000772329F08C91892309F454C004C08C91D2
:10507000892309F04FC08389948920E001972FEF9D
:105080008F3F9207D9F7C589D689A685B78515853B
:1050900060E031E040E050E000E0CE01202F0197D9
:1050A0002FEF8F3F9207D9F78C91812311F0632B5B
:1050B00003C0832F80956823330F4F5F5F4F4830C5
:1050C000510559F78789908D20E001972FEF8F3F89
:1050D0009207D9F7711160958091AC072091AD07C7
:1050E00090E001968F73907030E08217930779F00B
:1050F000E091AC07F0E0E459F84F60838091AC0791
:1051000090E001968F7390708093AC0703C0838DFD
:105110008160838FDF91CF911F910F9108951F922E
:105120000F920FB60F9211242F933F934F935F93DB
:105130006F937F938F939F93AF93BF93EF93FF935F
:1051400080916A0790916B07009711F00E942528C3
:10515000FF91EF91BF91AF919F918F917F916F914F
:105160005F914F913F912F910F900FBE0F901F9025
:1051700018951F920F920FB60F9211242F933F9301
:105180004F935F936F937F938F939F93AF93BF934F
:10519000EF93FF9380916A0790916B07009711F04E
:1051A0000E942528FF91EF91BF91AF919F918F9120
:1051B0007F916F915F914F913F912F910F900FBE13
:1051C0000F901F9018951F920F920FB60F921124F7
:1051D0002F933F934F935F936F937F938F939F93FF
:1051E000AF93BF93EF93FF9380916A0790916B0702
:1051F000009711F00E942528FF91EF91BF91AF9188
:105200009F918F917F916F915F914F913F912F91DE
:105210000F900FBE0F901F901895CF92DF92EF92D4
:10522000FF920F931F93CF93DF93EC017A018B01D1
:105230001A8E198E188E1F8A1E8A1D8A1C8A1B8A36
:1052400020E030E06901CC0CDD1CC20ED31EB6019B
:10525000660F771F660F771FAB01465E564FFA0148
:1052600085919591A591B4918E159F05A007B107E1
:10527000E9F4FB01E25EF64F859194919C8B8B8B58
:10528000FB01E05EF64F859194919E8B8D8BFB0127
:10529000EE5DF64F85919491988F8F8BFB01EC5DBD
:1052A000F64F859194919A8F898F06C02F5F3F4F5B
:1052B0002D30310509F0C6CF8F89988D892B09F4DF
:1052C00049C04C85463108F03DC090916800483097
:1052D00010F484E005C04E3010F082E001C081E09F
:1052E000892B80936800483028F4EDE6F0E0ADE6C5
:1052F000B0E00BC04E3028F0ECE6F0E0ACE6B0E0F9
:1053000004C0EBE6F0E0ABE6B0E05081483040F49A
:1053100081E090E002C0880F991F4A95E2F710C023
:10532000242F30E04E3018F42850304002C02E5068
:10533000304081E090E002C0880F991F2A95E2F783
:10534000852B8C93898D9A8D20E001972FEF8F3FCD
:105350009207D9F780916A0790916B078C179D0788
:1053600081F08B8D8E7F8B8F9FB7F8941092AC0756
:105370008091AC078093AD07D0936B07C0936A0709
:105380009FBFDF91CF911F910F91FF90EF90DF9022
:10539000CF900895FC014485463180F5483028F4CB
:1053A000EDE6F0E0ADE6B0E00BC04E3028F4EBE601
:1053B000F0E0ABE6B0E004C0ECE6F0E0ACE6B0E074
:1053C0005081483040F481E090E002C0880F991F7E
:1053D0004A95E2F710C0242F30E04E3018F42850E0
:1053E000304002C02E50304081E090E002C0880F73
:1053F000991F2A95E2F7809585238C930895FC01E7
:1054000088EE95E091838083CF010E94CA29089598
:1054100020916A0730916B072817390731F4909172
:10542000AD078091AC07981719F42FEF3FEF0FC02D
:10543000E091AD07F0E0E459F84F20818091AD078D
:1054400090E001968F7390708093AD0730E0C901B2
:10545000089520916A0730916B072817390719F0D2
:1054600020E030E00EC08091AC072091AD0790E0C5
:10547000805C9F4F821B910960E470E00E94C52B05
:105480009C01C90108950F931F93DC0159968D91DA
:105490009C915A97892B49F481E090E013969C9354
:1054A0008E93129720E030E097C00FB7F8945B9688
:1054B0008C915B975196ED91FC91529750962C915F
:1054C000509781FF8DC08081822B808359968D916A
:1054D0009C915A97049620E001972FEF8F3F9207F7
:1054E000D9F75B968C915B9781FF35C031E040E046
:1054F00050E070E010E0832F90E0862397235196D0
:10550000ED91FC91529750962C915097892B29F050
:10551000808120952823208303C08081822B808373
:1055200059968D919C915A97212F01972FEF8F3F7C
:105530009207D9F7330F4F5F5F4F48305105D9F6C7
:105540005196ED91FC915297908150968C91509785
:105550008095892333C031E040E050E070E010E0F6
:10556000832F90E0862397235196ED91FC915297DB
:1055700050962C915097892B21F08081822B80832B
:1055800004C0808120952823208359968D919C9179
:105590005A97212F01972FEF8F3F9207D9F7330F9B
:1055A0004F5F5F4F48305105D9F65196ED91FC9110
:1055B0005297808150969C915097892B80830FBF82
:1055C00059968D919C915A9720E001972FEF8F3F2C
:1055D0009207D9F721E030E0C9011F910F9108959A
:1055E000808120952823208371CF20916A073091F4
:1055F0006B072817390749F49FB7F8941092AC0746
:105600008091AC078093AD079FBF089520916A07F2
:1056100030916B072817390731F49091AD078091CD
:10562000AC07981719F42FEF3FEF0AC0E091AD07D0
:10563000F0E0E459F84F8081282F332727FD30957B
:10564000C90108951F93CF93DF93EC01162F862F86
:1056500060E00E94DC228B8D81FD04C0812F61E01F
:105660000E941B231C87212F30E0C9018E50974FC9
:10567000FC0184918D872252374FF9016491E62F06
:10568000F0E0EE0FFF1FEC52F74F859194919F874A
:105690008E87DF91CF911F910895FF920F931F93F3
:1056A0008C01F62E862F61E00E94DC228F2D61E0B6
:1056B0000E941B238F2D90E0FC01EE50F74FE491E8
:1056C000D8015096EC9350978252974FFC01649109
:1056D000E62FF0E0EE0FFF1FE653F74F8591949110
:1056E00052969C938E9351971F910F91FF9008951E
:1056F000FF920F931F938C01F62EFC0113821282EE
:1057000088EE93E0A0E0B0E084839583A683B7831E
:1057100088EE95E091838083148A138A168A158A0D
:10572000108E178A128E118E838D2170220F8C7F1E
:10573000822B838FC801642F0E944D2BC8016F2DCF
:105740000E94222B1F910F91FF900895629FD0011C
:10575000739FF001829FE00DF11D649FE00DF11D2C
:10576000929FF00D839FF00D749FF00D659FF00DDB
:105770009927729FB00DE11DF91F639FB00DE11DC8
:10578000F91FBD01CF011124089597FB092E0726AB
:105790000AD077FD04D049D006D000201AF47095C5
:1057A00061957F4F0895F6F7909581959F4F0895E5
:1057B000A1E21A2EAA1BBB1BFD010DC0AA1FBB1F15
:1057C000EE1FFF1FA217B307E407F50720F0A21B87
:1057D000B30BE40BF50B661F771F881F991F1A94F4
:1057E00069F760957095809590959B01AC01BD011E
:1057F000CF01089597FB092E05260ED057FD04D042
:10580000D7DF0AD0001C38F450954095309521958B
:105810003F4F4F4F5F4F0895F6F7909580957095E5
:1058200061957F4F8F4F9F4F0895AA1BBB1B51E17E
:1058300007C0AA1FBB1FA617B70710F0A61BB70B00
:10584000881F991F5A95A9F780959095BC01CD01A5
:105850000895EE0FFF1F0590F491E02D099419E0D3
:10586000CAEBD9E004C0FE010E942B2C2296CC3B4F
:08587000D107C9F7F894FFCF3E
:105878002E000A000A0A002F0020202020202000E5
:1058880053544F50000164000A0001000400010055
:105898000102003C000000000000000000000000C1
:1058A80000000000000000000000000000000000F0
:1058B80000000000000000000000000000000000E0
:1058C80000000000000000000000000000000000D0
:1058D8000000000080808000000000000000000040
:1058E8000000000000008080C0C000000000000030
:1058F80000000000000000000000000000000000A0
:10590800000000000000000000000000000000008F
:10591800000000000000000000000000000000007F
:1059280000000000000000000080C0E0F0F8FCF873
:10593800E00000000000000000000000000000007F
:1059480000008080808080008080000000008080CF
:1059580080808000FFFFFF000000008080808000C2
:10596800008080000080FFFF8080008080008080B1
:1059780080800080800000000000808000008C8E05
:1059880084000080F8F8F8800000000000000000A3
:105998000000000000F0F0F0F0F0F0F0F0F0F0F0AF
:1059A800F0E0E0C08000E0FCFEFFFFFF7FFFFFFFAC
:1059B800FFFF0000000000000000000000000000E1
:1059C800FEFFC70101010183FFFF00007CFEC70144
:1059D80001010183FFFFFF0038FEC7830101018336
:1059E800C7FFFF000001FFFF010100FFFF070101E2
:1059F8000100007FFF80000000FFFF7F0000FFFF25
:105A0800FF000001FFFFFF01000000000000000090
:105A18000000000000030F3F7F7FFFFFFFFFFFFF35
:105A2800FFE7C7C78F8F9FBFFFFFC3C0F0FFFFFF10
:105A3800FFFFFCFCFCFCFCFCFCFCF8F8F0F0E0C010
:105A48000001030303030301030300000000010333
:105A58000303030101030100000001030303030121
:105A6800010303000000030300000003030000001B
:105A78000000000001030303030301000000010309
:105A88000100000003030100000000000000000006
:105A9800000000000000000080C0E0F0F9FFFFFFF8
:105AA800FFFF3F1F0F87C7F7FFFF1F1F3DFCF8F8D9
:105AB800F8F87C7DFFFFFFFFFFFFFFFF7F3F0F0729
:105AC800003030000000000000000000000000006E
