:100000000C9489040C9470200C9497200C942D2649
:100010000C942D260C942D260C94B1040C94F31FF3
:100020000C94B1040C94B1040C94B1040C94B1047C
:100030000C94B1040C94BC1B0C94B1040C94B1044A
:100040000C94BE200C94B1040C94B1040C94B10433
:100050000C94B1040C94B1040C94B1040C94B1044C
:100060000C941B240C94B104B108A508F708A5084A
:1000700068099A09EF09210A470AA508A508A508F1
:10008000790AA5089F0A100BA508330B530BA50886
:10009000A508A508A508A508810B990DBB0DD50DD0
:1000A000E20DFF0D320E5A0E640E780E900DB40E56
:1000B000DE0EFD0E2D0F400F4A0F960FC90FE20FF7
:1000C0000E10281032106710A210B910D4107553FA
:1000D000004369636C6F204D61783A0075530043AB
:1000E00069636C6F204D696E3A0075530043696314
:1000F0006C6F204163743A0056657273696F6E3A93
:100100000062792057617272696F72004265617492
:100110004475696E6F00456C696765206C6120638A
:10012000616E63696F6E3A005469706F20436F6D42
:100130007061733A00202042504D00456C6967653C
:1001400020656C2074656D706F3A004E6F6D627241
:10015000652063616E63696F6E3A00456C6967651F
:10016000206C612063616E63696F6E3A00426F724A
:100170007261722063616E63696F6E0043616E63CA
:10018000696F6E206120696E7365727461723A00E6
:10019000496E7365727461722064657370756573FE
:1001A0002064653A00456C696765206C6120636175
:1001B0006E63696F6E3A00506F736963696F6E208A
:1001C00061206564697461723A00456C69676520F5
:1001D0006C6120706F736963696F6E3A004E6F6D6A
:1001E000627265207265706572746F72696F3A0031
:1001F000456C696765207265706572746F72696FAE
:100200003A005354415254002042504D0A0A0053C0
:1002100054415254002042504D0A0A002A02200242
:100220004D6574726F6E6F6D6F005265706572749C
:100230006F72696F00540246023B024D6964692087
:10024000436C6F636B005469636B732069677561FE
:100250006C6573004D6F646F00640262025F02316F
:100260003600380034009C028E027D026E0243612B
:100270006D6269617220436F6D7061730043616DDF
:1002800062696172204469766973696F6E004361C7
:100290006D626961722054656D706F0043616D62BB
:1002A000696172204E6F6D62726500C002AF0245D7
:1002B0006C696D696E61722043616E63696F6E0077
:1002C0004564697461722043616E63696F6E00D624
:1002D00002D3025349004E4F001003FF02EE02E129
:1002E00002566163696172204F7264656E00456CED
:1002F000696D696E61722043616E63696F6E00495A
:100300006E7365727461722043616E63696F6E0013
:1003100043616D62696172204F7264656E003003E3
:10032000220343616D62696172204F7264656E00E1
:1003300043616D62696172204E6F6D627265006B20
:100340000359034503456C696D696E6172205265FE
:10035000706572746F72696F0045646974617220B0
:100360005265706572746F72696F0043616D626986
:100370006172205265706572746F72696F009D03BF
:1003800093038B038603496E666F00416A7573742D
:1003900065730043616E63696F6E657300526570CB
:1003A0006572746F72696F730000000000003E5B3D
:1003B0004F5B3E3E6B4F6B3E1C3E7C3E1C183C7EB2
:1003C0003C181C577D571C1C5E7F5E1C00183C1897
:1003D00000FFE7C3E7FF0018241800FFE7DBE7FF93
:1003E00030483A060E2629792926407F0505074020
:1003F0007F05253F5A3CE73C5A7F3E1C1C08081CE1
:100400001C3E7F14227F22145F5F005F5F06097F1E
:10041000017F006689956A606060606094A2FFA2B7
:100420009408047E040810207E201008082A1C0866
:10043000081C2A08081E101010100C1E0C1E0C3070
:10044000383E3830060E3E0E060000000000000068
:100450005F00000007000700147F147F14242A7F28
:100460002A122313086462364956205000080703F5
:1004700000001C2241000041221C002A1C7F1C2A73
:1004800008083E08080080703000080808080800C6
:100490000060600020100804023E5149453E0042C1
:1004A0007F400072494949462141494D3318141291
:1004B0007F1027454545393C4A49493141211109B9
:1004C000073649494936464949291E0000140000AB
:1004D00000403400000008142241141414141400C5
:1004E0004122140802015909063E415D594E7C1211
:1004F00011127C7F494949363E414141227F4141A9
:10050000413E7F494949417F090909013E41415125
:10051000737F0808087F00417F41002040413F0170
:100520007F081422417F404040407F021C027F7FB1
:100530000408107F3E4141413E7F090909063E41C2
:1005400051215E7F09192946264949493203017F15
:1005500001033F4040403F1F2040201F3F403840A4
:100560003F631408146303047804036159494D433D
:10057000007F4141410204081020004141417F04B5
:10058000020102044040404040000307080020549C
:100590005478407F284444383844444428384444FC
:1005A000287F385454541800087E090218A4A49CCB
:1005B000787F0804047800447D40002040403D00DE
:1005C0007F1028440000417F40007C047804787C40
:1005D000080404783844444438FC182424181824A7
:1005E0002418FC7C08040408485454542404043F90
:1005F00044243C4040207C1C2040201C3C40304097
:100600003C44281028444C9090907C4464544C44C2
:100610000008364100000077000000413608000263
:10062000010204023C2623263C1EA1A161123A408D
:1006300040207A3854545559215555794122545403
:100640007842215554784020545579400C1E5272FE
:1006500012395555555939545454593955545458DB
:100660000000457C410002457D420001457C407D03
:100670001211127DF0282528F07C54554500205495
:10068000547C547C0A097F4932494949323A4444EE
:10069000443A324A4848303A4141217A3A4240206D
:1006A00078009DA0A07D3D4242423D3D4040403DFE
:1006B0003C24FF2424487E4943662B2FFC2F2BFF2C
:1006C0000929F620C0887E0903205454794100008E
:1006D000447D413048484A32384040227A007A0A04
:1006E0000A727D0D19317D2629292F2826292929CD
:1006F0002630484D402038080808080808080838FF
:100700002F10C8ACBA2F102834FA00007B00000864
:10071000142A142222142A1408AA005500AAAA5541
:10072000AA55AA000000FF00101010FF00141414B6
:10073000FF001010FF00FF1010F010F0141414FC54
:10074000001414F700FF0000FF00FF1414F404FC71
:10075000141417101F10101F101F1414141F001052
:100760001010F0000000001F101010101F101010CB
:1007700010F010000000FF101010101010101010DA
:10078000FF10000000FF140000FF00FF00001F101A
:10079000170000FC04F414141710171414F404F4D4
:1007A0000000FF00F714141414141414F700F714C5
:1007B0001414171410101F101F141414F414101014
:1007C000F010F000001F101F0000001F14000000B8
:1007D000FC140000F010F01010FF10FF141414FFB0
:1007E000141010101F00000000F010FFFFFFFFFFAB
:1007F000F0F0F0F0F0FFFFFF0000000000FFFF0F3F
:100800000F0F0F0F3844443844FC4A4A4A347E02E2
:10081000020606027E027E02635549416338444463
:100820003C04407E201E2006027E020299A5E7A518
:10083000991C2A492A1C4C7201724C304A4D4D3089
:100840003048784830BC625A463D3E494949007EAE
:100850000101017E2A2A2A2A2A44445F4444405145
:100860004A444040444A51400000FF0103E080FFF9
:10087000000008086B6B083612362436060F090F85
:1008800006000018180000001010003040FF0101A1
:10089000001F01011E00191D1712003C3C3C3C00CA
:1008A00000000000566163696F00564143494F00E4
:1008B000020000000800020100000304070000001D
:1008C0000000000000010204081020408001020422
:1008D0000810200102040810200404040404040485
:1008E00004020202020202030303030303000000E6
:1008F0000023002600290000000000250028002B0E
:100900000000000000240027002A0000B9066B2325
:10091000C60611241FBECFEFD8E0DEBFCDBF16E064
:10092000A0E0B1E0E8E8F3E502C005900D92A43143
:10093000B107D9F727E0A4E1B6E001C01D92A13EBE
:10094000B207E1F714E0C8E8D4E004C02197FE0143
:100950000E940F28C638D107C9F70E94E61B0C94E5
:10096000B7290C940000CF93DF9381E00E944522C9
:10097000EC0182E00E944522C817D90751F480910A
:1009800027069091280601969093280680932706C3
:1009900009C0809127069091280601979093280618
:1009A00080932706DF91CF91089560E08DE00E944B
:1009B00015228BE00E94DD1F109213011092150189
:1009C000109214010E94082160934C0670934D060A
:1009D00080934E0690934F0608951F93CF93DF9315
:1009E000182FEB010E944522892B09F062C09E015D
:1009F000220F331F220F331F220F331FFE01EE0F72
:100A0000FF1FE20FF31FE559F94F17821682138279
:100A10008081811113C0FE01EE0FFF1FE20FF31F53
:100A2000E559F94F81E044815581209110013091C1
:100A300011014217530718F480E001C080E09E01C5
:100A4000220F331F220F331F220F331FFE01EE0F21
:100A5000FF1FE20FF31FE559F94F828384819581CF
:100A600020911001309111018217930788F0CE0177
:100A7000880F991F880F991F880F991FFE01EE0F8D
:100A8000FF1FE80FF91FE559F94F81E0808311C07E
:100A90009E01220F331F220F331F220F331FFE012F
:100AA000EE0FFF1FE20FF31FE559F94F01969583F3
:100AB0008483812F0E944522019709F05BC0CE01FB
:100AC000880F991F880F991F880F991FFE01EE0F3D
:100AD000FF1FE80FF91FE559F94F1582148211869F
:100AE00010861182128220812223C9F0CE01880F44
:100AF000991F880F991F880F991FFE01EE0FFF1F86
:100B0000E80FF91FE559F94F21E04681578180919F
:100B10001001909111014817590708F420E0CE0107
:100B2000880F991F880F991F880F991FFE01EE0FDC
:100B3000FF1FE80FF91FE559F94F2383868197813D
:100B400020911001309111018217930710F010824B
:100B50004DC09E01220F331F220F331F220F331F60
:100B6000FE01EE0FFF1FE20FF31FE559F94F01964B
:100B700097838683CE01880F991F880F991F880F4E
:100B8000991FFE01EE0FFF1FE80FF91FE559F94FFE
:100B90008081882359F1CE01880F991F880F991FF2
:100BA000880F991FFE01EE0FFF1FE80FF91FE5598F
:100BB000F94F8085918501969187808720910E015C
:100BC00030910F018217930719F481E081830EC0E1
:100BD000CE01880F991FCC0FDD1FCC0FDD1FCC0F6E
:100BE000DD1FC80FD91FC559D94F1982DF91CF9189
:100BF0001F910895CF93DF93809149060E949B1A1D
:100C0000EC01BC0185E596E00E948B29CE010E9493
:100C1000D828DF91CF910895FF920F931F93CF9320
:100C2000DF9360914A06809149060E94121BF82EBC
:100C30000E94D61A8C01BC018EE596E00E948B2999
:100C4000C8010E94D8288F2D0E94221BCEE5D6E035
:100C50008A878F2D0E942A1B8B878F2D0E94351B20
:100C60008C87DF91CF911F910F91FF9008958BEFAB
:100C700091E00E94A1298F3F11F080931F018CEF1A
:100C800091E00E94A1298F3F31F091E0811101C0D4
:100C900090E090934B068DEF91E00E94A1298F3F49
:100CA00031F091E0811101C090E090932906089500
:100CB0000FB6F894A89580916000886180936000D9
:100CC000109260000FBE62E082E00E94D92162E0D3
:100CD00081E00E94D92162E080E00E94D92162E097
:100CE00083E00E94D92162E085E00E94D92161E081
:100CF0008BE00E94D92161E08DE00E94D92161E062
:100D000084E00E94D92141E050E063EB74E080E090
:100D10000E94502021E04DE362E089E896E00E94C5
:100D2000A01842E15AE760E070E08AE296E00E9493
:100D30002B2789E896E00E942C1861E089E896E06C
:100D40000E94771461E070E089E896E00E947D14CB
:100D50009FE088E10FB6F894A895809360000FBEDD
:100D6000909360000E9437060E94FA050E940C06CC
:100D7000089564E089E896E00E94131820E046E0B8
:100D800067E08AE296E00E94002708958AE296E0F2
:100D90000E94A7260895CF92DF92EF92FF92CF9301
:100DA000DF930E940821C0911801D0911901C090D1
:100DB0004C06D0904D06E0904E06F0904F069B01F9
:100DC000AC012C193D094E095F0969017A019E01A8
:100DD00040E050E0609150067091510680915206BB
:100DE000909153060E94CE27C216D306E406F5065C
:100DF00058F181E0809313018091140190911501C5
:100E00004091160150911701C49F9001C59F300D6C
:100E1000D49F300D11242817390739F481E090E070
:100E2000909315018093140105C0019690931501CC
:100E3000809314010E94082160934C0670934D0624
:100E400080934E0690934F0680911301882389F179
:100E500061E08DE00E9415228091140190911501AE
:100E6000019781F480914B0681110CC020911A01E9
:100E700030911B0140E050E068EB71E08BE00E9494
:100E8000551D0BC020911A0130911B0140E050E02C
:100E900066E071E08BE00E94551D80912906882351
:100EA00029F068EF8AE296E00E946925109213010A
:100EB00004C060E08DE00E941522DF91CF91FF9089
:100EC000EF90DF90CF900895EF92FF920F931F93D2
:100ED000CF93DF93CDB7DEB76E970FB6F894DEBF32
:100EE0000FBECDBF80915406882321F0813009F4D4
:100EF00013C1D2C480911F01882321F0813009F4ED
:100F0000A3C0CAC489E896E00E942C1840E050E0D3
:100F100060E070E089E896E00E94711440E050E0E3
:100F200061E070E089E896E00E94831460914906D0
:100F300070E06F5F7F4F4AE050E089E896E00E94E2
:100F40001D1D65E375E089E896E00E94591C65E582
:100F500076E089E896E00E94591C68E375E089E82C
:100F600096E00E94591C60914A0670E06F5F7F4FC7
:100F70004AE050E089E896E00E941D1D65E375E0B7
:100F800089E896E00E94591C6EE576E089E896E0D3
:100F90000E94591C67E375E089E896E00E94591C9D
:100FA00062E089E896E00E94771460911C017091DC
:100FB0001D014AE050E089E896E00E944F1D65E17E
:100FC00072E089E896E00E94351C61E089E896E0CD
:100FD0000E94771460911601709117014AE050E069
:100FE00089E896E00E944F1D6AE375E089E896E083
:100FF0000E94591C6091180170911901660F771FAA
:10100000660F771F4AE050E089E896E00E944F1D86
:101010006CE375E089E896E00E94591C809112010A
:10102000882339F06FE072E089E896E00E94351C71
:1010300006C063E475E089E896E00E94591C89E8DF
:1010400096E00E94DE1928C489E896E00E942C18D8
:1010500040E050E060E070E089E896E00E947114A2
:1010600040E050E061E070E089E896E00E9483147F
:1010700062E089E896E00E94771460911C0170910B
:101080001D014AE050E089E896E00E944F1D68E0AB
:1010900072E089E896E00E94351C61E089E896E0FC
:1010A0000E94771460911601709117014AE050E098
:1010B00089E896E00E944F1D6AE375E089E896E0B2
:1010C0000E94591C6091180170911901660F771FD9
:1010D000660F771F4AE050E089E896E00E944F1DB6
:1010E0006CE375E089E896E00E94591C809112013A
:1010F000882339F062E072E089E896E00E94351CAE
:1011000006C063E475E089E896E00E94591C89E80E
:1011100096E00E94DE19C0C389E896E00E942C1870
:1011200040E050E060E070E089E896E00E947114D1
:1011300020912606822F90E0FC013297E931F105DB
:1011400020F4EC5CFF4F0C940F28E22FF0E0EE0F40
:10115000FF1FEE0FFF1FE85BFA4F8081811150C324
:1011600097C340E050E061E070E089E896E00E94BB
:10117000831460EF71E089E896E00E94661C00E04D
:1011800010E08091250690E08017910749F441E036
:1011900050E060E070E089E896E00E94831408C0A7
:1011A00040E050E061E070E089E896E00E9483143E
:1011B000802F0E949B1A7C010F5F1F4F4AE050E076
:1011C000B80189E896E00E941D1D65E375E089E895
:1011D00096E00E94591CB70189E896E00E94781CAD
:1011E000C7010E94D8280330110559F651C340E0C9
:1011F00050E061E070E089E896E00E9483146DEDB4
:1012000071E089E896E00E94661C80912706909123
:101210002806181619063CF580912406E09122064E
:10122000F0912306E80FF11D8081811102C080E258
:10123000808380912406E0912206F0912306E80F36
:10124000F11D80818A3711F488ED80838091240616
:10125000E0912206F0912306E80FF11D80818A3784
:1012600010F48F5F80838091270690912806992340
:1012700094F480912406E0912206F0912306E80F71
:10128000F11D8081883D19F48AE7808304C0813292
:1012900010F081508083609122067091230689E8C6
:1012A00096E00E94781C8091240690E0BC01660FB5
:1012B000771F680F791F660F771F01E010E026E0A7
:1012C00030E04FE050E089E896E00E949414E0C2DC
:1012D0006AEC71E089E896E00E94661C40E050E00C
:1012E00061E070E089E896E00E9483146091250631
:1012F000809149060E94121B0E94D61A8C0190917F
:101300002506692F70E06F5F7F4F4AE050E089E863
:1013100096E00E941D1D65E375E089E896E00E9455
:10132000591CB80189E896E00E94781CC8010E9407
:10133000D828AEC267EB71E089E896E00E94661C8F
:1013400060912106809149060E94121B0E94D61AC4
:101350008C0190912106692F70E06F5F7F4F4AE00A
:1013600050E089E896E00E941D1D65E375E089E87C
:1013700096E00E94591CB80189E896E00E94781C0A
:1013800068E375E089E896E00E94781C65EA71E000
:1013900089E896E00E94661CC8010E94D8288091C6
:1013A00025060E94D61A8C0190912106692F70E0C3
:1013B0006F5F7F4F4AE050E089E896E00E941D1D74
:1013C00065E375E089E896E00E94591CB80189E858
:1013D00096E00E94781CC8010E94D82859C260E992
:1013E00071E089E896E00E94661C40E050E061E010
:1013F00070E089E896E00E94831460912506809150
:1014000049060E94121B0E94D61A8C019091250653
:10141000692F70E06F5F7F4F4AE050E089E896E007
:101420000E941D1D65E375E089E896E00E94591C45
:10143000B80189E896E00E94781CC8010E94D8286B
:1014400027C26CE771E089E896E00E94661C8091F3
:1014500025060E94D61A8C0190912106692F70E012
:101460006E5F7F4F4AE050E089E896E00E941D1DC4
:1014700065E375E089E896E00E94591CB80189E8A7
:1014800096E00E94781CC8010E94D82801C26DE62F
:1014900071E089E896E00E94661C40E050E061E05F
:1014A00070E089E896E00E9483146091250680919F
:1014B00049060E94121B0E94D61A8C0190912506A3
:1014C000692F70E06F5F7F4F4AE050E089E896E057
:1014D0000E941D1D65E375E089E896E00E94591C95
:1014E000B80189E896E00E94781CC8010E94D828BB
:1014F000CFC16BE571E089E896E00E94661C80919F
:1015000025060E94D61A8C0190912506692F70E05D
:101510006F5F7F4F4AE050E089E896E00E941D1D12
:1015200065E375E089E896E00E94591CB80189E8F6
:1015300096E00E94781CC8010E94D828A9C140E00A
:1015400050E061E070E089E896E00E9483146BE46B
:1015500071E089E896E00E94661C809127069091D0
:101560002806181619063CF580912406E0912206FB
:10157000F0912306E80FF11D8081811102C080E205
:10158000808380912406E0912206F0912306E80FE3
:10159000F11D80818A3711F488ED808380912406C3
:1015A000E0912206F0912306E80FF11D80818A3731
:1015B00010F48F5F808380912706909128069923ED
:1015C00094F480912406E0912206F0912306E80F1E
:1015D000F11D8081883D19F48AE7808304C081323F
:1015E00010F081508083609122067091230689E873
:1015F00096E00E94781C8091240690E0BC01660F62
:10160000771F680F791F660F771F01E010E026E053
:1016100030E04FE050E089E896E00E94941438C131
:1016200040E050E061E070E089E896E00E948314B9
:101630006BE371E089E896E00E94661C68E375E060
:1016400089E896E00E94781C4AE050E06091250607
:1016500089E896E00E94481D65E371E089E896E01C
:101660000E94661C15C140E050E061E070E089E82E
:1016700096E00E94831468E271E089E896E00E9497
:10168000661C68E375E089E896E00E94781C60912A
:10169000250670E06E5F7F4F4AE050E089E896E0F3
:1016A0000E94241DF5C040E050E061E070E089E850
:1016B00096E00E94831466E171E089E896E00E945A
:1016C000661C809125060E94D61A8C0190912506F1
:1016D000692F70E06F5F7F4F4AE050E089E896E045
:1016E0000E941D1D65E375E089E896E00E94591C83
:1016F000B80189E896E00E94781CC8010E94D828A9
:10170000C7C040E050E061E070E089E896E00E94E8
:1017100083146CE071E089E896E00E94661C61E049
:1017200071E089E896E00E94661C68EF70E089E845
:1017300096E00E94351C4AE050E061E070E089E8E4
:1017400096E00E941D1D65E375E089E896E00E9421
:10175000591C4AE050E060E070E089E896E00E94A1
:10176000241D6DEE70E089E896E00E94351C4091E2
:1017700018065091190660911A0670911B062AE00E
:1017800030E089E896E00E943B1D6AEE70E089E84F
:1017900096E00E94661C6FED70E089E896E00E947A
:1017A000351C40910A0150910B0160910C01709120
:1017B0000D012AE030E089E896E00E943B1D6CEDC7
:1017C00070E089E896E00E94661C61ED70E089E8AF
:1017D00096E00E94351C40911406509115066091C8
:1017E0001606709117062AE030E089E896E00E941C
:1017F0003B1D6EEC70E089E896E00E94661C48C0D4
:1018000000E010E08091250690E08017910749F4F0
:1018100041E050E060E070E089E896E00E948314C7
:1018200008C040E050E061E070E089E896E00E9486
:101830008314E0912606F0E0EE0FFF1FEE0FFF1F6E
:10184000E85BFA4FC801880F991F0280F381E02DF1
:10185000E80FF91F65917491CE0101960E947529D8
:10186000BE016F5F7F4F89E896E00E94781C0F5F92
:101870001F4FE0912606F0E0EE0FFF1FEE0FFF1F57
:10188000E85BFA4F808190E0081719070CF4BACF93
:1018900089E896E00E94DE196E960FB6F894DEBFD6
:1018A0000FBECDBFDF91CF911F910F91FF90EF90B1
:1018B00008950F931F93CF93DF93CDB7DEB72A9789
:1018C0000FB6F894DEBF0FBECDBF0E941421609307
:1018D0001C0670931D0680931E0690931F0660E001
:1018E00070E080E090E00E94ED0461E070E083E051
:1018F00090E00E94ED0462E070E085E090E00E94DC
:10190000ED0480917706882311F18091540681308F
:10191000A1F4E0912606E11103C01092540614C010
:10192000F0E0EE0FFF1FEE0FFF1FE85BFA4F818123
:10193000809326061092250607C081E08093540606
:10194000109225061092260681E080931E01809158
:101950005406882321F0813009F493C042C4809159
:101960001F01882321F0813009F45AC03AC48091C4
:101970002706909128061816190664F480914A06E5
:101980008D3140F48F5F80934A060E940C0681E0FF
:1019900080931E018091270690912806992364F474
:1019A00080914A06882341F0815080934A060E9424
:1019B0000C0681E080931E01EEE5F6E02285822F81
:1019C00090E090931D0180931C01838590E090939B
:1019D000190180931801848590E0909317018093FA
:1019E000160130E040E050E060E67AEE80E090E002
:1019F0000E94F027209350063093510640935206E0
:101A00005093530680916D06882309F4EAC38091B0
:101A1000120191E089278093120190931E01E1C386
:101A2000009127061091280620911C0130911D017C
:101A3000200F311F30931D0120931C0140E050E026
:101A400060E67AEE80E090E00E94F0272093500656
:101A500030935106409352065093530680916D0681
:101A6000882341F08091120191E08927809312012F
:101A700090931E01012B09F4B4C381E080931E01F1
:101A8000B0C3209127063091280612161306E4F4FD
:101A900040912506642F70E0E0912606F0E0EE0FFD
:101AA000FF1FEE0FFF1FE85BFA4F808190E0019768
:101AB0006817790724F44F5F4093250602C01092FF
:101AC000250681E080931E013323C4F4809125060E
:101AD000882321F08150809325060DC0E0912606D1
:101AE000F0E0EE0FFF1FEE0FFF1FE85BFA4F808163
:101AF00081508093250681E080931E0180918106AC
:101B0000882309F46EC3E09126068E2F90E08A3177
:101B1000910508F063C3FC01E35BFF4F0C940F28B1
:101B200060912106862F90E001964D970CF4EAC053
:101B300001C180912506813061F028F0823079F072
:101B4000833099F04BC31092250681E080932606DE
:101B500045C3109225068DE0809326063FC3109260
:101B6000250686E18093260639C3109225068AE170
:101B70008093260633C380912506813051F018F0FA
:101B8000823069F02BC31092250682E080932606EE
:101B900025C31092250683E0809326061FC310926A
:101BA00025068CE08093260619C380912506809334
:101BB000490610924A060E94FA050E940C061092ED
:101BC00054060CC380912506882319F0813089F0D2
:101BD00005C31092250684E080932606809149066D
:101BE0000E949B1A9093230680932206109224064B
:101BF000F5C21092250685E080932606EFC28091FB
:101C00002406E0912206F0912306E80FF11D908151
:101C1000983DF9F41082609122067091230680911C
:101C200049060E94511B80912206909123060E9432
:101C3000D828E091260684E0E89FF0011124E85BB3
:101C4000FA4F818180932606109225060E94FA059C
:101C5000C5C2883020F48F5F80932406BFC21092E3
:101C60002406BCC280912506813071F028F08230B4
:101C700099F08330C9F0B2C21092250686E08093B5
:101C8000260610922106AAC21092250688E08093AB
:101C9000260610922106A2C2109225068AE08093A1
:101CA0002606109221069AC2109225068BE0809398
:101CB000260694C28091250680932106109225065F
:101CC00087E0809326068AC240912506609121060E
:101CD000809149060E94741B8091210680932506FD
:101CE0001092210686E0809326060E940C0676C29A
:101CF00080912506809321061092250689E0809325
:101D000026066CC20DE110E06FEF600F809149066E
:101D10000E94121B482F602F809149060E94741B5D
:101D20000150110960912106862F90E001968017DD
:101D3000910754F36F5F40912506809149060E94F8
:101D4000741B1092250610922106E0912606F0E001
:101D5000EE0FFF1FEE0FFF1FE85BFA4F81818093AC
:101D600026060E940C063AC20091250610E00D31AD
:101D700011058CF461E0600F809149060E94121BEE
:101D8000482F602F809149060E94741B0F5F1F4FE0
:101D90000D31110579F71092250610922106E09178
:101DA0002606F0E0EE0FFF1FEE0FFF1FE85BFA4F75
:101DB0008181809326060E940C0610C28091250620
:101DC000813051F410E04FEF612F809149060E945D
:101DD000741B1F5F1E31B9F710922506E09126068D
:101DE000F0E0EE0FFF1FEE0FFF1FE85BFA4F81815F
:101DF000809326060E940C06F1C180912506813051
:101E000051F410E04FEF612F809149060E94741B3E
:101E10001F5F1E31B9F78FEF898348E050E0BE01A4
:101E20006F5F7F4FCB010E949229BE016F5F7F4F92
:101E3000809149060E94511B10922506E0912606CA
:101E4000F0E0EE0FFF1FEE0FFF1FE85BFA4F8181FE
:101E5000809326060E94FA05C1C180912506882339
:101E600019F0813039F0BAC1109225068EE08093C6
:101E70002606B4C11092250684E180932606AEC1E1
:101E80008091250680932006109225068FE080938E
:101E90002606A4C1809125068130A1F028F0823069
:101EA000E9F08330B1F19AC11092250680E1809368
:101EB0002606809120060E94D61A909323068093CE
:101EC00022068CC181E180932606809120060E9423
:101ED000221B809321068093250680C182E1809396
:101EE0002606809120060E942A1B809321068230BC
:101EF00041F0843051F0813009F070C11092250614
:101F00006DC181E08093250669C182E0809325063A
:101F100065C183E180932606809120060E94351BCF
:101F20008093210682508093250658C18091240613
:101F3000E0912206F0912306E80FF11D9081983D73
:101F4000F9F4108260912206709123068091200698
:101F50000E94831B80912206909123060E94D8281C
:101F600010922506E091260684E0E89FF0011124F6
:101F7000E85BFA4F8181809326060E940C062EC1F1
:101F80008A3020F48F5F8093240628C110922406A3
:101F900025C160912506809120060E94A41B109205
:101FA000250610922106E0912606F0E0EE0FFF1FB5
:101FB000EE0FFF1FE85BFA4F8181809326060E9497
:101FC0000C060CC180912506813051F018F082304A
:101FD00069F011C061E0809120060E94AC1B0BC02B
:101FE00062E0809120060E94AC1B05C064E08091F5
:101FF00020060E94AC1B1092210610922506E0914B
:102000002606F0E0EE0FFF1FEE0FFF1FE85BFA4F12
:102010008181809326060E940C06E0C0609125060F
:102020006E5F809120060E94B41B109221061092D0
:102030002506E0912606F0E0EE0FFF1FEE0FFF1FD2
:10204000E85BFA4F8181809326060E940C06C6C089
:1020500080912506809320061092250685E18093C5
:102060002606BCC080912506813001F58FEF89835B
:102070004AE050E0BE016F5F7F4FCB010E94922982
:10208000BE016F5F7F4F809120060E94831B6FEF20
:10209000809120060E94A41B6FEF809120060E9471
:1020A000AC1B6FEF809120060E94B41B1092250696
:1020B000E0912606F0E0EE0FFF1FEE0FFF1FE85B3A
:1020C000FA4F8181809326060E940C0687C080917A
:1020D00025068130A9F018F0823019F17FC08BEF0E
:1020E00091E00E94A129809321068F3F19F08093EF
:1020F000250602C01092250687E1809326066EC051
:102100008CEF91E00E94A129809321068F3F19F066
:102110008093250602C01092250688E1809326064A
:102120005DC08DEF91E00E94A129809321068F3F31
:1021300019F08093250602C01092250689E180934C
:1021400026064CC06091250660931F018BEF91E03D
:102150000E94401B10922506E0912606F0E0EE0F4B
:10216000FF1FEE0FFF1FE85BFA4F81818093260669
:1021700035C061E080912506811101C060E0609367
:102180004B068CEF91E00E94401B10922506E091D7
:102190002606F0E0EE0FFF1FEE0FFF1FE85BFA4F81
:1021A0008181809326061AC061E080912506811105
:1021B00001C060E0609329068DEF91E00E94401B12
:1021C00010922506E0912606F0E0EE0FFF1FEE0FBD
:1021D000FF1FE85BFA4F81818093260681E08093A0
:1021E0001E0180911201882319F00E94CB0602C0C3
:1021F0000E94D50480911E01882321F00E9464076B
:1022000010921E010E94142100911C0610911D06BF
:1022100020911E0630911F06DC01CB01801B910B23
:10222000A20BB30B8093180690931906A0931A067D
:10223000B0931B0600911406109115062091160606
:1022400030911706081719072A073B0740F48093B7
:10225000140690931506A0931606B09317060091E6
:102260000A0110910B0120910C0130910D01801792
:102270009107A207B30740F480930A0190930B01E2
:10228000A0930C01B0930D0110922806109227061E
:10229000A8952A960FB6F894DEBF0FBECDBFDF918A
:1022A000CF911F910F9108952F923F924F925F927D
:1022B0006F927F928F929F92AF92BF92CF92DF9256
:1022C000EF92FF920F931F93CF93DF9300D000D034
:1022D000CDB7DEB75C017C836B836A014901FA826A
:1022E000E982C801841B950B9C0122F42227332725
:1022F000281B390BA4018B819C81481B590BCA01F7
:10230000992324F488279927841B950B51E040E0FA
:10231000821793070CF050E0652E742E611471043F
:1023200059F0982D892D4801092F182F9B818C81F8
:10233000DC82CB82C92ED82EAB81BC818A169B064B
:102340000CF045C09C2D8D2D6801092F182F9B8105
:102350008C819C828B82892E982E39C0EB81FC81E6
:102360008E169F060CF44EC00FEF1FEF02C001E067
:1023700010E06114710471F0D501ED91FC910480BD
:10238000F581E02D29813A814B815C81B601C5013F
:1023900009950DC0D501ED91FC910480F581E02DEA
:1023A00029813A81A6016B817C81C5010995E418D8
:1023B000F50822F4C00ED11EE20CF31CEB81FC8167
:1023C0003196FC83EB838E169F069CF61BC014018E
:1023D0008B819C81281A390AC8018C199D092C010E
:1023E00022F444245524481A590A710133201CF45C
:1023F0009FEFE91AF90AF594E794C016D1060CF498
:10240000B6CFACCF0F900F900F900F90DF91CF9180
:102410001F910F91FF90EF90DF90CF90BF90AF9002
:102420009F908F907F906F905F904F903F902F90F4
:1024300008956F927F928F929F92AF92BF92CF92A8
:10244000DF92EF92FF920F931F93CF93DF93EC01F4
:102450004B015A0169013801E881F9810284F38551
:10246000E02D87010995E881F981A501460D571DE9
:10247000415051090284F385E02D9601B401CE014B
:102480000995E881F9810084F185E02D9301A5018A
:10249000B401CE010995E881F981C80CD91CB601B7
:1024A000615071090084F185E02D9301A501CE01F1
:1024B0000995DF91CF911F910F91FF90EF90DF90E1
:1024C000CF90BF90AF909F908F907F906F90089526
:1024D000EF92FF920F931F937801DC01ED91FC9135
:1024E000240F351F8901015011090680F781E02D65
:1024F0009B0109951F910F91FF90EF900895EF9226
:10250000FF920F931F93DC01ED91FC91260F371F73
:10251000215031090680F781E02D78018A01099563
:102520001F910F91FF90EF9008956F927F928F927D
:102530009F92AF92BF92CF92DF92EF92FF920F9352
:102540001F93CF93DF936C01EB014A0158013701D0
:102550007B01E20EF31E6E157F0584F4D601ED912A
:10256000FC910084F185E02D83019501A401BE0159
:10257000C60109952196CE15DF0584F3DF91CF9131
:102580001F910F91FF90EF90DF90CF90BF90AF9091
:102590009F908F907F906F900895EF92FF920F938E
:1025A0001F93DC01ED91FC9111971A960D911C91EE
:1025B0001B9718962D913C9119970684F785E02D6D
:1025C0007B0140E050E060E070E009951F910F91C1
:1025D000FF90EF9008950895FC011382128288EB1A
:1025E00095E09183808375836483578346837187E5
:1025F000608753874287158A158614861786168644
:1026000081E0848B2FEF3FEF338B228B318B208B3C
:10261000868B08952F923F924F925F926F927F9296
:102620008F929F92AF92BF92CF92DF92EF92FF92E2
:102630000F931F93CF93DF93CDB7DEB762970FB69B
:10264000F894DEBF0FBECDBF5C011801FD82EC82A5
:10265000CB82DC0118968D919C91199768177907A8
:102660000CF0C8C01A968D919C911B97481759077A
:102670000CF0C0C0EC2DF0E0FA83E983CF01880FA5
:10268000991F8E0F9F1F880F991F860F971F019705
:102690000AF4B0C0CF01880F991F880F991F880FC7
:1026A000991F840F951F01970AF4A4C030E0C90157
:1026B000880F991F880F991F280F391F3F017987AD
:1026C00068877B876A871C86D901A61BB70BB88BE6
:1026D000AF874D875E874A01B8E08B0E911C2401BD
:1026E000EC85E53009F478C0EF85F889888599850F
:1026F000E80FF91FE755FC4F14916FC0B0FE24C0DE
:102700009B81913079F4A989BA89ED91FC91119757
:102710000480F581E02D9101A60168857985CD01C0
:1027200009953CC0A989BA89ED91FC91119706845D
:10273000F785E02D710109811A819801A4016E814C
:102740007F81CD0109952AC0EC81FD81E215F30559
:1027500029F1FB81F13081F4A989BA89ED91FC91CD
:1027600011970480F581E02D2C813D81A6016885BB
:102770007985CD01099512C0A989BA89ED91FC919D
:1027800011970684F785E02DEC80FD8009811A8180
:102790009801A4016E817F81CD010995B694860CC4
:1027A000971CBFEFCB1ADB0AC414D50409F0A6CFDF
:1027B000A988BA88EC85EF5FEC878A859B85860DB2
:1027C000971D9B878A87A885B9851196B987A887A1
:1027D000E63009F085CF0EC010E0BA85BE83EB85E8
:1027E000EF83CD84DE848C2C9D2CC501B12E9A8B79
:1027F000898B84CF62960FB6F894DEBF0FBECDBF33
:10280000DF91CF911F910F91FF90EF90DF90CF90CC
:10281000BF90AF909F908F907F906F905F904F9000
:102820003F902F900895CF92EF92FF920F931F93B6
:10283000CF93DF936A3079F4FC014489268537858C
:10284000F8E04F9F200D311D1124FC0137872687AA
:10285000158614863CC06D30D1F1262FEC01EA8834
:10286000FB88088919894E855F856C857D85CC88B4
:102870000E940A132C8930E0C901880F991F820F2A
:10288000931F880F991F4C855D85840F951F9D8729
:102890008C874E894423D9F04AEF4203B001439F0D
:1028A000700D112448855985460F571F4817590741
:1028B00074F4220F331F220F331F220F331F8E8514
:1028C0009F85280F391F3F872E871D861C8681E034
:1028D00090E0DF91CF911F910F91FF90EF90CF90FB
:1028E0000895FC01758764875787468708956111AD
:1028F00001C061E0FC01648B0895FC01738B628B65
:10290000718B608B0895FC01718B608B538B428BB4
:102910000895FC0185890895FC01808591850895BD
:10292000FC018285938508950F931F93FC0185898F
:10293000823071F08330E9F0813009F0C7C08481C2
:102940009581DC01A41BB50BAD014150510922C199
:1029500084819581DC01A61BB70BBD01868197811F
:10296000DC01A41BB50BAD0141505109621B730B77
:10297000ADC086819781DC01A61BB70BBD01621B30
:10298000730B08C184819581481759070CF029C140
:10299000772324F4260F371F60E070E0868197814B
:1029A000FB01E20FF31F8E179F071CF49C01261BEF
:1029B000370B121613060CF014C1722F862F869552
:1029C00086958695B0E88B9F400D511D1124FA0124
:1029D000E05DFE4F677079F188E0861B482F50E07C
:1029E000DA01A85DBE4F9C91281708F0D7C0421BA2
:1029F00051092FEF30E002C0359527954A95E2F74F
:102A000092230130110529F040F00230110551F0F8
:102A1000E8C02081922B908308C09095208192235A
:102A2000908303C0208192279083781708F4D9C03F
:102A3000781BE058FF4F783058F10230110559F4F7
:102A4000DF01972F8C9180958C93A058BF4F9850A1
:102A50009830C0F7B5C091E00130110509F090E061
:102A60009195DF01872F9C93A058BF4F88508830E5
:102A7000D0F788EF870F86958695869590E001962A
:102A80009695982F882797958795E80FF91F777067
:102A9000772309F4A6C07770A72FB0E0A05EBE4FE1
:102AA0008C910130110529F040F00230110551F0F0
:102AB00098C09081892B808394C0809590818923D0
:102AC00080838FC09081892780838BC055230CF42D
:102AD00088C086819781481759070CF082C07723F8
:102AE00024F4260F371F60E070E084819581FB019C
:102AF000E20FF31F8E179F071CF49C01261B370B58
:102B0000121613060CF06DC0CA0155230CF407967B
:102B10009595879595958795959587959695982FF1
:102B2000882797958795680F791F605D7E4F47705E
:102B3000552781E090E002C0880F991F4A95E2F77F
:102B4000482F0130110549F090F00230110509F0CD
:102B500048C0FB01620F731F16C0FB01620F731F99
:102B60008081842B8193E617F707D1F73AC0982F1D
:102B70009095FB01620F731F808189238193E61773
:102B8000F707D1F72EC0808184278193E617F707D6
:102B9000D1F727C055230CF0F5CE23C00130110525
:102BA00009F437CF08F439CF0230110509F43ACFD0
:102BB0003FCFA72FA770B0E0A05EBE4F8C9182CF11
:102BC00088EF870F86958695869590E00196969575
:102BD000982F882797958795E80FF91F872F87707B
:102BE00041F71F910F9108950F931F93FC01858961
:102BF000823071F08330E9F0813009F084C0848143
:102C00009581DC01A41BB50BAD01421B530B22C106
:102C100084819581DC01A61BB70BBD016150710950
:102C200086819781DC01A41BB50BAD01421B530BC0
:102C30006AC086819781DC01A61BB70BBD0161507C
:102C4000710908C186819781681779070CF029C13D
:102C5000552324F4240F351F40E050E084819581F2
:102C6000FA01E20FF31F8E179F071CF49C01241B2F
:102C7000350B121613060CF014C1CB0177230CF49C
:102C800007969595879595958795959587959695AA
:102C9000982F882797958795480F591F405D5E4F5D
:102CA000CB018770992761E070E002C0660F771F43
:102CB0008A95E2F7962F0130110549F090F0023025
:102CC000110509F0EEC0FA01240F351F15C0FA01F5
:102CD000240F351F8081892B8193E217F307D1F7E9
:102CE000E0C06095FA01240F351F8081862381930F
:102CF000E217F307D1F7D5C0808189278193E217C6
:102D0000F307D1F7CEC077230CF4CBC08481958133
:102D1000681779070CF0C5C0552324F4240F351F1C
:102D200040E050E086819781FA01E20FF31F8E1791
:102D30009F071CF49C01241B350B121613060CF084
:102D4000B0C0522F842F869586958695B0E88B9FCC
:102D5000600D711D1124FB01E05DFE4F477079F19C
:102D600088E0841B682F70E0DB01A85DBE4F9C915A
:102D7000281708F073C0621B71092FEF30E002C002
:102D8000359527956A95E2F792230130110529F0D0
:102D900040F00230110551F084C02081922B9083C5
:102DA00008C0909520819223908303C020819227B0
:102DB0009083581708F475C0581BE058FF4F5830DF
:102DC00058F10230110559F4DF01952F8C9180954F
:102DD0008C93A058BF4F98509830C0F751C091E0E5
:102DE0000130110509F090E09195DF01852F9C934A
:102DF000A058BF4F88508830D0F788EF850F869550
:102E00008695869590E001969695982F88279795B8
:102E10008795E80FF91F5770552309F442C0577082
:102E2000A52FB0E0A05EBE4F8C910130110529F0B6
:102E300040F00230110551F034C09081892B80831D
:102E400030C080959081892380832BC09081892711
:102E5000808327C077230CF0F5CE23C00130110505
:102E600009F49BCF08F49DCF0230110509F49ECFE1
:102E7000A3CFA52FA770B0E0A05EBE4F8C91E6CF88
:102E800088EF850F86958695869590E001969695B4
:102E9000982F882797958795E80FF91F852F8770BA
:102EA00041F71F910F910895CF92DF92EF92FF9219
:102EB0000F931F93CF93DF937C01EB018A0169018C
:102EC000DD230CF4A7C00E948C14C817D9070CF09E
:102ED000A1C011230CF49EC0C7010E9490140817D2
:102EE00019070CF097C0C7010E948914823069F05D
:102EF0008330E1F0813019F5F70184819581801BE1
:102F0000910B8E01EC0121971AC0F7018481958104
:102F10009C012C1B3D0BE901219786819781FC01C7
:102F2000E01BF10B8F010150110909C0F7018681E7
:102F300097818C1B9D0BE8018C0101501109F1E078
:102F4000CF16D10439F030F132E0C316D10409F4C0
:102F500042C060C0C80111230CF40796959587956F
:102F600095958795959587959695982F8827979508
:102F70008795C80FD91FC05DDE4F0770112781E00C
:102F800090E002C0880F991F0A95E2F79881892B7B
:102F9000888340C0C80111230CF407969595879546
:102FA00095958795959587959695982F88279795C8
:102FB0008795C80FD91FC05DDE4F0770112781E0CC
:102FC00090E002C0880F991F0A95E2F780959881DA
:102FD000892388831FC0C80111230CF40796959597
:102FE000879595958795959587959695982F882798
:102FF00097958795C80FD91FC05DDE4F07701127C1
:1030000081E090E002C0880F991F0A95E2F798814D
:1030100089278883DF91CF911F910F91FF90EF90C7
:10302000DF90CF9008951F93CF93DF93EC01162F7D
:1030300040E450E060E870E00E94EC1280ED95E022
:10304000998388838FEF898F8D8F8B8F8A8F1C8FC9
:10305000DF91CF911F91089580E094E0E0E3F1E0EB
:10306000DF019C011D9221503040E1F70895CF937C
:10307000FC01818D8F3F09F44AC0A3A1B4A19C91AA
:1030800081A5892B8C93A5A1B6A19C9182A5809541
:1030900089238C93A3A1B4A19C9181A580958923B8
:1030A0008C93868D882339F06EBD00000DB407FE29
:1030B000FDCF8EB525C048E050E020E8A1A1B2A127
:1030C0009C9180A5809589238C93822F862339F04B
:1030D000A78DB0A19C9187A1892B8C9307C0A78D48
:1030E000B0A19C9187A1809589238C93A1A1B2A1C5
:1030F0009C9180A5892B8C93269541505109F1F61E
:10310000A3A1B4A19C9181A5892B8C9317C0C62F34
:103110006789062E000C770B89ED96E00E945323F9
:1031200060E089ED96E00E9400236C2F89ED96E027
:103130000E94002389ED96E00E946823CF910895B4
:103140000F931F93CF93DF93EC01162F022F688FFD
:103150004F8B898D8F3F09F477C061E08B8D0E9482
:10316000D92161E08D8D0E94D9218D8D082E000C12
:10317000990BFC01E752F74FE491F0E0EE0FFF1FCF
:10318000E950F74F259134913CA32BA3FC01EB535D
:10319000F74FE491E9A78B8D082E000C990BFC01E9
:1031A000E752F74FE491F0E0EE0FFF1FE950F74FC1
:1031B000259134913EA32DA3FC01EB53F74FE491ED
:1031C000EAA78E8D811137C061E0898D0E94D921D7
:1031D00061E08A8D0E94D9218A8D082E000C990BFE
:1031E000FC01E752F74FE491F0E0EE0FFF1FE950CA
:1031F000F74F259134913AA329A3FC01EB53F74FE4
:10320000E491E8A7898D082E000C990BFC01E75288
:10321000F74FE491F0E0EE0FFF1FE950F74F2591D3
:10322000349138A32F8FFC01EB53F74FE491EFA3B8
:103230008E8D882369F00E946E228CB58C7F8CBDA8
:103240008DB581608DBD04C089ED96E00E943F235D
:103250000023E1F061E08C8D0E94D92161E08C8D2A
:103260000E94152261E070E080E090E00E94392128
:1032700060E08C8D0E9415226AE070E080E090E0B2
:103280000E94392161E08C8D0E9415226EEACE01E8
:103290000E94371865EDCE010E94371860E8CE0114
:1032A0000E94371868EACE010E9437186FE3CE01FA
:1032B0000E94371863EDCE010E94371860E0CE01FE
:1032C0000E94371860E4CE010E9437186DE8CE01E5
:1032D0000E943718113069F560E1CE010E9437185D
:1032E00060E2CE010E94371860E0CE010E943718DC
:1032F00061EACE010E94371868ECCE010E943718AF
:103300006AEDCE010E94371862E1CE010E943718A3
:1033100061E8CE010E9437186FE9CE010E9437188C
:1033200069EDCE010E94371862E2CE010E94371883
:103330002CC064E1CE010E94371860E2CE010E94E9
:10334000371860E0CE010E94371861EACE010E9472
:10335000371868ECCE010E9437186AEDCE010E9442
:10336000371862E1CE010E94371861E8CE010E9451
:1033700037186FECCE010E94371869EDCE010E941C
:10338000371861EFCE010E9437186BEDCE010E9415
:10339000371860E4CE010E94371864EACE010E941B
:1033A000371866EACE010E9437186FEACE010E94F4
:1033B0003718DF91CF911F910F910895BF92CF924F
:1033C000DF92EF92FF920F931F93CF93DF93EC0165
:1033D00061E20E94371860E0CE010E9437186FE763
:1033E000CE010E94371862E2CE010E94371860E0D9
:1033F000CE010E94371867E0CE010E943718898DF0
:103400008F3F09F456C0EBA1FCA1908189A5892BBF
:103410008083EDA1FEA190818AA5892B8083EBA1F9
:10342000FCA1808199A5909589238083A0E3B1E0D8
:1034300060E375E06894FF24F3F800E010E85D9124
:103440008E8D882339F05EBD00000DB407FEFDCFE0
:103450008EB525C02F2D302F412FE9A1FAA19081E3
:1034600088A5809589238083842F852339F0EF8D6B
:10347000F8A190818FA1892B808307C0EF8DF8A1DF
:1034800090818FA1809589238083E9A1FAA1908101
:1034900088A5892B8083469521503109F1F6A6171E
:1034A000B70769F6EBA1FCA1908189A5892B8083E0
:1034B00038C0E8EBF0E0B0808CE0808300E311E0FE
:1034C0000F2EF0E3CF2EF5E0DF2EF02D6F89062EC4
:1034D000000C770B89ED96E00E945323E091D9060A
:1034E000F091DA060190F081E02D60E489ED96E03C
:1034F0000995780180E1E80EF11CF80161918F01D6
:1035000089ED96E00E940023E016F106B1F789EDFF
:1035100096E00E9468238701EC14FD04B9F6B0928E
:10352000B800DF91CF911F910F91FF90EF90DF9046
:10353000CF90BF900895CF92DF92EF92FF920F93BA
:103540001F93CF93DF93C82F88E090E00E94432819
:103550006C0186E2C89F90011124C9018A579E4FD1
:10356000EC010E94A1298F3F41F448E050E06AEA53
:1035700078E0C6010E947C290FC086017601E8E050
:10358000EE0EF11CCE010E94A129F80181938F015A
:103590002196EE15FF05B1F7C601DF91CF911F917E
:1035A0000F91FF90EF90DF90CF900895CF92DF9230
:1035B000EF92FF920F931F93CF93DF93C82F8AE070
:1035C00090E00E944328C82ED92E8DE0C89FE001CC
:1035D0001124CE010E94A1298F3F49F44AE050E016
:1035E00064EA78E08C2D9D2D0E947C2910C00C2D62
:1035F0001D2D7E01EAE0EE0EF11CCE010E94A129F4
:10360000F80181938F012196CE15DF05B1F78C2D3E
:103610009D2DDF91CF911F910F91FF90EF90DF9043
:10362000CF90089570E062577E4F9B0146E2849FE1
:10363000200D311D1124C9010E94A1298F3F09F4D9
:1036400080E008952DE0829FC00111240A960E9417
:10365000A12908952DE0829FC00111240B960E949C
:10366000A1298F3F09F481E008952DE0829FC001D8
:1036700011240C960E94A1298F3F09F484E008953B
:103680001F93CF93DF93EC01162F0E94A1291817E7
:1036900021F0612FCE010E94A929DF91CF911F91C6
:1036A0000895EF92FF920F931F93CF93DF9326E23B
:1036B000829FC0011124EC01CA57DE4F8B017B01B0
:1036C00088E0E80EF11CF80161918F01CE010E94A3
:1036D000401B21960E151F05B1F7DF91CF911F9169
:1036E0000F91FF90EF900895262F30E022573E4F24
:1036F000642FA90176E2879F400D511D1124CA0154
:103700000E94401B0895EF92FF920F931F93CF9357
:10371000DF939DE0899FE0011124062F172F7E0182
:10372000EAE0EE0EF11CF80161918F01CE010E94DA
:10373000401B2196CE15DF05B1F7DF91CF911F9188
:103740000F91FF90EF9008952DE0829FC00111240A
:103750000A960E94401B08952DE0829FC00111240B
:103760000B960E94401B08952DE0829FC0011124FA
:103770000C960E94401B08951F920F920FB60F9255
:1037800011242F933F934F935F936F937F938F9366
:103790009F93AF93BF93EF93FF93E091B806F0919F
:1037A000B9060995FF91EF91BF91AF919F918F91CC
:1037B0007F916F915F914F913F912F910F900FBE2D
:1037C0000F901F9018950E94702908950E947521EE
:1037D0000E94E51B0E945806C0E0D0E00E94590CF0
:1037E0002097E1F30E940000F9CFCF92DF92EF9291
:1037F000FF920F931F93CF93DF936C017A018B019C
:10380000C0E0D0E0CE15DF0589F0D8016D918D01C3
:10381000D601ED91FC910190F081E02DC601099552
:10382000892B11F47E0102C02196ECCFC701DF91F4
:10383000CF911F910F91FF90EF90DF90CF9008955F
:103840006115710579F0FB0101900020E9F73197CE
:10385000AF01461B570BDC01ED91FC910280F38117
:10386000E02D099480E090E00895EF92FF920F938D
:103870001F93CF93DF938C017B01C0E0D0E0F70171
:10388000EC0FFD1F6491662361F0D801ED91FC916E
:103890000190F081E02DC8010995892B11F0219646
:1038A000EECFCE01DF91CF911F910F91FF90EF905E
:1038B00008950C94201CDC01ED91FC910190F081A5
:1038C000E02D099464EE75E00C94201C0F931F9377
:1038D000CF93DF93EC010E94351C8C01CE010E9436
:1038E000621C800F911FDF91CF911F910F9108955E
:1038F0000F931F93CF93DF93EC010E94201C8C0148
:10390000CE010E94621C800F911FDF91CF911F9109
:103910000F9108954F925F926F927F92EF92FF9274
:103920000F931F93CF93DF93CDB7DEB7A1970FB659
:10393000F894DEBF0FBECDBF7C01FA01CB0119A206
:10394000223008F42AE08E010F5D1F4F422E512CC9
:10395000612C712CBF01A30192010E94CE27F901B5
:10396000CA01015011096A3014F4605D01C0695C3C
:10397000D8016C93232B242B252B61F7B801C701A9
:103980000E94201CA1960FB6F894DEBF0FBECDBFDB
:10399000DF91CF911F910F91FF90EF907F906F90EB
:1039A0005F904F900895CF92DF92EF92FF920F9326
:1039B0001F93CF93DF93EC016A017B012115310541
:1039C00079F4E881F9810190F081E02D642FDF9195
:1039D000CF911F910F91FF90EF90DF90CF900994BE
:1039E0002A303105E9F477FF1AC06DE20E945B1CB2
:1039F0008C0144275527BA014C195D096E097F09CE
:103A00002AE0CE010E948A1C800F911FDF91CF9186
:103A10001F910F91FF90EF90DF90CF9008952AE0D3
:103A2000B701A601CE01DF91CF911F910F91FF90B9
:103A3000EF90DF90CF900C948A1C9A01AB01770F26
:103A4000660B770B0C94D31C0F931F93CF93DF93CC
:103A5000EC019A01AB01770F660B770B0E94D31C28
:103A60008C01CE010E94621C800F911FDF91CF91CB
:103A70001F910F9108952115310541F4DC01ED915D
:103A8000FC910190F081E02D642F09940C948A1C24
:103A90009A01462F50E060E070E00C943B1D9A01C3
:103AA000AB0160E070E00C943B1D3F924F925F923F
:103AB0006F927F928F929F92AF92BF92CF92DF923E
:103AC000EF92FF920F931F93CF93DF9300D000D01C
:103AD000CDB7DEB790913005981721F09F3F09F0E0
:103AE00036C204C0E0EBF8E0349081C0809330052A
:103AF000E0EBF8E0E491EF3F09F429C2E13031F165
:103B0000E23009F44BC0E11171C014BC15BC94B58E
:103B1000926094BD95B5916095BDA82FB0E0FD0170
:103B2000E752F74FE491F0E0EE0FFF1FE950F74F37
:103B3000059114911093CA060093C906FD01EB5339
:103B4000F74FE491E093C806312C53C010928000E7
:103B500010928100909181009860909381009091E3
:103B60008100916090938100A82FB0E0FD01E752A1
:103B7000F74FE491F0E0EE0FFF1FE950F74F05918A
:103B800014911093C3060093C206FD01EB53F74F47
:103B9000E491E093C106332433942BC01092B0001B
:103BA0001092B1009091B00092609093B00090910B
:103BB000B10091609093B100A82FB0E0FD01E752F1
:103BC000F74FE491F0E0EE0FFF1FE950F74F05913A
:103BD00014911093BC060093BB06FD01EB53F74F05
:103BE000E491E093BA0602E0302E03C03E2E37FC8B
:103BF000AEC129013A018B0161E00E94D92148013F
:103C0000A12CB12C832D8D7F09F0BBC060E072E147
:103C10008AE790E0A50194010E94F02729833A8366
:103C20004B835C8369017A0121E0C21AD108E10863
:103C3000F1088FEFC816D104E104F10409F008F48B
:103C40004CC060E472E48FE090E0A50194010E9412
:103C5000F02769017A01E1E0CE1AD108E108F10804
:103C6000F2E03F1220C02FEFC216D104E104F104AC
:103C700009F008F46AC160E970ED83E090E0A50105
:103C800094010E94F02769017A0181E0C81AD108E5
:103C9000E108F108EFEFCE16D104E104F10409F0D8
:103CA000D0F583E067C0FFEFCF16D104E104F10443
:103CB000B1F0A8F068E478EE81E090E0A50194010D
:103CC0000E94F02769017A0181E0C81AD108E10851
:103CD000F108332009F4DFC02FC181E001C082E088
:103CE0003320A1F047C089819A81AB81BC812AE051
:103CF000B595A795979587952A95D1F76C017D0184
:103D000021E0C21AD108E108F10885E095B5987F55
:103D1000892B85BD6FC068E478EE81E090E0A50155
:103D200094010E94F02769017A01F1E0CF1AD108CD
:103D3000E108F1082FEFC216D104E104F10409F003
:103D400008F4A7C064E274EF80E090E0A50194015C
:103D50000E94F02769017A01E1E0CE1AD108E1085A
:103D6000F108FFEFCF16D104E104F10411F008F0DF
:103D7000B4C085E09091B100987F892B8093B10009
:103D800039C060E072E18AE790E0A50194010E94E9
:103D9000F02769017A0181E0C81AD108E108F10829
:103DA000C114D104E1E0EE06F10488F068E478EE95
:103DB00081E090E0A50194010E94F02769017A0159
:103DC000F1E0CF1AD108E108F10893E001C091E0D9
:103DD00021E032120FC080918100887F892B80936F
:103DE0008100411451046104710449F42FEF3FEF45
:103DF000A9012DC0411451046104710471F0D8016E
:103E0000AA0FBB1FA30192010E94152828EE33E0E0
:103E100040E050E00E94CE2703C02FEF3FEFA90102
:103E200081E03816A1F0E2E03E1619F131108FC0A2
:103E3000C7BC2093CB063093CC064093CD0650935D
:103E4000CE0680916E00826080936E0080C0D0921A
:103E50008900C09288002093C4063093C506409321
:103E6000C6065093C70680916F00826080936F00F2
:103E70006EC0C092B3002093BD063093BE0640933F
:103E8000BF065093C00680917000826080937000DE
:103E90005EC084E06FCFFFEFCF16D104E104F104E0
:103EA000D1F0C8F062E17AE780E090E0A5019401EA
:103EB0000E94F02769017A0181E0C81AD108E1085F
:103EC000F108EFEFCE16D104E104F10411F008F08F
:103ED0000ACF84E01BCF83E019CF62E17AE780E06C
:103EE00090E0A50194010E94F02769017A0181E028
:103EF000C81AD108E108F108EFEFCE16D104E104A9
:103F0000F104C1F0B8F089819A81AB81BC814AE0AB
:103F1000B595A795979587954A95D1F76C017D0141
:103F200021E0C21AD108E108F108332009F4EDCEEE
:103F300087E020CF86E0D4CEFFEFCF16D104E10496
:103F4000F10409F050F684E0CBCE82E013CF0F905D
:103F50000F900F900F90DF91CF911F910F91FF90D5
:103F6000EF90DF90CF90BF90AF909F908F907F9019
:103F70006F905F904F903F900895813039F018F026
:103F8000823051F0089510926E00089580916F0074
:103F90008D7F80936F000895809170008D7F809356
:103FA000700081E08093B0008091B100887F8460D0
:103FB0008093B1001092B3000895CF93C82F8091E1
:103FC00030058C1307C0E0EBF8E0E4918FEF8093AD
:103FD000300501C0EFEF8E2F0E94BD1F60E08C2FD7
:103FE000CF910C9415221F920F920FB60F921124AD
:103FF0002F933F934F935F936F937F938F939F93F1
:10400000AF93BF93EF93FF938091BD069091BE064F
:10401000A091BF06B091C006892B8A2B8B2B51F142
:104020008091BA06E091BB06F091BC069081892789
:1040300080838091BD069091BE06A091BF06B0918D
:10404000C006181619061A061B06C4F48091BD0690
:104050009091BE06A091BF06B091C0060197A1093C
:10406000B1098093BD069093BE06A093BF06B0939E
:10407000C00604C0809130050E94DD1FFF91EF91C2
:10408000BF91AF919F918F917F916F915F914F9170
:104090003F912F910F900FBE0F901F90189508958C
:1040A0008230E8F4E82FF0E0EE0FFF1FEF5CFA4FEC
:1040B00071836083813041F0809169008C7F482B4F
:1040C00040936900E89A089580916900440F551F54
:1040D000440F551F837F482B40936900E99A089548
:1040E0001F920F920FB60F9211242F933F934F936D
:1040F0005F936F937F938F939F93AF93BF93EF9350
:10410000FF93E0913105F09132050995FF91EF9110
:10411000BF91AF919F918F917F916F915F914F91DF
:104120003F912F910F900FBE0F901F9018951F92E7
:104130000F920FB60F9211242F933F934F935F93DB
:104140006F937F938F939F93AF93BF93EF93FF935F
:10415000E0913305F09134050995FF91EF91BF91FE
:10416000AF919F918F917F916F915F914F913F910F
:104170002F910F900FBE0F901F9018951F920F92C6
:104180000FB60F9211242F933F938F939F93AF936A
:10419000BF938091D0069091D106A091D206B091A4
:1041A000D3063091CF0623E0230F2D3720F401965C
:1041B000A11DB11D05C026E8230F0296A11DB11D4A
:1041C0002093CF068093D0069093D106A093D20679
:1041D000B093D3068091D4069091D506A091D606CF
:1041E000B091D7060196A11DB11D8093D40690937E
:1041F000D506A093D606B093D706BF91AF919F91F5
:104200008F913F912F910F900FBE0F901F90189597
:104210002FB7F8946091D0067091D1068091D206A4
:104220009091D3062FBF08953FB7F8948091D4069C
:104230009091D506A091D606B091D70626B5A89B39
:1042400005C02F3F19F00196A11DB11D3FBFBA2F28
:10425000A92F982F8827820F911DA11DB11DBC0188
:10426000CD0142E0660F771F881F991F4A95D1F74D
:1042700008958F929F92AF92BF92CF92DF92EF926A
:10428000FF926B017C010E9414214B015C01C1145F
:10429000D104E104F10401F10E94B9270E94142124
:1042A000DC01CB0188199909AA09BB09883E934012
:1042B000A105B10560F321E0C21AD108E108F108B7
:1042C00088EE880E83E0981EA11CB11CC114D10495
:1042D000E104F10419F7DBCFFF90EF90DF90CF906E
:1042E000BF90AF909F908F900895789484B582602E
:1042F00084BD84B5816084BD85B5826085BD85B58A
:10430000816085BDEEE6F0E0808181608083E1E838
:10431000F0E0108280818260808380818160808370
:10432000E0E8F0E0808181608083E1EBF0E0808173
:1043300084608083E0EBF0E0808181608083EAE745
:10434000F0E08081846080838081826080838081CE
:10435000816080838081806880831092C10008958D
:10436000833081F028F4813099F08230A1F00895F3
:104370008730A9F08830B9F08430D1F48091800082
:104380008F7D03C0809180008F7780938000089597
:1043900084B58F7702C084B58F7D84BD08958091E8
:1043A000B0008F7703C08091B0008F7D8093B00004
:1043B0000895CF93DF9390E0FC01EB53F74F2491E6
:1043C000FC01E752F74F8491882361F190E0880F58
:1043D000991FFC01EF5FF64FC591D491FC01E950A4
:1043E000F74FA591B491611109C09FB7F8948881E6
:1043F000209582238883EC912E230BC0623061F4D8
:104400009FB7F8943881822F809583238883EC911D
:104410002E2B2C939FBF06C08FB7F894E8812E2BCC
:1044200028838FBFDF91CF9108951F93CF93DF93A0
:10443000282F30E0F901EF54F74F8491F901EB5345
:10444000F74FD491F901E752F74FC491CC23C9F04B
:10445000162F81110E94B021EC2FF0E0EE0FFF1F0C
:10446000E950F74FA591B4918FB7F894111105C099
:104470009C91ED2FE095E92302C0EC91ED2BEC939C
:104480008FBFDF91CF911F910895CF93DF93282F96
:1044900030E0F901EF54F74F8491F901EB53F74FF6
:1044A000D491F901E752F74FC491CC2391F08111D7
:1044B0000E94B021EC2FF0E0EE0FFF1FE351F74F09
:1044C000A591B491EC91ED2381E090E021F480E09E
:1044D00002C080E090E0DF91CF910895CF93CFB7F5
:1044E000F8948091D806811127C0E3EEF8E084911A
:1044F000EFECF8E09491E82FF0E0EE0FFF1FEF5F94
:10450000F64FA591B491EC91E92321F461E08AE0A2
:104510000E94152261E08AE00E94D9218CB5806159
:104520008CBD8CB580648CBD61E08DE00E94D9218A
:1045300061E08BE00E94D9218091D8068F5F809343
:10454000D806CFBFCF9108958091090790E02091C0
:104550000A07821B9109089590910A078091090723
:10456000981750F4E92FF0E0E55FF84F208130E034
:104570009F5F90930A0702C02FEF3FEFC901089594
:10458000E0910A0780910907E81730F4F0E0E55F51
:10459000F84F808190E008958FEF9FEF0895089580
:1045A000CF92DF92EF92FF920F931F93CF93DF93FF
:1045B0007C01262F972F8A018091E506882391F0B0
:1045C000C62FD72F6E01C40ED51ECC15DD0571F098
:1045D0006991D701ED91FC910190F081E02DC70127
:1045E0000995F3CF642F822F0E94E323C801DF9146
:1045F000CF911F910F91FF90EF90DF90CF90089592
:10460000CF93DF931F92CDB7DEB769832091E50684
:104610002223D1F02091E606203240F021E030E064
:10462000FC013383228380E090E015C08091E7068F
:10463000E82FF0E0E851F94F998190838F5F8093E4
:10464000E7068093E60605C061E0CE0101960E9470
:10465000E32381E090E00F90DF91CF910895FC017A
:104660001382128288EE93E0A0E0B0E08483958309
:10467000A683B78387EF95E0918380830895109296
:104680000A07109209071092E7061092E6060C94AA
:104690006F2381E08093E506609308071092E70698
:1046A0001092E60608950C9449230F93062F21E0FB
:1046B0004091E60668EE76E0809108070E948D231F
:1046C0001092E7061092E6061092E5060F91089503
:1046D00061E00C94552389ED96E00C942F23109201
:1046E000980781E0809396071092950761E082E138
:1046F0000E94152261E083E10E941522E9EBF0E0BF
:1047000080818E7F808380818D7F808388E4809309
:10471000B80085E48093BC0008950F93413208F0FF
:104720004AC0909198079111FCCF32E030939807DE
:10473000009396073FEF30932B071092700740933A
:104740006F07FB0161E777E0DB013A2F361B341777
:1047500018F431913D93F9CF109297073091970754
:10476000880F832B8093970780919507813061F4A0
:1047700010929507809197078093BB008091BC00B1
:1047800083FDF8CF85EC01C085EE8093BC00222329
:1047900021F0809198078230D1F380912B078F3FD1
:1047A00079F080912B07803241F080912B07803384
:1047B00031F094E005C091E003C092E001C093E0C5
:1047C000892F0F91089540914D07262F30E0240F37
:1047D000311D21323105DCF4209198072430C9F4D1
:1047E000FC0180E090E0861758F430914D0721914C
:1047F000DC01A15BB84FA30FB11D2C930196F3CF41
:1048000080914D07680F60934D0780E0089581E027
:10481000089582E0089585ED8093BC008091BC00EE
:1048200084FDFCCF10929807089585EC8093BC001E
:104830001092980708951F920F920FB60F921124AD
:104840002F933F934F935F936F937F938F939F9398
:10485000AF93BF93EF93FF938091B900887F803629
:1048600009F49EC078F5883209F45DC090F4803177
:1048700009F456C038F4882309F4F5C0883009F4E7
:104880004FC0F5C0883109F44EC0803209F45FC0D2
:10489000EEC0803409F46AC058F4803309F457C07C
:1048A000883309F0E4C080932B070E941524DFC0F1
:1048B000803509F44FC0883509F45DC0883409F0AB
:1048C000D6C0D3C0883909F4C4C0A8F4883709F425
:1048D00067C038F4883609F463C0803709F460C0D3
:1048E000C6C0883809F4B5C0803909F45FC0803883
:1048F00009F0BDC05BC0803B09F483C038F4803A46
:1049000009F466C0883A09F47CC0B1C0803C09F45F
:10491000A4C0883C09F4A1C0883B09F487C0A7C0A3
:104920008091970710C09091700780916F0798173A
:1049300070F5E091700781E08E0F80937007F0E0D2
:10494000EF58F84F80818093BB0085EC83C0809343
:104950002B078BC0E091700781E08E0F809370076A
:104960008091BB00F0E0EF58F84F80839091700782
:1049700080916F076BC0E091700781E08E0F80938C
:1049800070078091BB00F0E0EF58F84F8083809172
:10499000960781116AC081E08093950784EA5EC022
:1049A00083E08093980710922C07CFCF80912C073B
:1049B000803208F04EC0E0912C0781E08E0F80938A
:1049C0002C078091BB00F0E0E35DF84F8083BDCF02
:1049D0000E94152480912C07803230F4E0912C073E
:1049E000F0E0E35DF84F108260912C0770E0E091F9
:1049F0009107F09192078DE297E0099510922C07AC
:104A000036C084E08093980710924E0710924D07AD
:104A1000E0919307F0919407099580914D078111DA
:104A200005C081E080934D0710924F07E0914E073B
:104A300081E08E0F80934E07F0E0E15BF84F8081BC
:104A40008093BB0090914E0780914D07981708F412
:104A50007CCF85E88093BC000AC085EC8093BC00C5
:104A60001092980704C010922B070E940B24FF910C
:104A7000EF91BF91AF919F918F917F916F915F91D6
:104A80004F913F912F910F900FBE0F901F9018954F
:104A90002091DB073091DC0728173907B9F4909192
:104AA000990780919A07981789F0E0919907F0E0AB
:104AB000E556F84F80812091990730E02F5F3F4FF6
:104AC0002F7333272093990790E008958FEF9FEF7E
:104AD00008951F93CF93DF93DC015C962D913C9159
:104AE0005D972115310539F481E090E013969C9390
:104AF0008E9312973DC05196ED91FC91529750962E
:104B00009C915097892F80951FB75E964C915E9728
:104B100041FB772770F941FD6095F8944081772338
:104B200011F0492B01C048234083E9012197F1F797
:104B300048E0508160FF02C0592B01C058235083C8
:104B4000E9012197F1F76695415099F7772321F014
:104B500090818923808303C08081982B90831FBF1D
:104B60005C968D919C915D970197F1F721E030E083
:104B7000C901DF91CF911F91089508952091DB071E
:104B80003091DC072817390771F4909199078091CB
:104B90009A07981741F0E0919907F0E0E556F84F31
:104BA000808190E008958FEF9FEF08952091DB07BB
:104BB0003091DC072817390771F480919A0720910A
:104BC000990790E0805C9F4F821B910960E470E040
:104BD0000E94BA27089580E090E00895E091DB07F5
:104BE000F091DC07E817F90769F4A389B4899C916F
:104BF0008589809589238C931092DC071092DB07BE
:104C000081E0089580E00895CF93DF93EC018A8DD1
:104C10009B8D892BF1F08091DB079091DC078C173D
:104C20009D07B9F0009711F00E94EE258E8D8E7FC2
:104C30008E8F10929A0710929907D093DC07C09339
:104C4000DB07EB89FC8990818D89892B808381E04A
:104C500001C080E0DF91CF9108951F920F920FB6AF
:104C60000F9211242F933F934F935F936F937F93F2
:104C70008F939F93AF93BF93EF93FF93E091DB07E5
:104C8000F091DC07309709F451C0968DA685B78561
:104C9000858591FF04C09C91892329F447C09C918C
:104CA000892309F043C0A389B4899C9185898095A3
:104CB00089238C93868997890197F1F7608D718D8F
:104CC000A685B785558538E020E0CB010197F1F73F
:104CD000822F90E095958795282F4C91452309F0D8
:104CE0002068315091F7868D81FD209580919A073B
:104CF00090E001968F73992730919907381749F002
:104D0000A0919A07B0E0A556B84F2C9380939A07CC
:104D100003C0868D8160868F828D938D0197F1F718
:104D2000A389B4899C918589892B8C93FF91EF91FC
:104D3000BF91AF919F918F917F916F915F914F91B3
:104D40003F912F910F900FBE0F901F90189527E065
:104D500036E0FC01318320830C94EE251F93CF9322
:104D6000DF93EC01162F6E8D6695617081E06827E8
:104D7000812F0E94152261E0812F0E94D921612F8D
:104D800070E0FB01EB53F74FE491E88BFB01E75236
:104D9000F74FE491F0E0EE0FFF1FE950F74F8591D8
:104DA00094919A8B898BDF91CF911F9108951F93D6
:104DB000CF93DF93EC01162F60E0812F0E94D92161
:104DC0008E8D81FD04C061E0812F0E9415221C8719
:104DD000612F70E0FB01EB53F74FE491ED87FB018E
:104DE000E752F74FE491F0E0EE0FFF1FE351F74F6A
:104DF000859194919F878E87DF91CF911F91089520
:104E00001F93CF93DF93EC01162F1B821A8288EE3B
:104E100093E0A0E0B0E08C839D83AE83BF8387E006
:104E200096E0998388831F8A1E8A198E188E1B8E9E
:104E30001A8E1D8E1C8E8E8D8E7F20FB81F98E8F9B
:104E4000642FCE010E94AE26612FCE01DF91CF915B
:104E50001F910C94D726CF93DF93EC019A01AB01FD
:104E60001B8E1A8E198E188E1F8A1E8A60E079E0BA
:104E70008DE390E00E94F027F9012430310518F00D
:104E8000C901039702C081E090E09D8F8C8F6C85F3
:104E9000663108F069C0C9019695879584319105FE
:104EA00010F0439702C081E090E09F8B8E8B369785
:104EB00018F0C901059702C081E090E0998F888FB2
:104EC000C901880F991F280F391F369527953695E8
:104ED00027952D30310518F02C50310902C021E002
:104EE00030E03B8F2A8F90916800683050F021E0CD
:104EF0006E3008F420E081E001C0880F2A95EAF7BF
:104F000001C084E0892B809368008C85883038F05C
:104F10008E3040F0863148F020E030E008C02DE6C9
:104F200030E005C02BE630E002C02CE630E03C8BE0
:104F30002B8B883030F491E001C0990F8A95EAF705
:104F40000EC0282F30E08E3018F42850310902C0EE
:104F50002E50310991E001C0990F2A95EAF79D8BF7
:104F60008C8D9D8D0197F1F7CE01DF91CF910C943F
:104F70000426089597FB072E16F4009407D077FDBA
:104F800009D00E94202807FC05D03EF49095819519
:104F90009F4F0895709561957F4F0895A1E21A2E55
:104FA000AA1BBB1BFD010DC0AA1FBB1FEE1FFF1FCD
:104FB000A217B307E407F50720F0A21BB30BE40B1D
:104FC000F50B661F771F881F991F1A9469F7609564
:104FD0007095809590959B01AC01BD01CF0108951E
:104FE000052E97FB1EF400940E94072857FD07D05A
:104FF0000E94CE2707FC03D04EF40C94072850954E
:105000004095309521953F4F4F4F5F4F08959095B4
:105010008095709561957F4F8F4F9F4F0895EE0F4C
:10502000FF1F0590F491E02D09940E943428A59F5C
:10503000900DB49F900DA49F800D911D1124089593
:10504000AA1BBB1B51E107C0AA1FBB1FA617B707AE
:1050500010F0A61BB70B881F991F5A95A9F78095CA
:105060009095BC01CD010895A29FB001B39FC001EE
:10507000A39F700D811D1124911DB29F700D811D84
:105080001124911D0895CF93DF938230910510F480
:1050900082E090E0E091DF07F091E00720E030E06F
:1050A000C0E0D0E0309711F1408151814817590795
:1050B000C0F04817590761F482819381209719F055
:1050C0009B838A832BC09093E0078093DF0726C0E1
:1050D0002115310519F04217530718F49A01BE0142
:1050E000DF01EF010280F381E02DDCCF21153105D6
:1050F00009F1281B390B2430310590F412968D915B
:105100009C9113976115710521F0FB0193838283B4
:1051100004C09093E0078093DF07FD01329644C0FE
:10512000FD01E20FF31F81939193225031092D93DA
:105130003C933AC02091DD073091DE07232B41F4E8
:1051400020910201309103013093DE072093DD07A7
:1051500020910001309101012115310541F42DB755
:105160003EB74091040150910501241B350BE0919D
:10517000DD07F091DE07E217F307A0F42E1B3F0BCB
:105180002817390778F0AC014E5F5F4F24173507B9
:1051900048F04E0F5F1F5093DE074093DD07819369
:1051A000919302C0E0E0F0E0CF01DF91CF9108954C
:1051B0000F931F93CF93DF93009709F48CC0FC01EA
:1051C0003297138212820091DF071091E0070115D8
:1051D000110581F420813181820F931F2091DD0719
:1051E0003091DE072817390779F5F093DE07E09351
:1051F000DD0771C0D80140E050E0AE17BF0750F4A2
:1052000012962D913C911397AD012115310509F1AD
:10521000D901F3CF9D01DA0133832283608171814B
:10522000860F971F8217930769F4EC012881398153
:10523000260F371F2E5F3F4F318320838A819B814A
:1052400093838283452B29F4F093E007E093DF07F3
:1052500042C01396FC93EE931297ED014991599138
:105260009E01240F351FE217F30771F480819181AD
:10527000840F951F029611969C938E938281938141
:1052800013969C938E931297E0E0F0E0D80112966B
:105290008D919C911397009719F0F8018C01F6CF2E
:1052A0008D919C9198012E5F3F4F820F931F20910B
:1052B000DD073091DE072817390769F4309729F4A4
:1052C0001092E0071092DF0702C01382128210933F
:1052D000DE070093DD07DF91CF911F910F910895B5
:1052E00081E090E0F8940C94B729FB01DC01059073
:1052F0000D920020E1F70895FB01DC014150504080
:1053000048F005900D920020C9F701C01D92415050
:105310005040E0F70895FB01DC0101900D92002060
:10532000E1F70895FB01DC014150504048F0019045
:105330000D920020C9F701C01D9241505040E0F786
:105340000895F999FECF92BD81BDF89A992780B54D
:105350000895262FF999FECF1FBA92BD81BD20BDB9
:105360000FB6F894FA9AF99A0FBE0196089514E0D0
:10537000C8E8D4E004C0FE010E940F282196C93875
:08538000D107C9F7F894FFCF33
:105388000000E10780000100000080841E003C004E
:10539800020001010100040001001E00A00001013B
:1053A800000103070F1F3F7F0080C0E0F0F8FCFEFC
:1053B80000000000000000000000000000000000E5
:1053C80000000000000000000000000000000000D5
:1053D80000000000000000000000000000000000C5
:1053E8000000000000000000000000000000008035
:1053F80080800000000000000000000000000000A5
:10540800008080C0C0000000000000000000000014
:105418000000000000000000000000000000000084
:105428000000000000000000000000000000000074
:105438000000000000000000000000000000000064
:105448000000000080C0E0F0F8FCF8E00000000078
:1054580000000000000000000000000000808080C4
:10546800808000808000000000808080808000FFB5
:10547800FFFF000000008080808000008080000026
:1054880080FFFF8080008080008080808000808096
:105498000000000000808000008C8E84000080F8EE
:1054A800F8F8800000000000000000000000000084
:1054B800F0F0F0F0F0F0F0F0F0F0F0F0E0E0C080A4
:1054C80000E0FCFEFFFFFF7FFFFFFFFFFF00000083
:1054D8000000000000000000000000FEFFC70101FE
:1054E800010183FFFF00007CFEC70101010183FF6A
:1054F800FFFF0038FEC78301010183C7FFFF0000DB
:1055080001FFFF010100FFFF0701010100007FFF0C
:1055180080000000FFFF7F0000FFFFFF000001FF89
:10552800FFFF010000000000000000000000000074
:10553800030F3F7F7FFFFFFFFFFFFFFFE7C7C78F17
:105548008F9FBFFFFFC3C0F0FFFFFFFFFFFCFCFC06
:10555800FCFCFCFCFCF8F8F0F0E0C00001030303DD
:105568000303010303000000000103030303010117
:10557800030100000001030303030101030300000A
:105588000003030000000303000000000000000106
:1055980003030303030100000001030100000003EB
:1055A80003010000000000000000000000000000EF
:1055B80000000080C0E0F0F9FFFFFFFFFF3F1F0F72
:1055C80087C7F7FFFF1F1F3DFCF8F8F8F87C7DFF41
:1055D800FFFFFFFFFFFFFF7F3F0F07003030000096
:1055E80000000000000000000000000000000000B3
:1055F80000000000FEFEFC000000000000000000AB
:1056080000000000000000000000000000E0C000F2
:105618000000000000000000000030300000000022
:105628000000000000000000000000000000000072
:1056380000C0FEFFFFFFFFFFFFFFFFFF7F7F3F1F51
:105648000F071F7FFFFFF8F8FFFFFFFFFFFEF8E0DF
:10565800000000010000000000000000FEFE000045
:1056680000FCFEFC0C06060EFCF80000F0F81C0E10
:105678000606060CFFFFFF0000FEFE00000000FC0F
:10568800FEFC00183C7E66E6CE84000006FFFF069E
:1056980006FCFEFC0C0606060000FEFE0000C0F834
:1056A800FC4E4646464E7C7840183C76E6CECC808A
:1056B80000000000000000000000000000000000E2
:1056C8000000000001070F1F1F3F3F3F3F1F0F0350
:1056D8000000000000000000000000000F0F0000A4
:1056E800000F0F0F000000000F0F000003070E0C43
:1056F80018180C060F0F0F0000010F0E0C180C0FD6
:10570800070100040E0C180C0F070000000F0F0013
:10571800000F0F0F0000000000000F0F000000072F
:10572800070C0C181C0C060600040E0C180C0F07AE
:105738000000000000000000000000000000000061
:105748000000000000000000000000000000000051
:105758000000000000000000000000000000000041
:105768000000000000000000000000000000000031
:105778000000000000000000000000000000000021
:105788000000000000000000000000000000000011
:105798000000000000000000000000000000000001
:1057A80000000000000000000000000000000000F1
:1057B800FF4F204F202E000A0A002F002020202013
:1057C80020200053544F500004007E0303003F0381
:1057D8000301000002011E03000300000401D902B6
:1057E8001E0500001E0500001D0500001E05000026
:1057F8001E0500000205CF020201CF020200AB0223
:105808001E0D0000040E6602000F0000FF0F0000CE
:10581800030F5902060F00001E0D0000020DCF02F3
:105828000300350202161C020216CF020216CF022E
:1058380000000000000000001314F51BE31B5411C6
:1058480068127F1219129512CD12EB120000000097
:105858001314F51B54175411F415941419129512B6
:10586800CD12EB120D0A006E616E00696E66006F54
:10587800766600000000000023D022A422AC22C0DB
:1058880022CF22000000006925F51BD6254825BE39
:0458980025BD250005
:00000001FF
