:100000000C949C040C94E9200C9410210C94A626CA
:100010000C94A6260C94A6260C94C4040C946C2074
:100020000C94C4040C94C4040C94C4040C94C40430
:100030000C94C4040C94351C0C94C4040C94C40497
:100040000C9437210C94C4040C94C4040C94C40480
:100050000C94C4040C94C4040C94C4040C94C40400
:100060000C9494240C94C404C608BA080C09BA0869
:100070007D09AF09040A360A5C0ABA08BA08BA0848
:100080008E0ABA08B40A250BBA08480B680BBA08DE
:10009000BA08BA08BA08960BDE0BF60D180E320E27
:1000A0003F0E5C0E8F0EB70EC10ED50EED0D110F6B
:1000B0003B0F5A0F8A0F9D0FA70FF30F26103F100B
:1000C0006B1085108F10C4100D1124113F114D11AC
:1000D0007553004369636C6F204D61783A00755326
:1000E000004369636C6F204D696E3A00755300439D
:1000F00069636C6F204163743A0056657273696F6F
:100100006E3A0062792057617272696F72004265BF
:1001100061744475696E6F002020487A00456C69EF
:10012000676520656C20736F6E69646F3A00456C7B
:10013000696765206C612063616E63696F6E3A0068
:100140005469706F20436F6D7061733A00202042D4
:10015000504D00456C69676520656C2074656D7055
:100160006F3A004E6F6D6272652063616E63696FF6
:100170006E3A00456C696765206C612063616E634F
:10018000696F6E3A00426F727261722063616E63D2
:10019000696F6E0043616E63696F6E206120696EE6
:1001A0007365727461723A00496E7365727461723C
:1001B00020646573707565732064653A00456C69E9
:1001C0006765206C612063616E63696F6E3A0050F1
:1001D0006F736963696F6E20612065646974617211
:1001E0003A00456C696765206C6120706F736963C4
:1001F000696F6E3A004E6F6D627265207265706550
:1002000072746F72696F3A00456C69676520726538
:10021000706572746F72696F3A00535441525400A2
:100220002042504D0A0A005354415254002042507B
:100230004D0A0A00420238024D6574726F6E6F6D8E
:100240006F005265706572746F72696F007A026C2C
:1002500002600255024D69646920436C6F636B0054
:10026000536F6E69646F205469636B005469636BEC
:100270007320696775616C6573004D6F646F008AE8
:10028000028802850231360038003400C202B4020E
:10029000A302940243616D6269617220436F6D70C5
:1002A00061730043616D62696172204469766973AC
:1002B000696F6E0043616D626961722054656D7093
:1002C0006F0043616D62696172204E6F6D6272658D
:1002D00000E602D502456C696D696E61722043616A
:1002E0006E63696F6E004564697461722043616E6C
:1002F00063696F6E00FC02F9025349004E4F0036ED
:1003000003250314030703566163696172204F726A
:1003100064656E00456C696D696E61722043616E43
:1003200063696F6E00496E73657274617220436118
:100330006E63696F6E0043616D62696172204F7216
:1003400064656E005603480343616D626961722003
:100350004F7264656E0043616D62696172204E6F19
:100360006D6272650091037F036B03456C696D6973
:100370006E6172205265706572746F72696F0045AC
:100380006469746172205265706572746F72696F0E
:100390000043616D62696172205265706572746FAD
:1003A00072696F00C303B903B103AC03496E666F92
:1003B00000416A75737465730043616E63696F6EA3
:1003C0006573005265706572746F72696F730000B7
:1003D000000000003E5B4F5B3E3E6B4F6B3E1C3EA1
:1003E0007C3E1C183C7E3C181C577D571C1C5E7FB5
:1003F0005E1C00183C1800FFE7C3E7FF0018241834
:1004000000FFE7DBE7FF30483A060E262979292668
:10041000407F050507407F05253F5A3CE73C5A7F52
:100420003E1C1C08081C1C3E7F14227F22145F5FA8
:10043000005F5F06097F017F006689956A606060E2
:10044000606094A2FFA29408047E040810207E201D
:100450001008082A1C08081C2A08081E1010101072
:100460000C1E0C1E0C30383E3830060E3E0E0600B8
:100470000000000000005F00000007000700147F7C
:10048000147F14242A7F2A122313086462364956E3
:1004900020500008070300001C2241000041221CDC
:1004A000002A1C7F1C2A08083E08080080703000C3
:1004B0000808080808000060600020100804023ED8
:1004C0005149453E00427F40007249494946214119
:1004D000494D331814127F1027454545393C4A4988
:1004E00049314121110907364949493646494929C7
:1004F0001E000014000000403400000008142241D7
:100500001414141414004122140802015909063E5F
:10051000415D594E7C1211127C7F494949363E415A
:100520004141227F4141413E7F494949417F09097B
:1005300009013E414151737F0808087F00417F4116
:10054000002040413F017F081422417F404040404D
:100550007F021C027F7F0408107F3E4141413E7FA5
:10056000090909063E4151215E7F0919294626499C
:1005700049493203017F01033F4040403F1F204073
:10058000201F3F4038403F6314081463030478047D
:10059000036159494D43007F414141020408102045
:1005A000004141417F0402010204404040404000BC
:1005B0000307080020545478407F284444383844C6
:1005C000444428384444287F385454541800087E42
:1005D000090218A4A49C787F0804047800447D4094
:1005E000002040403D007F1028440000417F400033
:1005F0007C047804787C080404783844444438FC4B
:100600001824241818242418FC7C080404084854CE
:1006100054542404043F44243C4040207C1C20408B
:10062000201C3C4030403C44281028444C90909082
:100630007C4464544C4400083641000000770000BC
:10064000004136080002010204023C2623263C1E1B
:10065000A1A161123A4040207A385454555921558D
:1006600055794122545478422155547840205455AC
:1006700079400C1E527212395555555939545454FB
:100680005939555454580000457C410002457D427B
:100690000001457C407D1211127DF0282528F07C58
:1006A000545545002054547C547C0A097F493249F2
:1006B0004949323A4444443A324A4848303A41413E
:1006C000217A3A42402078009DA0A07D3D424242DE
:1006D0003D3D4040403D3C24FF2424487E49436644
:1006E0002B2FFC2F2BFF0929F620C0887E09032021
:1006F000545479410000447D413048484A323840E2
:1007000040227A007A0A0A727D0D19317D26292944
:100710002F28262929292630484D40203808080846
:100720000808080808382F10C8ACBA2F102834FA67
:1007300000007B000008142A142222142A1408AA9C
:10074000005500AAAA55AA55AA000000FF001010E3
:1007500010FF00141414FF001010FF00FF1010F021
:1007600010F0141414FC001414F700FF0000FF0034
:10077000FF1414F404FC141417101F10101F101F82
:100780001414141F00101010F0000000001F1010AF
:1007900010101F10101010F010000000FF101010AB
:1007A000101010101010FF10000000FF140000FFC8
:1007B00000FF00001F10170000FC04F414141710B1
:1007C000171414F404F40000FF00F71414141414A4
:1007D0001414F700F7141414171410101F101F141A
:1007E0001414F4141010F010F000001F101F00007B
:1007F000001F14000000FC140000F010F01010FFA7
:1008000010FF141414FF141010101F00000000F04B
:1008100010FFFFFFFFFFF0F0F0F0F0FFFFFF000020
:10082000000000FFFF0F0F0F0F0F3844443844FC47
:100830004A4A4A347E02020606027E027E0263555E
:100840004941633844443C04407E201E2006027E19
:10085000020299A5E7A5991C2A492A1C4C7201722B
:100860004C304A4D4D303048784830BC625A463D95
:100870003E494949007E0101017E2A2A2A2A2A444A
:10088000445F444440514A444040444A514000007F
:10089000FF0103E080FF000008086B6B083612368A
:1008A0002436060F090F060000181800000010106B
:1008B000003040FF0101001F01011E00191D171229
:1008C000003C3C3C3C0000000000566163696F0046
:1008D000564143494F000200000008000201000099
:1008E00003040700000000000000000102040810DB
:1008F0002040800102040810200102040810200496
:1009000004040404040404020202020202030303B6
:10091000030303000000002300260029000000005C
:1009200000250028002B0000000000240027002ADA
:100930000000CC06E423D90611241FBECFEFD8E077
:10094000DEBFCDBF16E0A0E0B1E0EAE7F4E502C00B
:1009500005900D92AA31B107D9F727E0AAE1B6E0D8
:1009600001C01D92A93EB207E1F714E0CBE9D4E043
:1009700004C02197FE010E948828C939D107C9F710
:100980000E945F1C0C94302A0C940000CF93DF93DC
:1009900081E00E94BE22EC0182E00E94BE22C817C4
:1009A000D90751F480912F069091300601969093CB
:1009B000300680932F0609C080912F069091300653
:1009C00001979093300680932F06DF91CF91089581
:1009D00060E08DE00E948E228BE00E9456201092F3
:1009E000130110921701109216010E948121609349
:1009F00054067093550680935606909357060895B3
:100A00001F93CF93DF93182FEB010E94BE22892BF7
:100A100009F062C09E01220F331F220F331F220FE5
:100A2000331FFE01EE0FFF1FE20FF31FED58F94FCA
:100A30001782168213828081811113C0FE01EE0F8E
:100A4000FF1FE20FF31FED58F94F81E044815581FC
:100A500020911001309111014217530718F480E0E2
:100A600001C080E09E01220F331F220F331F220F8F
:100A7000331FFE01EE0FFF1FE20FF31FED58F94F7A
:100A80008283848195812091100130911101821718
:100A9000930788F0CE01880F991F880F991F880F40
:100AA000991FFE01EE0FFF1FE80FF91FED58F94FD8
:100AB00081E0808311C09E01220F331F220F331F5C
:100AC000220F331FFE01EE0FFF1FE20FF31FED5841
:100AD000F94F019695838483812F0E94BE2201974E
:100AE00009F05BC0CE01880F991F880F991F880FEE
:100AF000991FFE01EE0FFF1FE80FF91FED58F94F88
:100B0000158214821186108611821282208122237E
:100B1000C9F0CE01880F991F880F991F880F991F60
:100B2000FE01EE0FFF1FE80FF91FED58F94F21E00E
:100B30004681578180911001909111014817590702
:100B400008F420E0CE01880F991F880F991F880FA5
:100B5000991FFE01EE0FFF1FE80FF91FED58F94F27
:100B60002383868197812091100130911101821792
:100B7000930710F010824DC09E01220F331F220FE9
:100B8000331F220F331FFE01EE0FFF1FE20FF31F73
:100B9000ED58F94F019697838683CE01880F991FF0
:100BA000880F991F880F991FFE01EE0FFF1FE80F96
:100BB000F91FED58F94F8081882359F1CE01880F34
:100BC000991F880F991F880F991FFE01EE0FFF1FB5
:100BD000E80FF91FED58F94F8085918501969187AF
:100BE000808720910E0130910F018217930719F42D
:100BF00081E081830EC0CE01880F991FCC0FDD1FCD
:100C0000CC0FDD1FCC0FDD1FC80FD91FCD58D94F1A
:100C10001982DF91CF911F910895CF93DF93809137
:100C200051060E94141BEC01BC018DE596E00E9468
:100C3000042ACE010E945129DF91CF910895FF929D
:100C40000F931F93CF93DF936091520680915106CB
:100C50000E948B1BF82E0E944F1B8C01BC0186E664
:100C600096E00E94042AC8010E9451298F2D0E94FB
:100C70009B1BC6E6D6E08A878F2D0E94A31B8B871D
:100C80008F2D0E94AE1B8C87DF91CF911F910F910A
:100C9000FF9008958BEF91E00E941A2A8F3F11F088
:100CA000809321018CEF91E00E941A2A8F3F31F04E
:100CB00091E0811101C090E0909353068DEF91E097
:100CC0000E941A2A8F3F31F091E0811101C090E01B
:100CD0009093310608950FB6F894A895809160001E
:100CE000886180936000109260000FBE62E082E035
:100CF0000E94522262E081E00E94522262E085E07E
:100D00000E94522262E083E00E94522262E080E070
:100D10000E94522261E08BE00E94522261E08DE04D
:100D20000E94522261E084E00E94522241E050E0A1
:100D300066EC74E080E00E94C92021E04DE362E0AF
:100D400081E996E00E94191942E15AE760E070E0FB
:100D500082E396E00E94A42781E996E00E94A5180C
:100D600061E081E996E00E94F01461E070E081E9C1
:100D700096E00E94F6149FE088E10FB6F894A895DB
:100D8000809360000FBE909360000E944A060E940C
:100D90000D060E941F06089564E081E996E00E9416
:100DA0008C1820E046E067E082E396E00E94792715
:100DB000089582E396E00E9420270895CF92DF9263
:100DC000EF92FF92CF93DF930E948121C0911A018D
:100DD000D0911B01C0905406D0905506E090560665
:100DE000F09057069B01AC012C193D094E095F0993
:100DF00069017A019E0140E050E0609158067091CF
:100E0000590680915A0690915B060E944728C216A7
:100E1000D306E406F50658F181E080931301809132
:100E20001601909117014091180150911901C49F2A
:100E30009001C59F300DD49F300D1124281739071C
:100E400039F481E090E0909317018093160105C07A
:100E5000019690931701809316010E94812160935F
:100E600054067093550680935606909357068091CA
:100E70001301882399F161E08DE00E948E22809118
:100E8000160190911701019781F480915306811109
:100E90000CC020911C0130911D0140E050E068EB36
:100EA00071E08BE00E94CE1D0DC020911C0130919D
:100EB0001D0140E050E060911401709115018BE03C
:100EC0000E94CE1D80913106882329F068EF82E3CD
:100ED00096E00E94E2251092130104C060E08DE0CC
:100EE0000E948E22DF91CF91FF90EF90DF90CF9004
:100EF0000895EF92FF920F931F93CF93DF93CDB797
:100F0000DEB76E970FB6F894DEBF0FBECDBF8091EF
:100F10005C06882321F0813009F413C11AC5809141
:100F20002101882321F0813009F4A3C012C581E991
:100F300096E00E94A51840E050E060E070E081E992
:100F400096E00E94EA1440E050E061E070E081E940
:100F500096E00E94FC146091510670E06F5F7F4F35
:100F60004AE050E081E996E00E94961D67E375E053
:100F700081E996E00E94D21C6DE576E081E996E079
:100F80000E94D21C6AE375E081E996E00E94D21CBF
:100F90006091520670E06F5F7F4F4AE050E081E958
:100FA00096E00E94961D67E375E081E996E00E9455
:100FB000D21C66E676E081E996E00E94D21C69E3E5
:100FC00075E081E996E00E94D21C62E081E996E03A
:100FD0000E94F01460911E0170911F014AE050E0E0
:100FE00081E996E00E94C81D6DE272E081E996E019
:100FF0000E94AE1C61E081E996E00E94F0146091CD
:101000001801709119014AE050E081E996E00E94D0
:10101000C81D6CE375E081E996E00E94D21C6091E6
:101020001A0170911B01660F771F660F771F4AE048
:1010300050E081E996E00E94C81D6EE375E081E909
:1010400096E00E94D21C80911201882339F067E259
:1010500072E081E996E00E94AE1C06C065E475E08E
:1010600081E996E00E94D21C81E996E00E94571A1D
:1010700070C481E996E00E94A51840E050E060E06D
:1010800070E081E996E00E94EA1440E050E061E0FF
:1010900070E081E996E00E94FC1462E081E996E04C
:1010A0000E94F01460911E0170911F014AE050E00F
:1010B00081E996E00E94C81D60E272E081E996E055
:1010C0000E94AE1C61E081E996E00E94F0146091FC
:1010D0001801709119014AE050E081E996E00E9400
:1010E000C81D6CE375E081E996E00E94D21C609116
:1010F0001A0170911B01660F771F660F771F4AE078
:1011000050E081E996E00E94C81D6EE375E081E938
:1011100096E00E94D21C80911201882339F06AE186
:1011200072E081E996E00E94AE1C06C065E475E0BD
:1011300081E996E00E94D21C81E996E00E94571A4C
:1011400008C481E996E00E94A51840E050E060E004
:1011500070E081E996E00E94EA1420912E06822F29
:1011600090E0FC013297E931F10520F4EC5CFF4F8F
:101170000C948828E22FF0E0EE0FFF1FEE0FFF1F08
:10118000E65BFA4F8081811198C3DFC340E050E0F5
:1011900061E070E081E996E00E94FC1468E072E092
:1011A00081E996E00E94DF1C00E010E080912D06AE
:1011B00090E08017910749F441E050E060E070E072
:1011C00081E996E00E94FC1408C040E050E061E034
:1011D00070E081E996E00E94FC14802F0E94141BAD
:1011E0007C010F5F1F4F4AE050E0B80181E996E0B3
:1011F0000E94961D67E375E081E996E00E94D21C8B
:10120000B70181E996E00E94F11CC7010E945129B3
:101210000330110559F699C340E050E061E070E0F9
:1012200081E996E00E94FC1465EF71E081E996E0A7
:101230000E94DF1C80912F06909130061816190627
:101240003CF580912C06E0912A06F0912B06E80FE0
:10125000F11D8081811102C080E2808380912C0683
:10126000E0912A06F0912B06E80FF11D80818A3764
:1012700011F488ED808380912C06E0912A06F0918C
:101280002B06E80FF11D80818A3710F48F5F808371
:1012900080912F0690913006992394F480912C062A
:1012A000E0912A06F0912B06E80FF11D8081883D20
:1012B00019F48AE7808304C0813210F08150808362
:1012C00060912A0670912B0681E996E00E94F11C3C
:1012D00080912C0690E0BC01660F771F680F791F84
:1012E000660F771F01E010E026E030E04FE050E0AD
:1012F00081E996E00E940D1528C362EE71E081E954
:1013000096E00E94DF1C40E050E061E070E081E97F
:1013100096E00E94FC1460912D06809151060E9477
:101320008B1B0E944F1B8C0190912D06692F70E042
:101330006F5F7F4F4AE050E081E996E00E94961D82
:1013400067E375E081E996E00E94D21CB80181E96B
:1013500096E00E94F11CC8010E945129F6C26FEC70
:1013600071E081E996E00E94DF1C6091290680917E
:1013700051060E948B1B0E944F1B8C0190912906E5
:10138000692F70E06F5F7F4F4AE050E081E996E09F
:101390000E94961D67E375E081E996E00E94D21CE9
:1013A000B80181E996E00E94F11C6AE375E081E9E9
:1013B00096E00E94F11C6DEB71E081E996E00E94DD
:1013C000DF1CC8010E94512980912D060E944F1BED
:1013D0008C0190912906692F70E06F5F7F4F4AE082
:1013E00050E081E996E00E94961D67E375E081E98F
:1013F00096E00E94D21CB80181E996E00E94F11C9F
:10140000C8010E945129A1C268EA71E081E996E011
:101410000E94DF1C40E050E061E070E081E996E06E
:101420000E94FC1460912D06809151060E948B1B36
:101430000E944F1B8C0190912D06692F70E06F5F09
:101440007F4F4AE050E081E996E00E94961D67E3F5
:1014500075E081E996E00E94D21CB80181E996E02E
:101460000E94F11CC8010E9451296FC264E971E019
:1014700081E996E00E94DF1C80912D060E944F1B9F
:101480008C0190912906692F70E06E5F7F4F4AE0D2
:1014900050E081E996E00E94961D67E375E081E9DE
:1014A00096E00E94D21CB80181E996E00E94F11CEE
:1014B000C8010E94512949C265E871E081E996E0BE
:1014C0000E94DF1C40E050E061E070E081E996E0BE
:1014D0000E94FC1460912D06809151060E948B1B86
:1014E0000E944F1B8C0190912D06692F70E06F5F59
:1014F0007F4F4AE050E081E996E00E94961D67E345
:1015000075E081E996E00E94D21CB80181E996E07D
:101510000E94F11CC8010E94512917C263E771E0C3
:1015200081E996E00E94DF1C80912D060E944F1BEE
:101530008C0190912D06692F70E06F5F7F4F4AE01C
:1015400050E081E996E00E94961D67E375E081E92D
:1015500096E00E94D21CB80181E996E00E94F11C3D
:10156000C8010E945129F1C140E050E061E070E003
:1015700081E996E00E94FC1463E671E081E996E05F
:101580000E94DF1C80912F069091300618161906D4
:101590003CF580912C06E0912A06F0912B06E80F8D
:1015A000F11D8081811102C080E2808380912C0630
:1015B000E0912A06F0912B06E80FF11D80818A3711
:1015C00011F488ED808380912C06E0912A06F09139
:1015D0002B06E80FF11D80818A3710F48F5F80831E
:1015E00080912F0690913006992394F480912C06D7
:1015F000E0912A06F0912B06E80FF11D8081883DCD
:1016000019F48AE7808304C0813210F0815080830E
:1016100060912A0670912B0681E996E00E94F11CE8
:1016200080912C0690E0BC01660F771F680F791F30
:10163000660F771F01E010E026E030E04FE050E059
:1016400081E996E00E940D1580C140E050E061E024
:1016500070E081E996E00E94FC1463E571E081E9A5
:1016600096E00E94DF1C6AE375E081E996E00E9443
:10167000F11C4AE050E060912D0681E996E00E945D
:10168000C11D6DE471E081E996E00E94DF1C5DC13F
:1016900040E050E061E070E081E996E00E94FC14D7
:1016A00060E471E081E996E00E94DF1C6AE375E086
:1016B00081E996E00E94F11C60912D0670E06E5F5A
:1016C0007F4F4AE050E081E996E00E949D1D3DC1B8
:1016D00040E050E061E070E081E996E00E94FC1497
:1016E0006EE271E081E996E00E94DF1C80912D0698
:1016F0000E944F1B8C0190912D06692F70E06F5F47
:101700007F4F4AE050E081E996E00E94961D67E332
:1017100075E081E996E00E94D21CB80181E996E06B
:101720000E94F11CC8010E9451290FC120912F066F
:1017300030913006121613066CF4809127069091B2
:10174000280601969093280680932706909315010A
:101750008093140133236CF480912706909128061E
:101760000197909328068093270690931501809304
:10177000140140E050E061E070E081E996E00E94F1
:10178000FC146DE171E081E996E00E94DF1C6AE3E0
:1017900075E081E996E00E94F11C60912706709146
:1017A00028064AE050E081E996E00E94961D68E133
:1017B00071E081E996E00E94DF1CC7C040E050E084
:1017C00061E070E081E996E00E94FC146EE071E057
:1017D00081E996E00E94DF1C63E071E081E996E018
:1017E0000E94DF1C6AEF70E081E996E00E94AE1C67
:1017F0004AE050E061E070E081E996E00E94961DC9
:1018000067E375E081E996E00E94D21C4AE050E06F
:1018100060E070E081E996E00E949D1D6FEE70E04F
:1018200081E996E00E94AE1C40911E0650911F0671
:1018300060912006709121062AE030E081E996E06F
:101840000E94B41D6CEE70E081E996E00E94DF1CFE
:1018500061EE70E081E996E00E94AE1C40910A01C1
:1018600050910B0160910C0170910D012AE030E064
:1018700081E996E00E94B41D6EED70E081E996E08A
:101880000E94DF1C63ED70E081E996E00E94AE1CCF
:1018900040911A0650911B0660911C0670911D061E
:1018A0002AE030E081E996E00E94B41D60ED70E02E
:1018B00081E996E00E94DF1C48C000E010E08091C2
:1018C0002D0690E08017910749F441E050E060E078
:1018D00070E081E996E00E94FC1408C040E050E00E
:1018E00061E070E081E996E00E94FC14E0912E0630
:1018F000F0E0EE0FFF1FEE0FFF1FE65BFA4FC8018F
:10190000880F991F0280F381E02DE80FF91F659180
:101910007491CE0101960E94EE29BE016F5F7F4F48
:1019200081E996E00E94F11C0F5F1F4FE0912E06A7
:10193000F0E0EE0FFF1FEE0FFF1FE65BFA4F808116
:1019400090E0081719070CF4BACF81E996E00E94DD
:10195000571A6E960FB6F894DEBF0FBECDBFDF915B
:10196000CF911F910F91FF90EF9008950F931F93C8
:10197000CF93DF93CDB7DEB72A970FB6F894DEBFCB
:101980000FBECDBF0E948D21609322067093230667
:10199000809324069093250660E070E085E090E057
:1019A0000E94000561E070E083E090E00E94000585
:1019B00062E070E080E090E00E94000580917F0688
:1019C000882311F180915C068130A1F4E0912E060C
:1019D000E11103C010925C0614C0F0E0EE0FFF1F8F
:1019E000EE0FFF1FE65BFA4F818180932E06109267
:1019F0002D0607C081E080935C0610922D061092A0
:101A00002E0681E08093200180915C06882321F0DE
:101A1000813009F493C05EC480912101882321F0B4
:101A2000813009F45AC056C480912F069091300637
:101A30001816190664F4809152068D3140F48F5FB8
:101A4000809352060E941F0681E0809320018091BE
:101A50002F0690913006992364F4809152068823D2
:101A600041F08150809352060E941F0681E08093CE
:101A70002001E6E6F6E02285822F90E090931F0198
:101A800080931E01838590E090931B0180931A013F
:101A9000848590E0909319018093180130E040E034
:101AA00050E060E67AEE80E090E00E9469282093A2
:101AB00058063093590640935A0650935B0680911E
:101AC0007506882309F406C48091120191E08927E4
:101AD0008093120190932001FDC300912F06109175
:101AE000300620911E0130911F01200F311F3093CD
:101AF0001F0120931E0140E050E060E67AEE80E096
:101B000090E00E946928209358063093590640932C
:101B10005A0650935B0680917506882341F08091A8
:101B2000120191E089278093120190932001012BEB
:101B300009F4D0C381E080932001CCC320912F060B
:101B40003091300612161306E4F440912D06642FEE
:101B500070E0E0912E06F0E0EE0FFF1FEE0FFF1F8A
:101B6000E65BFA4F808190E001976817790724F4CB
:101B70004F5F40932D0602C010922D0681E08093A6
:101B800020013323C4F480912D06882321F0815055
:101B900080932D060DC0E0912E06F0E0EE0FFF1FA2
:101BA000EE0FFF1FE65BFA4F8081815080932D0678
:101BB00081E08093200180918906882309F48AC3FB
:101BC000E0912E068E2F90E08B31910508F07FC3B7
:101BD000FC01E35BFF4F0C94882860912906862F57
:101BE00090E001964D970CF4EAC001C180912D065A
:101BF000813061F028F0823079F0833099F067C34A
:101C000010922D0681E080932E0661C310922D065E
:101C10008DE080932E065BC310922D0686E18093A3
:101C20002E0655C310922D068AE180932E064FC3CF
:101C300080912D06813051F018F0823069F047C351
:101C400010922D0682E080932E0641C310922D063D
:101C500083E080932E063BC310922D068CE0809388
:101C60002E0635C380912D068093510610925206A0
:101C70000E940D060E941F0610925C0628C38091E8
:101C80002D06882319F0813089F021C310922D068A
:101C900084E080932E06809151060E94141B90933D
:101CA0002B0680932A0610922C0611C310922D0643
:101CB00085E080932E060BC380912C06E0912A06C6
:101CC000F0912B06E80FF11D9081983DF9F41082F8
:101CD00060912A0670912B06809151060E94CA1BC2
:101CE00080912A0690912B060E945129E0912E06A0
:101CF00084E0E89FF0011124E65BFA4F8181809334
:101D00002E0610922D060E940D06E1C2883020F4A6
:101D10008F5F80932C06DBC210922C06D8C2809174
:101D20002D06813071F028F0823099F08330C9F0AF
:101D3000CEC210922D0686E080932E0610922906C0
:101D4000C6C210922D0688E080932E0610922906B6
:101D5000BEC210922D068AE080932E0610922906AC
:101D6000B6C210922D068BE080932E06B0C28091F1
:101D70002D068093290610922D0687E080932E066B
:101D8000A6C240912D0660912906809151060E94BD
:101D9000ED1B8091290680932D061092290686E07E
:101DA00080932E060E941F0692C280912D0680937A
:101DB000290610922D0689E080932E0688C20DE137
:101DC00010E06FEF600F809151060E948B1B482F2F
:101DD000602F809151060E94ED1B01501109609106
:101DE0002906862F90E001968017910754F36F5FC4
:101DF00040912D06809151060E94ED1B10922D06F8
:101E000010922906E0912E06F0E0EE0FFF1FEE0F74
:101E1000FF1FE65BFA4F818180932E060E941F060A
:101E200056C200912D0610E00D3111058CF461E0D1
:101E3000600F809151060E948B1B482F602F80916C
:101E400051060E94ED1B0F5F1F4F0D31110579F7F1
:101E500010922D0610922906E0912E06F0E0EE0F6A
:101E6000FF1FEE0FFF1FE65BFA4F818180932E0666
:101E70000E941F062CC280912D06813051F410E083
:101E80004FEF612F809151060E94ED1B1F5F1E31A5
:101E9000B9F710922D06E0912E06F0E0EE0FFF1F2D
:101EA000EE0FFF1FE65BFA4F818180932E060E94A2
:101EB0001F060DC280912D06813051F410E04FEFC6
:101EC000612F809151060E94ED1B1F5F1E31B9F7F3
:101ED0008FEF898348E050E0BE016F5F7F4FCB01F9
:101EE0000E940B2ABE016F5F7F4F809151060E94B6
:101EF000CA1B10922D06E0912E06F0E0EE0FFF1F98
:101F0000EE0FFF1FE65BFA4F818180932E060E9441
:101F10000D06DDC180912D06882319F0813039F03E
:101F2000D6C110922D068EE080932E06D0C110925D
:101F30002D0684E180932E06CAC180912D068093E0
:101F4000260610922D068FE080932E06C0C1809148
:101F50002D068130A1F028F08230E9F08330B1F114
:101F6000B6C110922D0680E180932E068091260640
:101F70000E944F1B90932B0680932A06A8C181E1F3
:101F800080932E06809126060E949B1B8093290633
:101F900080932D069CC182E180932E0680912606B7
:101FA0000E94A31B80932906823041F0843051F0B7
:101FB000813009F08CC110922D0689C181E0809397
:101FC0002D0685C182E080932D0681C183E1809337
:101FD0002E06809126060E94AE1B80932906825011
:101FE00080932D0674C180912C06E0912A06F09111
:101FF0002B06E80FF11D9081983DF9F41082609155
:102000002A0670912B06809126060E94FC1B809167
:102010002A0690912B060E94512910922D06E091DC
:102020002E0684E0E89FF0011124E65BFA4F8181DF
:1020300080932E060E941F064AC18A3020F48F5FCB
:1020400080932C0644C110922C0641C160912D064C
:10205000809126060E941D1C10922D0610922906C2
:10206000E0912E06F0E0EE0FFF1FEE0FFF1FE65B84
:10207000FA4F818180932E060E941F0628C180910D
:102080002D06813051F018F0823069F011C061E006
:10209000809126060E94251C0BC062E080912606D6
:1020A0000E94251C05C064E0809126060E94251C24
:1020B0001092290610922D06E0912E06F0E0EE0F08
:1020C000FF1FEE0FFF1FE65BFA4F818180932E0604
:1020D0000E941F06FCC060912D066E5F809126064F
:1020E0000E942D1C1092290610922D06E0912E06BA
:1020F000F0E0EE0FFF1FEE0FFF1FE65BFA4F81814E
:1021000080932E060E941F06E2C080912D068093C8
:10211000260610922D0685E180932E06D8C0809168
:102120002D06813001F58FEF89834AE050E0BE0132
:102130006F5F7F4FCB010E940B2ABE016F5F7F4F05
:10214000809126060E94FC1B6FEF809126060E945C
:102150001D1C6FEF809126060E94251C6FEF809159
:1021600026060E942D1C10922D06E0912E06F0E00E
:10217000EE0FFF1FEE0FFF1FE65BFA4F818180938A
:102180002E060E941F06A3C080912D068130B9F053
:1021900028F0823029F1833079F199C08BEF91E0FA
:1021A0000E941A2A809329068F3F19F080932D06EA
:1021B00002C010922D0687E180932E0688C08CEF16
:1021C00091E00E941A2A809329068F3F19F080938C
:1021D0002D0602C010922D0688E180932E0677C04E
:1021E0008091140190911501909328068093270601
:1021F00089E180932E066BC08DEF91E00E941A2A30
:10220000809329068F3F19F080932D0602C010920B
:102210002D068AE180932E065AC060912D066093A8
:1022200021018BEF91E00E94B91B10922D06E091E5
:102230002E06F0E0EE0FFF1FEE0FFF1FE65BFA4FDA
:10224000818180932E0643C061E080912D0681112B
:1022500001C060E0609353068CEF91E00E94B91BCF
:1022600010922D06E0912E06F0E0EE0FFF1FEE0F0C
:10227000FF1FE65BFA4F818180932E0628C0809174
:1022800027069091280690931501809314011092CF
:102290002D0686E180932E061AC061E080912D06FE
:1022A000811101C060E0609331068DEF91E00E94E2
:1022B000B91B10922D06E0912E06F0E0EE0FFF1FE5
:1022C000EE0FFF1FE65BFA4F818180932E0681E0BF
:1022D0008093200180911201882319F00E94DE066C
:1022E00002C00E94E80480912001882321F00E940E
:1022F0007907109220010E948D21009122061091F1
:1023000023062091240630912506DC01CB01801B99
:10231000910BA20BB30B80931E0690931F06A09304
:102320002006B093210600911A0610911B062091F9
:102330001C0630911D06081719072A073B0740F4B1
:1023400080931A0690931B06A0931C06B0931D065B
:1023500000910A0110910B0120910C0130910D01A7
:1023600080179107A207B30740F480930A01909366
:102370000B01A0930C01B0930D0110923006109246
:102380002F06A8952A960FB6F894DEBF0FBECDBFD4
:10239000DF91CF911F910F9108952F923F924F920D
:1023A0005F926F927F928F929F92AF92BF92CF92E5
:1023B000DF92EF92FF920F931F93CF93DF9300D0A2
:1023C00000D0CDB7DEB75C017C836B836A01490125
:1023D000FA82E982C801841B950B9C0122F4222712
:1023E0003327281B390BA4018B819C81481B590B77
:1023F000CA01992324F488279927841B950B51E05F
:1024000040E0821793070CF050E0652E742E6114A3
:10241000710459F0982D892D4801092F182F9B819F
:102420008C81DC82CB82C92ED82EAB81BC818A16EE
:102430009B060CF045C09C2D8D2D6801092F182F8F
:102440009B818C819C828B82892E982E39C0EB8156
:10245000FC818E169F060CF44EC00FEF1FEF02C0DA
:1024600001E010E06114710471F0D501ED91FC916F
:102470000480F581E02D29813A814B815C81B60190
:10248000C50109950DC0D501ED91FC910480F58140
:10249000E02D29813A81A6016B817C81C5010995D6
:1024A000E418F50822F4C00ED11EE20CF31CEB81F7
:1024B000FC813196FC83EB838E169F069CF61BC035
:1024C00014018B819C81281A390AC8018C199D0935
:1024D0002C0122F444245524481A590A710133204E
:1024E0001CF49FEFE91AF90AF594E794C016D10697
:1024F0000CF4B6CFACCF0F900F900F900F90DF91F0
:10250000CF911F910F91FF90EF90DF90CF90BF90F0
:10251000AF909F908F907F906F905F904F903F9083
:102520002F9008956F927F928F929F92AF92BF9259
:10253000CF92DF92EF92FF920F931F93CF93DF938F
:10254000EC014B015A0169013801E881F9810284EB
:10255000F385E02D87010995E881F981A501460DF4
:10256000571D415051090284F385E02D9601B401B5
:10257000CE010995E881F9810084F185E02D930170
:10258000A501B401CE010995E881F981C80CD91CD7
:10259000B601615071090084F185E02D9301A50118
:1025A000CE010995DF91CF911F910F91FF90EF9090
:1025B000DF90CF90BF90AF909F908F907F906F9063
:1025C0000895EF92FF920F931F937801DC01ED9134
:1025D000FC91240F351F8901015011090680F781F4
:1025E000E02D9B0109951F910F91FF90EF900895A9
:1025F000EF92FF920F931F93DC01ED91FC91260F58
:10260000371F215031090680F781E02D78018A01BA
:1026100009951F910F91FF90EF9008956F927F920F
:102620008F929F92AF92BF92CF92DF92EF92FF92E2
:102630000F931F93CF93DF936C01EB014A01580175
:1026400037017B01E20EF31E6E157F0584F4D6017F
:10265000ED91FC910084F185E02D83019501A401A9
:10266000BE01C60109952196CE15DF0584F3DF91E1
:10267000CF911F910F91FF90EF90DF90CF90BF907F
:10268000AF909F908F907F906F900895EF92FF9200
:102690000F931F93DC01ED91FC9111971A960D9108
:1026A0001C911B9718962D913C9119970684F785DC
:1026B000E02D7B0140E050E060E070E009951F9163
:1026C0000F91FF90EF9008950895FC0113821282FC
:1026D0008EEB95E091838083758364835783468373
:1026E0007187608753874287158A158614861786F7
:1026F000168681E0848B2FEF3FEF338B228B318B5B
:10270000208B868B08952F923F924F925F926F920B
:102710007F928F929F92AF92BF92CF92DF92EF9271
:10272000FF920F931F93CF93DF93CDB7DEB76297DE
:102730000FB6F894DEBF0FBECDBF5C011801FD825D
:10274000EC82CB82DC0118968D919C9119976817C9
:1027500079070CF0C8C01A968D919C911B97481769
:1027600059070CF0C0C0EC2DF0E0FA83E983CF01EB
:10277000880F991F8E0F9F1F880F991F860F971F15
:1027800001970AF4B0C0CF01880F991F880F991FD5
:10279000880F991F840F951F01970AF4A4C030E099
:1027A000C901880F991F880F991F280F391F3F01F2
:1027B000798768877B876A871C86D901A61BB70B38
:1027C000B88BAF874D875E874A01B8E08B0E911CAE
:1027D0002401EC85E53009F478C0EF85F889888517
:1027E0009985E80FF91FE153FC4F14916FC0B0FEBB
:1027F00024C09B81913079F4A989BA89ED91FC912B
:1028000011970480F581E02D9101A60168857985F5
:10281000CD0109953CC0A989BA89ED91FC91119728
:102820000684F785E02D710109811A819801A401C0
:102830006E817F81CD0109952AC0EC81FD81E21571
:10284000F30529F1FB81F13081F4A989BA89ED9171
:10285000FC9111970480F581E02D2C813D81A6012A
:1028600068857985CD01099512C0A989BA89ED914C
:10287000FC9111970684F785E02DEC80FD8009819D
:102880001A819801A4016E817F81CD010995B694CA
:10289000860C971CBFEFCB1ADB0AC414D50409F0D1
:1028A000A6CFA988BA88EC85EF5FEC878A859B85DF
:1028B000860D971D9B878A87A885B9851196B9874C
:1028C000A887E63009F085CF0EC010E0BA85BE8338
:1028D000EB85EF83CD84DE848C2C9D2CC501B12E3D
:1028E0009A8B898B84CF62960FB6F894DEBF0FBEA9
:1028F000CDBFDF91CF911F910F91FF90EF90DF90AF
:10290000CF90BF90AF909F908F907F906F905F908F
:102910004F903F902F900895CF92EF92FF920F9398
:102920001F93CF93DF936A3079F4FC0144892685A5
:102930003785F8E04F9F200D311D1124FC013787AA
:102940002687158614863CC06D30D1F1262FEC0108
:10295000EA88FB88088919894E855F856C857D85A5
:10296000CC880E9483132C8930E0C901880F991FFD
:10297000820F931F880F991F4C855D85840F951FCB
:102980009D878C874E894423D9F04AEF4203B001DA
:10299000439F700D112448855985460F571F4817CE
:1029A000590774F4220F331F220F331F220F331FD6
:1029B0008E859F85280F391F3F872E871D861C8691
:1029C00081E090E0DF91CF911F910F91FF90EF9008
:1029D000CF900895FC0175876487578746870895CF
:1029E000611101C061E0FC01648B0895FC01738BEF
:1029F000628B718B608B0895FC01718B608B538BA4
:102A0000428B0895FC0185890895FC01808591859C
:102A10000895FC018285938508950F931F93FC010F
:102A20008589823071F08330E9F0813009F0C7C0C8
:102A300084819581DC01A41BB50BAD014150510986
:102A400022C184819581DC01A61BB70BBD01868163
:102A50009781DC01A41BB50BAD0141505109621BEC
:102A6000730BADC086819781DC01A61BB70BBD013E
:102A7000621B730B08C184819581481759070CF0BC
:102A800029C1772324F4260F371F60E070E0868188
:102A90009781FB01E20FF31F8E179F071CF49C0127
:102AA000261B370B121613060CF014C1722F862F3B
:102AB000869586958695B0E88B9F400D511D112413
:102AC000FA01EE5CFE4F677079F188E0861B482FB3
:102AD00050E0DA01A65DBE4F9C91281708F0D7C0E0
:102AE000421B51092FEF30E002C0359527954A95DA
:102AF000E2F792230130110529F040F00230110570
:102B000051F0E8C02081922B908308C090952081DD
:102B10009223908303C0208192279083781708F432
:102B2000D9C0781BE058FF4F783058F102301105BA
:102B300059F4DF01972F8C9180958C93A058BF4F4B
:102B400098509830C0F7B5C091E00130110509F0F8
:102B500090E09195DF01872F9C93A058BF4F88503C
:102B60008830D0F788EF870F86958695869590E018
:102B700001969695982F882797958795E80FF91FC6
:102B80007770772309F4A6C07770A72FB0E0AE5D09
:102B9000BE4F8C910130110529F040F00230110533
:102BA00051F098C09081892B808394C0809590814A
:102BB000892380838FC09081892780838BC0552390
:102BC0000CF488C086819781481759070CF082C0A1
:102BD000772324F4260F371F60E070E0848195810D
:102BE000FB01E20FF31F8E179F071CF49C01261BAD
:102BF000370B121613060CF06DC0CA0155230CF4E6
:102C0000079695958795959587959595879596952A
:102C1000982F882797958795680F791F6E5C7E4F50
:102C20004770552781E090E002C0880F991F4A95B0
:102C3000E2F7482F0130110549F090F002301105FC
:102C400009F048C0FB01620F731F16C0FB01620F41
:102C5000731F8081842B8193E617F707D1F73AC061
:102C6000982F9095FB01620F731F808189238193B8
:102C7000E617F707D1F72EC0808184278193E617E6
:102C8000F707D1F727C055230CF0F5CE23C001304C
:102C9000110509F437CF08F439CF0230110509F4D2
:102CA0003ACF3FCFA72FA770B0E0AE5DBE4F8C915B
:102CB00082CF88EF870F86958695869590E001965E
:102CC0009695982F882797958795E80FF91F872F56
:102CD000877041F71F910F9108950F931F93FC0187
:102CE0008589823071F08330E9F0813009F084C049
:102CF00084819581DC01A41BB50BAD01421B530BF4
:102D000022C184819581DC01A61BB70BBD016150F6
:102D1000710986819781DC01A41BB50BAD01421BB3
:102D2000530B6AC086819781DC01A61BB70BBD01DE
:102D30006150710908C186819781681779070CF085
:102D400029C1552324F4240F351F40E050E084812D
:102D50009581FA01E20FF31F8E179F071CF49C0167
:102D6000241B350B121613060CF014C1CB0177236C
:102D70000CF40796959587959595879595958795E4
:102D80009695982F882797958795480F591F4E5CE1
:102D90005E4FCB018770992761E070E002C0660F3B
:102DA000771F8A95E2F7962F0130110549F090F0D0
:102DB0000230110509F0EEC0FA01240F351F15C0CD
:102DC000FA01240F351F8081892B8193E217F307C5
:102DD000D1F7E0C06095FA01240F351F808186236A
:102DE0008193E217F307D1F7D5C0808189278193BA
:102DF000E217F307D1F7CEC077230CF4CBC0848160
:102E00009581681779070CF0C5C0552324F4240F69
:102E1000351F40E050E086819781FA01E20FF31FF1
:102E20008E179F071CF49C01241B350B12161306EA
:102E30000CF0B0C0522F842F869586958695B0E809
:102E40008B9F600D711D1124FB01EE5CFE4F4770DE
:102E500079F188E0841B682F70E0DB01A65DBE4F2E
:102E60009C91281708F073C0621B71092FEF30E0A6
:102E700002C0359527956A95E2F792230130110536
:102E800029F040F00230110551F084C02081922BCE
:102E9000908308C0909520819223908303C0208165
:102EA00092279083581708F475C0581BE058FF4FBD
:102EB000583058F10230110559F4DF01952F8C91EB
:102EC00080958C93A058BF4F98509830C0F751C050
:102ED00091E00130110509F090E09195DF01852F17
:102EE0009C93A058BF4F88508830D0F788EF850F4B
:102EF00086958695869590E001969695982F8827D9
:102F000097958795E80FF91F5770552309F442C02C
:102F10005770A52FB0E0AE5DBE4F8C91013011050A
:102F200029F040F00230110551F034C09081892B16
:102F3000808330C080959081892380832BC09081CD
:102F40008927808327C077230CF0F5CE23C001307A
:102F5000110509F49BCF08F49DCF0230110509F447
:102F60009ECFA3CFA52FA770B0E0AE5DBE4F8C91D2
:102F7000E6CF88EF850F86958695869590E0019639
:102F80009695982F882797958795E80FF91F852F95
:102F9000877041F71F910F910895CF92DF92EF92C2
:102FA000FF920F931F93CF93DF937C01EB018A0174
:102FB0006901DD230CF4A7C00E940515C817D907C5
:102FC0000CF0A1C011230CF49EC0C7010E9409158A
:102FD000081719070CF097C0C7010E94021582302C
:102FE00069F08330E1F0813019F5F7018481958132
:102FF000801B910B8E01EC0121971AC0F70184818F
:1030000095819C012C1B3D0BE901219786819781BD
:10301000FC01E01BF10B8F010150110909C0F70100
:10302000868197818C1B9D0BE8018C010150110951
:10303000F1E0CF16D10439F030F132E0C316D104FB
:1030400009F442C060C0C80111230CF4079695959D
:10305000879595958795959587959695982F882727
:1030600097958795C80FD91FCE5CDE4F0770112743
:1030700081E090E002C0880F991F0A95E2F79881DD
:10308000892B888340C0C80111230CF407969595BD
:10309000879595958795959587959695982F8827E7
:1030A00097958795C80FD91FCE5CDE4F0770112703
:1030B00081E090E002C0880F991F0A95E2F78095A1
:1030C0009881892388831FC0C80111230CF40796B7
:1030D0009595879595958795959587959695982F2C
:1030E000882797958795C80FD91FCE5CDE4F07704C
:1030F000112781E090E002C0880F991F0A95E2F73E
:10310000988189278883DF91CF911F910F91FF903C
:10311000EF90DF90CF9008951F93CF93DF93EC0152
:10312000162F40E450E060E870E00E94651386EDE1
:1031300095E0998388838FEF898F8D8F8B8F8A8F0E
:103140001C8FDF91CF911F91089580E094E0E2E31E
:10315000F1E0DF019C011D9221503040E1F708951C
:10316000CF93FC01818D8F3F09F44AC0A3A1B4A184
:103170009C9181A5892B8C93A5A1B6A19C9182A538
:10318000809589238C93A3A1B4A19C9181A580955E
:1031900089238C93868D882339F06EBD00000DB491
:1031A00007FEFDCF8EB525C048E050E020E8A1A184
:1031B000B2A19C9180A5809589238C93822F862330
:1031C00039F0A78DB0A19C9187A1892B8C9307C062
:1031D000A78DB0A19C9187A1809589238C93A1A1F3
:1031E000B2A19C9180A5892B8C93269541505109C1
:1031F000F1F6A3A1B4A19C9181A5892B8C9317C052
:10320000C62F6789062E000C770B81EE96E00E9490
:10321000CC2360E081EE96E00E9479236C2F81EE52
:1032200096E00E94792381EE96E00E94E123CF91FF
:1032300008950F931F93CF93DF93EC01162F022F66
:10324000688F4F8B898D8F3F09F477C061E08B8D3C
:103250000E94522261E08D8D0E9452228D8D082E97
:10326000000C990BFC01E150F74FE491F0E0EE0FF8
:10327000FF1FE35EF64F259134913CA32BA3FC0185
:10328000E551F74FE491E9A78B8D082E000C990BBF
:10329000FC01E150F74FE491F0E0EE0FFF1FE35E19
:1032A000F64F259134913EA32DA3FC01E551F74F34
:1032B000E491EAA78E8D811137C061E0898D0E946B
:1032C000522261E08A8D0E9452228A8D082E000CC3
:1032D000990BFC01E150F74FE491F0E0EE0FFF1F76
:1032E000E35EF64F259134913AA329A3FC01E55101
:1032F000F74FE491E8A7898D082E000C990BFC018B
:10330000E150F74FE491F0E0EE0FFF1FE35EF64F60
:103310002591349138A32F8FFC01E551F74FE491AB
:10332000EFA38E8D882369F00E94E7228CB58C7FF5
:103330008CBD8DB581608DBD04C081EE96E00E948C
:10334000B8230023E1F061E08C8D0E94522261E0FD
:103350008C8D0E948E2261E070E080E090E00E94FF
:10336000B22160E08C8D0E948E226AE070E080E0E5
:1033700090E00E94B22161E08C8D0E948E226EEA64
:10338000CE010E94B01865EDCE010E94B01860E831
:10339000CE010E94B01868EACE010E94B0186FE317
:1033A000CE010E94B01863EDCE010E94B01860E01B
:1033B000CE010E94B01860E4CE010E94B0186DE802
:1033C000CE010E94B018113069F560E1CE010E9473
:1033D000B01860E2CE010E94B01860E0CE010E94F9
:1033E000B01861EACE010E94B01868ECCE010E94CC
:1033F000B0186AEDCE010E94B01862E1CE010E94C1
:10340000B01861E8CE010E94B0186FE9CE010E94A9
:10341000B01869EDCE010E94B01862E2CE010E94A0
:10342000B0182CC064E1CE010E94B01860E2CE0159
:103430000E94B01860E0CE010E94B01861EACE018F
:103440000E94B01868ECCE010E94B0186AEDCE015F
:103450000E94B01862E1CE010E94B01861E8CE016E
:103460000E94B0186FECCE010E94B01869EDCE0139
:103470000E94B01861EFCE010E94B0186BEDCE0132
:103480000E94B01860E4CE010E94B01864EACE0138
:103490000E94B01866EACE010E94B0186FEACE0111
:1034A0000E94B018DF91CF911F910F910895BF92A4
:1034B000CF92DF92EF92FF920F931F93CF93DF9300
:1034C000EC0161E20E94B01860E0CE010E94B018E9
:1034D0006FE7CE010E94B01862E2CE010E94B018E0
:1034E00060E0CE010E94B01867E0CE010E94B018E3
:1034F000898D8F3F09F456C0EBA1FCA1908189A56D
:10350000892B8083EDA1FEA190818AA5892B8083E0
:10351000EBA1FCA1808199A5909589238083A2E3EA
:10352000B1E062E375E06894FF24F3F800E010E88E
:103530005D918E8D882339F05EBD00000DB407FECD
:10354000FDCF8EB525C02F2D302F412FE9A1FAA137
:10355000908188A5809589238083842F852339F0E5
:10356000EF8DF8A190818FA1892B808307C0EF8D0B
:10357000F8A190818FA1809589238083E9A1FAA188
:10358000908188A5892B8083469521503109F1F6D9
:10359000A617B70769F6EBA1FCA1908189A5892B35
:1035A000808338C0E8EBF0E0B0808CE0808302E3F9
:1035B00011E00F2EF2E3CF2EF5E0DF2EF02D6F8914
:1035C000062E000C770B81EE96E00E94CC23E09152
:1035D000E106F091E2060190F081E02D60E481EED9
:1035E00096E00995780180E1E80EF11CF8016191FF
:1035F0008F0181EE96E00E947923E016F106B1F783
:1036000081EE96E00E94E1238701EC14FD04B9F6F7
:10361000B092B800DF91CF911F910F91FF90EF9082
:10362000DF90CF90BF900895CF92DF92EF92FF92FC
:103630000F931F93CF93DF93C82F88E090E00E94F1
:10364000BC286C0186E2C89F90011124C9018A57E9
:103650009E4FEC010E941A2A8F3F41F448E050E04F
:1036600060ED78E0C6010E94F5290FC08601760161
:10367000E8E0EE0EF11CCE010E941A2AF8018193B7
:103680008F012196EE15FF05B1F7C601DF91CF91AD
:103690001F910F91FF90EF90DF90CF900895CF9200
:1036A000DF92EF92FF920F931F93CF93DF93C82F78
:1036B0008AE090E00E94BC28C82ED92E8DE0C89FD9
:1036C000E0011124CE010E941A2A8F3F49F44AE0FA
:1036D00050E06AEC78E08C2D9D2D0E94F52910C0F9
:1036E0000C2D1D2D7E01EAE0EE0EF11CCE010E9494
:1036F0001A2AF80181938F012196CE15DF05B1F7C3
:103700008C2D9D2DDF91CF911F910F91FF90EF9008
:10371000DF90CF90089570E062577E4F9B0146E2A4
:10372000849F200D311D1124C9010E941A2A8F3F48
:1037300009F480E008952DE0829FC00111240A96CB
:103740000E941A2A08952DE0829FC00111240B9631
:103750000E941A2A8F3F09F481E008952DE0829F8C
:10376000C00111240C960E941A2A8F3F09F484E0AC
:1037700008951F93CF93DF93EC01162F0E941A2A0E
:10378000181721F0612FCE010E94222ADF91CF91DC
:103790001F910895EF92FF920F931F93CF93DF93A2
:1037A00026E2829FC0011124EC01CA57DE4F8B0133
:1037B0007B0188E0E80EF11CF80161918F01CE01D8
:1037C0000E94B91B21960E151F05B1F7DF91CF910D
:1037D0001F910F91FF90EF900895262F30E0225710
:1037E0003E4F642FA90176E2879F400D511D1124A1
:1037F000CA010E94B91B0895EF92FF920F931F9385
:10380000CF93DF939DE0899FE0011124062F172FAE
:103810007E01EAE0EE0EF11CF80161918F01CE010C
:103820000E94B91B2196CE15DF05B1F7DF91CF912C
:103830001F910F91FF90EF9008952DE0829FC0019E
:1038400011240A960E94B91B08952DE0829FC001A1
:1038500011240B960E94B91B08952DE0829FC00190
:1038600011240C960E94B91B08951F920F920FB657
:103870000F9211242F933F934F935F936F937F93F6
:103880008F939F93AF93BF93EF93FF93E091C00605
:10389000F091C1060995FF91EF91BF91AF919F9172
:1038A0008F917F916F915F914F913F912F910F90E9
:1038B0000FBE0F901F9018950E94E92908950E944D
:1038C000EE210E945E1C0E946B06C0E0D0E00E94C8
:1038D000B60C2097E1F30E940000F9CFCF92DF925F
:1038E000EF92FF920F931F93CF93DF936C017A01B6
:1038F0008B01C0E0D0E0CE15DF0589F0D8016D91D5
:103900008D01D601ED91FC910190F081E02DC60171
:103910000995892B11F47E0102C02196ECCFC701D5
:10392000DF91CF911F910F91FF90EF90DF90CF909B
:1039300008956115710579F0FB0101900020E9F708
:103940003197AF01461B570BDC01ED91FC910280D2
:10395000F381E02D099480E090E00895EF92FF92CA
:103960000F931F93CF93DF938C017B01C0E0D0E0D6
:10397000F701EC0FFD1F6491662361F0D801ED9112
:10398000FC910190F081E02DC8010995892B11F07F
:103990002196EECFCE01DF91CF911F910F91FF9035
:1039A000EF9008950C94991CDC01ED91FC9101902D
:1039B000F081E02D09946AEE75E00C94991C0F9348
:1039C0001F93CF93DF93EC010E94AE1C8C01CE01BC
:1039D0000E94DB1C800F911FDF91CF911F910F91EF
:1039E00008950F931F93CF93DF93EC010E94991CCE
:1039F0008C01CE010E94DB1C800F911FDF91CF91C3
:103A00001F910F9108954F925F926F927F92EF9264
:103A1000FF920F931F93CF93DF93CDB7DEB7A1979C
:103A20000FB6F894DEBF0FBECDBF7C01FA01CB010B
:103A300019A2223008F42AE08E010F5D1F4F422E9A
:103A4000512C612C712CBF01A30192010E944728C7
:103A5000F901CA01015011096A3014F4605D01C016
:103A6000695CD8016C93232B242B252B61F7B801BB
:103A7000C7010E94991CA1960FB6F894DEBF0FBE35
:103A8000CDBFDF91CF911F910F91FF90EF907F906D
:103A90006F905F904F900895CF92DF92EF92FF92D8
:103AA0000F931F93CF93DF93EC016A017B012115E4
:103AB000310579F4E881F9810190F081E02D642FDE
:103AC000DF91CF911F910F91FF90EF90DF90CF90FA
:103AD00009942A303105E9F477FF1AC06DE20E949B
:103AE000D41C8C0144275527BA014C195D096E0975
:103AF0007F092AE0CE010E94031D800F911FDF91F4
:103B0000CF911F910F91FF90EF90DF90CF9008958C
:103B10002AE0B701A601CE01DF91CF911F910F914D
:103B2000FF90EF90DF90CF900C94031D9A01AB01B2
:103B3000770F660B770B0C944C1D0F931F93CF934D
:103B4000DF93EC019A01AB01770F660B770B0E94B4
:103B50004C1D8C01CE010E94DB1C800F911FDF9158
:103B6000CF911F910F9108952115310541F4DC018A
:103B7000ED91FC910190F081E02D642F09940C945B
:103B8000031D9A01462F50E060E070E00C94B41DD4
:103B90009A01AB0160E070E00C94B41D3F924F922B
:103BA0005F926F927F928F929F92AF92BF92CF92CD
:103BB000DF92EF92FF920F931F93CF93DF9300D08A
:103BC00000D0CDB7DEB790913205981721F09F3F16
:103BD00009F036C204C0E6EDF8E0349081C080936D
:103BE0003205E6EDF8E0E491EF3F09F429C2E13057
:103BF00031F1E23009F44BC0E11171C014BC15BCC5
:103C000094B5926094BD95B5916095BDA82FB0E034
:103C1000FD01E150F74FE491F0E0EE0FFF1FE35E8E
:103C2000F64F059114911093D2060093D106FD0131
:103C3000E551F74FE491E093D006312C53C0109238
:103C40008000109281009091810098609093810093
:103C500090918100916090938100A82FB0E0FD01C8
:103C6000E150F74FE491F0E0EE0FFF1FE35EF64FF7
:103C7000059114911093CB060093CA06FD01E551FE
:103C8000F74FE491E093C906332433942BC010928C
:103C9000B0001092B1009091B00092609093B0008B
:103CA0009091B10091609093B100A82FB0E0FD0118
:103CB000E150F74FE491F0E0EE0FFF1FE35EF64FA7
:103CC000059114911093C4060093C306FD01E551BC
:103CD000F74FE491E093C20602E0302E03C03E2E7F
:103CE00037FCAEC129013A018B0161E00E945222EA
:103CF0004801A12CB12C832D8D7F09F0BBC060E061
:103D000072E18AE790E0A50194010E946928298365
:103D10003A834B835C8369017A0121E0C21AD1089E
:103D2000E108F1088FEFC816D104E104F10409F0AD
:103D300008F44CC060E472E48FE090E0A5019401C7
:103D40000E94692869017A01E1E0CE1AD108E108F0
:103D5000F108F2E03F1220C02FEFC216D104E104B7
:103D6000F10409F008F46AC160E970ED83E090E0C5
:103D7000A50194010E94692869017A0181E0C81AAD
:103D8000D108E108F108EFEFCE16D104E104F10407
:103D900009F0D0F583E067C0FFEFCF16D104E1044E
:103DA000F104B1F0A8F068E478EE81E090E0A501BC
:103DB00094010E94692869017A0181E0C81AD1083A
:103DC000E108F108332009F4DFC02FC181E001C010
:103DD00082E03320A1F047C089819A81AB81BC8108
:103DE0002AE0B595A795979587952A95D1F76C0107
:103DF0007D0121E0C21AD108E108F10885E095B5FE
:103E0000987F892B85BD6FC068E478EE81E090E0F3
:103E1000A50194010E94692869017A01F1E0CF1A95
:103E2000D108E108F1082FEFC216D104E104F10432
:103E300009F008F4A7C064E274EF80E090E0A50107
:103E400094010E94692869017A01E1E0CE1AD10843
:103E5000E108F108FFEFCF16D104E104F10411F0FD
:103E600008F0B4C085E09091B100987F892B8093D1
:103E7000B10039C060E072E18AE790E0A5019401E9
:103E80000E94692869017A0181E0C81AD108E10815
:103E9000F108C114D104E1E0EE06F10488F068E411
:103EA00078EE81E090E0A50194010E946928690103
:103EB0007A01F1E0CF1AD108E108F10893E001C0DE
:103EC00091E021E032120FC080918100887F892B20
:103ED00080938100411451046104710449F42FEF6F
:103EE0003FEFA9012DC0411451046104710471F028
:103EF000D801AA0FBB1FA30192010E948E2828EEB1
:103F000033E040E050E00E94472803C02FEF3FEF2E
:103F1000A90181E03816A1F0E2E03E1619F1311056
:103F20008FC0C7BC2093D3063093D4064093D506E8
:103F30005093D60680916E00826080936E0080C0A0
:103F4000D0928900C09288002093CC063093CD0691
:103F50004093CE065093CF0680916F00826080938D
:103F60006F006EC0C092B3002093C5063093C606A2
:103F70004093C7065093C80680917000826080937A
:103F800070005EC084E06FCFFFEFCF16D104E10474
:103F9000F104D1F0C8F062E17AE780E090E0A50199
:103FA00094010E94692869017A0181E0C81AD10848
:103FB000E108F108EFEFCE16D104E104F10411F0AD
:103FC00008F00ACF84E01BCF83E019CF62E17AE7E3
:103FD00080E090E0A50194010E94692869017A01BE
:103FE00081E0C81AD108E108F108EFEFCE16D1043C
:103FF000E104F104C1F0B8F089819A81AB81BC8100
:104000004AE0B595A795979587954A95D1F76C01A4
:104010007D0121E0C21AD108E108F108332009F43A
:10402000EDCE87E020CF86E0D4CEFFEFCF16D104CF
:10403000E104F10409F050F684E0CBCE82E013CF26
:104040000F900F900F900F90DF91CF911F910F91D4
:10405000FF90EF90DF90CF90BF90AF909F908F90A8
:104060007F906F905F904F903F900895813039F02E
:1040700018F0823051F0089510926E0008958091EA
:104080006F008D7F80936F000895809170008D7F09
:104090008093700081E08093B0008091B100887FB0
:1040A00084608093B1001092B3000895CF93C82F1D
:1040B000809132058C1307C0E6EDF8E0E4918FEFB4
:1040C0008093320501C0EFEF8E2F0E94362060E012
:1040D0008C2FCF910C948E221F920F920FB60F92BD
:1040E00011242F933F934F935F936F937F938F93FD
:1040F0009F93AF93BF93EF93FF938091C5069091E9
:10410000C606A091C706B091C806892B8A2B8B2BB7
:1041100051F18091C206E091C306F091C4069081EE
:10412000892780838091C5069091C606A091C70615
:10413000B091C806181619061A061B06C4F4809119
:10414000C5069091C606A091C706B091C806019712
:10415000A109B1098093C5069093C606A093C7062E
:10416000B093C80604C0809132050E945620FF918A
:10417000EF91BF91AF919F918F917F916F915F91DF
:104180004F913F912F910F900FBE0F901F90189558
:1041900008958230E8F4E82FF0E0EE0FFF1FED5CA9
:1041A000FA4F71836083813041F0809169008C7F88
:1041B000482B40936900E89A089580916900440F64
:1041C000551F440F551F837F482B40936900E99A80
:1041D00008951F920F920FB60F9211242F933F93C1
:1041E0004F935F936F937F938F939F93AF93BF93FF
:1041F000EF93FF93E0913305F09134050995FF911A
:10420000EF91BF91AF919F918F917F916F915F914E
:104210004F913F912F910F900FBE0F901F901895C7
:104220001F920F920FB60F9211242F933F934F932B
:104230005F936F937F938F939F93AF93BF93EF930E
:10424000FF93E0913505F09136050995FF91EF91C7
:10425000BF91AF919F918F917F916F915F914F919E
:104260003F912F910F900FBE0F901F9018951F92A6
:104270000F920FB60F9211242F933F938F939F931A
:10428000AF93BF938091D8069091D906A091DA069A
:10429000B091DB063091D70623E0230F2D3720F4B1
:1042A0000196A11DB11D05C026E8230F0296A11D90
:1042B000B11D2093D7068093D8069093D906A0937A
:1042C000DA06B093DB068091DC069091DD06A091C2
:1042D000DE06B091DF060196A11DB11D8093DC06BC
:1042E0009093DD06A093DE06B093DF06BF91AF91F9
:1042F0009F918F913F912F910F900FBE0F901F9024
:1043000018952FB7F8946091D8067091D9068091CE
:10431000DA069091DB062FBF08953FB7F89480919D
:10432000DC069091DD06A091DE06B091DF0626B591
:10433000A89B05C02F3F19F00196A11DB11D3FBFDD
:10434000BA2FA92F982F8827820F911DA11DB11D6B
:10435000BC01CD0142E0660F771F881F991F4A9567
:10436000D1F708958F929F92AF92BF92CF92DF9232
:10437000EF92FF926B017C010E948D214B015C0149
:10438000C114D104E104F10401F10E9432280E9419
:104390008D21DC01CB0188199909AA09BB09883E46
:1043A0009340A105B10560F321E0C21AD108E108EC
:1043B000F10888EE880E83E0981EA11CB11CC11480
:1043C000D104E104F10419F7DBCFFF90EF90DF9007
:1043D000CF90BF90AF909F908F900895789484B5C0
:1043E000826084BD84B5816084BD85B5826085BDF1
:1043F00085B5816085BDEEE6F0E0808181608083D7
:10440000E1E8F0E0108280818260808380818160B9
:104410008083E0E8F0E0808181608083E1EBF0E080
:10442000808184608083E0EBF0E080818160808324
:10443000EAE7F0E08081846080838081826080830D
:104440008081816080838081806880831092C10038
:104450000895833081F028F4813099F08230A1F002
:1044600008958730A9F08830B9F08430D1F4809174
:1044700080008F7D03C0809180008F7780938000C3
:10448000089584B58F7702C084B58F7D84BD08956B
:104490008091B0008F7703C08091B0008F7D8093B2
:1044A000B0000895CF93DF9390E0FC01E551F74F02
:1044B0002491FC01E150F74F8491882361F190E051
:1044C000880F991FFC01E95DF64FC591D491FC015D
:1044D000E35EF64FA591B491611109C09FB7F894BE
:1044E0008881209582238883EC912E230BC0623033
:1044F00061F49FB7F8943881822F80958323888355
:10450000EC912E2B2C939FBF06C08FB7F894E881B7
:104510002E2B28838FBFDF91CF9108951F93CF93C8
:10452000DF93282F30E0F901E952F74F8491F90128
:10453000E551F74FD491F901E150F74FC491CC23E5
:10454000C9F0162F81110E942922EC2FF0E0EE0F06
:10455000FF1FE35EF64FA591B4918FB7F894111148
:1045600005C09C91ED2FE095E92302C0EC91ED2B65
:10457000EC938FBFDF91CF911F910895CF93DF937D
:10458000282F30E0F901E952F74F8491F901E55104
:10459000F74FD491F901E150F74FC491CC2391F03A
:1045A00081110E942922EC2FF0E0EE0FFF1FED5E3B
:1045B000F64FA591B491EC91ED2381E090E021F4C8
:1045C00080E002C080E090E0DF91CF910895CF932A
:1045D000CFB7F8948091E006811127C0E9E0F9E0B7
:1045E0008491E5EFF8E09491E82FF0E0EE0FFF1FE3
:1045F000E95DF64FA591B491EC91E92321F461E0D6
:104600008AE00E948E2261E08AE00E9452228CB5EC
:1046100080618CBD8CB580648CBD61E08DE00E94B2
:10462000522261E08BE00E9452228091E0068F5F6F
:104630008093E006CFBFCF9108958091110790E05D
:1046400020911207821B9109089590911207809181
:104650001107981750F4E92FF0E0ED5EF84F208134
:1046600030E09F5F9093120702C02FEF3FEFC90128
:104670000895E091120780911107E81730F4F0E0F7
:10468000ED5EF84F808190E008958FEF9FEF0895E1
:104690000895CF92DF92EF92FF920F931F93CF93E3
:1046A000DF937C01262F972F8A018091ED068823C6
:1046B00091F0C62FD72F6E01C40ED51ECC15DD0587
:1046C00071F06991D701ED91FC910190F081E02D9D
:1046D000C7010995F3CF642F822F0E945C24C80183
:1046E000DF91CF911F910F91FF90EF90DF90CF90CE
:1046F0000895CF93DF931F92CDB7DEB769832091E2
:10470000ED062223D1F02091EE06203240F021E088
:1047100030E0FC013383228380E090E015C080917B
:10472000EF06E82FF0E0E051F94F998190838F5F19
:104730008093EF068093EE0605C061E0CE010196FE
:104740000E945C2481E090E00F90DF91CF9108956A
:10475000FC011382128288EE93E0A0E0B0E0848333
:104760009583A683B7838DEF95E091838083089529
:1047700010921207109211071092EF061092EE0697
:104780000C94E82381E08093ED066093100710926B
:10479000EF061092EE0608950C94C2230F93062F95
:1047A00021E04091EE0660EF76E0809110070E94D4
:1047B00006241092EF061092EE061092ED060F916D
:1047C000089561E00C94CE2381EE96E00C94A8232A
:1047D0001092A00781E080939E0710929D0761E0F0
:1047E00082E10E948E2261E083E10E948E22E9EB49
:1047F000F0E080818E7F808380818D7F808388E45C
:104800008093B80085E48093BC0008950F934132F3
:1048100008F04AC09091A0079111FCCF32E030938C
:10482000A00700939E073FEF30933307109278075D
:1048300040937707FB0169E777E0DB013A2F361BEE
:10484000341718F431913D93F9CF10929F073091AE
:104850009F07880F832B80939F0780919D0781304E
:1048600061F410929D0780919F078093BB00809117
:10487000BC0083FDF8CF85EC01C085EE8093BC00C1
:10488000222321F08091A0078230D1F38091330759
:104890008F3F79F080913307803241F08091330768
:1048A000803331F094E005C091E003C092E001C094
:1048B00093E0892F0F91089540915507262F30E0FE
:1048C000240F311D21323105DCF42091A007243062
:1048D000C9F4FC0180E090E0861758F43091550748
:1048E0002191DC01A95AB84FA30FB11D2C93019659
:1048F000F3CF80915507680F6093550780E00895C6
:1049000081E0089582E0089585ED8093BC00809158
:10491000BC0084FDFCCF1092A007089585EC809325
:10492000BC001092A00708951F920F920FB60F922D
:1049300011242F933F934F935F936F937F938F93A4
:104940009F93AF93BF93EF93FF938091B900887FBC
:10495000803609F49EC078F5883209F45DC090F481
:10496000803109F456C038F4882309F4F5C0883042
:1049700009F44FC0F5C0883109F44EC0803209F403
:104980005FC0EEC0803409F46AC058F4803309F483
:1049900057C0883309F0E4C0809333070E948E2407
:1049A000DFC0803509F44FC0883509F45DC0883414
:1049B00009F0D6C0D3C0883909F4C4C0A8F4883738
:1049C00009F467C038F4883609F463C0803709F405
:1049D00060C0C6C0883809F4B5C0803909F45FC02A
:1049E000803809F0BDC05BC0803B09F483C038F457
:1049F000803A09F466C0883A09F47CC0B1C0803CB2
:104A000009F4A4C0883C09F4A1C0883B09F487C01C
:104A1000A7C080919F0710C0909178078091770779
:104A2000981770F5E091780781E08E0F80937807F2
:104A3000F0E0E758F84F80818093BB0085EC83C09D
:104A4000809333078BC0E091780781E08E0F8093CD
:104A500078078091BB00F0E0E758F84F8083909191
:104A60007807809177076BC0E091780781E08E0F1F
:104A7000809378078091BB00F0E0E758F84F80837F
:104A800080919E0781116AC081E080939D0784EA2E
:104A90005EC083E08093A00710923407CFCF80914F
:104AA0003407803208F04EC0E091340781E08E0F69
:104AB000809334078091BB00F0E0EB5CF84F80837B
:104AC000BDCF0E948E2480913407803230F4E09173
:104AD0003407F0E0EB5CF84F10826091340770E02F
:104AE000E0919907F0919A0785E397E00995109274
:104AF000340736C084E08093A007109256071092C6
:104B00005507E0919B07F0919C0709958091550707
:104B1000811105C081E08093550710925707E091FD
:104B2000560781E08E0F80935607F0E0E95AF84F60
:104B300080818093BB00909156078091550798170C
:104B400008F47CCF85E88093BC000AC085EC809394
:104B5000BC001092A00704C0109233070E94842466
:104B6000FF91EF91BF91AF919F918F917F916F9145
:104B70005F914F913F912F910F900FBE0F901F901B
:104B800018952091E3073091E40728173907B9F405
:104B90009091A1078091A207981789F0E091A10751
:104BA000F0E0ED55F84F80812091A10730E02F5FB4
:104BB0003F4F2F7333272093A10790E008958FEF85
:104BC0009FEF08951F93CF93DF93DC015C962D91A7
:104BD0003C915D972115310539F481E090E0139601
:104BE0009C938E9312973DC05196ED91FC915297F4
:104BF00050969C915097892F80951FB75E964C9147
:104C00005E9741FB772770F941FD6095F8944081EC
:104C1000772311F0492B01C048234083E9012197F4
:104C2000F1F748E0508160FF02C0592B01C05823C2
:104C30005083E9012197F1F76695415099F7772361
:104C400021F090818923808303C08081982B9083F9
:104C50001FBF5C968D919C915D970197F1F721E0C4
:104C600030E0C901DF91CF911F91089508952091FF
:104C7000E3073091E4072817390771F49091A107F1
:104C80008091A207981741F0E091A107F0E0ED555F
:104C9000F84F808190E008958FEF9FEF0895209165
:104CA000E3073091E4072817390771F48091A207D0
:104CB0002091A10790E0805C9F4F821B910960E4E6
:104CC00070E00E943328089580E090E00895E0911C
:104CD000E307F091E407E817F90769F4A389B489B9
:104CE0009C918589809589238C931092E40710927A
:104CF000E30781E0089580E00895CF93DF93EC010E
:104D00008A8D9B8D892BF1F08091E3079091E407C8
:104D10008C179D07B9F0009711F00E9467268E8DC1
:104D20008E7F8E8F1092A2071092A107D093E40776
:104D3000C093E307EB89FC8990818D89892B80835F
:104D400081E001C080E0DF91CF9108951F920F9222
:104D50000FB60F9211242F933F934F935F936F934E
:104D60007F938F939F93AF93BF93EF93FF93E091C4
:104D7000E307F091E407309709F451C0968DA685BA
:104D8000B785858591FF04C09C91892329F447C08C
:104D90009C91892309F043C0A389B4899C9185899A
:104DA000809589238C93868997890197F1F7608D87
:104DB000718DA685B785558538E020E0CB01019738
:104DC000F1F7822F90E095958795282F4C914523F8
:104DD00009F02068315091F7868D81FD20958091F2
:104DE000A20790E001968F7399273091A107381799
:104DF00049F0A091A207B0E0AD55B84F2C93809335
:104E0000A20703C0868D8160868F828D938D019766
:104E1000F1F7A389B4899C918589892B8C93FF91A3
:104E2000EF91BF91AF919F918F917F916F915F9122
:104E30004F913F912F910F900FBE0F901F9018959B
:104E40002DE036E0FC01318320830C9467261F930C
:104E5000CF93DF93EC01162F6E8D6695617081E024
:104E60006827812F0E948E2261E0812F0E945222AA
:104E7000612F70E0FB01E551F74FE491E88BFB01F6
:104E8000E150F74FE491F0E0EE0FFF1FE35EF64FC5
:104E9000859194919A8B898BDF91CF911F91089581
:104EA0001F93CF93DF93EC01162F60E0812F0E94B8
:104EB00052228E8D81FD04C061E0812F0E948E22DE
:104EC0001C87612F70E0FB01E551F74FE491ED87FE
:104ED000FB01E150F74FE491F0E0EE0FFF1FED5EB4
:104EE000F64F859194919F878E87DF91CF911F9187
:104EF00008951F93CF93DF93EC01162F1B821A8224
:104F000088EE93E0A0E0B0E08C839D83AE83BF8306
:104F10008DE096E0998388831F8A1E8A198E188EE9
:104F20001B8E1A8E1D8E1C8E8E8D8E7F20FB81F91E
:104F30008E8F642FCE010E942727612FCE01DF9133
:104F4000CF911F910C945027CF93DF93EC019A01DE
:104F5000AB011B8E1A8E198E188E1F8A1E8A60E076
:104F600079E08DE390E00E946928F9012430310551
:104F700018F0C901039702C081E090E09D8F8C8FEB
:104F80006C85663108F069C0C901969587958431B2
:104F9000910510F0439702C081E090E09F8B8E8BCB
:104FA000369718F0C901059702C081E090E0998F0B
:104FB000888FC901880F991F280F391F36952795AB
:104FC000369527952D30310518F02C50310902C047
:104FD00021E030E03B8F2A8F90916800683050F0DC
:104FE00021E06E3008F420E081E001C0880F2A95AE
:104FF000EAF701C084E0892B809368008C858830B3
:1050000038F08E3040F0863148F020E030E008C0C3
:105010002DE630E005C02BE630E002C02CE630E0A3
:105020003C8B2B8B883030F491E001C0990F8A952E
:10503000EAF70EC0282F30E08E3018F428503109DE
:1050400002C02E50310991E001C0990F2A95EAF76C
:105050009D8B8C8D9D8D0197F1F7CE01DF91CF91C6
:105060000C947D26089597FB072E16F4009407D024
:1050700077FD09D00E94992807FC05D03EF4909551
:1050800081959F4F0895709561957F4F0895A1E296
:105090001A2EAA1BBB1BFD010DC0AA1FBB1FEE1FB2
:1050A000FF1FA217B307E407F50720F0A21BB30BFD
:1050B000E40BF50B661F771F881F991F1A9469F779
:1050C00060957095809590959B01AC01BD01CF01D5
:1050D0000895052E97FB1EF400940E94802857FD2A
:1050E00007D00E94472807FC03D04EF40C94802878
:1050F00050954095309521953F4F4F4F5F4F089504
:1051000090958095709561957F4F8F4F9F4F089533
:10511000EE0FFF1F0590F491E02D09940E94AD2839
:10512000A59F900DB49F900DA49F800D911D1124FB
:105130000895AA1BBB1B51E107C0AA1FBB1FA617DE
:10514000B70710F0A61BB70B881F991F5A95A9F730
:1051500080959095BC01CD010895A29FB001B39FA9
:10516000C001A39F700D811D1124911DB29F700D70
:10517000811D1124911D0895CF93DF9382309105F5
:1051800010F482E090E0E091E707F091E80720E07A
:1051900030E0C0E0D0E0309711F1408151814817F4
:1051A0005907C0F04817590761F48281938120970D
:1051B00019F09B838A832BC09093E8078093E707BD
:1051C00026C02115310519F04217530718F49A012A
:1051D000BE01DF01EF010280F381E02DDCCF21155C
:1051E000310509F1281B390B2430310590F4129652
:1051F0008D919C9113976115710521F0FB019383AB
:10520000828304C09093E8078093E707FD013296FC
:1052100044C0FD01E20FF31F8193919322503109A5
:105220002D933C933AC02091E5073091E607232B5C
:1052300041F420910201309103013093E60720935D
:10524000E50720910001309101012115310541F45C
:105250002DB73EB74091040150910501241B350B39
:10526000E091E507F091E607E217F307A0F42E1BA3
:105270003F0B2817390778F0AC014E5F5F4F2417BA
:10528000350748F04E0F5F1F5093E6074093E50740
:105290008193919302C0E0E0F0E0CF01DF91CF91E4
:1052A00008950F931F93CF93DF93009709F48CC059
:1052B000FC013297138212820091E7071091E807F0
:1052C0000115110581F420813181820F931F2091F6
:1052D000E5073091E6072817390779F5F093E607D7
:1052E000E093E50771C0D80140E050E0AE17BF077A
:1052F00050F412962D913C911397AD012115310573
:1053000009F1D901F3CF9D01DA0133832283608152
:105310007181860F971F8217930769F4EC0128812A
:105320003981260F371F2E5F3F4F318320838A81BB
:105330009B8193838283452B29F4F093E807E093C4
:10534000E70742C01396FC93EE931297ED01499143
:1053500059919E01240F351FE217F30771F48081E4
:105360009181840F951F029611969C938E93828152
:10537000938113969C938E931297E0E0F0E0D8010E
:1053800012968D919C911397009719F0F8018C015A
:10539000F6CF8D919C9198012E5F3F4F820F931F06
:1053A0002091E5073091E6072817390769F430970F
:1053B00029F41092E8071092E70702C013821282C4
:1053C0001093E6070093E507DF91CF911F910F91AE
:1053D000089581E090E0F8940C94302AFB01DC0100
:1053E00005900D920020E1F70895FB01DC0141508A
:1053F000504048F005900D920020C9F701C01D9261
:1054000041505040E0F70895FB01DC0101900D92FE
:105410000020E1F70895FB01DC014150504048F0C5
:1054200001900D920020C9F701C01D9241505040DB
:10543000E0F70895F999FECF92BD81BDF89A9927BA
:1054400080B50895262FF999FECF1FBA92BD81BD70
:1054500020BD0FB6F894FA9AF99A0FBE01960895F6
:1054600014E0CBE9D4E004C0FE010E948828219614
:0A547000CC39D107C9F7F894FFCF3B
:10547A000000E90780000100000080841E003C0053
:10548A000200010106010100040001001E00A00043
:10549A000101000103070F1F3F7F0080C0E0F0F801
:1054AA00FCFE0000000000000000000000000000F8
:1054BA0000000000000000000000000000000000E2
:1054CA0000000000000000000000000000000000D2
:1054DA0000000000000000000000000000000000C2
:1054EA000080808000000000000000000000000032
:1054FA000000008080C0C000000000000000000022
:10550A000000000000000000000000000000000091
:10551A000000000000000000000000000000000081
:10552A000000000000000000000000000000000071
:10553A0000000000000080C0E0F0F8FCF8E0000085
:10554A0000000000000000000000000000000080D1
:10555A0080808080008080000000008080808080C1
:10556A0000FFFFFF00000000808080800000808034
:10557A00000080FFFF8080008080008080808000A3
:10558A0080800000000000808000008C8E84000073
:10559A0080F8F8F880000000000000000000000019
:1055AA000000F0F0F0F0F0F0F0F0F0F0F0F0E0E0F1
:1055BA00C08000E0FCFEFFFFFF7FFFFFFFFFFF0050
:1055CA0000000000000000000000000000FEFFC70D
:1055DA000101010183FFFF00007CFEC701010101F7
:1055EA0083FFFFFF0038FEC78301010183C7FFFF66
:1055FA00000001FFFF010100FFFF07010101000098
:10560A007FFF80000000FFFF7F0000FFFFFF000018
:10561A0001FFFFFF01000000000000000000000081
:10562A000000030F3F7F7FFFFFFFFFFFFFFFE7C77A
:10563A00C78F8F9FBFFFFFC3C0F0FFFFFFFFFFFCB5
:10564A00FCFCFCFCFCFCFCF8F8F0F0E0C0000103F8
:10565A000303030301030300000000010303030320
:10566A000101030100000001030303030101030315
:10567A000000000303000000030300000000000014
:10568A0000010303030303010000000103010000FA
:10569A0000030301000000000000000000000000F9
:1056AA00000000000080C0E0F0F9FFFFFFFFFF3FAD
:1056BA001F0F87C7F7FFFF1F1F3DFCF8F8F8F87C9C
:1056CA007DFFFFFFFFFFFFFFFF7F3F0F0700303027
:1056DA0000000000000000000000000000000000C0
:1056EA00000000000000FEFEFC00000000000000B8
:1056FA00000000000000000000000000000000E0C0
:10570A00C00000000000000000000000303000006F
:10571A00000000000000000000000000000000007F
:10572A00000000C0FEFFFFFFFFFFFFFFFFFF7F7FBC
:10573A003F1F0F071F7FFFFFF8F8FFFFFFFFFFFE66
:10574A00F8E0000000010000000000000000FEFE7A
:10575A00000000FCFEFC0C06060EFCF80000F0F847
:10576A001C0E0606060CFFFFFF0000FEFE000000EE
:10577A0000FCFEFC00183C7E66E6CE84000006FFB4
:10578A00FF0606FCFEFC0C0606060000FEFE0000F4
:10579A00C0F8FC4E4646464E7C7840183C76E6CE2B
:1057AA00CC800000000000000000000000000000A3
:1057BA0000000000000001070F1F1F3F3F3F3F1F6F
:1057CA000F030000000000000000000000000F0F9F
:1057DA000000000F0F0F000000000F0F000003076A
:1057EA000E0C18180C060F0F0F0000010F0E0C18E4
:1057FA000C0F070100040E0C180C0F070000000F15
:10580A000F00000F0F0F0000000000000F0F000034
:10581A000007070C0C181C0C060600040E0C180CCA
:10582A000F07000000000000000000000000000058
:10583A00000000000000000000000000000000005E
:10584A00000000000000000000000000000000004E
:10585A00000000000000000000000000000000003E
:10586A00000000000000000000000000000000002E
:10587A00000000000000000000000000000000001E
:10588A00000000000000000000000000000000000E
:10589A0000000000000000000000000000000000FE
:1058AA000000FFC820C8202E000A0A002F0020206E
:1058BA00202020200053544F50000400A40303006A
:1058CA006503030100000201440300030000040110
:1058DA00FF021E0500001E0500001D0500001E0532
:1058EA0000001E0500000205F5020201F502020091
:1058FA00D1021E0D0000040E8C02000F0000FF0FE3
:10590A000000030F7F02060F00001E0D0000020DAB
:10591A00F50204004D02021634020216F5020016C0
:10592A0000000216F50200000000000000008C14BE
:10593A006E1C5C1CCD11E112F81292120E13461362
:10594A006413000000008C146E1CCD17CD116D1667
:10595A000D1592120E13461364130D0A006E616E32
:10596A0000696E66006F76660000000000792349C0
:10597A00231D2325233923482300000000E2256E36
:0A598A001C4F26C1253726362600E3
:00000001FF
