:100000000C949D040C94FF230C9426240C94C5049A
:100010000C94C5040C94C5040C94C5040C94822360
:100020000C94C5040C94C5040C94C5040C94C5042C
:100030000C94C5040C94F81C0C94C5040C94C504D1
:100040000C944D240C94C5040C94E51E0C94171FBD
:100050000C94C5040C94C5040C94C5040C94C504FC
:100060000C949E270C94C5049C089008E208900804
:1000700053098509DA090C0A320A90089008900899
:10008000640A90088A0AFB0A90081E0B3E0B90082F
:100090009008900890086C0B9008B80B4E0E700EEC
:1000A0008A0E970EB40EE70E0F0F190F2D0F450E87
:1000B000690F930FB20FE20FF50FFF0F4B107E1079
:1000C0009710C310DD10E7101C1165117C119711FA
:1000D000A5117553004369636C6F204D61783A0038
:1000E0007553004369636C6F204D696E3A00755318
:1000F000004369636C6F204163743A005665727304
:10010000696F6E3A0062792057617272696F72008E
:10011000426561744475696E6F002020487A00451D
:100120006C69676520656C20736F6E69646F3A0057
:10013000456C696765206C612063616E63696F6EF1
:100140003A005469706F20436F6D7061733A0020FC
:100150002042504D00456C69676520656C207465D0
:100160006D706F3A004E6F6D6272652063616E63F1
:10017000696F6E3A00456C696765206C6120636148
:100180006E63696F6E3A00426F72726172206361D2
:100190006E63696F6E0043616E63696F6E206120EC
:1001A000696E7365727461723A00496E7365727438
:1001B000617220646573707565732064653A0045EB
:1001C0006C696765206C612063616E63696F6E3A6C
:1001D00000506F736963696F6E2061206564697494
:1001E00061723A00456C696765206C6120706F73BD
:1001F0006963696F6E3A004E6F6D62726520726559
:10020000706572746F72696F3A00456C696765203A
:100210007265706572746F72696F3A00535441521F
:1002200054002042504D0A0A0053544152540020B9
:1002300042504D0A0A0044023A024D6574726F6ED4
:100240006F6D6F005265706572746F72696F007CBC
:10025000026E02620257024D69646920436C6F634B
:100260006B00536F6E69646F205469636B0054694F
:10027000636B7320696775616C6573004D6F646FA4
:10028000008C028A02870231360038003400C40232
:10029000B602A502960243616D6269617220436FE6
:1002A0006D7061730043616D6269617220446976AB
:1002B0006973696F6E0043616D6269617220546594
:1002C0006D706F0043616D62696172204E6F6D6287
:1002D000726500E802D702456C696D696E61722033
:1002E00043616E63696F6E00456469746172204397
:1002F000616E63696F6E00FE02FB025349004E4F50
:1003000000380327031603090356616369617220ED
:100310004F7264656E00456C696D696E6172204351
:10032000616E63696F6E00496E73657274617220ED
:1003300043616E63696F6E0043616D626961722033
:100340004F7264656E0058034A0343616D626961D0
:1003500072204F7264656E0043616D626961722044
:100360004E6F6D62726500930381036D03456C6986
:100370006D696E6172205265706572746F72696F1B
:1003800000456469746172205265706572746F72A1
:10039000696F0043616D62696172205265706572B8
:1003A000746F72696F00C503BB03B303AE03496E7C
:1003B000666F00416A75737465730043616E6369AB
:1003C0006F6E6573005265706572746F72696F73DA
:1003D0000000000000003E5B4F5B3E3E6B4F6B3EFB
:1003E0001C3E7C3E1C183C7E3C181C577D571C1C38
:1003F0005E7F5E1C00183C1800FFE7C3E7FF001893
:10040000241800FFE7DBE7FF30483A060E2629797B
:100410002926407F050507407F05253F5A3CE73CDC
:100420005A7F3E1C1C08081C1C3E7F14227F22148D
:100430005F5F005F5F06097F017F006689956A60E4
:100440006060606094A2FFA29408047E04081020FB
:100450007E201008082A1C08081C2A08081E1010F4
:1004600010100C1E0C1E0C30383E3830060E3E0E9E
:1004700006000000000000005F0000000700070009
:10048000147F147F14242A7F2A12231308646236EF
:10049000495620500008070300001C22410000417B
:1004A000221C002A1C7F1C2A08083E0808008070B5
:1004B00030000808080808000060600020100804E8
:1004C000023E5149453E00427F400072494949463B
:1004D0002141494D331814127F1027454545393CB9
:1004E0004A494931412111090736494949364649A6
:1004F00049291E00001400000040340000000814C8
:100500002241141414141400412214080201590940
:10051000063E415D594E7C1211127C7F4949493695
:100520003E414141227F4141413E7F494949417F0E
:10053000090909013E414151737F0808087F0041C4
:100540007F41002040413F017F081422417F40400D
:1005500040407F021C027F7F0408107F3E414141E2
:100560003E7F090909063E4151215E7F091929464E
:10057000264949493203017F01033F4040403F1F64
:100580002040201F3F4038403F6314081463030499
:100590007804036159494D43007F414141020408F9
:1005A0001020004141417F040201020440404040CC
:1005B00040000307080020545478407F2844443802
:1005C0003844444428384444287F3854545418004C
:1005D000087E090218A4A49C787F080404780044CB
:1005E0007D40002040403D007F1028440000417FB6
:1005F00040007C047804787C08040478384444443F
:1006000038FC1824241818242418FC7C0804040836
:10061000485454542404043F44243C4040207C1C4F
:100620002040201C3C4030403C44281028444C9042
:1006300090907C4464544C4400083641000000779C
:100640000000004136080002010204023C26232675
:100650003C1EA1A161123A4040207A3854545559A9
:1006600021555579412254547842215554784020DF
:10067000545579400C1E52721239555555593954FA
:1006800054545939555454580000457C4100024592
:100690007D420001457C407D1211127DF028252805
:1006A000F07C545545002054547C547C0A097F4901
:1006B00032494949323A4444443A324A4848303A45
:1006C0004141217A3A42402078009DA0A07D3D42E0
:1006D00042423D3D4040403D3C24FF2424487E4969
:1006E00043662B2FFC2F2BFF0929F620C0887E099B
:1006F0000320545479410000447D413048484A3237
:10070000384040227A007A0A0A727D0D19317D261E
:1007100029292F28262929292630484D4020380804
:1007200008080808080808382F10C8ACBA2F102885
:1007300034FA00007B000008142A142222142A1420
:1007400008AA005500AAAA55AA55AA000000FF0051
:10075000101010FF00141414FF001010FF00FF1001
:1007600010F010F0141414FC001414F700FF000033
:10077000FF00FF1414F404FC141417101F10101FB2
:10078000101F1414141F00101010F0000000001FA0
:10079000101010101F10101010F010000000FF10AB
:1007A0001010101010101010FF10000000FF1400A7
:1007B00000FF00FF00001F10170000FC04F41414D9
:1007C0001710171414F404F40000FF00F7141414A5
:1007D00014141414F700F7141414171410101F1025
:1007E0001F141414F4141010F010F000001F101F48
:1007F0000000001F14000000FC140000F010F010B6
:1008000010FF10FF141414FF141010101F0000002C
:1008100000F010FFFFFFFFFFF0F0F0F0F0FFFFFF30
:100820000000000000FFFF0F0F0F0F0F3844443887
:1008300044FC4A4A4A347E02020606027E027E02D6
:1008400063554941633844443C04407E201E2006E1
:10085000027E020299A5E7A5991C2A492A1C4C721E
:1008600001724C304A4D4D303048784830BC625AA5
:10087000463D3E494949007E0101017E2A2A2A2A35
:100880002A44445F444440514A444040444A514011
:100890000000FF0103E080FF000008086B6B0836D2
:1008A00012362436060F090F060000181800000043
:1008B0001010003040FF0101001F01011E00191D32
:1008C0001712003C3C3C3C0000000000566163698C
:1008D0006F00564143494F0002000000080002012A
:1008E00000000304070000000000000000010204F3
:1008F00008102040800102040810200102040810A2
:100900002004040404040404040202020202020398
:100910000303030303000000002300260029000056
:10092000000000250028002B000000000024002704
:10093000002A00004907471FEE2611241FBECFEFF3
:10094000D8E0DEBFCDBF16E0A0E0B1E0ECE8F8E50E
:1009500002C005900D92A831B107D9F728E0A8E1AF
:10096000B6E001C01D92A232B207E1F714E0CDE972
:10097000D4E004C02197FE010E94B02ACA39D107F1
:10098000C9F70E94751F0C94442C0C940000CF935F
:10099000DF9386E00E94C825EC0182E00E94C82512
:1009A000C817D90739F481E090E090932E06809320
:1009B0002D0606C08FEF9FEF90932E0680932D0695
:1009C000DF91CF91089580912F06883108F44CC0B3
:1009D00010922F06809115019091160160911901D6
:1009E00070911A014091170150911801649F900174
:1009F000659F300D749F300D11242817390759F465
:100A000081E090E09093160180931501809112018E
:100A100081110CC02CC00196909316018093150192
:100A200020911201222319F1019781F48091370658
:100A300081110CC020911B0130911C0140E050E05D
:100A40006AEB72E08BE00E94E42011C020911B0150
:100A500030911C0140E050E060911301709114014D
:100A60008BE00E94E42003C08F5F80932F0680916B
:100A70003406882359F0E091A206F091A306019074
:100A8000F081E02D68EF82EA96E0099508951F93C2
:100A9000CF93DF93182FEB010E94C825892B09F013
:100AA00062C09E01220F331F220F331F220F331FFC
:100AB000FE01EE0FFF1FE20FF31FED5AF94F1782F1
:100AC000168213828081811113C0FE01EE0FFF1F79
:100AD000E20FF31FED5AF94F81E0448155812091D7
:100AE0001001309111014217530718F480E001C042
:100AF00080E09E01220F331F220F331F220F331F6E
:100B0000FE01EE0FFF1FE20FF31FED5AF94F828334
:100B100084819581209110013091110182179307F2
:100B200088F0CE01880F991F880F991F880F991F91
:100B3000FE01EE0FFF1FE80FF91FED5AF94F81E09C
:100B4000808311C09E01220F331F220F331F220FFB
:100B5000331FFE01EE0FFF1FE20FF31FED5AF94F97
:100B6000019695838483812F0E94C825019709F0FF
:100B70005BC0CE01880F991F880F991F880F991F9E
:100B8000FE01EE0FFF1FE80FF91FED5AF94F158216
:100B90001482118610861182128220812223C9F0CC
:100BA000CE01880F991F880F991F880F991FFE018A
:100BB000EE0FFF1FE80FF91FED5AF94F21E04681B4
:100BC000578180911001909111014817590708F43D
:100BD00020E0CE01880F991F880F991F880F991F59
:100BE000FE01EE0FFF1FE80FF91FED5AF94F2383A7
:100BF000868197812091100130911101821793070E
:100C000010F010824DC09E01220F331F220F331FA0
:100C1000220F331FFE01EE0FFF1FE20FF31FED5AED
:100C2000F94F019697838683CE01880F991F880F0D
:100C3000991F880F991FFE01EE0FFF1FE80FF91F84
:100C4000ED5AF94F8081882359F1CE01880F991F01
:100C5000880F991F880F991FFE01EE0FFF1FE80FE5
:100C6000F91FED5AF94F808591850196918780870C
:100C700020910E0130910F018217930719F481E042
:100C800081830EC0CE01880F991FCC0FDD1FCC0FC2
:100C9000DD1FCC0FDD1FC80FD91FCD5AD94F1982C8
:100CA000DF91CF911F910895CF93DF938091350607
:100CB0000E94D71BEC01BC018DE396E00E94182C2A
:100CC000CE010E94652BDF91CF910895FF920F9383
:100CD0001F93CF93DF9360913606809135060E9473
:100CE0004E1CF82E0E94121C8C01BC0186E496E07A
:100CF0000E94182CC8010E94652B8F2D0E945E1C3B
:100D0000C6E4D6E08A878F2D0E94661C8B878F2DC4
:100D10000E94711C8C87DF91CF911F910F91FF90E2
:100D200008958BEF91E00E942E2C8F3F11F080935D
:100D300020018CEF91E00E942E2C8F3F31F091E04A
:100D4000811101C090E0909337068DEF91E00E94F1
:100D50002E2C8F3F31F091E0811101C090E09093F3
:100D6000340608950FB6F894A895809160008861C4
:100D700080936000109260000FBE62E082E00E94EB
:100D80005C2562E086E00E945C2562E085E00E94CE
:100D90005C2562E083E00E945C2562E087E00E94BF
:100DA0005C2561E08BE00E945C2561E08DE00E94A3
:100DB0005C2561E084E00E945C2541E050E067EC46
:100DC00074E080E00E94DF2321E04DE362E081E7F0
:100DD00096E00E94DC1926E042E15AE760E070E00C
:100DE00082EA96E00E94851E81E796E00E946819DB
:100DF00061E081E796E00E94B31561E070E081E771
:100E000096E00E94B91520911D0130911E0140E02D
:100E100050E060E67AEE80E090E00E94912ACA01FC
:100E2000B9010E94762920E030E040EC51E40E94B4
:100E3000CC2820E030E04AE754E40E94022A609384
:100E400030067093310680933206909333060E94E9
:100E50003E29AB01BC018CE996E00E94901D2FEF6A
:100E60003FEFA90163EE74E08CE996E00E94A11DBA
:100E70009FE088E10FB6F894A895809360000FBEBC
:100E8000909360000E9491060E9454060E9466069C
:100E9000089564E081E796E00E944F190895EF926B
:100EA000FF920F931F93CF93DF93CDB7DEB76E976B
:100EB0000FB6F894DEBF0FBECDBF80913C068823ED
:100EC00021F0813009F413C11EC5809120018823CF
:100ED00021F0813009F4A3C016C581E796E00E9495
:100EE000681940E050E060E070E081E796E00E9421
:100EF000AD1540E050E061E070E081E796E00E94CF
:100F0000BF156091350670E06F5F7F4F4AE050E09B
:100F100081E796E00E94AC2066E375E081E796E009
:100F20000E94E81F6DE376E081E796E00E94E81FEB
:100F300069E375E081E796E00E94E81F609136065C
:100F400070E06F5F7F4F4AE050E081E796E00E94DB
:100F5000AC2066E375E081E796E00E94E81F66E456
:100F600076E081E796E00E94E81F68E375E081E79C
:100F700096E00E94E81F62E081E796E00E94B315C8
:100F800060911D0170911E014AE050E081E796E0FA
:100F90000E94DE206FE272E081E796E00E94C41FAB
:100FA00061E081E796E00E94B315609117017091AE
:100FB00018014AE050E081E796E00E94DE206BE3F2
:100FC00075E081E796E00E94E81F60911901709139
:100FD0001A01660F771F660F771F4AE050E081E71E
:100FE00096E00E94DE206DE375E081E796E00E94C6
:100FF000E81F80911201882339F069E272E081E7ED
:1010000096E00E94C41F06C064E475E081E796E0A4
:101010000E94E81F81E796E00E941A1B74C481E7D2
:1010200096E00E94681940E050E060E070E081E7DF
:1010300096E00E94AD1540E050E061E070E081E78D
:1010400096E00E94BF1562E081E796E00E94B3152A
:1010500060911D0170911E014AE050E081E796E029
:101060000E94DE2062E272E081E796E00E94C41FE7
:1010700061E081E796E00E94B315609117017091DD
:1010800018014AE050E081E796E00E94DE206BE321
:1010900075E081E796E00E94E81F60911901709168
:1010A0001A01660F771F660F771F4AE050E081E74D
:1010B00096E00E94DE206DE375E081E796E00E94F5
:1010C000E81F80911201882339F06CE172E081E71A
:1010D00096E00E94C41F06C064E475E081E796E0D4
:1010E0000E94E81F81E796E00E941A1B0CC481E76A
:1010F00096E00E94681940E050E060E070E081E70F
:1011000096E00E94AD1520912C06822F90E0FC0104
:101110003297EA31F10520F4EC5CFF4F0C94B02AD1
:10112000E22FF0E0EE0FFF1FEE0FFF1FE75BFA4F1D
:10113000808181119CC3E3C340E050E061E070E036
:1011400081E796E00E94BF156AE072E081E796E0D1
:101150000E94F51F00E010E080912B0690E08017C0
:10116000910749F441E050E060E070E081E796E0EB
:101170000E94BF1508C040E050E061E070E081E7E8
:1011800096E00E94BF15802F0E94D71B7C010F5F45
:101190001F4F4AE050E0B80181E796E00E94AC2082
:1011A00066E375E081E796E00E94E81FB70181E7FA
:1011B00096E00E940720C7010E94652B03301105AD
:1011C00059F69DC340E050E061E070E081E796E0B1
:1011D0000E94BF1567EF71E081E796E00E94F51F5E
:1011E00080912D0690912E06181619063CF58091D7
:1011F0002A06E0912806F0912906E80FF11D80816A
:10120000811102C080E2808380912A06E091280645
:10121000F0912906E80FF11D80818A3711F488EDDD
:10122000808380912A06E0912806F0912906E80F34
:10123000F11D80818A3710F48F5F808380912D06A5
:1012400090912E06992394F480912A06E091280625
:10125000F0912906E80FF11D8081883D19F48AE795
:10126000808304C0813210F0815080836091280611
:101270007091290681E796E00E94072080912A0656
:1012800090E0BC01660F771F680F791F660F771F0C
:1012900001E010E026E030E04FE050E081E796E02A
:1012A0000E94D0152CC364EE71E081E796E00E94A5
:1012B000F51F40E050E061E070E081E796E00E94B9
:1012C000BF1560912B06809135060E944E1C0E942E
:1012D000121C8C0190912B06692F70E06F5F7F4F7D
:1012E0004AE050E081E796E00E94AC2066E375E0BA
:1012F00081E796E00E94E81FB80181E796E00E942E
:101300000720C8010E94652BFAC261ED71E081E7F8
:1013100096E00E94F51F60912706809135060E9495
:101320004E1C0E94121C8C0190912706692F70E0C0
:101330006F5F7F4F4AE050E081E796E00E94AC206B
:1013400066E375E081E796E00E94E81FB80181E757
:1013500096E00E94072069E375E081E796E00E942D
:1013600007206FEB71E081E796E00E94F51FC8014E
:101370000E94652B80912B060E94121C8C0190917B
:101380002706692F70E06F5F7F4F4AE050E081E7EA
:1013900096E00E94AC2066E375E081E796E00E944B
:1013A000E81FB80181E796E00E940720C8010E946B
:1013B000652BA5C26AEA71E081E796E00E94F51FFD
:1013C00040E050E061E070E081E796E00E94BF15E8
:1013D00060912B06809135060E944E1C0E94121CC3
:1013E0008C0190912B06692F70E06F5F7F4F4AE070
:1013F00050E081E796E00E94AC2066E375E081E76B
:1014000096E00E94E81FB80181E796E00E9407205D
:10141000C8010E94652B73C266E971E081E796E01E
:101420000E94F51F80912B060E94121C8C01909146
:101430002706692F70E06E5F7F4F4AE050E081E73A
:1014400096E00E94AC2066E375E081E796E00E949A
:10145000E81FB80181E796E00E940720C8010E94BA
:10146000652B4DC267E871E081E796E00E94F51FA9
:1014700040E050E061E070E081E796E00E94BF1537
:1014800060912B06809135060E944E1C0E94121C12
:101490008C0190912B06692F70E06F5F7F4F4AE0BF
:1014A00050E081E796E00E94AC2066E375E081E7BA
:1014B00096E00E94E81FB80181E796E00E940720AD
:1014C000C8010E94652B1BC265E771E081E796E0C9
:1014D0000E94F51F80912B060E94121C8C01909196
:1014E0002B06692F70E06F5F7F4F4AE050E081E785
:1014F00096E00E94AC2066E375E081E796E00E94EA
:10150000E81FB80181E796E00E940720C8010E9409
:10151000652BF5C140E050E061E070E081E796E0C6
:101520000E94BF1565E671E081E796E00E94F51F15
:1015300080912D0690912E06181619063CF5809183
:101540002A06E0912806F0912906E80FF11D808116
:10155000811102C080E2808380912A06E0912806F2
:10156000F0912906E80FF11D80818A3711F488ED8A
:10157000808380912A06E0912806F0912906E80FE1
:10158000F11D80818A3710F48F5F808380912D0652
:1015900090912E06992394F480912A06E0912806D2
:1015A000F0912906E80FF11D8081883D19F48AE742
:1015B000808304C0813210F08150808360912806BE
:1015C0007091290681E796E00E94072080912A0603
:1015D00090E0BC01660F771F680F791F660F771FB9
:1015E00001E010E026E030E04FE050E081E796E0D7
:1015F0000E94D01584C140E050E061E070E081E7D6
:1016000096E00E94BF1565E571E081E796E00E94D3
:10161000F51F69E375E081E796E00E9407204AE044
:1016200050E060912B0681E796E00E94D7206FE49E
:1016300071E081E796E00E94F51F61C140E050E053
:1016400061E070E081E796E00E94BF1562E471E01E
:1016500081E796E00E94F51F69E375E081E796E077
:101660000E94072060912B0670E06E5F7F4F4AE07A
:1016700050E081E796E00E94B32041C140E050E095
:1016800061E070E081E796E00E94BF1560E371E0E1
:1016900081E796E00E94F51F80912B060E94121CA4
:1016A0008C0190912B06692F70E06F5F7F4F4AE0AD
:1016B00050E081E796E00E94AC2066E375E081E7A8
:1016C00096E00E94E81FB80181E796E00E9407209B
:1016D000C8010E94652B13C180912D0690912E06A2
:1016E000181619066CF4809125069091260601962D
:1016F00090932606809325069093140180931301FE
:1017000080912D0690912E0699236CF480912506E8
:101710009091260601979093260680932506909334
:1017200014018093130140E050E061E070E081E734
:1017300096E00E94BF156FE171E081E796E00E949C
:10174000F51F69E375E081E796E00E94072060914C
:101750002506709126064AE050E081E796E00E9457
:10176000AC206AE171E081E796E00E94F51FC7C0F6
:1017700040E050E061E070E081E796E00E94BF1534
:1017800060E171E081E796E00E94F51F65E071E09D
:1017900081E796E00E94F51F6CEF70E081E796E02C
:1017A0000E94C41F4AE050E061E070E081E796E0EB
:1017B0000E94AC2066E375E081E796E00E94E81F96
:1017C0004AE050E060E070E081E796E00E94B320DC
:1017D00061EF70E081E796E00E94C41F40911C0613
:1017E00050911D0660911E0670911F062AE030E0A0
:1017F00081E796E00E94CA206EEE70E081E796E0F5
:101800000E94F51F63EE70E081E796E00E94C41F1E
:1018100040910A0150910B0160910C0170910D01F2
:101820002AE030E081E796E00E94CA2060EE70E096
:1018300081E796E00E94F51F65ED70E081E796E094
:101840000E94C41F409118065091190660911A0613
:1018500070911B062AE030E081E796E00E94CA20E2
:1018600062ED70E081E796E00E94F51F48C000E05D
:1018700010E080912B0690E08017910749F441E039
:1018800050E060E070E081E796E00E94BF1508C07C
:1018900040E050E061E070E081E796E00E94BF1513
:1018A000E0912C06F0E0EE0FFF1FEE0FFF1FE75B4D
:1018B000FA4FC801880F991F0280F381E02DE80FCD
:1018C000F91F65917491CE0101960E94022CBE0110
:1018D0006F5F7F4F81E796E00E9407200F5F1F4FE9
:1018E000E0912C06F0E0EE0FFF1FEE0FFF1FE75B0D
:1018F000FA4F808190E0081719070CF4BACF81E7FE
:1019000096E00E941A1B6E960FB6F894DEBF0FBECB
:10191000CDBFDF91CF911F910F91FF90EF90089570
:101920000F931F93CF93DF93CDB7DEB72A970FB6F0
:10193000F894DEBF0FBECDBF0E94972460932006AF
:1019400070932106809322069093230660E070E056
:1019500085E090E00E94470561E070E083E090E060
:101960000E94470562E070E087E090E00E94470532
:1019700080915F06882351F180913C068130A1F46B
:10198000E0912C06E11103C010923C0614C0F0E077
:10199000EE0FFF1FEE0FFF1FE75BFA4F8181809371
:1019A0002C0610922B0607C081E080933C06109213
:1019B0002B0610922C0681E080931F0180913C063B
:1019C000882361F0813009F408C1E1C480913C06AC
:1019D000882321F0813009F400C1D5C48091200111
:1019E000882321F0813009F44BC0CDC480912D06AD
:1019F00090912E06181619062CF4809136068D311A
:101A000008F41BC580912D0690912E06992324F48D
:101A100080913606811145C5E6E4F6E02285822FE5
:101A200090E090931E0180931D01838590E0909338
:101A30001A0180931901848590E090931801809396
:101A4000170130E040E050E060E67AEE80E090E0A0
:101A50000E94912A209338063093390640933A0623
:101A600050933B0680915506882309F48CC48091DD
:101A7000120191E089278093120190931F0187C47E
:101A800080912D0690912E06181619060CF03FC075
:101A900080911D0190911E018F3F910528F40196C0
:101AA00090931E0180931D0120911D0130911E0114
:101AB00040E050E060E67AEE80E090E00E94912AFB
:101AC000CA01B9010E94762920E030E040EC51E4DF
:101AD0000E94CC2820E030E04AE754E40E94022A29
:101AE00060933006709331068093320690933306EC
:101AF0000E943E29AB01BC018CE996E00E941F1DAB
:101B000010922E0610922D0681E080931F01809185
:101B10002D0690912E069923F4F580911D01909148
:101B20001E01009729F0019790931E0180931D01DB
:101B300020911D0130911E0140E050E060E67AEEF8
:101B400080E090E00E94912ACA01B9010E947629A2
:101B500020E030E040EC51E40E94CC2820E030E06E
:101B60004AE754E40E94022A6093300670933106DB
:101B700080933206909333060E943E29AB01BC014C
:101B80008CE996E00E941F1D10922E0610922D06E1
:101B900081E080931F0120911D0130911E0140E0E2
:101BA00050E060E67AEE80E090E00E94912A209377
:101BB00038063093390640933A0650933B0680919D
:101BC0005506882309F4DFC38091120191E089272B
:101BD0008093120190931F01DAC380912D0690919A
:101BE0002E0618161906E4F420912B06422F50E019
:101BF000E0912C06F0E0EE0FFF1FEE0FFF1FE75BFA
:101C0000FA4F808190E001974817590724F42F5F1D
:101C100020932B0602C010922B0681E080931F01B7
:101C200080912D0690912E069923ECF480912B063D
:101C3000882321F0815080932B060DC0E0912C0663
:101C4000F0E0EE0FFF1FEE0FFF1FE75BFA4F808102
:101C5000815080932B0681E080931F01809169065B
:101C6000811106C094C380916906882309F48BC34F
:101C7000E0912C068E2F90E08B31910508F07FC308
:101C8000FC01E25BFF4F0C94B02A60912706862F7F
:101C900090E001964D970CF4EAC001C180912B06AB
:101CA000813061F028F0823079F0833099F067C399
:101CB00010922B0681E080932C0661C310922B06B4
:101CC0008DE080932C065BC310922B0686E18093F7
:101CD0002C0655C310922B068BE180932C064FC324
:101CE00080912B06813051F018F0823069F047C3A3
:101CF00010922B0682E080932C0641C310922B0693
:101D000083E080932C063BC310922B068CE08093DB
:101D10002C0635C380912B0680933506109236062B
:101D20000E9454060E94660610923C0628C38091C9
:101D30002B06882319F0813089F021C310922B06DD
:101D400084E080932C06809135060E94D71B9093E7
:101D500029068093280610922A0611C310922B069A
:101D600085E080932C060BC380912A06E09128061B
:101D7000F0912906E80FF11D9081983DF9F4108249
:101D80006091280670912906809135060E948D1C6D
:101D900080912806909129060E94652BE0912C06DF
:101DA00084E0E89FF0011124E75BFA4F8181809382
:101DB0002C0610922B060E945406E1C2883020F4B3
:101DC0008F5F80932A06DBC210922A06D8C28091C8
:101DD0002B06813071F028F0823099F08330C9F001
:101DE000CEC210922B0686E080932C061092270616
:101DF000C6C210922B0688E080932C06109227060C
:101E0000BEC210922B068AE080932C061092270601
:101E1000B6C210922B068BE080932C06B0C2809144
:101E20002B068093270610922B0687E080932C06C2
:101E3000A6C240912B0660912706809135060E942C
:101E4000B01C8091270680932B061092270686E00F
:101E500080932C060E94660692C280912B06809386
:101E6000270610922B0689E080932C0688C20DE18C
:101E700010E06FEF600F809135060E944E1C482FD6
:101E8000602F809135060E94B01C015011096091AD
:101E90002706862F90E001968017910754F36F5F15
:101EA00040912B06809135060E94B01C10922B06A3
:101EB00010922706E0912C06F0E0EE0FFF1FEE0FC8
:101EC000FF1FE75BFA4F818180932C060E94660614
:101ED00056C200912B0610E00D3111058CF461E023
:101EE000600F809135060E944E1C482F602F809114
:101EF00035060E94B01C0F5F1F4F0D31110579F799
:101F000010922B0610922706E0912C06F0E0EE0FBF
:101F1000FF1FEE0FFF1FE75BFA4F818180932C06B6
:101F20000E9466062CC280912B06813051F410E08D
:101F30004FEF612F809135060E94B01C1F5F1E314C
:101F4000B9F710922B06E0912C06F0E0EE0FFF1F80
:101F5000EE0FFF1FE75BFA4F818180932C060E94F2
:101F600066060DC280912B06813051F410E04FEFD0
:101F7000612F809135060E94B01C1F5F1E31B9F79A
:101F80008FEF898348E050E0BE016F5F7F4FCB0148
:101F90000E941F2CBE016F5F7F4F809135060E940B
:101FA0008D1C10922B06E0912C06F0E0EE0FFF1F27
:101FB000EE0FFF1FE75BFA4F818180932C060E9492
:101FC0005406DDC180912B06882319F0813039F049
:101FD000D6C110922B068EE080932C06D0C11092B1
:101FE0002B0684E180932C06CAC180912B06809336
:101FF000240610922B068FE080932C06C0C180919E
:102000002B068130A1F028F08230E9F08330B1F165
:10201000B6C110922B0680E180932C068091240695
:102020000E94121C9093290680932806A8C181E182
:1020300080932C06809124060E945E1C80932706C4
:1020400080932B069CC182E180932C06809124060C
:102050000E94661C80932706823041F0843051F044
:10206000813009F08CC110922B0689C181E08093E8
:102070002B0685C182E080932B0681C183E180938A
:102080002C06809124060E94711C809327068250A2
:1020900080932B0674C180912A06E0912806F09166
:1020A0002906E80FF11D9081983DF9F410826091A6
:1020B000280670912906809124060E94BF1C8091F9
:1020C0002806909129060E94652B10922B06E0911C
:1020D0002C0684E0E89FF0011124E75BFA4F818130
:1020E00080932C060E9466064AC18A3020F48F5FD6
:1020F00080932A0644C110922A0641C160912B06A2
:10210000809124060E94E01C10922B061092270654
:10211000E0912C06F0E0EE0FFF1FEE0FFF1FE75BD4
:10212000FA4F818180932C060E94660628C1809117
:102130002B06813051F018F0823069F011C061E057
:10214000809124060E94E81C0BC062E08091240666
:102150000E94E81C05C064E0809124060E94E81CEF
:102160001092270610922B06E0912C06F0E0EE0F5D
:10217000FF1FEE0FFF1FE75BFA4F818180932C0654
:102180000E946606FCC060912B066E5F809124065B
:102190000E94F01C1092270610922B06E0912C064C
:1021A000F0E0EE0FFF1FEE0FFF1FE75BFA4F81819C
:1021B00080932C060E946606E2C080912B068093D5
:1021C000240610922B0685E180932C06D8C08091BE
:1021D0002B06813001F58FEF89834AE050E0BE0184
:1021E0006F5F7F4FCB010E941F2CBE016F5F7F4F3F
:1021F000809124060E94BF1C6FEF809124060E94EC
:10220000E01C6FEF809124060E94E81C6FEF809124
:1022100024060E94F01C10922B06E0912C06F0E0A0
:10222000EE0FFF1FEE0FFF1FE75BFA4F81818093D8
:102230002C060E946606A3C080912B068130B9F05F
:1022400028F0823029F1833079F199C08BEF91E049
:102250000E942E2C809327068F3F19F080932B0627
:1022600002C010922B0687E180932C0688C08CEF69
:1022700091E00E942E2C809327068F3F19F08093C7
:102280002B0602C010922B0688E180932C0677C0A3
:102290008091130190911401909326068093250656
:1022A00089E180932C066BC08DEF91E00E942E2C6B
:1022B000809327068F3F19F080932B0602C010925F
:1022C0002B068AE180932C065AC060912B066093FE
:1022D00020018BEF91E00E947C1C10922B06E09174
:1022E0002C06F0E0EE0FFF1FEE0FFF1FE75BFA4F2B
:1022F000818180932C0643C061E080912B0681117F
:1023000001C060E0609337068CEF91E00E947C1C76
:1023100010922B06E0912C06F0E0EE0FFF1FEE0F5F
:10232000FF1FE75BFA4F818180932C0628C08091C4
:102330002506909126069093140180931301109224
:102340002B0686E180932C061AC061E080912B0653
:10235000811101C060E0609334068DEF91E00E942E
:102360007C1C10922B06E0912C06F0E0EE0FFF1F74
:10237000EE0FFF1FE75BFA4F818180932C0681E00F
:1023800080931F0104C080911F01882321F00E94C7
:102390004F0710921F010E94972400912006109170
:1023A00021062091220630912306DC01CB01801BFF
:1023B000910BA20BB30B80931C0690931D06A09368
:1023C0001E06B0931F060091180610911906209161
:1023D0001A0630911B06081719072A073B0740F415
:1023E0008093180690931906A0931A06B0931B06C3
:1023F00000910A0110910B0120910C0130910D0107
:1024000080179107A207B30740F480930A019093C5
:102410000B01A0930C01B0930D0186E00E94C8252A
:102420008C0182E00E94C8250817190721F4109238
:102430002E0610922D06A89568C08F5F80933606F1
:102440000E9466062091500630E040E050E060E6D1
:102450007AEE80E090E00E94912ACA01B9010E94C0
:10246000762920E030E040EC51E40E94CC2820E0C6
:1024700030E04AE754E40E94022A609330067093E9
:10248000310680933206909333060E943E29AB01B9
:10249000BC018CE996E00E941F1D81E080931F0122
:1024A000B1CA8150809336060E946606209150067C
:1024B00030E040E050E060E67AEE80E090E00E949C
:1024C000912ACA01B9010E94762920E030E040EC4F
:1024D00051E40E94CC2820E030E04AE754E40E9416
:1024E000022A6093300670933106809332069093EF
:1024F00033060E943E29AB01BC018CE996E00E94A4
:102500001F1D81E080931F0187CA2A960FB6F89499
:10251000DEBF0FBECDBFDF91CF911F910F91089508
:102520002F923F924F925F926F927F928F929F92E3
:10253000AF92BF92CF92DF92EF92FF920F931F93D1
:10254000CF93DF9300D000D0CDB7DEB75C017C83A2
:102550006B836A014901FA82E982C801841B950BE9
:102560009C0122F422273327281B390BA4018B81DD
:102570009C81481B590BCA01992324F48827992769
:10258000841B950B51E040E0821793070CF050E05C
:10259000652E742E6114710459F0982D892D48010F
:1025A000092F182F9B818C81DC82CB82C92ED82EDB
:1025B000AB81BC818A169B060CF045C09C2D8D2DED
:1025C0006801092F182F9B818C819C828B82892E18
:1025D000982E39C0EB81FC818E169F060CF44EC0FC
:1025E0000FEF1FEF02C001E010E06114710471F001
:1025F000D501ED91FC910480F581E02D29813A818E
:102600004B815C81B601C50109950DC0D501ED91E5
:10261000FC910480F581E02D29813A81A6016B812E
:102620007C81C5010995E418F50822F4C00ED11E7D
:10263000E20CF31CEB81FC813196FC83EB838E165C
:102640009F069CF61BC014018B819C81281A390AB5
:10265000C8018C199D092C0122F444245524481AE0
:10266000590A710133201CF49FEFE91AF90AF59415
:10267000E794C016D1060CF4B6CFACCF0F900F90F4
:102680000F900F90DF91CF911F910F91FF90EF90DE
:10269000DF90CF90BF90AF909F908F907F906F9082
:1026A0005F904F903F902F9008956F927F928F92FE
:1026B0009F92AF92BF92CF92DF92EF92FF920F93D1
:1026C0001F93CF93DF93EC014B015A01690138014D
:1026D000E881F9810284F385E02D87010995E8817D
:1026E000F981A501460D571D415051090284F3851A
:1026F000E02D9601B401CE010995E881F9810084AD
:10270000F185E02D9301A501B401CE010995E88181
:10271000F981C80CD91CB601615071090084F1859A
:10272000E02D9301A501CE010995DF91CF911F9175
:102730000F91FF90EF90DF90CF90BF90AF909F9060
:102740008F907F906F900895EF92FF920F931F9359
:102750007801DC01ED91FC91240F351F89010150B6
:1027600011090680F781E02D9B0109951F910F91BA
:10277000FF90EF900895EF92FF920F931F93DC016B
:10278000ED91FC91260F371F215031090680F7810A
:10279000E02D78018A0109951F910F91FF90EF902C
:1027A00008956F927F928F929F92AF92BF92CF9235
:1027B000DF92EF92FF920F931F93CF93DF936C0101
:1027C000EB014A01580137017B01E20EF31E6E1541
:1027D0007F0584F4D601ED91FC910084F185E02D14
:1027E00083019501A401BE01C60109952196CE156C
:1027F000DF0584F3DF91CF911F910F91FF90EF9050
:10280000DF90CF90BF90AF909F908F907F906F9010
:102810000895EF92FF920F931F93DC01ED91FC91CD
:1028200011971A960D911C911B9718962D913C911A
:1028300019970684F785E02D7B0140E050E060E0C9
:1028400070E009951F910F91FF90EF900895089502
:10285000FC01138212828DEB95E091838083758356
:102860006483578346837187608753874287158ABD
:10287000158614861786168681E0848B2FEF3FEF2E
:10288000338B228B318B208B868B08952F923F9236
:102890004F925F926F927F928F929F92AF92BF9270
:1028A000CF92DF92EF92FF920F931F93CF93DF931C
:1028B000CDB7DEB762970FB6F894DEBF0FBECDBFBF
:1028C0005C011801FD82EC82CB82DC0118968D91AF
:1028D0009C911997681779070CF0C8C01A968D91CA
:1028E0009C911B97481759070CF0C0C0EC2DF0E0E5
:1028F000FA83E983CF01880F991F8E0F9F1F880FDE
:10290000991F860F971F01970AF4B0C0CF01880F57
:10291000991F880F991F880F991F840F951F019782
:102920000AF4A4C030E0C901880F991F880F991FCD
:10293000280F391F3F01798768877B876A871C8644
:10294000D901A61BB70BB88BAF874D875E874A01AD
:10295000B8E08B0E911C2401EC85E53009F478C0B9
:10296000EF85F88988859985E80FF91FEF52FC4FAC
:1029700014916FC0B0FE24C09B81913079F4A98975
:10298000BA89ED91FC9111970480F581E02D9101B8
:10299000A60168857985CD0109953CC0A989BA89C8
:1029A000ED91FC9111970684F785E02D7101098165
:1029B0001A819801A4016E817F81CD0109952AC0F9
:1029C000EC81FD81E215F30529F1FB81F13081F401
:1029D000A989BA89ED91FC9111970480F581E02DC8
:1029E0002C813D81A60168857985CD01099512C0AC
:1029F000A989BA89ED91FC9111970684F785E02D9C
:102A0000EC80FD8009811A819801A4016E817F818B
:102A1000CD010995B694860C971CBFEFCB1ADB0A43
:102A2000C414D50409F0A6CFA988BA88EC85EF5F55
:102A3000EC878A859B85860D971D9B878A87A8854D
:102A4000B9851196B987A887E63009F085CF0EC001
:102A500010E0BA85BE83EB85EF83CD84DE848C2CB9
:102A60009D2CC501B12E9A8B898B84CF62960FB6AF
:102A7000F894DEBF0FBECDBFDF91CF911F910F91B4
:102A8000FF90EF90DF90CF90BF90AF909F908F908E
:102A90007F906F905F904F903F902F900895CF92CE
:102AA000EF92FF920F931F93CF93DF936A3079F4E5
:102AB000FC01448926853785F8E04F9F200D311DA4
:102AC0001124FC0137872687158614863CC06D309B
:102AD000D1F1262FEC01EA88FB88088919894E85F7
:102AE0005F856C857D85CC880E9446142C8930E0FA
:102AF000C901880F991F820F931F880F991F4C855A
:102B00005D85840F951F9D878C874E894423D9F05E
:102B10004AEF4203B001439F700D11244885598547
:102B2000460F571F4817590774F4220F331F220FFF
:102B3000331F220F331F8E859F85280F391F3F8734
:102B40002E871D861C8681E090E0DF91CF911F913A
:102B50000F91FF90EF90CF900895FC0175876487E7
:102B6000578746870895611101C061E0FC01648BBD
:102B70000895FC01738B628B718B608B0895FC014F
:102B8000718B608B538B428B0895FC01858908956E
:102B9000FC01808591850895FC01828593850895C7
:102BA0000F931F93FC018589823071F08330E9F027
:102BB000813009F0C7C084819581DC01A41BB50B6D
:102BC000AD014150510922C184819581DC01A61BD0
:102BD000B70BBD0186819781DC01A41BB50BAD014C
:102BE00041505109621B730BADC086819781DC0196
:102BF000A61BB70BBD01621B730B08C184819581B5
:102C0000481759070CF029C1772324F4260F371FE2
:102C100060E070E086819781FB01E20FF31F8E1761
:102C20009F071CF49C01261B370B121613060CF091
:102C300014C1722F862F869586958695B0E88B9F56
:102C4000400D511D1124FA01EF5CFE4F677079F1C0
:102C500088E0861B482F50E0DA01A75DBE4F9C91AB
:102C6000281708F0D7C0421B51092FEF30E002C0EF
:102C7000359527954A95E2F792230130110529F001
:102C800040F00230110551F0E8C02081922B908372
:102C900008C0909520819223908303C020819227C1
:102CA0009083781708F4D9C0781BE058FF4F78302C
:102CB00058F10230110559F4DF01972F8C9180955E
:102CC0008C93A058BF4F98509830C0F7B5C091E092
:102CD0000130110509F090E09195DF01872F9C9359
:102CE000A058BF4F88508830D0F788EF870F86955F
:102CF0008695869590E001969695982F88279795CA
:102D00008795E80FF91F7770772309F4A6C07770CD
:102D1000A72FB0E0AF5DBE4F8C910130110529F0B7
:102D200040F00230110551F098C09081892B8083CA
:102D300094C080959081892380838FC0908189275A
:102D400080838BC055230CF488C0868197814817F7
:102D500059070CF082C0772324F4260F371F60E058
:102D600070E084819581FB01E20FF31F8E179F07AE
:102D70001CF49C01261B370B121613060CF06DC0B9
:102D8000CA0155230CF407969595879595958795D7
:102D9000959587959695982F882797958795680F8D
:102DA000791F6F5C7E4F4770552781E090E002C02D
:102DB000880F991F4A95E2F7482F0130110549F015
:102DC00090F00230110509F048C0FB01620F731F3B
:102DD00016C0FB01620F731F8081842B8193E6175D
:102DE000F707D1F73AC0982F9095FB01620F731F38
:102DF000808189238193E617F707D1F72EC0808160
:102E000084278193E617F707D1F727C055230CF0E5
:102E1000F5CE23C00130110509F437CF08F439CFBE
:102E20000230110509F43ACF3FCFA72FA770B0E0C9
:102E3000AF5DBE4F8C9182CF88EF870F86958695C8
:102E4000869590E001969695982F88279795879577
:102E5000E80FF91F872F877041F71F910F91089591
:102E60000F931F93FC018589823071F08330E9F064
:102E7000813009F084C084819581DC01A41BB50BED
:102E8000AD01421B530B22C184819581DC01A61B3D
:102E9000B70BBD016150710986819781DC01A41BCC
:102EA000B50BAD01421B530B6AC086819781DC01D3
:102EB000A61BB70BBD016150710908C186819781BE
:102EC000681779070CF029C1552324F4240F351F06
:102ED00040E050E084819581FA01E20FF31F8E17E4
:102EE0009F071CF49C01241B350B121613060CF0D3
:102EF00014C1CB0177230CF407969595879595958A
:102F00008795959587959695982F88279795879576
:102F1000480F591F4F5C5E4FCB018770992761E0C6
:102F200070E002C0660F771F8A95E2F7962F013096
:102F3000110549F090F00230110509F0EEC0FA01D8
:102F4000240F351F15C0FA01240F351F8081892BEE
:102F50008193E217F307D1F7E0C06095FA01240FDF
:102F6000351F808186238193E217F307D1F7D5C0FF
:102F7000808189278193E217F307D1F7CEC07723A9
:102F80000CF4CBC084819581681779070CF0C5C01B
:102F9000552324F4240F351F40E050E086819781AB
:102FA000FA01E20FF31F8E179F071CF49C01241BEC
:102FB000350B121613060CF0B0C0522F842F8695D5
:102FC00086958695B0E88B9F600D711D1124FB01DD
:102FD000EF5CFE4F477079F188E0841B682F70E04A
:102FE000DB01A75DBE4F9C91281708F073C0621BE0
:102FF00071092FEF30E002C0359527956A95E2F709
:1030000092230130110529F040F00230110551F0F2
:1030100084C02081922B908308C0909520819223B8
:10302000908303C0208192279083581708F475C0BD
:10303000581BE058FF4F583058F10230110559F431
:10304000DF01952F8C9180958C93A058BF4F98509D
:103050009830C0F751C091E00130110509F090E0BF
:103060009195DF01852F9C93A058BF4F88508830E1
:10307000D0F788EF850F86958695869590E0019626
:103080009695982F882797958795E80FF91F577081
:10309000552309F442C05770A52FB0E0AF5DBE4F75
:1030A0008C910130110529F040F00230110551F0EA
:1030B00034C09081892B808330C080959081892392
:1030C00080832BC090818927808327C077230CF0D1
:1030D000F5CE23C00130110509F49BCF08F49DCF34
:1030E0000230110509F49ECFA3CFA52FA770B0E041
:1030F000AF5DBE4F8C91E6CF88EF850F86958695A4
:10310000869590E001969695982F882797958795B4
:10311000E80FF91F852F877041F71F910F910895D0
:10312000CF92DF92EF92FF920F931F93CF93DF9393
:103130007C01EB018A016901DD230CF4A7C00E9428
:10314000C815C817D9070CF0A1C011230CF49EC0F4
:10315000C7010E94CC15081719070CF097C0C701CA
:103160000E94C515823069F08330E1F0813019F595
:10317000F70184819581801B910B8E01EC012197D1
:103180001AC0F701848195819C012C1B3D0BE9013C
:10319000219786819781FC01E01BF10B8F01015083
:1031A000110909C0F701868197818C1B9D0BE801ED
:1031B0008C0101501109F1E0CF16D10439F030F142
:1031C00032E0C316D10409F442C060C0C801112323
:1031D0000CF4079695958795959587959595879580
:1031E0009695982F882797958795C80FD91FCF5CFC
:1031F000DE4F0770112781E090E002C0880F991F11
:103200000A95E2F79881892B888340C0C801112371
:103210000CF407969595879595958795959587953F
:103220009695982F882797958795C80FD91FCF5CBB
:10323000DE4F0770112781E090E002C0880F991FD0
:103240000A95E2F780959881892388831FC0C80179
:1032500011230CF4079695958795959587959595E7
:1032600087959695982F882797958795C80FD91F8A
:10327000CF5CDE4F0770112781E090E002C0880F1D
:10328000991F0A95E2F7988189278883DF91CF916A
:103290001F910F91FF90EF90DF90CF9008951F93B3
:1032A000CF93DF93EC01162F40E450E060E870E02C
:1032B0000E94281485ED95E0998388838FEF898F8C
:1032C0008D8F8B8F8A8F1C8FDF91CF911F910895E7
:1032D00080E094E0E1E3F1E0DF019C011D922150E8
:1032E0003040E1F70895CF93FC01818D8F3F09F4C1
:1032F0004AC0A3A1B4A19C9181A5892B8C93A5A1BF
:10330000B6A19C9182A5809589238C93A3A1B4A199
:103310009C9181A5809589238C93868D882339F093
:103320006EBD00000DB407FEFDCF8EB525C048E090
:1033300050E020E8A1A1B2A19C9180A580958923AD
:103340008C93822F862339F0A78DB0A19C9187A101
:10335000892B8C9307C0A78DB0A19C9187A18095E4
:1033600089238C93A1A1B2A19C9180A5892B8C93D8
:10337000269541505109F1F6A3A1B4A19C9181A5D4
:10338000892B8C9317C0C62F6789062E000C770BEC
:103390008EE597E00E94D62660E08EE597E00E94D9
:1033A00083266C2F8EE597E00E9483268EE597E0BA
:1033B0000E94EB26CF9108950F931F93CF93DF9335
:1033C000EC01162F022F688F4F8B898D8F3F09F4E8
:1033D00077C061E08B8D0E945C2561E08D8D0E943D
:1033E0005C258D8D082E000C990BFC01EF5FF64FCC
:1033F000E491F0E0EE0FFF1FE15EF64F259134916E
:103400003CA32BA3FC01E351F74FE491E9A78B8D7B
:10341000082E000C990BFC01EF5FF64FE491F0E0F1
:10342000EE0FFF1FE15EF64F259134913EA32DA3D1
:10343000FC01E351F74FE491EAA78E8D811137C06B
:1034400061E0898D0E945C2561E08A8D0E945C2587
:103450008A8D082E000C990BFC01EF5FF64FE4916A
:10346000F0E0EE0FFF1FE15EF64F259134913AA395
:1034700029A3FC01E351F74FE491E8A7898D082EB9
:10348000000C990BFC01EF5FF64FE491F0E0EE0FBA
:10349000FF1FE15EF64F2591349138A32F8FFC0179
:1034A000E351F74FE491EFA38E8D882369F00E94DA
:1034B000F1258CB58C7F8CBD8DB581608DBD04C030
:1034C0008EE597E00E94C2260023E1F061E08C8D3A
:1034D0000E945C2561E08C8D0E94982561E070E07F
:1034E00080E090E00E94BC2460E08C8D0E949825D2
:1034F0006AE070E080E090E00E94BC2461E08C8D86
:103500000E9498256EEACE010E94731965EDCE01E6
:103510000E94731960E8CE010E94731968EACE0117
:103520000E9473196FE3CE010E94731963EDCE01FF
:103530000E94731960E0CE010E94731960E4CE010D
:103540000E9473196DE8CE010E947319113069F55C
:1035500060E1CE010E94731960E2CE010E947319EE
:1035600060E0CE010E94731961EACE010E947319D6
:1035700068ECCE010E9473196AEDCE010E947319A6
:1035800062E1CE010E94731961E8CE010E947319B5
:103590006FE9CE010E94731969EDCE010E94731983
:1035A00062E2CE010E9473192CC064E1CE010E9438
:1035B000731960E2CE010E94731960E0CE010E948F
:1035C000731961EACE010E94731968ECCE010E9462
:1035D00073196AEDCE010E94731962E1CE010E9457
:1035E000731961E8CE010E9473196FECCE010E943D
:1035F000731969EDCE010E94731961EFCE010E942B
:1036000073196BEDCE010E94731960E4CE010E9424
:10361000731964EACE010E94731966EACE010E9412
:1036200073196FEACE010E947319DF91CF911F9138
:103630000F910895BF92CF92DF92EF92FF920F9376
:103640001F93CF93DF93EC0161E20E94731960E056
:10365000CE010E9473196FE7CE010E94731962E2D6
:10366000CE010E94731960E0CE010E94731967E0D9
:10367000CE010E947319898D8F3F09F456C0EBA1CA
:10368000FCA1908189A5892B8083EDA1FEA1908169
:103690008AA5892B8083EBA1FCA1808199A59095B7
:1036A00089238083A1E3B1E061E375E06894FF249E
:1036B000F3F800E010E85D918E8D882339F05EBD4F
:1036C00000000DB407FEFDCF8EB525C02F2D302F85
:1036D000412FE9A1FAA1908188A580958923808353
:1036E000842F852339F0EF8DF8A190818FA1892B4C
:1036F000808307C0EF8DF8A190818FA180958923E9
:103700008083E9A1FAA1908188A5892B80834695C1
:1037100021503109F1F6A617B70769F6EBA1FCA114
:10372000908189A5892B808338C0E8EBF0E0B080D8
:103730008CE0808301E311E00F2EF1E3CF2EF5E062
:10374000DF2EF02D6F89062E000C770B8EE597E0AB
:103750000E94D626E0915E07F0915F070190F0810C
:10376000E02D60E48EE597E00995780180E1E80EB0
:10377000F11CF80161918F018EE597E00E9483268C
:10378000E016F106B1F78EE597E00E94EB2687017F
:10379000EC14FD04B9F6B092B800DF91CF911F91FF
:1037A0000F91FF90EF90DF90CF90BF900895CF9250
:1037B000DF92EF92FF920F931F93CF93DF93C82F67
:1037C00088E090E00E94D02A6C0186E2C89F9001B8
:1037D0001124C9018A579E4FEC010E942E2C8F3F65
:1037E00041F448E050E062ED78E0C6010E94092C07
:1037F0000FC086017601E8E0EE0EF11CCE010E94BA
:103800002E2CF80181938F012196EE15FF05B1F75B
:10381000C601DF91CF911F910F91FF90EF90DF9044
:10382000CF900895CF92DF92EF92FF920F931F9364
:10383000CF93DF93C82F8AE090E00E94D02AC82E51
:10384000D92E8DE0C89FE0011124CE010E942E2CBC
:103850008F3F49F44AE050E06CEC78E08C2D9D2DD0
:103860000E94092C10C00C2D1D2D7E01EAE0EE0EE9
:10387000F11CCE010E942E2CF80181938F0121961C
:10388000CE15DF05B1F78C2D9D2DDF91CF911F91C6
:103890000F91FF90EF90DF90CF90089570E0625706
:1038A0007E4F9B0146E2849F200D311D1124C901EA
:1038B0000E942E2C8F3F09F480E008952DE0829F16
:1038C000C00111240A960E942E2C08952DE0829F9B
:1038D000C00111240B960E942E2C8F3F09F481E029
:1038E00008952DE0829FC00111240C960E942E2C79
:1038F0008F3F09F484E008951F93CF93DF93EC0189
:10390000162F0E942E2C181721F0612FCE010E9435
:10391000362CDF91CF911F910895EF92FF920F9374
:103920001F93CF93DF9326E2829FC0011124EC0105
:10393000CA57DE4F8B017B0188E0E80EF11CF801CD
:1039400061918F01CE010E947C1C21960E151F05EE
:10395000B1F7DF91CF911F910F91FF90EF900895F4
:10396000262F30E022573E4F642FA90176E2879F31
:10397000400D511D1124CA010E947C1C0895EF9234
:10398000FF920F931F93CF93DF939DE0899FE001F8
:103990001124062F172F7E01EAE0EE0EF11CF8012C
:1039A00061918F01CE010E947C1C2196CE15DF050E
:1039B000B1F7DF91CF911F910F91FF90EF90089594
:1039C0002DE0829FC00111240A960E947C1C08955C
:1039D0002DE0829FC00111240B960E947C1C08954B
:1039E0002DE0829FC00111240C960E947C1C08953A
:1039F0001F920F920FB60F9211242F933F934F9364
:103A00005F936F937F938F939F93AF93BF93EF9346
:103A1000FF93E091A006F091A1060995FF91EF9127
:103A2000BF91AF919F918F917F916F915F914F91D6
:103A30003F912F910F900FBE0F901F901895FC0192
:103A4000440F551F661F771F440F551F661F771FB2
:103A50004115510581E0680771051CF481E08283FE
:103A60004AC0689412F875956795579547951694CE
:103A7000D1F74115510581E0680771051CF482E01A
:103A8000828339C0689412F8759567955795479564
:103A90001694D1F74115510581E0680771051CF4B2
:103AA00083E0828328C075956795579547957595EE
:103AB0006795579547954115510581E06807710550
:103AC0001CF484E0828317C07595679557954795D8
:103AD00075956795579547954115510581E068079C
:103AE00071051CF485E0828306C085E082834FEF78
:103AF0005FEF60E070E08FB78383F8945183408379
:103B0000509387004093860083818FBFA1E8B0E087
:103B10008C91887F8C939C918281892B8C930895C2
:103B20001092800020E1209381000E941F1D0895C3
:103B3000E1E8F0E02081DC0112968C91822B8083F9
:103B400008950F931F93CF93DF93EC018B0112160F
:103B500013061406150624F4BA01A9010E941F1DBC
:103B60001D830C8381E080936F00CE010E94981D1D
:103B7000DF91CF911F910F9108950E94FD2BFC01C1
:103B8000918D228D892F90E0805C9F4F821B91093F
:103B90008F7399270895FC01918D828D981731F0CC
:103BA000828DE80FF11D858D90E008958FEF9FEFD6
:103BB0000895FC01918D828D981761F0828DDF014F
:103BC000A80FB11D5D968C91928D9F5F9F73928F10
:103BD00090E008958FEF9FEF08958DE39FE1892B8B
:103BE00049F080E090E0892B29F00E943D1F81116F
:103BF0000C9400000895FC01848DDF01A80FB11D15
:103C0000A35ABF4F2C91848D90E001968F73992712
:103C1000848FA689B7892C93A089B1898C918064FF
:103C20008C93938D848D981306C00288F389E02DC0
:103C300080818F7D80830895CF93DF93EC01888D01
:103C40008823C9F0EA89FB89808185FD05C0A889A0
:103C5000B9898C9186FD0FC00FB607FCF5CF808126
:103C600085FFF2CFA889B9898C9185FFEDCFCE0170
:103C70000E94FB1DE7CFDF91CF910895EF92FF9255
:103C80000F931F93CF93DF93EC0181E0888F9B8D7F
:103C90008C8D981305C0E889F989808185FD24C041
:103CA000F62E0B8D10E00F5F1F4F0F731127E02EC4
:103CB0008C8DE8120CC00FB607FCFACFE889F989A1
:103CC000808185FFF5CFCE010E94FB1DF1CF8B8D4A
:103CD000FE01E80FF11DE35AFF4FF0820B8FEA89D6
:103CE000FB898081806207C0EE89FF896083E88953
:103CF000F98980818064808381E090E0DF91CF91B9
:103D00001F910F91FF90EF900895CF92DF92EF9265
:103D1000FF921F93CF93DF93EC016A017B01122F77
:103D200060E874E88EE190E0A70196010E946F2A96
:103D3000DA01C9010197A109B109B695A79597952F
:103D40008795AC01E889F98982E08083411580E19B
:103D50005807A8F0E889F989108260E472E48FE0DE
:103D600090E0A70196010E946F2ABA01A901415073
:103D70005109610971097695679557954795EC85C5
:103D8000FD855083EE85FF854083188EEC89FD8983
:103D90001083EA89FB89808180618083EA89FB89BD
:103DA000808188608083EA89FB8980818068808344
:103DB000EA89FB8980818F7D8083DF91CF911F917C
:103DC000FF90EF90DF90CF9008951F920F920FB663
:103DD0000F9211242F938F939F93EF93FF93E09172
:103DE000B206F091B3068081E091B806F091B90671
:103DF00082FD12C090818091BB068F5F8F732091EE
:103E0000BC06821751F0E091BB06F0E0EE55F94F89
:103E1000958F8093BB0601C08081FF91EF919F91A8
:103E20008F912F910F900FBE0F901F9018951F929A
:103E30000F920FB60F9211242F933F934F935F93DE
:103E40006F937F938F939F93AF93BF93EF93FF9362
:103E500082EA96E00E94FB1DFF91EF91BF91AF9126
:103E60009F918F917F916F915F914F913F912F9192
:103E70000F900FBE0F901F90189582EA96E00E9457
:103E8000BF1D21E0892B09F420E0822F0895E2EA8A
:103E9000F6E01382128288EE93E0A0E0B0E0848323
:103EA0009583A683B7838DEE95E09183808385EC1F
:103EB00090E09587848784EC90E09787868780ECF4
:103EC00090E0918B808B81EC90E0938B828B82ECE5
:103ED00090E0958B848B86EC90E0978B868B118E8F
:103EE000128E138E148E089508950E94F8240E9455
:103EF000741F0E94B206CDEEDDE10E94900C209767
:103F0000E1F30E94ED1DF9CFCF92DF92EF92FF9285
:103F10000F931F93CF93DF936C017A018B01C0E065
:103F2000D0E0CE15DF0589F0D8016D918D01D60165
:103F3000ED91FC910190F081E02DC6010995892B4E
:103F400011F47E0102C02196ECCFC701DF91CF9121
:103F50001F910F91FF90EF90DF90CF900895611522
:103F6000710579F0FB0101900020E9F73197AF016D
:103F7000461B570BDC01ED91FC910280F381E02D93
:103F8000099480E090E00895EF92FF920F931F93C1
:103F9000CF93DF938C017B01C0E0D0E0F701EC0F01
:103FA000FD1F6491662361F0D801ED91FC910190B1
:103FB000F081E02DC8010995892B11F02196EECFF3
:103FC000CE01DF91CF911F910F91FF90EF90089557
:103FD0000C94AF1FDC01ED91FC910190F081E02D7C
:103FE000099469EF75E00C94AF1F0F931F93CF9363
:103FF000DF93EC010E94C41F8C01CE010E94F11FCF
:10400000800F911FDF91CF911F910F9108950F9312
:104010001F93CF93DF93EC010E94AF1F8C01CE0161
:104020000E94F11F800F911FDF91CF911F910F917F
:1040300008954F925F926F927F92EF92FF920F934B
:104040001F93CF93DF93CDB7DEB7A1970FB6F89448
:10405000DEBF0FBECDBF7C01FA01CB0119A2223019
:1040600008F42AE08E010F5D1F4F422E512C612C67
:10407000712CBF01A30192010E946F2AF901CA01AC
:10408000015011096A3014F4605D01C0695CD80107
:104090006C93232B242B252B61F7B801C7010E94B9
:1040A000AF1FA1960FB6F894DEBF0FBECDBFDF9154
:1040B000CF911F910F91FF90EF907F906F905F9045
:1040C0004F900895CF92DF92EF92FF920F931F933C
:1040D000CF93DF93EC016A017B012115310579F45F
:1040E000E881F9810190F081E02D642FDF91CF917B
:1040F0001F910F91FF90EF90DF90CF9009942A309D
:104100003105E9F477FF1AC06DE20E94EA1F8C01C5
:1041100044275527BA014C195D096E097F092AE029
:10412000CE010E941920800F911FDF91CF911F9126
:104130000F91FF90EF90DF90CF9008952AE0B701A4
:10414000A601CE01DF91CF911F910F91FF90EF90CB
:10415000DF90CF900C9419209A01AB01770F660B7A
:10416000770B0C9462200F931F93CF93DF93EC0196
:104170009A01AB01770F660B770B0E9462208C01CE
:10418000CE010E94F11F800F911FDF91CF911F91EF
:104190000F9108952115310541F4DC01ED91FC9159
:1041A0000190F081E02D642F09940C9419209A015C
:1041B000462F50E060E070E00C94CA209A01AB01F9
:1041C00060E070E00C94CA203F924F925F926F9231
:1041D0007F928F929F92AF92BF92CF92DF92EF9297
:1041E000FF920F931F93CF93DF9300D000D0CDB7F2
:1041F000DEB790913105981721F09F3F09F036C244
:1042000004C0E8EDF8E0349081C080933105E8ED1A
:10421000F8E0E491EF3F09F429C2E13031F1E230F6
:1042200009F44BC0E11171C014BC15BC94B5926087
:1042300094BD95B5916095BDA82FB0E0FD01EF5FED
:10424000F64FE491F0E0EE0FFF1FE15EF64F0591AF
:10425000149110934F0700934E07FD01E351F74F60
:10426000E491E0934D07312C53C0109280001092DE
:1042700081009091810098609093810090918100DD
:10428000916090938100A82FB0E0FD01EF5FF64FA1
:10429000E491F0E0EE0FFF1FE15EF64F05911491FF
:1042A0001093480700934707FD01E351F74FE4914E
:1042B000E0934607332433942BC01092B000109241
:1042C000B1009091B00092609093B0009091B100D5
:1042D00091609093B100A82FB0E0FD01EF5FF64F21
:1042E000E491F0E0EE0FFF1FE15EF64F05911491AF
:1042F0001093410700934007FD01E351F74FE4910C
:10430000E0933F0702E0302E03C03E2E37FCAEC1E3
:1043100029013A018B0161E00E945C254801A12C32
:10432000B12C832D8D7F09F0BBC060E079E08DE377
:1043300090E0A50194010E94912A29833A834B833E
:104340005C8369017A0121E0C21AD108E108F10811
:104350008FEFC816D104E104F10409F008F44CC051
:1043600060E271EA87E090E0A50194010E94912A41
:1043700069017A01E1E0CE1AD108E108F108F2E022
:104380003F1220C02FEFC216D104E104F10409F05E
:1043900008F46AC168E478EE81E090E0A501940138
:1043A0000E94912A69017A0181E0C81AD108E108C6
:1043B000F108EFEFCE16D104E104F10409F0D0F5D5
:1043C00083E067C0FFEFCF16D104E104F104B1F040
:1043D000A8F064E274EF80E090E0A50194010E94EF
:1043E000912A69017A0181E0C81AD108E108F1082F
:1043F000332009F4DFC02FC181E001C082E0332007
:10440000A1F047C089819A81AB81BC812AE0B59532
:10441000A795979587952A95D1F76C017D0121E0A5
:10442000C21AD108E108F10885E095B5987F892B7B
:1044300085BD6FC064E274EF80E090E0A501940157
:104440000E94912A69017A01F1E0CF1AD108E108AE
:10445000F1082FEFC216D104E104F10409F008F4C9
:10446000A7C062E17AE780E090E0A50194010E9494
:10447000912A69017A01E1E0CE1AD108E108F10838
:10448000FFEFCF16D104E104F10411F008F0B4C03D
:1044900085E09091B100987F892B8093B10039C05D
:1044A00060E079E08DE390E0A50194010E94912AFB
:1044B00069017A0181E0C81AD108E108F108C11444
:1044C000D104E1E0EE06F10488F064E274EF80E0EC
:1044D00090E0A50194010E94912A69017A01F1E01E
:1044E000CF1AD108E108F10893E001C091E021E082
:1044F00032120FC080918100887F892B80938100C8
:10450000411451046104710449F42FEF3FEFA901F4
:104510002DC0411451046104710471F0D801AA0F37
:10452000BB1FA30192010E94B62A28EE33E040E0AF
:1045300050E00E946F2A03C02FEF3FEFA90181E0F6
:104540003816A1F0E2E03E1619F131108FC0C7BC59
:1045500020935007309351074093520750935307CD
:1045600080916E00826080936E0080C0D09289003E
:10457000C09288002093490730934A0740934B0725
:1045800050934C0780916F00826080936F006EC0E3
:10459000C092B300209342073093430740934407EF
:1045A00050934507809170008260809370005EC0D8
:1045B00084E06FCFFFEFCF16D104E104F104D1F016
:1045C000C8F069E07DE380E090E0A50194010E94DD
:1045D000912A69017A0181E0C81AD108E108F1083D
:1045E000EFEFCE16D104E104F10411F008F00ACF88
:1045F00084E01BCF83E019CF69E07DE380E090E0A9
:10460000A50194010E94912A69017A0181E0C81AEA
:10461000D108E108F108EFEFCE16D104E104F1046E
:10462000C1F0B8F089819A81AB81BC814AE0B5952F
:10463000A795979587954A95D1F76C017D0121E063
:10464000C21AD108E108F108332009F4EDCE87E061
:1046500020CF86E0D4CEFFEFCF16D104E104F104E1
:1046600009F050F684E0CBCE82E013CF0F900F908C
:104670000F900F90DF91CF911F910F91FF90EF90CE
:10468000DF90CF90BF90AF909F908F907F906F9072
:104690005F904F903F900895813039F018F082304C
:1046A00051F0089510926E00089580916F008D7FF3
:1046B00080936F000895809170008D7F80937000CB
:1046C00081E08093B0008091B100887F8460809306
:1046D000B1001092B3000895CF93C82F8091310597
:1046E0008C1307C0E8EDF8E0E4918FEF809331057B
:1046F00001C0EFEF8E2F0E944C2360E08C2FCF91F2
:104700000C9498251F920F920FB60F9211242F939D
:104710003F934F935F936F937F938F939F93AF9349
:10472000BF93EF93FF938091420790914307A0912D
:104730004407B0914507892B8A2B8B2B51F180912F
:104740003F07E0914007F0914107908189278083DE
:104750008091420790914307A0914407B09145078B
:10476000181619061A061B06C4F480914207909188
:104770004307A0914407B09145070197A109B109EA
:104780008093420790934307A0934407B093450753
:1047900004C0809131050E946C23FF91EF91BF917D
:1047A000AF919F918F917F916F915F914F913F91C9
:1047B0002F910F900FBE0F901F9018950895823083
:1047C000E8F4E82FF0E0EE0FFF1FEE5CFA4F718384
:1047D0006083813041F0809169008C7F482B409349
:1047E0006900E89A089580916900440F551F440FAD
:1047F000551F837F482B40936900E99A08951F92C3
:104800000F920FB60F9211242F933F934F935F9304
:104810006F937F938F939F93AF93BF93EF93FF9388
:10482000E0913205F09133050995FF91EF91BF9129
:10483000AF919F918F917F916F915F914F913F9138
:104840002F910F900FBE0F901F9018951F920F92EF
:104850000FB60F9211242F933F934F935F936F9353
:104860007F938F939F93AF93BF93EF93FF93E091C9
:104870003405F09135050995FF91EF91BF91AF9106
:104880009F918F917F916F915F914F913F912F9168
:104890000F900FBE0F901F9018951F920F920FB69A
:1048A0000F9211242F933F938F939F93AF93BF93B6
:1048B0008091550790915607A0915707B0915807DE
:1048C0003091540726E0230F2D3720F40296A11DC6
:1048D000B11D05C029E8230F0396A11DB11D20932A
:1048E00054078093550790935607A0935707B093AA
:1048F00058078091590790915A07A0915B07B09192
:104900005C070196A11DB11D8093590790935A072A
:10491000A0935B07B0935C07BF91AF919F918F917C
:104920003F912F910F900FBE0F901F9018953FB79A
:10493000F8948091590790915A07A0915B07B09124
:104940005C0726B5A89B05C02F3F19F00196A11D55
:10495000B11D3FBFBA2FA92F982F8827820F911D15
:10496000A11DB11DBC01CD0143E0660F771F881F5B
:10497000991F4A95D1F708958F929F92AF92BF9257
:10498000CF92DF92EF92FF926B017C010E949724FD
:104990004B015C01C114D104E104F10401F10E9456
:1049A000CB280E949724DC01CB0188199909AA0918
:1049B000BB09883E9340A105B10560F321E0C21A0E
:1049C000D108E108F10888EE880E83E0981EA11C4A
:1049D000B11CC114D104E104F10419F7DBCFFF903D
:1049E000EF90DF90CF90BF90AF909F908F90089501
:1049F000789484B5826084BD84B5816084BD85B5BA
:104A0000826085BD85B5816085BDEEE6F0E0808180
:104A100081608083E1E8F0E01082808182608083A1
:104A2000808181608083E0E8F0E080818160808324
:104A3000E1EBF0E0808184608083E0EBF0E0808156
:104A400081608083EAE7F0E08081846080838081F8
:104A50008260808380818E7F808380818068808374
:104A60001092C1000895833081F028F4813099F0CC
:104A70008230A1F008958730A9F08830B9F08430F1
:104A8000D1F4809180008F7D03C0809180008F776A
:104A900080938000089584B58F7702C084B58F7DA0
:104AA00084BD08958091B0008F7703C08091B000DD
:104AB0008F7D8093B0000895CF93DF9390E0FC0149
:104AC000E351F74F2491FC01EF5FF64F8491882367
:104AD00061F190E0880F991FFC01E75DF64FC591E9
:104AE000D491FC01E15EF64FA591B491611109C02A
:104AF0009FB7F8948881209582238883EC912E2398
:104B00000BC0623061F49FB7F8943881822F809592
:104B100083238883EC912E2B2C939FBF06C08FB7E5
:104B2000F894E8812E2B28838FBFDF91CF910895D1
:104B30001F93CF93DF93282F30E0F901E752F74F0F
:104B40008491F901E351F74FD491F901EF5FF64FEA
:104B5000C491CC23C9F0162F81110E943325EC2F6C
:104B6000F0E0EE0FFF1FE15EF64FA591B4918FB715
:104B7000F894111105C09C91ED2FE095E92302C036
:104B8000EC91ED2BEC938FBFDF91CF911F910895A6
:104B9000CF93DF93282F30E0F901E752F74F84914C
:104BA000F901E351F74FD491F901EF5FF64FC4914A
:104BB000CC2391F081110E943325EC2FF0E0EE0F11
:104BC000FF1FEB5EF64FA591B491EC91ED2381E0D0
:104BD00090E021F480E002C080E090E0DF91CF918E
:104BE0000895CF93CFB7F89480915D07811127C0C6
:104BF000EBE0F9E08491E7EFF8E09491E82FF0E042
:104C0000EE0FFF1FE75DF64FA591B491EC91E923FC
:104C100021F461E08AE00E94982561E08AE00E9428
:104C20005C258CB580618CBD8CB580648CBD61E0E9
:104C30008DE00E945C2561E08BE00E945C25809104
:104C40005D078F5F80935D07CFBFCF9108958091FF
:104C50008E0790E020918F07821B91090895909113
:104C60008F0780918E07981750F4E92FF0E0E057F6
:104C7000F84F208130E09F5F90938F0702C02FEFA5
:104C80003FEFC9010895E0918F0780918E07E817E3
:104C900030F4F0E0E057F84F808190E008958FEF16
:104CA0009FEF08950895CF92DF92EF92FF920F93B6
:104CB0001F93CF93DF937C01262F972F8A0180913A
:104CC0006A07882391F0C62FD72F6E01C40ED51E18
:104CD000CC15DD0571F06991D701ED91FC91019042
:104CE000F081E02DC7010995F3CF642F822F0E9438
:104CF0006627C801DF91CF911F910F91FF90EF9030
:104D0000DF90CF900895CF93DF931F92CDB7DEB79A
:104D1000698320916A072223D1F020916B0720320A
:104D200040F021E030E0FC013383228380E090E01A
:104D300015C080916C07E82FF0E0E359F84F998196
:104D400090838F5F80936C0780936B0705C061E051
:104D5000CE0101960E94662781E090E00F90DF91DE
:104D6000CF910895FC011382128288EE93E0A0E0B7
:104D7000B0E084839583A683B7838CE096E091832B
:104D80008083089510928F0710928E0710926C07FF
:104D900010926B070C94F22681E080936A0760936F
:104DA0008D0710926C0710926B0708950C94CC2617
:104DB0000F93062F21E040916B076DE677E080911D
:104DC0008D070E94102710926C0710926B071092AB
:104DD0006A070F91089561E00C94D8268EE597E05C
:104DE0000C94B22610921D0881E080931B0810924B
:104DF0001A0861E082E10E94982561E083E10E9447
:104E00009825E9EBF0E080818E7F808380818D7F23
:104E1000808380E28093B80085E48093BC0008958D
:104E20000F93413208F04AC090911D089111FCCFB8
:104E300032E030931D0800931B083FEF3093B0071A
:104E40001092F5074093F407FB0166EF77E0DB0172
:104E50003A2F361B341718F431913D93F9CF109245
:104E60001C0830911C08880F832B80931C088091AC
:104E70001A08813061F410921A0880911C088093FE
:104E8000BB008091BC0083FDF8CF85EC01C085EEAE
:104E90008093BC00222321F080911D088230D1F341
:104EA0008091B0078F3F79F08091B007803241F058
:104EB0008091B007803331F094E005C091E003C0E9
:104EC00092E001C093E0892F0F9108954091D2079D
:104ED000262F30E0240F311D21323105DCF42091E2
:104EE0001D082430C9F4FC0180E090E0861758F4D6
:104EF0003091D2072191DC01AC52B84FA30FB11D04
:104F00002C930196F3CF8091D207680F6093D2075C
:104F100080E0089581E0089582E0089585ED809312
:104F2000BC008091BC0084FDFCCF10921D08089548
:104F300085EC8093BC0010921D0808951F920F927B
:104F40000FB60F9211242F933F934F935F936F935C
:104F50007F938F939F93AF93BF93EF93FF93809132
:104F6000B900887F803609F49EC078F5883209F44C
:104F70005DC090F4803109F456C038F4882309F4F8
:104F8000F5C0883009F44FC0F5C0883109F44EC02F
:104F9000803209F45FC0EEC0803409F46AC058F46E
:104FA000803309F457C0883309F0E4C08093B00718
:104FB0000E949827DFC0803509F44FC0883509F476
:104FC0005DC0883409F0D6C0D3C0883909F4C4C0A4
:104FD000A8F4883709F467C038F4883609F463C048
:104FE000803709F460C0C6C0883809F4B5C080397C
:104FF00009F45FC0803809F0BDC05BC0803B09F494
:1050000083C038F4803A09F466C0883A09F47CC059
:10501000B1C0803C09F4A4C0883C09F4A1C0883B1D
:1050200009F487C0A7C080911C0810C09091F507B3
:105030008091F407981770F5E091F50781E08E0FE5
:105040008093F507F0E0EA50F84F80818093BB0031
:1050500085EC83C08093B0078BC0E091F50781E0B9
:105060008E0F8093F5078091BB00F0E0EA50F84F77
:1050700080839091F5078091F4076BC0E091F5076C
:1050800081E08E0F8093F5078091BB00F0E0EA503D
:10509000F84F808380911B0881116AC081E0809362
:1050A0001A0884EA5EC083E080931D081092B1075D
:1050B000CFCF8091B107803208F04EC0E091B107A8
:1050C00081E08E0F8093B1078091BB00F0E0EE5439
:1050D000F84F8083BDCF0E9498278091B10780321E
:1050E00030F4E091B107F0E0EE54F84F1082609197
:1050F000B10770E0E0911608F091170882EB97E095
:1051000009951092B10736C084E080931D08109273
:10511000D3071092D207E0911808F0911908099569
:105120008091D207811105C081E08093D20710924F
:10513000D407E091D30781E08E0F8093D307F0E08E
:10514000EC52F84F80818093BB009091D3078091FF
:10515000D207981708F47CCF85E88093BC000AC07A
:1051600085EC8093BC0010921D0804C01092B0071B
:105170000E948E27FF91EF91BF91AF919F918F91E8
:105180007F916F915F914F913F912F910F900FBE43
:105190000F901F90189508950E94E0280C94C8293C
:1051A0000E94C12958F00E94BA2940F029F45F3FBB
:1051B00029F00C94B12951110C94FC290C94B729B5
:1051C0000E94D92968F39923B1F3552391F3951BD4
:1051D000550BBB27AA2762177307840738F09F5F18
:1051E0005F4F220F331F441FAA1FA9F335D00E2E85
:1051F0003AF0E0E832D091505040E695001CCAF7F2
:105200002BD0FE2F29D0660F771F881FBB1F2617B4
:1052100037074807AB07B0E809F0BB0B802DBF018B
:10522000FF2793585F4F3AF09E3F510578F00C945A
:10523000B1290C94FC295F3FE4F3983ED4F38695A2
:1052400077956795B795F7959F5FC9F7880F911D7B
:105250009695879597F90895E1E0660F771F881F67
:10526000BB1F621773078407BA0720F0621B730B1A
:10527000840BBA0BEE1F88F7E09508950E9445292C
:105280006894B1110C94FC2908950E94E12988F0DA
:105290009F5798F0B92F9927B751B0F0E1F0660FFA
:1052A000771F881F991F1AF0BA95C9F714C0B1303B
:1052B00091F00E94FB29B1E008950C94FB29672F1F
:1052C000782F8827B85F39F0B93FCCF3869577956A
:1052D0006795B395D9F73EF4909580957095619553
:1052E0007F4F8F4F9F4F0895E89409C097FB3EF47E
:1052F00090958095709561957F4F8F4F9F4F992323
:10530000A9F0F92F96E9BB279395F69587957795A0
:105310006795B795F111F8CFFAF4BB0F11F460FF60
:105320001BC06F5F7F4F8F4F9F4F16C0882311F0B8
:1053300096E911C0772321F09EE8872F762F05C0CC
:10534000662371F096E8862F70E060E02AF09A9567
:10535000660F771F881FDAF7880F9695879597F95C
:10536000089597F99F6780E870E060E008959FEFE7
:1053700080EC089500240A941616170618060906EC
:10538000089500240A9412161306140605060895BB
:10539000092E0394000C11F4882352F0BB0F40F443
:1053A000BF2B11F460FF04C06F5F7F4F8F4F9F4F83
:1053B000089557FD9058440F551F59F05F3F71F005
:1053C0004795880F97FB991F61F09F3F79F087956C
:1053D0000895121613061406551FF2CF4695F1DFF5
:1053E00008C0161617061806991FF1CF8695710585
:1053F000610508940895E894BB2766277727CB01B9
:1054000097F908950E94152A0C94C8290E94BA2978
:1054100038F00E94C12920F0952311F00C94B12995
:105420000C94B72911240C94FC290E94D92970F3FB
:10543000959FC1F3950F50E0551F629FF001729F39
:10544000BB27F00DB11D639FAA27F00DB11DAA1F48
:10545000649F6627B00DA11D661F829F2227B00D95
:10546000A11D621F739FB00DA11D621F839FA00D20
:10547000611D221F749F3327A00D611D231F849F70
:10548000600D211D822F762F6A2F11249F575040C7
:105490009AF0F1F088234AF0EE0FFF1FBB1F661F42
:1054A000771F881F91505040A9F79E3F510580F00B
:1054B0000C94B1290C94FC295F3FE4F3983ED4F39B
:1054C000869577956795B795F795E7959F5FC1F7AF
:1054D000FE2B880F911D9695879597F90895A1E267
:1054E0001A2EAA1BBB1BFD010DC0AA1FBB1FEE1F5E
:1054F000FF1FA217B307E407F50720F0A21BB30BA9
:10550000E40BF50B661F771F881F991F1A9469F724
:1055100060957095809590959B01AC01BD01CF0180
:105520000895052E97FB1EF400940E94A82A57FDAB
:1055300007D00E946F2A07FC03D04EF40C94A82ACF
:1055400050954095309521953F4F4F4F5F4F0895AF
:1055500090958095709561957F4F8F4F9F4F0895DF
:10556000EE0FFF1F0590F491E02D09940E94C12ACF
:10557000A59F900DB49F900DA49F800D911D1124A7
:105580000895A29FB001B39FC001A39F700D811D1C
:105590001124911DB29F700D811D1124911D08953C
:1055A000CF93DF938230910510F482E090E0E09198
:1055B0002008F091210820E030E0C0E0D0E03097F2
:1055C00011F14081518148175907C0F04817590718
:1055D00061F482819381209719F09B838A832BC089
:1055E000909321088093200826C02115310519F0D9
:1055F0004217530718F49A01BE01DF01EF01028040
:10560000F381E02DDCCF2115310509F1281B390B81
:105610002430310590F412968D919C911397611569
:10562000710521F0FB019383828304C090932108CC
:1056300080932008FD01329644C0FD01E20FF31F64
:1056400081939193225031092D933C933AC020913C
:105650001E0830911F08232B41F420910201309144
:10566000030130931F0820931E0820910001309100
:1056700001012115310541F42DB73EB740910401D8
:1056800050910501241B350BE0911E08F0911F0875
:10569000E217F307A0F42E1B3F0B2817390778F009
:1056A000AC014E5F5F4F2417350748F04E0F5F1F68
:1056B00050931F0840931E088193919302C0E0E02D
:1056C000F0E0CF01DF91CF9108950F931F93CF9317
:1056D000DF93009709F48CC0FC0132971382128289
:1056E00000912008109121080115110581F42081F5
:1056F0003181820F931F20911E0830911F082817B7
:10570000390779F5F0931F08E0931E0871C0D8019E
:1057100040E050E0AE17BF0750F412962D913C9137
:105720001397AD012115310509F1D901F3CF9D0181
:10573000DA013383228360817181860F971F82177C
:10574000930769F4EC0128813981260F371F2E5FFA
:105750003F4F318320838A819B8193838283452BB2
:1057600029F4F0932108E093200842C01396FC939B
:10577000EE931297ED01499159919E01240F351F27
:10578000E217F30771F480819181840F951F0296CF
:1057900011969C938E938281938113969C938E9302
:1057A0001297E0E0F0E0D80112968D919C9113974A
:1057B000009719F0F8018C01F6CF8D919C9198011A
:1057C0002E5F3F4F820F931F20911E0830911F08BC
:1057D0002817390769F4309729F41092210810929C
:1057E000200802C01382128210931F0800931E0823
:1057F000DF91CF911F910F91089581E090E0F8948F
:105800000C94442CFB01DC0105900D920020E1F783
:105810000895FB01DC014150504048F005900D9285
:105820000020C9F701C01D9241505040E0F7089593
:10583000FB01DC0101900D920020E1F70895FB01CE
:10584000DC014150504048F001900D920020C9F712
:1058500001C01D9241505040E0F70895F999FECFE4
:1058600092BD81BDF89A992780B50895262FF999A0
:10587000FECF1FBA92BD81BD20BD0FB6F894FA9A33
:0C588000F99A0FBE01960895F894FFCF2E
:10588C000000220880000100000080841E003C0003
:10589C00020001B8010100040001003200A0000167
:1058AC0001000103070F1F3F7F0080C0E0F0F8FCF0
:1058BC00FE000000000000000000000000000000DE
:1058CC0000000000000000000000000000000000CC
:1058DC0000000000000000000000000000000000BC
:1058EC0000000000000000000000000000000000AC
:1058FC00808080000000000000000000000000001C
:10590C0000008080C0C0000000000000000000000B
:10591C00000000000000000000000000000000007B
:10592C00000000000000000000000000000000006B
:10593C00000000000000000000000000000000005B
:10594C00000000000080C0E0F0F8FCF8E00000006F
:10595C00000000000000000000000000000080803B
:10596C00808080008080000000008080808080002B
:10597C00FFFFFF000000008080808000008080001E
:10598C000080FFFF8080008080008080808000800D
:10599C00800000000000808000008C8E840000805D
:1059AC00F8F8F88000000000000000000000000083
:1059BC0000F0F0F0F0F0F0F0F0F0F0F0F0E0E0C01B
:1059CC008000E0FCFEFFFFFF7FFFFFFFFFFF0000FA
:1059DC00000000000000000000000000FEFFC701F6
:1059EC0001010183FFFF00007CFEC701010101835F
:1059FC00FFFFFF0038FEC78301010183C7FFFF00D3
:105A0C000001FFFF010100FFFF0701010100007F02
:105A1C00FF80000000FFFF7F0000FFFFFF00000180
:105A2C00FFFFFF010000000000000000000000006C
:105A3C0000030F3F7F7FFFFFFFFFFFFFFFE7C7C79D
:105A4C008F8F9FBFFFFFC3C0F0FFFFFFFFFFFCFC6A
:105A5C00FCFCFCFCFCFCF8F8F0F0E0C000010303DB
:105A6C00030303010303000000000103030303010C
:105A7C000103010000000103030303010103030000
:105A8C0000000303000000030300000000000000FE
:105A9C0001030303030301000000010301000000E4
:105AAC0003030100000000000000000000000000E3
:105ABC000000000080C0E0F0F9FFFFFFFFFF3F1F78
:105ACC000F87C7F7FFFF1F1F3DFCF8F8F8F87C7D28
