:100000000C94E7030C940F1D0C943C1D0C940F04EE
:100010000C940F040C940F040C940F040C947A1A93
:100020000C940F040C940F040C940F040C940F0404
:100030000C940F040C940F040C940F040C940F04F4
:100040000C94691D0C940F040C940F040C940F0471
:100050000C940F040C940F040C940F040C940F04D4
:100060000C94F9210C940F04426F72726172206338
:10007000616E63696F6E0043616E63696F6E2061CC
:1000800020696E7365727461723A00496E736572AD
:1000900074617220646573707565732064653A00DD
:1000A000456C696765206C612063616E63696F6E82
:1000B0003A00506F736963696F6E206120656469EF
:1000C0007461723A00456C696765206C6120706FDD
:1000D000736963696F6E3A004E6F6D62726520726C
:1000E00065706572746F72696F3A00456C69676517
:1000F000207265706572746F72696F3A0053544173
:100100005254002042504D0A0A00535441525400A8
:100110002042504D0A0A0000000000003FF000009D
:100120007FF80300E01C0700E01C0E00C30C7C00FD
:10013000C30C9801C00E8401830644018006F403B9
:100140008307C0038003800303070003000F8007B9
:10015000031F8006031D80060339800E0371C00E45
:1001600003E0C00C0FC0C01C1030E01C2010601851
:1001700040086018400860387FF8703C0000F03F8D
:10018000FFFFF07FFFFFF87FFFFFF87FFFFFF87FA3
:10019000FFFFF87FFFFFF87FFFFFF8564143494F0D
:1001A00000BD01C901D301DB01EE010002140223ED
:1001B0000231023F02500261026E0271025265700A
:1001C0006572746F72696F730043616E63696F6EFD
:1001D000657300416A75737465730043616D62698C
:1001E0006172205265706572746F72696F00456448
:1001F00069746172205265706572746F72696F0004
:10020000456C696D696E6172205265706572746FBC
:1002100072696F0043616D62696172204E6F6D6239
:1002200072650043616D62696172204F7264656E30
:100230000043616D62696172204F7264656E0049AE
:100240006E7365727461722043616E63696F6E00D4
:10025000456C696D696E61722043616E63696F6E92
:1002600000566163696172204F7264656E004E4F83
:100270000053490000000000003E5B4F5B3E3E6BB8
:100280004F6B3E1C3E7C3E1C183C7E3C181C577D30
:10029000571C1C5E7F5E1C00183C1800FFE7C3E77C
:1002A000FF0018241800FFE7DBE7FF30483A060E8E
:1002B0002629792926407F050507407F05253F5AD5
:1002C0003CE73C5A7F3E1C1C08081C1C3E7F142245
:1002D0007F22145F5F005F5F06097F017F006689F0
:1002E000956A606060606094A2FFA29408047E0436
:1002F0000810207E201008082A1C08081C2A08085C
:100300001E101010100C1E0C1E0C30383E3830061B
:100310000E3E0E06000000000000005F0000000717
:10032000000700147F147F14242A7F2A1223130845
:10033000646236495620500008070300001C224121
:10034000000041221C002A1C7F1C2A08083E0808C5
:100350000080703000080808080800006060002075
:10036000100804023E5149453E00427F4000724958
:100370004949462141494D331814127F10274545FC
:1003800045393C4A49493141211109073649494912
:1003900036464949291E0000140000004034000080
:1003A00000081422411414141414004122140802E9
:1003B000015909063E415D594E7C1211127C7F495C
:1003C0004949363E414141227F4141413E7F4949B1
:1003D00049417F090909013E414151737F080808DD
:1003E0007F00417F41002040413F017F08142241AE
:1003F0007F404040407F021C027F7F0408107F3E08
:100400004141413E7F090909063E4151215E7F0974
:10041000192946264949493203017F01033F4040DB
:10042000403F1F2040201F3F4038403F63140814C6
:100430006303047804036159494D43007F414141FE
:100440000204081020004141417F040201020440DF
:1004500040404040000307080020545478407F2863
:100460004444383844444428384444287F38545459
:10047000541800087E090218A4A49C787F0804047C
:100480007800447D40002040403D007F102844001B
:1004900000417F40007C047804787C0804047838AC
:1004A00044444438FC1824241818242418FC7C08DC
:1004B000040408485454542404043F44243C404059
:1004C000207C1C2040201C3C4030403C442810280C
:1004D000444C9090907C4464544C44000836410055
:1004E0000000770000004136080002010204023CCF
:1004F0002623263C1EA1A161123A4040207A38549E
:100500005455592155557941225454784221555416
:10051000784020545579400C1E5272123955555569
:1005200059395454545939555454580000457C4154
:100530000002457D420001457C407D1211127DF094
:10054000282528F07C545545002054547C547C0ABE
:10055000097F4932494949323A4444443A324A4887
:1005600048303A4141217A3A42402078009DA0A08B
:100570007D3D4242423D3D4040403D3C24FF2424DD
:10058000487E4943662B2FFC2F2BFF0929F620C0FC
:10059000887E090320545479410000447D4130484D
:1005A000484A32384040227A007A0A0A727D0D1990
:1005B000317D2629292F28262929292630484D40F2
:1005C00020380808080808080808382F10C8ACBAEE
:1005D0002F102834FA00007B000008142A1422226D
:1005E000142A1408AA005500AAAA55AA55AA000060
:1005F00000FF00101010FF00141414FF001010FF73
:1006000000FF1010F010F0141414FC001414F70084
:10061000FF0000FF00FF1414F404FC141417101F53
:1006200010101F101F1414141F00101010F00000E1
:1006300000001F101010101F10101010F0100000FC
:1006400000FF101010101010101010FF100000000C
:10065000FF140000FF00FF00001F10170000FC0443
:10066000F414141710171414F404F40000FF00F726
:1006700014141414141414F700F714141417141089
:10068000101F101F141414F4141010F010F00000B8
:100690001F101F0000001F14000000FC140000F0D9
:1006A00010F01010FF10FF141414FF141010101F7E
:1006B00000000000F010FFFFFFFFFFF0F0F0F0F08F
:1006C000FFFFFF0000000000FFFF0F0F0F0F0F38AC
:1006D00044443844FC4A4A4A347E02020606027EFA
:1006E000027E0263554941633844443C04407E2005
:1006F0001E2006027E020299A5E7A5991C2A492A16
:100700001C4C7201724C304A4D4D303048784830A4
:10071000BC625A463D3E494949007E0101017E2A9C
:100720002A2A2A2A44445F444440514A44404044CF
:100730004A51400000FF0103E080FF000008086B01
:100740006B083612362436060F090F0600001818FB
:100750000000001010003040FF0101001F01011EC9
:1007600000191D1712003C3C3C3C00000000000238
:1007700000000000240027002A00000000002500DF
:1007800028002B000000000023002600290004049C
:100790000404040404040202020202020303030329
:1007A0000303010204081020408001020408102005
:1007B00001020408102000000007000201000003ED
:1007C000040600000000000000003D04EF2011249A
:1007D0001FBECFEFD8E0DEBFCDBF15E0A0E0B1E097
:1007E000E8E1F8E402C005900D92A03CB107D9F70A
:1007F00017E0A0ECB5E001C01D92A931B107E1F707
:1008000017E0CEECD7E004C02297FE010E94062438
:10081000CA3CD107C9F70E94A8180C940A240C946A
:100820000000FB01DC0105900D920020E1F7089526
:10083000FB01DC014150504048F005900D92002032
:10084000C9F701C01D9241505040E0F70895FB01E7
:10085000DC0101900D920020E1F70895FB01DC011D
:100860004150504048F001900D920020C9F701C05E
:100870001D9241505040E0F7089580EC95E064E00F
:100880000E94AD160895DF92EF92FF920F931F938F
:1008900080912906609128060E94FD17D82E0E949B
:1008A0000E187C0109E016E0C801B7010E94270478
:1008B000C7010E94E21F8D2D0E94F217F801828766
:1008C0008D2D0E94E417F80183878D2D0E94D61785
:1008D000F80184871F910F91FF90EF90DF900895AA
:1008E0000F931F93809129060E945E188C0186E168
:1008F00096E0B8010E942704C8010E94E21F1F91E0
:100900000F910895AF92BF92CF92DF92EF92FF9234
:100910000F931F93DF93CF93CDB7DEB76E970FB6CC
:10092000F894DEBF0FBECDBF80912201882321F055
:10093000813009F038C3FAC080912101882309F47D
:1009400097C0813009F02FC300EC15E0C8010E9468
:10095000C613C80160E070E040E050E00E94DB1088
:10096000C80161E070E040E050E00E94ED1060914D
:10097000290670E06F5F7F4FC8014AE050E00E9497
:10098000191A0F2EF0E0EF2EF1E0FF2EF02DC80126
:10099000B7010E942C1AC80166E176E00E942C1A69
:1009A000C80162E071E00E942C1A6091280670E094
:1009B0006F5F7F4FC8014AE050E00E94191AC801DA
:1009C000B7010E942C1AC80169E076E00E942C1A37
:1009D000C80164E071E00E942C1AC80162E00E9424
:1009E000E1106091240170912501C8014AE050E0B6
:1009F0000E94C819C80160E171E00E94E218C801B4
:100A000061E00E94E11060912A0170912B01C80100
:100A10004AE050E00E94C819C80167E071E00E94F6
:100A20002C1A6091280170912901660F771F660FBB
:100A3000771FC8014AE050E00E94C819C80169E068
:100A400071E00E942C1A80912706882331F0C8019A
:100A50006AE071E00E94E21806C080EC95E060E177
:100A600071E00E942C1A80EC95E00E9471149BC2E8
:100A700000EC15E0C8010E94C613C80160E070E0F8
:100A800040E050E00E94DB10C80161E070E040E00F
:100A900050E00E94ED10C80162E00E94E1106091F8
:100AA000240170912501C8014AE050E00E94C81954
:100AB000C80163E071E00E94E218C80161E00E9491
:100AC000E11060912A0170912B01C8014AE050E0C9
:100AD0000E94C819C80167E071E00E942C1A609159
:100AE000280170912901660F771F660F771FC801D3
:100AF0004AE050E00E94C819C80169E071E00E9414
:100B00002C1A80912706882331F0C8016DEF70E020
:100B10000E94E21806C080EC95E060E171E00E945E
:100B20002C1A80EC95E00E9471143DC200EC15E097
:100B3000C8010E94C613C80160E070E040E050E0C8
:100B40000E94DB10E0913301E73009F408C1E8307E
:100B500048F4E43009F464C0E63009F4D2C0E2306D
:100B600051F415C0E93009F475C1E93008F444C105
:100B7000EA3009F492C1F0E0EE0FFF1FEE0FFF1F05
:100B8000E55BFA4F8081882309F0B5C108C200EC0B
:100B900015E0C80161E070E040E050E00E94ED1017
:100BA000C8016BEE70E00E942519EE24FF24680155
:100BB0000F2EF0E0AF2EF1E0BF2EF02D80912C062D
:100BC00090E08E159F0541F4C60160E070E041E0C1
:100BD00050E00E94ED1007C0C60161E070E040E007
:100BE00050E00E94ED108E2D0E945E188C0108943A
:100BF000E11CF11CC601B7014AE050E00E94191A3D
:100C0000C601B5010E942C1AC601B8010E942F1A14
:100C1000C8010E94E21F83E0E816F10479F6BFC123
:100C200000EC15E0C80161E070E040E050E00E9497
:100C3000ED10C80168ED70E00E94251980912A0628
:100C400090912B061816190654F580912E062091C6
:100C50002F0630913006F901E80FF11D80818823BD
:100C600011F480E2808380912E0620912F0630912E
:100C70003006F901E80FF11D80818A3711F488ED03
:100C8000808320912E0680912F0690913006FC01E2
:100C9000E20FF11D80818A3710F48F5F808380918D
:100CA0002A0690912B0699239CF420912E06809180
:100CB0002F0690913006FC01E20FF11D8081883DE6
:100CC00019F48AE7808304C0813210F08150808358
:100CD00000EC15E060912F0670913006C8010E946B
:100CE0002F1A60912E0686E0689FB0011124C8017A
:100CF0004FE050E026E030E001E010E00E94FF10FD
:100D00004EC100EC15E0C80165EC70E00E942519A9
:100D1000C80161E070E040E050E00E94ED10809179
:100D2000290660912C060E94FD170E940E187C0176
:100D300060912C0670E06F5F7F4FC8014AE050E081
:100D40000E94191AC80160E071E00E942C1AC801C3
:100D5000B7010E942F1AC7010E94E21F20C100ECB8
:100D600015E0C80162EB70E00E9425198091290608
:100D7000609131060E94FD170E940E187C0160915F
:100D8000310670E06F5F7F4FC8014AE050E00E947B
:100D9000191A0F2EF0E0CF2EF1E0DF2EF02DC80152
:100DA000B6010E942C1AC801B7010E942F1AC8016F
:100DB00062E071E00E942F1AC80160EA70E00E94B0
:100DC000251980912C060E940E187C016091310635
:100DD00070E06F5F7F4FC8014AE050E00E94191A2F
:100DE000C801B6010E942C1AC801B7010E942F1A2F
:100DF000C7010E94E21FD3C000EC15E0C8016BE8F8
:100E000070E00E942519C80161E070E040E050E008
:100E10000E94ED108091290660912C060E94FD171A
:100E20000E940E187C0160912C0670E06F5F7F4F6E
:100E3000C8014AE050E00E94191AC80160E071E060
:100E40000E942C1AC801B7010E942F1AC7010E94E4
:100E5000E21FA5C000EC15E0C80167E770E00E9442
:100E6000251980912C060E940E187C016091310694
:100E700070E06E5F7F4FC8014AE050E00E94191A8F
:100E8000C80160E071E00E942C1AC801B7010E94FD
:100E90002F1AC7010E94E21F82C000EC15E0C801B2
:100EA00068E670E00E942519C80161E070E040E04A
:100EB00050E00E94ED108091290660912C060E945E
:100EC000FD170E940E187C0160912C0670E06F5F88
:100ED0007F4FC8014AE050E00E94191AC80160E043
:100EE00071E00E942C1AC801B7010E942F1AC70195
:100EF0000E94E21F54C000E010E00F2EF0ECEF2E35
:100F0000F5E0FF2EF02D0F2EFBE4AF2EF5E0BF2E07
:100F1000F02D6E010894C11CD11C80912C0690E02C
:100F20008017910741F4C70160E070E041E050E0B4
:100F30000E94ED1007C0C70161E070E040E050E0A2
:100F40000E94ED108091330190E0880F991F880F67
:100F5000991FF501E80FF91F9801220F331F8281B5
:100F60009381FC01E20FF31F65917491C6010E9409
:100F70001104C701B6010E942F1A0F5F1F4F809105
:100F8000330190E0880F991F880F991FF501E80F32
:100F9000F91F808190E0081719070CF4BECF80EC90
:100FA00095E00E9471146E960FB6F894DEBF0FBEE6
:100FB000CDBFCF91DF911F910F91FF90EF90DF9008
:100FC000CF90BF90AF9008951F93CF93DF93EB0125
:100FD000182F0E94F21E892B09F06EC0FE01EE0F41
:100FE000FF1FCE01880F991F880F991F880F991F27
:100FF000E80FF91FE551FA4F17821682138280819C
:10100000882311F040E019C040E0FE01EE0FFF1F01
:10101000CE01880F991F880F991F880F991FE80F1D
:10102000F91FE151FA4F2081318180912F01909178
:1010300030012817390708F041E0CE01880F991FC9
:10104000880F991F8C0F9D1F0196ABEEB5E0880F9E
:10105000991FFD01E80FF91F4083CE01880F991FEA
:101060009E01220F331F220F331F220F331F820FC7
:10107000931FA80FB91F14962D913C91159780913D
:101080002F01909130012817390720F0FD0181E0F0
:10109000808312C0FE01EE0FFF1FCE01880F991F43
:1010A000880F991F880F991FE80FF91FE151FA4F18
:1010B000C901019691838083812F0E94F21E0197BE
:1010C00009F07BC0ABEEB5E0CE01880F991F9E0101
:1010D000220F331F220F331F220F331F820F931F44
:1010E000FD01E80FF91F1582148211861086118206
:1010F000CE01880F991F880F991F8C0F9D1F019695
:10110000880F991FA80FB91F1C928081882311F4A2
:1011100040E019C040E0FE01EE0FFF1FCE01880F36
:10112000991F880F991F880F991FE80FF91FEF501B
:10113000FA4F2081318180912F0190913001281741
:10114000390708F041E0FE01EE0FFF1FCE01880FC6
:10115000991F880F991F880F991FE80FF91FE551F4
:10116000FA4F43832681378180912F01909130017E
:101170002817390780F0FE01EE0FFF1FCE01880F00
:10118000991F880F991F880F991FE80FF91FE551C4
:10119000FA4F10825DC0FE01EE0FFF1FCE01880FD7
:1011A000991F880F991F880F991FE80FF91FEF509B
:1011B000FA4FC901019691838083FE01EE0FFF1F54
:1011C000CE01880F991F880F991F880F991FE80F6C
:1011D000F91FE551FA4F80818823D1F1FE01EE0F0E
:1011E000FF1FCE01880F991F880F991F880F991F25
:1011F000E80FF91FED50FA4F80819181019691839C
:10120000808320913101309132018217930789F454
:10121000FE01EE0FFF1FCE01880F991F880F991F47
:10122000880F991FE80FF91FE451FA4F81E080837E
:101230000FC0FE01EE0FFF1FCE01880F991F880F10
:10124000991F880F991FE80FF91FE451FA4F108278
:10125000DF91CF911F9108950F931F9381E00E941A
:10126000F21E8C0182E00E94F21E0817190751F449
:1012700080912A0690912B06019690932B068093DD
:101280002A0609C080912A0690912B060197909317
:101290002B0680932A061F910F9108958DE060E040
:1012A0000E949E1E8BE00E94631A10922E011092E3
:1012B0002D0110922C010E94BD1D60932306709396
:1012C000240680932506909326060895EF92FF92B8
:1012D0000F931F93CF93DF930E94BD1D7B018C0161
:1012E000C0912801D0912901809123069091240674
:1012F000A0912506B0912606E81AF90A0A0B1B0BE5
:101300009E0140E050E060911F06709120068091A0
:101310002106909122060E94C723E216F3060407D5
:10132000150768F181E080932E0120912C01309106
:101330002D0180912A0190912B01AC01C49FC00125
:10134000C59F900DD49F900D11248217930739F4F7
:1013500081E090E090932D0180932C0106C0C9019B
:10136000019690932D0180932C010E94BD1D6093E6
:101370002306709324068093250690932606809179
:101380002E01882321F18DE061E00E949E1E809154
:101390002C0190912D01019761F42091260130914B
:1013A000270140E050E08BE068EB71E00E94D61A24
:1013B0000BC0209126013091270140E050E08BE0E6
:1013C00066E071E00E94D61A10922E0107C08DE0EF
:1013D00060E00E949E1E8BE00E94631ADF91CF9115
:1013E0001F910F91FF90EF900895AF92BF92DF92FF
:1013F000EF92FF920F931F93DF93CF93CDB7DEB79A
:1014000028970FB6F894DEBF0FBECDBF80E090E006
:1014100060E070E00E94E40783E090E061E070E04B
:101420000E94E40785E090E062E070E00E94E4073B
:101430008091F705882341F1809122018130B9F430
:10144000E0913301EE2319F4109222010CC0F0E078
:10145000EE0FFF1FEE0FFF1FE45BFA4F80818093BA
:10146000330110922C0681E0809323010DC091E09E
:101470009093220110922C061092330180914B051B
:1014800080932D069093230180912201882321F0DF
:10149000813009F0F4C293C080912101882309F4BE
:1014A00060C0813009F0EBC280912A0690912B0632
:1014B0001816190664F4809128068D3140F48F5F68
:1014C000809328060E94430481E080932301809149
:1014D0002A0690912B06992364F48091280688238C
:1014E00041F08150809328060E94430481E080935C
:1014F0002301A3E1B6E0FD018191809324011092C4
:1015000025018081809328011092290112968C91E7
:1015100080932A0110922B01209124013091250102
:1015200040E050E060E67AEE80E090E00E94E9233F
:1015300020931F06309320064093210650932206E5
:101540008091ED05882309F49AC290E080912706E6
:10155000882309F491E09093270681E0809323018A
:101560008EC220912A0630912B0680912401909101
:101570002501280F391F309325012093240140E0D5
:1015800050E060E67AEE80E090E00E94E92320934C
:101590001F06309320064093210650932206809127
:1015A000ED05882341F090E080912706882309F417
:1015B00091E09093270681E08093230160C280919F
:1015C0002A0690912B0618161906ACF440912C06A9
:1015D000242F30E080912D0690E0019728173907DD
:1015E0002CF4842F8F5F80932C0602C010922C065F
:1015F00081E08093230180912A0690912B06992304
:1016000084F480912C06882321F0815080932C064D
:1016100005C080912D06815080932C0681E0809337
:10162000230180910106882309F429C280913301A6
:10163000863009F42BC1873090F4823009F46EC0F3
:10164000833030F4882349F1813009F018C236C064
:10165000843009F49DC0853008F0D3C06FC0893054
:1016600099F08A3038F4873009F420C1883009F0C5
:1016700006C231C18B3009F4B0C18B3008F475C19A
:101680008C3009F0FCC1CBC160913106862F90E00F
:1016900001964D970CF430C14BC180912C068823E4
:1016A00009F0EDC110922C0691E0909333018091E6
:1016B0004F0580932D0690932301E1C180912C0664
:1016C000813091F0813020F0823009F0D8C119C00A
:1016D00010922C0682E08093330183E080932D06E4
:1016E00081E080932301CBC110922C0683E080938C
:1016F00033018091570580932D0681E0809323016B
:10170000BEC110922C068CE08093330180917B0542
:1017100080932D0681E080932301B1C180912C0636
:1017200080932906109228060E9470040E944304A8
:101730001092220181E080932301A1C180912C06A7
:10174000882321F0813009F09AC115C010922C062F
:1017500084E08093330110922D06809129060E9427
:101760005E189093300680932F0610922E0681E02B
:101770008093230184C110922C0685E0809333016D
:1017800080915F0580932D0681E08093230177C1CE
:1017900020912E0680912F0690913006FC01E20FD9
:1017A000F11D8081883D01F5108260912F067091B6
:1017B0003006809129060E94A21780912F069091F1
:1017C00030060E94E21FE0913301F0E0EE0FFF1FB0
:1017D000EE0FFF1FE45BFA4F80818093330110927C
:1017E0002C060E94700409C0283028F4822F8F5FD5
:1017F00080932E0602C010922E0681E08093230172
:101800003EC180912C068130B1F0813030F08230C1
:1018100009F1833009F033C12CC010922C0686E008
:10182000809333018EE180932D061092310681E082
:101830008093230124C110922C0688E08093330109
:1018400080916B0580932D061092310681E0809384
:10185000230115C110922C068AE0809333018091F8
:10186000730580932D061092310681E08093230149
:1018700006C110922C068BE080933301809177058E
:1018800080932D0681E080932301F9C080912C067E
:101890008093310610922C0687E0809333018EE10D
:1018A00080932D0681E080932301E9C08091290671
:1018B0006091310640912C060E9494178091310668
:1018C00080932C061092310686E08093330181E0EC
:1018D00080932301D4C080912C068093310610920E
:1018E0002C0689E08093330180916F0580932D064B
:1018F00081E080932301C3C00F2EFDE1EF2EFF2472
:10190000F02D109129066E2D6150812F0E94FD1738
:10191000482F812F6E2D0E9494170894E108F1083A
:1019200060913106862F90E001968E159F054CF34D
:101930006F5F8091290640912C060E9494171092A7
:101940002C0610923106E0913301F0E0EE0FFF1FFC
:10195000EE0FFF1FE45BFA4F8081809333010E94FA
:10196000430481E0809323018AC020912C06822FBA
:1019700090E08D319105DCF4022FEE24FF245C0110
:1019800010912906D02ED394812F6D2D0E94FD1722
:10199000482F812F602F0E9494170894E11CF11C9E
:1019A000C7018A0D9B1D4D9714F40D2DE9CF1092A0
:1019B0002C0610923106E0913301F0E0EE0FFF1F8C
:1019C000EE0FFF1FE45BFA4F8081809333010E948A
:1019D000430481E08093230152C080912C06813022
:1019E00051F410E080912906612F40E00E94941785
:1019F0001F5F1E31B9F710922C06E0913301F0E021
:101A0000EE0FFF1FEE0FFF1FE45BFA4F8081809304
:101A100033010E94430481E08093230130C0809110
:101A20002C06813051F410E080912906612F40E0AE
:101A30000E9494171F5F1E31B9F78E010F5F1F4F71
:101A4000C8016BE971E048E050E00E941804809101
:101A50002906B8010E94A21710922C06E0913301CA
:101A6000F0E0EE0FFF1FEE0FFF1FE45BFA4F8081E7
:101A7000809333010E94700481E080932301809160
:101A80002706882319F00E94660902C00E944E09A9
:101A900080912301882321F00E9482041092230167
:101AA00010922B0610922A06A89528960FB6F89445
:101AB000DEBF0FBECDBFCF91DF911F910F91FF9081
:101AC000EF90DF90BF90AF9008950F931F9388E140
:101AD0000FB6F89480936000109260000FBE82E011
:101AE00062E00E945F1E81E062E00E945F1E80E073
:101AF00062E00E945F1E83E062E00E945F1E85E05C
:101B000062E00E945F1E8BE061E00E945F1E8DE03C
:101B100061E00E945F1E84E061E00E945F1E80E041
:101B20006CE279E041E050E00E94EC1C00EC15E032
:101B3000C80162E04DE321E00E945F15C8010E94E8
:101B4000C613C80161E00E94E110C80161E070E0C5
:101B50000E94E7102FE088E190E00FB6F894A89576
:101B6000809360000FBE209360000E9470040E946A
:101B700043041F910F910895FC011382128283E8A0
:101B800095E091838083758364835783468371874F
:101B9000608753874287158A1586148617861686AE
:101BA00021E0248B8FEF9FEF938B828B918B808B27
:101BB000268B08952F923F924F925F926F927F9261
:101BC0008F929F92AF92BF92CF92DF92EF92FF924D
:101BD0000F931F93DF93CF9300D000D0CDB7DEB724
:101BE0004C017C836B836A015901FA82E9824424A7
:101BF00055249801241B350B1AF4309521953F4F3D
:101C0000C5014B815C81841B950B1AF490958195DD
:101C10009F4F821793071CF4442455244394411486
:101C2000510451F08C2D9D2DCB80DC809C838B83C7
:101C3000802F912F85015C018B819C81A816B906AC
:101C400054F48A2D9B2DAB80BC809C838B83802F8A
:101C5000912F86016C017801EC18FD0822F4F094B4
:101C6000E194F108F394C016D10624F022242A94BA
:101C7000322C03C0222433242394AB81BC81AA16C6
:101C8000BB06B4F135016A1A7B0AC3010AF4019656
:101C90008C01159507954114510471F0D401ED9113
:101CA000FC910480F581E02DC401B6014B815C817B
:101CB00029813A8109950DC0D401ED91FC910480F0
:101CC000F581E02DC4016B817C81A60129813A81D7
:101CD00009950E191F0922F4C20CD31C060D171DFD
:101CE000EB81FC813196FC83EB83AE16BF069CF63C
:101CF0000F900F900F900F90CF91DF911F910F9148
:101D0000FF90EF90DF90CF90BF90AF909F908F901B
:101D10007F906F905F904F903F902F9008954F92DB
:101D20005F926F927F928F929F92AF92BF92CF926B
:101D3000DF92EF92FF920F931F936C015B014A01B8
:101D400039012801DC01ED91FC910284F385E02D3D
:101D500087010995D601ED91FC91A40141505040B5
:101D6000440D551D0284F385E02DC601B501930194
:101D70000995D601ED91FC910084F185E02DC60115
:101D8000B501A40192010995D601ED91FC91089449
:101D9000A108B108A60CB71C0084F185E02DC6018E
:101DA000B501A401920109951F910F91FF90EF9049
:101DB000DF90CF90BF90AF909F908F907F906F906B
:101DC0005F904F900895CF92DF92EF92FF920F9322
:101DD0001F93DC016B017801ED91FC918A010150A8
:101DE0001040020F131F0680F781E02D9601099520
:101DF0001F910F91FF90EF90DF90CF900895CF92B9
:101E0000DF92EF92FF920F931F93DC016A01C901E9
:101E10007801ED91FC9111979B0121503040280FE2
:101E2000391F0680F781E02DCD01860109951F91AC
:101E30000F91FF90EF90DF90CF9008956F927F9277
:101E40008F929F92AF92BF92CF92DF92EF92FF92CA
:101E50000F931F93CF93DF936C013A014801570111
:101E60007901E60EF71E6E157F058CF4EB01D601A5
:101E7000ED91FC910084F185E02DC601BE01A30126
:101E80009401850109952196CE15DF0584F3DF9134
:101E9000CF911F910F91FF90EF90DF90CF90BF9067
:101EA000AF909F908F907F906F900895EF92FF92E8
:101EB0000F931F93FC017B01A081B18120853185A7
:101EC000028513851E960D90BC91A02D60E070E0F8
:101ED00040E050E0FD0109951F910F91FF90EF90B8
:101EE00008952F923F924F925F926F927F928F92BE
:101EF0009F92AF92BF92CF92DF92EF92FF920F9399
:101F00001F93DF93CF93CDB7DEB761970FB6F894E9
:101F1000DEBF0FBECDBF3C01E22F1801FB86EA8673
:101F2000AC2CDC0118968D919C9119976817790754
:101F30000CF0C6C01A968D919C911B9748175907B3
:101F40000CF0BEC04C2C55249B0121503040C201E6
:101F5000880F991F840D951D880F991F280F391F11
:101F600033230CF4ADC0CA0101979201220F331F35
:101F7000220F331F220F331F820F931F99230CF45C
:101F80009FC085E0E89F900111243C832B835886F5
:101F90004F827E836D837A8369831986CA014E8757
:101FA0009F873985353009F47FC0EB81FC81EC587F
:101FB000FD4F24917AC0C40195958795282F822ED4
:101FC000992420FF20C081E0A81669F4D301ED9187
:101FD000FC910480F581E02DC3016D817E81A60115
:101FE0009101099536C0D301ED91FC910684F785E6
:101FF000E02DC3016C857D85488959899201820154
:102000007101099526C0EA85FB85E215F30509F102
:10201000F1E0AF1671F4D301ED91FC910480F581EC
:10202000E02DC3016D817E81A6012A853B8509953E
:1020300010C0D301ED91FC910684F785E02DC3011A
:102040006C857D854889598992018201EA84FB84E7
:102050000995B394E889F9892F813885E20FF31F38
:10206000F98BE88B0894C11CD11C38E0B31609F039
:10207000A2CF89858F5F8987A981BA81EF81F88591
:10208000AE0FBF1FBA83A9832D813E812F5F3F4FC3
:102090003E832D838B819C8101969C838B839985C4
:1020A000963009F07ECF0CC020E0A981AC87BA81C0
:1020B000BD878E859F85998B888B6C01BB247FCFD4
:1020C00061960FB6F894DEBF0FBECDBFCF91DF9102
:1020D0001F910F91FF90EF90DF90CF90BF90AF9046
:1020E0009F908F907F906F905F904F903F902F9038
:1020F0000895CF92EF92FF920F931F93CF93DF93A8
:10210000EC01262F6A3089F42C8930E0220F331F2E
:10211000220F331F220F331F8E859F85820F931F3F
:102120009F878E871D861C863CC06D30D1F16C85E3
:102130007D854E855F8508891989EA88FB88CC886A
:102140000E94710F8C8926E0829FC00111242C858A
:102150003D85BC01620F731F7D876C878E89882344
:1021600001F18C89482F50E09A01220F331F240F70
:10217000351F220F331F88859985821B930B861785
:1021800097077CF49A01220F331F220F331F220F6F
:10219000331F8E859F85820F931F9F878E871D8695
:1021A0001C8681E090E0DF91CF911F910F91FF900D
:1021B000EF90CF900895FC01758764875787468715
:1021C0000895FC01662309F461E0648B0895FC0125
:1021D000738B628B718B608B0895FC01718B608BAC
:1021E000538B428B0895FC0185890895FC018085FD
:1021F00091850895FC0182859385089508950F9334
:102200001F93DC01F90155968C915597823079F036
:10221000833001F1813009F0ECC014968D919C91CE
:10222000159701979C01241B350BA90146C11696F1
:102230008D919C91179701979C01241B350BA90147
:1022400014968D919C911597861B970BBC016E1B64
:102250007F0BCFC016968D919C911797861B970B7D
:10226000BC01621B730B29C114968D919C9115972B
:10227000481759070CF024C1772324F4E60FF71F01
:1022800060E070E016962D913C911797CF01860F74
:10229000971F281739071CF4F901E61BF70B1E16C8
:1022A0001F060CF00DC1262F6E2F822F8695869566
:1022B000869590E09695982F8827979587958C5CC2
:1022C0009E4FDC01A40FB51F277091F188E0482FC5
:1022D000421B242F30E0F901E45CFA4FE0816417DF
:1022E00050F4261B31098FEF90E002C09595879539
:1022F0002A95E2F7E8230130110539F00130110584
:1023000040F00230110571F40AC08C918E2B8C9331
:1023100009C09E2F90958C9189238C9303C08C913A
:102320008E278C93641708F4CBC0641BA058BF4F52
:102330006830E0F102301105D9F4FD01962F80815B
:1023400080958083E058FF4F98509830C0F7862FD3
:102350008850682F677086958695869590E00196DF
:102360009695982F882797958795A80FB91F1EC017
:102370000130110511F090E001C09FEFFD01862FA3
:102380009083E058FF4F88508830D0F7862F8850D0
:10239000682F677086958695869590E0019696954C
:1023A000982F882797958795A80FB91F662309F45A
:1023B00087C0E62FF0E0E770F070EC5CFA4F208108
:1023C0000130110541F00130110548F002301105CE
:1023D00009F076C00AC08C91822B8C9371C0922F29
:1023E00090958C9189238C936BC08C9182278C93D0
:1023F00067C055230CF464C016968D919C91179775
:10240000481759070CF05CC0772324F4E60FF71F38
:1024100060E070E014962D913C911597CF01860FE6
:10242000971F281739071CF4F901E61BF70B1E1636
:102430001F060CF045C0CA0155230CF4079695956C
:10244000879595958795959587959695982F882743
:10245000979587958C5C9E4FDC01A60FB71F9A015C
:102460002770307081E090E002C0880F991F2A9594
:10247000E2F7482F0130110541F00130110568F0F5
:1024800002301105E9F49F0111C09F018C91842B4A
:102490008D9321503040D1F713C040959F018C910E
:1024A00084238D9321503040D1F70AC08C9184272A
:1024B0008D9321503040D1F703C055230CF0D4CE7A
:1024C0001F910F9108950F931F93DC01F901559609
:1024D0008C915597823079F0833001F1813009F089
:1024E00089C014968D919C911597841B950BAC0116
:1024F000421B530B45C114968D919C9115970197E2
:102500009C01261B370BB90116968D919C9117974C
:10251000841B950BAC014E1B5F0B6CC016968D9106
:102520009C91179701979C01261B370BB90128C175
:1025300016968D919C911797681779070CF023C117
:10254000552324F4E40FF51F40E050E014962D913C
:102550003C911597CF01840F951F281739071CF45C
:10256000F901E41BF50B1E161F060CF00CC1CB0184
:1025700077230CF40796959587959595879595956E
:1025800087959695982F8827979587958C5C9E4F71
:10259000DC01A40FB51F9B012770307081E090E033
:1025A00002C0880F991F2A95E2F7682F01301105A4
:1025B00049F00130110570F00230110509F0E3C057
:1025C0009F0111C09F018C91862B8D93215030402B
:1025D000D1F7D9C060959F018C9186238D932150AE
:1025E0003040D1F7D0C08C9186278D932150304058
:1025F000D1F7C9C077230CF4C6C014968D919C9175
:102600001597681779070CF0BEC0552324F4E40F22
:10261000F51F40E050E016962D913C911797CF01A1
:10262000840F951F281739071CF4F901E41BF50BDB
:102630001E161F060CF0A7C0242F4E2F822F869542
:102640008695869590E09695982F882797958795FB
:102650008C5C9E4FDC01A60FB71F277091F188E0BC
:10266000582F521B252F30E0F901E45CFA4FE0812E
:10267000451750F4241B31098FEF90E002C0959567
:1026800087952A95E2F7E8230130110539F00130EA
:10269000110540F00230110571F40AC08C918E2BA7
:1026A0008C9309C09E2F90958C9189238C9303C0A5
:1026B0008C918E278C93451708F465C0451BA05854
:1026C000BF4F4830E0F102301105D9F4FD01942FDD
:1026D000808180958083E058FF4F98509830C0F7F4
:1026E000842F8850482F477086958695869590E070
:1026F00001969695982F882797958795A80FB91FCB
:102700001EC00130110511F090E001C09FEFFD01E6
:10271000842F9083E058FF4F88508830D0F7842F63
:102720008850482F477086958695869590E001964B
:102730009695982F882797958795A80FB91F4423BA
:1027400011F1E42FF0E0E770F070EC5CFA4F2081BB
:102750000130110539F00130110540F0023011054A
:1027600091F40AC08C91822B8C930DC0922F90957E
:102770008C9189238C9307C08C9182278C9303C002
:1027800077230CF0D5CE1F910F91089580E094E04F
:10279000E4E3F1E0DF019C011D9221503040E1F7BC
:1027A0000895FF920F931F93DC01F62E59968C919A
:1027B00059978F3F09F472C09396ED91FC919497CD
:1027C000808199969C919997892B80839596ED911C
:1027D000FC91969790819A968C919A9780958923EF
:1027E00080839396ED91FC919497908199968C912A
:1027F00099978095892380835E968C915E97882334
:1028000041F06EBDEDE4F0E080818823ECF78EB5F9
:102810003BC040E820E030E070E09196ED91FC9103
:102820009297908198968C91989780958923808330
:10283000842F90E086239723892B59F05F96ED91A2
:10284000FC919097808197969C919797892B808394
:102850000BC05F96ED91FC919097908197968C912B
:1028600097978095892380839196ED91FC9192971B
:10287000808198969C919897892B808346952F5FAD
:102880003F4F2830310549F69396ED91FC9194978E
:10289000808199969C91892B808315C00BE916E065
:1028A00057966C91772767FD7095C8010E94B520F7
:1028B000C80160E00E943721C8016F2D0E943721B6
:1028C000C8010E947A211F910F91FF9008956623FD
:1028D00021F067EA0E94D113089566EA0E94D1139D
:1028E00008957F928F929F92AF92BF92CF92DF9284
:1028F000EF92FF920F931F93CF93DF937C0161E2DE
:102900000E94D113C70160E00E94D113C7016FE795
:102910000E94D113C70162E20E94D113C70160E097
:102920000E94D113C70167E00E94D113D7015996C5
:102930008C9159978F3F09F47BC09396ED91FC9150
:102940009497808199969C919997892B80839596ED
:10295000ED91FC91969780819A969C919A97892BFC
:1029600080839396ED91FC919497908199968C91A8
:10297000809589238083A4E3B1E050E8AA24BB2496
:102980000F2EFEE4CF2EDD24F02D0F2EFDE48F2E32
:102990009924F02D04E315E09C91E7018E8D8823A6
:1029A00049F0F6019083E40188818823E4F7F60179
:1029B00080812EC0452F9501692F70E0E701E9A1C4
:1029C000FAA1908188A5809589238083842F90E047
:1029D00086239723892B39F0EF8DF8A180819FA161
:1029E000892B808308C0E701EF8DF8A190818FA12A
:1029F000809589238083E701E9A1FAA1808198A5C8
:102A0000892B808346952F5F3F4F28303105B1F6E3
:102A10001196A017B10709F0BFCFD7019396ED919A
:102A2000FC919497808199969C91892B808339C0E1
:102A3000E8EBF0E070808CE08083AA24BB240F2EAA
:102A4000FBE9CF2EF6E0DF2EF02D0F2EF4E38F2ED4
:102A5000F1E09F2EF02D00E0E7016F89772767FDF9
:102A60007095C6010E94B520C60160E40E9437211E
:102A7000E401CA0DDB1D102FC60169910E943721A8
:102A80001F5F1031C9F7E0E1F0E0AE0EBF1EC601D6
:102A90000E947A21F0E0AF16F4E0BF06E9F67092EA
:102AA000B800DF91CF911F910F91FF90EF90DF90D1
:102AB000CF90BF90AF909F908F907F9008950F938D
:102AC0001F93CF93DF93EC01062F122F688F4F8B4C
:102AD000898D8F3F09F487C08B8D61E00E945F1E56
:102AE0008D8D61E00E945F1E2D8D332727FD30956F
:102AF000AEE8B7E0FD01E20FF31FE4918E2F90E006
:102B0000880F991F4AE757E0FA01E80FF91F8591EE
:102B100094919CA38BA362EA77E0FB01E20FF31F81
:102B2000E491E9A72B8D332727FD3095FD01E20FB6
:102B3000F31F849190E0880F991FFA01E80FF91FA5
:102B4000859194919EA38DA3FB01E20FF31FE49165
:102B5000EAA78E8D882309F040C0898D61E00E942C
:102B60005F1E8A8D61E00E945F1E2A8D332727FD3C
:102B70003095AEE8B7E0FD01E20FF31FE4918E2F30
:102B800090E0880F991F4AE757E0FA01E80FF91F14
:102B9000859194919AA389A362EA77E0FB01E20F01
:102BA000F31FE491E8A7298D332727FD3095FD0118
:102BB000E20FF31F849190E0880F991FFA01E80F4C
:102BC000F91F8591949198A38F8FFB01E20FF31F5A
:102BD000E491EFA38E8D882351F00E949E2084E023
:102BE0000E948D2004C08BE996E00E947E21112373
:102BF000E1F08C8D61E00E945F1E8C8D61E00E948F
:102C00009E1E61E070E080E090E00E94CB1D8C8D04
:102C100060E00E949E1E6AE070E080E090E00E940A
:102C2000CB1D8C8D61E00E949E1ECE016EEA0E943B
:102C3000D113CE0165ED0E94D113CE0160E80E9450
:102C4000D113CE0168EA0E94D113CE016FE30E9436
:102C5000D113CE0163ED0E94D113CE0160E00E943A
:102C6000D113CE0160E40E94D113CE016DE80E9421
:102C7000D113013069F5CE0160E10E94D113CE017C
:102C800060E20E94D113CE0160E00E94D113CE0118
:102C900061EA0E94D113CE0168EC0E94D113CE01EB
:102CA0006AED0E94D113CE0162E10E94D113CE01E0
:102CB00061E80E94D113CE016FE90E94D113CE01C9
:102CC00069ED0E94D113CE0162E20E94D1132CC0A3
:102CD000CE0164E10E94D113CE0160E20E94D113C3
:102CE000CE0160E00E94D113CE0161EA0E94D113AF
:102CF000CE0168EC0E94D113CE016AED0E94D1137F
:102D0000CE0162E10E94D113CE0161E80E94D1138D
:102D1000CE016FEC0E94D113CE0169ED0E94D11358
:102D2000CE0161EF0E94D113CE016BED0E94D11351
:102D3000CE0160E40E94D113CE0164EA0E94D11357
:102D4000CE0166EA0E94D113CE016FEA0E94D11330
:102D5000DF91CF911F910F910895FF920F931F93D1
:102D60008C01F62E60E870E040E450E00E94BC0D5B
:102D70008BE995E0F801918380838FEF818F858FB8
:102D8000838F828FF48E1F910F91FF900895AF92E1
:102D9000BF92CF92DF92EF92FF920F931F93CF9348
:102DA000DF93EC017B018A01690177230CF4B1C048
:102DB0009D2F0E94F610E816F9060CF0AAC0112308
:102DC0000CF4A7C08C2F9D2F0E94FA10081719072A
:102DD0000CF09FC090C08C819D810197801B910B4E
:102DE00087017C0116C08C819D8101979C012E1961
:102DF0003F0979018E819F8101979C01201B310B36
:102E0000890107C08E819F8101978E199F097801E2
:102E10008C0131E0C316D10451F081E0C816D10411
:102E200038F122E0C216D10409F073C043C0F801A2
:102E300011230CF43796F595E795F595E795F595FB
:102E4000E795F695FE2FEE27F795E795EE0DFF1D1A
:102E5000EC5CFE4F98012770307081E090E002C07A
:102E6000880F991F2A95E2F72081282B208351C0D3
:102E7000F80111230CF43796F595E795F595E7954C
:102E8000F595E795F695FE2FEE27F795E795EE0D6C
:102E9000FF1DEC5CFE4F98012770307081E090E0E0
:102EA00002C0880F991F2A95E2F780952081282378
:102EB00020832FC0F80111230CF43796F595E79580
:102EC000F595E795F595E795F695FE2FEE27F7959D
:102ED000E795EE0DFF1DEC5CFE4F980127703070FA
:102EE00081E090E002C0880F991F2A95E2F72081C7
:102EF000282720830EC08C2F9D2F0E94F310823034
:102F000009F471CF833009F47DCF813009F081CF8E
:102F100062CFDF91CF911F910F91FF90EF90DF90E3
:102F2000CF90BF90AF90089570E062577E4F96E2C9
:102F3000899FC0011124680F791F84E596E00E94E3
:102F400081200895CF92DF92EF92FF920F931F930B
:102F5000CF93DF9396E2899FC0011124EC01CA57F9
:102F6000DE4F262F372F89010F2EF4E5CF2EF6E006
:102F7000DF2EF02D0F2EFEE8EF2EF1E0FF2EF02DCC
:102F8000E80EF91EC601BE01F80141918F010E94B1
:102F900081202196CE15DF05A9F7DF91CF911F91F2
:102FA0000F91FF90EF90DF90CF9008959DE0899F63
:102FB000B0011124645F7F4F84E596E00E947A207F
:102FC0008F3F09F484E008959DE0899FB0011124AA
:102FD000655F7F4F84E596E00E947A208F3F09F479
:102FE00081E008959DE0899FB0011124665F7F4FC5
:102FF00084E596E00E947A20089570E062577E4F43
:1030000096E2899FC0011124680F791F84E596E03C
:103010000E947A208F3F09F480E00895AF92BF921A
:10302000CF92DF92EF92FF920F931F93CF93DF9394
:10303000182F8AE090E00E94451F082FF92EB82E25
:10304000A92E8DE0189FE001112484E596E0BE01D1
:103050000E947A208F3F49F4802F9F2D65E171E017
:103060004AE050E00E942E041CC09E01802F9F2D3C
:103070008C010F2EF4E5CF2EF6E0DF2EF02D0F2E73
:10308000FAE0EF2EFF24F02DE20EF31EC601BE0182
:103090000E947A20F80181938F012196CE15DF05D9
:1030A000A9F78B2D9A2DDF91CF911F910F91FF9052
:1030B000EF90DF90CF90BF90AF900895AF92BF9206
:1030C000CF92DF92EF92FF920F931F93CF93DF93F4
:1030D000082F88E090E00E94451F7C01BE2CAF2C99
:1030E00086E2089F800111240A571E4F84E596E06E
:1030F000B8010E947A208F3F49F48E2D9F2D6BE1FD
:1031000071E048E050E00E942E0415C0E7010F2E48
:10311000F4E5CF2EF6E0DF2EF02D88E090E0E80E0B
:10312000F91EC601B8010E947A2089930F5F1F4FD4
:10313000CE15DF05B1F78B2D9A2DDF91CF911F9121
:103140000F91FF90EF90DF90CF90BF90AF900895D8
:10315000CF93DF930E94241E0E94650DC0E0D0E053
:103160000E94F5092097E1F30E940000F9CF08952D
:10317000CF92DF92EF92FF920F931F93CF93DF9343
:103180007C016B018A01C0E0D0E00FC0D6016D91D7
:103190006D01D701ED91FC910190F081E02DC70107
:1031A0000995C80FD91F015010400115110571F77D
:1031B000CE01DF91CF911F910F91FF90EF90DF90A3
:1031C000CF900895EF92FF920F931F93CF93DF93C9
:1031D0007C018B01C0E0D0E0F8010F5F1F4F6491CC
:1031E000662359F0D701ED91FC910190F081E02D1B
:1031F000C7010995C80FD91FEFCFCE01DF91CF913D
:103200001F910F91FF90EF900895EF92FF920F930F
:103210001F938C01DC01ED91FC910190F081E02D78
:103220006DE009957C01D801ED91FC910190F08150
:10323000E02DC8016AE009959C012E0D3F1DC901D2
:103240001F910F91FF90EF900895EF92FF920F93CF
:103250001F937C010E94E2188C01C7010E9405198E
:103260009C01200F311FC9011F910F91FF90EF901A
:103270000895CF93DF93EC016115710519F420E0F7
:1032800030E00FC0DB010D900020E9F71197A61B7D
:10329000B70BE881F9810280F381E02DAD0109953A
:1032A0009C01C901DF91CF9108954F925F927F9267
:1032B0008F929F92AF92BF92CF92DF92EF92FF9246
:1032C0000F931F93DF93CF93CDB7DEB7A1970FB6C0
:1032D000F894DEBF0FBECDBF2C01742ECB0122307F
:1032E00008F42AE019A231E2C32ED12CCC0EDD1E47
:1032F000822E9924AA24BB24672D752FA501940141
:103300000E94C72379018A01C801B701A501940170
:103310000E94A823472D461B0894C108D1084A30B3
:1033200014F4405D01C0495CF6014083E114F104EE
:103330000105110521F07E2C5F2DC801DDCFC201F2
:10334000B6010E943919A1960FB6F894DEBF0FBEE0
:10335000CDBFCF91DF911F910F91FF90EF90DF9044
:10336000CF90BF90AF909F908F907F905F904F9045
:103370000895DC012115310541F4ED91FC91019096
:10338000F081E02D642F099508950E945519089544
:10339000EF92FF920F931F939A017B0100E010E0E0
:1033A000B801A7010E94B9191F910F91FF90EF90EA
:1033B0000895CF92DF92EF92FF920F931F93CF93D6
:1033C000DF93EC016A017B012115310541F4E881AD
:1033D000F9810190F081E02D642F09951FC02A30FA
:1033E0003105D1F477FF17C0E881F9810190F081B0
:1033F000E02D6DE209958C0144275527BA014C193F
:103400005D096E097F09CE012AE00E9455199801D5
:10341000280F391F04C02AE00E9455199C01C901D8
:10342000DF91CF911F910F91FF90EF90DF90CF90A0
:103430000895EF92FF920F931F937B019A0100274B
:10344000F7FC0095102FB801A7010E94D9191F9110
:103450000F91FF90EF9008950E9439190895EF920F
:10346000FF920F931F937C010E9439198C01C701B1
:103470000E940519080F191FC8011F910F91FF9095
:10348000EF900895813041F0813018F08230D1F40E
:1034900009C010926E00089580916F008D7F809317
:1034A0006F000895809170008D7F8093700081E09F
:1034B0008093B0008091B100887F84608093B100D8
:1034C0001092B30008951F93182F8091440581171F
:1034D00011F09FEF06C0EFE6F7E094918FEF809335
:1034E0004405892F0E94421A812F60E00E949E1E8F
:1034F0001F9108951F920F920FB60F9211242F93D0
:103500003F934F935F936F937F938F939F93AF936B
:10351000BF93EF93FF938091400690914106A09155
:103520004206B09143060097A105B10551F1E09123
:103530004406F09145068081909146068927808354
:103540008091400690914106A0914206B0914306B9
:10355000181619061A061B06C4F4809140069091AD
:103560004106A0914206B09143060197A109B10915
:103570008093400690934106A0934206B093430681
:1035800004C0809144050E94631AFF91EF91BF919E
:10359000AF919F918F917F916F915F914F913F91EB
:1035A0002F910F900FBE0F901F9018952F923F9262
:1035B0005F926F927F928F929F92AF92BF92CF92C3
:1035C000DF92EF92FF920F931F93DF93CF9300D080
:1035D00000D0CDB7DEB7A82F1B0129833A834B83D8
:1035E0005C83809144058A1721F4EFE6F7E054905C
:1035F00082C08F3F09F0DAC1A0934405EFE6F7E0FF
:1036000054902FEF521609F4D1C181E0581639F1C8
:1036100092E0591609F449C0552009F06CC014BC59
:1036200015BC84B5826084BD85B5816085BD2A2FB7
:1036300030E0F901E257F84FE491F0E0EE0FFF1FA0
:10364000E658F84F8591949190933706809336060B
:103650002E55384FF9018491809338064EC0109250
:1036600080001092810080918100886080938100A9
:10367000809181008160809381002A2F30E0F901E0
:10368000E257F84FE491F0E0EE0FFF1FE658F84FD5
:103690008591949190933E0680933D062E55384F28
:1036A000F901849180933F0628C01092B0001092D7
:1036B000B1008091B00082608093B0008091B10031
:1036C00081608093B1002A2F30E0F901E257F84F72
:1036D000E491F0E0EE0FFF1FE658F84F85919491CA
:1036E00090934506809344062E55384FF9018491F6
:1036F0008093460602C057FC59C18A2F61E00E94A0
:103700005F1E552021F0F2E05F1609F0BEC03101C6
:103710008824992460E079E08DE390E0A40193018E
:103720000E94E92359016A01860175010894E108A4
:10373000F108010911092FEFE216F1040105110545
:1037400009F008F499C060E271EA87E090E0A40112
:1037500093010E94E92379018A010894E108F108A4
:103760000109110982E05816C1F49FEFE916F1042E
:103770000105110509F008F484C068E478EE81E0E1
:1037800090E0A40193010E94E92379018A01089441
:10379000E108F1080109110983E0AFEFEA16F1042D
:1037A0000105110509F008F468C064E274EF80E0D7
:1037B00090E0A40193010E94E92379018A01089411
:1037C000E108F10801091109552011F483E01DC039
:1037D000B2E05B1611F084E018C0EFEFEE16F104D2
:1037E0000105110509F008F4DFC062E17AE780E025
:1037F00090E0A40193010E94E92379018A010894D1
:10380000E108F1080109110985E0FFEFEF16F10465
:103810000105110591F188F169E07DE380E090E018
:10382000A40193010E94E92379018A010894E10827
:10383000F10801091109552011F086E001C084E06A
:103840002FEFE216F10401051105B9F0B0F0C60141
:10385000B50120E034E040E050E00E94E923790126
:103860008A010894E108F10801091109552011F0B5
:1038700087E008C085E003C081E0552019F485BDCC
:103880003AC082E08093B10036C05101CC24DD24DF
:1038900060E079E08DE390E0A60195010E94E923C4
:1038A00079018A010894E108F1080109110980E011
:1038B000E81680E0F80681E0080780E0180710F4B9
:1038C00091E010C064E274EF80E090E0A601950101
:1038D0000E94E92379018A010894E108F1080109AD
:1038E000110993E0A1E05A1631F480918100887F9C
:1038F000982B9093810089819A81AB81BC8100973C
:10390000A105B10529F48FEF9FEFAFEFBFEF13C013
:10391000220C331CB10180E090E029813A814B8177
:103920005C810E94A82328EE33E040E050E00E9432
:10393000C723C901DA01E1E05E16A1F0F2E05F16EB
:1039400019F1552099F5E7BC809332069093330620
:10395000A0933406B093350680916E008260809308
:103960006E0024C0F0928900E092880080933906AE
:1039700090933A06A0933B06B0933C0680916F006B
:10398000826080936F0012C0E092B3008093400683
:1039900090934106A0934206B09343068091700035
:1039A00082608093700002C084E06CCF0F900F9013
:1039B0000F900F90CF91DF911F910F91FF90EF909B
:1039C000DF90CF90BF90AF909F908F907F906F903F
:1039D0005F903F902F900895823000F5E82FF0E03F
:1039E000EE0FFF1FE95BF94F71836083882319F0A5
:1039F0008130A1F408C0809169008C7F842B809372
:103A00006900E89A089580916900440F551F440F9A
:103A1000551F837F842B80936900E99A08951F9234
:103A20000F920FB60F9211242F933F934F935F93F2
:103A30006F937F938F939F93AF93BF93EF93FF9376
:103A40008091470690914806892B29F0E09147061E
:103A5000F09148060995FF91EF91BF91AF919F9129
:103A60008F917F916F915F914F913F912F910F9027
:103A70000FBE0F901F9018951F920F920FB60F92C6
:103A800011242F933F934F935F936F937F938F9363
:103A90009F93AF93BF93EF93FF93809149069091CB
:103AA0004A06892B29F0E0914906F0914A060995CA
:103AB000FF91EF91BF91AF919F918F917F916F9106
:103AC0005F914F913F912F910F900FBE0F901F90DC
:103AD00018951F920F920FB60F9211242F933F93B8
:103AE0004F935F936F937F938F939F93AF93BF9306
:103AF00020914F0630915006409151065091520648
:103B000070915306DA01C9010296A11DB11D672FFC
:103B10006A5F6D3730F06D57DA01C9010396A11D58
:103B2000B11D6093530680934F0690935006A09367
:103B30005106B093520680914B0690914C06A0918D
:103B40004D06B0914E060196A11DB11D80934B0606
:103B500090934C06A0934D06B0934E06BF91AF9143
:103B60009F918F917F916F915F914F913F912F9195
:103B70000F900FBE0F901F9018958FB7F89420915B
:103B80004F063091500640915106509152068FBF1A
:103B9000B901CA0108959B01AC017FB7F8948091E7
:103BA0004B0690914C06A0914D06B0914E0666B51D
:103BB000A89B05C06F3F19F00196A11DB11D7FBFE5
:103BC000BA2FA92F982F8827860F911DA11DB11DEF
:103BD00063E0880F991FAA1FBB1F6A95D1F7BC012C
:103BE0002DC0FFB7F89480914B0690914C06A091A0
:103BF0004D06B0914E06E6B5A89B05C0EF3F19F003
:103C00000196A11DB11DFFBFBA2FA92F982F88279C
:103C10008E0F911DA11DB11DE3E0880F991FAA1FF2
:103C2000BB1FEA95D1F7861B970B885E9340C8F2BD
:103C3000215030404040504068517C4F21153105A3
:103C40004105510571F60895789484B5826084BD6C
:103C500084B5816084BD85B5826085BD85B5816090
:103C600085BDEEE6F0E0808181608083E1E8F0E0F0
:103C70001082808182608083808181608083E0E81F
:103C8000F0E0808181608083E1EBF0E080818460FE
:103C90008083E0EBF0E0808181608083EAE7F0E000
:103CA0008081846080838081826080838081816064
:103CB00080838081806880831092C1000895CF93B3
:103CC000DF93482F50E0CA018E55984FFC01349184
:103CD0004257584FFA018491882369F190E0880F88
:103CE000991FFC01E059F84FA591B491FC01E658E9
:103CF000F84FC591D491662351F42FB7F8948C9165
:103D0000932F909589238C93888189230BC06230EF
:103D100061F42FB7F8948C91932F909589238C930D
:103D20008881832B88832FBF06C09FB7F8948C911E
:103D3000832B8C939FBFDF91CF910895482F50E044
:103D4000CA018A54984FFC012491CA018E55984F9C
:103D5000FC0194914257584FFA013491332309F4EE
:103D600040C0222351F1233071F0243028F4213057
:103D7000A1F0223011F514C02630B1F02730C1F087
:103D80002430D9F404C0809180008F7703C08091E3
:103D900080008F7D8093800010C084B58F7702C033
:103DA00084B58F7D84BD09C08091B0008F7703C03A
:103DB0008091B0008F7D8093B000E32FF0E0EE0F94
:103DC000FF1FE658F84FA591B4912FB7F8946623DA
:103DD00021F48C919095892302C08C91892B8C932E
:103DE0002FBF0895682F70E0CB018A54984FFC01D3
:103DF0002491CB018E55984FFC0144916257784F26
:103E0000FB019491992319F420E030E03CC0222377
:103E100051F1233071F0243028F42130A1F0223008
:103E200011F514C02630B1F02730C1F02430D9F498
:103E300004C0809180008F7703C0809180008F7DC7
:103E40008093800010C084B58F7702C084B58F7DC9
:103E500084BD09C08091B0008F7703C08091B0000D
:103E60008F7D8093B000892F90E0880F991F8C5729
:103E7000984FFC01A591B4918C9120E030E084230F
:103E800011F021E030E0C90108950F931F93CF9303
:103E9000DF93BC018230910510F462E070E0E091A4
:103EA0001707F091180740E050E0A0E0B0E024C010
:103EB0008081918186179707D0F08617970771F454
:103EC00082819381109729F013969C938E93129779
:103ED0002CC0909318078093170727C041155105F0
:103EE00019F08417950718F48D01AC01EF01DF017B
:103EF000828193819C01F9013097D1F641155105DA
:103F0000F9F0CA01861B970B8430910580F48A81F1
:103F10009B810115110521F0F8019383828304C070
:103F20009093180780931707FE01329645C0FE0153
:103F3000E80FF91F619371930297998388833CC0BE
:103F40008091150790911607892B41F480914705C0
:103F50009091480590931607809315074091490565
:103F600050914A054115510541F44DB75EB7809116
:103F7000450590914605481B590B20911507309136
:103F8000160724173507B0F4CA01821B930B861756
:103F9000970780F0AB014E5F5F4F8417950750F095
:103FA000420F531F5093160740931507F901619371
:103FB000719302C0E0E0F0E0CF01DF91CF911F915B
:103FC0000F910895CF93DF939C01009709F48FC060
:103FD000EC0122971B821A826091170770911807D3
:103FE0006115710581F488819981820F931F209159
:103FF0001507309116072817390739F5D09316079A
:10400000C093150774C0DB0140E050E0AC17BD075A
:1040100008F1BB83AA83FE0121913191E20FF31FC6
:10402000AE17BF0779F48D919C911197280F391F16
:104030002E5F3F4F3983288312968D919C91139761
:104040009B838A834115510571F4D0931807C0935F
:1040500017074DC012968D919C911397AD01009753
:1040600011F0DC01D3CFDA011396DC93CE931297D3
:10407000FA0121913191E20FF31FCE17DF0769F4A6
:1040800088819981280F391F2E5F3F4FFA013183B4
:1040900020838A819B8193838283E0E0F0E0DB01CF
:1040A00012968D919C911397009719F0BC01FD0118
:1040B000F6CFAB014E5F5F4FDB018D919C91840F7A
:1040C000951F20911507309116072817390779F4A5
:1040D000309729F4109218071092170702C0138224
:1040E0001282425050405093160740931507DF91BB
:1040F000CF910895F999FECF72BD61BDF89A80B550
:104100000895F999FECF1FBA72BD61BD40BD0FB6CB
:10411000F894FA9AF99A0FBE08952CB5382F337097
:104120002C7F322B3CBD2DB590E0959587959595CC
:10413000879581702E7F822B8DBD08958AE061E086
:104140000E949E1E8AE061E00E945F1E8CB5806125
:104150008CBD8CB580648CBD8DE061E00E945F1EDB
:104160008BE061E00E945F1E089581E080939A06D3
:104170006093770610929806109299060895209100
:10418000760630E080917506281B3109C901089533
:104190004091750680917606481718F02FEF3FEF93
:1041A0000AC0E42FF0E0EB5AF94F8081282F30E06D
:1041B0004F5F40937506C9010895E091750680919F
:1041C0007606E81718F0EFEFFFEF06C0F0E0EB5AC5
:1041D000F94F8081E82FF0E0CF0108950895109203
:1041E0009E0610929D0688EE93E0A0E0B0E08093DA
:1041F0009F069093A006A093A106B093A20683EB1E
:1042000095E090939C0680939B060895CF92DF9251
:10421000EF92FF920F931F93CF93DF937C016B017B
:104220008A0180919A068823A1F0C0E0D0E00DC0F9
:10423000D701ED91FC91D601AC0FBD1F0190F0812B
:10424000E02DC7016C9109952196C017D10780F325
:1042500004C0CB01642F0E94DE21C801DF91CF9101
:104260001F910F91FF90EF90DF90CF900895DF9313
:10427000CF930F92CDB7DEB7FC01698380919A0688
:104280008823C9F080919906803238F081E090E06F
:104290009383828320E030E015C080919806E82F58
:1042A000F0E0E858F94F998190838F5F80939806EA
:1042B0008093990605C0CE01019661E00E94DE213F
:1042C00021E030E0C9010F90CF91DF9108950F9365
:1042D000062F8091770668E776E04091990621E005
:1042E0000E948921109298061092990610929A06BF
:1042F0000F91089561E00E9467210895109275065C
:104300001092760610929806109299060E948A23BF
:1043100008950F931F93582F122F413210F081E010
:104320004AC08091A7068823E1F782E08093A70620
:104330000093A9068FEF809314071092CF06409345
:10434000D006AFEAB6E0FB0102C081918D938E2FBB
:10435000861B8417D0F31092A8068091A806550FEB
:10436000852B8093A8068091AA06813041F4109293
:10437000AA068091A8068093BB0085EC01C085EE5B
:104380008093BC00112321F08091A7068230E1F3D5
:10439000809114078F3F11F480E00DC080911407C5
:1043A000803211F482E007C080911407803311F04D
:1043B00084E001C083E01F910F910895482F61327E
:1043C00010F081E008958091A706843011F082E01A
:1043D00008956093F206A1EDB6E0842F9C01F901E7
:1043E00002C081918D938E2F841B8617D0F380E0BD
:1043F00008951F920F920FB60F9211242F933F939F
:104400004F935F936F937F938F939F93AF93BF93DC
:10441000EF93FF938091B90090E0887F9070803691
:10442000910509F4F2C081369105CCF588329105E9
:1044300009F47BC089329105B4F48031910509F407
:104440006FC0813191053CF4009709F447C108978A
:1044500009F04FC165C08831910509F466C08097A5
:1044600009F047C182C08034910509F4A4C08134A9
:10447000910544F48033910509F482C0C89709F08E
:1044800038C189C08035910509F489C08835910506
:1044900009F496C08834910509F02BC1AEC0883963
:1044A000910509F413C189399105ECF48837910518
:1044B00009F4ABC0893791054CF48836910509F4AD
:1044C000A4C08037910509F014C19FC088389105B8
:1044D00009F4FCC08039910509F49DC0803891052C
:1044E00009F007C198C0803B910509F4C6C0813B23
:1044F00091054CF4803A910509F49FC0883A9105E2
:1045000009F0F7C0BAC0803C910509F4E3C0883CCB
:10451000910509F4DFC0883B910509F0EAC0C2C0EB
:104520008091A8068093BB00CFC09091CF06809168
:10453000D006981768F49091CF06E92FF0E0E15586
:10454000F94F80818093BB009F5F9093CF06BCC0E2
:104550008091A906882309F44BC085ED8093BC00A7
:104560008091BC0084FDFCCFC2C080E28093140720
:1045700085ED8093BC008091BC0084FDFCCFB7C06A
:1045800080E38093140785ED8093BC008091BC008C
:1045900084FDFCCFACC088E3809314079BC080915E
:1045A000CF069091BB00E82FF0E0E155F94F9083E2
:1045B0008F5F8093CF069091CF068091D00682C006
:1045C0008091CF069091BB00E82FF0E0E155F94FC4
:1045D00090838F5F8093CF068091A906882341F056
:1045E00085ED8093BC008091BC0084FDFCCF7FC032
:1045F00081E08093AA0684EA6EC085ED8093BC00BA
:104600008091BC0084FDFCCF72C083E08093A7063C
:104610001092130759C080911307803208F056C0DA
:10462000809113079091BB00E82FF0E0ED50F94F17
:1046300090838F5F8093130747C080911307803268
:1046400030F4E0911307F0E0ED50F94F108285ED62
:104650008093BC008091BC0084FDFCCF1092A70623
:1046600060911307E091AD06F091AE0683EF96E0FE
:1046700070E00995109213072DC084E08093A7067F
:104680001092F1061092F206E091AB06F091AC06A2
:1046900009958091F206882329F481E08093F2063F
:1046A0001092D1069091F106E92FF0E0EF52F94F08
:1046B00080818093BB009F5F9093F1069091F106FB
:1046C0008091F206981710F485EC01C085E880937C
:1046D000BC000FC085EC8093BC0009C01092140789
:1046E00085ED8093BC008091BC0084FDFCCF1092CE
:1046F000A706FF91EF91BF91AF919F918F917F910D
:104700006F915F914F913F912F910F900FBE0F903E
:104710001F9018951092A70681E08093A906109229
:10472000AA0682E161E00E949E1E83E161E00E9490
:104730009E1EE9EBF0E080818E7F808380818D7FFB
:10474000808380E28093B80085E48093BC00089564
:10475000629FD001739FF001829FE00DF11D649F65
:10476000E00DF11D929FF00D839FF00D749FF00DF1
:10477000659FF00D9927729FB00DE11DF91F639F92
:10478000B00DE11DF91FBD01CF0111240895A1E273
:104790001A2EAA1BBB1BFD010DC0AA1FBB1FEE1FBB
:1047A000FF1FA217B307E407F50720F0A21BB30B06
:1047B000E40BF50B661F771F881F991F1A9469F782
:1047C00060957095809590959B01AC01BD01CF01DE
:1047D000089597FB092E05260ED057FD04D0D7DF8C
:1047E0000AD0001C38F450954095309521953F4FE4
:1047F0004F4F5F4F0895F6F79095809570956195AE
:104800007F4F8F4F9F4F0895EE0FFF1F0590F4913C
:08481000E02D0994F894FFCF9C
:104818002E000A000A0A002F002020202020200055
:1048280053544F5000566163696F00564143494FD6
:104838000001010164000A000100040001000102F6
:10484800003C000300000000000000000000000021
:104858000000000000000000000000000000000050
:104868000000000000000000000000000000000040
:104878000000000000000000000000000000000030
:1048880000000080808000000000000000000000A0
:1048980000000000008080C0C00000000000000090
:1048A8000000000000000000000000000000000000
:1048B80000000000000000000000000000000000F0
:1048C80000000000000000000000000000000000E0
:1048D800000000000000000080C0E0F0F8FCF8E0F4
:1048E80000000000000000000000000000000000C0
:1048F80000808080808000808000000000808080B0
:10490800808000FFFFFF00000000808080800000A2
:104918008080000080FFFF80800080800080808091
:10492800800080800000000000808000008C8E8461
:10493800000080F8F8F88000000000000000000087
:1049480000000000F0F0F0F0F0F0F0F0F0F0F0F01F
:10495800E0E0C08000E0FCFEFFFFFF7FFFFFFFFFFD
:10496800FF0000000000000000000000000000FE42
:10497800FFC70101010183FFFF00007CFEC70101A1
:10498800010183FFFFFF0038FEC78301010183C7D0
:10499800FFFF000001FFFF010100FFFF0701010108
:1049A80000007FFF80000000FFFF7F0000FFFFFF87
:1049B800000001FFFFFF01000000000000000000F0
:1049C80000000000030F3F7F7FFFFFFFFFFFFFFF97
:1049D800E7C7C78F8F9FBFFFFFC3C0F0FFFFFFFF71
:1049E800FFFCFCFCFCFCFCFCFCF8F8F0F0E0C00070
:1049F8000103030303030103030000000001030391
:104A08000303010103010000000103030303010183
:104A1800030300000003030000000303000000007C
:104A28000000000103030303030100000001030168
:104A38000000000303010000000000000000000067
:104A48000000000000000080C0E0F0F9FFFFFFFF59
:104A5800FF3F1F0F87C7F7FFFF1F1F3DFCF8F8F840
:104A6800F87C7DFFFFFFFFFFFFFFFF7F3F0F070081
:104A780030300000000000000000000000000000CE
:104A88000000000000000000FEFEFC000000000026
:104A9800000000000000000000000000000000000E
:104AA80000E0C000000000000000000000003030FE
:104AB80000000000000000000000000000000000EE
:104AC8000000000000C0FEFFFFFFFFFFFFFFFFFF29
:104AD8007F7F3F1F0F071F7FFFFFF8F8FFFFFFFFD4
:104AE800FFFEF8E0000000010000000000000000E8
:104AF800FEFE000000FCFEFC0C06060EFCF80000A2
:104B0800F0F81C0E0606060CFFFFFF0000FEFE0074
:104B1800000000FCFEFC00183C7E66E6CE84000027
:104B280006FFFF0606FCFEFC0C0606060000FEFE5D
:104B38000000C0F8FC4E4646464E7C7840183C764D
:104B4800E6CECC800000000000000000000000005D
:104B5800000000000000000001070F1F1F3F3F3F3B
:104B68003F1F0F03000000000000000000000000CD
:104B78000F0F0000000F0F0F000000000F0F0000C4
:104B880003070E0C18180C060F0F0F0000010F0E6C
:104B98000C180C0F070100040E0C180C0F0700006E
:104BA800000F0F00000F0F0F0000000000000F0F94
:104BB80000000007070C0C181C0C060600040E0C5D
:104BC800180C0F07000000000000000000000000A3
:104BD80000000000000000000000000000000000CD
:104BE80000000000000000000000000000000000BD
:104BF80000000000000000000000000000000000AD
:104C0800000000000000000000000000000000009C
:104C1800000000000000000000000000000000008C
:104C2800000000000000000000000000000000007C
:104C3800000000000000000000000000000000006C
:104C480000000000000103070F1F3F7F0080C0E045
:104C5800F0F8FCFEFF8000190700000300A1010323
:104C680000A701000100000201AD010003000004DB
:104C780001B1011E0500001E0500001D0500001EF3
:104C88000500001E0500000205B9010201B9010076
:104C98000000007910B818B718DA0DE30EFF0E8F70
:104CA8000E1E0F560FFE10000000007910B818C72E
:104CB80016DA0D6312FF108F0E1E0F560F671400C1
:104CC80000000037210621BF20C820DD20EE20008B
:00000001FF
