:100000000C94A7040C9469250C9490250C94CF04AF
:100010000C94CF040C94CF040C94CF040C94EC24D7
:100020000C94CF040C94CF040C94CF040C94CF0404
:100030000C94CF040C949E1E0C94CF040C94CF040B
:100040000C9406050C94CF040C9468200C949A2010
:100050000C94CF040C94CF040C94CF040C94CF04D4
:100060000C9422280C94CF0408092A094409510948
:100070006E09A209CA09D409E809FF08240A4E0A30
:100080006D0A9D0AB00ABA0A060B3A0B530B7F0B96
:10009000990BA30BD80B430C5A0C750C900CAB0CA2
:1000A000170E0B0E5D0E0B0ED60E080F5D0F8F0F89
:1000B000B50F0B0E0B0E0B0EE70F0B0E0D1086106F
:1000C0000B0EA910C9100B0E0B0E0B0E0B0EF7101A
:1000D0000B0E0B0E4B117553004369636C6F204D73
:1000E00061783A007553004369636C6F204D696E07
:1000F0003A007553004369636C6F204163743A00A2
:1001000056657273696F6E3A006279205761727238
:10011000696F7200426561744475696E6F002020DA
:10012000487A00456C69676520656C20736F6E695D
:10013000646F3A00456C696765206C612063616E8D
:1001400063696F6E3A005469706F20436F6D706120
:10015000733A00202042504D00456C696765206568
:100160006C2074656D706F3A004E6F6D6272652021
:1001700063616E63696F6E3A00456C696765206CF8
:10018000612063616E63696F6E3A00426F727261E3
:10019000722063616E63696F6E0043616E63696FA5
:1001A0006E206120696E7365727461723A00496EE7
:1001B0007365727461722064657370756573206411
:1001C000653A00456C696765206C612063616E6308
:1001D000696F6E3A00506F736963696F6E206120BA
:1001E0006564697461723A00456C696765206C6189
:1001F00020706F736963696F6E3A004E6F6D627243
:1002000065207265706572746F72696F3A00456C33
:10021000696765207265706572746F72696F3A0004
:100220005354415254002042504D0A0A0053544145
:100230005254002042504D0A0A0048023E024D65C9
:1002400074726F6E6F6D6F005265706572746F724D
:10025000696F009002820276026B025D0252657342
:1002600065742046616272696361004D696469204A
:10027000436C6F636B00536F6E69646F20546963E6
:100280006B005469636B7320696775616C657300FB
:100290004D6F646F00A0029E029B02313600380051
:1002A0003400D802CA02B902AA0243616D626961D0
:1002B0007220436F6D7061730043616D626961729A
:1002C000204469766973696F6E0043616D6269618C
:1002D000722054656D706F0043616D6269617220B8
:1002E0004E6F6D62726500FC02EB02456C696D69D0
:1002F0006E61722043616E63696F6E00456469745C
:1003000061722043616E63696F6E0012030F0353C5
:1003100049004E4F004C033B032A031D0356616303
:10032000696172204F7264656E00456C696D696E1B
:1003300061722043616E63696F6E00496E7365720E
:100340007461722043616E63696F6E0043616D6218
:10035000696172204F7264656E006C035E034361D5
:100360006D62696172204F7264656E0043616D62F7
:10037000696172204E6F6D62726500A703950381FB
:1003800003456C696D696E617220526570657274A7
:100390006F72696F0045646974617220526570659F
:1003A00072746F72696F0043616D6269617220528D
:1003B00065706572746F72696F00D903CF03C703EC
:1003C000C203496E666F00416A75737465730043BA
:1003D000616E63696F6E6573005265706572746FEC
:1003E00072696F730000000000003E5B4F5B3E3E91
:1003F0006B4F6B3E1C3E7C3E1C183C7E3C181C57D1
:100400007D571C1C5E7F5E1C00183C1800FFE7C374
:10041000E7FF0018241800FFE7DBE7FF30483A0643
:100420000E2629792926407F050507407F05253FAF
:100430005A3CE73C5A7F3E1C1C08081C1C3E7F149B
:10044000227F22145F5F005F5F06097F017F0066E5
:1004500089956A606060606094A2FFA29408047E3F
:10046000040810207E201008082A1C08081C2A08EE
:10047000081E101010100C1E0C1E0C30383E3830A8
:10048000060E3E0E06000000000000005F000000A7
:1004900007000700147F147F14242A7F2A122313D5
:1004A00008646236495620500008070300001C22E9
:1004B00041000041221C002A1C7F1C2A08083E081B
:1004C000080080703000080808080800006060001C
:1004D00020100804023E5149453E00427F40007210
:1004E000494949462141494D331814127F10274587
:1004F0004545393C4A4949314121110907364949A5
:100500004936464949291E000014000000403400C5
:100510000000081422411414141414004122140879
:1005200002015909063E415D594E7C1211127C7F31
:10053000494949363E414141227F4141413E7F493F
:100540004949417F090909013E414151737F08082A
:10055000087F00417F41002040413F017F08142275
:10056000417F404040407F021C027F7F0408107F93
:100570003E4141413E7F090909063E4151215E7FCE
:1005800009192946264949493203017F01033F40A1
:1005900040403F1F2040201F3F4038403F63140829
:1005A000146303047804036159494D43007F4141BA
:1005B000410204081020004141417F04020102046D
:1005C0004040404040000307080020545478407FDA
:1005D000284444383844444428384444287F385414
:1005E00054541800087E090218A4A49C787F0804BB
:1005F000047800447D40002040403D007F102844A6
:100600000000417F40007C047804787C0804047872
:100610003844444438FC1824241818242418FC7C3A
:1006200008040408485454542404043F44243C401F
:1006300040207C1C2040201C3C4030403C44281082
:1006400028444C9090907C4464544C4400083641BB
:100650000000007700000041360800020102040299
:100660003C2623263C1EA1A161123A4040207A3844
:1006700054545559215555794122545478422155A5
:1006800054784020545579400C1E527212395555F9
:100690005559395454545939555454580000457CCF
:1006A000410002457D420001457C407D1211127DD2
:1006B000F0282528F07C545545002054547C547C67
:1006C0000A097F4932494949323A4444443A324A54
:1006D0004848303A4141217A3A42402078009DA072
:1006E000A07D3D4242423D3D4040403D3C24FF24F0
:1006F00024487E4943662B2FFC2F2BFF0929F62027
:10070000C0887E090320545479410000447D413063
:1007100048484A32384040227A007A0A0A727D0DEF
:1007200019317D2629292F28262929292630484DA7
:100730004020380808080808080808382F10C8ACF6
:10074000BA2F102834FA00007B000008142A142263
:1007500022142A1408AA005500AAAA55AA55AA00CC
:100760000000FF00101010FF00141414FF00101000
:10077000FF00FF1010F010F0141414FC001414F714
:1007800000FF0000FF00FF1414F404FC1414171001
:100790001F10101F101F1414141F00101010F00051
:1007A0000000001F101010101F10101010F010008B
:1007B0000000FF101010101010101010FF1000009B
:1007C00000FF140000FF00FF00001F10170000FCD6
:1007D00004F414141710171414F404F40000FF00A8
:1007E000F714141414141414F700F7141414171431
:1007F00010101F101F141414F4141010F010F00037
:10080000001F101F0000001F14000000FC14000057
:10081000F010F01010FF10FF141414FF141010103B
:100820001F00000000F010FFFFFFFFFFF0F0F0F0EE
:10083000F0FFFFFF0000000000FFFF0F0F0F0F0F82
:100840003844443844FC4A4A4A347E0202060602CE
:100850007E027E0263554941633844443C04407E35
:10086000201E2006027E020299A5E7A5991C2A49AE
:100870002A1C4C7201724C304A4D4D303048784839
:1008800030BC625A463D3E494949007E0101017E25
:100890002A2A2A2A2A44445F444440514A44404078
:1008A000444A51400000FF0103E080FF00000808B7
:1008B0006B6B083612362436060F090F0600001837
:1008C000180000001010003040FF0101001F01015E
:1008D0001E00191D1712003C3C3C3C0000000000AB
:1008E000566163696F00564143494F0002000000A2
:1008F00008000201000003040700000000000000DF
:1009000000010204081020408001020408102001A8
:100910000204081020040404040404040402020273
:100920000202020303030303030000000023002666
:1009300000290000000000250028002B0000000016
:1009400000240027002A0000C40CC02072271124B4
:100950001FBECFEFD8E0DEBFCDBF16E0A0E0B1E014
:10096000ECE0FAE502C005900D92A232B107D9F78A
:1009700028E0A2E2B6E001C01D92AF32B207E1F773
:1009800014E0C7EAD4E004C02197FE010E94702B56
:10099000C43AD107C9F70E9423120C94042D0C9479
:1009A0000000CF93DF9386E00E944C26EC0182E0AA
:1009B0000E944C26C817D90739F481E090E0909343
:1009C00044068093430606C08FEF9FEF9093440642
:1009D00080934306DF91CF910895FF920F931F9369
:1009E000CF93DF93EC01F62E08811981C8010E9494
:1009F000EE2CF81621F06F2DC8010E94F62CCE01C6
:100A0000DF91CF911F910F91FF9008951F920F9248
:100A10000FB60F9211242F933F934F935F936F93D1
:100A20007F938F939F93AF93BF93EF93FF938091A7
:100A3000360690913706A0913806B0913906805855
:100A40009F4FAF4FBF4F8093360690933706A093CA
:100A50003806B09339068091320690913306A09102
:100A60003406B091350680589F4FAF4FBF4F8093EB
:100A7000320690933306A0933406B09335068091E6
:100A80002E0690912F06A0913006B0913106805825
:100A90009F4FAF4FBF4F80932E0690932F06A0938A
:100AA0003006B093310660912E0670912F0680912A
:100AB0003006909131060E94F72920914606309128
:100AC000470640914806509149060E94A92A88236A
:100AD0000CF470C010922E0610922F061092300661
:100AE000109231062091450630E06091130170911B
:100AF000140188E190E00E941B2B2617370758F15C
:100B00001092450620914E0630914F0680911101BA
:100B10009091120101972817390728F010924F067B
:100B200010924E0609C080914E0690914F06019694
:100B300090934F0680934E0680910E01882381F09A
:100B400080914E0690914F06892B31F580914D068C
:100B5000811122C015C0809145068F5F80934506A4
:100B600080914A06882331F1E091B806F091B906E8
:100B70000190F081E02D68EF88EB96E009951AC0AE
:100B8000209115013091160140E050E06AEB72E0CF
:100B90008BE00E944E22E4CF209115013091160186
:100BA00040E050E060910F01709110018BE00E94D5
:100BB0004E22D6CFFF91EF91BF91AF919F918F9130
:100BC0007F916F915F914F913F912F910F900FBE49
:100BD0000F901F901895CF92DF92EF92FF929B019A
:100BE000AC01109232061092330610923406109225
:100BF0003506A8EEB3E00E94762B6B017C01809154
:100C0000320690913306A0913406B09135068C15CA
:100C10009D05AE05BF0578F40E94ED208091320657
:100C200090913306A0913406B09135068C159D0540
:100C3000AE05BF0588F3FF90EF90DF90CF90089549
:100C4000809152068130A1F4E0914206E11103C087
:100C50001092520614C0F0E0EE0FFF1FEE0FFF1FC0
:100C6000ED5BFA4F8181809342061092410607C0E6
:100C700081E080935206109241061092420681E074
:100C80008093190108951F93CF93DF93182FEB01E1
:100C90000E944C26892B09F062C09E01220F331F4F
:100CA000220F331F220F331FFE01EE0FFF1FE20F33
:100CB000F31FE759F94F1782168213828081811141
:100CC00013C0FE01EE0FFF1FE20FF31FE759F94FAC
:100CD00081E04481558120910C0130910D01421732
:100CE000530718F480E001C080E09E01220F331FFB
:100CF000220F331F220F331FFE01EE0FFF1FE20FE3
:100D0000F31FE759F94F82838481958120910C016B
:100D100030910D018217930788F0CE01880F991F3B
:100D2000880F991F880F991FFE01EE0FFF1FE80F14
:100D3000F91FE759F94F81E0808311C09E01220F0E
:100D4000331F220F331F220F331FFE01EE0FFF1F31
:100D5000E20FF31FE759F94F019695838483812FA2
:100D60000E944C26019709F05BC0CE01880F991FA5
:100D7000880F991F880F991FFE01EE0FFF1FE80FC4
:100D8000F91FE759F94F15821482118610861182D6
:100D9000128220812223C9F0CE01880F991F880F6B
:100DA000991F880F991FFE01EE0FFF1FE80FF91F13
:100DB000E759F94F21E04681578180910C019091CC
:100DC0000D014817590708F420E0CE01880F991F3C
:100DD000880F991F880F991FFE01EE0FFF1FE80F64
:100DE000F91FE759F94F23838681978120910C01E0
:100DF00030910D018217930710F010824DC09E01B3
:100E0000220F331F220F331F220F331FFE01EE0F5D
:100E1000FF1FE20FF31FE759F94F0196978386836F
:100E2000CE01880F991F880F991F880F991FFE0107
:100E3000EE0FFF1FE80FF91FE759F94F8081882354
:100E400059F1CE01880F991F880F991F880F991F9C
:100E5000FE01EE0FFF1FE80FF91FE759F94F8085DC
:100E6000918501969187808720910A0130910B012D
:100E70008217930719F481E081830EC0CE01880F99
:100E8000991FCC0FDD1FCC0FDD1FCC0FDD1FC80F4E
:100E9000D91FC759D94F1982DF91CF911F9108955A
:100EA000CF93DF9380914B060E94D21CEC01BC01D2
:100EB00083E596E00E94D82CCE010E94252CDF917C
:100EC000CF910895FF920F931F93CF93DF9360917B
:100ED0004C0680914B060E94491DF82E0E940D1D64
:100EE0008C01BC018CE596E00E94D82CC8010E94C0
:100EF000252C8F2D0E94591DCCE5D6E08A878F2D99
:100F00000E94611D8B878F2D0E946C1D8C87DF9145
:100F1000CF911F910F91FF90089580911A0188231E
:100F200019F08130C9F108958091430690914406EB
:100F3000181619062CF480914C068D3108F46BC0FC
:100F40008091430690914406992324F480914C06A5
:100F500081116EC0ECE5F6E0828590E09093180177
:100F600080931701838590E090931401809313017F
:100F7000848590E0909312018093110180916B061B
:100F8000882309F462C080910E0191E08927809343
:100F90000E019093190108958091430690914406A3
:100FA000181619069CF480911701909118018F3F33
:100FB000910528F4019690931801809317011092DF
:100FC00044061092430681E0809319018091430604
:100FD00090914406992394F48091170190911801FF
:100FE000009729F0019790931801809317011092B0
:100FF00044061092430681E08093190180916B06AC
:10100000882319F180910E0191E0892780930E01C8
:101010009093190108958F5F80934C060E94620798
:10102000109244061092430681E08093190188CF04
:10103000815080934C060E946207109244061092E1
:10104000430681E08093190185CF08958BEF91E0ED
:101050000E94EE2C8F3F11F080931A018CEF91E0EB
:101060000E94EE2C8F3F31F091E0811101C090E0A1
:1010700090934D068DEF91E00E94EE2C8F3F31F062
:1010800091E0811101C090E090934A068EEF91E0CB
:101090000E94771D9C012F5131092435334138F0CE
:1010A00088EB91E09093100180930F010895909345
:1010B000100180930F010895CF93DF9300D000D0EB
:1010C00000D0CDB7DEB70E942B1E0E94651E8BEFAD
:1010D00091E09E838D836FEFCE0105960E94ED0413
:1010E0008CEF91E09C838B836FEFCE0103960E947F
:1010F000ED048DEF91E09A8389836FEFCE01019625
:101100000E94ED0468EB71E08EEF91E00E949D1D5E
:10111000FFCF0F931F93CF93DF93CDB7DEB72A97FF
:101120000FB6F894DEBF0FBECDBF809143069091FD
:101130004406181619061CF520914106E091420656
:10114000F0E0EE0FFF1FEE0FFF1FED5BFA4F308157
:10115000422F50E0832F90E001974817590724F45D
:101160002F5F2093410602C010924106332321F0E5
:10117000109244061092430681E0809319018091F9
:10118000430690914406992344F5809141068823B3
:1011900021F08150809341060DC0E0914206F0E0BD
:1011A000EE0FFF1FEE0FFF1FED5BFA4F80818150A6
:1011B00080934106E0914206F0E0EE0FFF1FEE0F34
:1011C000FF1FED5BFA4F8081882321F010924406C7
:1011D0001092430681E08093190180917F06882355
:1011E00009F4C7C3E09142068E2F90E08C3191053F
:1011F00008F0BCC3FC01EC5CFF4F0C94702B6091B9
:101200003D06862F90E001964D970CF4EBC002C18D
:1012100080914106813061F028F0823079F083308E
:1012200099F0A4C31092410681E0809342069EC3C8
:10123000109241068DE08093420698C310924106B9
:1012400086E18093420692C3109241068CE180931E
:1012500042068CC380914106813051F018F08230F3
:1012600069F084C31092410682E0809342067EC3F7
:101270001092410683E08093420678C310924106A3
:101280008CE08093420672C38091410680934B06A6
:1012900010924C060E9450070E946207109252065C
:1012A00065C380914106882319F0813089F05EC3BF
:1012B0001092410684E08093420680914B060E9482
:1012C000D21C90933F0680933E06109240064EC378
:1012D0001092410685E08093420648C38091400603
:1012E000E0913E06F0913F06E80FF11D9081983D98
:1012F00001F5108260913E0670913F0680914B0689
:101300000E94C01D80913E0690913F060E94252CB0
:10131000E0914206F0E0EE0FFF1FEE0FFF1FED5BC6
:10132000FA4F818180934206109241060E94500735
:101330001DC3883020F48F5F8093400617C310923E
:10134000400614C380914106813071F028F082304C
:1013500099F08330C9F00AC31092410686E0809369
:10136000420610923D0602C31092410688E0809327
:10137000420610923D06FAC2109241068AE080931E
:10138000420610923D06F2C2109241068BE0809315
:101390004206ECC28091410680933D0610924106C0
:1013A00087E080934206E2C24091410660913D068B
:1013B00080914B060E94E31D80913D06809341067B
:1013C00010923D0686E0809342060E946207CEC2DC
:1013D0008091410680933D061092410689E08093FA
:1013E0004206C4C20DE110E06FEF600F80914B0622
:1013F0000E94491D482F602F80914B060E94E31DDB
:101400000150110960913D06862F90E001968017EA
:10141000910754F36F5F4091410680914B060E9403
:10142000E31D1092410610923D06E0914206F0E065
:10143000EE0FFF1FEE0FFF1FED5BFA4F81818093D0
:1014400042060E94620792C20091410610E00D31EF
:1014500011058CF461E0600F80914B060E94491DDC
:10146000482F602F80914B060E94E31D0F5F1F4F96
:101470000D31110579F71092410610923D06E09169
:101480004206F0E0EE0FFF1FEE0FFF1FED5BFA4F7D
:101490008181809342060E94620768C28091410662
:1014A000813051F410E04FEF612F80914B060E9484
:1014B000E31D1F5F1E31B9F710924106E09142060D
:1014C000F0E0EE0FFF1FEE0FFF1FED5BFA4F818183
:1014D000809342060E94620749C280914106813092
:1014E00051F410E04FEF612F80914B060E94E31DF5
:1014F0001F5F1E31B9F78FEF898348E050E0BE01CE
:101500006F5F7F4FCB010E94DF2CBE016F5F7F4F6B
:1015100080914B060E94C01D10924106E091420648
:10152000F0E0EE0FFF1FEE0FFF1FED5BFA4F818122
:10153000809342060E94500719C280914106882379
:1015400019F0813039F012C2109241068EE080937A
:1015500042060CC21092410684E18093420606C204
:101560008091410680933A06109241068FE0809365
:101570004206FCC1809141068130A1F028F0823002
:10158000E9F08330B1F1F2C11092410680E180931D
:10159000420680913A060E940D1D90933F0680936B
:1015A0003E06E4C181E18093420680913A060E94A2
:1015B000591D80933D0680934106D8C182E18093F6
:1015C000420680913A060E94611D80933D0682305A
:1015D00041F0843051F0813009F0C8C110924106C9
:1015E000C5C181E080934106C1C182E0809341067C
:1015F000BDC183E18093420680913A060E946C1D32
:1016000080933D06825080934106B0C18091400690
:10161000E0913E06F0913F06E80FF11D9081983D64
:1016200001F5108260913E0670913F0680913A0666
:101630000E94F21D80913E0690913F060E94252C4B
:1016400010924106E0914206F0E0EE0FFF1FEE0F10
:10165000FF1FED5BFA4F8181809342060E94620773
:1016600085C18A3020F48F5F809340067FC110923D
:1016700040067CC16091410680913A060E94131E8B
:101680001092410610923D06E0914206F0E0EE0F06
:10169000FF1FEE0FFF1FED5BFA4F81818093420623
:1016A0000E94620763C180914106813051F018F0B9
:1016B000823069F011C061E080913A060E941B1EE1
:1016C0000BC062E080913A060E941B1E05C064E0D8
:1016D00080913A060E941B1E10923D061092410610
:1016E000E0914206F0E0EE0FFF1FEE0FFF1FED5BF3
:1016F000FA4F8181809342060E94620737C1609150
:1017000041066E5F80913A060E94231E10923D06AC
:1017100010924106E0914206F0E0EE0FFF1FEE0F3F
:10172000FF1FED5BFA4F8181809342060E946207A2
:101730001DC18091410680933A061092410685E1D1
:101740008093420613C180914106813001F58FEFED
:1017500089834AE050E0BE016F5F7F4FCB010E945A
:10176000DF2CBE016F5F7F4F80913A060E94F21D11
:101770006FEF80913A060E94131E6FEF80913A0638
:101780000E941B1E6FEF80913A060E94231E10924A
:101790004106E0914206F0E0EE0FFF1FEE0FFF1F43
:1017A000ED5BFA4F8181809342060E946207DEC0A2
:1017B00080914106823079F128F4882351F08130FC
:1017C000C9F0D4C0833009F447C0843009F455C04F
:1017D000CDC08BEF91E00E94EE2C80933D068F3FB1
:1017E00019F08093410602C01092410687E1809370
:1017F0004206BCC08CEF91E00E94EE2C80933D0627
:101800008F3F19F08093410602C01092410688E193
:1018100080934206ABC08EEF91E00E94771D9C0141
:101820002F5131092435334128F490933C0680939D
:101830003B0606C088EB91E090933C0680933B0604
:1018400080913B0690913C069093100180930F018C
:1018500089E1809342068AC08DEF91E00E94EE2CD0
:1018600080933D068F3F19F08093410602C010928D
:1018700041068AE18093420679C08BE1809342065B
:101880001092410673C06091410660931A018BEF7C
:1018900091E00E948C1D10924106E0914206F0E01A
:1018A000EE0FFF1FEE0FFF1FED5BFA4F818180935C
:1018B00042065CC061E080914106811101C060E098
:1018C00060934D068CEF91E00E948C1D10924106B2
:1018D000E0914206F0E0EE0FFF1FEE0FFF1FED5B01
:1018E000FA4F81818093420641C060913B0670911E
:1018F0003C067093100160930F018EEF91E00E94FF
:101900009D1D10924106E0914206F0E0EE0FFF1F90
:10191000EE0FFF1FED5BFA4F81818093420626C0D8
:1019200061E080914106811101C060E060934A0648
:101930008DEF91E00E948C1D10924106E0914206CD
:10194000F0E0EE0FFF1FEE0FFF1FED5BFA4F8181FE
:10195000809342060BC080914106813011F40E94B1
:101960005C081092410686E18093420681E08093F4
:1019700019012A960FB6F894DEBF0FBECDBFDF91D6
:10198000CF911F910F91089564E087E896E00E943F
:101990004A1A0895EF92FF920F931F93CF93DF930C
:1019A000CDB7DEB76E970FB6F894DEBF0FBECDBFD2
:1019B00080915206882321F0813009F413C136C585
:1019C00080911A01882321F0813009F4A3C02EC52B
:1019D00087E896E00E94631A40E050E060E070E023
:1019E00087E896E00E94A81640E050E061E070E0D1
:1019F00087E896E00E94BA1660914B0670E06F5F30
:101A00007F4F4AE050E087E896E00E94162260E3AC
:101A100075E087E896E00E94522163E576E087E86A
:101A200096E00E94522163E375E087E896E00E9409
:101A3000522160914C0670E06F5F7F4F4AE050E0AA
:101A400087E896E00E94162260E375E087E896E05A
:101A50000E9452216CE576E087E896E00E945221D0
:101A600062E375E087E896E00E94522162E087E831
:101A700096E00E94AE1660911701709118014AE03D
:101A800050E087E896E00E94482263E372E087E82E
:101A900096E00E942E2161E087E896E00E94AE1653
:101AA00060911101709112014AE050E087E896E0E0
:101AB0000E94482265E375E087E896E00E94522183
:101AC0006091130170911401660F771F660F771FE5
:101AD0004AE050E087E896E00E94482267E375E01C
:101AE00087E896E00E94522180910E01882339F008
:101AF0006DE272E087E896E00E942E2106C06EE358
:101B000075E087E896E00E94522187E896E00E94FF
:101B1000151C8CC487E896E00E94631A40E050E0F0
:101B200060E070E087E896E00E94A81640E050E090
:101B300061E070E087E896E00E94BA1662E087E80C
:101B400096E00E94AE1660911701709118014AE06C
:101B500050E087E896E00E94482266E272E087E85B
:101B600096E00E942E2161E087E896E00E94AE1682
:101B700060911101709112014AE050E087E896E00F
:101B80000E94482265E375E087E896E00E945221B2
:101B90006091130170911401660F771F660F771F14
:101BA0004AE050E087E896E00E94482267E375E04B
:101BB00087E896E00E94522180910E01882339F037
:101BC00060E272E087E896E00E942E2106C06EE394
:101BD00075E087E896E00E94522187E896E00E942F
:101BE000151C24C487E896E00E94631A40E050E088
:101BF00060E070E087E896E00E94A8162091420617
:101C0000822F90E0FC013297EB31F10520F4E05B8C
:101C1000FF4F0C94702BE22FF0E0EE0FFF1FEE0F42
:101C2000FF1FED5BFA4F80818111B4C3FBC340E01D
:101C300050E061E070E087E896E00E94BA166EE03E
:101C400072E087E896E00E945F2100E010E080915A
:101C5000410690E08017910749F441E050E060E0D0
:101C600070E087E896E00E94BA1608C040E050E0B5
:101C700061E070E087E896E00E94BA16802F0E942B
:101C8000D21C7C010F5F1F4F4AE050E0B80187E88B
:101C900096E00E94162260E375E087E896E00E94D5
:101CA0005221B70187E896E00E947121C7010E9486
:101CB000252C0330110559F6B5C340E050E061E032
:101CC00070E087E896E00E94BA166BEF71E087E853
:101CD00096E00E945F218091430690914406181679
:101CE00019065CF580914006E0913E06F0913F06B2
:101CF000E80FF11D8081811102C080E28083809114
:101D00004006E0913E06F0913F06E80FF11D80810C
:101D10008A3711F488ED808380914006E0913E0679
:101D2000F0913F06E80FF11D80818A3710F48F5F34
:101D3000808310924406109243068091430690914E
:101D400044069923B4F480914006E0913E06F09158
:101D50003F06E80FF11D8081883D19F48AE78083F2
:101D600004C0813210F0815080831092440610929A
:101D7000430660913E0670913F0687E896E00E9418
:101D800071218091400690E0BC01660F771F680FBB
:101D9000791F660F771F01E010E026E030E04FE08A
:101DA00050E087E896E00E94CB163CC368EE71E0F5
:101DB00087E896E00E945F2140E050E061E070E03B
:101DC00087E896E00E94BA166091410680914B0622
:101DD0000E94491D0E940D1D8C0190914106692FA2
:101DE00070E06F5F7F4F4AE050E087E896E00E9426
:101DF000162260E375E087E896E00E945221B80160
:101E000087E896E00E947121C8010E94252C0AC330
:101E100065ED71E087E896E00E945F2160913D06E4
:101E200080914B060E94491D0E940D1D8C019091CE
:101E30003D06692F70E06F5F7F4F4AE050E087E812
:101E400096E00E94162260E375E087E896E00E9423
:101E50005221B80187E896E00E94712163E375E0A2
:101E600087E896E00E94712163EC71E087E896E0D4
:101E70000E945F21C8010E94252C809141060E948A
:101E80000D1D8C0190913D06692F70E06F5F7F4FB3
:101E90004AE050E087E896E00E94162260E375E091
:101EA00087E896E00E945221B80187E896E00E94F8
:101EB0007121C8010E94252CB5C26EEA71E087E845
:101EC00096E00E945F2140E050E061E070E087E82A
:101ED00096E00E94BA166091410680914B060E94DE
:101EE000491D0E940D1D8C0190914106692F70E0E3
:101EF0006F5F7F4F4AE050E087E896E00E9416222D
:101F000060E375E087E896E00E945221B80187E817
:101F100096E00E947121C8010E94252C83C26AE9C3
:101F200071E087E896E00E945F21809141060E945F
:101F30000D1D8C0190913D06692F70E06E5F7F4F03
:101F40004AE050E087E896E00E94162260E375E0E0
:101F500087E896E00E945221B80187E896E00E9447
:101F60007121C8010E94252C5DC26BE871E087E8F1
:101F700096E00E945F2140E050E061E070E087E879
:101F800096E00E94BA166091410680914B060E942D
:101F9000491D0E940D1D8C0190914106692F70E032
:101FA0006F5F7F4F4AE050E087E896E00E9416227C
:101FB00060E375E087E896E00E945221B80187E867
:101FC00096E00E947121C8010E94252C2BC269E76E
:101FD00071E087E896E00E945F21809141060E94AF
:101FE0000D1D8C0190914106692F70E06F5F7F4F4E
:101FF0004AE050E087E896E00E94162260E375E030
:1020000087E896E00E945221B80187E896E00E9496
:102010007121C8010E94252C05C240E050E061E01A
:1020200070E087E896E00E94BA1669E671E087E8FA
:1020300096E00E945F218091430690914406181615
:1020400019065CF580914006E0913E06F0913F064E
:10205000E80FF11D8081811102C080E280838091B0
:102060004006E0913E06F0913F06E80FF11D8081A9
:102070008A3711F488ED808380914006E0913E0616
:10208000F0913F06E80FF11D80818A3710F48F5FD1
:1020900080831092440610924306809143069091EB
:1020A00044069923B4F480914006E0913E06F091F5
:1020B0003F06E80FF11D8081883D19F48AE780838F
:1020C00004C0813210F08150808310924406109237
:1020D000430660913E0670913F0687E896E00E94B5
:1020E00071218091400690E0BC01660F771F680F58
:1020F000791F660F771F01E010E026E030E04FE027
:1021000050E087E896E00E94CB168CC140E050E09A
:1021100061E070E087E896E00E94BA1669E571E038
:1021200087E896E00E945F2163E375E087E896E028
:102130000E9471214AE050E06091410687E896E0F4
:102140000E94412263E571E087E896E00E945F21EA
:1021500069C140E050E061E070E087E896E00E94ED
:10216000BA1666E471E087E896E00E945F2163E3B7
:1021700075E087E896E00E9471216091410670E069
:102180006E5F7F4F4AE050E087E896E00E941D2294
:1021900049C140E050E061E070E087E896E00E94CD
:1021A000BA1664E371E087E896E00E945F218091AF
:1021B00041060E940D1D8C0190914106692F70E02F
:1021C0006F5F7F4F4AE050E087E896E00E9416225A
:1021D00060E375E087E896E00E945221B80187E845
:1021E00096E00E947121C8010E94252C1BC180919C
:1021F000430690914406181619068CF480913B060C
:1022000090913C06019690933C0680933B069093F8
:10221000100180930F0110924406109243068091A2
:1022200043069091440699238CF480913B0690914B
:102230003C06019790933C0680933B0690931001D7
:1022400080930F01109244061092430640E050E044
:1022500061E070E087E896E00E94BA1663E271E000
:1022600087E896E00E945F2163E375E087E896E0E7
:102270000E94712160913B0670913C064AE050E05B
:1022800087E896E00E9448226EE171E087E896E0D8
:102290000E945F21C7C040E050E061E070E087E845
:1022A00096E00E94BA1664E171E087E896E00E9429
:1022B0005F2169E071E087E896E00E945F2160E0BD
:1022C00071E087E896E00E942E214AE050E061E04C
:1022D00070E087E896E00E94162260E375E087E8E8
:1022E00096E00E9452214AE050E060E070E087E80A
:1022F00096E00E941D2265EF70E087E896E00E945C
:102300002E21409126065091270660912806709153
:1023100029062AE030E087E896E00E94342262EF46
:1023200070E087E896E00E945F2167EE70E087E842
:1023300096E00E942E214091060150910701609184
:102340000801709109012AE030E087E896E00E94D8
:10235000342264EE70E087E896E00E945F2169ED28
:1023600070E087E896E00E942E214091220650916D
:10237000230660912406709125062AE030E087E864
:1023800096E00E94342266ED70E087E896E00E94B5
:102390005F2148C000E010E08091410690E0801786
:1023A000910749F441E050E060E070E087E896E092
:1023B0000E94BA1608C040E050E061E070E087E893
:1023C00096E00E94BA16E0914206F0E0EE0FFF1F81
:1023D000EE0FFF1FED5BFA4FC801880F991F0280B7
:1023E000F381E02DE80FF91F65917491CE010196FC
:1023F0000E94C22CBE016F5F7F4F87E896E00E946B
:1024000071210F5F1F4FE0914206F0E0EE0FFF1FBA
:10241000EE0FFF1FED5BFA4F808190E00817190760
:102420000CF4BACF87E896E00E94151C6E960FB6A2
:10243000F894DEBF0FBECDBFDF91CF911F910F91FA
:10244000FF90EF9008950FB6F894A89580916000E2
:10245000886180936000109260000FBE62E082E0AD
:102460000E94E02562E086E00E94E02562E085E0CF
:102470000E94E02562E083E00E94E02562E087E0C0
:102480000E94E02561E08BE00E94E02561E08DE0A4
:102490000E94E02561E084E00E94E0252091170180
:1024A0003091180140E050E060E67AEE80E090E084
:1024B0000E94512BCA01B9010E94F92920E030E0A5
:1024C00040EC51E40E944F2920E030E04AE754E418
:1024D0000E94AE2A60934606709347068093480692
:1024E00090934906F89414BC15BC16BC82E085BDD7
:1024F000EEE6F0E0808181608083789441E050E0F6
:1025000061ED74E080E00E94492521E04DE362E046
:1025100087E896E00E94D71A26E042E15AE760E099
:1025200070E088EB96E00E94032087E896E00E9426
:10253000631A61E087E896E00E94AE1661E070E001
:1025400087E896E00E94B4169FE088E10FB6F89401
:10255000A895809360000FBE909360000E942608AB
:102560000E9450070E946207C9E6D6E00F2EF0E6EF
:10257000CF2EFAEEDF2EE12CF12CF02D80913606D5
:1025800090913706A0913806B091390680932A06BB
:1025900090932B06A0932C06B0932D0660E070E07C
:1025A00085E090E00E94430661E070E083E090E007
:1025B0000E94430662E070E087E090E00E944306DC
:1025C0008C8581110E94200680915206882319F083
:1025D000813021F005C00E948D0702C00E94890849
:1025E0002091170130911801809150069091510669
:1025F0008217930771F140E050E0C701B6010E94D5
:10260000512BCA01B9010E94F92920E030E040ECC9
:1026100051E40E944F2920E030E04AE754E40E9450
:10262000AE2A6093460670934706809348069093BF
:1026300049060E94C129AB01BC0182EB96E00E94D1
:10264000C51E8091170190911801909351068093B7
:10265000500680911901882321F00E94CA0C109223
:1026600019018091360690913706A0913806B091F5
:10267000390640912A0650912B0660912C067091E4
:102680002D06841B950BA60BB70B80932606909303
:102690002706A0932806B093290640912206509160
:1026A00023066091240670912506481759076A078A
:1026B0007B0740F48093220690932306A093240680
:1026C000B0932506409106015091070160910801E1
:1026D0007091090184179507A607B70740F4809306
:1026E000060190930701A0930801B093090186E0C9
:1026F0000E944C268C0182E00E944C260817190784
:1027000021F41092440610924306A89537CF80E03A
:1027100090E0089508952F923F924F925F926F92AA
:102720007F928F929F92AF92BF92CF92DF92EF9261
:10273000FF920F931F93CF93DF9300D000D0CDB7BC
:10274000DEB75C017C836B836A014901FA82E9820E
:10275000C801841B950B9C0122F422273327281BD8
:10276000390BA4018B819C81481B590BCA01992309
:1027700024F488279927841B950B51E040E08217A9
:1027800093070CF050E0652E742E6114710459F01B
:10279000982D892D4801092F182F9B818C81DC826F
:1027A000CB82C92ED82EAB81BC818A169B060CF039
:1027B00045C09C2D8D2D6801092F182F9B818C8180
:1027C0009C828B82892E982E39C0EB81FC818E16DB
:1027D0009F060CF44EC00FEF1FEF02C001E010E0A7
:1027E0006114710471F0D501ED91FC910084F185C3
:1027F000E02D29813A814B815C81B601C5010995A3
:102800000DC0D501ED91FC910084F185E02D298169
:102810003A81A6016B817C81C5010995E418F50810
:1028200022F4C00ED11EE20CF31CEB81FC81319628
:10283000FC83EB838E169F069CF61BC014018B81D4
:102840009C81281A390AC8018C199D092C0122F48F
:1028500044245524481A590A710133201CF49FEF6F
:10286000E91AF90AF594E794C016D1060CF4B6CF2C
:10287000ACCF0F900F900F900F90DF91CF911F91E1
:102880000F91FF90EF90DF90CF90BF90AF909F900F
:102890008F907F906F905F904F903F902F90089512
:1028A0006F927F928F929F92AF92BF92CF92DF9260
:1028B000EF92FF920F931F93CF93DF93EC014B01A5
:1028C0005A0169013801E881F9810684F785E02D14
:1028D00087010995E881F981A501460D571D4150F1
:1028E00051090684F785E02D9601B401CE010995C2
:1028F000E881F9810484F585E02D9301A501B401F7
:10290000CE010995E881F981C80CD91CB601615046
:1029100071090484F585E02D9301A501CE01099587
:10292000DF91CF911F910F91FF90EF90DF90CF90AB
:10293000BF90AF909F908F907F906F900895EF928F
:10294000FF920F931F937801DC01ED91FC91240F0E
:10295000351F8901015011090284F385E02D9B0187
:1029600009951F910F91FF90EF900895EF92FF92BC
:102970000F931F93DC01ED91FC91260F371F21501F
:1029800031090284F385E02D78018A0109951F91B0
:102990000F91FF90EF9008956F927F928F929F9288
:1029A000AF92BF92CF92DF92EF92FF920F931F935D
:1029B000CF93DF936C01EB014A01580137017B0192
:1029C000E20EF31E6E157F0584F4D601ED91FC91A5
:1029D0000484F585E02D83019501A401BE01C601A3
:1029E00009952196CE15DF0584F3DF91CF911F91D4
:1029F0000F91FF90EF90DF90CF90BF90AF909F909E
:102A00008F907F906F900895EF92FF920F931F9396
:102A1000DC01ED91FC9111971A960D911C911B9779
:102A200018962D913C9119970288F389E02D7B012E
:102A300040E050E060E070E009951F910F91FF9039
:102A4000EF9008950895FC01138212828BEB95E0BC
:102A500091838083758364835783468371876087FE
:102A600053874287158A158614861786168681E055
:102A7000848B2FEF3FEF338B228B318B208B868B18
:102A800008952F923F924F925F926F927F928F9212
:102A90009F92AF92BF92CF92DF92EF92FF920F93ED
:102AA0001F93CF93DF93CDB7DEB762970FB6F8943D
:102AB000DEBF0FBECDBF5C011801FD82EC82CB8270
:102AC000DC0118968D919C911997681779070CF085
:102AD000C8C01A968D919C911B97481759070CF006
:102AE000C0C0EC2DF0E0FA83E983CF01880F991F75
:102AF0008E0F9F1F880F991F860F971F01970AF44B
:102B0000B0C0CF01880F991F880F991F880F991F98
:102B1000840F951F01970AF4A4C030E0C901880F03
:102B2000991F880F991F280F391F3F0179876887E0
:102B30007B876A871C86D901A61BB70BB88BAF872A
:102B40004D875E874A01B8E08B0E911C2401EC850D
:102B5000E53009F478C0EF85F88988859985E80F14
:102B6000F91FEB51FC4F14916FC0B0FE24C09B8144
:102B7000913079F4A989BA89ED91FC91119700847B
:102B8000F185E02D9101A60168857985CD01099532
:102B90003CC0A989BA89ED91FC9111970288F3890B
:102BA000E02D710109811A819801A4016E817F8154
:102BB000CD0109952AC0EC81FD81E215F30529F1CB
:102BC000FB81F13081F4A989BA89ED91FC911197CB
:102BD0000084F185E02D2C813D81A60168857985F1
:102BE000CD01099512C0A989BA89ED91FC9111977F
:102BF0000288F389E02DEC80FD8009811A8198011B
:102C0000A4016E817F81CD010995B694860C971C35
:102C1000BFEFCB1ADB0AC414D50409F0A6CFA988EC
:102C2000BA88EC85EF5FEC878A859B85860D971DBA
:102C30009B878A87A885B9851196B987A887E630CA
:102C400009F085CF0EC010E0BA85BE83EB85EF8317
:102C5000CD84DE848C2C9D2CC501B12E9A8B898B62
:102C600084CF62960FB6F894DEBF0FBECDBFDF9162
:102C7000CF911F910F91FF90EF90DF90CF90BF9079
:102C8000AF909F908F907F906F905F904F903F900C
:102C90002F900895CF92EF92FF920F931F93CF93AF
:102CA000DF936A3079F4FC01448926853785F8E0A2
:102CB0004F9F200D311D1124FC0137872687158673
:102CC00014863CC06D30D1F1262FEC01EA88FB88D8
:102CD000088919894E855F856C857D85CC880E9421
:102CE00041152C8930E0C901880F991F820F931F6D
:102CF000880F991F4C855D85840F951F9D878C8754
:102D00004E894423D9F04AEF4203B001439F700D2E
:102D1000112448855985460F571F4817590774F4E1
:102D2000220F331F220F331F220F331F8E859F85E3
:102D3000280F391F3F872E871D861C8681E090E073
:102D4000DF91CF911F910F91FF90EF90CF90089559
:102D5000FC0175876487578746870895611101C014
:102D600061E0FC01648B0895FC01738B628B718BB5
:102D7000608B0895FC01718B608B538B428B08959F
:102D8000FC0185890895FC01808591850895FC01E9
:102D90008285938508950F931F93FC018589823066
:102DA00071F08330E9F0813009F0C7C084819581EA
:102DB000DC01A41BB50BAD014150510922C1848136
:102DC0009581DC01A61BB70BBD0186819781DC01D3
:102DD000A41BB50BAD0141505109621B730BADC073
:102DE00086819781DC01A61BB70BBD01621B730BAB
:102DF00008C184819581481759070CF029C17723B0
:102E000024F4260F371F60E070E086819781FB0174
:102E1000E20FF31F8E179F071CF49C01261B370B34
:102E2000121613060CF014C1722F862F8695869504
:102E30008695B0E88B9F400D511D1124FA01E55D88
:102E4000FE4F677079F188E0861B482F50E0DA0169
:102E5000AD5DBE4F9C91281708F0D7C0421B5109A9
:102E60002FEF30E002C0359527954A95E2F792237F
:102E70000130110529F040F00230110551F0E8C091
:102E80002081922B908308C090952081922390837B
:102E900003C0208192279083781708F4D9C0781B4B
:102EA000E058FF4F783058F10230110559F4DF0136
:102EB000972F8C9180958C93A058BF4F9850983045
:102EC000C0F7B5C091E00130110509F090E091958F
:102ED000DF01872F9C93A058BF4F88508830D0F7D0
:102EE00088EF870F86958695869590E00196969552
:102EF000982F882797958795E80FF91F7770772384
:102F000009F4A6C07770A72FB0E0A55EBE4F8C91E4
:102F10000130110529F040F00230110551F098C040
:102F20009081892B808394C08095908189238083B0
:102F30008FC09081892780838BC055230CF488C073
:102F400086819781481759070CF082C0772324F4B3
:102F5000260F371F60E070E084819581FB01E20F4E
:102F6000F31F8E179F071CF49C01261B370B1216AC
:102F700013060CF06DC0CA0155230CF40796959505
:102F8000879595958795959587959695982F8827F8
:102F900097958795680F791F655D7E4F4770552718
:102FA00081E090E002C0880F991F4A95E2F7482F10
:102FB0000130110549F090F00230110509F048C0C8
:102FC000FB01620F731F16C0FB01620F731F80812C
:102FD000842B8193E617F707D1F73AC0982F909585
:102FE000FB01620F731F808189238193E617F70726
:102FF000D1F72EC0808184278193E617F707D1F798
:1030000027C055230CF0F5CE23C00130110509F47B
:1030100037CF08F439CF0230110509F43ACF3FCF4A
:10302000A72FA770B0E0A55EBE4F8C9182CF88EF2E
:10303000870F86958695869590E001969695982FB0
:10304000882797958795E80FF91F872F877041F795
:103050001F910F9108950F931F93FC018589823072
:1030600071F08330E9F0813009F084C0848195816A
:10307000DC01A41BB50BAD01421B530B22C18481A3
:103080009581DC01A61BB70BBD01615071098681DA
:103090009781DC01A41BB50BAD01421B530B6AC029
:1030A00086819781DC01A61BB70BBD0161507109B8
:1030B00008C186819781681779070CF029C15523CB
:1030C00024F4240F351F40E050E084819581FA01FB
:1030D000E20FF31F8E179F071CF49C01241B350B76
:1030E000121613060CF014C1CB0177230CF40796CB
:1030F0009595879595958795959587959695982F0C
:10310000882797958795480F591F455D5E4FCB01DE
:103110008770992761E070E002C0660F771F8A957B
:10312000E2F7962F0130110549F090F002301105B9
:1031300009F0EEC0FA01240F351F15C0FA01240F63
:10314000351F8081892B8193E217F307D1F7E0C007
:103150006095FA01240F351F808186238193E21741
:10316000F307D1F7D5C0808189278193E217F30750
:10317000D1F7CEC077230CF4CBC08481958168173A
:1031800079070CF0C5C0552324F4240F351F40E007
:1031900050E086819781FA01E20FF31F8E179F0797
:1031A0001CF49C01241B350B121613060CF0B0C046
:1031B000522F842F869586958695B0E88B9F600D5B
:1031C000711D1124FB01E55DFE4F477079F188E028
:1031D000841B682F70E0DB01AD5DBE4F9C9128170A
:1031E00008F073C0621B71092FEF30E002C0359503
:1031F00027956A95E2F792230130110529F040F0F6
:103200000230110551F084C02081922B908308C0B8
:10321000909520819223908303C0208192279083F0
:10322000581708F475C0581BE058FF4F583058F134
:103230000230110559F4DF01952F8C9180958C9304
:10324000A058BF4F98509830C0F751C091E001305E
:10325000110509F090E09195DF01852F9C93A0580E
:10326000BF4F88508830D0F788EF850F86958695B8
:10327000869590E001969695982F88279795879543
:10328000E80FF91F5770552309F442C05770A52F56
:10329000B0E0A55EBE4F8C910130110529F040F0E1
:1032A0000230110551F034C09081892B808330C0E9
:1032B00080959081892380832BC09081892780838A
:1032C00027C077230CF0F5CE23C00130110509F497
:1032D0009BCF08F49DCF0230110509F49ECFA3CFF8
:1032E000A52FA770B0E0A55EBE4F8C91E6CF88EF0A
:1032F000850F86958695869590E001969695982FF0
:10330000882797958795E80FF91F852F877041F7D4
:103310001F910F910895CF92DF92EF92FF920F933A
:103320001F93CF93DF937C01EB018A016901DD23B9
:103330000CF4A7C00E94C316C817D9070CF0A1C08F
:1033400011230CF49EC0C7010E94C7160817190765
:103350000CF097C0C7010E94C016823069F083301C
:10336000E1F0813019F5F70184819581801B910B83
:103370008E01EC0121971AC0F701848195819C018F
:103380002C1B3D0BE901219786819781FC01E01BF5
:10339000F10B8F010150110909C0F7018681978156
:1033A0008C1B9D0BE8018C0101501109F1E0CF1637
:1033B000D10439F030F132E0C316D10409F442C02F
:1033C00060C0C80111230CF40796959587959595D3
:1033D0008795959587959695982F882797958795A2
:1033E000C80FD91FC55DDE4F0770112781E090E03F
:1033F00002C0880F991F0A95E2F79881892B88836C
:1034000040C0C80111230CF40796959587959595B2
:103410008795959587959695982F88279795879561
:10342000C80FD91FC55DDE4F0770112781E090E0FE
:1034300002C0880F991F0A95E2F780959881892329
:1034400088831FC0C80111230CF4079695958795B2
:1034500095958795959587959695982F8827979513
:103460008795C80FD91FC55DDE4F0770112781E012
:1034700090E002C0880F991F0A95E2F7988189278A
:103480008883DF91CF911F910F91FF90EF90DF9094
:10349000CF9008951F93CF93DF93EC01162F40E454
:1034A00050E060E870E00E94231587ED95E0998375
:1034B00088838FEF898F8D8F8B8F8A8F1C8FDF9101
:1034C000CF911F91089580E094E0EBE2F1E0DF01FD
:1034D0009C011D9221503040E1F70895CF93FC01EB
:1034E000818D8F3F09F44AC0A3A1B4A19C9181A50D
:1034F000892B8C93A5A1B6A19C9182A58095892347
:103500008C93A3A1B4A19C9181A5809589238C93D0
:10351000868D882339F06EBD00000DB407FEFDCF07
:103520008EB525C048E050E020E8A1A1B2A19C9151
:1035300080A5809589238C93822F862339F0A78DCF
:10354000B0A19C9187A1892B8C9307C0A78DB0A1B6
:103550009C9187A1809589238C93A1A1B2A19C9174
:1035600080A5892B8C93269541505109F1F6A3A192
:10357000B4A19C9181A5892B8C9317C0C62F678914
:10358000062E000C770B8BE697E00E945A2760E02E
:103590008BE697E00E9407276C2F8BE697E00E944E
:1035A00007278BE697E00E946F27CF9108950F932E
:1035B0001F93CF93DF93EC01162F022F688F4F8B51
:1035C000898D8F3F09F477C061E08B8D0E94E025E3
:1035D00061E08D8D0E94E0258D8D082E000C990BE9
:1035E000FC01EB5EF64FE491F0E0EE0FFF1FED5CA7
:1035F000F64F259134913CA32BA3FC01EF5FF64FCE
:10360000E491E9A78B8D082E000C990BFC01EB5E71
:10361000F64FE491F0E0EE0FFF1FED5CF64F2591C1
:1036200034913EA32DA3FC01EF5FF64FE491EAA78E
:103630008E8D811137C061E0898D0E94E02561E0A7
:103640008A8D0E94E0258A8D082E000C990BFC01C2
:10365000EB5EF64FE491F0E0EE0FFF1FED5CF64FEE
:10366000259134913AA329A3FC01EF5FF64FE49131
:10367000E8A7898D082E000C990BFC01EB5EF64F34
:10368000E491F0E0EE0FFF1FED5CF64F25913491D1
:1036900038A32F8FFC01EF5FF64FE491EFA38E8DDF
:1036A000882369F00E9475268CB58C7F8CBD8DB502
:1036B00081608DBD04C08BE697E00E944627002301
:1036C000E1F061E08C8D0E94E02561E08C8D0E942C
:1036D0001C2661E070E080E090E00E94EB0560E075
:1036E0008C8D0E941C266AE070E080E090E00E94D1
:1036F000EB0561E08C8D0E941C266EEACE010E94D3
:103700006E1A65EDCE010E946E1A60E8CE010E942D
:103710006E1A68EACE010E946E1A6FE3CE010E9413
:103720006E1A63EDCE010E946E1A60E0CE010E9417
:103730006E1A60E4CE010E946E1A6DE8CE010E94FE
:103740006E1A113069F560E1CE010E946E1A60E2D6
:10375000CE010E946E1A60E0CE010E946E1A61EAEC
:10376000CE010E946E1A68ECCE010E946E1A6AEDBC
:10377000CE010E946E1A62E1CE010E946E1A61E8CB
:10378000CE010E946E1A6FE9CE010E946E1A69ED99
:10379000CE010E946E1A62E2CE010E946E1A2CC007
:1037A00064E1CE010E946E1A60E2CE010E946E1AA0
:1037B00060E0CE010E946E1A61EACE010E946E1A8C
:1037C00068ECCE010E946E1A6AEDCE010E946E1A5C
:1037D00062E1CE010E946E1A61E8CE010E946E1A6B
:1037E0006FECCE010E946E1A69EDCE010E946E1A36
:1037F00061EFCE010E946E1A6BEDCE010E946E1A2F
:1038000060E4CE010E946E1A64EACE010E946E1A34
:1038100066EACE010E946E1A6FEACE010E946E1A0D
:10382000DF91CF911F910F910895BF92CF92DF92B8
:10383000EF92FF920F931F93CF93DF93EC0161E21E
:103840000E946E1A60E0CE010E946E1A6FE7CE01F0
:103850000E946E1A62E2CE010E946E1A60E0CE01F2
:103860000E946E1A67E0CE010E946E1A898D8F3F0A
:1038700009F456C0EBA1FCA1908189A5892B808316
:10388000EDA1FEA190818AA5892B8083EBA1FCA1EB
:10389000808199A5909589238083ABE2B1E06BE2AA
:1038A00075E06894FF24F3F800E010E85D918E8DD8
:1038B000882339F05EBD00000DB407FEFDCF8EB544
:1038C00025C02F2D302F412FE9A1FAA1908188A585
:1038D000809589238083842F852339F0EF8DF8A18B
:1038E00090818FA1892B808307C0EF8DF8A19081F3
:1038F0008FA1809589238083E9A1FAA1908188A571
:10390000892B8083469521503109F1F6A617B70718
:1039100069F6EBA1FCA1908189A5892B808338C031
:10392000E8EBF0E0B0808CE080830BE211E00F2E3A
:10393000FBE2CF2EF5E0DF2EF02D6F89062E000C76
:10394000770B8BE697E00E945A27E0916B07F09186
:103950006C070190F081E02D60E48BE697E009951B
:10396000780180E1E80EF11CF80161918F018BE68E
:1039700097E00E940727E016F106B1F78BE697E083
:103980000E946F278701EC14FD04B9F6B092B800CD
:10399000DF91CF911F910F91FF90EF90DF90CF902B
:1039A000BF900895CF92DF92EF92FF920F931F93F3
:1039B000CF93DF93C82F88E090E00E94902B6C019A
:1039C00086E2C89F90011124C9018A579E4FEC01DD
:1039D0000E94EE2C8F3F41F448E050E066EE78E024
:1039E000C6010E94C92C0FC086017601E8E0EE0EE8
:1039F000F11CCE010E94EE2CF80181938F012196DB
:103A0000EE15FF05B1F7C601DF91CF911F910F9120
:103A1000FF90EF90DF90CF900895CF92DF92EF92DA
:103A2000FF920F931F93CF93DF93C82F8AE090E00C
:103A30000E94902BC82ED92E8DE0C89FE001112442
:103A4000CE010E94EE2C8F3F49F44AE050E060EE38
:103A500078E08C2D9D2D0E94C92C10C00C2D1D2DA1
:103A60007E01EAE0EE0EF11CCE010E94EE2CF80180
:103A700081938F012196CE15DF05B1F78C2D9D2DF9
:103A8000DF91CF911F910F91FF90EF90DF90CF903A
:103A9000089570E062577E4F9B0146E2849F200D9F
:103AA000311D1124C9010E94EE2C8F3F09F480E0E2
:103AB00008952DE0829FC00111240A960E94EE2CE9
:103AC00008952DE0829FC00111240B960E94EE2CD8
:103AD0008F3F09F481E008952DE0829FC0011124F9
:103AE0000C960E94EE2C8F3F09F484E008951F93FA
:103AF000CF93DF93EC010E94EE2C182FCE0101969C
:103B00000E94EE2C282F30E0922F8827810F911DE4
:103B1000DF91CF911F9108951F93CF93DF93EC0115
:103B2000162F0E94EE2C181721F0612FCE010E9453
:103B3000F62CDF91CF911F910895EF92FF920F9392
:103B40001F93CF93DF93EC01062F172FF72E0E94C0
:103B5000EE2C081721F0602FCE010E94F62C219642
:103B6000CE010E94EE2CF81621F0612FCE010E94AA
:103B7000F62CDF91CF911F910F91FF90EF90089558
:103B8000EF92FF920F931F93CF93DF9326E2829FD2
:103B9000C0011124EC01CA57DE4F8B017B0188E084
:103BA000E80EF11CF80161918F01CE010E948C1D7D
:103BB00021960E151F05B1F7DF91CF911F910F913F
:103BC000FF90EF900895262F30E022573E4F642F4C
:103BD000A90176E2879F400D511D1124CA010E9460
:103BE0008C1D0895EF92FF920F931F93CF93DF9355
:103BF0009DE0899FE0011124062F172F7E01EAE046
:103C0000EE0EF11CF80161918F01CE010E948C1D16
:103C10002196CE15DF05B1F7DF91CF911F910F915E
:103C2000FF90EF9008952DE0829FC00111240A9625
:103C30000E948C1D08952DE0829FC00111240B96D7
:103C40000E948C1D08952DE0829FC00111240C96C6
:103C50000E948C1D0895EF92FF920F931F93CF93B4
:103C6000DF930F2EF9E0EF2EF12CF02D23C06FEF34
:103C7000CE010E948C1D2196C017D107C1F760E0CC
:103C8000C7010E948C1D68E7C70101960E948C1D28
:103C900061E0C70102960E948C1D64E0C701039693
:103CA0000E948C1D8DE0E80EF11C8FE8E81681E083
:103CB000F80621F0E70129978701D9CFDF91CF914D
:103CC0001F910F91FF90EF900895EF92FF920F9345
:103CD0001F93CF93DF930F2EFDE8EF2EFF24F39475
:103CE000F02D21C06FEFCE010E948C1D2196C017D0
:103CF000D107C1F760E0C7010E948C1DE701219642
:103D00008701015E1F4F6FEFCE010E948C1D21962F
:103D10000C171D07C1F786E2E80EF11C8FEFE816BD
:103D200081E0F80621F0E70127978701DBCFDF91DB
:103D3000CF911F910F91FF90EF9008951F920F92D6
:103D40000FB60F9211242F933F934F935F936F936E
:103D50007F938F939F93AF93BF93EF93FF93E091E4
:103D6000B606F091B7060995FF91EF91BF91AF911B
:103D70009F918F917F916F915F914F913F912F9183
:103D80000F900FBE0F901F901895FC01440F551F08
:103D9000661F771F440F551F661F771F440F551F5F
:103DA000661F771F4115510581E0680771051CF4F6
:103DB00081E082834AC0689412F87595679557959B
:103DC00047951694D1F74115510581E068077105B3
:103DD0001CF482E0828339C0689412F87595679567
:103DE000579547951694D1F74115510581E068071D
:103DF00071051CF483E0828328C0759567955795FB
:103E0000479575956795579547954115510581E0FB
:103E1000680771051CF484E0828317C07595679567
:103E20005795479575956795579547954115510550
:103E300081E0680771051CF485E0828306C085E097
:103E400082834FEF5FEF60E070E08FB78383F89479
:103E500051834083509387004093860083818FBFB6
:103E6000A1E8B0E08C91887F8C939C918281892B12
:103E70008C9308950E94BD2CFC01918D228D892F79
:103E800090E0805C9F4F821B91098F739927089562
:103E9000FC01918D828D981731F0828DE80FF11D14
:103EA000858D90E008958FEF9FEF0895FC01918D2F
:103EB000828D981761F0828DDF01A80FB11D5D968C
:103EC0008C91928D9F5F9F73928F90E008958FEFFA
:103ED0009FEF0895FC01538D448D252F30E0842FF2
:103EE00090E0821B930B541710F0CF960895019722
:103EF0000895FC01848DDF01A80FB11DA35ABF4FA7
:103F00002C91848D90E001968F739927848FA689D8
:103F1000B7892C93A089B1898C9180648C93938DFF
:103F2000848D981306C00288F389E02D80818F7DEF
:103F300080830895CF93DF93EC01888D8823C9F0A7
:103F4000EA89FB89808185FD05C0A889B9898C91A2
:103F500086FD0FC00FB607FCF5CF808185FFF2CF3D
:103F6000A889B9898C9185FFEDCFCE010E94791F78
:103F7000E7CFDF91CF910895EF92FF920F931F93B8
:103F8000CF93DF93EC0181E0888F9B8D8C8D98130C
:103F900005C0E889F989808185FD24C0F62E0B8D46
:103FA00010E00F5F1F4F0F731127E02E8C8DE8126A
:103FB0000CC00FB607FCFACFE889F989808185FF2C
:103FC000F5CFCE010E94791FF1CF8B8DFE01E80F56
:103FD000F11DE35AFF4FF0820B8FEA89FB89808144
:103FE000806207C0EE89FF896083E889F989808152
:103FF0008064808381E090E0DF91CF911F910F91E9
:10400000FF90EF900895CF92DF92EF92FF921F936F
:10401000CF93DF93EC016A017B01122FE889F989C4
:1040200082E080834115514E61057105B1F060E079
:1040300079E08DE390E0A70196010E942F2BDA0131
:10404000C9010197A109B109B695A79597958795DB
:10405000AC01411580E15807A8F0E889F989108280
:1040600060E874E88EE190E0A70196010E942F2B92
:10407000BA01A90141505109610971097695679505
:1040800057954795EC85FD855083EE85FF854083E8
:10409000188EEC89FD891083EA89FB898081806113
:1040A0008083EA89FB89808188608083EA89FB8933
:1040B000808180688083EA89FB8980818F7D80830D
:1040C000DF91CF911F91FF90EF90DF90CF900895F7
:1040D0001F920F920FB60F9211242F938F939F93DD
:1040E000EF93FF93E091C806F091C9068081E091BB
:1040F000CE06F091CF0682FD12C090818091D1064C
:104100008F5F8F732091D206821751F0E091D10614
:10411000F0E0E854F94F958F8093D10601C080817B
:10412000FF91EF919F918F912F910F900FBE0F9064
:104130001F9018951F920F920FB60F9211242F9374
:104140003F934F935F936F937F938F939F93AF931F
:10415000BF93EF93FF9388EB96E00E94791FFF9146
:10416000EF91BF91AF919F918F917F916F915F91EF
:104170004F913F912F910F900FBE0F901F90189568
:10418000E8EBF6E01382128288EE93E0A0E0B0E064
:1041900084839583A683B78383EF95E0918380839F
:1041A00085EC90E09587848784EC90E097878687FC
:1041B00080EC90E0918B808B81EC90E0938B828BF4
:1041C00082EC90E0958B848B86EC90E0978B868BCD
:1041D000118E128E138E148E08950895CF92DF9251
:1041E000EF92FF920F931F93CF93DF936C017A01AD
:1041F0008B01C0E0D0E0CE15DF0589F0D8016D91CC
:104200008D01D601ED91FC910190F081E02DC60168
:104210000995892B11F47E0102C02196ECCFC701CC
:10422000DF91CF911F910F91FF90EF90DF90CF9092
:1042300008956115710579F0FB0101900020E9F7FF
:104240003197AF01461B570BDC01ED91FC910280C9
:10425000F381E02D099480E090E00895EF92FF92C1
:104260000F931F93CF93DF938C017B01C0E0D0E0CD
:10427000F701EC0FFD1F6491662361F0D801ED9109
:10428000FC910190F081E02DC8010995892B11F076
:104290002196EECFCE01DF91CF911F910F91FF902C
:1042A000EF9008950C941921DC01ED91FC9101909F
:1042B000F081E02D099461E076E00C9419210F93D0
:1042C0001F93CF93DF93EC010E942E218C01CE012E
:1042D0000E945B21800F911FDF91CF911F910F9161
:1042E00008950F931F93CF93DF93EC010E94192140
:1042F0008C01CE010E945B21800F911FDF91CF9135
:104300001F910F9108954F925F926F927F92EF925B
:10431000FF920F931F93CF93DF93CDB7DEB7A19793
:104320000FB6F894DEBF0FBECDBF7C01FA01CB0102
:1043300019A2223008F42AE08E010F5D1F4F422E91
:10434000512C612C712CBF01A30192010E942F2BD3
:10435000F901CA01015011096A3014F4605D01C00D
:10436000695CD8016C93232B242B252B61F7B801B2
:10437000C7010E941921A1960FB6F894DEBF0FBEA7
:10438000CDBFDF91CF911F910F91FF90EF907F9064
:104390006F905F904F900895CF92DF92EF92FF92CF
:1043A0000F931F93CF93DF93EC016A017B012115DB
:1043B000310579F4E881F9810190F081E02D642FD5
:1043C000DF91CF911F910F91FF90EF90DF90CF90F1
:1043D00009942A303105E9F477FF1AC06DE20E9492
:1043E00054218C0144275527BA014C195D096E09E7
:1043F0007F092AE0CE010E948321800F911FDF9167
:10440000CF911F910F91FF90EF90DF90CF90089583
:104410002AE0B701A601CE01DF91CF911F910F9144
:10442000FF90EF90DF90CF900C9483219A01AB0125
:10443000770F660B770B0C94CC210F931F93CF93C0
:10444000DF93EC019A01AB01770F660B770B0E94AB
:10445000CC218C01CE010E945B21800F911FDF9146
:10446000CF911F910F9108952115310541F4DC0181
:10447000ED91FC910190F081E02D642F09940C9452
:1044800083219A01462F50E060E070E00C943422C2
:104490009A01AB0160E070E00C9434223F924F929D
:1044A0005F926F927F928F929F92AF92BF92CF92C4
:1044B000DF92EF92FF920F931F93CF93DF9300D081
:1044C00000D0CDB7DEB790912B05981721F09F3F14
:1044D00009F036C204C0ECEEF8E0349081C080935D
:1044E0002B05ECEEF8E0E491EF3F09F429C2E1304E
:1044F00031F1E23009F44BC0E11171C014BC15BCBC
:1045000094B5926094BD95B5916095BDA82FB0E02B
:10451000FD01EB5EF64FE491F0E0EE0FFF1FED5C66
:10452000F64F059114911093650700936407FD0100
:10453000EF5FF64FE491E0936307312C53C0109284
:10454000800010928100909181009860909381008A
:1045500090918100916090938100A82FB0E0FD01BF
:10456000EB5EF64FE491F0E0EE0FFF1FED5CF64FCF
:104570000591149110935E0700935D07FD01EF5FB5
:10458000F64FE491E0935C07332433942BC01092F0
:10459000B0001092B1009091B00092609093B00082
:1045A0009091B10091609093B100A82FB0E0FD010F
:1045B000EB5EF64FE491F0E0EE0FFF1FED5CF64F7F
:1045C000059114911093570700935607FD01EF5F73
:1045D000F64FE491E093550702E0302E03C03E2EE3
:1045E00037FCAEC129013A018B0161E00E94E02550
:1045F0004801A12CB12C832D8D7F09F0BBC060E058
:1046000072E18AE790E0A50194010E94512B298371
:104610003A834B835C8369017A0121E0C21AD10895
:10462000E108F1088FEFC816D104E104F10409F0A4
:1046300008F44CC060E472E48FE090E0A5019401BE
:104640000E94512B69017A01E1E0CE1AD108E108FC
:10465000F108F2E03F1220C02FEFC216D104E104AE
:10466000F10409F008F46AC160E970ED83E090E0BC
:10467000A50194010E94512B69017A0181E0C81AB9
:10468000D108E108F108EFEFCE16D104E104F104FE
:1046900009F0D0F583E067C0FFEFCF16D104E10445
:1046A000F104B1F0A8F068E478EE81E090E0A501B3
:1046B00094010E94512B69017A0181E0C81AD10846
:1046C000E108F108332009F4DFC02FC181E001C007
:1046D00082E03320A1F047C089819A81AB81BC81FF
:1046E0002AE0B595A795979587952A95D1F76C01FE
:1046F0007D0121E0C21AD108E108F10885E095B5F5
:10470000987F892B85BD6FC068E478EE81E090E0EA
:10471000A50194010E94512B69017A01F1E0CF1AA1
:10472000D108E108F1082FEFC216D104E104F10429
:1047300009F008F4A7C064E274EF80E090E0A501FE
:1047400094010E94512B69017A01E1E0CE1AD1084F
:10475000E108F108FFEFCF16D104E104F10411F0F4
:1047600008F0B4C085E09091B100987F892B8093C8
:10477000B10039C060E072E18AE790E0A5019401E0
:104780000E94512B69017A0181E0C81AD108E10821
:10479000F108C114D104E1E0EE06F10488F068E408
:1047A00078EE81E090E0A50194010E94512B69010F
:1047B0007A01F1E0CF1AD108E108F10893E001C0D5
:1047C00091E021E032120FC080918100887F892B17
:1047D00080938100411451046104710449F42FEF66
:1047E0003FEFA9012DC0411451046104710471F01F
:1047F000D801AA0FBB1FA30192010E94762B28EEBD
:1048000033E040E050E00E942F2B03C02FEF3FEF3A
:10481000A90181E03816A1F0E2E03E1619F131104D
:104820008FC0C7BC20936607309367074093680723
:104830005093690780916E00826080936E0080C003
:10484000D0928900C092880020935F073093600760
:10485000409361075093620780916F00826080935C
:104860006F006EC0C092B300209358073093590771
:1048700040935A0750935B07809170008260809349
:1048800070005EC084E06FCFFFEFCF16D104E1046B
:10489000F104D1F0C8F062E17AE780E090E0A50190
:1048A00094010E94512B69017A0181E0C81AD10854
:1048B000E108F108EFEFCE16D104E104F10411F0A4
:1048C00008F00ACF84E01BCF83E019CF62E17AE7DA
:1048D00080E090E0A50194010E94512B69017A01CA
:1048E00081E0C81AD108E108F108EFEFCE16D10433
:1048F000E104F104C1F0B8F089819A81AB81BC81F7
:104900004AE0B595A795979587954A95D1F76C019B
:104910007D0121E0C21AD108E108F108332009F431
:10492000EDCE87E020CF86E0D4CEFFEFCF16D104C6
:10493000E104F10409F050F684E0CBCE82E013CF1D
:104940000F900F900F900F90DF91CF911F910F91CB
:10495000FF90EF90DF90CF90BF90AF909F908F909F
:104960007F906F905F904F903F900895813039F025
:1049700018F0823051F0089510926E0008958091E1
:104980006F008D7F80936F000895809170008D7F00
:104990008093700081E08093B0008091B100887FA7
:1049A00084608093B1001092B3000895CF93C82F14
:1049B00080912B058C1307C0ECEEF8E0E4918FEFAB
:1049C00080932B0501C0EFEF8E2F0E94B62460E08C
:1049D0008C2FCF910C941C261F920F920FB60F9222
:1049E00011242F933F934F935F936F937F938F93F4
:1049F0009F93AF93BF93EF93FF938091580790914C
:104A00005907A0915A07B0915B07892B8A2B8B2BF2
:104A100051F180915507E0915607F0915707908129
:104A2000892780838091580790915907A0915A0750
:104A3000B0915B07181619061A061B06C4F480917C
:104A4000580790915907A0915A07B0915B070197B9
:104A5000A109B1098093580790935907A0935A0769
:104A6000B0935B0704C080912B050E94D624FF9170
:104A7000EF91BF91AF919F918F917F916F915F91D6
:104A80004F913F912F910F900FBE0F901F9018954F
:104A900008958230E8F4E82FF0E0EE0FFF1FE45DA8
:104AA000FA4F71836083813041F0809169008C7F7F
:104AB000482B40936900E89A089580916900440F5B
:104AC000551F440F551F837F482B40936900E99A77
:104AD00008951F920F920FB60F9211242F933F93B8
:104AE0004F935F936F937F938F939F93AF93BF93F6
:104AF000EF93FF93E0912C05F0912D050995FF911F
:104B0000EF91BF91AF919F918F917F916F915F9145
:104B10004F913F912F910F900FBE0F901F901895BE
:104B20001F920F920FB60F9211242F933F934F9322
:104B30005F936F937F938F939F93AF93BF93EF9305
:104B4000FF93E0912E05F0912F050995FF91EF91CC
:104B5000BF91AF919F918F917F916F915F914F9195
:104B60003F912F910F900FBE0F901F90189583309B
:104B700081F028F4813099F08230A1F008958730D7
:104B8000A9F08830B9F08430D1F4809180008F7D15
:104B900003C0809180008F7780938000089584B552
:104BA0008F7702C084B58F7D84BD08958091B00059
:104BB0008F7703C08091B0008F7D8093B0000895FF
:104BC000CF93DF9390E0FC01EF5FF64F2491FC015F
:104BD000EB5EF64F8491882361F190E0880F991F76
:104BE000FC01E35CF64FC591D491FC01ED5CF64FFE
:104BF000A591B491611109C09FB7F894888120955F
:104C000082238883EC912E230BC0623061F49FB71E
:104C1000F8943881822F809583238883EC912E2B02
:104C20002C939FBF06C08FB7F894E8812E2B288362
:104C30008FBFDF91CF9108951F93CF93DF93282FDC
:104C400030E0F901E351F74F8491F901EF5FF64F3E
:104C5000D491F901EB5EF64FC491CC23C9F0162F25
:104C600081110E94B725EC2FF0E0EE0FFF1FED5CE5
:104C7000F64FA591B4918FB7F894111105C09C918E
:104C8000ED2FE095E92302C0EC91ED2BEC938FBF63
:104C9000DF91CF911F910895CF93DF93282F30E0BC
:104CA000F901E351F74F8491F901EF5FF64FD49189
:104CB000F901EB5EF64FC491CC2391F081110E9473
:104CC000B725EC2FF0E0EE0FFF1FE75DF64FA59143
:104CD000B491EC91ED2381E090E021F480E002C0FA
:104CE00080E090E0DF91CF910895CF93CFB7F89413
:104CF00080916A07811127C0EFE1F9E08491EBE030
:104D0000F9E09491E82FF0E0EE0FFF1FE35CF64F1F
:104D1000A591B491EC91E92321F461E08AE00E942D
:104D20001C2661E08AE00E94E0258CB580618CBD84
:104D30008CB580648CBD61E08DE00E94E02561E06F
:104D40008BE00E94E02580916A078F5F80936A075D
:104D5000CFBFCF91089580919B0790E020919C0751
:104D6000821B9109089590919C0780919B07981749
:104D700050F4E92FF0E0E356F84F208130E09F5FD8
:104D800090939C0702C02FEF3FEFC9010895E09177
:104D90009C0780919B07E81730F4F0E0E356F84F4A
:104DA000808190E008958FEF9FEF08950895CF924E
:104DB000DF92EF92FF920F931F93CF93DF937C01CB
:104DC000262F972F8A0180917707882391F0C62F8D
:104DD000D72F6E01C40ED51ECC15DD0571F069917B
:104DE000D701ED91FC910190F081E02DC70109956B
:104DF000F3CF642F822F0E94EA27C801DF91CF9161
:104E00001F910F91FF90EF90DF90CF900895CF9377
:104E1000DF931F92CDB7DEB76983209177072223F6
:104E2000D1F020917807203240F021E030E0FC0101
:104E30003383228380E090E015C080917907E82FCA
:104E4000F0E0E658F84F998190838F5F809379075F
:104E50008093780705C061E0CE0101960E94EA27A1
:104E600081E090E00F90DF91CF910895FC011382D3
:104E7000128288EE93E0A0E0B0E084839583A6835D
:104E8000B78384E196E091838083089510929C0714
:104E900010929B0710927907109278070C9476274E
:104EA00081E08093770760939A07109279071092B8
:104EB000780708950C9450270F93062F21E0409116
:104EC00078076AE777E080919A070E94942710920A
:104ED000790710927807109277070F91089561E093
:104EE0000C945C278BE697E00C94362710922A08E6
:104EF00081E0809328081092270861E082E10E94F7
:104F00001C2661E083E10E941C26E9EBF0E0808131
:104F10008E7F808380818D7F808388E48093B8003A
:104F200085E48093BC0008950F93413208F04AC095
:104F300090912A089111FCCF32E030932A08009317
:104F400028083FEF3093BD071092020840930108F4
:104F5000FB0163E078E0DB013A2F361B341718F4CD
:104F600031913D93F9CF1092290830912908880F8B
:104F7000832B8093290880912708813061F4109257
:104F80002708809129088093BB008091BC0083FD95
:104F9000F8CF85EC01C085EE8093BC00222321F080
:104FA00080912A088230D1F38091BD078F3F79F03C
:104FB0008091BD07803241F08091BD07803331F090
:104FC00094E005C091E003C092E001C093E0892F16
:104FD0000F9108954091DF07262F30E0240F311DF7
:104FE00021323105DCF420912A082430C9F4FC0177
:104FF00080E090E0861758F43091DF072191DC01C2
:10500000AF51B84FA30FB11D2C930196F3CF8091F0
:10501000DF07680F6093DF0780E0089581E008955F
:1050200082E0089585ED8093BC008091BC0084FDF2
:10503000FCCF10922A08089585EC8093BC00109252
:105040002A0808951F920F920FB60F9211242F93E2
:105050003F934F935F936F937F938F939F93AF9300
:10506000BF93EF93FF938091B900887F803609F456
:105070009EC078F5883209F45DC090F4803109F45F
:1050800056C038F4882309F4F5C0883009F44FC0BD
:10509000F5C0883109F44EC0803209F45FC0EEC01B
:1050A000803409F46AC058F4803309F457C0883357
:1050B00009F0E4C08093BD070E941C28DFC0803542
:1050C00009F44FC0883509F45DC0883409F0D6C0B2
:1050D000D3C0883909F4C4C0A8F4883709F467C07C
:1050E00038F4883609F463C0803709F460C0C6C05C
:1050F000883809F4B5C0803909F45FC0803809F0F8
:10510000BDC05BC0803B09F483C038F4803A09F429
:1051100066C0883A09F47CC0B1C0803C09F4A4C0E0
:10512000883C09F4A1C0883B09F487C0A7C08091DE
:10513000290810C09091020880910108981770F515
:10514000E091020881E08E0F80930208F0E0ED5FAD
:10515000F74F80818093BB0085EC83C08093BD07AF
:105160008BC0E091020881E08E0F8093020880914D
:10517000BB00F0E0ED5FF74F8083909102088091D3
:1051800001086BC0E091020881E08E0F8093020855
:105190008091BB00F0E0ED5FF74F8083809128089D
:1051A00081116AC081E08093270884EA5EC083E0B1
:1051B00080932A081092BE07CFCF8091BE0780321D
:1051C00008F04EC0E091BE0781E08E0F8093BE07CD
:1051D0008091BB00F0E0E154F84F8083BDCF0E9486
:1051E0001C288091BE07803230F4E091BE07F0E0C9
:1051F000E154F84F10826091BE0770E0E0912308FF
:10520000F09124088FEB97E009951092BE0736C005
:1052100084E080932A081092E0071092DF07E09163
:105220002508F091260809958091DF07811105C0B6
:1052300081E08093DF071092E107E091E00781E0D1
:105240008E0F8093E007F0E0EF51F84F808180935C
:10525000BB009091E0078091DF07981708F47CCF9E
:1052600085E88093BC000AC085EC8093BC00109256
:105270002A0804C01092BD070E941228FF91EF91E6
:10528000BF91AF919F918F917F916F915F914F915E
:105290003F912F910F900FBE0F901F9018950E9475
:1052A00063290C946F2A0E94682A58F00E94612A90
:1052B00040F029F45F3F29F00C94582A51110C94C6
:1052C000A32A0C945E2A0E94802A68F39923B1F3E2
:1052D000552391F3951B550BBB27AA27621773071C
:1052E000840738F09F5F5F4F220F331F441FAA1FB0
:1052F000A9F335D00E2E3AF0E0E832D0915050406C
:10530000E695001CCAF72BD0FE2F29D0660F771F19
:10531000881FBB1F261737074807AB07B0E809F0FF
:10532000BB0B802DBF01FF2793585F4F3AF09E3F84
:10533000510578F00C94582A0C94A32A5F3FE4F3AB
:10534000983ED4F3869577956795B795F7959F5FC7
:10535000C9F7880F911D9695879597F90895E1E013
:10536000660F771F881FBB1F621773078407BA0772
:1053700020F0621B730B840BBA0BEE1F88F7E095CD
:1053800008950E94C8296894B1110C94A32A089525
:105390000E94882A88F09F5798F0B92F9927B75113
:1053A000B0F0E1F0660F771F881F991F1AF0BA95C9
:1053B000C9F714C0B13091F00E94A22AB1E008955B
:1053C0000C94A22A672F782F8827B85F39F0B93F4D
:1053D000CCF3869577956795B395D9F73EF490957C
:1053E0008095709561957F4F8F4F9F4F0895E894FA
:1053F00009C097FB3EF490958095709561957F4F1D
:105400008F4F9F4F9923A9F0F92F96E9BB279395CA
:10541000F695879577956795B795F111F8CFFAF4DA
:10542000BB0F11F460FF1BC06F5F7F4F8F4F9F4F0B
:1054300016C0882311F096E911C0772321F09EE869
:10544000872F762F05C0662371F096E8862F70E0CF
:1054500060E02AF09A95660F771F881FDAF7880FA9
:105460009695879597F90895990F0008550FAA0BFF
:10547000E0E8FEEF16161706E807F907C0F0121667
:105480001306E407F50798F0621B730B840B950B6A
:1054900039F40A2661F0232B242B252B21F40895BF
:1054A0000A2609F4A140A6958FEF811D811D08955C
:1054B00097F99F6780E870E060E008959FEF80ECC7
:1054C000089500240A94161617061806090608956A
:1054D00000240A9412161306140605060895092ED0
:1054E0000394000C11F4882352F0BB0F40F4BF2B3F
:1054F00011F460FF04C06F5F7F4F8F4F9F4F08957F
:1055000057FD9058440F551F59F05F3F71F0479574
:10551000880F97FB991F61F09F3F79F08795089559
:10552000121613061406551FF2CF4695F1DF08C078
:10553000161617061806991FF1CF86957105610595
:1055400008940895E894BB2766277727CB0197F93D
:1055500008950E94342A08F48FEF08950E94C12A0A
:105560000C946F2A0E94612A38F00E94682A20F069
:10557000952311F00C94582A0C945E2A11240C9453
:10558000A32A0E94802A70F3959FC1F3950F50E0E3
:10559000551F629FF001729FBB27F00DB11D639FE5
:1055A000AA27F00DB11DAA1F649F6627B00DA11D8B
:1055B000661F829F2227B00DA11D621F739FB00D31
:1055C000A11D621F839FA00D611D221F749F3327A1
:1055D000A00D611D231F849F600D211D822F762F3A
:1055E0006A2F11249F5750409AF0F1F088234AF017
:1055F000EE0FFF1FBB1F661F771F881F9150504083
:10560000A9F79E3F510580F00C94582A0C94A32AC8
:105610005F3FE4F3983ED4F3869577956795B79509
:10562000F795E7959F5FC1F7FE2B880F911D969523
:10563000879597F90895AA1BBB1B51E107C0AA1FC4
:10564000BB1FA617B70710F0A61BB70B881F991F23
:105650005A95A9F780959095BC01CD010895A1E2D6
:105660001A2EAA1BBB1BFD010DC0AA1FBB1FEE1FDC
:10567000FF1FA217B307E407F50720F0A21BB30B27
:10568000E40BF50B661F771F881F991F1A9469F7A3
:1056900060957095809590959B01AC01BD01CF01FF
:1056A0000895052E97FB1EF400940E94682B57FD69
:1056B00007D00E942F2B07FC03D04EF40C94682BCC
:1056C00050954095309521953F4F4F4F5F4F08952E
:1056D00090958095709561957F4F8F4F9F4F08955E
:1056E000EE0FFF1F0590F491E02D09940E94812B8D
:1056F000A59F900DB49F900DA49F800D911D112426
:105700000895A29FB001B39FC001A39F700D811D9A
:105710001124911DB29F700D811D1124911D0895BA
:10572000CF93DF938230910510F482E090E0E09116
:105730002D08F0912E0820E030E0C0E0D0E0309756
:1057400011F14081518148175907C0F04817590796
:1057500061F482819381209719F09B838A832BC007
:1057600090932E0880932D0826C02115310519F03D
:105770004217530718F49A01BE01DF01EF010280BE
:10578000F381E02DDCCF2115310509F1281B390B00
:105790002430310590F412968D919C9113976115E8
:1057A000710521F0FB019383828304C090932E083E
:1057B00080932D08FD01329644C0FD01E20FF31FD6
:1057C00081939193225031092D933C933AC02091BB
:1057D0002B0830912C08232B41F4209102013091A9
:1057E000030130932C0820932B0820910001309165
:1057F00001012115310541F42DB73EB74091040157
:1058000050910501241B350BE0912B08F0912C08D9
:10581000E217F307A0F42E1B3F0B2817390778F087
:10582000AC014E5F5F4F2417350748F04E0F5F1FE6
:1058300050932C0840932B088193919302C0E0E091
:10584000F0E0CF01DF91CF9108950F931F93CF9395
:10585000DF93009709F48CC0FC0132971382128207
:1058600000912D0810912E080115110581F4208159
:105870003181820F931F20912B0830912C0828171B
:10588000390779F5F0932C08E0932B0871C0D80103
:1058900040E050E0AE17BF0750F412962D913C91B6
:1058A0001397AD012115310509F1D901F3CF9D0100
:1058B000DA013383228360817181860F971F8217FB
:1058C000930769F4EC0128813981260F371F2E5F79
:1058D0003F4F318320838A819B8193838283452B31
:1058E00029F4F0932E08E0932D0842C01396FC9300
:1058F000EE931297ED01499159919E01240F351FA6
:10590000E217F30771F480819181840F951F02964D
:1059100011969C938E938281938113969C938E9380
:105920001297E0E0F0E0D80112968D919C911397C8
:10593000009719F0F8018C01F6CF8D919C91980198
:105940002E5F3F4F820F931F20912B0830912C0820
:105950002817390769F4309729F410922E0810920D
:105960002D0802C01382128210932C0800932B087A
:10597000DF91CF911F910F91089581E090E0F8940D
:105980000C94042DFB01DC0105900D920020E1F741
:105990000895FB01DC014150504048F005900D9204
:1059A0000020C9F701C01D9241505040E0F7089512
:1059B000FB01DC0101900D920020E1F70895FB014D
:1059C000DC014150504048F001900D920020C9F791
:1059D00001C01D9241505040E0F70895F999FECF63
:1059E00092BD81BDF89A992780B50895262FF9991F
:1059F000FECF1FBA92BD81BD20BD0FB6F894FA9AB2
:0C5A0000F99A0FBE01960895F894FFCFAC
:105A0C0000002F08800080841E003C00020001B8BA
:105A1C0001040001003200A0000101000103070F86
:105A2C001F3F7F0080C0E0F0F8FCFE00000000008B
:105A3C00000000000000000000000000000000005A
:105A4C00000000000000000000000000000000004A
:105A5C00000000000000000000000000000000003A
:105A6C0000000000000000000000808080000000AA
:105A7C000000000000000000000000008080C0C09A
:105A8C00000000000000000000000000000000000A
:105A9C0000000000000000000000000000000000FA
:105AAC0000000000000000000000000000000000EA
:105ABC00000000000000000000000000000000805A
:105ACC00C0E0F0F8FCF8E00000000000000000006E
