:100000000C9423030C94AA1E0C94D71E0C944B033F
:100010000C944B030C944B030C944B030C94151C45
:100020000C944B030C944B030C944B030C944B0318
:100030000C944B030C944B030C944B030C944B0308
:100040000C94041F0C944B030C944B030C944B0323
:100050000C944B030C944B030C944B030C944B03E8
:100060000C944C220C944B0300000000003FF00065
:10007000007FF80300E01C0700E01C0E00C30C7CAE
:1000800000C30C9801C00E8401830644018006F46D
:10009000038307C0038003800303070003000F806E
:1000A00007031F8006031D80060339800E0371C0FD
:1000B0000E03E0C00C0FC0C01C1030E01C2010600C
:1000C0001840086018400860387FF8703C0000F065
:1000D0003FFFFFF07FFFFFF87FFFFFF87FFFFFF894
:1000E0007FFFFFF87FFFFFF87FFFFFF800000000B1
:1000F000003E5B4F5B3E3E6B4F6B3E1C3E7C3E1CAE
:10010000183C7E3C181C577D571C1C5E7F5E1C00F3
:10011000183C1800FFE7C3E7FF0018241800FFE7AA
:10012000DBE7FF30483A060E2629792926407F056D
:100130000507407F05253F5A3CE73C5A7F3E1C1C83
:1001400008081C1C3E7F14227F22145F5F005F5F43
:1001500006097F017F006689956A6060606060942F
:10016000A2FFA29408047E040810207E2010080834
:100170002A1C08081C2A08081E101010100C1E0C3F
:100180001E0C30383E3830060E3E0E0600000000D1
:100190000000005F00000007000700147F147F14B8
:1001A000242A7F2A122313086462364956205000FD
:1001B00008070300001C2241000041221C002A1CE9
:1001C0007F1C2A08083E08080080703000080808D4
:1001D0000808000060600020100804023E514945F4
:1001E0003E00427F400072494949462141494D3312
:1001F0001814127F1027454545393C4A4949314179
:10020000211109073649494936464949291E000046
:10021000140000004034000000081422411414149B
:100220001414004122140802015909063E415D5987
:100230004E7C1211127C7F494949363E4141412290
:100240007F4141413E7F494949417F090909013EBA
:10025000414151737F0808087F00417F41002040E1
:10026000413F017F081422417F404040407F021CF3
:10027000027F7F0408107F3E4141413E7F0909090A
:10028000063E4151215E7F091929462649494932D6
:1002900003017F01033F4040403F1F2040201F3F9C
:1002A0004038403F63140814630304780403615921
:1002B000494D43007F414141020408102000414163
:1002C000417F04020102044040404040000307080F
:1002D0000020545478407F2844443838444444280B
:1002E000384444287F385454541800087E090218B2
:1002F000A4A49C787F0804047800447D400020403A
:10030000403D007F1028440000417F40007C04787D
:1003100004787C080404783844444438FC182424C5
:100320001818242418FC7C08040408485454542445
:1003300004043F44243C4040207C1C2040201C3CC2
:100340004030403C44281028444C9090907C4464B9
:10035000544C44000836410000007700000041364C
:10036000080002010204023C2623263C1EA1A161D2
:10037000123A4040207A3854545559215555794104
:100380002254547842215554784020545579400CD9
:100390001E527212395555555939545454593955BC
:1003A0005454580000457C410002457D42000145FF
:1003B0007C407D1211127DF0282528F07C54554593
:1003C000002054547C547C0A097F493249494932FF
:1003D0003A4444443A324A4848303A4141217A3A10
:1003E00042402078009DA0A07D3D4242423D3D40DC
:1003F00040403D3C24FF2424487E4943662B2FFC8B
:100400002F2BFF0929F620C0887E09032054547938
:10041000410000447D413048484A32384040227A09
:10042000007A0A0A727D0D19317D2629292F282686
:100430002929292630484D4020380808080808088E
:100440000808382F10C8ACBA2F102834FA00007BE7
:10045000000008142A142222142A1408AA005500A5
:10046000AAAA55AA55AA000000FF00101010FF000C
:10047000141414FF001010FF00FF1010F010F014FF
:100480001414FC001414F700FF0000FF00FF141404
:10049000F404FC141417101F10101F101F14141450
:1004A0001F00101010F0000000001F101010101F8F
:1004B00010101010F010000000FF1010101010109D
:1004C000101010FF10000000FF140000FF00FF00DC
:1004D000001F10170000FC04F41414171017141454
:1004E000F404F40000FF00F714141414141414F7A7
:1004F00000F7141414171410101F101F141414F400
:10050000141010F010F000001F101F0000001F1446
:10051000000000FC140000F010F01010FF10FF1499
:100520001414FF141010101F00000000F010FFFF43
:10053000FFFFFFF0F0F0F0F0FFFFFF000000000011
:10054000FFFF0F0F0F0F0F3844443844FC4A4A4A4C
:10055000347E02020606027E027E02635549416332
:100560003844443C04407E201E2006027E0202994C
:10057000A5E7A5991C2A492A1C4C7201724C304AE5
:100580004D4D303048784830BC625A463D3E49496E
:1005900049007E0101017E2A2A2A2A2A44445F4416
:1005A0004440514A444040444A51400000FF010346
:1005B000E080FF000008086B6B0836123624360610
:1005C0000F090F060000181800000010100030403E
:1005D000FF0101001F01011E00191D1712003C3C04
:1005E0003C3C000000000002000000002400270046
:1005F0002A0000000000250028002B000000000059
:100600002300260029000404040404040404020254
:100610000202020203030303030301020408102081
:10062000408001020408102001020408102000008C
:1006300000070002010000030406000000000000A3
:1006400000004D03422111241FBECFEFD8E0DEBFD2
:10065000CDBF15E0A0E0B1E0ECE0F9E402C0059008
:100660000D92AC36B107D9F716E0ACE6B5E001C0A3
:100670001D92A338B107E1F716E0C6E4D6E004C046
:100680002297FE010E948024C234D107C9F70E943C
:10069000F81A0C9484240C9400008CE695E064E035
:1006A0000E94711908950F931F9381E00E948D207D
:1006B0008C0182E00E948D200817190751F4809167
:1006C0009F059091A00501969093A00580939F05AA
:1006D00009C080919F059091A00501979093A00576
:1006E00080939F051F910F910895AF92BF92CF9273
:1006F000DF92EF92FF920F931F93DF93CF93CDB7CB
:10070000DEB763970FB6F894DEBF0FBECDBFDE0134
:100710001196E1E1F1E089E001900D928150E1F75D
:10072000DE011A96E7E0F1E08AE001900D92815037
:10073000E1F70CE615E0C8010E941B15C80161E055
:100740000E944911C80161E070E00E944F11C80188
:1007500060E070E040E050E00E9443118E010F5FC6
:100760001F4F0F2EFCE6EF2EF5E0FF2EF02D0F2E83
:10077000FAE0CF2EDD24F02DCC0EDD1EC701F801EE
:1007800061918F010E94321BC7010E94351769E1F8
:1007900070E080E090E00E94661F0C151D0571F767
:1007A00068EE73E080E090E00E94661F8CE695E0C2
:1007B00060E071E00E94DA1B8E01065F1F4F0F2E72
:1007C000FCE6EF2EF5E0FF2EF02D0F2EF4E1CF2EFC
:1007D000DD24F02DCC0EDD1EC701F80161918F01E3
:1007E0000E94321BC7010E94351769E170E080E06A
:1007F00090E00E94661F0C151D0571F768EE73E00E
:1008000080E090E00E94661F0F2EFCE6AF2EF5E020
:10081000BF2EF02DC5016AE570E044E150E028E606
:1008200030E000E210E00F2EF1E2EF2EFF24F02D79
:10083000CC24DD246894C1F80E94CE0DC5010E942D
:10084000351768EE73E080E090E00E94661F6396C3
:100850000FB6F894DEBF0FBECDBFCF91DF911F91D1
:100860000F91FF90EF90DF90CF90BF90AF900895E1
:100870000F931F93209102013091030140E050E05B
:1008800060E67AEE80E090E00E944F242093970586
:10089000309398054093990550939A050E94581FEC
:1008A00020919B0530919C0540919D0550919E059E
:1008B000621B730B840B950B209197053091980563
:1008C0004091990550919A0562177307840795071F
:1008D00068F081E0809306010E94581F60939B0599
:1008E00070939C0580939D0590939E0580910601D1
:1008F000882391F08DE061E00E943920209104016D
:100900003091050140E050E08BE068EB71E00E941F
:10091000711C1092060107C08DE060E00E94392032
:100920008BE00E94FE1B0CE615E0C8010E941B151F
:10093000C80160E070E040E050E00E944311609127
:100940009F057091A005C8014AE050E00E94C91BB4
:10095000C8010E943517A8951F910F9108950F9314
:100960001F9388E10FB6F8948093600010926000A6
:100970000FBE82E060E00E94FA1F81E060E00E940A
:10098000FA1F8BE061E00E94FA1F8DE061E00E9497
:10099000FA1F84E061E00E94FA1F80E063E573E0E3
:1009A00041E050E00E94871E0CE615E0C80162E0BD
:1009B0004DE321E00E942318C8010E941B150E94EC
:1009C00075032FE088E190E00FB6F894A895809326
:1009D00060000FBE209360001F910F910895FC01ED
:1009E000138212828EE191E0918380837583648308
:1009F000578346837187608753874287158A158698
:100A000014861786168621E0248B8FEF9FEF938B39
:100A1000828B918B808B268B0895FC01138212822E
:100A20008EE191E09183808375836483578346834D
:100A30007187608753874287158A158614861786C3
:100A4000168621E0248B8FEF9FEF938B828B918B07
:100A5000808B268B08952F923F924F925F926F92D8
:100A60007F928F929F92AF92BF92CF92DF92EF923E
:100A7000FF920F931F93DF93CF93CDB7DEB72897E5
:100A80000FB6F894DEBF0FBECDBF98878F831B01D2
:100A90002A0159013801DC01ED91FC91A901440DB5
:100AA000551D0480F581E02D98010995AF81B88529
:100AB000ED91FC911197A2014A195B090480F5811F
:100AC000E02DCD01B10198010995AF81B885ED9177
:100AD000FC911197B501620D731D0480F581E02D25
:100AE000CD01A20198010995AF81B885ED91FC91E6
:100AF0001197B1016A197B090480F581E02DCD01C0
:100B0000A201980109951A141B040CF0B9C081E0E8
:100B100090E0FC01EA19FB09FE83ED83C501880F13
:100B2000991F22273327281B390B3A832983450134
:100B300081E090E09C838B83AA24BB24AD81BE819D
:100B4000BB2364F0089481089108E981FA81329608
:100B5000FA83E983AE0FBF1FBE83AD830894A11C47
:100B6000B11C6501C20CD31C8401040D151DAF819D
:100B7000B885ED91FC9111970480F581E02DCD01B0
:100B8000B601A801930109957101EA18FB08AF812C
:100B9000B885ED91FC9111970480F581E02DCD0190
:100BA000B701A80193010995820108191909AF81BC
:100BB000B885ED91FC9111970480F581E02DCD0170
:100BC000B601A80193010995AF81B885ED91FC911B
:100BD00011970480F581E02DCD01B701A8019301A3
:100BE00009956401C20CD31C8501040D151DAF814C
:100BF000B885ED91FC9111970480F581E02DCD0130
:100C0000B601A801930109957101E818F908AF81AF
:100C1000B885ED91FC9111970480F581E02DCD010F
:100C2000B701A8019301099582010A191B09AF8137
:100C3000B885ED91FC9111970480F581E02DCD01EF
:100C4000B601A80193010995AF81B885ED91FC919A
:100C500011970480F581E02DCD01B701A801930122
:100C60000995A814B90464F4EB81FC813296FC83E5
:100C7000EB832D813E812E0F3F1F3E832D835ECF60
:100C800028960FB6F894DEBF0FBECDBFCF91DF918F
:100C90001F910F91FF90EF90DF90CF90BF90AF909A
:100CA0009F908F907F906F905F904F903F902F908C
:100CB00008952F923F924F925F926F927F928F9200
:100CC0009F92AF92BF92CF92DF92EF92FF920F93DB
:100CD0001F93DF93CF93CDB7DEB764970FB6F89429
:100CE000DEBF0FBECDBF9C8B8B8B7E836D83588701
:100CF0004F83402F6701121613060CF0FAC081E0F3
:100D000090E07C01E21AF30AC901880F991F662757
:100D10007727681B790B7C836B838F81988501977C
:100D20009A8389832D803E800894210831084F8062
:100D300058840894411C511C6D807E800894611C6D
:100D4000711C8901882499248394AA24BB24A42F8C
:100D5000B0E0BA87A987A470B070BC87AB87E9857B
:100D6000FA85E270F070FE87ED8769857A85687094
:100D70007070788B6F8789859A85817090709A8B57
:100D8000898BFF204CF001501040AB81BC81129642
:100D9000BC83AB83EA0EFB1E0894A11CB11CEB853F
:100DA000FC85EF2B01F1AB89BC89ED91FC9111978A
:100DB0004F815885400F511F0480F581E02DCD01F2
:100DC000B30196010995AB89BC89ED91FC9111970E
:100DD0006D817E81600F711F0480F581E02DCD0152
:100DE000A20196010995ED85FE85EF2B09F1AB89EE
:100DF000BC89ED91FC9111974F815885401B510B97
:100E00000480F581E02DCD01B30196010995AB89F0
:100E1000BC89ED91FC9111976D817E81600F711FEE
:100E20000480F581E02DCD0149815A819601099513
:100E3000EF85F889EF2B01F1AB89BC89ED91FC912D
:100E400011976D817E81601B710B0480F581E02D0F
:100E5000CD01A20196010995AB89BC89ED91FC9168
:100E600011974F815885400F511F0480F581E02D67
:100E7000CD01B10196010995E989FA89EF2B09F1B4
:100E8000AB89BC89ED91FC9111976D817E81601BCE
:100E9000710B0480F581E02DCD0149815A819601C5
:100EA0000995AB89BC89ED91FC9111974F815885CB
:100EB000401B510B0480F581E02DCD01B10196015D
:100EC0000995E981FA813197FA83E9830894210829
:100ED00031080894411C511C0894611C711CA01617
:100EE000B1063CF462E070E0860E971EE80CF91C37
:100EF00048CF64960FB6F894DEBF0FBECDBFCF913A
:100F0000DF911F910F91FF90EF90DF90CF90BF90F6
:100F1000AF909F908F907F906F905F904F903F9099
:100F20002F9008952F923F924F925F926F927F92EF
:100F30008F929F92AF92BF92CF92DF92EF92FF92E9
:100F40000F931F93DF93CF93CDB7DEB760970FB6A4
:100F5000F894DEBF0FBECDBF5C017A8369835C83EA
:100F60004B83A701DE82CD82121613060CF0B2C0AD
:100F700081E090E07C01E21AF30AC901880F991F11
:100F800022243324281A390A4B805C8008944108B3
:100F900051080F2EF3E06F2E7724F02D640E751E8E
:100FA000388B2F87882499248394CC24DD24802FA8
:100FB00090E098878F83817090709A878987DA0193
:100FC0001196BC87AB87EF81F885E270F070FE87E1
:100FD000ED87FF205CF08F8598890197988B8F872C
:100FE000A2E0B0E02A0E3B1EE20CF31C0894C11CE8
:100FF000D11CE985FA85EF2B61F1D501ED91FC91CA
:1010000069817A816C0D7D1D4B815C818F8598890A
:10101000481B590B880F991F2B853C85280F391FBA
:101020000084F185E02DC5010D811E810995D50152
:10103000ED91FC9169817A818F859889680F791F7C
:101040000084F185E02DC501A20193010D811E816F
:101050000995AD85BE85AB2B61F1D501ED91FC9174
:1010600069817A816C197D094B815C818F859889B2
:10107000481B590B880F991F2B853C85280F391F5A
:101080000084F185E02DC5010D811E810995D501F2
:10109000ED91FC9169817A818F859889681B790B24
:1010A0000084F185E02DC501A20193010D811E810F
:1010B0000995089441085108A2E0B0E06A0E7B1E31
:1010C000EF85F889CE16DF062CF48A0E9B1EE80CFD
:1010D000F91C7FCF60960FB6F894DEBF0FBECDBF70
:1010E000CF91DF911F910F91FF90EF90DF90CF9004
:1010F000BF90AF909F908F907F906F905F904F9038
:101100003F902F9008956F927F928F929F92AF920F
:10111000BF92CF92DF92EF92FF920F931F937C01C9
:101120004B013A0159016801DC01ED91FC91421B30
:10113000530B220F331F2F5F3F4F0084F185E02DAB
:101140000995C701B401A301950103E0EE24FF2432
:101150000E9492071F910F91FF90EF90DF90CF9028
:10116000BF90AF909F908F907F906F9008952F9237
:101170003F924F925F926F927F928F929F92AF9227
:10118000BF92CF92DF92EF92FF920F931F93DF9364
:10119000CF9300D000D0CDB7DEB74C017C836B83FA
:1011A0006A015901FA82E982442455249801241BDA
:1011B000350B1AF4309521953F4FC5014B815C8169
:1011C000841B950B1AF4909581959F4F8217930776
:1011D0001CF44424552443944114510451F08C2DA3
:1011E0009D2DCB80DC809C838B83802F912F85016C
:1011F0005C018B819C81A816B90654F48A2D9B2D25
:10120000AB80BC809C838B83802F912F86016C01E7
:101210007801EC18FD0822F4F094E194F108F394BD
:10122000C016D10624F022242A94322C03C0222492
:1012300033242394AB81BC81AA16BB06B4F13501DB
:101240006A1A7B0AC3010AF401968C011595079569
:101250004114510471F0D401ED91FC910480F581A9
:10126000E02DC401B6014B815C8129813A81099549
:101270000DC0D401ED91FC910480F581E02DC401F5
:101280006B817C81A60129813A8109950E191F097C
:1012900022F4C20CD31C060D171DEB81FC81319684
:1012A000FC83EB83AE16BF069CF60F900F900F9059
:1012B0000F90CF91DF911F910F91FF90EF90DF90F2
:1012C000CF90BF90AF909F908F907F906F905F90E6
:1012D0004F903F902F9008954F925F926F927F9220
:1012E0008F929F92AF92BF92CF92DF92EF92FF9236
:1012F0000F931F936C015B014A0139012801DC0146
:10130000ED91FC910284F385E02D87010995D601CA
:10131000ED91FC91A40141505040440D551D0284B3
:10132000F385E02DC601B50193010995D601ED9134
:10133000FC910084F185E02DC601B501A401920164
:101340000995D601ED91FC910894A108B108A60C6D
:10135000B71C0084F185E02DC601B501A4019201FE
:1013600009951F910F91FF90EF90DF90CF90BF9064
:10137000AF909F908F907F906F905F904F90089567
:10138000CF92DF92EF92FF920F931F93DC016B01DC
:101390007801ED91FC918A0101501040020F131F5A
:1013A0000680F781E02D960109951F910F91FF901E
:1013B000EF90DF90CF900895CF92DF92EF92FF925F
:1013C0000F931F93DC016A01C9017801ED91FC9133
:1013D00011979B0121503040280F391F0680F7815B
:1013E000E02DCD01860109951F910F91FF90EF909F
:1013F000DF90CF9008956F927F928F929F92AF92DD
:10140000BF92CF92DF92EF92FF920F931F93CF93F1
:10141000DF936C013A01480157017901E60EF71E8E
:101420006E157F058CF4EB01D601ED91FC910084E3
:10143000F185E02DC601BE01A30194018501099546
:101440002196CE15DF0584F3DF91CF911F910F9187
:10145000FF90EF90DF90CF90BF90AF909F908F90D4
:101460007F906F900895EF92FF920F931F93FC016E
:101470007B01A081B18120853185028513851E966F
:101480000D90BC91A02D60E070E040E050E0FD01C7
:1014900009951F910F91FF90EF9008952F923F9221
:1014A0004F925F926F927F928F929F92AF92BF9274
:1014B000CF92DF92EF92FF920F931F93DF93CF9320
:1014C000CDB7DEB728970FB6F894DEBF0FBECDBFFD
:1014D0005C0178876F831A0149011E830D83270100
:1014E000CB018E0D9F1D9C838B83EE0CFF1CF09413
:1014F000E194F108F394D701A20FB31FBA83A98333
:10150000D501ED91FC910284F385E02DC5016B813D
:101510007C8129813A81860109956D807E80620CEB
:10152000731C089461087108D501ED91FC91028447
:10153000F385E02DC5016B817C81A30129813A816E
:101540000995240C351CED81FE81EE0EFF1ED501A0
:10155000ED91FC910084F185E02DC5016F817885C6
:10156000A10197010995EF81F8858E0E9F1E0894C1
:1015700081089108D501ED91FC910084F185E02D61
:10158000C501B401A10197010995C5016B817C8159
:10159000A101920101E076010E9459068418950884
:1015A000C501B401A101920102E00E94590664182C
:1015B0007508C501B401A301920104E00E94590617
:1015C000C5016B817C81A301920108E00E9459064C
:1015D00028960FB6F894DEBF0FBECDBFCF91DF9136
:1015E0001F910F91FF90EF90DF90CF90BF90AF9041
:1015F0009F908F907F906F905F904F903F902F9033
:1016000008952F923F924F925F926F927F928F92A6
:101610009F92AF92BF92CF92DF92EF92FF920F9381
:101620001F93DF93CF9300D000D000D0CDB7DEB7AB
:101630002C015B015E834D833C832B834801370182
:101640001601C701860F971F9A8389836701CC0C07
:10165000DD1CD094C194D108D394D201ED91FC91BA
:101660002C0D3D1D0684F785E02DC20169817A812C
:1016700071010995ED81FE81E60DF71DFE83ED8375
:101680000894810891088C0C9D1C0894A108B1084D
:101690008B819C81A80EB91EA618B708C201B5019E
:1016A000AF01930101E0740161010E949207C20140
:1016B00069817A814D815E81930102E00E949207E7
:1016C00026960FB6F894DEBF0FBECDBFCF91DF9147
:1016D0001F910F91FF90EF90DF90CF90BF90AF9050
:1016E0009F908F907F906F905F904F903F902F9042
:1016F00008952F923F924F925F926F927F928F92B6
:101700009F92AF92BF92CF92DF92EF92FF920F9390
:101710001F93DF93CF9300D000D0CDB7DEB74C013D
:101720007C836B835A834983390128011701DC01CB
:10173000ED91FC910680F781E02D75010995D401AA
:10174000ED91FC910680F781E02DC401B301A20167
:10175000910186010995D401ED91FC910680F781F4
:10176000E02DC401B101A6012B813C8109811A81C0
:1017700009950F900F900F900F90CF91DF911F91CF
:101780000F91FF90EF90DF90CF90BF90AF909F9020
:101790008F907F906F905F904F903F902F90089523
:1017A0002F923F924F925F926F927F928F929F9271
:1017B000AF92BF92CF92DF92EF92FF920F931F935F
:1017C000DF93CF93CDB7DEB7E0970FB6F894DEBFC7
:1017D0000FBECDBF9A8789873B015C874B873E87C9
:1017E0002D87188B0F87FA8AE98ADC8ACB8ABE8A12
:1017F000AD8A041715075CF48D859E857E876D87FD
:101800003C018F859889588B4F879C878B872F85C4
:1018100038894B895C894217530784F489899A89EE
:101820006D857E857A8B698B9E878D878B899C8958
:10183000AF85B889BC8BAB8B988B8F87EB85FC858C
:101840002F8538892E173F075CF48D859E857E860F
:101850006D863C018F859889F88BEF879C878B87F5
:101860004B855C856B897C894617570791F58D857B
:101870009E85861597051CF4BC0193010AC0AD85B1
:10188000BE856A167B061CF4B3019D0102C0B3013C
:101890009301E989FA89E617F70714F4BF0106C036
:1018A00049895A89241735070CF49A01A985BA8504
:1018B000ED91FC9111972F5F3F4F261B370B028450
:1018C000F385E02DCD014B855C850D891E89099539
:1018D0004CC12D853E85261937098F859889EB8562
:1018E000FC858E1B9F0B49895A89461957095E83CF
:1018F0004D836B897C896E1B7F0B7C836B83AB89EB
:10190000BC89EF85F889AE1BBF0BBA83A9834B89CD
:101910005C89E417F50719F4F887EF8306C06F8533
:1019200078896150704078876F83AB85BC85EF8183
:10193000F885EA17FB071CF4B8ABAFA775C04B8559
:101940005C8558AB4FA7882499245401CC24DD240E
:101950007601AC01662757FD6095762F4BA35CA3FB
:101960006DA37EA36B817C81882777FD8095982F5E
:101970006FA378A789A79AA7C901AA2797FDA09561
:10198000BA2F8BA79CA7ADA7BEA7AD81BE811D01B5
:10199000442437FC4094542CC501B4012BA13CA134
:1019A0004DA15EA10E944F248301020F131FC701A6
:1019B000B6012FA138A549A55AA50E944F24A3011D
:1019C000420F531F6BA57CA58DA59EA5860E971E65
:1019D000A81EB91EC20CD31CE41CF51C40175107ED
:1019E00024F4842F952FA8018C01A985BA85ED9147
:1019F000FC9111979A012F5F3F4F201B310B0284FE
:101A0000F385E02DCD01B8014FA558A90D891E8998
:101A10000995EFA5F8A93196F8ABEFA72F81388586
:101A20002E173F070CF0B8CF4B895C896FA578A9BA
:101A3000461757070CF499C029893A898D859E85E8
:101A4000281B390BCB01AF85B8898A1B9B0BFC0186
:101A5000E29FC001E39F900DF29F900D11244C0175
:101A6000AA2497FCA094BA2CCB014B855C85841BDF
:101A7000950BBC01AD81BE816A9FC0016B9F900D2B
:101A80007A9F900D11246C01EE24D7FCE094FE2C7B
:101A900049815A81662757FD6095762F4F8B588F65
:101AA000698F7A8F6B817C81882777FD8095982F4D
:101AB0006B8F7C8F8D8F9E8FC901AA2797FDA09574
:101AC000BA2F8F8F98A3A9A3BAA3AD81BE811D01A0
:101AD000442437FC4094542CC501B4012F89388D1F
:101AE000498D5A8D0E944F240D851E85020F131FAC
:101AF000C701B6012B8D3C8D4D8D5E8D0E944F240C
:101B0000A301420F531F6F8D78A189A19AA1860E60
:101B1000971EA81EB91EC20CD31CE41CF51C40174E
:101B2000510724F4842F952FA8018C01A985BA852B
:101B3000ED91FC9111979A012F5F3F4F201B310BC4
:101B40000284F385E02DCD01B8014FA558A90D8978
:101B50001E890995EFA5F8A93196F8ABEFA72B8957
:101B60003C892E173F070CF0B7CFE0960FB6F894DC
:101B7000DEBF0FBECDBFCF91DF911F910F91FF90C0
:101B8000EF90DF90CF90BF90AF909F908F907F901D
:101B90006F905F904F903F902F9008952F923F92BB
:101BA0004F925F926F927F928F929F92AF92BF926D
:101BB000CF92DF92EF92FF920F931F93DF93CF9319
:101BC000CDB7DEB72A970FB6F894DEBF0FBECDBFF4
:101BD0002C017C836B835E834D8349015801F88619
:101BE000EF821601C80107960AF407969595879526
:101BF00095958795959587952F81388512161306AB
:101C00000CF05CC09A838983EE24FF2400E010E08E
:101C100066247724689467F84CC01A861986CD80AC
:101C2000DE80CE0CDF1C89859A8599230CF40796FB
:101C3000959587959595879595958795800F911F93
:101C4000F401E80FF91FE49189859A8587709070F7
:101C5000D30102C0B595A7958A95E2F7CD012E2F45
:101C600030E082239323892B81F0D201ED91FC9106
:101C70006B817C8129853A85620F731F0480F58111
:101C8000E02DC201A6019101099589859A850196E9
:101C90009A8789878A159B0534F20894E11CF11C08
:101CA000A981BA810A0F1B1FEF81F885EE16FF0686
:101CB0002CF41A141B040CF4B0CFEFCF2A960FB6F5
:101CC000F894DEBF0FBECDBFCF91DF911F910F9172
:101CD000FF90EF90DF90CF90BF90AF909F908F904C
:101CE0007F906F905F904F903F902F9008952F922C
:101CF0003F924F925F926F927F928F929F92AF929C
:101D0000BF92CF92DF92EF92FF920F931F93DF93D8
:101D1000CF93CDB7DEB72C970FB6F894DEBF0FBECA
:101D2000CDBF4C0169877A8729013801FC82EB829B
:101D3000DE82CD82B886AF82C80107960AF4079684
:101D4000959587959595879595958795682F792F82
:101D50002B813C81121613060CF070C0842F952F36
:101D60006C01862F972F9A838983AA24BB24EE24A3
:101D7000FF2422243324689427F855C08B859C8542
:101D800099230CF407969595879595958795959544
:101D900087958E0D9F1DF201E80FF91FE4918B8549
:101DA0009C8587709070D10102C0B595A7958A95E2
:101DB000E2F7CD012E2F30E082239323892B69F0A7
:101DC000D401ED91FC910480F581E02DC401B801AE
:101DD000A6012D813E8109950CC0D401ED91FC91A5
:101DE0000480F581E02DC401B801A6012F8138855A
:101DF0000995EB85FC853196FC87EB870F5F1F4FBC
:101E0000E615F7050CF4BACF0894A11CB11C089490
:101E1000C11CD11C29813A81E20EF31E8B819C8169
:101E2000A816B9065CF41614170474F789859A8508
:101E3000282F392F89011C861B86A0CF2C960FB620
:101E4000F894DEBF0FBECDBFCF91DF911F910F91F0
:101E5000FF90EF90DF90CF90BF90AF909F908F90CA
:101E60007F906F905F904F903F902F9008952F92AA
:101E70003F924F925F926F927F928F929F92AF921A
:101E8000BF92CF92DF92EF92FF920F931F93DF9357
:101E9000CF93CDB7DEB728970FB6F894DEBF0FBE4D
:101EA000CDBF3C011B015C834B8349015801FE827D
:101EB000ED822601C80107960AF407969595879545
:101EC0009595879595958795282F392F8D819E819A
:101ED000181619060CF054C03A832983EE24FF2407
:101EE00000E010E048C018861F82CB80DC80CE0C5A
:101EF000DF1C8F81988599230CF40796959587951B
:101F00009595879595958795800F911FF401E80F1A
:101F1000F91FE4912E2F30E08F81988568E070E002
:101F20000E941A2402C0359527958A95E2F720FF72
:101F30000EC0D301ED91FC916F817885620D731D08
:101F40000480F581E02DC301A60192010995EF817E
:101F5000F8853196F887EF83EA15FB0554F208946B
:101F6000E11CF11C29813A81020F131F8D819E8192
:101F7000E816F9062CF41A141B040CF4B4CFEFCFB6
:101F800028960FB6F894DEBF0FBECDBFCF91DF917C
:101F90001F910F91FF90EF90DF90CF90BF90AF9087
:101FA0009F908F907F906F905F904F903F902F9079
:101FB00008952F923F924F925F926F927F928F92ED
:101FC0009F92AF92BF92CF92DF92EF92FF920F93C8
:101FD0001F93DF93CF93CDB7DEB761970FB6F89419
:101FE000DEBF0FBECDBF3C01E22F1801FB86EA86A3
:101FF000AC2CDC0118968D919C9119976817790784
:102000000CF0C6C01A968D919C911B9748175907E2
:102010000CF0BEC04C2C55249B0121503040C20115
:10202000880F991F840D951D880F991F280F391F40
:1020300033230CF4ADC0CA0101979201220F331F64
:10204000220F331F220F331F820F931F99230CF48B
:102050009FC085E0E89F900111243C832B83588624
:102060004F827E836D837A8369831986CA014E8786
:102070009F873985353009F47FC0EB81FC81E451BD
:10208000FF4F24917AC0C40195958795282F822E01
:10209000992420FF20C081E0A81669F4D301ED91B6
:1020A000FC910480F581E02DC3016D817E81A60144
:1020B0009101099536C0D301ED91FC910684F78515
:1020C000E02DC3016C857D85488959899201820183
:1020D0007101099526C0EA85FB85E215F30509F132
:1020E000F1E0AF1671F4D301ED91FC910480F5811C
:1020F000E02DC3016D817E81A6012A853B8509956E
:1021000010C0D301ED91FC910684F785E02DC30149
:102110006C857D854889598992018201EA84FB8416
:102120000995B394E889F9892F813885E20FF31F67
:10213000F98BE88B0894C11CD11C38E0B31609F068
:10214000A2CF89858F5F8987A981BA81EF81F885C0
:10215000AE0FBF1FBA83A9832D813E812F5F3F4FF2
:102160003E832D838B819C8101969C838B839985F3
:10217000963009F07ECF0CC020E0A981AC87BA81EF
:10218000BD878E859F85998B888B6C01BB247FCF03
:1021900061960FB6F894DEBF0FBECDBFCF91DF9131
:1021A0001F910F91FF90EF90DF90CF90BF90AF9075
:1021B0009F908F907F906F905F904F903F902F9067
:1021C0000895CF92EF92FF920F931F93CF93DF93D7
:1021D000EC01262F6A3089F42C8930E0220F331F5E
:1021E000220F331F220F331F8E859F85820F931F6F
:1021F0009F878E871D861C863CC06D30D1F16C8513
:102200007D854E855F8508891989EA88FB88CC8899
:102210000E94D90F8C8926E0829FC00111242C8551
:102220003D85BC01620F731F7D876C878E89882373
:1022300001F18C89482F50E09A01220F331F240F9F
:10224000351F220F331F88859985821B930B8617B4
:1022500097077CF49A01220F331F220F331F220F9E
:10226000331F8E859F85820F931F9F878E871D86C4
:102270001C8681E090E0DF91CF911F910F91FF903C
:10228000EF90CF900895FC01758764875787468744
:102290000895FC01662309F461E0648B0895FC0154
:1022A000738B628B718B608B0895FC01718B608BDB
:1022B000538B428B0895FC01668B0895FC01858940
:1022C0000895FC016370658B613081F0613028F006
:1022D000623019F0633091F409C08481958191874F
:1022E00080878681978193878287089586819781E9
:1022F0009187808784819581938782870895FC01E7
:10230000808591850895FC018285938508950895BF
:102310000F931F93DC01F90155968C9155978230EC
:1023200079F0833001F1813009F0ECC014968D9181
:102330009C91159701979C01241B350BA90146C15F
:1023400016968D919C91179701979C01241B350B34
:10235000A90114968D919C911597861B970BBC0132
:102360006E1B7F0BCFC016968D919C911797861B85
:10237000970BBC01621B730B29C114968D919C9124
:102380001597481759070CF024C1772324F4E60F5A
:10239000F71F60E070E016962D913C911797CF01E2
:1023A000860F971F281739071CF4F901E61BF70B56
:1023B0001E161F060CF00DC1262F6E2F822F86953C
:1023C0008695869590E09695982F8827979587957E
:1023D000865B9E4FDC01A40FB51F277091F188E04A
:1023E000482F421B242F30E0F901EE5AFA4FE081CA
:1023F000641750F4261B31098FEF90E002C09595C9
:1024000087952A95E2F7E8230130110539F001306C
:10241000110540F00230110571F40AC08C918E2B29
:102420008C9309C09E2F90958C9189238C9303C027
:102430008C918E278C93641708F4CBC0641BA05832
:10244000BF4F6830E0F102301105D9F4FD01962F3D
:10245000808180958083E058FF4F98509830C0F776
:10246000862F8850682F677086958695869590E0B0
:1024700001969695982F882797958795A80FB91F4D
:102480001EC00130110511F090E001C09FEFFD0169
:10249000862F9083E058FF4F88508830D0F7862FE2
:1024A0008850682F677086958695869590E001968E
:1024B0009695982F882797958795A80FB91F66231B
:1024C00009F487C0E62FF0E0E770F070E65BFA4FA2
:1024D00020810130110541F00130110548F0023032
:1024E000110509F076C00AC08C91822B8C9371C0C3
:1024F000922F90958C9189238C936BC08C9182271D
:102500008C9367C055230CF464C016968D919C91F2
:102510001797481759070CF05CC0772324F4E60F8F
:10252000F71F60E070E014962D913C911597CF0154
:10253000860F971F281739071CF4F901E61BF70BC4
:102540001E161F060CF045C0CA0155230CF4079651
:102550009595879595958795959587959695982FB7
:10256000882797958795865B9E4FDC01A60FB71F3E
:102570009A012770307081E090E002C0880F991FA7
:102580002A95E2F7482F0130110541F0013011057D
:1025900068F002301105E9F49F0111C09F018C9190
:1025A000842B8D9321503040D1F713C040959F016B
:1025B0008C9184238D9321503040D1F70AC08C91A7
:1025C00084278D9321503040D1F703C055230CF060
:1025D000D4CE1F910F9108950F931F93DC01F90141
:1025E00055968C915597823079F0833001F1813086
:1025F00009F089C014968D919C911597841B950BB9
:10260000AC01421B530B45C114968D919C911597BB
:1026100001979C01261B370BB90116968D919C9151
:102620001797841B950BAC014E1B5F0B6CC0169665
:102630008D919C91179701979C01261B370BB9012F
:1026400028C116968D919C911797681779070CF001
:1026500023C1552324F4E40FF51F40E050E0149605
:102660002D913C911597CF01840F951F281739079D
:102670001CF4F901E41BF50B1E161F060CF00CC12F
:10268000CB0177230CF407969595879595958795BB
:10269000959587959695982F882797958795865B2A
:1026A0009E4FDC01A40FB51F9B012770307081E0A5
:1026B00090E002C0880F991F2A95E2F7682F013039
:1026C000110549F00130110570F00230110509F0D3
:1026D000E3C09F0111C09F018C91862B8D932150E7
:1026E0003040D1F7D9C060959F018C9186238D939E
:1026F00021503040D1F7D0C08C9186278D93215046
:102700003040D1F7C9C077230CF4C6C014968D9120
:102710009C911597681779070CF0BEC0552324F4D7
:10272000E40FF51F40E050E016962D913C9117976D
:10273000CF01840F951F281739071CF4F901E41BFA
:10274000F50B1E161F060CF0A7C0242F4E2F822F4C
:1027500086958695869590E09695982F88279795EB
:102760008795865B9E4FDC01A60FB71F277091F1FE
:1027700088E0582F521B252F30E0F901EE5AFA4F0E
:10278000E081451750F4241B31098FEF90E002C01F
:10279000959587952A95E2F7E8230130110539F0E0
:1027A0000130110540F00230110571F40AC08C911E
:1027B0008E2B8C9309C09E2F90958C9189238C939E
:1027C00003C08C918E278C93451708F465C0451B78
:1027D000A058BF4F4830E0F102301105D9F4FD0197
:1027E000942F808180958083E058FF4F98509830D7
:1027F000C0F7842F8850482F477086958695869518
:1028000090E001969695982F882797958795A80F21
:10281000B91F1EC00130110511F090E001C09FEFFB
:10282000FD01842F9083E058FF4F88508830D0F707
:10283000842F8850482F477086958695869590E01E
:1028400001969695982F882797958795A80FB91F79
:10285000442311F1E42FF0E0E770F070E65BFA4FEB
:1028600020810130110539F00130110540F00230AE
:10287000110591F40AC08C91822B8C930DC0922F7C
:1028800090958C9189238C9307C08C9182278C938F
:1028900003C077230CF0D5CE1F910F9108950F93AD
:1028A0001F93DC01F90177230CF4C2C014968D91BB
:1028B0009C911597681779070CF0BAC0552324F43A
:1028C000E40FF51F40E050E016962D913C911797CC
:1028D000CF01840F951F281739071CF4F901E41B59
:1028E000F50B1E161F060CF0A3C0242F4E2F822FAF
:1028F00086958695869590E09695982F882797954A
:102900008795865B9E4FDC01A60FB71F277091F15C
:1029100088E0582F521B252F30E0F901EE5AFA4F6C
:10292000E081451750F4241B31098FEF90E002C07D
:10293000959587952A95E2F7E8230130110539F03E
:102940000130110540F00230110571F40AC08C917C
:102950008E2B8C9309C09E2F90958C9189238C93FC
:1029600003C08C918E278C93451708F461C0451BDA
:10297000A058BF4F4830E0F102301105D9F4942F30
:10298000FD01808180958083E058FF4F98509830FA
:10299000C0F7842F8850482F477086958695869576
:1029A00090E001969695982F882797958795A80F80
:1029B000B91F1EC00130110511F090E001C09FEF5A
:1029C000842FFD019083E058FF4F88508830D0F766
:1029D000842F8850482F477086958695869590E07D
:1029E00001969695982F882797958795A80FB91FD8
:1029F0004423F1F0E42FF0E0E770F070E65BFA4F6B
:102A000020810130110539F00130110540F002300C
:102A1000110571F40AC08C91822B8C9309C0922FFE
:102A200090958C9189238C9303C08C9182278C93F1
:102A30001F910F91089580E094E0EAE4F1E0DF0156
:102A40009C011D9221503040E1F70895FF920F93B1
:102A50001F93DC01F62E59968C9159978F3F09F4FC
:102A600071C09396ED91FC919497808199969C9179
:102A70009997892B80839596ED91FC91969780810B
:102A80009A969C919A97892B80839396ED91FC91CD
:102A90009497908199968C919997809589238083BA
:102AA0005E968C915E97882341F06EBDEDE4F0E078
:102AB00080818823ECF78EB53BC040E820E030E011
:102AC00070E09196ED91FC919297908198968C91FF
:102AD0009897809589238083842F90E0862397237D
:102AE000892B59F05F96ED91FC9190978081979694
:102AF0009C919797892B80830BC05F96ED91FC91F9
:102B00009097908197968C91979780958923808351
:102B10009196ED91FC919297808198969C919897CF
:102B2000892B808346952F5F3F4F2830310549F62A
:102B30009396ED91FC919497808199969C91892B25
:102B4000808315C009E016E057966C91772767FDE2
:102B50007095C8010E940821C80160E40E948A2182
:102B6000C8016F2D0E948A21C8010E94CD211F91AA
:102B70000F91FF900895FF920F931F93DC01F62EA3
:102B800059968C9159978F3F09F472C09396ED91A5
:102B9000FC919497808199969C919997892B808339
:102BA0009596ED91FC91969790819A968C919A9733
:102BB0008095892380839396ED91FC9194979081E1
:102BC00099968C9199978095892380835E968C91B4
:102BD0005E97882341F06EBDEDE4F0E080818823AC
:102BE000ECF78EB53BC040E820E030E070E0919615
:102BF000ED91FC919297908198968C919897809501
:102C000089238083842F90E086239723892B59F092
:102C10005F96ED91FC919097808197969C91979704
:102C2000892B80830BC05F96ED91FC9190979081EA
:102C300097968C9197978095892380839196ED91B3
:102C4000FC919297808198969C919897892B80838C
:102C500046952F5F3F4F2830310549F69396ED9109
:102C6000FC919497808199969C91892B808315C0C3
:102C700009E016E057966C91772767FD7095C801BB
:102C80000E940821C80160E00E948A21C8016F2DBE
:102C90000E948A21C8010E94CD211F910F91FF90AF
:102CA00008951F93CF93DF93EC01662311F010E09A
:102CB00006C0888D813011F01FEC01C01FE9CE01E4
:102CC00061E80E94BB15CE01612F0E94BB15DF9108
:102CD000CF911F9108956EE20E94BB150895EF9267
:102CE000FF920F931F938C01F62EE42E63EA0E944D
:102CF000BB15C80160E00E94BB15C80160E40E94DA
:102D0000BB15C8016AE20E94BB15C80160E00E94C1
:102D1000BB15C8016F2D0E94BB15C80160E00E9461
:102D2000BB15C8016E2D0E94BB15C80161E00E9451
:102D3000BB15C8016FE20E94BB151F910F91FF9058
:102D4000EF900895EF92FF920F931F938C01F62E50
:102D5000E42E63EA0E94BB15C80160E00E94BB1527
:102D6000C80160E40E94BB15C80169E20E94BB155E
:102D7000C80160E00E94BB15C8016F2D0E94BB1501
:102D8000C80160E00E94BB15C8016E2D0E94BB15F2
:102D9000C80161E00E94BB15C8016FE20E94BB152B
:102DA0001F910F91FF90EF900895EF92FF920F9374
:102DB0001F938C01F62EE42E67E20E94BB15C8011A
:102DC00060E00E94BB15C8016F2D0E94BB15C801B1
:102DD00060E00E94BB15C8016E2D0E94BB15C801A2
:102DE00060E00E94BB15C8016FEF0E94BB15C801CF
:102DF0006FE20E94BB151F910F91FF90EF90089515
:102E0000EF92FF920F931F938C01F62EE42E66E251
:102E10000E94BB15C80160E00E94BB15C8016F2D60
:102E20000E94BB15C80160E00E94BB15C8016E2D51
:102E30000E94BB15C80160E00E94BB15C8016FEF7E
:102E40000E94BB15C8016FE20E94BB151F910F9134
:102E5000FF90EF900895662321F067EA0E94BB156A
:102E6000089566EA0E94BB1508957F928F929F9203
:102E7000AF92BF92CF92DF92EF92FF920F931F9388
:102E8000CF93DF937C0161E20E94BB15C70160E034
:102E90000E94BB15C7016FE70E94BB15C70162E224
:102EA0000E94BB15C70160E00E94BB15C70167E027
:102EB0000E94BB15D70159968C9159978F3F09F401
:102EC0007BC09396ED91FC919497808199969C910B
:102ED0009997892B80839596ED91FC9196978081A7
:102EE0009A969C919A97892B80839396ED91FC9169
:102EF0009497908199968C91809589238083AAE4F8
:102F0000B1E050E8AA24BB240F2EFEE4CF2EDD242E
:102F1000F02D0F2EFDE48F2E9924F02D0AE415E0FC
:102F20009C91E7018E8D882349F0F6019083E4019E
:102F300088818823E4F7F60180812EC0452F950112
:102F4000692F70E0E701E9A1FAA1908188A5809539
:102F500089238083842F90E086239723892B39F05F
:102F6000EF8DF8A180819FA1892B808308C0E701A4
:102F7000EF8DF8A190818FA1809589238083E7014F
:102F8000E9A1FAA1808198A5892B808346952F5FBE
:102F90003F4F28303105B1F61196A017B10709F05F
:102FA000BFCFD7019396ED91FC919497808199962C
:102FB0009C91892B808339C0E8EBF0E070808CE035
:102FC0008083AA24BB240F2EF9E0CF2EF6E0DF2E5B
:102FD000F02D0F2EFAE48F2EF1E09F2EF02D00E061
:102FE000E7016F89772767FD7095C6010E94082168
:102FF000C60160E40E948A21E401CA0DDB1D102F86
:10300000C60169910E948A211F5F1031C9F7E0E172
:10301000F0E0AE0EBF1EC6010E94CD21F0E0AF165B
:10302000F4E0BF06E9F67092B800DF91CF911F91EE
:103030000F91FF90EF90DF90CF90BF90AF909F9057
:103040008F907F9008950F931F93CF93DF93EC01A0
:10305000062F122F688F4F8B898D8F3F09F487C001
:103060008B8D61E00E94FA1F8D8D61E00E94FA1F36
:103070002D8D332727FD3095A6E0B6E0FD01E20F48
:10308000F31FE4918E2F90E0880F991F42EF55E0D7
:10309000FA01E80FF91F859194919CA38BA36AE133
:1030A00076E0FB01E20FF31FE491E9A72B8D3327B4
:1030B00027FD3095FD01E20FF31F849190E0880F0A
:1030C000991FFA01E80FF91F859194919EA38DA392
:1030D000FB01E20FF31FE491EAA78E8D882309F02C
:1030E00040C0898D61E00E94FA1F8A8D61E00E94D4
:1030F000FA1F2A8D332727FD3095A6E0B6E0FD01A3
:10310000E20FF31FE4918E2F90E0880F991F42EF9A
:1031100055E0FA01E80FF91F859194919AA389A3CC
:103120006AE176E0FB01E20FF31FE491E8A7298D45
:10313000332727FD3095FD01E20FF31F849190E0C6
:10314000880F991FFA01E80FF91F8591949198A3B0
:103150008F8FFB01E20FF31FE491EFA38E8D882385
:1031600051F00E94F12084E00E94E02004C089E038
:1031700096E00E94D1211123E1F08C8D61E00E9444
:10318000FA1F8C8D61E00E94392061E070E080E0E0
:1031900090E00E94661F8C8D60E00E9439206AE0FA
:1031A00070E080E090E00E94661F8C8D61E00E94DC
:1031B0003920CE016EEA0E94BB15CE0165ED0E945A
:1031C000BB15CE0160E80E94BB15CE0168EA0E94E3
:1031D000BB15CE016FE30E94BB15CE0163ED0E94CB
:1031E000BB15CE0160E00E94BB15CE0160E40E94D9
:1031F000BB15CE016DE80E94BB15013069F5CE010B
:1032000060E10E94BB15CE0160E20E94BB15CE01B9
:1032100060E00E94BB15CE0161EA0E94BB15CE01A1
:1032200068EC0E94BB15CE016AED0E94BB15CE0171
:1032300062E10E94BB15CE0161E80E94BB15CE0180
:103240006FE90E94BB15CE0169ED0E94BB15CE014E
:1032500062E20E94BB152CC0CE0164E10E94BB1546
:10326000CE0160E20E94BB15CE0160E00E94BB155A
:10327000CE0161EA0E94BB15CE0168EC0E94BB152D
:10328000CE016AED0E94BB15CE0162E10E94BB1522
:10329000CE0161E80E94BB15CE016FEC0E94BB1508
:1032A000CE0169ED0E94BB15CE0161EF0E94BB15F6
:1032B000CE016BED0E94BB15CE0160E40E94BB15F0
:1032C000CE0164EA0E94BB15CE0166EA0E94BB15DE
:1032D000CE016FEA0E94BB15DF91CF911F910F9134
:1032E0000895FF920F931F938C01F62E60E870E013
:1032F00040E450E00E94EF0486E391E0F8019183FE
:1033000080838FEF818F858F838F828FF48E1F91C3
:103310000F91FF900895FF920F931F938C01F62E4B
:1033200060E870E040E450E00E94EF0486E391E042
:10333000F801918380838FEF818F858F838F828FB8
:10334000F48E1F910F91FF900895DF92EF92FF92FC
:103350000F931F938C01F62EE42ED22E60E870E0BE
:1033600040E450E00E94EF0486E391E0F80191838D
:103370008083F38EE48ED58E81E0868F1F910F912E
:10338000FF90EF90DF900895DF92EF92FF920F93FE
:103390001F938C01F62EE42ED22E60E870E040E4FC
:1033A00050E00E94EF0486E391E0F801918380836E
:1033B000F38EE48ED58E81E0868F1F910F91FF9062
:1033C000EF90DF900895BF92CF92DF92EF92FF923D
:1033D0000F931F936C01B62EF42E122F60E870E04D
:1033E00040E450E00E94EF0486E391E0F60191830F
:1033F0008083E58E048F138FF28EB18E168E1F910F
:103400000F91FF90EF90DF90CF90BF900895BF9203
:10341000CF92DF92EF92FF920F931F936C01B62E23
:10342000F42E122F60E870E040E450E00E94EF04B8
:1034300086E391E0F60191838083E58E048F138FFC
:10344000F28EB18E168E1F910F91FF90EF90DF904C
:10345000CF90BF900895AF92BF92CF92DF92EF923C
:10346000FF920F931F93CF93DF93EC017B018A01AF
:10347000690177230CF4B1C09D2F0E947F11E816DB
:10348000F9060CF0AAC011230CF4A7C08C2F9D2FB5
:103490000E948311081719070CF09FC090C08C81FF
:1034A0009D810197801B910B87017C0116C08C8147
:1034B0009D8101979C012E193F0979018E819F8181
:1034C00001979C01201B310B890107C08E819F81D0
:1034D00001978E199F0978018C0131E0C316D10440
:1034E00051F081E0C816D10438F122E0C216D104AF
:1034F00009F073C043C0F80111230CF43796F59519
:10350000E795F595E795F595E795F695FE2FEE2766
:10351000F795E795EE0DFF1DE65BFE4F98012770CE
:10352000307081E090E002C0880F991F2A95E2F781
:103530002081282B208351C0F80111230CF43796E9
:10354000F595E795F595E795F595E795F695FE2FB1
:10355000EE27F795E795EE0DFF1DE65BFE4F980110
:103560002770307081E090E002C0880F991F2A9583
:10357000E2F780952081282320832FC0F8011123B2
:103580000CF43796F595E795F595E795F595E7955C
:10359000F695FE2FEE27F795E795EE0DFF1DE65BFE
:1035A000FE4F98012770307081E090E002C0880FD4
:1035B000991F2A95E2F72081282720830EC08C2F9F
:1035C0009D2F0E945E11823009F471CF833009F47F
:1035D0007DCF813009F081CF62CFDF91CF911F91F4
:1035E0000F91FF90EF90DF90CF90BF90AF90089534
:1035F000CF93DF930E94BF1F0E94AF04C0E0D0E0D2
:103600000E9438042097E1F30E940000F9CF08954A
:10361000CF92DF92EF92FF920F931F93CF93DF939E
:103620007C016B018A01C0E0D0E00FC0D6016D9132
:103630006D01D701ED91FC910190F081E02DC70162
:103640000995C80FD91F015010400115110571F7D8
:10365000CE01DF91CF911F910F91FF90EF90DF90FE
:10366000CF900895DC01ED91FC910190F081E02D67
:1036700009950895CF93DF93EC016115710519F455
:1036800020E030E00FC0DB010D900020E9F711973A
:10369000A61BB70BE881F9810280F381E02DAD0113
:1036A00009959C01C901DF91CF9108954F925F92D6
:1036B0007F928F929F92AF92BF92CF92DF92EF92C2
:1036C000FF920F931F93DF93CF93CDB7DEB7A197F0
:1036D0000FB6F894DEBF0FBECDBF2C01742ECB0108
:1036E000223008F42AE019A231E2C32ED12CCC0EEC
:1036F000DD1E822E9924AA24BB24672D752FA501D7
:1037000094010E942D2479018A01C801B701A50105
:1037100094010E94FB23472D461B0894C108D10841
:103720004A3014F4405D01C0495CF6014083E11465
:10373000F1040105110521F07E2C5F2DC801DDCFBC
:10374000C201B6010E943A1BA1960FB6F894DEBFE3
:103750000FBECDBFCF91DF911F910F91FF90EF90E2
:10376000DF90CF90BF90AF909F908F907F905F90B1
:103770004F900895DC012115310541F4ED91FC9144
:103780000190F081E02D642F099508950E94561B49
:103790000895EF92FF920F931F939A017B0100E02F
:1037A00010E0B801A7010E94BA1B1F910F91FF9072
:1037B000EF9008950E943A1B0895813041F08130C6
:1037C00018F08230D1F409C010926E0008958091F3
:1037D0006F008D7F80936F000895809170008D7FC2
:1037E0008093700081E08093B0008091B100887F69
:1037F00084608093B1001092B30008951F93182F36
:1038000080915A05811711F09FEF06C0E7EEF5E0B1
:1038100094918FEF80935A05892F0E94DD1B812F91
:1038200060E00E9439201F9108951F920F920FB6F9
:103830000F9211242F933F934F935F936F937F9336
:103840008F939F93AF93BF93EF93FF938091AF05B7
:103850009091B005A091B105B091B2050097A10576
:10386000B10551F1E091B305F091B40580819091DB
:10387000B505892780838091AF059091B005A0910F
:10388000B105B091B205181619061A061B06C4F444
:103890008091AF059091B005A091B105B091B205AE
:1038A0000197A109B1098093AF059093B005A0934A
:1038B000B105B093B20504C080915A050E94FE1B69
:1038C000FF91EF91BF91AF919F918F917F916F91F8
:1038D0005F914F913F912F910F900FBE0F901F90CE
:1038E00018952F923F925F926F927F928F929F9244
:1038F000AF92BF92CF92DF92EF92FF920F931F93FE
:10390000DF93CF9300D000D0CDB7DEB7A82F1B0137
:1039100029833A834B835C8380915A058A1721F46B
:10392000E7EEF5E0549082C08F3F09F0DAC1A09332
:103930005A05E7EEF5E054902FEF521609F4D1C185
:1039400081E0581639F192E0591609F449C0552022
:1039500009F06CC014BC15BC84B5826084BD85B50B
:10396000816085BD2A2F30E0F901EA5FF94FE491CB
:10397000F0E0EE0FFF1FEE50FA4F85919491909377
:10398000A6058093A505265E394FF90184918093A1
:10399000A7054EC010928000109281008091810096
:1039A0008860809381008091810081608093810094
:1039B0002A2F30E0F901EA5FF94FE491F0E0EE0FD1
:1039C000FF1FEE50FA4F859194919093AD0580932F
:1039D000AC05265E394FF90184918093AE0528C06D
:1039E0001092B0001092B1008091B000826080937C
:1039F000B0008091B10081608093B1002A2F30E047
:103A0000F901EA5FF94FE491F0E0EE0FFF1FEE508D
:103A1000FA4F859194919093B4058093B305265EF7
:103A2000394FF90184918093B50502C057FC59C103
:103A30008A2F61E00E94FA1F552021F0F2E05F1604
:103A400009F0BEC031018824992460E079E08DE35B
:103A500090E0A40193010E944F2459016A0186015C
:103A600075010894E108F108010911092FEFE21628
:103A7000F1040105110509F008F499C060E271EA4A
:103A800087E090E0A40193010E944F2479018A010C
:103A90000894E108F1080109110982E05816C1F4FF
:103AA0009FEFE916F1040105110509F008F484C03F
:103AB00068E478EE81E090E0A40193010E944F2435
:103AC00079018A010894E108F1080109110983E0EC
:103AD000AFEFEA16F1040105110509F008F468C01A
:103AE00064E274EF80E090E0A40193010E944F240F
:103AF00079018A010894E108F108010911095520AA
:103B000011F483E01DC0B2E05B1611F084E018C030
:103B1000EFEFEE16F1040105110509F008F4DFC01E
:103B200062E17AE780E090E0A40193010E944F24D3
:103B300079018A010894E108F1080109110985E079
:103B4000FFEFEF16F1040105110591F188F169E02D
:103B50007DE380E090E0A40193010E944F2479016D
:103B60008A010894E108F10801091109552011F0B2
:103B700086E001C084E02FEFE216F1040105110593
:103B8000B9F0B0F0C601B50120E034E040E050E00B
:103B90000E944F2479018A010894E108F108010983
:103BA0001109552011F087E008C085E003C081E0CD
:103BB000552019F485BD3AC082E08093B10036C02B
:103BC0005101CC24DD2460E079E08DE390E0A60192
:103BD00095010E944F2479018A010894E108F108B7
:103BE0000109110980E0E81680E0F80681E0080785
:103BF00080E0180710F491E010C064E274EF80E0F8
:103C000090E0A60195010E944F2479018A01089451
:103C1000E108F1080109110993E0A1E05A1631F415
:103C200080918100887F982B9093810089819A816F
:103C3000AB81BC810097A105B10529F48FEF9FEFFF
:103C4000AFEFBFEF13C0220C331CB10180E090E056
:103C500029813A814B815C810E94FB2328EE33E06D
:103C600040E050E00E942D24C901DA01E1E05E1637
:103C7000A1F0F2E05F1619F1552099F5E7BC8093A9
:103C8000A1059093A205A093A305B093A4058091EC
:103C90006E00826080936E0024C0F0928900E092F2
:103CA00088008093A8059093A905A093AA05B093D6
:103CB000AB0580916F00826080936F0012C0E0922C
:103CC000B3008093AF059093B005A093B105B09376
:103CD000B2058091700082608093700002C084E021
:103CE0006CCF0F900F900F900F90CF91DF911F919D
:103CF0000F91FF90EF90DF90CF90BF90AF909F908B
:103D00008F907F906F905F903F902F9008958230BA
:103D100000F5E82FF0E0EE0FFF1FEA54FA4F718331
:103D20006083882319F08130A1F408C08091690074
:103D30008C7F842B80936900E89A089580916900B4
:103D4000440F551F440F551F837F842B80936900B8
:103D5000E99A08951F920F920FB60F9211242F9394
:103D60003F934F935F936F937F938F939F93AF9303
:103D7000BF93EF93FF938091B6059091B705892B80
:103D800029F0E091B605F091B7050995FF91EF9103
:103D9000BF91AF919F918F917F916F915F914F9163
:103DA0003F912F910F900FBE0F901F9018951F926B
:103DB0000F920FB60F9211242F933F934F935F935F
:103DC0006F937F938F939F93AF93BF93EF93FF93E3
:103DD0008091B8059091B905892B29F0E091B8053B
:103DE000F091B9050995FF91EF91BF91AF919F9126
:103DF0008F917F916F915F914F913F912F910F9094
:103E00000FBE0F901F9018951F920F920FB60F9232
:103E100011242F933F934F935F936F937F938F93CF
:103E20009F93AF93BF932091BE053091BF05409102
:103E3000C0055091C1057091C205DA01C901029611
:103E4000A11DB11D672F6A5F6D3730F06D57DA0124
:103E5000C9010396A11DB11D6093C2058093BE05E3
:103E60009093BF05A093C005B093C1058091BA059A
:103E70009091BB05A091BC05B091BD050196A11D17
:103E8000B11D8093BA059093BB05A093BC05B09378
:103E9000BD05BF91AF919F918F917F916F915F9180
:103EA0004F913F912F910F900FBE0F901F9018953B
:103EB0008FB7F8942091BE053091BF054091C005A1
:103EC0005091C1058FBFB901CA0108959B01AC0192
:103ED0007FB7F8948091BA059091BB05A091BC057D
:103EE000B091BD0566B5A89B05C06F3F19F001965E
:103EF000A11DB11D7FBFBA2FA92F982F8827860F2C
:103F0000911DA11DB11D63E0880F991FAA1FBB1F42
:103F10006A95D1F7BC012DC0FFB7F8948091BA051E
:103F20009091BB05A091BC05B091BD05E6B5A89BDD
:103F300005C0EF3F19F00196A11DB11DFFBFBA2FBB
:103F4000A92F982F88278E0F911DA11DB11DE3E089
:103F5000880F991FAA1FBB1FEA95D1F7861B970BE5
:103F6000885E9340C8F22150304040405040685134
:103F70007C4F211531054105510571F6089578945E
:103F800084B5826084BD84B5816084BD85B582605E
:103F900085BD85B5816085BDEEE6F0E080818160FC
:103FA0008083E1E8F0E010828081826080838081FC
:103FB00081608083E0E8F0E0808181608083E1EBD4
:103FC000F0E0808184608083E0EBF0E080818160BC
:103FD0008083EAE7F0E08081846080838081826072
:103FE000808380818160808380818068808310925B
:103FF000C1000895CF93DF93482F50E0CA01865E39
:10400000994FFC0134914A5F594FFA0184918823FA
:1040100069F190E0880F991FFC01E851FA4FA591D2
:10402000B491FC01EE50FA4FC591D491662351F43E
:104030002FB7F8948C91932F909589238C93888136
:1040400089230BC0623061F42FB7F8948C91932FC1
:10405000909589238C938881832B88832FBF06C0FA
:104060009FB7F8948C91832B8C939FBFDF91CF9156
:104070000895482F50E0CA01825D994FFC012491B8
:10408000CA01865E994FFC0194914A5F594FFA012B
:104090003491332309F440C0222351F1233071F0CD
:1040A000243028F42130A1F0223011F514C026303C
:1040B000B1F02730C1F02430D9F404C080918000E1
:1040C0008F7703C0809180008F7D8093800010C027
:1040D00084B58F7702C084B58F7D84BD09C080917F
:1040E000B0008F7703C08091B0008F7D8093B000C7
:1040F000E32FF0E0EE0FFF1FEE50FA4FA591B491C1
:104100002FB7F894662321F48C919095892302C0EF
:104110008C91892B8C932FBF0895682F70E0CB0171
:10412000825D994FFC012491CB01865E994FFC0181
:1041300044916A5F794FFB019491992319F420E02F
:1041400030E03CC0222351F1233071F0243028F4B8
:104150002130A1F0223011F514C02630B1F0273003
:10416000C1F02430D9F404C0809180008F7703C05F
:10417000809180008F7D8093800010C084B58F7700
:1041800002C084B58F7D84BD09C08091B0008F7757
:1041900003C08091B0008F7D8093B000892F90E0A4
:1041A000880F991F84509A4FFC01A591B4918C916E
:1041B00020E030E0842311F021E030E0C9010895CF
:1041C0002CB5382F33702C7F322B3CBD2DB590E0B1
:1041D000959587959595879581702E7F822B8DBDBE
:1041E00008958AE061E00E9439208AE061E00E943F
:1041F000FA1F8CB580618CBD8CB580648CBD8DE060
:1042000061E00E94FA1F8BE061E00E94FA1F0895AE
:1042100081E0809308066093E505109206061092EF
:10422000070608952091E40530E08091E305281BFE
:104230003109C90108954091E3058091E4054817CB
:1042400018F02FEF3FEF0AC0E42FF0E0ED53FA4FE4
:104250008081282F30E04F5F4093E305C901089526
:10426000E091E3058091E405E81718F0EFEFFFEF28
:1042700006C0F0E0ED53FA4F8081E82FF0E0CF0167
:104280000895089510920C0610920B0688EE93E0A4
:10429000A0E0B0E080930D0690930E06A0930F0669
:1042A000B09310068FE595E090930A068093090677
:1042B0000895CF92DF92EF92FF920F931F93CF93C7
:1042C000DF937C016B018A01809108068823A1F0AD
:1042D000C0E0D0E00DC0D701ED91FC91D601AC0F4C
:1042E000BD1F0190F081E02DC7016C9109952196C9
:1042F000C017D10780F304C0CB01642F0E94312284
:10430000C801DF91CF911F910F91FF90EF90DF9047
:10431000CF900895DF93CF930F92CDB7DEB7FC0116
:104320006983809108068823C9F08091070680324E
:1043300038F081E090E09383828320E030E015C084
:1043400080910606E82FF0E0EA51FA4F99819083B8
:104350008F5F809306068093070605C0CE01019605
:1043600061E00E94312221E030E0C9010F90CF913D
:10437000DF9108950F93062F8091E50566EE75E0B5
:104380004091070621E00E94DC211092060610925F
:104390000706109208060F91089561E00E94BA2165
:1043A00008951092E3051092E4051092060610920B
:1043B00007060E94DD2308950F931F93582F122F95
:1043C000413210F081E04AC0809115068823E1F760
:1043D00082E080931506009317068FEF8093820684
:1043E00010923D0640933E06ADE1B6E0FB0102C0EF
:1043F00081918D938E2F861B8417D0F31092160611
:1044000080911606550F852B80931606809118060D
:10441000813041F410921806809116068093BB00FB
:1044200085EC01C085EE8093BC00112321F08091C2
:1044300015068230E1F3809182068F3F11F480E00F
:104440000DC080918206803211F482E007C0809115
:104450008206803311F084E001C083E01F910F9148
:104460000895482F613210F081E00895809115067B
:10447000843011F082E0089560936006AFE3B6E007
:10448000842F9C01F90102C081918D938E2F841B92
:104490008617D0F380E008951F920F920FB60F9207
:1044A00011242F933F934F935F936F937F938F9339
:1044B0009F93AF93BF93EF93FF938091B90090E0E8
:1044C000887F90708036910509F4F2C0813691059D
:1044D000CCF58832910509F47BC089329105B4F49A
:1044E0008031910509F46FC0813191053CF400974A
:1044F00009F447C1089709F04FC165C0883191059B
:1045000009F466C0809709F047C182C080349105E4
:1045100009F4A4C08134910544F48033910509F471
:1045200082C0C89709F038C189C08035910509F467
:1045300089C08835910509F496C08834910509F041
:104540002BC1AEC08839910509F413C18939910591
:10455000ECF48837910509F4ABC0893791054CF428
:104560008836910509F4A4C08037910509F014C17B
:104570009FC08838910509F4FCC08039910509F481
:104580009DC08038910509F007C198C0803B910516
:1045900009F4C6C0813B91054CF4803A910509F4B9
:1045A0009FC0883A910509F0F7C0BAC0803C9105D8
:1045B00009F4E3C0883C910509F4DFC0883B91050C
:1045C00009F0EAC0C2C0809116068093BB00CFC03C
:1045D00090913D0680913E06981768F490913D06B3
:1045E000E92FF0E0E35EF94F80818093BB009F5F8D
:1045F00090933D06BCC080911706882309F44BC0F8
:1046000085ED8093BC008091BC0084FDFCCFC2C0CE
:1046100080E28093820685ED8093BC008091BC008F
:1046200084FDFCCFB7C080E38093820685ED809344
:10463000BC008091BC0084FDFCCFACC088E38093BB
:1046400082069BC080913D069091BB00E82FF0E070
:10465000E35EF94F90838F5F80933D0690913D0616
:1046600080913E0682C080913D069091BB00E82F6C
:10467000F0E0E35EF94F90838F5F80933D06809179
:104680001706882341F085ED8093BC008091BC0023
:1046900084FDFCCF7FC081E08093180684EA6EC061
:1046A00085ED8093BC008091BC0084FDFCCF72C07E
:1046B00083E0809315061092810659C0809181068F
:1046C000803208F056C0809181069091BB00E82F9F
:1046D000F0E0EF59F94F90838F5F8093810647C0D8
:1046E00080918106803230F4E0918106F0E0EF594C
:1046F000F94F108285ED8093BC008091BC0084FD51
:10470000FCCF1092150660918106E0911B06F09196
:104710001C0681E696E070E00995109281062DC096
:1047200084E08093150610925F0610926006E09177
:104730001906F0911A06099580916006882329F4DC
:1047400081E08093600610923F0690915F06E92F0A
:10475000F0E0E15CF94F80818093BB009F5F909314
:104760005F0690915F0680916006981710F485ECC3
:1047700001C085E88093BC000FC085EC8093BC002D
:1047800009C01092820685ED8093BC008091BC0028
:1047900084FDFCCF10921506FF91EF91BF91AF9170
:1047A0009F918F917F916F915F914F913F912F9149
:1047B0000F900FBE0F901F9018951092150681E074
:1047C000809317061092180682E161E00E9439205A
:1047D00083E161E00E943920E9EBF0E080818E7F87
:1047E000808380818D7F808380E28093B80085E420
:1047F0008093BC000895629FD001739FF001829F57
:10480000E00DF11D649FE00DF11D929FF00D839F5F
:10481000F00D749FF00D659FF00D9927729FB00DFC
:10482000E11DF91F639FB00DE11DF91FBD01CF010F
:104830001124089597FB092E07260AD077FD04D08E
:1048400049D006D000201AF4709561957F4F0895E5
:10485000F6F7909581959F4F0895A1E21A2EAA1B15
:10486000BB1BFD010DC0AA1FBB1FEE1FFF1FA21720
:10487000B307E407F50720F0A21BB30BE40BF50B1D
:10488000661F771F881F991F1A9469F760957095A6
:10489000809590959B01AC01BD01CF01089597FBD8
:1048A000092E05260ED057FD04D0D7DF0AD0001CF4
:1048B00038F450954095309521953F4F4F4F5F4FBD
:1048C0000895F6F790958095709561957F4F8F4F7D
:1048D0009F4F0895AA1BBB1B51E107C0AA1FBB1F16
:1048E000A617B70710F0A61BB70B881F991F5A957C
:1048F000A9F780959095BC01CD010895EE0FFF1F9B
:0C4900000590F491E02D0994F894FFCF8D
:10490C000A0064000A000162792057617272696FB3
:10491C0072426561744475696E6F00000000E110AD
:10492C00081B071BB708C009DC096C09FB09330A13
:10493C00871100000000E110081B2B1AB708EC12BD
:10494C0088116C09FB09330A2B17000000000000CA
:10495C00000000000000000000000000000000004B
:10496C00000000000000000000000000000000003B
:10497C00000000000000000000000000000000002B
:10498C00000000000000000000808080000000009B
:10499C0000000000000000000000008080C0C0008B
:1049AC0000000000000000000000000000000000FB
:1049BC0000000000000000000000000000000000EB
:1049CC0000000000000000000000000000000000DB
:1049DC00000000000000000000000000000080C08B
:1049EC00E0F0F8FCF8E0000000000000000000001F
:1049FC00000000000000008080808080008080002B
:104A0C00000000808080808000FFFFFF000000001D
:104A1C008080808000008080000080FFFF8080000C
:104A2C0080800080808080008080000000000080FA
:104A3C008000008C8E84000080F8F8F88000000064
:104A4C0000000000000000000000F0F0F0F0F0F0BA
:104A5C00F0F0F0F0F0F0E0E0C08000E0FCFEFFFFD2
:104A6C00FF7FFFFFFFFFFF000000000000000000C1
:104A7C000000000000FEFFC70101010183FFFF00E1
:104A8C00007CFEC70101010183FFFFFF0038FEC758
:104A9C008301010183C7FFFF000001FFFF0101003B
:104AAC00FFFF0701010100007FFF80000000FFFFF6
:104ABC007F0000FFFFFF000001FFFFFF010000006F
:104ACC0000000000000000000000030F3F7F7FFF8C
:104ADC00FFFFFFFFFFFFE7C7C78F8F9FBFFFFFC31E
:104AEC00C0F0FFFFFFFFFFFCFCFCFCFCFCFCFCF837
:104AFC00F8F0F0E0C000010303030303010303001B
:104B0C000000000103030303010103010000000185
:104B1C00030303030101030300000003030000006F
:104B2C000303000000000000000103030303030162
:104B3C00000000010301000000030301000000005D
:104B4C000000000000000000000000000080C0E039
:104B5C00F0F9FFFFFFFFFF3F1F0F87C7F7FFFF1F96
:104B6C001F3DFCF8F8F8F87C7DFFFFFFFFFFFFFF0F
:104B7C00FF7F3F0F070030300000000000000000F6
:104B8C000000000000000000000000000000FEFE1D
:104B9C00FC0000000000000000000000000000000D
:104BAC0000000000000000E0C00000000000000059
:104BBC000000000030300000000000000000000089
:104BCC000000000000000000000000C0FEFFFFFF1E
:104BDC00FFFFFFFFFFFF7F7F3F1F0F071F7FFFFFC1
:104BEC00F8F8FFFFFFFFFFFEF8E0000000010000F7
:104BFC00000000000000FEFE000000FCFEFC0C06A5
:104C0C00060EFCF80000F0F81C0E0606060CFFFF62
:104C1C00FF0000FEFE00000000FCFEFC00183C7EC5
:104C2C0066E6CE84000006FFFF0606FCFEFC0C06C2
:104C3C0006060000FEFE0000C0F8FC4E4646464E3E
:104C4C007C7840183C76E6CECC800000000000005A
:104C5C000000000000000000000000000000010740
:104C6C000F1F1F3F3F3F3F1F0F03000000000000BE
:104C7C000000000000000F0F0000000F0F0F0000DD
:104C8C0000000F0F000003070E0C18180C060F0F76
:104C9C000F0000010F0E0C180C0F070100040E0C76
:104CAC00180C0F070000000F0F00000F0F0F000073
:104CBC00000000000F0F00000007070C0C181C0C64
:104CCC00060600040E0C180C0F0700000000000074
:104CDC0000000000000000000000000000000000C8
:104CEC0000000000000000000000000000000000B8
:104CFC0000000000000000000000000000000000A8
:104D0C000000000000000000000000000000000097
:104D1C000000000000000000000000000000000087
:104D2C000000000000000000000000000000000077
:104D3C000000000000000000000000000000000067
:104D4C0000000000000000000000000103070F1F1E
:104D5C003F7F0080C0E0F0F8FCFEFF000000008AFE
:0C4D6C0021592112211B2130214121007E
:00000001FF
