:100000000C9489040C944D200C9474200C940A26B2
:100010000C940A260C940A260C94B1040C94D01F5C
:100020000C94B1040C94B1040C94B1040C94B1047C
:100030000C94B1040C94B1040C94B1040C94B1046C
:100040000C949B200C94B1040C94B1040C94B10456
:100050000C94B1040C94B1040C94B1040C94B1044C
:100060000C94F8230C94B104B108A508F708A5086E
:1000700068099A09EF09210A470AA508A508A508F1
:10008000790AA5089F0A100BA508330B530BA50886
:10009000A508A508A508A508810B990DBB0DD50DD0
:1000A000E20DFF0D320E5A0E640E780E900DB40E56
:1000B000DE0EFD0E2D0F400F4A0F960FC90FE20FF7
:1000C0000E10281032106710A210B910D4107553FA
:1000D000004369636C6F204D61783A0075530043AB
:1000E00069636C6F204D696E3A0075530043696314
:1000F0006C6F204163743A0056657273696F6E3A93
:100100000062792057617272696F72004265617492
:100110004475696E6F00456C696765206C6120638A
:10012000616E63696F6E3A005469706F20436F6D42
:100130007061733A00202042504D00456C6967653C
:1001400020656C2074656D706F3A004E6F6D627241
:10015000652063616E63696F6E3A00456C6967651F
:10016000206C612063616E63696F6E3A00426F724A
:100170007261722063616E63696F6E0043616E63CA
:10018000696F6E206120696E7365727461723A00E6
:10019000496E7365727461722064657370756573FE
:1001A0002064653A00456C696765206C6120636175
:1001B0006E63696F6E3A00506F736963696F6E208A
:1001C00061206564697461723A00456C69676520F5
:1001D0006C6120706F736963696F6E3A004E6F6D6A
:1001E000627265207265706572746F72696F3A0031
:1001F000456C696765207265706572746F72696FAE
:100200003A005354415254002042504D0A0A0053C0
:1002100054415254002042504D0A0A002A02200242
:100220004D6574726F6E6F6D6F005265706572749C
:100230006F72696F00540246023B024D6964692087
:10024000436C6F636B005469636B732069677561FE
:100250006C6573004D6F646F00640262025F02316F
:100260003600380034009C028E027D026E0243612B
:100270006D6269617220436F6D7061730043616DDF
:1002800062696172204469766973696F6E004361C7
:100290006D626961722054656D706F0043616D62BB
:1002A000696172204E6F6D62726500C002AF0245D7
:1002B0006C696D696E61722043616E63696F6E0077
:1002C0004564697461722043616E63696F6E00D624
:1002D00002D3025349004E4F001003FF02EE02E129
:1002E00002566163696172204F7264656E00456CED
:1002F000696D696E61722043616E63696F6E00495A
:100300006E7365727461722043616E63696F6E0013
:1003100043616D62696172204F7264656E003003E3
:10032000220343616D62696172204F7264656E00E1
:1003300043616D62696172204E6F6D627265006B20
:100340000359034503456C696D696E6172205265FE
:10035000706572746F72696F0045646974617220B0
:100360005265706572746F72696F0043616D626986
:100370006172205265706572746F72696F009D03BF
:1003800093038B038603496E666F00416A7573742D
:1003900065730043616E63696F6E657300526570CB
:1003A0006572746F72696F730000000000003E5B3D
:1003B0004F5B3E3E6B4F6B3E1C3E7C3E1C183C7EB2
:1003C0003C181C577D571C1C5E7F5E1C00183C1897
:1003D00000FFE7C3E7FF0018241800FFE7DBE7FF93
:1003E00030483A060E2629792926407F0505074020
:1003F0007F05253F5A3CE73C5A7F3E1C1C08081CE1
:100400001C3E7F14227F22145F5F005F5F06097F1E
:10041000017F006689956A606060606094A2FFA2B7
:100420009408047E040810207E201008082A1C0866
:10043000081C2A08081E101010100C1E0C1E0C3070
:10044000383E3830060E3E0E060000000000000068
:100450005F00000007000700147F147F14242A7F28
:100460002A122313086462364956205000080703F5
:1004700000001C2241000041221C002A1C7F1C2A73
:1004800008083E08080080703000080808080800C6
:100490000060600020100804023E5149453E0042C1
:1004A0007F400072494949462141494D3318141291
:1004B0007F1027454545393C4A49493141211109B9
:1004C000073649494936464949291E0000140000AB
:1004D00000403400000008142241141414141400C5
:1004E0004122140802015909063E415D594E7C1211
:1004F00011127C7F494949363E414141227F4141A9
:10050000413E7F494949417F090909013E41415125
:10051000737F0808087F00417F41002040413F0170
:100520007F081422417F404040407F021C027F7FB1
:100530000408107F3E4141413E7F090909063E41C2
:1005400051215E7F09192946264949493203017F15
:1005500001033F4040403F1F2040201F3F403840A4
:100560003F631408146303047804036159494D433D
:10057000007F4141410204081020004141417F04B5
:10058000020102044040404040000307080020549C
:100590005478407F284444383844444428384444FC
:1005A000287F385454541800087E090218A4A49CCB
:1005B000787F0804047800447D40002040403D00DE
:1005C0007F1028440000417F40007C047804787C40
:1005D000080404783844444438FC182424181824A7
:1005E0002418FC7C08040408485454542404043F90
:1005F00044243C4040207C1C2040201C3C40304097
:100600003C44281028444C9090907C4464544C44C2
:100610000008364100000077000000413608000263
:10062000010204023C2623263C1EA1A161123A408D
:1006300040207A3854545559215555794122545403
:100640007842215554784020545579400C1E5272FE
:1006500012395555555939545454593955545458DB
:100660000000457C410002457D420001457C407D03
:100670001211127DF0282528F07C54554500205495
:10068000547C547C0A097F4932494949323A4444EE
:10069000443A324A4848303A4141217A3A4240206D
:1006A00078009DA0A07D3D4242423D3D4040403DFE
:1006B0003C24FF2424487E4943662B2FFC2F2BFF2C
:1006C0000929F620C0887E0903205454794100008E
:1006D000447D413048484A32384040227A007A0A04
:1006E0000A727D0D19317D2629292F2826292929CD
:1006F0002630484D402038080808080808080838FF
:100700002F10C8ACBA2F102834FA00007B00000864
:10071000142A142222142A1408AA005500AAAA5541
:10072000AA55AA000000FF00101010FF00141414B6
:10073000FF001010FF00FF1010F010F0141414FC54
:10074000001414F700FF0000FF00FF1414F404FC71
:10075000141417101F10101F101F1414141F001052
:100760001010F0000000001F101010101F101010CB
:1007700010F010000000FF101010101010101010DA
:10078000FF10000000FF140000FF00FF00001F101A
:10079000170000FC04F414141710171414F404F4D4
:1007A0000000FF00F714141414141414F700F714C5
:1007B0001414171410101F101F141414F414101014
:1007C000F010F000001F101F0000001F14000000B8
:1007D000FC140000F010F01010FF10FF141414FFB0
:1007E000141010101F00000000F010FFFFFFFFFFAB
:1007F000F0F0F0F0F0FFFFFF0000000000FFFF0F3F
:100800000F0F0F0F3844443844FC4A4A4A347E02E2
:10081000020606027E027E02635549416338444463
:100820003C04407E201E2006027E020299A5E7A518
:10083000991C2A492A1C4C7201724C304A4D4D3089
:100840003048784830BC625A463D3E494949007EAE
:100850000101017E2A2A2A2A2A44445F4444405145
:100860004A444040444A51400000FF0103E080FFF9
:10087000000008086B6B083612362436060F090F85
:1008800006000018180000001010003040FF0101A1
:10089000001F01011E00191D1712003C3C3C3C00CA
:1008A00000000000566163696F00564143494F00E4
:1008B000020000000800020100000304070000001D
:1008C0000000000000010204081020408001020422
:1008D0000810200102040810200404040404040485
:1008E00004020202020202030303030303000000E6
:1008F0000023002600290000000000250028002B0E
:100900000000000000240027002A0000B906482348
:10091000C60611241FBECFEFD8E0DEBFCDBF16E064
:10092000A0E0B1E0E2E4F3E502C005900D92AA3147
:10093000B107D9F727E0AAE1B6E001C01D92A33EB6
:10094000B207E1F714E0C8E8D4E004C02197FE0143
:100950000E94EC27C638D107C9F70E94C31B0C942C
:1009600094290C940000CF93DF9381E00E9422220F
:10097000EC0182E00E942222C817D90751F480912D
:100980002D0690912E06019690932E0680932D06AB
:1009900009C080912D0690912E06019790932E0606
:1009A00080932D06DF91CF91089560E08DE00E9445
:1009B000F2218BE00E94BA1F10920E0110921001DA
:1009C00010920F010E94E520609353067093540625
:1009D000809355069093560608951F93CF93DF9307
:1009E000182FEB010E942222892B09F062C09E0180
:1009F000220F331F220F331F220F331FFE01EE0F72
:100A0000FF1FE20FF31FED58F94F17821682138272
:100A10008081811113C0FE01EE0FFF1FE20FF31F53
:100A2000ED58F94F81E04481558120910C013091BE
:100A30000D014217530718F480E001C080E09E01C9
:100A4000220F331F220F331F220F331FFE01EE0F21
:100A5000FF1FE20FF31FED58F94F828384819581C8
:100A600020910C0130910D018217930788F0CE017F
:100A7000880F991F880F991F880F991FFE01EE0F8D
:100A8000FF1FE80FF91FED58F94F81E0808311C077
:100A90009E01220F331F220F331F220F331FFE012F
:100AA000EE0FFF1FE20FF31FED58F94F01969583EC
:100AB0008483812F0E942222019709F05BC0CE011E
:100AC000880F991F880F991F880F991FFE01EE0F3D
:100AD000FF1FE80FF91FED58F94F15821482118698
:100AE00010861182128220812223C9F0CE01880F44
:100AF000991F880F991F880F991FFE01EE0FFF1F86
:100B0000E80FF91FED58F94F21E046815781809198
:100B10000C0190910D014817590708F420E0CE010F
:100B2000880F991F880F991F880F991FFE01EE0FDC
:100B3000FF1FE80FF91FED58F94F23838681978136
:100B400020910C0130910D018217930710F0108253
:100B50004DC09E01220F331F220F331F220F331F60
:100B6000FE01EE0FFF1FE20FF31FED58F94F019644
:100B700097838683CE01880F991F880F991F880F4E
:100B8000991FFE01EE0FFF1FE80FF91FED58F94FF7
:100B90008081882359F1CE01880F991F880F991FF2
:100BA000880F991FFE01EE0FFF1FE80FF91FED5888
:100BB000F94F8085918501969187808720910A0160
:100BC00030910B018217930719F481E081830EC0E5
:100BD000CE01880F991FCC0FDD1FCC0FDD1FCC0F6E
:100BE000DD1FC80FD91FCD58D94F1982DF91CF9182
:100BF0001F910895CF93DF9380914F060E949F1A13
:100C0000EC01BC018DE596E00E946829CE010E94AE
:100C1000B528DF91CF910895FF920F931F93CF9343
:100C2000DF936091500680914F060E94161BF82EAC
:100C30000E94DA1A8C01BC0186E696E00E946829BF
:100C4000C8010E94B5288F2D0E94261BC6E6D6E05B
:100C50008A878F2D0E942E1B8B878F2D0E94391B18
:100C60008C87DF91CF911F910F91FF9008958BEFAB
:100C700091E00E947E298F3F11F080935C068CEFFB
:100C800091E00E947E298F3F31F091E0811101C0F7
:100C900090E0909351068DEF91E00E947E298F3F66
:100CA00031F091E0811101C090E090932F060895FA
:100CB0000FB6F894A89580916000886180936000D9
:100CC000109260000FBE62E082E00E94B62162E0F6
:100CD00081E00E94B62162E080E00E94B62162E0DD
:100CE00083E00E94B62162E085E00E94B62161E0C7
:100CF0008BE00E94B62161E08DE00E94B62161E0A8
:100D000084E00E94B62141E050E063EB74E080E0B3
:100D10000E942D2021E04DE362E081E996E00E94EF
:100D2000A41842E15AE760E070E080E396E00E9498
:100D3000082781E996E00E94301861E081E996E099
:100D40000E947B1461E070E081E996E00E948114CA
:100D50009FE088E10FB6F894A895809360000FBEDD
:100D6000909360000E9437060E94FA050E940C06CC
:100D7000089564E081E996E00E94171820E046E0BB
:100D800067E080E396E00E94DD26089580E396E028
:100D90000E9484260895CF92DF92EF92FF92CF9324
:100DA000DF930E94E520C0911301D0911401C090FF
:100DB0005306D0905406E0905506F09056069B01DD
:100DC000AC012C193D094E095F0969017A019E01A8
:100DD00040E050E0609157067091580680915906A6
:100DE00090915A060E94AB27C216D306E406F50678
:100DF00058F181E080930E0180910F0190911001D4
:100E00004091110150911201C49F9001C59F300D76
:100E1000D49F300D11242817390739F481E090E070
:100E20009093100180930F0105C0019690931001DB
:100E300080930F010E94E52060935306709354063F
:100E4000809355069093560680910E01882389F170
:100E500061E08DE00E94F22180910F0190911001DC
:100E6000019781F48091510681110CC020911501E8
:100E70003091160140E050E068EB71E08BE00E9499
:100E8000321D0BC0209115013091160140E050E059
:100E900066E071E08BE00E94321D80912F0688236E
:100EA00029F068EF80E396E00E94462510920E013B
:100EB00004C060E08DE00E94F221DF91CF91FF90AD
:100EC000EF90DF90CF900895EF92FF920F931F93D2
:100ED000CF93DF93CDB7DEB76E970FB6F894DEBF32
:100EE0000FBECDBF80915B06882321F0813009F4CD
:100EF00013C1D2C480915C06882321F0813009F4AB
:100F0000A3C0CAC481E996E00E94301840E050E0D6
:100F100060E070E081E996E00E94751440E050E0E6
:100F200061E070E081E996E00E94871460914F06CD
:100F300070E06F5F7F4F4AE050E081E996E00E94E9
:100F4000FA1C6FE275E081E996E00E94361C6DE5BF
:100F500076E081E996E00E94361C62E375E081E963
:100F600096E00E94361C6091500670E06F5F7F4FE4
:100F70004AE050E081E996E00E94FA1C6FE275E0D9
:100F800081E996E00E94361C66E676E081E996E00B
:100F90000E94361C61E375E081E996E00E94361CF0
:100FA00062E081E996E00E947B14609117017091E4
:100FB00018014AE050E081E996E00E942C1D65E1AD
:100FC00072E081E996E00E94121C61E081E996E0FE
:100FD0000E947B1460911101709112014AE050E06F
:100FE00081E996E00E942C1D64E375E081E996E0BA
:100FF0000E94361C6091130170911401660F771FD7
:10100000660F771F4AE050E081E996E00E942C1DB0
:1010100066E375E081E996E00E94361C80915206F5
:10102000882339F06FE072E081E996E00E94121C9B
:1010300006C06DE375E081E996E00E94361C81E907
:1010400096E00E94E21928C481E996E00E943018D7
:1010500040E050E060E070E081E996E00E947514A5
:1010600040E050E061E070E081E996E00E94871482
:1010700062E081E996E00E947B1460911701709113
:1010800018014AE050E081E996E00E942C1D68E0DA
:1010900072E081E996E00E94121C61E081E996E02D
:1010A0000E947B1460911101709112014AE050E09E
:1010B00081E996E00E942C1D64E375E081E996E0E9
:1010C0000E94361C6091130170911401660F771F06
:1010D000660F771F4AE050E081E996E00E942C1DE0
:1010E00066E375E081E996E00E94361C8091520625
:1010F000882339F062E072E081E996E00E94121CD8
:1011000006C06DE375E081E996E00E94361C81E936
:1011100096E00E94E219C0C381E996E00E9430186F
:1011200040E050E060E070E081E996E00E947514D4
:1011300020912C06822F90E0FC013297E931F105D5
:1011400020F4EC5CFF4F0C94EC27E22FF0E0EE0F64
:10115000FF1FEE0FFF1FEE5BFA4F8081811150C31E
:1011600097C340E050E061E070E081E996E00E94C2
:10117000871460EF71E081E996E00E94431C00E073
:1011800010E080912B0690E08017910749F441E030
:1011900050E060E070E081E996E00E94871408C0AA
:1011A00040E050E061E070E081E996E00E94871441
:1011B000802F0E949F1A7C010F5F1F4F4AE050E072
:1011C000B80181E996E00E94FA1C6FE275E081E9BE
:1011D00096E00E94361CB70181E996E00E94551CFA
:1011E000C7010E94B5280330110559F651C340E0EC
:1011F00050E061E070E081E996E00E9487146DEDB7
:1012000071E081E996E00E94431C80912D06909147
:101210002E06181619063CF580912A06E09128063C
:10122000F0912906E80FF11D8081811102C080E252
:10123000808380912A06E0912806F0912906E80F24
:10124000F11D80818A3711F488ED808380912A0610
:10125000E0912806F0912906E80FF11D80818A3778
:1012600010F48F5F808380912D0690912E06992334
:1012700094F480912A06E0912806F0912906E80F5F
:10128000F11D8081883D19F48AE7808304C0813292
:1012900010F081508083609128067091290681E9C1
:1012A00096E00E94551C80912A0690E0BC01660FD2
:1012B000771F680F791F660F771F01E010E026E0A7
:1012C00030E04FE050E081E996E00E949814E0C2DF
:1012D0006AEC71E081E996E00E94431C40E050E036
:1012E00061E070E081E996E00E94871460912B062E
:1012F00080914F060E94161B0E94DA1A8C01909171
:101300002B06692F70E06F5F7F4F4AE050E081E964
:1013100096E00E94FA1C6FE275E081E996E00E9477
:10132000361CB80181E996E00E94551CC8010E9454
:10133000B528AEC267EB71E081E996E00E94431CDC
:101340006091270680914F060E94161B0E94DA1AB0
:101350008C0190912706692F70E06F5F7F4F4AE004
:1013600050E081E996E00E94FA1C6FE275E081E9A5
:1013700096E00E94361CB80181E996E00E94551C57
:1013800062E375E081E996E00E94551C65EA71E030
:1013900081E996E00E94431CC8010E94B528809113
:1013A0002B060E94DA1A8C0190912706692F70E0B3
:1013B0006F5F7F4F4AE050E081E996E00E94FA1C9F
:1013C0006FE275E081E996E00E94361CB80181E980
:1013D00096E00E94551CC8010E94B52859C260E9D8
:1013E00071E081E996E00E94431C40E050E061E03A
:1013F00070E081E996E00E94871460912B0680914D
:101400004F060E94161B0E94DA1A8C0190912B063F
:10141000692F70E06F5F7F4F4AE050E081E996E00E
:101420000E94FA1C6FE275E081E996E00E94361C8A
:10143000B80181E996E00E94551CC8010E94B528B8
:1014400027C26CE771E081E996E00E94431C80911D
:101450002B060E94DA1A8C0190912706692F70E002
:101460006E5F7F4F4AE050E081E996E00E94FA1CEF
:101470006FE275E081E996E00E94361CB80181E9CF
:1014800096E00E94551CC8010E94B52801C26DE675
:1014900071E081E996E00E94431C40E050E061E089
:1014A00070E081E996E00E94871460912B0680919C
:1014B0004F060E94161B0E94DA1A8C0190912B068F
:1014C000692F70E06F5F7F4F4AE050E081E996E05E
:1014D0000E94FA1C6FE275E081E996E00E94361CDA
:1014E000B80181E996E00E94551CC8010E94B52808
:1014F000CFC16BE571E081E996E00E94431C8091C9
:101500002B060E94DA1A8C0190912B06692F70E04D
:101510006F5F7F4F4AE050E081E996E00E94FA1C3D
:101520006FE275E081E996E00E94361CB80181E91E
:1015300096E00E94551CC8010E94B528A9C140E050
:1015400050E061E070E081E996E00E9487146BE46E
:1015500071E081E996E00E94431C80912D069091F4
:101560002E06181619063CF580912A06E0912806E9
:10157000F0912906E80FF11D8081811102C080E2FF
:10158000808380912A06E0912806F0912906E80FD1
:10159000F11D80818A3711F488ED808380912A06BD
:1015A000E0912806F0912906E80FF11D80818A3725
:1015B00010F48F5F808380912D0690912E069923E1
:1015C00094F480912A06E0912806F0912906E80F0C
:1015D000F11D8081883D19F48AE7808304C081323F
:1015E00010F081508083609128067091290681E96E
:1015F00096E00E94551C80912A0690E0BC01660F7F
:10160000771F680F791F660F771F01E010E026E053
:1016100030E04FE050E081E996E00E94981438C134
:1016200040E050E061E070E081E996E00E948714BC
:101630006BE371E081E996E00E94431C62E375E090
:1016400081E996E00E94551C4AE050E060912B062B
:1016500081E996E00E94251D65E371E081E996E04D
:101660000E94431C15C140E050E061E070E081E958
:1016700096E00E94871468E271E081E996E00E949A
:10168000431C62E375E081E996E00E94551C60917D
:101690002B0670E06E5F7F4F4AE050E081E996E0F4
:1016A0000E94011DF5C040E050E061E070E081E97A
:1016B00096E00E94871466E171E081E996E00E945D
:1016C000431C80912B060E94DA1A8C0190912B0604
:1016D000692F70E06F5F7F4F4AE050E081E996E04C
:1016E0000E94FA1C6FE275E081E996E00E94361CC8
:1016F000B80181E996E00E94551CC8010E94B528F6
:10170000C7C040E050E061E070E081E996E00E94EF
:1017100087146CE071E081E996E00E94431C61E06F
:1017200071E081E996E00E94431C68EF70E081E976
:1017300096E00E94121C4AE050E061E070E081E90E
:1017400096E00E94FA1C6FE275E081E996E00E9443
:10175000361C4AE050E060E070E081E996E00E94CB
:10176000011D6DEE70E081E996E00E94121C40912F
:101770001E0650911F0660912006709121062AE0F6
:1017800030E081E996E00E94181D6AEE70E081E980
:1017900096E00E94431C6FED70E081E996E00E94A4
:1017A000121C40910601509107016091080170914F
:1017B00009012AE030E081E996E00E94181D6CEDF5
:1017C00070E081E996E00E94431C61ED70E081E9E0
:1017D00096E00E94121C40911A0650911B066091DF
:1017E0001C0670911D062AE030E081E996E00E9417
:1017F000181D6EEC70E081E996E00E94431C48C021
:1018000000E010E080912B0690E08017910749F4EA
:1018100041E050E060E070E081E996E00E948714CA
:1018200008C040E050E061E070E081E996E00E948D
:101830008714E0912C06F0E0EE0FFF1FEE0FFF1F64
:10184000EE5BFA4FC801880F991F0280F381E02DEB
:10185000E80FF91F65917491CE0101960E945229FB
:10186000BE016F5F7F4F81E996E00E94551C0F5FBC
:101870001F4FE0912C06F0E0EE0FFF1FEE0FFF1F51
:10188000EE5BFA4F808190E0081719070CF4BACF8D
:1018900081E996E00E94E2196E960FB6F894DEBFD9
:1018A0000FBECDBFDF91CF911F910F91FF90EF90B1
:1018B00008950F931F93CF93DF93CDB7DEB72A9789
:1018C0000FB6F894DEBF0FBECDBF0E94F12060932B
:1018D000220670932306809324069093250660E0E9
:1018E00070E080E090E00E94ED0461E070E083E051
:1018F00090E00E94ED0462E070E085E090E00E94DC
:10190000ED0480917F06882311F180915B06813080
:10191000A1F4E0912C06E11103C010925B0614C003
:10192000F0E0EE0FFF1FEE0FFF1FEE5BFA4F81811D
:1019300080932C0610922B0607C081E080935B06F3
:1019400010922B0610922C0681E080931901809151
:101950005B06882321F0813009F493C042C4809152
:101960005C06882321F0813009F45AC03AC4809182
:101970002D0690912E061816190664F480915006D3
:101980008D3140F48F5F809350060E940C0681E0F9
:101990008093190180912D0690912E06992364F46D
:1019A00080915006882341F08150809350060E9418
:1019B0000C0681E080931901E6E6F6E02285822F8D
:1019C00090E09093180180931701838590E09093A5
:1019D000140180931301848590E090931201809309
:1019E000110130E040E050E060E67AEE80E090E007
:1019F0000E94CD27209357063093580640935906EE
:101A000050935A0680917506882309F4EAC38091A1
:101A1000520691E089278093520690931901E1C301
:101A200000912D0610912E0620911701309118017A
:101A3000200F311F309318012093170140E050E030
:101A400060E67AEE80E090E00E94CD272093570672
:101A5000309358064093590650935A068091750664
:101A6000882341F08091520691E0892780935206A5
:101A700090931901012B09F4B4C381E080931901FB
:101A8000B0C320912D0630912E0612161306E4F4F1
:101A900040912B06642F70E0E0912C06F0E0EE0FF1
:101AA000FF1FEE0FFF1FEE5BFA4F808190E0019762
:101AB0006817790724F44F5F40932B0602C01092F9
:101AC0002B0681E0809319013323C4F480912B0607
:101AD000882321F0815080932B060DC0E0912C06C5
:101AE000F0E0EE0FFF1FEE0FFF1FEE5BFA4F80815D
:101AF000815080932B0681E08093190180918906A3
:101B0000882309F46EC3E0912C068E2F90E08A3171
:101B1000910508F063C3FC01E35BFF4F0C94EC27D5
:101B200060912706862F90E001964D970CF4EAC04D
:101B300001C180912B06813061F028F0823079F06C
:101B4000833099F04BC310922B0681E080932C06D2
:101B500045C310922B068DE080932C063FC3109254
:101B60002B0686E180932C0639C310922B068AE15E
:101B700080932C0633C380912B06813051F018F0EE
:101B8000823069F02BC310922B0682E080932C06E2
:101B900025C310922B0683E080932C061FC310925E
:101BA0002B068CE080932C0619C380912B06809322
:101BB0004F06109250060E94FA050E940C061092E1
:101BC0005B060CC380912B06882319F0813089F0C5
:101BD00005C310922B0684E080932C0680914F065B
:101BE0000E949F1A909329068093280610922A0635
:101BF000F5C210922B0685E080932C06EFC28091EF
:101C00002A06E0912806F0912906E80FF11D90813F
:101C1000983DF9F410826091280670912906809110
:101C20004F060E94551B80912806909129060E941C
:101C3000B528E0912C0684E0E89FF0011124EE5BCA
:101C4000FA4F818180932C0610922B060E94FA0590
:101C5000C5C2883020F48F5F80932A06BFC21092DD
:101C60002A06BCC280912B06813071F028F08230A8
:101C700099F08330C9F0B2C210922B0686E08093AF
:101C80002C0610922706AAC210922B0688E0809399
:101C90002C0610922706A2C210922B068AE080938F
:101CA0002C06109227069AC210922B068BE0809386
:101CB0002C0694C280912B068093270610922B0647
:101CC00087E080932C068AC240912B0660912706FC
:101CD00080914F060E94781B8091270680932B06E7
:101CE0001092270686E080932C060E940C0676C28E
:101CF00080912B068093270610922B0689E0809313
:101D00002C066CC20DE110E06FEF600F80914F0662
:101D10000E94161B482F602F80914F060E94781B4F
:101D20000150110960912706862F90E001968017D7
:101D3000910754F36F5F40912B0680914F060E94EC
:101D4000781B10922B0610922706E0912C06F0E0EB
:101D5000EE0FFF1FEE0FFF1FEE5BFA4F81818093A6
:101D60002C060E940C063AC200912B0610E00D31A1
:101D700011058CF461E0600F80914F060E94161BE4
:101D8000482F602F80914F060E94781B0F5F1F4FD6
:101D90000D31110579F710922B0610922706E0916C
:101DA0002C06F0E0EE0FFF1FEE0FFF1FEE5BFA4F69
:101DB000818180932C060E940C0610C280912B0614
:101DC000813051F410E04FEF612F80914F060E9457
:101DD000781B1F5F1E31B9F710922B06E0912C067D
:101DE000F0E0EE0FFF1FEE0FFF1FEE5BFA4F818159
:101DF00080932C060E940C06F1C180912B06813045
:101E000051F410E04FEF612F80914F060E94781B34
:101E10001F5F1E31B9F78FEF898348E050E0BE01A4
:101E20006F5F7F4FCB010E946F29BE016F5F7F4FB5
:101E300080914F060E94551B10922B06E0912C06B4
:101E4000F0E0EE0FFF1FEE0FFF1FEE5BFA4F8181F8
:101E500080932C060E94FA05C1C180912B0688232D
:101E600019F0813039F0BAC110922B068EE08093C0
:101E70002C06B4C110922B0684E180932C06AEC1CF
:101E800080912B068093260610922B068FE080937C
:101E90002C06A4C180912B068130A1F028F082305D
:101EA000E9F08330B1F19AC110922B0680E1809362
:101EB0002C06809126060E94DA1A909329068093B8
:101EC00028068CC181E180932C06809126060E9411
:101ED000261B8093270680932B0680C182E1809386
:101EE0002C06809126060E942E1B809327068230A6
:101EF00041F0843051F0813009F070C110922B060E
:101F00006DC181E080932B0669C182E080932B062E
:101F100065C183E180932C06809126060E94391BBF
:101F200080932706825080932B0658C180912A0601
:101F3000E0912806F0912906E80FF11D9081983D67
:101F4000F9F4108260912806709129068091260686
:101F50000E94871B80912806909129060E94B5282F
:101F600010922B06E0912C0684E0E89FF0011124EA
:101F7000EE5BFA4F818180932C060E940C062EC1E5
:101F80008A3020F48F5F80932A0628C110922A0697
:101F900025C160912B06809126060E94A81B1092F5
:101FA0002B0610922706E0912C06F0E0EE0FFF1FA3
:101FB000EE0FFF1FEE5BFA4F818180932C060E948B
:101FC0000C060CC180912B06813051F018F0823044
:101FD00069F011C061E0809126060E94B01B0BC021
:101FE00062E0809126060E94B01B05C064E08091EB
:101FF00026060E94B01B1092270610922B06E09135
:102000002C06F0E0EE0FFF1FEE0FFF1FEE5BFA4F06
:10201000818180932C060E940C06E0C060912B0603
:102020006E5F809126060E94B81B109227061092C0
:102030002B06E0912C06F0E0EE0FFF1FEE0FFF1FC6
:10204000EE5BFA4F818180932C060E940C06C6C07D
:1020500080912B068093260610922B0685E18093B3
:102060002C06BCC080912B06813001F58FEF89834F
:102070004AE050E0BE016F5F7F4FCB010E946F29A5
:10208000BE016F5F7F4F809126060E94871B6FEF16
:10209000809126060E94A81B6FEF809126060E9461
:1020A000B01B6FEF809126060E94B81B10922B0682
:1020B000E0912C06F0E0EE0FFF1FEE0FFF1FEE5B2E
:1020C000FA4F818180932C060E940C0687C0809174
:1020D0002B068130A9F018F0823019F17FC08BEF08
:1020E00091E00E947E29809327068F3F19F080930C
:1020F0002B0602C010922B0687E180932C066EC03F
:102100008CEF91E00E947E29809327068F3F19F083
:1021100080932B0602C010922B0688E180932C0638
:102120005DC08DEF91E00E947E29809327068F3F4E
:1021300019F080932B0602C010922B0689E1809340
:102140002C064CC060912B0660935C068BEF91E0EF
:102150000E94441B10922B06E0912C06F0E0EE0F3B
:10216000FF1FEE0FFF1FEE5BFA4F818180932C065D
:1021700035C061E080912B06811101C060E0609361
:1021800051068CEF91E00E94441B10922B06E091C7
:102190002C06F0E0EE0FFF1FEE0FFF1FEE5BFA4F75
:1021A000818180932C061AC061E080912B068111F9
:1021B00001C060E060932F068DEF91E00E94441B08
:1021C00010922B06E0912C06F0E0EE0FFF1FEE0FB1
:1021D000FF1FEE5BFA4F818180932C0681E0809394
:1021E000190180915206882319F00E94CB0602C083
:1021F0000E94D50480911901882321F00E94640770
:10220000109219010E94F1200091220610912306DC
:102210002091240630912506DC01CB01801B910B17
:10222000A20BB30B80931E0690931F06A09320066B
:10223000B093210600911A0610911B0620911C06EE
:1022400030911D06081719072A073B0740F48093B1
:102250001A0690931B06A0931C06B0931D060091CE
:1022600006011091070120910801309109018017A2
:102270009107A207B30740F48093060190930701EA
:10228000A0930801B093090110922E0610922D061A
:10229000A8952A960FB6F894DEBF0FBECDBFDF918A
:1022A000CF911F910F91089580E090E008950895D7
:1022B0002F923F924F925F926F927F928F929F9256
:1022C000AF92BF92CF92DF92EF92FF920F931F9344
:1022D000CF93DF9300D000D0CDB7DEB75C017C8315
:1022E0006B836A014901FA82E982C801841B950B5C
:1022F0009C0122F422273327281B390BA4018B8150
:102300009C81481B590BCA01992324F488279927DB
:10231000841B950B51E040E0821793070CF050E0CE
:10232000652E742E6114710459F0982D892D480181
:10233000092F182F9B818C81DC82CB82C92ED82E4D
:10234000AB81BC818A169B060CF045C09C2D8D2D5F
:102350006801092F182F9B818C819C828B82892E8A
:10236000982E39C0EB81FC818E169F060CF44EC06E
:102370000FEF1FEF02C001E010E06114710471F073
:10238000D501ED91FC910084F185E02D29813A8100
:102390004B815C81B601C50109950DC0D501ED9158
:1023A000FC910084F185E02D29813A81A6016B81A1
:1023B0007C81C5010995E418F50822F4C00ED11EF0
:1023C000E20CF31CEB81FC813196FC83EB838E16CF
:1023D0009F069CF61BC014018B819C81281A390A28
:1023E000C8018C199D092C0122F444245524481A53
:1023F000590A710133201CF49FEFE91AF90AF59488
:10240000E794C016D1060CF4B6CFACCF0F900F9066
:102410000F900F90DF91CF911F910F91FF90EF9050
:10242000DF90CF90BF90AF909F908F907F906F90F4
:102430005F904F903F902F9008956F927F928F9270
:102440009F92AF92BF92CF92DF92EF92FF920F9343
:102450001F93CF93DF93EC014B015A0169013801BF
:10246000E881F9810684F785E02D87010995E881E7
:10247000F981A501460D571D415051090684F78584
:10248000E02D9601B401CE010995E881F98104841B
:10249000F585E02D9301A501B401CE010995E881F0
:1024A000F981C80CD91CB601615071090484F58505
:1024B000E02D9301A501CE010995DF91CF911F91E8
:1024C0000F91FF90EF90DF90CF90BF90AF909F90D3
:1024D0008F907F906F900895EF92FF920F931F93CC
:1024E0007801DC01ED91FC91240F351F8901015029
:1024F00011090284F385E02D9B0109951F910F912D
:10250000FF90EF900895EF92FF920F931F93DC01DD
:10251000ED91FC91260F371F215031090284F3857C
:10252000E02D78018A0109951F910F91FF90EF909E
:1025300008956F927F928F929F92AF92BF92CF92A7
:10254000DF92EF92FF920F931F93CF93DF936C0173
:10255000EB014A01580137017B01E20EF31E6E15B3
:102560007F0584F4D601ED91FC910484F585E02D7E
:1025700083019501A401BE01C60109952196CE15DE
:10258000DF0584F3DF91CF911F910F91FF90EF90C2
:10259000DF90CF90BF90AF909F908F907F906F9083
:1025A0000895EF92FF920F931F93DC01ED91FC9140
:1025B00011971A960D911C911B9718962D913C918D
:1025C00019970288F389E02D7B0140E050E060E03C
:1025D00070E009951F910F91FF90EF900895089575
:1025E000FC011382128282EB95E0918380837583D4
:1025F0006483578346837187608753874287158A30
:10260000158614861786168681E0848B2FEF3FEFA0
:10261000338B228B318B208B868B08952F923F92A8
:102620004F925F926F927F928F929F92AF92BF92E2
:10263000CF92DF92EF92FF920F931F93CF93DF938E
:10264000CDB7DEB762970FB6F894DEBF0FBECDBF31
:102650005C011801FD82EC82CB82DC0118968D9121
:102660009C911997681779070CF0C8C01A968D913C
:102670009C911B97481759070CF0C0C0EC2DF0E057
:10268000FA83E983CF01880F991F8E0F9F1F880F50
:10269000991F860F971F01970AF4B0C0CF01880FCA
:1026A000991F880F991F880F991F840F951F0197F5
:1026B0000AF4A4C030E0C901880F991F880F991F40
:1026C000280F391F3F01798768877B876A871C86B7
:1026D000D901A61BB70BB88BAF874D875E874A0120
:1026E000B8E08B0E911C2401EC85E53009F478C02C
:1026F000EF85F88988859985E80FF91FE755FC4F24
:1027000014916FC0B0FE24C09B81913079F4A989E7
:10271000BA89ED91FC9111970084F185E02D91012A
:10272000A60168857985CD0109953CC0A989BA893A
:10273000ED91FC9111970288F389E02D71010981D7
:102740001A819801A4016E817F81CD0109952AC06B
:10275000EC81FD81E215F30529F1FB81F13081F473
:10276000A989BA89ED91FC9111970084F185E02D3A
:102770002C813D81A60168857985CD01099512C01E
:10278000A989BA89ED91FC9111970288F389E02D0E
:10279000EC80FD8009811A819801A4016E817F81FE
:1027A000CD010995B694860C971CBFEFCB1ADB0AB6
:1027B000C414D50409F0A6CFA988BA88EC85EF5FC8
:1027C000EC878A859B85860D971D9B878A87A885C0
:1027D000B9851196B987A887E63009F085CF0EC074
:1027E00010E0BA85BE83EB85EF83CD84DE848C2C2C
:1027F0009D2CC501B12E9A8B898B84CF62960FB622
:10280000F894DEBF0FBECDBFDF91CF911F910F9126
:10281000FF90EF90DF90CF90BF90AF909F908F9000
:102820007F906F905F904F903F902F900895CF9240
:10283000EF92FF920F931F93CF93DF936A3079F457
:10284000FC01448926853785F8E04F9F200D311D16
:102850001124FC0137872687158614863CC06D300D
:10286000D1F1262FEC01EA88FB88088919894E8569
:102870005F856C857D85CC880E940E132C8930E0A5
:10288000C901880F991F820F931F880F991F4C85CC
:102890005D85840F951F9D878C874E894423D9F0D1
:1028A0004AEF4203B001439F700D112448855985BA
:1028B000460F571F4817590774F4220F331F220F72
:1028C000331F220F331F8E859F85280F391F3F87A7
:1028D0002E871D861C8681E090E0DF91CF911F91AD
:1028E0000F91FF90EF90CF900895FC01758764875A
:1028F000578746870895611101C061E0FC01648B30
:102900000895FC01738B628B718B608B0895FC01C1
:10291000718B608B538B428B0895FC0185890895E0
:10292000FC01808591850895FC0182859385089539
:102930000F931F93FC018589823071F08330E9F099
:10294000813009F0C7C084819581DC01A41BB50BDF
:10295000AD014150510922C184819581DC01A61B42
:10296000B70BBD0186819781DC01A41BB50BAD01BE
:1029700041505109621B730BADC086819781DC0108
:10298000A61BB70BBD01621B730B08C18481958127
:10299000481759070CF029C1772324F4260F371F55
:1029A00060E070E086819781FB01E20FF31F8E17D4
:1029B0009F071CF49C01261B370B121613060CF004
:1029C00014C1722F862F869586958695B0E88B9FC9
:1029D000400D511D1124FA01E65DFE4F677079F13B
:1029E00088E0861B482F50E0DA01AE5DBE4F9C9117
:1029F000281708F0D7C0421B51092FEF30E002C062
:102A0000359527954A95E2F792230130110529F073
:102A100040F00230110551F0E8C02081922B9083E4
:102A200008C0909520819223908303C02081922733
:102A30009083781708F4D9C0781BE058FF4F78309E
:102A400058F10230110559F4DF01972F8C918095D0
:102A50008C93A058BF4F98509830C0F7B5C091E004
:102A60000130110509F090E09195DF01872F9C93CB
:102A7000A058BF4F88508830D0F788EF870F8695D1
:102A80008695869590E001969695982F882797953C
:102A90008795E80FF91F7770772309F4A6C0777040
:102AA000A72FB0E0A65EBE4F8C910130110529F032
:102AB00040F00230110551F098C09081892B80833D
:102AC00094C080959081892380838FC090818927CD
:102AD00080838BC055230CF488C08681978148176A
:102AE00059070CF082C0772324F4260F371F60E0CB
:102AF00070E084819581FB01E20FF31F8E179F0721
:102B00001CF49C01261B370B121613060CF06DC02B
:102B1000CA0155230CF40796959587959595879549
:102B2000959587959695982F882797958795680FFF
:102B3000791F665D7E4F4770552781E090E002C0A7
:102B4000880F991F4A95E2F7482F0130110549F087
:102B500090F00230110509F048C0FB01620F731FAD
:102B600016C0FB01620F731F8081842B8193E617CF
:102B7000F707D1F73AC0982F9095FB01620F731FAA
:102B8000808189238193E617F707D1F72EC08081D2
:102B900084278193E617F707D1F727C055230CF058
:102BA000F5CE23C00130110509F437CF08F439CF31
:102BB0000230110509F43ACF3FCFA72FA770B0E03C
:102BC000A65EBE4F8C9182CF88EF870F8695869543
:102BD000869590E001969695982F882797958795EA
:102BE000E80FF91F872F877041F71F910F91089504
:102BF0000F931F93FC018589823071F08330E9F0D7
:102C0000813009F084C084819581DC01A41BB50B5F
:102C1000AD01421B530B22C184819581DC01A61BAF
:102C2000B70BBD016150710986819781DC01A41B3E
:102C3000B50BAD01421B530B6AC086819781DC0145
:102C4000A61BB70BBD016150710908C18681978130
:102C5000681779070CF029C1552324F4240F351F78
:102C600040E050E084819581FA01E20FF31F8E1756
:102C70009F071CF49C01241B350B121613060CF045
:102C800014C1CB0177230CF40796959587959595FC
:102C90008795959587959695982F882797958795E9
:102CA000480F591F465D5E4FCB018770992761E041
:102CB00070E002C0660F771F8A95E2F7962F013009
:102CC000110549F090F00230110509F0EEC0FA014B
:102CD000240F351F15C0FA01240F351F8081892B61
:102CE0008193E217F307D1F7E0C06095FA01240F52
:102CF000351F808186238193E217F307D1F7D5C072
:102D0000808189278193E217F307D1F7CEC077231B
:102D10000CF4CBC084819581681779070CF0C5C08D
:102D2000552324F4240F351F40E050E0868197811D
:102D3000FA01E20FF31F8E179F071CF49C01241B5E
:102D4000350B121613060CF0B0C0522F842F869547
:102D500086958695B0E88B9F600D711D1124FB014F
:102D6000E65DFE4F477079F188E0841B682F70E0C4
:102D7000DB01AE5DBE4F9C91281708F073C0621B4B
:102D800071092FEF30E002C0359527956A95E2F77B
:102D900092230130110529F040F00230110551F065
:102DA00084C02081922B908308C09095208192232B
:102DB000908303C0208192279083581708F475C030
:102DC000581BE058FF4F583058F10230110559F4A4
:102DD000DF01952F8C9180958C93A058BF4F985010
:102DE0009830C0F751C091E00130110509F090E032
:102DF0009195DF01852F9C93A058BF4F8850883054
:102E0000D0F788EF850F86958695869590E0019698
:102E10009695982F882797958795E80FF91F5770F3
:102E2000552309F442C05770A52FB0E0A65EBE4FEF
:102E30008C910130110529F040F00230110551F05C
:102E400034C09081892B808330C080959081892304
:102E500080832BC090818927808327C077230CF043
:102E6000F5CE23C00130110509F49BCF08F49DCFA6
:102E70000230110509F49ECFA3CFA52FA770B0E0B3
:102E8000A65EBE4F8C91E6CF88EF850F869586951E
:102E9000869590E001969695982F88279795879527
:102EA000E80FF91F852F877041F71F910F91089543
:102EB000CF92DF92EF92FF920F931F93CF93DF9306
:102EC0007C01EB018A016901DD230CF4A7C00E949B
:102ED0009014C817D9070CF0A1C011230CF49EC0A0
:102EE000C7010E949414081719070CF097C0C70176
:102EF0000E948D14823069F08330E1F0813019F541
:102F0000F70184819581801B910B8E01EC01219743
:102F10001AC0F701848195819C012C1B3D0BE901AE
:102F2000219786819781FC01E01BF10B8F010150F5
:102F3000110909C0F701868197818C1B9D0BE8015F
:102F40008C0101501109F1E0CF16D10439F030F1B4
:102F500032E0C316D10409F442C060C0C801112395
:102F60000CF40796959587959595879595958795F2
:102F70009695982F882797958795C80FD91FC65D76
:102F8000DE4F0770112781E090E002C0880F991F83
:102F90000A95E2F79881892B888340C0C8011123E4
:102FA0000CF40796959587959595879595958795B2
:102FB0009695982F882797958795C80FD91FC65D36
:102FC000DE4F0770112781E090E002C0880F991F43
:102FD0000A95E2F780959881892388831FC0C801EC
:102FE00011230CF40796959587959595879595955A
:102FF00087959695982F882797958795C80FD91FFD
:10300000C65DDE4F0770112781E090E002C0880F97
:10301000991F0A95E2F7988189278883DF91CF91DC
:103020001F910F91FF90EF90DF90CF9008951F9325
:10303000CF93DF93EC01162F40E450E060E870E09E
:103040000E94F0128EEC95E0998388838FEF898F30
:103050008D8F8B8F8A8F1C8FDF91CF911F91089559
:1030600080E094E0EAE2F1E0DF019C011D92215052
:103070003040E1F70895CF93FC01818D8F3F09F433
:103080004AC0A3A1B4A19C9181A5892B8C93A5A131
:10309000B6A19C9182A5809589238C93A3A1B4A10C
:1030A0009C9181A5809589238C93868D882339F006
:1030B0006EBD00000DB407FEFDCF8EB525C048E003
:1030C00050E020E8A1A1B2A19C9180A58095892320
:1030D0008C93822F862339F0A78DB0A19C9187A174
:1030E000892B8C9307C0A78DB0A19C9187A1809557
:1030F00089238C93A1A1B2A19C9180A5892B8C934B
:10310000269541505109F1F6A3A1B4A19C9181A546
:10311000892B8C9317C0C62F6789062E000C770B5E
:103120008BED96E00E94302360E08BED96E00E94EC
:10313000DD226C2F8BED96E00E94DD228BED96E078
:103140000E944523CF9108950F931F93CF93DF9350
:10315000EC01162F022F688F4F8B898D8F3F09F45A
:1031600077C061E08B8D0E94B62161E08D8D0E9459
:10317000B6218D8D082E000C990BFC01E752F74FFC
:10318000E491F0E0EE0FFF1FE950F74F25913491E5
:103190003CA32BA3FC01EB53F74FE491E9A78B8DE4
:1031A000082E000C990BFC01E752F74FE491F0E078
:1031B000EE0FFF1FE950F74F259134913EA32DA349
:1031C000FC01EB53F74FE491EAA78E8D811137C0D4
:1031D00061E0898D0E94B62161E08A8D0E94B6214E
:1031E0008A8D082E000C990BFC01E752F74FE491F1
:1031F000F0E0EE0FFF1FE950F74F259134913AA30D
:1032000029A3FC01EB53F74FE491E8A7898D082E21
:10321000000C990BFC01E752F74FE491F0E0EE0F40
:10322000FF1FE950F74F2591349138A32F8FFC01F0
:10323000EB53F74FE491EFA38E8D882369F00E9442
:103240004B228CB58C7F8CBD8DB581608DBD04C04B
:103250008BED96E00E941C230023E1F061E08C8D51
:103260000E94B62161E08C8D0E94F22161E070E045
:1032700080E090E00E94162160E08C8D0E94F22197
:103280006AE070E080E090E00E94162161E08C8DA1
:103290000E94F2216EEACE010E943B1865EDCE013C
:1032A0000E943B1860E8CE010E943B1868EACE01FC
:1032B0000E943B186FE3CE010E943B1863EDCE01E4
:1032C0000E943B1860E0CE010E943B1860E4CE01F2
:1032D0000E943B186DE8CE010E943B18113069F541
:1032E00060E1CE010E943B1860E2CE010E943B18D3
:1032F00060E0CE010E943B1861EACE010E943B18BB
:1033000068ECCE010E943B186AEDCE010E943B188A
:1033100062E1CE010E943B1861E8CE010E943B1899
:103320006FE9CE010E943B1869EDCE010E943B1867
:1033300062E2CE010E943B182CC064E1CE010E94E3
:103340003B1860E2CE010E943B1860E0CE010E9473
:103350003B1861EACE010E943B1868ECCE010E9446
:103360003B186AEDCE010E943B1862E1CE010E943B
:103370003B1861E8CE010E943B186FECCE010E9421
:103380003B1869EDCE010E943B1861EFCE010E940F
:103390003B186BEDCE010E943B1860E4CE010E9409
:1033A0003B1864EACE010E943B1866EACE010E94F7
:1033B0003B186FEACE010E943B18DF91CF911F911D
:1033C0000F910895BF92CF92DF92EF92FF920F93E9
:1033D0001F93CF93DF93EC0161E20E943B1860E002
:1033E000CE010E943B186FE7CE010E943B1862E2BB
:1033F000CE010E943B1860E0CE010E943B1867E0BE
:10340000CE010E943B18898D8F3F09F456C0EBA175
:10341000FCA1908189A5892B8083EDA1FEA19081DB
:103420008AA5892B8083EBA1FCA1808199A5909529
:1034300089238083AAE2B1E06AE275E06894FF2400
:10344000F3F800E010E85D918E8D882339F05EBDC1
:1034500000000DB407FEFDCF8EB525C02F2D302FF7
:10346000412FE9A1FAA1908188A5809589238083C5
:10347000842F852339F0EF8DF8A190818FA1892BBE
:10348000808307C0EF8DF8A190818FA1809589235B
:103490008083E9A1FAA1908188A5892B8083469534
:1034A00021503109F1F6A617B70769F6EBA1FCA187
:1034B000908189A5892B808338C0E8EBF0E0B0804B
:1034C0008CE080830AE211E00F2EFAE2CF2EF5E0C5
:1034D000DF2EF02D6F89062E000C770B8BED96E01A
:1034E0000E943023E091DB06F091DC060190F08130
:1034F000E02D60E48BED96E00995780180E1E80E1F
:10350000F11CF80161918F018BED96E00E94DD22A4
:10351000E016F106B1F78BED96E00E944523870196
:10352000EC14FD04B9F6B092B800DF91CF911F9171
:103530000F91FF90EF90DF90CF90BF900895CF92C2
:10354000DF92EF92FF920F931F93CF93DF93C82FD9
:1035500088E090E00E9420286C0186E2C89F9001DC
:103560001124C9018A579E4FEC010E947E298F3F8A
:1035700041F448E050E06AEA78E0C6010E94592927
:103580000FC086017601E8E0EE0EF11CCE010E942C
:103590007E29F80181938F012196EE15FF05B1F781
:1035A000C601DF91CF911F910F91FF90EF90DF90B7
:1035B000CF900895CF92DF92EF92FF920F931F93D7
:1035C000CF93DF93C82F8AE090E00E942028C82E76
:1035D000D92E8DE0C89FE0011124CE010E947E29E2
:1035E0008F3F49F44AE050E064EA78E08C2D9D2D4D
:1035F0000E94592910C00C2D1D2D7E01EAE0EE0E0F
:10360000F11CCE010E947E29F80181938F01219641
:10361000CE15DF05B1F78C2D9D2DDF91CF911F9138
:103620000F91FF90EF90DF90CF90089570E0625778
:103630007E4F9B0146E2849F200D311D1124C9015C
:103640000E947E298F3F09F480E008952DE0829F3B
:10365000C00111240A960E947E2908952DE0829FC0
:10366000C00111240B960E947E298F3F09F481E04E
:1036700008952DE0829FC00111240C960E947E299E
:103680008F3F09F484E008951F93CF93DF93EC01FB
:10369000162F0E947E29181721F0612FCE010E945B
:1036A0008629DF91CF911F910895EF92FF920F939A
:1036B0001F93CF93DF9326E2829FC0011124EC0178
:1036C000CA57DE4F8B017B0188E0E80EF11CF80140
:1036D00061918F01CE010E94441B21960E151F059A
:1036E000B1F7DF91CF911F910F91FF90EF90089567
:1036F000262F30E022573E4F642FA90176E2879FA4
:10370000400D511D1124CA010E94441B0895EF92DF
:10371000FF920F931F93CF93DF939DE0899FE0016A
:103720001124062F172F7E01EAE0EE0EF11CF8019E
:1037300061918F01CE010E94441B2196CE15DF05B9
:10374000B1F7DF91CF911F910F91FF90EF90089506
:103750002DE0829FC00111240A960E94441B089507
:103760002DE0829FC00111240B960E94441B0895F6
:103770002DE0829FC00111240C960E94441B0895E5
:103780000E944D2908950E9452210E94C21B0E944E
:103790005806C0E0D0E00E94590C2097E1F30E9447
:1037A0000000F9CFCF92DF92EF92FF920F931F9319
:1037B000CF93DF936C017A018B01C0E0D0E0CE158E
:1037C000DF0589F0D8016D918D01D601ED91FC9155
:1037D0000190F081E02DC6010995892B11F47E013D
:1037E00002C02196ECCFC701DF91CF911F910F91BD
:1037F000FF90EF90DF90CF9008956115710579F0FB
:10380000FB0101900020E9F73197AF01461B570BF0
:10381000DC01ED91FC910280F381E02D099480E0C0
:1038200090E00895EF92FF920F931F93CF93DF9351
:103830008C017B01C0E0D0E0F701EC0FFD1F64912B
:10384000662361F0D801ED91FC910190F081E02DAB
:10385000C8010995892B11F02196EECFCE01DF9199
:10386000CF911F910F91FF90EF9008950C94FD1B45
:10387000DC01ED91FC910190F081E02D099466EE60
:1038800075E00C94FD1B0F931F93CF93DF93EC0116
:103890000E94121C8C01CE010E943F1C800F911FC0
:1038A000DF91CF911F910F9108950F931F93CF93A5
:1038B000DF93EC010E94FD1B8C01CE010E943F1C96
:1038C000800F911FDF91CF911F910F9108954F921B
:1038D0005F926F927F92EF92FF920F931F93CF931D
:1038E000DF93CDB7DEB7A1970FB6F894DEBF0FBE5A
:1038F000CDBF7C01FA01CB0119A2223008F42AE0E5
:103900008E010F5D1F4F422E512C612C712CBF0177
:10391000A30192010E94AB27F901CA0101501109CC
:103920006A3014F4605D01C0695CD8016C93232B8C
:10393000242B252B61F7B801C7010E94FD1BA1961E
:103940000FB6F894DEBF0FBECDBFDF91CF911F91B0
:103950000F91FF90EF907F906F905F904F90089540
:10396000CF92DF92EF92FF920F931F93CF93DF934B
:10397000EC016A017B012115310579F4E881F981B7
:103980000190F081E02D642FDF91CF911F910F9175
:10399000FF90EF90DF90CF9009942A303105E9F441
:1039A00077FF1AC06DE20E94381C8C01442755270E
:1039B000BA014C195D096E097F092AE0CE010E9407
:1039C000671C800F911FDF91CF911F910F91FF9086
:1039D000EF90DF90CF9008952AE0B701A601CE01C5
:1039E000DF91CF911F910F91FF90EF90DF90CF90DB
:1039F0000C94671C9A01AB01770F660B770B0C9444
:103A0000B01C0F931F93CF93DF93EC019A01AB018E
:103A1000770F660B770B0E94B01C8C01CE010E94C1
:103A20003F1C800F911FDF91CF911F910F9108953F
:103A30002115310541F4DC01ED91FC910190F081FB
:103A4000E02D642F09940C94671C9A01462F50E0D6
:103A500060E070E00C94181D9A01AB0160E070E02A
:103A60000C94181D3F924F925F926F927F928F92AB
:103A70009F92AF92BF92CF92DF92EF92FF920F93FD
:103A80001F93CF93DF9300D000D0CDB7DEB79091D6
:103A90002A05981721F09F3F09F036C204C0E0EBD9
:103AA000F8E0349081C080932A05E0EBF8E0E491DF
:103AB000EF3F09F429C2E13031F1E23009F44BC0A3
:103AC000E11171C014BC15BC94B5926094BD95B55C
:103AD000916095BDA82FB0E0FD01E752F74FE4914A
:103AE000F0E0EE0FFF1FE950F74F0591149110938E
:103AF000CC060093CB06FD01EB53F74FE491E09326
:103B0000CA06312C53C0109280001092810090910F
:103B100081009860909381009091810091609093D2
:103B20008100A82FB0E0FD01E752F74FE491F0E0EB
:103B3000EE0FFF1FE950F74F059114911093C50642
:103B40000093C406FD01EB53F74FE491E093C306E5
:103B5000332433942BC01092B0001092B100909196
:103B6000B00092609093B0009091B10091609093FA
:103B7000B100A82FB0E0FD01E752F74FE491F0E06B
:103B8000EE0FFF1FE950F74F059114911093BE06F9
:103B90000093BD06FD01EB53F74FE491E093BC06A3
:103BA00002E0302E03C03E2E37FCAEC129013A019F
:103BB0008B0161E00E94B6214801A12CB12C832D1C
:103BC0008D7F09F0BBC060E079E08DE390E0A50156
:103BD00094010E94CD2729833A834B835C8369013A
:103BE0007A0121E0C21AD108E108F1088FEFC81666
:103BF000D104E104F10409F008F44CC060E271EA78
:103C000087E090E0A50194010E94CD2769017A0127
:103C1000E1E0CE1AD108E108F108F2E03F1220C03D
:103C20002FEFC216D104E104F10409F008F46AC1CF
:103C300068E478EE81E090E0A50194010E94CD2730
:103C400069017A0181E0C81AD108E108F108EFEFB3
:103C5000CE16D104E104F10409F0D0F583E067C089
:103C6000FFEFCF16D104E104F104B1F0A8F064E253
:103C700074EF80E090E0A50194010E94CD276901D6
:103C80007A0181E0C81AD108E108F108332009F46B
:103C9000DFC02FC181E001C082E03320A1F047C026
:103CA00089819A81AB81BC812AE0B595A7959795CA
:103CB00087952A95D1F76C017D0121E0C21AD108C0
:103CC000E108F10885E095B5987F892B85BD6FC027
:103CD00064E274EF80E090E0A50194010E94CD279A
:103CE00069017A01F1E0CF1AD108E108F1082FEF5C
:103CF000C216D104E104F10409F008F4A7C062E19E
:103D00007AE780E090E0A50194010E94CD27690147
:103D10007A01E1E0CE1AD108E108F108FFEFCF16F1
:103D2000D104E104F10411F008F0B4C085E09091F1
:103D3000B100987F892B8093B10039C060E079E0B1
:103D40008DE390E0A50194010E94CD2769017A01DD
:103D500081E0C81AD108E108F108C114D104E1E0FA
:103D6000EE06F10488F064E274EF80E090E0A501D3
:103D700094010E94CD2769017A01F1E0CF1AD108A0
:103D8000E108F10893E001C091E021E032120FC098
:103D900080918100887F892B809381004114510498
:103DA0006104710449F42FEF3FEFA9012DC04114C4
:103DB00051046104710471F0D801AA0FBB1FA30163
:103DC00092010E94F22728EE33E040E050E00E948A
:103DD000AB2703C02FEF3FEFA90181E03816A1F018
:103DE000E2E03E1619F131108FC0C7BC2093CD061A
:103DF0003093CE064093CF065093D00680916E004C
:103E0000826080936E0080C0D0928900C09288004A
:103E10002093C6063093C7064093C8065093C90640
:103E200080916F00826080936F006EC0C092B3007B
:103E30002093BF063093C0064093C1065093C2063C
:103E4000809170008260809370005EC084E06FCFCC
:103E5000FFEFCF16D104E104F104D1F0C8F069E01E
:103E60007DE380E090E0A50194010E94CD276901E7
:103E70007A0181E0C81AD108E108F108EFEFCE1607
:103E8000D104E104F10411F008F00ACF84E01BCF63
:103E900083E019CF69E07DE380E090E0A501940123
:103EA0000E94CD2769017A0181E0C81AD108E10892
:103EB000F108EFEFCE16D104E104F104C1F0B8F03F
:103EC00089819A81AB81BC814AE0B595A795979588
:103ED00087954A95D1F76C017D0121E0C21AD1087E
:103EE000E108F108332009F4EDCE87E020CF86E029
:103EF000D4CEFFEFCF16D104E104F10409F050F65F
:103F000084E0CBCE82E013CF0F900F900F900F90F4
:103F1000DF91CF911F910F91FF90EF90DF90CF90A5
:103F2000BF90AF909F908F907F906F905F904F90D9
:103F30003F900895813039F018F0823051F00895A3
:103F400010926E00089580916F008D7F80936F00B6
:103F50000895809170008D7F8093700081E0809340
:103F6000B0008091B100887F84608093B10010928E
:103F7000B3000895CF93C82F80912A058C1307C0F2
:103F8000E0EBF8E0E4918FEF80932A0501C0EFEFBA
:103F90008E2F0E949A1F60E08C2FCF910C94F221FB
:103FA0001F920F920FB60F9211242F933F934F93AE
:103FB0005F936F937F938F939F93AF93BF93EF9391
:103FC000FF938091BF069091C006A091C106B09169
:103FD000C206892B8A2B8B2B51F18091BC06E09174
:103FE000BD06F091BE069081892780838091BF062F
:103FF0009091C006A091C106B091C206181619068C
:104000001A061B06C4F48091BF069091C006A091C9
:10401000C106B091C2060197A109B1098093BF06FC
:104020009093C006A093C106B093C20604C08091CD
:104030002A050E94BA1FFF91EF91BF91AF919F9106
:104040008F917F916F915F914F913F912F910F9041
:104050000FBE0F901F90189508958230E8F4E82F56
:10406000F0E0EE0FFF1FE55DFA4F71836083813052
:1040700041F0809169008C7F482B40936900E89A59
:10408000089580916900440F551F440F551F837F89
:10409000482B40936900E99A08951F920F920FB63A
:1040A0000F9211242F933F934F935F936F937F93BE
:1040B0008F939F93AF93BF93EF93FF93E0912B0563
:1040C000F0912C050995FF91EF91BF91AF919F91D0
:1040D0008F917F916F915F914F913F912F910F90B1
:1040E0000FBE0F901F9018951F920F920FB60F9250
:1040F00011242F933F934F935F936F937F938F93ED
:104100009F93AF93BF93EF93FF93E0912D05F091B1
:104110002E050995FF91EF91BF91AF919F918F91DE
:104120007F916F915F914F913F912F910F900FBEB3
:104130000F901F9018951F920F920FB60F92112497
:104140002F933F938F939F93AF93BF938091D2060A
:104150009091D306A091D406B091D5063091D106A6
:1041600026E0230F2D3720F40296A11DB11D05C0B6
:1041700029E8230F0396A11DB11D2093D10680933A
:10418000D2069093D306A093D406B093D50680911F
:10419000D6069091D706A091D806B091D90601967F
:1041A000A11DB11D8093D6069093D706A093D80683
:1041B000B093D906BF91AF919F918F913F912F916D
:1041C0000F900FBE0F901F9018952FB7F894609125
:1041D000D2067091D3068091D4069091D5062FBF58
:1041E00008953FB7F8948091D6069091D706A09194
:1041F000D806B091D90626B5A89B05C02F3F19F067
:104200000196A11DB11D3FBFBA2FA92F982F882756
:10421000820F911DA11DB11DBC01CD0143E0660FB0
:10422000771F881F991F4A95D1F708958F929F9203
:10423000AF92BF92CF92DF92EF92FF926B017C011F
:104240000E94F1204B015C01C114D104E104F1048E
:1042500001F10E9496270E94F120DC01CB01881910
:104260009909AA09BB09883E9340A105B10560F3ED
:1042700021E0C21AD108E108F10888EE880E83E037
:10428000981EA11CB11CC114D104E104F10419F75A
:10429000DBCFFF90EF90DF90CF90BF90AF909F90DB
:1042A0008F900895789484B5826084BD84B58160D0
:1042B00084BD85B5826085BD85B5816085BDEEE62E
:1042C000F0E0808181608083E1E8F0E0108280810D
:1042D00082608083808181608083E0E8F0E080817B
:1042E00081608083E1EBF0E0808184608083E0EB9B
:1042F000F0E0808181608083EAE7F0E08081846083
:10430000808380818260808380818E7F80838081B2
:10431000806880831092C1000895833081F028F472
:10432000813099F08230A1F008958730A9F088306B
:10433000B9F08430D1F4809180008F7D03C08091EA
:1043400080008F7780938000089584B58F7702C0B6
:1043500084B58F7D84BD08958091B0008F7703C0B0
:104360008091B0008F7D8093B0000895CF93DF934C
:1043700090E0FC01EB53F74F2491FC01E752F74F1B
:104380008491882361F190E0880F991FFC01EF5F11
:10439000F64FC591D491FC01E950F74FA591B49126
:1043A000611109C09FB7F894888120958223888382
:1043B000EC912E230BC0623061F49FB7F8943881E2
:1043C000822F809583238883EC912E2B2C939FBF83
:1043D00006C08FB7F894E8812E2B28838FBFDF911A
:1043E000CF9108951F93CF93DF93282F30E0F901E9
:1043F000EF54F74F8491F901EB53F74FD491F90142
:10440000E752F74FC491CC23C9F0162F81110E94B7
:104410008D21EC2FF0E0EE0FFF1FE950F74FA59133
:10442000B4918FB7F894111105C09C91ED2FE095D0
:10443000E92302C0EC91ED2BEC938FBFDF91CF917C
:104440001F910895CF93DF93282F30E0F901EF54A7
:10445000F74F8491F901EB53F74FD491F901E752EB
:10446000F74FC491CC2391F081110E948D21EC2F44
:10447000F0E0EE0FFF1FE351F74FA591B491EC91DF
:10448000ED2381E090E021F480E002C080E090E044
:10449000DF91CF910895CF93CFB7F8948091DA064A
:1044A000811127C0E3EEF8E08491EFECF8E09491FD
:1044B000E82FF0E0EE0FFF1FEF5FF64FA591B491EC
:1044C000EC91E92321F461E08AE00E94F22161E0AD
:1044D0008AE00E94B6218CB580618CBD8CB5806469
:1044E0008CBD61E08DE00E94B62161E08BE00E940E
:1044F000B6218091DA068F5F8093DA06CFBFCF9125
:10450000089580910B0790E020910C07821B910980
:10451000089590910C0780910B07981750F4E92F9C
:10452000F0E0E35FF84F208130E09F5F90930C074D
:1045300002C02FEF3FEFC9010895E0910C07809171
:104540000B07E81730F4F0E0E35FF84F808190E06C
:1045500008958FEF9FEF08950895CF92DF92EF9225
:10456000FF920F931F93CF93DF937C01262F972FFA
:104570008A018091E706882391F0C62FD72F6E011C
:10458000C40ED51ECC15DD0571F06991D701ED91F2
:10459000FC910190F081E02DC7010995F3CF642FC4
:1045A000822F0E94C023C801DF91CF911F910F91EC
:1045B000FF90EF90DF90CF900895CF93DF931F92FD
:1045C000CDB7DEB769832091E7062223D1F0209191
:1045D000E806203240F021E030E0FC013383228302
:1045E00080E090E015C08091E906E82FF0E0E65108
:1045F000F94F998190838F5F8093E9068093E80655
:1046000005C061E0CE0101960E94C02381E090E0E8
:104610000F90DF91CF910895FC011382128288EEF2
:1046200093E0A0E0B0E084839583A683B78389EF0D
:1046300095E091838083089510920C0710920B07E8
:104640001092E9061092E8060C944C2381E08093C6
:10465000E70660930A071092E9061092E8060895AB
:104660000C9426230F93062F21E04091E8066AEE72
:1046700076E080910A070E946A231092E906109260
:10468000E8061092E7060F91089561E00C9432233A
:104690008BED96E00C940C2310929A0781E08093A6
:1046A00098071092970761E082E10E94F22161E091
:1046B00083E10E94F221E9EBF0E080818E7F80832C
:1046C00080818D7F808380E28093B80085E4809331
:1046D000BC0008950F93413208F04AC090919A07A8
:1046E0009111FCCF32E030939A07009398073FEF87
:1046F00030932D071092720740937107FB0163E717
:1047000077E0DB013A2F361B341718F431913D93D3
:10471000F9CF1092990730919907880F832B8093D6
:10472000990780919707813061F4109297078091E3
:1047300099078093BB008091BC0083FDF8CF85EC86
:1047400001C085EE8093BC00222321F080919A075E
:104750008230D1F380912D078F3F79F080912D0722
:10476000803241F080912D07803331F094E005C014
:1047700091E003C092E001C093E0892F0F9108956A
:1047800040914F07262F30E0240F311D2132310593
:10479000DCF420919A072430C9F4FC0180E090E019
:1047A000861758F430914F072191DC01AF5AB84F6A
:1047B000A30FB11D2C930196F3CF80914F07680F83
:1047C00060934F0780E0089581E0089582E00895A6
:1047D00085ED8093BC008091BC0084FDFCCF1092DD
:1047E0009A07089585EC8093BC0010929A0708956B
:1047F0001F920F920FB60F9211242F933F934F9356
:104800005F936F937F938F939F93AF93BF93EF9338
:10481000FF938091B900887F803609F49EC078F5B7
:10482000883209F45DC090F4803109F456C038F440
:10483000882309F4F5C0883009F44FC0F5C08831E9
:1048400009F44EC0803209F45FC0EEC0803409F430
:104850006AC058F4803309F457C0883309F0E4C0C3
:1048600080932D070E94F223DFC0803509F44FC0EA
:10487000883509F45DC0883409F0D6C0D3C08839C2
:1048800009F4C4C0A8F4883709F467C038F488363E
:1048900009F463C0803709F460C0C6C0883809F4E1
:1048A000B5C0803909F45FC0803809F0BDC05BC075
:1048B000803B09F483C038F4803A09F466C0883A32
:1048C00009F47CC0B1C0803C09F4A4C0883C09F460
:1048D000A1C0883B09F487C0A7C08091990710C088
:1048E0009091720780917107981770F5E0917207A7
:1048F00081E08E0F80937207F0E0ED58F84F8081D1
:104900008093BB0085EC83C080932D078BC0E09122
:10491000720781E08E0F809372078091BB00F0E0F8
:10492000ED58F84F808390917207809171076BC0AA
:10493000E091720781E08E0F809372078091BB0037
:10494000F0E0ED58F84F80838091980781116AC09C
:1049500081E08093970784EA5EC083E080939A07A2
:1049600010922E07CFCF80912E07803208F04EC0D4
:10497000E0912E0781E08E0F80932E078091BB007F
:10498000F0E0E15DF84F8083BDCF0E94F22380917B
:104990002E07803230F4E0912E07F0E0E15DF84F11
:1049A000108260912E0770E0E0919307F0919407D8
:1049B0008FE297E0099510922E0736C084E080932D
:1049C0009A071092500710924F07E0919507F091C7
:1049D0009607099580914F07811105C081E080936A
:1049E0004F0710925107E091500781E08E0F80939E
:1049F0005007F0E0EF5AF84F80818093BB00909110
:104A0000500780914F07981708F47CCF85E8809372
:104A1000BC000AC085EC8093BC0010929A0704C0C9
:104A200010922D070E94E823FF91EF91BF91AF9163
:104A30009F918F917F916F915F914F913F912F91B6
:104A40000F900FBE0F901F9018952091DD073091A9
:104A5000DE0728173907B9F490919B0780919C07CE
:104A6000981789F0E0919B07F0E0E356F84F8081BA
:104A700020919B0730E02F5F3F4F2F733327209308
:104A80009B0790E008958FEF9FEF08951F93CF93BA
:104A9000DF93DC015C962D913C915D9721153105EA
:104AA00039F481E090E013969C938E9312973DC069
:104AB0005196ED91FC91529750969C915097892F69
:104AC00080951FB75E964C915E9741FB772770F9F2
:104AD00041FD6095F8944081772311F0492B01C086
:104AE00048234083E9012197F1F748E0508160FFB6
:104AF00002C0592B01C058235083E9012197F1F7D7
:104B00006695415099F7772321F09081892380831E
:104B100003C08081982B90831FBF5C968D919C91E0
:104B20005D970197F1F721E030E0C901DF91CF9166
:104B30001F91089508952091DD073091DE07281711
:104B4000390771F490919B0780919C07981741F069
:104B5000E0919B07F0E0E356F84F808190E00895E4
:104B60008FEF9FEF08952091DD073091DE07281722
:104B7000390771F480919C0720919B0790E0805C3D
:104B80009F4F821B910960E470E00E94972708956F
:104B900080E090E00895E091DD07F091DE07E817EE
:104BA000F90769F4A389B4899C9185898095892343
:104BB0008C931092DE071092DD0781E0089580E06B
:104BC0000895CF93DF93EC018A8D9B8D892BF1F0B3
:104BD0008091DD079091DE078C179D07B9F0009753
:104BE00011F00E94CB258E8D8E7F8E8F10929C07A8
:104BF00010929B07D093DE07C093DD07EB89FC89F9
:104C000090818D89892B808381E001C080E0DF91D4
:104C1000CF9108951F920F920FB60F9211242F93E8
:104C20003F934F935F936F937F938F939F93AF9334
:104C3000BF93EF93FF93E091DD07F091DE0730978C
:104C400009F451C0968DA685B785858591FF04C06E
:104C50009C91892329F447C09C91892309F043C082
:104C6000A389B4899C918589809589238C938689B1
:104C700097890197F1F7608D718DA685B785558568
:104C800038E020E0CB010197F1F7822F90E0959575
:104C90008795282F4C91452309F02068315091F7D2
:104CA000868D81FD209580919C0790E001968F7301
:104CB000992730919B07381749F0A0919C07B0E0E5
:104CC000A356B84F2C9380939C0703C0868D8160B8
:104CD000868F828D938D0197F1F7A389B4899C917A
:104CE0008589892B8C93FF91EF91BF91AF919F9113
:104CF0008F917F916F915F914F913F912F910F9085
:104D00000FBE0F901F9018952BE036E0FC01318309
:104D100020830C94CB251F93CF93DF93EC01162FA8
:104D20006E8D6695617081E06827812F0E94F22167
:104D300061E0812F0E94B621612F70E0FB01EB53EF
:104D4000F74FE491E88BFB01E752F74FE491F0E075
:104D5000EE0FFF1FE950F74F859194919A8B898B45
:104D6000DF91CF911F9108951F93CF93DF93EC01B3
:104D7000162F60E0812F0E94B6218E8D81FD04C028
:104D800061E0812F0E94F2211C87612F70E0FB01FE
:104D9000EB53F74FE491ED87FB01E752F74FE491B6
:104DA000F0E0EE0FFF1FE351F74F859194919F873D
:104DB0008E87DF91CF911F9108951F93CF93DF933B
:104DC000EC01162F1B821A8288EE93E0A0E0B0E07F
:104DD0008C839D83AE83BF838BE096E09983888329
:104DE0001F8A1E8A198E188E1B8E1A8E1D8E1C8E7F
:104DF0008E8D8E7F20FB81F98E8F642FCE010E94D5
:104E00008B26612FCE01DF91CF911F910C94B42698
:104E1000CF93DF93EC019A01AB011B8E1A8E198E92
:104E2000188E1F8A1E8A60E874E88EE190E00E9466
:104E3000CD27F9012430310518F0C901039702C0CC
:104E400081E090E09D8F8C8F6C85663108F069C0A1
:104E5000C901969587958431910510F0439702C05A
:104E600081E090E09F8B8E8B369718F0C9010597F3
:104E700002C081E090E0998F888FC901880F991F47
:104E8000280F391F36952795369527952D303105F2
:104E900018F02C50310902C021E030E03B8F2A8FFE
:104EA00090916800683050F021E06E3008F420E006
:104EB00081E001C0880F2A95EAF701C084E0892BC0
:104EC000809368008C85883038F08E3040F08631D1
:104ED00048F020E030E008C02DE630E005C02BE6C9
:104EE00030E002C02CE630E03C8B2B8B883030F475
:104EF00091E001C0990F8A95EAF70EC0282F30E0A3
:104F00008E3018F42850310902C02E50310991E03A
:104F100001C0990F2A95EAF79D8B8C8D9D8D019785
:104F2000F1F7CE01DF91CF910C94E125089597FB25
:104F3000072E16F4009407D077FD09D00E94FD27B4
:104F400007FC05D03EF4909581959F4F089570958C
:104F500061957F4F0895A1E21A2EAA1BBB1BFD018C
:104F60000DC0AA1FBB1FEE1FFF1FA217B307E40748
:104F7000F50720F0A21BB30BE40BF50B661F771FA0
:104F8000881F991F1A9469F7609570958095909580
:104F90009B01AC01BD01CF010895052E97FB1EF4C6
:104FA00000940E94E42757FD07D00E94AB2707FC1E
:104FB00003D04EF40C94E4275095409530952195FC
:104FC0003F4F4F4F5F4F0895909580957095619535
:104FD0007F4F8F4F9F4F0895EE0FFF1F0590F49165
:104FE000E02D09940E941128A59F900DB49F900D6B
:104FF000A49F800D911D11240895AA1BBB1B51E194
:1050000007C0AA1FBB1FA617B70710F0A61BB70B38
:10501000881F991F5A95A9F780959095BC01CD01DD
:105020000895A29FB001B39FC001A39F700D811D81
:105030001124911DB29F700D811D1124911D0895A1
:10504000CF93DF938230910510F482E090E0E091FD
:10505000E107F091E20720E030E0C0E0D0E03097D7
:1050600011F14081518148175907C0F0481759077D
:1050700061F482819381209719F09B838A832BC0EE
:105080009093E2078093E10726C02115310519F0BE
:105090004217530718F49A01BE01DF01EF010280A5
:1050A000F381E02DDCCF2115310509F1281B390BE7
:1050B0002430310590F412968D919C9113976115CF
:1050C000710521F0FB019383828304C09093E20772
:1050D0008093E107FD01329644C0FD01E20FF31F0A
:1050E00081939193225031092D933C933AC02091A2
:1050F000DF073091E007232B41F42091020130912A
:1051000003013093E0072093DF07209100013091E5
:1051100001012115310541F42DB73EB7409104013D
:1051200050910501241B350BE091DF07F091E0075A
:10513000E217F307A0F42E1B3F0B2817390778F06E
:10514000AC014E5F5F4F2417350748F04E0F5F1FCD
:105150005093E0074093DF078193919302C0E0E012
:10516000F0E0CF01DF91CF9108950F931F93CF937C
:10517000DF93009709F48CC0FC01329713821282EE
:105180000091E1071091E2070115110581F42081DA
:105190003181820F931F2091DF073091E00728179C
:1051A000390779F5F093E007E093DF0771C0D80184
:1051B00040E050E0AE17BF0750F412962D913C919D
:1051C0001397AD012115310509F1D901F3CF9D01E7
:1051D000DA013383228360817181860F971F8217E2
:1051E000930769F4EC0128813981260F371F2E5F60
:1051F0003F4F318320838A819B8193838283452B18
:1052000029F4F093E207E093E10742C01396FC9380
:10521000EE931297ED01499159919E01240F351F8C
:10522000E217F30771F480819181840F951F029634
:1052300011969C938E938281938113969C938E9367
:105240001297E0E0F0E0D80112968D919C911397AF
:10525000009719F0F8018C01F6CF8D919C9198017F
:105260002E5F3F4F820F931F2091DF073091E007A1
:105270002817390769F4309729F41092E207109241
:10528000E10702C0138212821093E0070093DF0748
:10529000DF91CF911F910F91089581E090E0F894F4
:1052A0000C949429FB01DC0105900D920020E1F79C
:1052B0000895FB01DC014150504048F005900D92EB
:1052C0000020C9F701C01D9241505040E0F70895F9
:1052D000FB01DC0101900D920020E1F70895FB0134
:1052E000DC014150504048F001900D920020C9F778
:1052F00001C01D9241505040E0F70895F999FECF4A
:1053000092BD81BDF89A992780B50895262FF99905
:10531000FECF1FBA92BD81BD20BD0FB6F894FA9A98
:10532000F99A0FBE0196089514E0C8E8D4E004C0CD
:10533000FE010E94EC272196C938D107C9F7F894DD
:02534000FFCF9D
:105342000000E307800080841E003C00020001018F
:1053520000040001000A00640001000103070F1F9E
:105362003F7F0080C0E0F0F8FCFE0000000000007B
:10537200000000000000000000000000000000002B
:10538200000000000000000000000000000000001B
:10539200000000000000000000000000000000000B
:1053A200000000000000000000808080000000007B
:1053B20000000000000000000000008080C0C0006B
:1053C20000000000000000000000000000000000DB
:1053D20000000000000000000000000000000000CB
:1053E20000000000000000000000000000000000BB
:1053F200000000000000000000000000000080C06B
:10540200E0F0F8FCF8E000000000000000000000FE
:10541200000000000000008080808080008080000A
:10542200000000808080808000FFFFFF00000000FD
:105432008080808000008080000080FFFF808000EC
:1054420080800080808080008080000000000080DA
:105452008000008C8E84000080F8F8F88000000044
:1054620000000000000000000000F0F0F0F0F0F09A
:10547200F0F0F0F0F0F0E0E0C08000E0FCFEFFFFB2
:10548200FF7FFFFFFFFFFF000000000000000000A1
:105492000000000000FEFFC70101010183FFFF00C1
:1054A200007CFEC70101010183FFFFFF0038FEC738
:1054B2008301010183C7FFFF000001FFFF0101001B
:1054C200FFFF0701010100007FFF80000000FFFFD6
:1054D2007F0000FFFFFF000001FFFFFF010000004F
:1054E20000000000000000000000030F3F7F7FFF6C
:1054F200FFFFFFFFFFFFE7C7C78F8F9FBFFFFFC3FE
:10550200C0F0FFFFFFFFFFFCFCFCFCFCFCFCFCF816
:10551200F8F0F0E0C00001030303030301030300FA
:105522000000000103030303010103010000000165
:10553200030303030101030300000003030000004F
:105542000303000000000000000103030303030142
:10555200000000010301000000030301000000003D
:105562000000000000000000000000000080C0E019
:10557200F0F9FFFFFFFFFF3F1F0F87C7F7FFFF1F76
:105582001F3DFCF8F8F8F87C7DFFFFFFFFFFFFFFEF
:10559200FF7F3F0F070030300000000000000000D6
:1055A2000000000000000000000000000000FEFEFD
:1055B200FC000000000000000000000000000000ED
:1055C20000000000000000E0C00000000000000039
:1055D2000000000030300000000000000000000069
:1055E2000000000000000000000000C0FEFFFFFFFE
:1055F200FFFFFFFFFFFF7F7F3F1F0F071F7FFFFFA1
:10560200F8F8FFFFFFFFFFFEF8E0000000010000D6
:10561200000000000000FEFE000000FCFEFC0C0684
:10562200060EFCF80000F0F81C0E0606060CFFFF42
:10563200FF0000FEFE00000000FCFEFC00183C7EA5
:1056420066E6CE84000006FFFF0606FCFEFC0C06A2
:1056520006060000FEFE0000C0F8FC4E4646464E1E
:105662007C7840183C76E6CECC800000000000003A
:105672000000000000000000000000000000010720
:105682000F1F1F3F3F3F3F1F0F030000000000009E
:105692000000000000000F0F0000000F0F0F0000BD
:1056A20000000F0F000003070E0C18180C060F0F56
:1056B2000F0000010F0E0C180C0F070100040E0C56
:1056C200180C0F070000000F0F00000F0F0F000053
:1056D200000000000F0F00000007070C0C181C0C44
:1056E200060600040E0C180C0F0700000000000054
:1056F20000000000000000000000000000000000A8
:105702000000000000000000000000000000000097
:105712000000000000000000000000000000000087
:105722000000000000000000000000000000000077
:105732000000000000000000000000000000000067
:105742000000000000000000000000000000000057
:105752000000000000000000000000000000000047
:1057620000000000000000000000FF2C202C202E72
:10577200000A0A002F002020202020200053544F2E
:10578200500004007E0303003F03030100000201F6
:105792001E03000300000401D9021E0500001E05BD
:1057A20000001D0500001E0500001E050000020588
:1057B200CF020201CF020200AB021E0D0000040E56
:1057C2006602000F0000FF0F0000030F5902060FD0
:1057D20000001E0D0000020DCF020300350202166A
:1057E2001C020216CF020216CF02000000000000C7
:1057F20000001714D21B54115711C01B58116C1200
:1058020083121D129912D112EF1200000000171418
:10581200D21B5411571158175811F81598141D120C
:105822009912D112EF120D0A006E616E00696E6656
:10583200006F76660000000000DD22AD225411AC3C
:1058420022812289229D22000000004625D21B547B
:0A585200119A25B32525259B25009A
:00000001FF
