:100000000C944C030C940A190C9437190C94740337
:100010000C9474030C9474030C9474030C94751670
:100020000C9474030C9474030C9474030C94740374
:100030000C9474030C9474030C9474030C94740364
:100040000C9464190C9474030C9474030C9474034E
:100050000C9474030C9474030C9474030C94740344
:100060000C944B1E0C94740300000000003FF00041
:10007000007FF80300E01C0700E01C0E00C30C7CAE
:1000800000C30C9801C00E8401830644018006F46D
:10009000038307C0038003800303070003000F806E
:1000A00007031F8006031D80060339800E0371C0FD
:1000B0000E03E0C00C0FC0C01C1030E01C2010600C
:1000C0001840086018400860387FF8703C0000F065
:1000D0003FFFFFF07FFFFFF87FFFFFF87FFFFFF894
:1000E0007FFFFFF87FFFFFF87FFFFFF85354415277
:1000F0005400456C696D696E61722043616E63697D
:100100006F6E00496E7365727461722043616E6335
:10011000696F6E0043616D626961722043616E6355
:10012000696F6E0043616D6269617220526570652E
:1001300072746F72696F0053544152540000000092
:1001400000003E5B4F5B3E3E6B4F6B3E1C3E7C3E79
:100150001C183C7E3C181C577D571C1C5E7F5E1C87
:1001600000183C1800FFE7C3E7FF0018241800FF41
:10017000E7DBE7FF30483A060E2629792926407F3B
:10018000050507407F05253F5A3CE73C5A7F3E1C4A
:100190001C08081C1C3E7F14227F22145F5F005F36
:1001A0005F06097F017F006689956A606060606014
:1001B00094A2FFA29408047E040810207E20100858
:1001C000082A1C08081C2A08081E101010100C1EF3
:1001D0000C1E0C30383E3830060E3E0E0600000075
:1001E000000000005F00000007000700147F147F7C
:1001F00014242A7F2A122313086462364956205099
:100200000008070300001C2241000041221C002AB4
:100210001C7F1C2A08083E0808008070300008086F
:10022000080808000060600020100804023E5149E0
:10023000453E00427F400072494949462141494DAF
:10024000331814127F1027454545393C4A49493136
:1002500041211109073649494936464949291E00B5
:10026000001400000040340000000814224114145F
:10027000141414004122140802015909063E415D7C
:10028000594E7C1211127C7F494949363E41414109
:10029000227F4141413E7F494949417F0909090186
:1002A0003E414151737F0808087F00417F41002093
:1002B00040413F017F081422417F404040407F027F
:1002C0001C027F7F0408107F3E4141413E7F0909A7
:1002D00009063E4151215E7F0919294626494949AF
:1002E0003203017F01033F4040403F1F2040201F59
:1002F0003F4038403F6314081463030478040361EB
:1003000059494D43007F41414102040810200041FA
:1003100041417F0402010204404040404000030785
:10032000080020545478407F2844443838444444DA
:1003300028384444287F385454541800087E090251
:1003400018A4A49C787F0804047800447D40002011
:1003500040403D007F1028440000417F40007C0465
:100360007804787C080404783844444438FC182421
:10037000241818242418FC7C0804040848545454F5
:100380002404043F44243C4040207C1C2040201C8A
:100390003C4030403C44281028444C9090907C4491
:1003A00064544C44000836410000007700000041CE
:1003B00036080002010204023C2623263C1EA1A1AD
:1003C00061123A4040207A38545455592155557994
:1003D0004122545478422155547840205455794054
:1003E0000C1E5272123955555559395454545939B5
:1003F000555454580000457C410002457D4200019F
:10040000457C407D1211127DF0282528F07C545542
:1004100045002054547C547C0A097F49324949499B
:10042000323A4444443A324A4848303A4141217AC7
:100430003A42402078009DA0A07D3D4242423D3D91
:100440004040403D3C24FF2424487E4943662B2FF6
:10045000FC2F2BFF0929F620C0887E090320545465
:1004600079410000447D413048484A3238404022BA
:100470007A007A0A0A727D0D19317D2629292F28E2
:10048000262929292630484D402038080808080820
:10049000080808382F10C8ACBA2F102834FA00000A
:1004A0007B000008142A142222142A1408AA0055DA
:1004B00000AAAA55AA55AA000000FF00101010FFBC
:1004C00000141414FF001010FF00FF1010F010F0C3
:1004D000141414FC001414F700FF0000FF00FF14B4
:1004E00014F404FC141417101F10101F101F141400
:1004F000141F00101010F0000000001F101010104A
:100500001F10101010F010000000FF10101010103D
:1005100010101010FF10000000FF140000FF00FF7B
:1005200000001F10170000FC04F414141710171417
:1005300014F404F40000FF00F71414141414141439
:10054000F700F7141414171410101F101F141414AC
:10055000F4141010F010F000001F101F0000001F16
:1005600014000000FC140000F010F01010FF10FF49
:10057000141414FF141010101F00000000F010FFDE
:10058000FFFFFFFFF0F0F0F0F0FFFFFF00000000C2
:1005900000FFFF0F0F0F0F0F3844443844FC4A4A46
:1005A0004A347E02020606027E027E0263554941FB
:1005B000633844443C04407E201E2006027E020232
:1005C00099A5E7A5991C2A492A1C4C7201724C3046
:1005D0004A4D4D303048784830BC625A463D3E491D
:1005E0004949007E0101017E2A2A2A2A2A44445FC1
:1005F000444440514A444040444A51400000FF01B5
:1006000003E080FF000008086B6B083612362436C2
:10061000060F090F06000018180000001010003027
:1006200040FF0101001F01011E00191D1712003CAF
:100630003C3C3C00000000000200000000240027B9
:10064000002A0000000000250028002B0000000008
:100650000023002600290004040404040404040206
:10066000020202020203030303030301020408104F
:10067000204080010204081020010204081020001C
:100680000000070002010000030406000000000053
:1006900000000000D703411D11241FBECFEFD8E09A
:1006A000DEBFCDBF15E0A0E0B1E0E0E5F1E402C0BF
:1006B00005900D92AA38B107D9F716E0AAE8B5E07F
:1006C00001C01D92A03EB107E1F716E0C8E9D6E0EF
:1006D00004C02297FE010E946B20C439D107C9F7DC
:1006E0000E94A3140C94A6200C940000A0E0B0E09B
:1006F000ECE7F3E00C947720EC01A880B980CA8085
:10070000DB80A114B104C104D10441F484E2A82E19
:1007100089EDB82E8BE5C82E87E0D82EC601B5012D
:100720002DE133EF41E050E00E944E2027EA31E412
:1007300040E050E00E940D207B018C01C601B50114
:100740002DE133EF41E050E00E944E20CA01B90193
:100750002CEE34EF4FEF5FEF0E940D206E0D7F1DEA
:10076000801F911F97FF04C06150704080409048E7
:10077000688379838A839B839B01AC015F77B9018E
:10078000CA01CDB7DEB7EAE00C9493200E9476034D
:1007900008958CE191E00E947603089560931C0116
:1007A00070931D0180931E0190931F0108958AE8A4
:1007B00095E064E00E94BC130895AF92BF92CF927F
:1007C000DF92EF92FF920F931F93CF93DF93082F47
:1007D00088E090E00E94AA1BB82EA92E26E2029F74
:1007E000800111240A571E4FEC010F2EFBEDCF2E76
:1007F000F6E0DF2EF02DEE24FF246894E3F8E80EF7
:10080000F91EC601B8010E94FA1F89930F5F1F4F9E
:10081000CE15DF05B1F78B2D9A2DDF91CF911F916A
:100820000F91FF90EF90DF90CF90BF90AF90089521
:10083000AF92BF92CF92DF92EF92FF920F931F93EE
:10084000CF93DF938091F40526E2829FC0011124AB
:100850000F2EF6E8AF2EF1E0BF2EF02DA80EB91E38
:1008600000EE15E0E5010F2EFBEDCF2EF6E0DF2EBA
:10087000F02D0F2EF8EEEF2EF5E0FF2EF02DC60135
:10088000BE010E94FA1FF80181938F012196EE1597
:10089000FF05A9F76091F30570E0685F7F4F6A0D6F
:1008A0007B1D8BED96E00E94FA1F9DE0899F500111
:1008B000112403ED15E0E5010F2EFBEDCF2EF6E040
:1008C000DF2EF02D0F2EFDEDEF2EF5E0FF2EF02D9B
:1008D000C601BE010E94FA1FF80181938F01219683
:1008E000EE15FF05A9F7B501665F7F4F0F2EFBEDF3
:1008F000EF2EF6E0FF2EF02DC7010E94FA1F0F2EFB
:10090000FDEDCF2EF5E0DF2EF02DF60181938F0166
:10091000B501655F7F4FC7010E94FA1FF801808310
:10092000B501645F7F4FC7010E94FA1FF601828301
:10093000DF91CF911F910F91FF90EF90DF90CF90BB
:10094000BF90AF900895EF92FF920F931F93CF93B4
:10095000DF9380E00E945A1A0E94A21B09E010E077
:100960008BED96E0E82EF92E56C061E670E080E04F
:1009700090E028E730E040E050E00E94841B462FE2
:100980008E2D9F2DBE010E9401202196C017D107F8
:1009900061F78E2D9F2DB80140E00E9401206AE092
:1009A00070E080E090E02AEF30E040E050E00E940C
:1009B000841B462FB8016F5F7F4F8E2D9F2D0E94A5
:1009C000012061E070E080E090E024E030E040E071
:1009D00050E00E94841B462FB8016E5F7F4F8E2D22
:1009E0009F2D0E94012062E070E080E090E028E00E
:1009F00030E040E050E00E94841B462FB8016D5F5C
:100A00007F4F8E2D9F2D0E940120035F1F4F81E09D
:100A10000F38180719F0E8012997A7CFDF91CF9178
:100A20001F910F91FF90EF900895CF92DF92EF9278
:100A3000FF920F931F93CF93DF9380E00E945A1A87
:100A40000E94A21B0F2EFDE8CF2EF1E0DF2EF02D2D
:100A50008BED96E0E82EF92E3CC061E470E080E07A
:100A600090E02AE530E040E050E00E94841B462FF1
:100A70008E2D9F2DBE010E9401202196CC15DD05F3
:100A800061F78E2D9F2DB60140E00E940120E60106
:100A900021968601015E1F4F60E070E080E090E0EB
:100AA0002DE130E040E050E00E94841B462F8E2D67
:100AB0009F2DBE010E94012021960C171D0761F792
:100AC00086E290E0C80ED91E9FEFC91691E0D906C4
:100AD00019F0E6012797C1CFDF91CF911F910F91B8
:100AE000FF90EF90DF90CF9008951F93CF93DF9307
:100AF000EB01182F0E940F1B892B09F06EC0FE011D
:100B0000EE0FFF1FCE01880F991F880F991F880FC6
:100B1000991FE80FF91FEB54FA4F178216821382C0
:100B20008081882311F040E019C040E0FE01EE0F03
:100B3000FF1FCE01880F991F880F991F880F991FDB
:100B4000E80FF91FE754FA4F2081318180912D0180
:100B500090912E012817390708F041E0CE01880F47
:100B6000991F880F991F8C0F9D1F0196A5EBB5E06B
:100B7000880F991FFD01E80FF91F4083CE01880FF0
:100B8000991F9E01220F331F220F331F220F331F85
:100B9000820F931FA80FB91F14962D913C911597A2
:100BA00080912D0190912E012817390720F0FD0129
:100BB00081E0808312C0FE01EE0FFF1FCE01880F7F
:100BC000991F880F991F880F991FE80FF91FE75485
:100BD000FA4FC901019691838083812F0E940F1BD8
:100BE000019709F07BC0A5EBB5E0CE01880F991FF6
:100BF0009E01220F331F220F331F220F331F820F3C
:100C0000931FFD01E80FF91F1582148211861086CB
:100C10001182CE01880F991F880F991F8C0F9D1F7D
:100C20000196880F991FA80FB91F1C9280818823F5
:100C300011F440E019C040E0FE01EE0FFF1FCE01AD
:100C4000880F991F880F991F880F991FE80FF91FA8
:100C5000E554FA4F2081318180912D0190912E0130
:100C60002817390708F041E0FE01EE0FFF1FCE0103
:100C7000880F991F880F991F880F991FE80FF91F78
:100C8000EB54FA4F43832681378180912D01909157
:100C90002E012817390780F0FE01EE0FFF1FCE014D
:100CA000880F991F880F991F880F991FE80FF91F48
:100CB000EB54FA4F10825DC0FE01EE0FFF1FCE0114
:100CC000880F991F880F991F880F991FE80FF91F28
:100CD000E554FA4FC901019691838083FE01EE0F1E
:100CE000FF1FCE01880F991F880F991F880F991F2A
:100CF000E80FF91FEB54FA4F80818823D1F1FE01F0
:100D0000EE0FFF1FCE01880F991F880F991F880FC4
:100D1000991FE80FF91FE354FA4F808191810196E2
:100D20009183808320912F013091300182179307A6
:100D300089F4FE01EE0FFF1FCE01880F991F880F67
:100D4000991F880F991FE80FF91FEA54FA4F81E0A5
:100D500080830FC0FE01EE0FFF1FCE01880F991F89
:100D6000880F991F880F991FE80FF91FEA54FA4F4F
:100D70001082DF91CF911F9108950F931F9381E00F
:100D80000E940F1B8C0182E00E940F1B081719079D
:100D900051F48091F5059091F60501969093F60532
:100DA0008093F50509C08091F5059091F6050197AE
:100DB0009093F6058093F5051F910F9108958DE0AE
:100DC00060E00E94BB1A8BE00E945E1610922C011C
:100DD00010922B0110922A010E94B8196093EE051F
:100DE0007093EF058093F0059093F1050895EF92CD
:100DF000FF920F931F93CF93DF930E94B8197B014B
:100E00008C01C0912601D09127018091EE0590912F
:100E1000EF05A091F005B091F105E81AF90A0A0B67
:100E20001B0B9E0140E050E06091EA057091EB05DC
:100E30008091EC059091ED050E942C20E216F306BE
:100E40000407150768F181E080932C0120912A01A5
:100E500030912B018091280190912901AC01C49F10
:100E6000C001C59F900DD49F900D11248217930748
:100E700039F481E090E090932B0180932A0106C021
:100E8000C901019690932B0180932A010E94B81901
:100E90006093EE057093EF058093F0059093F10554
:100EA00080912C01882321F18DE061E00E94BB1A22
:100EB00080912A0190912B01019761F420912401E6
:100EC0003091250140E050E08BE068EB71E00E943A
:100ED000D1160BC0209124013091250140E050E053
:100EE0008BE066E071E00E94D11610922C0107C0E1
:100EF0008DE060E00E94BB1A8BE00E945E16DF91DD
:100F0000CF911F910F91FF90EF900895EF92FF9274
:100F10000F931F93CF93DF9380E090E060E070E049
:100F20000E94750583E090E061E070E00E94750525
:100F300085E090E062E070E00E9475058091C10557
:100F4000882349F081E08093E9051092F80510921A
:100F5000F7058093210180912001882309F4C5C001
:100F6000813009F0FDC08091E905882321F08130AE
:100F700009F0A2C051C08091F5059091F6051816B0
:100F8000190664F48091F3058D3140F48F5F8093EE
:100F9000F3050E94180481E0809321018091F505FA
:100FA0009091F605992364F48091F305882341F02C
:100FB00081508093F3050E94180481E08093210101
:100FC0001092F6051092F505ADEDB5E0FD018191A9
:100FD0008093220110922301808180932601109238
:100FE000270112968C91809328011092290120915B
:100FF00022013091230140E050E060E67AEE80E08B
:1010000090E00E944E202093EA053093EB05409338
:10101000EC055093ED0550C08091F5059091F605D3
:10102000181619066CF48091F805833020F48F5F50
:101030008093F80502C01092F80581E080932101A9
:101040008091F5059091F605992374F48091F80547
:10105000882321F081508093F80503C083E08093BA
:10106000F80581E0809321011092F6051092F505B4
:101070008091CB05882301F18091F705882319F031
:101080008130D1F40CC08091F8058823A9F4109226
:10109000F80581E08093F705809321010DC08091D0
:1010A000F8058093F4051092F3050E94180410923D
:1010B000E90581E0809321018091B705882359F0EB
:1010C00090E08091F205882309F491E09093F20575
:1010D00081E0809321018091F205882319F00E941C
:1010E000F7063EC00E94DF063BC0209122013091EE
:1010F00023018091F5059091F605280F391F309353
:101100002301209322011092F6051092F50540E08C
:1011100050E060E67AEE80E090E00E944E2020935E
:10112000EA053093EB054093EC055093ED05809173
:10113000B705882341F090E08091F205882309F4F7
:1011400091E09093F2058091F205882319F00E94B6
:10115000F70602C00E94DF0681E08093210105C0EE
:1011600080912101882309F4B5C180912001882351
:1011700009F451C1813009F0ABC18091E9058823A0
:1011800021F0813009F0A4C194C00AE815E0C8013B
:101190000E94D510C80160E070E040E050E00E947D
:1011A000EA0DC80161E070E040E050E00E94FC0DF3
:1011B0006091F40570E06F5F7F4FC8014AE050E036
:1011C0000E9414160F2EF2E0EF2EF1E0FF2EF02D0C
:1011D000C801B7010E942716C80160EE75E00E94A1
:1011E0002716C80160E071E00E9427166091F305A0
:1011F00070E06F5F7F4FC8014AE050E00E94141614
:10120000C801B7010E942716C80163ED75E00E946E
:101210002716C80164E071E00E942716C80162E049
:101220000E94F00D6091220170912301C8014AE0F3
:1012300050E00E94C315C80167E071E00E942716C4
:10124000C80161E00E94F00D6091280170912901B0
:10125000C8014AE050E00E94C315C8016EE071E089
:101260000E9427166091260170912701660F771F53
:10127000660F771FC8014AE050E00E94C315C801FD
:1012800060E171E00E9427168091F205882331F019
:10129000C80167E371E00E94DD1406C08AE895E0AA
:1012A00067E171E00E9427168AE895E00E948011AC
:1012B0000FC10AE815E0C8010E94D510C80160E01E
:1012C00070E040E050E00E94EA0D8091F70588232D
:1012D00021F0813009F09AC06DC08091F805882313
:1012E00049F48AE895E060E070E041E050E00E9457
:1012F000FC0D08C08AE895E061E070E040E050E055
:101300000E94FC0D8AE895E064E271E00E942015DD
:101310008091F805813049F48AE895E060E070E05A
:1013200041E050E00E94FC0D08C08AE895E061E0D1
:1013300070E040E050E00E94FC0D8AE895E064E136
:1013400071E00E9420158091F805823049F48AE806
:1013500095E060E070E041E050E00E94FC0D08C0C4
:101360008AE895E061E070E040E050E00E94FC0D0A
:101370008AE895E063E071E00E9420158091F8050D
:10138000833049F48AE895E060E070E041E050E0A5
:101390000E94FC0D08C08AE895E061E070E040E042
:1013A00050E00E94FC0D8AE895E062EF70E00E9438
:1013B00020152CC0C0E0D0E00F2EFAE8EF2EF5E0AB
:1013C000FF2EF02D8091F80590E08C179D0741F4D9
:1013D000C70160E070E041E050E00E94FC0D07C0F2
:1013E000C70161E070E040E050E00E94FC0D8C2FEE
:1013F0000E94DD038C01C701B8010E942A16C801B2
:101400000E94471C2196C330D105E1F68AE895E099
:101410000E9480115DC00AE815E0C8010E94D51045
:10142000C80160E070E040E050E00E94EA0DC801B1
:1014300061E070E040E050E00E94FC0DC80162E015
:101440000E94F00D6091220170912301C8014AE0D1
:1014500050E00E94C315C80167E071E00E942716A2
:10146000C80161E00E94F00D60912801709129018E
:10147000C8014AE050E00E94C315C8016EE071E067
:101480000E9427166091260170912701660F771F31
:10149000660F771FC8014AE050E00E94C315C801DB
:1014A00060E171E00E9427168091F205882331F0F7
:1014B000C8016CEE70E00E94DD1406C08AE895E079
:1014C00067E171E00E9427168AE895E00E9480118A
:1014D00010922101A895DF91CF911F910F91FF905C
:1014E000EF9008950F931F9388E10FB6F8948093BF
:1014F0006000109260000FBE82E062E00E947C1AE1
:1015000081E062E00E947C1A80E062E00E947C1A26
:1015100083E062E00E947C1A85E062E00E947C1A0F
:101520008BE061E00E947C1A8DE061E00E947C1AF1
:1015300084E061E00E947C1A80E06DEB76E041E09F
:1015400050E00E94E7180AE815E0C80162E04DE3A8
:1015500021E00E946E12C8010E94D510C80161E00E
:101560000E94F00DC80161E070E00E94F60D2FE0CE
:1015700088E190E00FB6F894A895809360000FBEC4
:10158000209360000E94A3040E9415050E94180485
:101590001F910F910895FC01138212828DE495E052
:1015A00091838083758364835783468371876087C3
:1015B00053874287158A158614861786168621E07A
:1015C000248B8FEF9FEF938B828B918B808B268B5D
:1015D00008952F923F924F925F926F927F928F92D7
:1015E0009F92AF92BF92CF92DF92EF92FF920F93B2
:1015F0001F93DF93CF9300D000D0CDB7DEB74C015F
:101600007C836B836A015901FA82E9824424552460
:101610009801241B350B1AF4309521953F4FC501D5
:101620004B815C81841B950B1AF4909581959F4F9B
:10163000821793071CF44424552443944114510405
:1016400051F08C2D9D2DCB80DC809C838B83802F53
:10165000912F85015C018B819C81A816B90654F4F9
:101660008A2D9B2DAB80BC809C838B83802F912FF8
:1016700086016C017801EC18FD0822F4F094E194E5
:10168000F108F394C016D10624F022242A94322CB7
:1016900003C0222433242394AB81BC81AA16BB0649
:1016A000B4F135016A1A7B0AC3010AF401968C0170
:1016B000159507954114510471F0D401ED91FC91F9
:1016C0000480F581E02DC401B6014B815C81298144
:1016D0003A8109950DC0D401ED91FC910480F5810A
:1016E000E02DC4016B817C81A60129813A81099595
:1016F0000E191F0922F4C20CD31C060D171DEB8115
:10170000FC813196FC83EB83AE16BF069CF60F90EE
:101710000F900F900F90CF91DF911F910F91FF903D
:10172000EF90DF90CF90BF90AF909F908F907F9081
:101730006F905F904F903F902F9008954F925F92DF
:101740006F927F928F929F92AF92BF92CF92DF92D1
:10175000EF92FF920F931F936C015B014A013901D5
:101760002801DC01ED91FC910284F385E02D8701D5
:101770000995D601ED91FC91A40141505040440DD2
:10178000551D0284F385E02DC601B501930109952D
:10179000D601ED91FC910084F185E02DC601B501E3
:1017A000A40192010995D601ED91FC910894A1083C
:1017B000B108A60CB71C0084F185E02DC601B50167
:1017C000A401920109951F910F91FF90EF90DF9076
:1017D000CF90BF90AF909F908F907F906F905F90D1
:1017E0004F900895CF92DF92EF92FF920F931F9345
:1017F000DC016B017801ED91FC918A0101501040F0
:10180000020F131F0680F781E02D960109951F91A5
:101810000F91FF90EF90DF90CF900895CF92DF92DD
:10182000EF92FF920F931F93DC016A01C9017801C7
:10183000ED91FC9111979B0121503040280F391FE9
:101840000680F781E02DCD01860109951F910F914A
:10185000FF90EF90DF90CF9008956F927F928F92DC
:101860009F92AF92BF92CF92DF92EF92FF920F932F
:101870001F93CF93DF936C013A014801570179011F
:10188000E60EF71E6E157F058CF4EB01D601ED9187
:10189000FC910084F185E02DC601BE01A3019401F5
:1018A000850109952196CE15DF0584F3DF91CF914F
:1018B0001F910F91FF90EF90DF90CF90BF90AF906E
:1018C0009F908F907F906F900895EF92FF920F936B
:1018D0001F93FC017B01A081B181208531850285A8
:1018E00013851E960D90BC91A02D60E070E040E045
:1018F00050E0FD0109951F910F91FF90EF90089521
:101900002F923F924F925F926F927F928F929F920F
:10191000AF92BF92CF92DF92EF92FF920F931F93FD
:10192000DF93CF93CDB7DEB761970FB6F894DEBFE4
:101930000FBECDBF3C01E22F1801FB86EA86AC2C1E
:10194000DC0118968D919C911997681779070CF016
:10195000C6C01A968D919C911B97481759070CF099
:10196000BEC04C2C55249B0121503040C201880F31
:10197000991F840D951D880F991F280F391F332338
:101980000CF4ADC0CA0101979201220F331F220F40
:10199000331F220F331F820F931F99230CF49FC014
:1019A00085E0E89F900111243C832B8358864F8269
:1019B0007E836D837A8369831986CA014E879F87E8
:1019C0003985353009F47FC0EB81FC81E35CFE4F43
:1019D00024917AC0C40195958795282F822E992449
:1019E00020FF20C081E0A81669F4D301ED91FC919D
:1019F0000480F581E02DC3016D817E81A6019101F6
:101A0000099536C0D301ED91FC910684F785E02D50
:101A1000C3016C857D8548895989920182017101D4
:101A2000099526C0EA85FB85E215F30509F1F1E089
:101A3000AF1671F4D301ED91FC910480F581E02D96
:101A4000C3016D817E81A6012A853B85099510C061
:101A5000D301ED91FC910684F785E02DC3016C85DF
:101A60007D854889598992018201EA84FB84099520
:101A7000B394E889F9892F813885E20FF31FF98B38
:101A8000E88B0894C11CD11C38E0B31609F0A2CF32
:101A900089858F5F8987A981BA81EF81F885AE0F2B
:101AA000BF1FBA83A9832D813E812F5F3F4F3E83A5
:101AB0002D838B819C8101969C838B8399859630A5
:101AC00009F07ECF0CC020E0A981AC87BA81BD8728
:101AD0008E859F85998B888B6C01BB247FCF619607
:101AE0000FB6F894DEBF0FBECDBFCF91DF911F912F
:101AF0000F91FF90EF90DF90CF90BF90AF909F90AD
:101B00008F907F906F905F904F903F902F900895AF
:101B1000CF92EF92FF920F931F93CF93DF93EC013D
:101B2000262F6A3089F42C8930E0220F331F220FD0
:101B3000331F220F331F8E859F85820F931F9F8730
:101B40008E871D861C863CC06D30D1F16C857D85ED
:101B50004E855F8508891989EA88FB88CC880E94B0
:101B6000800C8C8926E0829FC00111242C853D8544
:101B7000BC01620F731F7D876C878E89882301F1FA
:101B80008C89482F50E09A01220F331F240F351FF4
:101B9000220F331F88859985821B930B8617970721
:101BA0007CF49A01220F331F220F331F220F331FA1
:101BB0008E859F85820F931F9F878E871D861C862B
:101BC00081E090E0DF91CF911F910F91FF90EF9016
:101BD000CF900895FC0175876487578746870895DD
:101BE000FC01662309F461E0648B0895FC01738BAA
:101BF000628B718B608B0895FC01718B608B538BB2
:101C0000428B0895FC0185890895FC0180859185AA
:101C10000895FC0182859385089508950F931F937D
:101C2000DC01F90155968C915597823079F083301B
:101C300001F1813009F0ECC014968D919C911597BB
:101C400001979C01241B350BA90146C116968D9165
:101C50009C91179701979C01241B350BA9011496A1
:101C60008D919C911597861B970BBC016E1B7F0B6A
:101C7000CFC016968D919C911797861B970BBC0130
:101C8000621B730B29C114968D919C91159748176F
:101C900059070CF024C1772324F4E60FF71F60E006
:101CA00070E016962D913C911797CF01860F971FE4
:101CB000281739071CF4F901E61BF70B1E161F063F
:101CC0000CF00DC1262F6E2F822F86958695869556
:101CD00090E09695982F8827979587958F5C9E4FD3
:101CE000DC01A40FB51F277091F188E0482F421B3B
:101CF000242F30E0F901E75CFA4FE081641750F4DB
:101D0000261B31098FEF90E002C0959587952A95A3
:101D1000E2F7E8230130110539F00130110540F0F8
:101D20000230110571F40AC08C918E2B8C9309C07E
:101D30009E2F90958C9189238C9303C08C918E2734
:101D40008C93641708F4CBC0641BA058BF4F683055
:101D5000E0F102301105D9F4FD01962F80818095C4
:101D60008083E058FF4F98509830C0F7862F8850F6
:101D7000682F677086958695869590E00196969572
:101D8000982F882797958795A80FB91F1EC00130F7
:101D9000110511F090E001C09FEFFD01862F9083A7
:101DA000E058FF4F88508830D0F7862F8850682F32
:101DB000677086958695869590E001969695982F02
:101DC000882797958795A80FB91F662309F487C0C0
:101DD000E62FF0E0E770F070EF5CFA4F2081013001
:101DE000110541F00130110548F00230110509F0EC
:101DF00076C00AC08C91822B8C9371C0922F9095E3
:101E00008C9189238C936BC08C9182278C9367C0B3
:101E100055230CF464C016968D919C911797481722
:101E200059070CF05CC0772324F4E60FF71F60E03D
:101E300070E014962D913C911597CF01860F971F56
:101E4000281739071CF4F901E61BF70B1E161F06AD
:101E50000CF045C0CA0155230CF40796959587955B
:101E600095958795959587959695982F8827979519
:101E700087958F5C9E4FDC01A60FB71F9A012770D4
:101E8000307081E090E002C0880F991F2A95E2F738
:101E9000482F0130110541F00130110568F0023082
:101EA0001105E9F49F0111C09F018C91842B8D9342
:101EB00021503040D1F713C040959F018C9184236D
:101EC0008D9321503040D1F70AC08C9184278D9397
:101ED00021503040D1F703C055230CF0D4CE1F91D0
:101EE0000F9108950F931F93DC01F90155968C9182
:101EF0005597823079F0833001F1813009F089C043
:101F000014968D919C911597841B950BAC01421BE7
:101F1000530B45C114968D919C91159701979C0187
:101F2000261B370BB90116968D919C911797841B30
:101F3000950BAC014E1B5F0B6CC016968D919C915E
:101F4000179701979C01261B370BB90128C11696DC
:101F50008D919C911797681779070CF023C1552331
:101F600024F4E40FF51F40E050E014962D913C91CD
:101F70001597CF01840F951F281739071CF4F90115
:101F8000E41BF50B1E161F060CF00CC1CB017723CA
:101F90000CF40796959587959595879595958795D2
:101FA0009695982F8827979587958F5C9E4FDC0193
:101FB000A40FB51F9B012770307081E090E002C034
:101FC000880F991F2A95E2F7682F0130110549F013
:101FD0000130110570F00230110509F0E3C09F01D6
:101FE00011C09F018C91862B8D9321503040D1F7E9
:101FF000D9C060959F018C9186238D9321503040EC
:10200000D1F7D0C08C9186278D9321503040D1F7E5
:10201000C9C077230CF4C6C014968D919C91159776
:10202000681779070CF0BEC0552324F4E40FF51FA0
:1020300040E050E016962D913C911797CF01840F08
:10204000951F281739071CF4F901E41BF50B1E1620
:102050001F060CF0A7C0242F4E2F822F8695869541
:10206000869590E09695982F8827979587958F5C11
:102070009E4FDC01A60FB71F277091F188E0582F03
:10208000521B252F30E0F901E75CFA4FE08145173C
:1020900050F4241B31098FEF90E002C0959587958D
:1020A0002A95E2F7E8230130110539F001301105D6
:1020B00040F00230110571F40AC08C918E2B8C9384
:1020C00009C09E2F90958C9189238C9303C08C918D
:1020D0008E278C93451708F465C0451BA058BF4F49
:1020E0004830E0F102301105D9F4FD01942F8081D0
:1020F00080958083E058FF4F98509830C0F7842F28
:102100008850482F477086958695869590E0019671
:102110009695982F882797958795A80FB91F1EC069
:102120000130110511F090E001C09FEFFD01842FF7
:102130009083E058FF4F88508830D0F7842F885024
:10214000482F477086958695869590E001969695DE
:10215000982F882797958795A80FB91F442311F1C9
:10216000E42FF0E0E770F070EF5CFA4F208101306F
:10217000110539F00130110540F00230110591F4DC
:102180000AC08C91822B8C930DC0922F90958C91CC
:1021900089238C9307C08C9182278C9303C077236B
:1021A0000CF0D5CE1F910F91089580E094E0E1E30B
:1021B000F1E0DF019C011D9221503040E1F70895CC
:1021C000FF920F931F93DC01F62E59968C9159972D
:1021D0008F3F09F472C09396ED91FC9194978081A2
:1021E00099969C919997892B80839596ED91FC9176
:1021F000969790819A968C919A978095892380835F
:102200009396ED91FC919497908199968C919997E2
:102210008095892380835E968C915E97882341F018
:102220006EBDEDE4F0E080818823ECF78EB53BC015
:1022300040E820E030E070E09196ED91FC919297BB
:10224000908198968C919897809589238083842F8C
:1022500090E086239723892B59F05F96ED91FC91AE
:102260009097808197969C919797892B80830BC03C
:102270005F96ED91FC919097908197968C919797AE
:102280008095892380839196ED91FC91929780812E
:1022900098969C919897892B808346952F5F3F4F06
:1022A0002830310549F69396ED91FC919497808101
:1022B00099969C91892B808315C001E616E057966C
:1022C0006C91772767FD7095C8010E94071DC801B2
:1022D00060E00E94891DC8016F2D0E94891DC80100
:1022E0000E94CC1D1F910F91FF900895662321F04D
:1022F00067EA0E94E010089566EA0E94E0100895DF
:102300007F928F929F92AF92BF92CF92DF92EF9285
:10231000FF920F931F93CF93DF937C0161E20E94A2
:10232000E010C70160E00E94E010C7016FE70E9463
:10233000E010C70162E20E94E010C70160E00E9465
:10234000E010C70167E00E94E010D70159968C9118
:1023500059978F3F09F47BC09396ED91FC91949728
:10236000808199969C919997892B80839596ED9180
:10237000FC91969780819A969C919A97892B80835D
:102380009396ED91FC919497908199968C9180957C
:1023900089238083A1E3B1E050E8AA24BB240F2E57
:1023A000FEE4CF2EDD24F02D0F2EFDE48F2E992498
:1023B000F02D01E315E09C91E7018E8D882349F013
:1023C000F6019083E40188818823E4F7F601808197
:1023D0002EC0452F9501692F70E0E701E9A1FAA110
:1023E000908188A5809589238083842F90E086231F
:1023F0009723892B39F0EF8DF8A180819FA1892B3C
:10240000808308C0E701EF8DF8A190818FA18095AE
:1024100089238083E701E9A1FAA1808198A5892B0E
:10242000808346952F5F3F4F28303105B1F61196D6
:10243000A017B10709F0BFCFD7019396ED91FC919A
:102440009497808199969C91892B808339C0E8EB81
:10245000F0E070808CE08083AA24BB240F2EF1E68C
:10246000CF2EF6E0DF2EF02D0F2EF1E38F2EF1E0D0
:102470009F2EF02D00E0E7016F89772767FD7095AB
:10248000C6010E94071DC60160E40E94891DE40187
:10249000CA0DDB1D102FC60169910E94891D1F5FA7
:1024A0001031C9F7E0E1F0E0AE0EBF1EC6010E9498
:1024B000CC1DF0E0AF16F4E0BF06E9F67092B8006C
:1024C000DF91CF911F910F91FF90EF90DF90CF9010
:1024D000BF90AF909F908F907F9008950F931F9320
:1024E000CF93DF93EC01062F122F688F4F8B898DCE
:1024F0008F3F09F487C08B8D61E00E947C1A8D8D1F
:1025000061E00E947C1A2D8D332727FD3095A7E5C9
:10251000B6E0FD01E20FF31FE4918E2F90E0880FEB
:10252000991F43E456E0FA01E80FF91F8591949151
:102530009CA38BA36BE676E0FB01E20FF31FE49113
:10254000E9A72B8D332727FD3095FD01E20FF31FFF
:10255000849190E0880F991FFA01E80FF91F859187
:1025600094919EA38DA3FB01E20FF31FE491EAA7D0
:102570008E8D882309F040C0898D61E00E947C1A0D
:102580008A8D61E00E947C1A2A8D332727FD3095C1
:10259000A7E5B6E0FD01E20FF31FE4918E2F90E076
:1025A000880F991F43E456E0FA01E80FF91F85915F
:1025B00094919AA389A36BE676E0FB01E20FF31FE7
:1025C000E491E8A7298D332727FD3095FD01E20F1F
:1025D000F31F849190E0880F991FFA01E80FF91F0B
:1025E0008591949198A38F8FFB01E20FF31FE491E3
:1025F000EFA38E8D882351F00E94F01C84E00E948E
:10260000DF1C04C081E696E00E94D01D1123E1F09A
:102610008C8D61E00E947C1A8C8D61E00E94BB1A57
:1026200061E070E080E090E00E94C6198C8D60E06F
:102630000E94BB1A6AE070E080E090E00E94C61938
:102640008C8D61E00E94BB1ACE016EEA0E94E01000
:10265000CE0165ED0E94E010CE0160E80E94E0101E
:10266000CE0168EA0E94E010CE016FE30E94E01004
:10267000CE0163ED0E94E010CE0160E00E94E01008
:10268000CE0160E40E94E010CE016DE80E94E010EF
:10269000013069F5CE0160E10E94E010CE0160E2F8
:1026A0000E94E010CE0160E00E94E010CE0161EADD
:1026B0000E94E010CE0168EC0E94E010CE016AEDAD
:1026C0000E94E010CE0162E10E94E010CE0161E8BC
:1026D0000E94E010CE016FE90E94E010CE0169ED8A
:1026E0000E94E010CE0162E20E94E0102CC0CE01F8
:1026F00064E10E94E010CE0160E20E94E010CE0191
:1027000060E00E94E010CE0161EA0E94E010CE017C
:1027100068EC0E94E010CE016AED0E94E010CE014C
:1027200062E10E94E010CE0161E80E94E010CE015B
:102730006FEC0E94E010CE0169ED0E94E010CE0126
:1027400061EF0E94E010CE016BED0E94E010CE011F
:1027500060E40E94E010CE0164EA0E94E010CE0125
:1027600066EA0E94E010CE016FEA0E94E010DF915D
:10277000CF911F910F910895FF920F931F938C019A
:10278000F62E60E870E040E450E00E94CB0A85E657
:1027900095E0F801918380838FEF818F858F838F00
:1027A000828FF48E1F910F91FF900895AF92BF9288
:1027B000CF92DF92EF92FF920F931F93CF93DF930D
:1027C000EC017B018A01690177230CF4B1C09D2FD4
:1027D0000E94050EE816F9060CF0AAC011230CF4AD
:1027E000A7C08C2F9D2F0E94090E081719070CF007
:1027F0009FC090C08C819D810197801B910B8701A8
:102800007C0116C08C819D8101979C012E193F0986
:1028100079018E819F8101979C01201B310B8901D9
:1028200007C08E819F8101978E199F0978018C01C5
:1028300031E0C316D10451F081E0C816D10438F15B
:1028400022E0C216D10409F073C043C0F80111237D
:102850000CF43796F595E795F595E795F595E79599
:10286000F695FE2FEE27F795E795EE0DFF1DEF5C31
:10287000FE4F98012770307081E090E002C0880F11
:10288000991F2A95E2F72081282B208351C0F80157
:1028900011230CF43796F595E795F595E795F595A1
:1028A000E795F695FE2FEE27F795E795EE0DFF1DC0
:1028B000EF5CFE4F98012770307081E090E002C01D
:1028C000880F991F2A95E2F780952081282320837D
:1028D0002FC0F80111230CF43796F595E795F5957F
:1028E000E795F595E795F695FE2FEE27F795E79591
:1028F000EE0DFF1DEF5CFE4F98012770307081E0F8
:1029000090E002C0880F991F2A95E2F720812827BE
:1029100020830EC08C2F9D2F0E94020E823009F45E
:1029200071CF833009F47DCF813009F081CF62CF40
:10293000DF91CF911F910F91FF90EF90DF90CF909B
:10294000BF90AF900895CF93DF930E941F1A0E940B
:10295000720AC0E0D0E00E9486072097E1F30E944F
:102960000000F9CF0895CF92DF92EF92FF920F937C
:102970001F93CF93DF937C016B018A01C0E0D0E00D
:102980000FC0D6016D916D01D701ED91FC910190C1
:10299000F081E02DC7010995C80FD91F01501040E3
:1029A0000115110571F7CE01DF91CF911F910F91A4
:1029B000FF90EF90DF90CF900895EF92FF920F93EA
:1029C0001F93CF93DF937C018B01C0E0D0E0F8012F
:1029D0000F5F1F4F6491662359F0D701ED91FC9171
:1029E0000190F081E02DC7010995C80FD91FEFCFE5
:1029F000CE01DF91CF911F910F91FF90EF9008953D
:102A0000EF92FF920F931F938C01DC01ED91FC91EB
:102A10000190F081E02D6DE009957C01D801ED91E8
:102A2000FC910190F081E02DC8016AE009959C01BC
:102A30002E0D3F1DC9011F910F91FF90EF9008953A
:102A4000EF92FF920F931F937C010E94DD148C0183
:102A5000C7010E9400159C01200F311FC9011F9161
:102A60000F91FF90EF900895CF93DF93EC016115E4
:102A7000710519F420E030E00FC0DB010D9000205B
:102A8000E9F71197A61BB70BE881F9810280F38162
:102A9000E02DAD0109959C01C901DF91CF91089509
:102AA0004F925F927F928F929F92AF92BF92CF92FE
:102AB000DF92EF92FF920F931F93DF93CF93CDB7E7
:102AC000DEB7A1970FB6F894DEBF0FBECDBF2C01C5
:102AD000742ECB01223008F42AE019A231E2C32E71
:102AE000D12CCC0EDD1E822E9924AA24BB24672D66
:102AF000752FA50194010E942C2079018A01C8013B
:102B0000B701A50194010E940D20472D461B089492
:102B1000C108D1084A3014F4405D01C0495CF60197
:102B20004083E114F1040105110521F07E2C5F2D95
:102B3000C801DDCFC201B6010E943415A1960FB6BF
:102B4000F894DEBF0FBECDBFCF91DF911F910F91E3
:102B5000FF90EF90DF90CF90BF90AF909F908F90BD
:102B60007F905F904F900895DC012115310541F46D
:102B7000ED91FC910190F081E02D642F099508956D
:102B80000E9450150895EF92FF920F931F939A01A0
:102B90007B0100E010E0B801A7010E94B4151F916D
:102BA0000F91FF90EF900895CF92DF92EF92FF92F6
:102BB0000F931F93CF93DF93EC016A017B012115E3
:102BC000310541F4E881F9810190F081E02D642F15
:102BD00009951FC02A303105D1F477FF17C0E8816D
:102BE000F9810190F081E02D6DE209958C01442777
:102BF0005527BA014C195D096E097F09CE012AE0FB
:102C00000E9450159801280F391F04C02AE00E9425
:102C100050159C01C901DF91CF911F910F91FF9039
:102C2000EF90DF90CF900895EF92FF920F931F9354
:102C30007B019A010027F7FC0095102FB801A7012E
:102C40000E94D4151F910F91FF90EF9008950E945C
:102C500034150895EF92FF920F931F937C010E9409
:102C600034158C01C7010E940015080F191FC801F7
:102C70001F910F91FF90EF900895813041F08130C6
:102C800018F08230D1F409C010926E00089580913E
:102C90006F008D7F80936F000895809170008D7F0D
:102CA0008093700081E08093B0008091B100887FB4
:102CB00084608093B1001092B30008951F93182F81
:102CC00080914105811711F09FEF06C0E8E3F6E01F
:102CD00094918FEF80934105892F0E943D16812F9B
:102CE00060E00E94BB1A1F9108951F920F920FB6C9
:102CF0000F9211242F933F934F935F936F937F9382
:102D00008F939F93AF93BF93EF93FF9380910706A9
:102D100090910806A0910906B0910A060097A105B6
:102D2000B10551F1E0910B06F0910C068081909174
:102D30000D06892780838091070690910806A0914F
:102D40000906B0910A06181619061A061B06C4F4DD
:102D50008091070690910806A0910906B0910A0695
:102D60000197A109B1098093070690930806A093E3
:102D70000906B0930A0604C0809141050E945E16C0
:102D8000FF91EF91BF91AF919F918F917F916F9143
:102D90005F914F913F912F910F900FBE0F901F9019
:102DA00018952F923F925F926F927F928F929F928F
:102DB000AF92BF92CF92DF92EF92FF920F931F9349
:102DC000DF93CF9300D000D0CDB7DEB7A82F1B0183
:102DD00029833A834B835C83809141058A1721F4D0
:102DE000E8E3F6E0549082C08F3F09F0DAC1A09387
:102DF0004105E8E3F6E054902FEF521609F4D1C1F3
:102E000081E0581639F192E0591609F449C055206D
:102E100009F06CC014BC15BC84B5826084BD85B556
:102E2000816085BD2A2F30E0F901E95AF94FE4911C
:102E3000F0E0EE0FFF1FED5BF94F859194919093B9
:102E4000FE058093FD052559394FF9018491809342
:102E5000FF054EC010928000109281008091810089
:102E600088608093810080918100816080938100DF
:102E70002A2F30E0F901E95AF94FE491F0E0EE0F22
:102E8000FF1FED5BF94F8591949190930506809318
:102E900004062559394FF90184918093060628C00C
:102EA0001092B0001092B1008091B00082608093C7
:102EB000B0008091B10081608093B1002A2F30E092
:102EC000F901E95AF94FE491F0E0EE0FFF1FED5BD5
:102ED000F94F8591949190930C0680930B06255998
:102EE000394FF901849180930D0602C057FC59C1F6
:102EF0008A2F61E00E947C1A552021F0F2E05F16D3
:102F000009F0BEC031018824992460E079E08DE3A6
:102F100090E0A40193010E944E2059016A018601AC
:102F200075010894E108F108010911092FEFE21673
:102F3000F1040105110509F008F499C060E271EA95
:102F400087E090E0A40193010E944E2079018A015C
:102F50000894E108F1080109110982E05816C1F44A
:102F60009FEFE916F1040105110509F008F484C08A
:102F700068E478EE81E090E0A40193010E944E2085
:102F800079018A010894E108F1080109110983E037
:102F9000AFEFEA16F1040105110509F008F468C065
:102FA00064E274EF80E090E0A40193010E944E205F
:102FB00079018A010894E108F108010911095520F5
:102FC00011F483E01DC0B2E05B1611F084E018C07C
:102FD000EFEFEE16F1040105110509F008F4DFC06A
:102FE00062E17AE780E090E0A40193010E944E2024
:102FF00079018A010894E108F1080109110985E0C5
:10300000FFEFEF16F1040105110591F188F169E078
:103010007DE380E090E0A40193010E944E207901BD
:103020008A010894E108F10801091109552011F0FD
:1030300086E001C084E02FEFE216F10401051105DE
:10304000B9F0B0F0C601B50120E034E040E050E056
:103050000E944E2079018A010894E108F1080109D3
:103060001109552011F087E008C085E003C081E018
:10307000552019F485BD3AC082E08093B10036C076
:103080005101CC24DD2460E079E08DE390E0A601DD
:1030900095010E944E2079018A010894E108F10807
:1030A0000109110980E0E81680E0F80681E00807D0
:1030B00080E0180710F491E010C064E274EF80E043
:1030C00090E0A60195010E944E2079018A010894A2
:1030D000E108F1080109110993E0A1E05A1631F461
:1030E00080918100887F982B9093810089819A81BB
:1030F000AB81BC810097A105B10529F48FEF9FEF4B
:10310000AFEFBFEF13C0220C331CB10180E090E0A1
:1031100029813A814B815C810E940D2028EE33E0A9
:1031200040E050E00E942C20C901DA01E1E05E1687
:10313000A1F0F2E05F1619F1552099F5E7BC8093F4
:10314000F9059093FA05A093FB05B093FC058091D7
:103150006E00826080936E0024C0F0928900E0923D
:1031600088008093000690930106A0930206B09316
:10317000030680916F00826080936F0012C0E0921E
:10318000B3008093070690930806A0930906B093B6
:103190000A068091700082608093700002C084E013
:1031A0006CCF0F900F900F900F90CF91DF911F91E8
:1031B0000F91FF90EF90DF90CF90BF90AF909F90D6
:1031C0008F907F906F905F903F902F900895823006
:1031D00000F5E82FF0E0EE0FFF1FE25FF94F71837B
:1031E0006083882319F08130A1F408C080916900C0
:1031F0008C7F842B80936900E89A08958091690000
:10320000440F551F440F551F837F842B8093690003
:10321000E99A08951F920F920FB60F9211242F93DF
:103220003F934F935F936F937F938F939F93AF934E
:10323000BF93EF93FF9380910E0690910F06892B19
:1032400029F0E0910E06F0910F060995FF91EF919C
:10325000BF91AF919F918F917F916F915F914F91AE
:103260003F912F910F900FBE0F901F9018951F92B6
:103270000F920FB60F9211242F933F934F935F93AA
:103280006F937F938F939F93AF93BF93EF93FF932E
:103290008091100690911106892B29F0E09110067B
:1032A000F09111060995FF91EF91BF91AF919F9118
:1032B0008F917F916F915F914F913F912F910F90DF
:1032C0000FBE0F901F9018951F920F920FB60F927E
:1032D00011242F933F934F935F936F937F938F931B
:1032E0009F93AF93BF93209116063091170640919C
:1032F00018065091190670911A06DA01C901029652
:10330000A11DB11D672F6A5F6D3730F06D57DA016F
:10331000C9010396A11DB11D60931A06809316067C
:1033200090931706A0931806B09319068091120681
:1033300090911306A0911406B09115060196A11D57
:10334000B11D8093120690931306A0931406B093B8
:103350001506BF91AF919F918F917F916F915F9172
:103360004F913F912F910F900FBE0F901F90189586
:103370008FB7F894209116063091170640911806E1
:10338000509119068FBFB901CA0108959B01AC0184
:103390007FB7F8948091120690911306A0911406BD
:1033A000B091150666B5A89B05C06F3F19F0019650
:1033B000A11DB11D7FBFBA2FA92F982F8827860F77
:1033C000911DA11DB11D63E0880F991FAA1FBB1F8E
:1033D0006A95D1F7BC012DC0FFB7F8948091120611
:1033E00090911306A0911406B0911506E6B5A89B1E
:1033F00005C0EF3F19F00196A11DB11DFFBFBA2F07
:10340000A92F982F88278E0F911DA11DB11DE3E0D4
:10341000880F991FAA1FBB1FEA95D1F7861B970B30
:10342000885E9340C8F2215030404040504068517F
:103430007C4F211531054105510571F608957894A9
:1034400084B5826084BD84B5816084BD85B58260A9
:1034500085BD85B5816085BDEEE6F0E08081816047
:103460008083E1E8F0E01082808182608083808147
:1034700081608083E0E8F0E0808181608083E1EB1F
:10348000F0E0808184608083E0EBF0E08081816007
:103490008083EAE7F0E080818460808380818260BD
:1034A00080838081816080838081806880831092A6
:1034B000C1000895982F8E3008F09E50977080912B
:1034C00042058295880F880F807C892B80937C0031
:1034D00080917A00806480937A0080917A0086FDE2
:1034E000FCCF2091780040917900942F80E030E06B
:1034F000282B392BC9010895CF93DF93482F50E033
:10350000CA018559994FFC013491495A594FFA0122
:103510008491882369F190E0880F991FFC01E75C92
:10352000F94FA591B491FC01ED5BF94FC591D49190
:10353000662351F42FB7F8948C91932F909589239B
:103540008C93888189230BC0623061F42FB7F89483
:103550008C91932F909589238C938881832B8883DA
:103560002FBF06C09FB7F8948C91832B8C939FBF7D
:10357000DF91CF910895482F50E0CA018158994FAB
:10358000FC012491CA018559994FFC019491495A33
:10359000594FFA013491332309F440C0222351F1E9
:1035A000233071F0243028F42130A1F0223011F5BD
:1035B00014C02630B1F02730C1F02430D9F404C053
:1035C000809180008F7703C0809180008F7D8093F1
:1035D000800010C084B58F7702C084B58F7D84BD14
:1035E00009C08091B0008F7703C08091B0008F7DBB
:1035F0008093B000E32FF0E0EE0FFF1FED5BF94F7B
:10360000A591B4912FB7F894662321F48C919095ED
:10361000892302C08C91892B8C932FBF0895682F2A
:1036200070E0CB018158994FFC012491CB01855961
:10363000994FFC014491695A794FFB019491992368
:1036400019F420E030E03CC0222351F1233071F026
:10365000243028F42130A1F0223011F514C0263096
:10366000B1F02730C1F02430D9F404C0809180003B
:103670008F7703C0809180008F7D8093800010C081
:1036800084B58F7702C084B58F7D84BD09C08091D9
:10369000B0008F7703C08091B0008F7D8093B00021
:1036A000892F90E0880F991F835B994FFC01A591AA
:1036B000B4918C9120E030E0842311F021E030E0DF
:1036C000C9010895EF92FF920F931F937B018C0124
:1036D000611571058105910529F420E030E040E095
:1036E00050E00BC00E94C903A80197010E944E2020
:1036F000AC01CB01DA019C01AD01B901CA011F91F6
:103700000F91FF90EF900895EF92FF920F931F9308
:103710007B018C01621773078407950764F4261BED
:10372000370B480B590BCA01B9010E94621BE60E08
:10373000F71E081F191FB701C8011F910F91FF90B5
:10374000EF900895009729F0BC0180E090E00E947E
:10375000CE0308950F931F93CF93DF93BC01823064
:10376000910510F462E070E0E091DE06F091DF0672
:1037700040E050E0A0E0B0E024C080819181861755
:103780009707D0F08617970771F48281938110977D
:1037900029F013969C938E9312972CC09093DF067A
:1037A0008093DE0627C04115510519F0841795074F
:1037B00018F48D01AC01EF01DF01828193819C013E
:1037C000F9013097D1F641155105F9F0CA01861B70
:1037D000970B8430910580F48A819B810115110536
:1037E00021F0F8019383828304C09093DF068093D5
:1037F000DE06FE01329645C0FE01E80FF91F619317
:1038000071930297998388833CC08091DC069091E4
:10381000DD06892B41F480914505909146059093F2
:10382000DD068093DC06409147055091480541151F
:10383000510541F44DB75EB7809143059091440521
:10384000481B590B2091DC063091DD062417350703
:10385000B0F4CA01821B930B8617970780F0AB0167
:103860004E5F5F4F8417950750F0420F531F5093E0
:10387000DD064093DC06F9016193719302C0E0E03C
:10388000F0E0CF01DF91CF911F910F910895CF9379
:10389000DF939C01009709F48FC0EC0122971B82F3
:1038A0001A826091DE067091DF066115710581F460
:1038B00088819981820F931F2091DC063091DD066B
:1038C0002817390739F5D093DD06C093DC0674C09C
:1038D000DB0140E050E0AC17BD0708F1BB83AA83D1
:1038E000FE0121913191E20FF31FAE17BF0779F46A
:1038F0008D919C911197280F391F2E5F3F4F39836F
:10390000288312968D919C9113979B838A834115EE
:10391000510571F4D093DF06C093DE064DC01296B8
:103920008D919C911397AD01009711F0DC01D3CFDD
:10393000DA011396DC93CE931297FA01219131911B
:10394000E20FF31FCE17DF0769F488819981280FF2
:10395000391F2E5F3F4FFA01318320838A819B817B
:1039600093838283E0E0F0E0DB0112968D919C91DD
:103970001397009719F0BC01FD01F6CFAB014E5F24
:103980005F4FDB018D919C91840F951F2091DC0688
:103990003091DD062817390779F4309729F4109211
:1039A000DF061092DE0602C013821282425050409F
:1039B0005093DD064093DC06DF91CF9108952CB53E
:1039C000382F33702C7F322B3CBD2DB590E0959570
:1039D00087959595879581702E7F822B8DBD089553
:1039E0008AE061E00E94BB1A8AE061E00E947C1AD2
:1039F0008CB580618CBD8CB580648CBD8DE061E040
:103A00000E947C1A8BE061E00E947C1A089581E09C
:103A10008093600660933D0610925E0610925F06EA
:103A2000089520913C0630E080913B06281B310927
:103A3000C901089540913B0680913C06481718F053
:103A40002FEF3FEF0AC0E42FF0E0E55EF94F8081F1
:103A5000282F30E04F5F40933B06C9010895E09165
:103A60003B0680913C06E81718F0EFEFFFEF06C029
:103A7000F0E0E55EF94F8081E82FF0E0CF01089596
:103A80000895109264061092630688EE93E0A0E019
:103A9000B0E08093650690936606A0936706B093A6
:103AA00068068DE795E0909362068093610608951D
:103AB000CF92DF92EF92FF920F931F93CF93DF93FA
:103AC0007C016B018A01809160068823A1F0C0E02F
:103AD000D0E00DC0D701ED91FC91D601AC0FBD1F18
:103AE0000190F081E02DC7016C9109952196C017D6
:103AF000D10780F304C0CB01642F0E94301EC8019F
:103B0000DF91CF911F910F91FF90EF90DF90CF90B9
:103B10000895DF93CF930F92CDB7DEB7FC01698391
:103B2000809160068823C9F080915F06803238F06A
:103B300081E090E09383828320E030E015C08091A3
:103B40005E06E82FF0E0E25CF94F998190838F5F89
:103B500080935E0680935F0605C0CE01019661E00A
:103B60000E94301E21E030E0C9010F90CF91DF911B
:103B700008950F93062F80913D066EE376E0409105
:103B80005F0621E00E94DB1D10925E0610925F0628
:103B9000109260060F91089561E00E94B91D08958A
:103BA00010923B0610923C0610925E0610925F0641
:103BB0000E94DC1F08950F931F93582F122F41323C
:103BC00010F081E04AC080916D068823E1F782E021
:103BD00080936D0600936F068FEF8093DA06109244
:103BE000950640939606A5E7B6E0FB0102C08191D9
:103BF0008D938E2F861B8417D0F310926E068091C2
:103C00006E06550F852B80936E068091700681306D
:103C100041F41092700680916E068093BB0085EC93
:103C200001C085EE8093BC00112321F080916D06C8
:103C30008230E1F38091DA068F3F11F480E00DC00D
:103C40008091DA06803211F482E007C08091DA06B2
:103C5000803311F084E001C083E01F910F9108953B
:103C6000482F613210F081E0089580916D06843014
:103C700011F082E008956093B806A7E9B6E0842FBA
:103C80009C01F90102C081918D938E2F841B8617B0
:103C9000D0F380E008951F920F920FB60F92112477
:103CA0002F933F934F935F936F937F938F939F9344
:103CB000AF93BF93EF93FF938091B90090E0887F1B
:103CC00090708036910509F4F2C081369105CCF5EB
:103CD0008832910509F47BC089329105B4F48031B2
:103CE000910509F46FC0813191053CF4009709F406
:103CF00047C1089709F04FC165C08831910509F4A3
:103D000066C0809709F047C182C08034910509F4EC
:103D1000A4C08134910544F48033910509F482C034
:103D2000C89709F038C189C08035910509F489C068
:103D30008835910509F496C08834910509F02BC1A6
:103D4000AEC08839910509F413C189399105ECF4A5
:103D50008837910509F4ABC0893791054CF4883652
:103D6000910509F4A4C08037910509F014C19FC0E2
:103D70008838910509F4FCC08039910509F49DC08B
:103D80008038910509F007C198C0803B910509F47E
:103D9000C6C0813B91054CF4803A910509F49FC05F
:103DA000883A910509F0F7C0BAC0803C910509F442
:103DB000E3C0883C910509F4DFC0883B910509F018
:103DC000EAC0C2C080916E068093BB00CFC09091C4
:103DD000950680919606981768F490919506E92FBC
:103DE000F0E0EB58F94F80818093BB009F5F909388
:103DF0009506BCC080916F06882309F44BC085ED01
:103E00008093BC008091BC0084FDFCCFC2C080E2E6
:103E10008093DA0685ED8093BC008091BC0084FD20
:103E2000FCCFB7C080E38093DA0685ED8093BC00B9
:103E30008091BC0084FDFCCFACC088E38093DA069F
:103E40009BC0809195069091BB00E82FF0E0EB5865
:103E5000F94F90838F5F809395069091950680919E
:103E6000960682C0809195069091BB00E82FF0E005
:103E7000EB58F94F90838F5F8093950680916F0682
:103E8000882341F085ED8093BC008091BC0084FDC7
:103E9000FCCF7FC081E08093700684EA6EC085ED20
:103EA0008093BC008091BC0084FDFCCF72C083E095
:103EB00080936D061092D90659C08091D906803240
:103EC00008F056C08091D9069091BB00E82FF0E031
:103ED000E754F94F90838F5F8093D90647C0809154
:103EE000D906803230F4E091D906F0E0E754F94F7A
:103EF000108285ED8093BC008091BC0084FDFCCFD6
:103F000010926D066091D906E0917306F0917406E7
:103F100089EB96E070E009951092D9062DC084E0F7
:103F200080936D061092B7061092B806E091710664
:103F3000F091720609958091B806882329F481E0F2
:103F40008093B806109297069091B706E92FF0E09B
:103F5000E956F94F80818093BB009F5F9093B7062D
:103F60009091B7068091B806981710F485EC01C0BF
:103F700085E88093BC000FC085EC8093BC0009C02D
:103F80001092DA0685ED8093BC008091BC0084FD20
:103F9000FCCF10926D06FF91EF91BF91AF919F9171
:103FA0008F917F916F915F914F913F912F910F90E2
:103FB0000FBE0F901F90189510926D0681E08093B0
:103FC0006F061092700682E161E00E94BB1A83E1E5
:103FD00061E00E94BB1AE9EBF0E080818E7F808374
:103FE00080818D7F808380E28093B80085E4809318
:103FF000BC000895F999FECF72BD61BDF89A80B5F5
:104000000895F999FECF1FBA72BD61BD40BD0FB6CC
:10401000F894FA9AF99A0FBE0895629FD001739F9F
:10402000F001829FE00DF11D649FE00DF11D929F54
:10403000F00D839FF00D749FF00D659FF00D992793
:10404000729FB00DE11DF91F639FB00DE11DF91FB7
:10405000BD01CF0111240895A1E21A2EAA1BBB1B9A
:10406000FD010DC0AA1FBB1FEE1FFF1FA217B30744
:10407000E407F50720F0A21BB30BE40BF50B661F5A
:10408000771F881F991F1A9469F76095709580951E
:1040900090959B01AC01BD01CF01089597FB092EBE
:1040A00005260ED057FD04D0D7DF0AD0001C38F407
:1040B00050954095309521953F4F4F4F5F4F089554
:1040C000F6F790958095709561957F4F8F4F9F4F34
:1040D0000895EE0FFF1F0590F491E02D09942F92A3
:1040E0003F924F925F926F927F928F929F92AF9288
:1040F000BF92CF92DF92EF92FF920F931F93CF93D5
:10410000DF93CDB7DEB7CA1BDB0B0FB6F894DEBF6B
:104110000FBECDBF09942A88398848885F846E8491
:104120007D848C849B84AA84B984C884DF80EE80DB
:10413000FD800C811B81AA81B981CE0FD11D0FB6E4
:10414000F894DEBF0FBECDBFED010895F894FFCF08
:104150000A002E000A0A002042504D0A0A002F00D1
:104160002020202020200053544F50000100000048
:10417000010164000A000100040001000102003C8A
:10418000000000000000000000000000000000002F
:10419000000000000000000000000000000000001F
:1041A000000000000000000000000000000000000F
:1041B00000000000000000000000000000000000FF
:1041C000808080000000000000000000000000006F
:1041D00000008080C0C0000000000000000000005F
:1041E00000000000000000000000000000000000CF
:1041F00000000000000000000000000000000000BF
:1042000000000000000000000000000000000000AE
:10421000000000000080C0E0F0F8FCF8E0000000C2
:10422000000000000000000000000000000080808E
:10423000808080008080000000008080808080007E
:10424000FFFFFF0000000080808080000080800071
:104250000080FFFF80800080800080808080008060
:10426000800000000000808000008C8E84000080B0
:10427000F8F8F880000000000000000000000000D6
:1042800000F0F0F0F0F0F0F0F0F0F0F0F0E0E0C06E
:104290008000E0FCFEFFFFFF7FFFFFFFFFFF00004D
:1042A000000000000000000000000000FEFFC70149
:1042B00001010183FFFF00007CFEC70101010183B2
:1042C000FFFFFF0038FEC78301010183C7FFFF0026
:1042D0000001FFFF010100FFFF0701010100007F56
:1042E000FF80000000FFFF7F0000FFFFFF000001D4
:1042F000FFFFFF01000000000000000000000000C0
:1043000000030F3F7F7FFFFFFFFFFFFFFFE7C7C7F0
:104310008F8F9FBFFFFFC3C0F0FFFFFFFFFFFCFCBD
:10432000FCFCFCFCFCFCF8F8F0F0E0C0000103032E
:10433000030303010303000000000103030303015F
:104340000103010000000103030303010103030053
:104350000000030300000003030000000000000051
:104360000103030303030100000001030100000037
:104370000303010000000000000000000000000036
:104380000000000080C0E0F0F9FFFFFFFFFF3F1FCB
:104390000F87C7F7FFFF1F1F3DFCF8F8F8F87C7D7B
:1043A000FFFFFFFFFFFFFFFF7F3F0F0700303000E1
:1043B00000000000000000000000000000000000FD
:1043C0000000000000FEFEFC0000000000000000F5
:1043D0000000000000000000000000000000E0C03D
:1043E000000000000000000000000030300000006D
:1043F00000000000000000000000000000000000BD
:104400000000C0FEFFFFFFFFFFFFFFFFFF7F7F3FBA
:104410001F0F071F7FFFFFF8F8FFFFFFFFFFFEF8EA
:10442000E0000000010000000000000000FEFE00AF
:104430000000FCFEFC0C06060EFCF80000F0F81C68
:104440000E0606060CFFFFFF0000FEFE0000000047
:10445000FCFEFC00183C7E66E6CE84000006FFFFF2
:104460000606FCFEFC0C0606060000FEFE0000C070
:10447000F8FC4E4646464E7C7840183C76E6CECC5C
:1044800080000000000000000000000000000000AC
:10449000000000000001070F1F1F3F3F3F3F1F0F9D
:1044A000030000000000000000000000000F0F00EB
:1044B00000000F0F0F000000000F0F000003070E99
:1044C0000C18180C060F0F0F0000010F0E0C180C23
:1044D0000F070100040E0C180C0F070000000F0F4F
:1044E00000000F0F0F0000000000000F0F00000081
:1044F00007070C0C181C0C060600040E0C180C0FF9
:1045000007000000000000000000000000000000A4
:10451000000000000000000000000000000000009B
:10452000000000000000000000000000000000008B
:10453000000000000000000000000000000000007B
:10454000000000000000000000000000000000006B
:10455000000000000000000000000000000000005B
:10456000000000000000000000000000000000004B
:10457000000000000000000000000000000000003B
:1045800000000103070F1F3F7F0080C0E0F0F8FC30
:10459000FEFF018000E006000000000000880DB36F
:1045A00014B214E90AF20B0E0C9E0B2D0C650C0DC7
:1045B0000E00000000880DB314D613E90A720F0E26
:1045C0000E9E0B2D0C650C761100000000891D5805
:0A45D0001D111D1A1D2F1D401D00B6
:00000001FF
